{
  "contractName": "CryptoTicketsMatchNFTs",
  "abi": [
    {
      "inputs": [
        {
          "internalType": "address",
          "name": "rewardsTicketAddress",
          "type": "address"
        }
      ],
      "stateMutability": "nonpayable",
      "type": "constructor"
    },
    {
      "anonymous": false,
      "inputs": [
        {
          "indexed": true,
          "internalType": "address",
          "name": "owner",
          "type": "address"
        },
        {
          "indexed": true,
          "internalType": "address",
          "name": "approved",
          "type": "address"
        },
        {
          "indexed": true,
          "internalType": "uint256",
          "name": "tokenId",
          "type": "uint256"
        }
      ],
      "name": "Approval",
      "type": "event"
    },
    {
      "anonymous": false,
      "inputs": [
        {
          "indexed": true,
          "internalType": "address",
          "name": "owner",
          "type": "address"
        },
        {
          "indexed": true,
          "internalType": "address",
          "name": "operator",
          "type": "address"
        },
        {
          "indexed": false,
          "internalType": "bool",
          "name": "approved",
          "type": "bool"
        }
      ],
      "name": "ApprovalForAll",
      "type": "event"
    },
    {
      "anonymous": false,
      "inputs": [
        {
          "indexed": true,
          "internalType": "address",
          "name": "sender",
          "type": "address"
        },
        {
          "indexed": true,
          "internalType": "address",
          "name": "clubAddress",
          "type": "address"
        }
      ],
      "name": "ClubAdminRoleGranted",
      "type": "event"
    },
    {
      "anonymous": false,
      "inputs": [
        {
          "indexed": true,
          "internalType": "address",
          "name": "sender",
          "type": "address"
        },
        {
          "indexed": true,
          "internalType": "address",
          "name": "clubAddress",
          "type": "address"
        }
      ],
      "name": "ClubAdminRoleRevoked",
      "type": "event"
    },
    {
      "anonymous": false,
      "inputs": [
        {
          "indexed": false,
          "internalType": "string",
          "name": "_message",
          "type": "string"
        },
        {
          "indexed": true,
          "internalType": "address",
          "name": "account",
          "type": "address"
        }
      ],
      "name": "MsgInfoAccountListKo",
      "type": "event"
    },
    {
      "anonymous": false,
      "inputs": [
        {
          "indexed": false,
          "internalType": "string",
          "name": "_message",
          "type": "string"
        },
        {
          "indexed": true,
          "internalType": "address",
          "name": "account",
          "type": "address"
        }
      ],
      "name": "MsgInfoAccountListOk",
      "type": "event"
    },
    {
      "anonymous": false,
      "inputs": [
        {
          "indexed": false,
          "internalType": "string",
          "name": "_message",
          "type": "string"
        },
        {
          "indexed": true,
          "internalType": "address",
          "name": "account",
          "type": "address"
        }
      ],
      "name": "MsgInfoMinted",
      "type": "event"
    },
    {
      "anonymous": false,
      "inputs": [
        {
          "indexed": false,
          "internalType": "address",
          "name": "account",
          "type": "address"
        }
      ],
      "name": "Paused",
      "type": "event"
    },
    {
      "anonymous": false,
      "inputs": [
        {
          "indexed": true,
          "internalType": "bytes32",
          "name": "role",
          "type": "bytes32"
        },
        {
          "indexed": true,
          "internalType": "bytes32",
          "name": "previousAdminRole",
          "type": "bytes32"
        },
        {
          "indexed": true,
          "internalType": "bytes32",
          "name": "newAdminRole",
          "type": "bytes32"
        }
      ],
      "name": "RoleAdminChanged",
      "type": "event"
    },
    {
      "anonymous": false,
      "inputs": [
        {
          "indexed": true,
          "internalType": "bytes32",
          "name": "role",
          "type": "bytes32"
        },
        {
          "indexed": true,
          "internalType": "address",
          "name": "account",
          "type": "address"
        },
        {
          "indexed": true,
          "internalType": "address",
          "name": "sender",
          "type": "address"
        }
      ],
      "name": "RoleGranted",
      "type": "event"
    },
    {
      "anonymous": false,
      "inputs": [
        {
          "indexed": true,
          "internalType": "bytes32",
          "name": "role",
          "type": "bytes32"
        },
        {
          "indexed": true,
          "internalType": "address",
          "name": "account",
          "type": "address"
        },
        {
          "indexed": true,
          "internalType": "address",
          "name": "sender",
          "type": "address"
        }
      ],
      "name": "RoleRevoked",
      "type": "event"
    },
    {
      "anonymous": false,
      "inputs": [
        {
          "indexed": false,
          "internalType": "string",
          "name": "_message",
          "type": "string"
        }
      ],
      "name": "Status",
      "type": "event"
    },
    {
      "anonymous": false,
      "inputs": [
        {
          "indexed": true,
          "internalType": "address",
          "name": "from",
          "type": "address"
        },
        {
          "indexed": true,
          "internalType": "address",
          "name": "to",
          "type": "address"
        },
        {
          "indexed": true,
          "internalType": "uint256",
          "name": "tokenId",
          "type": "uint256"
        }
      ],
      "name": "Transfer",
      "type": "event"
    },
    {
      "anonymous": false,
      "inputs": [
        {
          "indexed": false,
          "internalType": "address",
          "name": "account",
          "type": "address"
        }
      ],
      "name": "Unpaused",
      "type": "event"
    },
    {
      "inputs": [],
      "name": "ADMIN_CLUB_ROLE",
      "outputs": [
        {
          "internalType": "bytes32",
          "name": "",
          "type": "bytes32"
        }
      ],
      "stateMutability": "view",
      "type": "function",
      "constant": true
    },
    {
      "inputs": [],
      "name": "DEFAULT_ADMIN_ROLE",
      "outputs": [
        {
          "internalType": "bytes32",
          "name": "",
          "type": "bytes32"
        }
      ],
      "stateMutability": "view",
      "type": "function",
      "constant": true
    },
    {
      "inputs": [
        {
          "internalType": "address",
          "name": "to",
          "type": "address"
        },
        {
          "internalType": "uint256",
          "name": "tokenId",
          "type": "uint256"
        }
      ],
      "name": "approve",
      "outputs": [],
      "stateMutability": "nonpayable",
      "type": "function"
    },
    {
      "inputs": [
        {
          "internalType": "address",
          "name": "owner",
          "type": "address"
        }
      ],
      "name": "balanceOf",
      "outputs": [
        {
          "internalType": "uint256",
          "name": "",
          "type": "uint256"
        }
      ],
      "stateMutability": "view",
      "type": "function",
      "constant": true
    },
    {
      "inputs": [
        {
          "internalType": "uint256",
          "name": "tokenId",
          "type": "uint256"
        }
      ],
      "name": "burn",
      "outputs": [],
      "stateMutability": "nonpayable",
      "type": "function"
    },
    {
      "inputs": [],
      "name": "club",
      "outputs": [
        {
          "internalType": "address payable",
          "name": "",
          "type": "address"
        }
      ],
      "stateMutability": "view",
      "type": "function",
      "constant": true
    },
    {
      "inputs": [
        {
          "internalType": "uint256",
          "name": "tokenId",
          "type": "uint256"
        }
      ],
      "name": "getApproved",
      "outputs": [
        {
          "internalType": "address",
          "name": "",
          "type": "address"
        }
      ],
      "stateMutability": "view",
      "type": "function",
      "constant": true
    },
    {
      "inputs": [
        {
          "internalType": "bytes32",
          "name": "role",
          "type": "bytes32"
        }
      ],
      "name": "getRoleAdmin",
      "outputs": [
        {
          "internalType": "bytes32",
          "name": "",
          "type": "bytes32"
        }
      ],
      "stateMutability": "view",
      "type": "function",
      "constant": true
    },
    {
      "inputs": [
        {
          "internalType": "bytes32",
          "name": "role",
          "type": "bytes32"
        },
        {
          "internalType": "address",
          "name": "account",
          "type": "address"
        }
      ],
      "name": "grantRole",
      "outputs": [],
      "stateMutability": "nonpayable",
      "type": "function"
    },
    {
      "inputs": [
        {
          "internalType": "bytes32",
          "name": "role",
          "type": "bytes32"
        },
        {
          "internalType": "address",
          "name": "account",
          "type": "address"
        }
      ],
      "name": "hasRole",
      "outputs": [
        {
          "internalType": "bool",
          "name": "",
          "type": "bool"
        }
      ],
      "stateMutability": "view",
      "type": "function",
      "constant": true
    },
    {
      "inputs": [
        {
          "internalType": "address",
          "name": "owner",
          "type": "address"
        },
        {
          "internalType": "address",
          "name": "operator",
          "type": "address"
        }
      ],
      "name": "isApprovedForAll",
      "outputs": [
        {
          "internalType": "bool",
          "name": "",
          "type": "bool"
        }
      ],
      "stateMutability": "view",
      "type": "function",
      "constant": true
    },
    {
      "inputs": [
        {
          "internalType": "uint256",
          "name": "",
          "type": "uint256"
        }
      ],
      "name": "listSubscriber",
      "outputs": [
        {
          "internalType": "address",
          "name": "",
          "type": "address"
        }
      ],
      "stateMutability": "view",
      "type": "function",
      "constant": true
    },
    {
      "inputs": [],
      "name": "name",
      "outputs": [
        {
          "internalType": "string",
          "name": "",
          "type": "string"
        }
      ],
      "stateMutability": "view",
      "type": "function",
      "constant": true
    },
    {
      "inputs": [
        {
          "internalType": "uint256",
          "name": "tokenId",
          "type": "uint256"
        }
      ],
      "name": "ownerOf",
      "outputs": [
        {
          "internalType": "address",
          "name": "",
          "type": "address"
        }
      ],
      "stateMutability": "view",
      "type": "function",
      "constant": true
    },
    {
      "inputs": [],
      "name": "paused",
      "outputs": [
        {
          "internalType": "bool",
          "name": "",
          "type": "bool"
        }
      ],
      "stateMutability": "view",
      "type": "function",
      "constant": true
    },
    {
      "inputs": [
        {
          "internalType": "bytes32",
          "name": "role",
          "type": "bytes32"
        },
        {
          "internalType": "address",
          "name": "account",
          "type": "address"
        }
      ],
      "name": "renounceRole",
      "outputs": [],
      "stateMutability": "nonpayable",
      "type": "function"
    },
    {
      "inputs": [
        {
          "internalType": "bytes32",
          "name": "role",
          "type": "bytes32"
        },
        {
          "internalType": "address",
          "name": "account",
          "type": "address"
        }
      ],
      "name": "revokeRole",
      "outputs": [],
      "stateMutability": "nonpayable",
      "type": "function"
    },
    {
      "inputs": [
        {
          "internalType": "uint256",
          "name": "_tokenId",
          "type": "uint256"
        },
        {
          "internalType": "uint256",
          "name": "_salePrice",
          "type": "uint256"
        }
      ],
      "name": "royaltyInfo",
      "outputs": [
        {
          "internalType": "address",
          "name": "",
          "type": "address"
        },
        {
          "internalType": "uint256",
          "name": "",
          "type": "uint256"
        }
      ],
      "stateMutability": "view",
      "type": "function",
      "constant": true
    },
    {
      "inputs": [
        {
          "internalType": "address",
          "name": "from",
          "type": "address"
        },
        {
          "internalType": "address",
          "name": "to",
          "type": "address"
        },
        {
          "internalType": "uint256",
          "name": "tokenId",
          "type": "uint256"
        }
      ],
      "name": "safeTransferFrom",
      "outputs": [],
      "stateMutability": "nonpayable",
      "type": "function"
    },
    {
      "inputs": [
        {
          "internalType": "address",
          "name": "from",
          "type": "address"
        },
        {
          "internalType": "address",
          "name": "to",
          "type": "address"
        },
        {
          "internalType": "uint256",
          "name": "tokenId",
          "type": "uint256"
        },
        {
          "internalType": "bytes",
          "name": "_data",
          "type": "bytes"
        }
      ],
      "name": "safeTransferFrom",
      "outputs": [],
      "stateMutability": "nonpayable",
      "type": "function"
    },
    {
      "inputs": [
        {
          "internalType": "address",
          "name": "operator",
          "type": "address"
        },
        {
          "internalType": "bool",
          "name": "approved",
          "type": "bool"
        }
      ],
      "name": "setApprovalForAll",
      "outputs": [],
      "stateMutability": "nonpayable",
      "type": "function"
    },
    {
      "inputs": [],
      "name": "symbol",
      "outputs": [
        {
          "internalType": "string",
          "name": "",
          "type": "string"
        }
      ],
      "stateMutability": "view",
      "type": "function",
      "constant": true
    },
    {
      "inputs": [
        {
          "internalType": "uint256",
          "name": "index",
          "type": "uint256"
        }
      ],
      "name": "tokenByIndex",
      "outputs": [
        {
          "internalType": "uint256",
          "name": "",
          "type": "uint256"
        }
      ],
      "stateMutability": "view",
      "type": "function",
      "constant": true
    },
    {
      "inputs": [
        {
          "internalType": "address",
          "name": "owner",
          "type": "address"
        },
        {
          "internalType": "uint256",
          "name": "index",
          "type": "uint256"
        }
      ],
      "name": "tokenOfOwnerByIndex",
      "outputs": [
        {
          "internalType": "uint256",
          "name": "",
          "type": "uint256"
        }
      ],
      "stateMutability": "view",
      "type": "function",
      "constant": true
    },
    {
      "inputs": [],
      "name": "totalSupply",
      "outputs": [
        {
          "internalType": "uint256",
          "name": "",
          "type": "uint256"
        }
      ],
      "stateMutability": "view",
      "type": "function",
      "constant": true
    },
    {
      "inputs": [
        {
          "internalType": "address",
          "name": "from",
          "type": "address"
        },
        {
          "internalType": "address",
          "name": "to",
          "type": "address"
        },
        {
          "internalType": "uint256",
          "name": "tokenId",
          "type": "uint256"
        }
      ],
      "name": "transferFrom",
      "outputs": [],
      "stateMutability": "nonpayable",
      "type": "function"
    },
    {
      "inputs": [],
      "name": "contractURI",
      "outputs": [
        {
          "internalType": "string",
          "name": "",
          "type": "string"
        }
      ],
      "stateMutability": "pure",
      "type": "function",
      "constant": true
    },
    {
      "inputs": [],
      "name": "pause",
      "outputs": [],
      "stateMutability": "nonpayable",
      "type": "function"
    },
    {
      "inputs": [],
      "name": "unpause",
      "outputs": [],
      "stateMutability": "nonpayable",
      "type": "function"
    },
    {
      "inputs": [
        {
          "internalType": "address",
          "name": "to",
          "type": "address"
        },
        {
          "internalType": "string",
          "name": "uri",
          "type": "string"
        }
      ],
      "name": "mintTicket",
      "outputs": [],
      "stateMutability": "payable",
      "type": "function",
      "payable": true
    },
    {
      "inputs": [
        {
          "internalType": "string",
          "name": "uri",
          "type": "string"
        }
      ],
      "name": "mintMatch",
      "outputs": [],
      "stateMutability": "nonpayable",
      "type": "function"
    },
    {
      "inputs": [
        {
          "internalType": "uint256",
          "name": "tokenId",
          "type": "uint256"
        }
      ],
      "name": "burnTicket",
      "outputs": [],
      "stateMutability": "nonpayable",
      "type": "function"
    },
    {
      "inputs": [
        {
          "internalType": "uint256",
          "name": "matchId",
          "type": "uint256"
        }
      ],
      "name": "tokenURI",
      "outputs": [
        {
          "internalType": "string",
          "name": "",
          "type": "string"
        }
      ],
      "stateMutability": "view",
      "type": "function",
      "constant": true
    },
    {
      "inputs": [
        {
          "internalType": "bytes4",
          "name": "interfaceId",
          "type": "bytes4"
        }
      ],
      "name": "supportsInterface",
      "outputs": [
        {
          "internalType": "bool",
          "name": "",
          "type": "bool"
        }
      ],
      "stateMutability": "view",
      "type": "function",
      "constant": true
    },
    {
      "inputs": [
        {
          "internalType": "address",
          "name": "account",
          "type": "address"
        }
      ],
      "name": "grantAdminRol",
      "outputs": [],
      "stateMutability": "nonpayable",
      "type": "function"
    },
    {
      "inputs": [
        {
          "internalType": "address",
          "name": "account",
          "type": "address"
        }
      ],
      "name": "grantClubRol",
      "outputs": [],
      "stateMutability": "nonpayable",
      "type": "function"
    },
    {
      "inputs": [
        {
          "internalType": "address",
          "name": "account",
          "type": "address"
        }
      ],
      "name": "revokeClubRol",
      "outputs": [],
      "stateMutability": "nonpayable",
      "type": "function"
    },
    {
      "inputs": [
        {
          "internalType": "address",
          "name": "account",
          "type": "address"
        }
      ],
      "name": "addAMembershipddress",
      "outputs": [],
      "stateMutability": "nonpayable",
      "type": "function"
    },
    {
      "inputs": [
        {
          "internalType": "address",
          "name": "value",
          "type": "address"
        }
      ],
      "name": "findAddress",
      "outputs": [
        {
          "internalType": "uint256",
          "name": "",
          "type": "uint256"
        }
      ],
      "stateMutability": "view",
      "type": "function",
      "constant": true
    },
    {
      "inputs": [],
      "name": "getAddressInfo",
      "outputs": [
        {
          "internalType": "address[]",
          "name": "",
          "type": "address[]"
        }
      ],
      "stateMutability": "view",
      "type": "function",
      "constant": true
    },
    {
      "inputs": [
        {
          "internalType": "address",
          "name": "value",
          "type": "address"
        }
      ],
      "name": "removeMembershipAddress",
      "outputs": [],
      "stateMutability": "nonpayable",
      "type": "function"
    },
    {
      "inputs": [
        {
          "internalType": "address",
          "name": "_receiver",
          "type": "address"
        },
        {
          "internalType": "uint96",
          "name": "_royaltyFeesInBips",
          "type": "uint96"
        }
      ],
      "name": "setRoyaltyInfo",
      "outputs": [],
      "stateMutability": "nonpayable",
      "type": "function"
    }
  ],
  "bytecode": "0x60806040526103e8601360146101000a8154816bffffffffffffffffffffffff02191690836bffffffffffffffffffffffff1602179055503480156200004457600080fd5b5060405162006be938038062006be983398181016040528101906200006a9190620008bd565b6040518060400160405280601681526020017f43727970746f5469636b6574734d617463684e465473000000000000000000008152506040518060400160405280600581526020017f43544b4d4e0000000000000000000000000000000000000000000000000000008152508160009081620000e7919062000b69565b508060019081620000f9919062000b69565b5050506000600b60006101000a81548160ff02191690831515021790555080600f60006101000a81548173ffffffffffffffffffffffffffffffffffffffff021916908373ffffffffffffffffffffffffffffffffffffffff1602179055506200016d6000801b33620001d260201b60201c565b6200019f7f9894090c012e113e817b2d99a7f6ad3e666491f10820f12b8bc4b139f2ea06bb33620001d260201b60201c565b620001cb33601360149054906101000a90046bffffffffffffffffffffffff16620002c460201b60201c565b50620010f7565b620001e48282620002f060201b60201c565b620002c0576001600c600084815260200190815260200160002060000160008373ffffffffffffffffffffffffffffffffffffffff1673ffffffffffffffffffffffffffffffffffffffff16815260200190815260200160002060006101000a81548160ff021916908315150217905550620002656200035b60201b60201c565b73ffffffffffffffffffffffffffffffffffffffff168173ffffffffffffffffffffffffffffffffffffffff16837f2f8788117e7eff1d82e926ec794901d17c78024a50270940304540a733656f0d60405160405180910390a45b5050565b6000801b620002d9816200036360201b60201c565b620002eb83836200038760201b60201c565b505050565b6000600c600084815260200190815260200160002060000160008373ffffffffffffffffffffffffffffffffffffffff1673ffffffffffffffffffffffffffffffffffffffff16815260200190815260200160002060009054906101000a900460ff16905092915050565b600033905090565b6200038481620003786200035b60201b60201c565b6200052a60201b60201c565b50565b62000397620005ee60201b60201c565b6bffffffffffffffffffffffff16816bffffffffffffffffffffffff161115620003f8576040517f08c379a0000000000000000000000000000000000000000000000000000000008152600401620003ef9062000cd7565b60405180910390fd5b600073ffffffffffffffffffffffffffffffffffffffff168273ffffffffffffffffffffffffffffffffffffffff16036200046a576040517f08c379a0000000000000000000000000000000000000000000000000000000008152600401620004619062000d49565b60405180910390fd5b60405180604001604052808373ffffffffffffffffffffffffffffffffffffffff168152602001826bffffffffffffffffffffffff16815250600d60008201518160000160006101000a81548173ffffffffffffffffffffffffffffffffffffffff021916908373ffffffffffffffffffffffffffffffffffffffff16021790555060208201518160000160146101000a8154816bffffffffffffffffffffffff02191690836bffffffffffffffffffffffff1602179055509050505050565b6200053c8282620002f060201b60201c565b620005ea576200056f8173ffffffffffffffffffffffffffffffffffffffff166014620005f860201b62001bb31760201c565b6200058a8360001c6020620005f860201b62001bb31760201c565b6040516020016200059d92919062000e83565b6040516020818303038152906040526040517f08c379a0000000000000000000000000000000000000000000000000000000008152600401620005e1919062000f17565b60405180910390fd5b5050565b6000612710905090565b6060600060028360026200060d919062000f6a565b62000619919062000fcb565b67ffffffffffffffff811115620006355762000634620008fa565b5b6040519080825280601f01601f191660200182016040528015620006685781602001600182028036833780820191505090505b5090507f300000000000000000000000000000000000000000000000000000000000000081600081518110620006a357620006a262001028565b5b60200101907effffffffffffffffffffffffffffffffffffffffffffffffffffffffffffff1916908160001a9053507f7800000000000000000000000000000000000000000000000000000000000000816001815181106200070a576200070962001028565b5b60200101907effffffffffffffffffffffffffffffffffffffffffffffffffffffffffffff1916908160001a905350600060018460026200074c919062000f6a565b62000758919062000fcb565b90505b600181111562000802577f3031323334353637383961626364656600000000000000000000000000000000600f8616601081106200079e576200079d62001028565b5b1a60f81b828281518110620007b857620007b762001028565b5b60200101907effffffffffffffffffffffffffffffffffffffffffffffffffffffffffffff1916908160001a905350600485901c945080620007fa9062001057565b90506200075b565b506000841462000849576040517f08c379a00000000000000000000000000000000000000000000000000000000081526004016200084090620010d5565b60405180910390fd5b8091505092915050565b600080fd5b600073ffffffffffffffffffffffffffffffffffffffff82169050919050565b6000620008858262000858565b9050919050565b620008978162000878565b8114620008a357600080fd5b50565b600081519050620008b7816200088c565b92915050565b600060208284031215620008d657620008d562000853565b5b6000620008e684828501620008a6565b91505092915050565b600081519050919050565b7f4e487b7100000000000000000000000000000000000000000000000000000000600052604160045260246000fd5b7f4e487b7100000000000000000000000000000000000000000000000000000000600052602260045260246000fd5b600060028204905060018216806200097157607f821691505b60208210810362000987576200098662000929565b5b50919050565b60008190508160005260206000209050919050565b60006020601f8301049050919050565b600082821b905092915050565b600060088302620009f17fffffffffffffffffffffffffffffffffffffffffffffffffffffffffffffffff82620009b2565b620009fd8683620009b2565b95508019841693508086168417925050509392505050565b6000819050919050565b6000819050919050565b600062000a4a62000a4462000a3e8462000a15565b62000a1f565b62000a15565b9050919050565b6000819050919050565b62000a668362000a29565b62000a7e62000a758262000a51565b848454620009bf565b825550505050565b600090565b62000a9562000a86565b62000aa281848462000a5b565b505050565b5b8181101562000aca5762000abe60008262000a8b565b60018101905062000aa8565b5050565b601f82111562000b195762000ae3816200098d565b62000aee84620009a2565b8101602085101562000afe578190505b62000b1662000b0d85620009a2565b83018262000aa7565b50505b505050565b600082821c905092915050565b600062000b3e6000198460080262000b1e565b1980831691505092915050565b600062000b59838362000b2b565b9150826002028217905092915050565b62000b7482620008ef565b67ffffffffffffffff81111562000b905762000b8f620008fa565b5b62000b9c825462000958565b62000ba982828562000ace565b600060209050601f83116001811462000be1576000841562000bcc578287015190505b62000bd8858262000b4b565b86555062000c48565b601f19841662000bf1866200098d565b60005b8281101562000c1b5784890151825560018201915060208501945060208101905062000bf4565b8683101562000c3b578489015162000c37601f89168262000b2b565b8355505b6001600288020188555050505b505050505050565b600082825260208201905092915050565b7f455243323938313a20726f79616c7479206665652077696c6c2065786365656460008201527f2073616c65507269636500000000000000000000000000000000000000000000602082015250565b600062000cbf602a8362000c50565b915062000ccc8262000c61565b604082019050919050565b6000602082019050818103600083015262000cf28162000cb0565b9050919050565b7f455243323938313a20696e76616c696420726563656976657200000000000000600082015250565b600062000d3160198362000c50565b915062000d3e8262000cf9565b602082019050919050565b6000602082019050818103600083015262000d648162000d22565b9050919050565b600081905092915050565b7f416363657373436f6e74726f6c3a206163636f756e7420000000000000000000600082015250565b600062000dae60178362000d6b565b915062000dbb8262000d76565b601782019050919050565b60005b8381101562000de657808201518184015260208101905062000dc9565b8381111562000df6576000848401525b50505050565b600062000e0982620008ef565b62000e15818562000d6b565b935062000e2781856020860162000dc6565b80840191505092915050565b7f206973206d697373696e6720726f6c6520000000000000000000000000000000600082015250565b600062000e6b60118362000d6b565b915062000e788262000e33565b601182019050919050565b600062000e908262000d9f565b915062000e9e828562000dfc565b915062000eab8262000e5c565b915062000eb9828462000dfc565b91508190509392505050565b6000601f19601f8301169050919050565b600062000ee382620008ef565b62000eef818562000c50565b935062000f0181856020860162000dc6565b62000f0c8162000ec5565b840191505092915050565b6000602082019050818103600083015262000f33818462000ed6565b905092915050565b7f4e487b7100000000000000000000000000000000000000000000000000000000600052601160045260246000fd5b600062000f778262000a15565b915062000f848362000a15565b9250817fffffffffffffffffffffffffffffffffffffffffffffffffffffffffffffffff048311821515161562000fc05762000fbf62000f3b565b5b828202905092915050565b600062000fd88262000a15565b915062000fe58362000a15565b9250827fffffffffffffffffffffffffffffffffffffffffffffffffffffffffffffffff038211156200101d576200101c62000f3b565b5b828201905092915050565b7f4e487b7100000000000000000000000000000000000000000000000000000000600052603260045260246000fd5b6000620010648262000a15565b9150600082036200107a576200107962000f3b565b5b600182039050919050565b7f537472696e67733a20686578206c656e67746820696e73756666696369656e74600082015250565b6000620010bd60208362000c50565b9150620010ca8262001085565b602082019050919050565b60006020820190508181036000830152620010f081620010ae565b9050919050565b615ae280620011076000396000f3fe6080604052600436106102515760003560e01c80635047611711610139578063a217fddf116100b6578063c87b56dd1161007a578063c87b56dd146108d6578063cd08dbb214610913578063d547741f1461093c578063e8a3d48514610965578063e985e9c514610990578063fe5a0666146109cd57610251565b8063a217fddf14610807578063a22cb46514610832578063a476b73d1461085b578063a9757b5314610884578063b88d4fde146108ad57610251565b80637367c0d0116100fd5780637367c0d0146107225780638456cb591461074b57806391d148541461076257806395d89b411461079f5780639b6dd9ae146107ca57610251565b806350476117146106385780635388842c146106615780635c975abb1461067d5780636352211e146106a857806370a08231146106e557610251565b8063248a9ca3116101d25780633bf08451116101965780633bf084511461053c5780633f4ba83a1461056757806342842e0e1461057e57806342966c68146105a75780634f2a36ab146105d05780634f6ccce7146105fb57610251565b8063248a9ca3146104325780632a55205a1461046f5780632f2ff15d146104ad5780632f745c59146104d657806336568abe1461051357610251565b8063095ea7b311610219578063095ea7b3146103615780630efd09731461038a5780631355e517146103b557806318160ddd146103de57806323b872dd1461040957610251565b806301ffc9a71461025657806302fa7c47146102935780630309aca3146102bc57806306fdde03146102f9578063081812fc14610324575b600080fd5b34801561026257600080fd5b5061027d60048036038101906102789190613b26565b6109f6565b60405161028a9190613b6e565b60405180910390f35b34801561029f57600080fd5b506102ba60048036038101906102b59190613c2b565b610a08565b005b3480156102c857600080fd5b506102e360048036038101906102de9190613c6b565b610a24565b6040516102f09190613cb1565b60405180910390f35b34801561030557600080fd5b5061030e610ab9565b60405161031b9190613d65565b60405180910390f35b34801561033057600080fd5b5061034b60048036038101906103469190613db3565b610b4b565b6040516103589190613def565b60405180910390f35b34801561036d57600080fd5b5061038860048036038101906103839190613e0a565b610bd0565b005b34801561039657600080fd5b5061039f610ce7565b6040516103ac9190613e6b565b60405180910390f35b3480156103c157600080fd5b506103dc60048036038101906103d79190613c6b565b610d0d565b005b3480156103ea57600080fd5b506103f3610dcd565b6040516104009190613cb1565b60405180910390f35b34801561041557600080fd5b50610430600480360381019061042b9190613e86565b610dda565b005b34801561043e57600080fd5b5061045960048036038101906104549190613f0f565b610e3a565b6040516104669190613f4b565b60405180910390f35b34801561047b57600080fd5b5061049660048036038101906104919190613f66565b610e5a565b6040516104a4929190613fa6565b60405180910390f35b3480156104b957600080fd5b506104d460048036038101906104cf9190613fcf565b611044565b005b3480156104e257600080fd5b506104fd60048036038101906104f89190613e0a565b611065565b60405161050a9190613cb1565b60405180910390f35b34801561051f57600080fd5b5061053a60048036038101906105359190613fcf565b61110a565b005b34801561054857600080fd5b5061055161118d565b60405161055e9190613f4b565b60405180910390f35b34801561057357600080fd5b5061057c6111b1565b005b34801561058a57600080fd5b506105a560048036038101906105a09190613e86565b6111e6565b005b3480156105b357600080fd5b506105ce60048036038101906105c99190613db3565b611206565b005b3480156105dc57600080fd5b506105e5611262565b6040516105f291906140cd565b60405180910390f35b34801561060757600080fd5b50610622600480360381019061061d9190613db3565b6112f0565b60405161062f9190613cb1565b60405180910390f35b34801561064457600080fd5b5061065f600480360381019061065a9190613c6b565b611361565b005b61067b60048036038101906106769190614224565b6113f6565b005b34801561068957600080fd5b50610692611427565b60405161069f9190613b6e565b60405180910390f35b3480156106b457600080fd5b506106cf60048036038101906106ca9190613db3565b61143e565b6040516106dc9190613def565b60405180910390f35b3480156106f157600080fd5b5061070c60048036038101906107079190613c6b565b6114ef565b6040516107199190613cb1565b60405180910390f35b34801561072e57600080fd5b5061074960048036038101906107449190613c6b565b6115a6565b005b34801561075757600080fd5b506107606115c4565b005b34801561076e57600080fd5b5061078960048036038101906107849190613fcf565b6115f9565b6040516107969190613b6e565b60405180910390f35b3480156107ab57600080fd5b506107b4611664565b6040516107c19190613d65565b60405180910390f35b3480156107d657600080fd5b506107f160048036038101906107ec9190613db3565b6116f6565b6040516107fe9190613def565b60405180910390f35b34801561081357600080fd5b5061081c611735565b6040516108299190613f4b565b60405180910390f35b34801561083e57600080fd5b50610859600480360381019061085491906142ac565b61173c565b005b34801561086757600080fd5b50610882600480360381019061087d9190613db3565b611752565b005b34801561089057600080fd5b506108ab60048036038101906108a691906142ec565b6117eb565b005b3480156108b957600080fd5b506108d460048036038101906108cf91906143d6565b6118d1565b005b3480156108e257600080fd5b506108fd60048036038101906108f89190613db3565b611933565b60405161090a9190613d65565b60405180910390f35b34801561091f57600080fd5b5061093a60048036038101906109359190613c6b565b611945565b005b34801561094857600080fd5b50610963600480360381019061095e9190613fcf565b611a49565b005b34801561097157600080fd5b5061097a611a6a565b6040516109879190613d65565b60405180910390f35b34801561099c57600080fd5b506109b760048036038101906109b29190614459565b611a8a565b6040516109c49190613b6e565b60405180910390f35b3480156109d957600080fd5b506109f460048036038101906109ef9190613c6b565b611b1e565b005b6000610a0182611def565b9050919050565b6000801b610a1581611e69565b610a1f8383611e7d565b505050565b600080600090505b8273ffffffffffffffffffffffffffffffffffffffff1660128281548110610a5757610a56614499565b5b9060005260206000200160009054906101000a900473ffffffffffffffffffffffffffffffffffffffff1673ffffffffffffffffffffffffffffffffffffffff1614610ab0578080610aa8906144f7565b915050610a2c565b80915050919050565b606060008054610ac89061456e565b80601f0160208091040260200160405190810160405280929190818152602001828054610af49061456e565b8015610b415780601f10610b1657610100808354040283529160200191610b41565b820191906000526020600020905b815481529060010190602001808311610b2457829003601f168201915b5050505050905090565b6000610b5682612012565b610b95576040517f08c379a0000000000000000000000000000000000000000000000000000000008152600401610b8c90614611565b60405180910390fd5b6004600083815260200190815260200160002060009054906101000a900473ffffffffffffffffffffffffffffffffffffffff169050919050565b6000610bdb8261143e565b90508073ffffffffffffffffffffffffffffffffffffffff168373ffffffffffffffffffffffffffffffffffffffff1603610c4b576040517f08c379a0000000000000000000000000000000000000000000000000000000008152600401610c42906146a3565b60405180910390fd5b8073ffffffffffffffffffffffffffffffffffffffff16610c6a61207e565b73ffffffffffffffffffffffffffffffffffffffff161480610c995750610c9881610c9361207e565b611a8a565b5b610cd8576040517f08c379a0000000000000000000000000000000000000000000000000000000008152600401610ccf90614735565b60405180910390fd5b610ce28383612086565b505050565b601360009054906101000a900473ffffffffffffffffffffffffffffffffffffffff1681565b6000801b610d1a81611e69565b6012829080600181540180825580915050600190039060005260206000200160009091909190916101000a81548173ffffffffffffffffffffffffffffffffffffffff021916908373ffffffffffffffffffffffffffffffffffffffff1602179055508173ffffffffffffffffffffffffffffffffffffffff167f8c5a800b232da4f063717d255d358a72560b410212770dd78b66b4e23133f77c604051610dc1906147c7565b60405180910390a25050565b6000600880549050905090565b610deb610de561207e565b8261213f565b610e2a576040517f08c379a0000000000000000000000000000000000000000000000000000000008152600401610e2190614859565b60405180910390fd5b610e3583838361221d565b505050565b6000600c6000838152602001908152602001600020600101549050919050565b6000806000600e60008681526020019081526020016000206040518060400160405290816000820160009054906101000a900473ffffffffffffffffffffffffffffffffffffffff1673ffffffffffffffffffffffffffffffffffffffff1673ffffffffffffffffffffffffffffffffffffffff1681526020016000820160149054906101000a90046bffffffffffffffffffffffff166bffffffffffffffffffffffff166bffffffffffffffffffffffff16815250509050600073ffffffffffffffffffffffffffffffffffffffff16816000015173ffffffffffffffffffffffffffffffffffffffff1603610fef57600d6040518060400160405290816000820160009054906101000a900473ffffffffffffffffffffffffffffffffffffffff1673ffffffffffffffffffffffffffffffffffffffff1673ffffffffffffffffffffffffffffffffffffffff1681526020016000820160149054906101000a90046bffffffffffffffffffffffff166bffffffffffffffffffffffff166bffffffffffffffffffffffff168152505090505b6000610ff9612483565b6bffffffffffffffffffffffff1682602001516bffffffffffffffffffffffff16866110259190614879565b61102f9190614902565b90508160000151819350935050509250929050565b61104d82610e3a565b61105681611e69565b611060838361248d565b505050565b6000611070836114ef565b82106110b1576040517f08c379a00000000000000000000000000000000000000000000000000000000081526004016110a8906149a5565b60405180910390fd5b600660008473ffffffffffffffffffffffffffffffffffffffff1673ffffffffffffffffffffffffffffffffffffffff168152602001908152602001600020600083815260200190815260200160002054905092915050565b61111261207e565b73ffffffffffffffffffffffffffffffffffffffff168173ffffffffffffffffffffffffffffffffffffffff161461117f576040517f08c379a000000000000000000000000000000000000000000000000000000000815260040161117690614a37565b60405180910390fd5b611189828261256e565b5050565b7f9894090c012e113e817b2d99a7f6ad3e666491f10820f12b8bc4b139f2ea06bb81565b7f9894090c012e113e817b2d99a7f6ad3e666491f10820f12b8bc4b139f2ea06bb6111db81611e69565b6111e3612650565b50565b611201838383604051806020016040528060008152506118d1565b505050565b61121761121161207e565b8261213f565b611256576040517f08c379a000000000000000000000000000000000000000000000000000000000815260040161124d90614ac9565b60405180910390fd5b61125f816126f2565b50565b606060128054806020026020016040519081016040528092919081815260200182805480156112e657602002820191906000526020600020905b8160009054906101000a900473ffffffffffffffffffffffffffffffffffffffff1673ffffffffffffffffffffffffffffffffffffffff168152602001906001019080831161129c575b5050505050905090565b60006112fa610dcd565b821061133b576040517f08c379a000000000000000000000000000000000000000000000000000000000815260040161133290614b5b565b60405180910390fd5b6008828154811061134f5761134e614499565b5b90600052602060002001549050919050565b6000801b61136e81611e69565b6113987f9894090c012e113e817b2d99a7f6ad3e666491f10820f12b8bc4b139f2ea06bb8361248d565b8173ffffffffffffffffffffffffffffffffffffffff163373ffffffffffffffffffffffffffffffffffffffff167ff25ae518afe49b3c8f1a0f93c0adc26c177ff270839cfdc2f23250dea3a025bc60405160405180910390a35050565b600061140260106126fe565b905061140e601061270c565b6114188382612722565b6114228183612740565b505050565b6000600b60009054906101000a900460ff16905090565b6000806002600084815260200190815260200160002060009054906101000a900473ffffffffffffffffffffffffffffffffffffffff169050600073ffffffffffffffffffffffffffffffffffffffff168173ffffffffffffffffffffffffffffffffffffffff16036114e6576040517f08c379a00000000000000000000000000000000000000000000000000000000081526004016114dd90614bed565b60405180910390fd5b80915050919050565b60008073ffffffffffffffffffffffffffffffffffffffff168273ffffffffffffffffffffffffffffffffffffffff160361155f576040517f08c379a000000000000000000000000000000000000000000000000000000000815260040161155690614c7f565b60405180910390fd5b600360008373ffffffffffffffffffffffffffffffffffffffff1673ffffffffffffffffffffffffffffffffffffffff168152602001908152602001600020549050919050565b6000801b6115b381611e69565b6115c06000801b8361248d565b5050565b7f9894090c012e113e817b2d99a7f6ad3e666491f10820f12b8bc4b139f2ea06bb6115ee81611e69565b6115f66127ad565b50565b6000600c600084815260200190815260200160002060000160008373ffffffffffffffffffffffffffffffffffffffff1673ffffffffffffffffffffffffffffffffffffffff16815260200190815260200160002060009054906101000a900460ff16905092915050565b6060600180546116739061456e565b80601f016020809104026020016040519081016040528092919081815260200182805461169f9061456e565b80156116ec5780601f106116c1576101008083540402835291602001916116ec565b820191906000526020600020905b8154815290600101906020018083116116cf57829003601f168201915b5050505050905090565b6012818154811061170657600080fd5b906000526020600020016000915054906101000a900473ffffffffffffffffffffffffffffffffffffffff1681565b6000801b81565b61174e61174761207e565b8383612850565b5050565b61175b816126f2565b600f60009054906101000a900473ffffffffffffffffffffffffffffffffffffffff1673ffffffffffffffffffffffffffffffffffffffff16636ed2c6cf336040518263ffffffff1660e01b81526004016117b69190613def565b600060405180830381600087803b1580156117d057600080fd5b505af11580156117e4573d6000803e3d6000fd5b5050505050565b7f9894090c012e113e817b2d99a7f6ad3e666491f10820f12b8bc4b139f2ea06bb61181581611e69565b60005b6012805490508110156118805761186d6012828154811061183c5761183b614499565b5b9060005260206000200160009054906101000a900473ffffffffffffffffffffffffffffffffffffffff16846129bc565b8080611878906144f7565b915050611818565b503373ffffffffffffffffffffffffffffffffffffffff167f4553e13ff316f97f423d1ae7592854a3db7cbe812630d7fe99993903df0e028e6040516118c590614d11565b60405180910390a25050565b6118e26118dc61207e565b8361213f565b611921576040517f08c379a000000000000000000000000000000000000000000000000000000000815260040161191890614859565b60405180910390fd5b61192d848484846129ed565b50505050565b606061193e82612a49565b9050919050565b600061195082610a24565b9050601260016012805490506119669190614d31565b8154811061197757611976614499565b5b9060005260206000200160009054906101000a900473ffffffffffffffffffffffffffffffffffffffff16601282815481106119b6576119b5614499565b5b9060005260206000200160006101000a81548173ffffffffffffffffffffffffffffffffffffffff021916908373ffffffffffffffffffffffffffffffffffffffff1602179055506012805480611a1057611a0f614d65565b5b6001900381819060005260206000200160006101000a81549073ffffffffffffffffffffffffffffffffffffffff021916905590555050565b611a5282610e3a565b611a5b81611e69565b611a65838361256e565b505050565b6060604051806080016040528060518152602001615a5c60519139905090565b6000600560008473ffffffffffffffffffffffffffffffffffffffff1673ffffffffffffffffffffffffffffffffffffffff16815260200190815260200160002060008373ffffffffffffffffffffffffffffffffffffffff1673ffffffffffffffffffffffffffffffffffffffff16815260200190815260200160002060009054906101000a900460ff16905092915050565b6000801b611b2b81611e69565b611b557f9894090c012e113e817b2d99a7f6ad3e666491f10820f12b8bc4b139f2ea06bb8361256e565b8173ffffffffffffffffffffffffffffffffffffffff163373ffffffffffffffffffffffffffffffffffffffff167feca259f65afeb664520e27bcf53a29a7a276df0172960fd342f01ff705ba3b9560405160405180910390a35050565b606060006002836002611bc69190614879565b611bd09190614d94565b67ffffffffffffffff811115611be957611be86140f9565b5b6040519080825280601f01601f191660200182016040528015611c1b5781602001600182028036833780820191505090505b5090507f300000000000000000000000000000000000000000000000000000000000000081600081518110611c5357611c52614499565b5b60200101907effffffffffffffffffffffffffffffffffffffffffffffffffffffffffffff1916908160001a9053507f780000000000000000000000000000000000000000000000000000000000000081600181518110611cb757611cb6614499565b5b60200101907effffffffffffffffffffffffffffffffffffffffffffffffffffffffffffff1916908160001a90535060006001846002611cf79190614879565b611d019190614d94565b90505b6001811115611da1577f3031323334353637383961626364656600000000000000000000000000000000600f861660108110611d4357611d42614499565b5b1a60f81b828281518110611d5a57611d59614499565b5b60200101907effffffffffffffffffffffffffffffffffffffffffffffffffffffffffffff1916908160001a905350600485901c945080611d9a90614dea565b9050611d04565b5060008414611de5576040517f08c379a0000000000000000000000000000000000000000000000000000000008152600401611ddc90614e5f565b60405180910390fd5b8091505092915050565b60007f2a55205a000000000000000000000000000000000000000000000000000000007bffffffffffffffffffffffffffffffffffffffffffffffffffffffff1916827bffffffffffffffffffffffffffffffffffffffffffffffffffffffff19161480611e625750611e6182612b9a565b5b9050919050565b611e7a81611e7561207e565b612c14565b50565b611e85612483565b6bffffffffffffffffffffffff16816bffffffffffffffffffffffff161115611ee3576040517f08c379a0000000000000000000000000000000000000000000000000000000008152600401611eda90614ef1565b60405180910390fd5b600073ffffffffffffffffffffffffffffffffffffffff168273ffffffffffffffffffffffffffffffffffffffff1603611f52576040517f08c379a0000000000000000000000000000000000000000000000000000000008152600401611f4990614f5d565b60405180910390fd5b60405180604001604052808373ffffffffffffffffffffffffffffffffffffffff168152602001826bffffffffffffffffffffffff16815250600d60008201518160000160006101000a81548173ffffffffffffffffffffffffffffffffffffffff021916908373ffffffffffffffffffffffffffffffffffffffff16021790555060208201518160000160146101000a8154816bffffffffffffffffffffffff02191690836bffffffffffffffffffffffff1602179055509050505050565b60008073ffffffffffffffffffffffffffffffffffffffff166002600084815260200190815260200160002060009054906101000a900473ffffffffffffffffffffffffffffffffffffffff1673ffffffffffffffffffffffffffffffffffffffff1614159050919050565b600033905090565b816004600083815260200190815260200160002060006101000a81548173ffffffffffffffffffffffffffffffffffffffff021916908373ffffffffffffffffffffffffffffffffffffffff160217905550808273ffffffffffffffffffffffffffffffffffffffff166120f98361143e565b73ffffffffffffffffffffffffffffffffffffffff167f8c5be1e5ebec7d5bd14f71427d1e84f3dd0314c0f7b2291e5b200ac8c7c3b92560405160405180910390a45050565b600061214a82612012565b612189576040517f08c379a000000000000000000000000000000000000000000000000000000000815260040161218090614fef565b60405180910390fd5b60006121948361143e565b90508073ffffffffffffffffffffffffffffffffffffffff168473ffffffffffffffffffffffffffffffffffffffff1614806121d657506121d58185611a8a565b5b8061221457508373ffffffffffffffffffffffffffffffffffffffff166121fc84610b4b565b73ffffffffffffffffffffffffffffffffffffffff16145b91505092915050565b8273ffffffffffffffffffffffffffffffffffffffff1661223d8261143e565b73ffffffffffffffffffffffffffffffffffffffff1614612293576040517f08c379a000000000000000000000000000000000000000000000000000000000815260040161228a90615081565b60405180910390fd5b600073ffffffffffffffffffffffffffffffffffffffff168273ffffffffffffffffffffffffffffffffffffffff1603612302576040517f08c379a00000000000000000000000000000000000000000000000000000000081526004016122f990615113565b60405180910390fd5b61230d838383612cb1565b612318600082612086565b6001600360008573ffffffffffffffffffffffffffffffffffffffff1673ffffffffffffffffffffffffffffffffffffffff16815260200190815260200160002060008282546123689190614d31565b925050819055506001600360008473ffffffffffffffffffffffffffffffffffffffff1673ffffffffffffffffffffffffffffffffffffffff16815260200190815260200160002060008282546123bf9190614d94565b92505081905550816002600083815260200190815260200160002060006101000a81548173ffffffffffffffffffffffffffffffffffffffff021916908373ffffffffffffffffffffffffffffffffffffffff160217905550808273ffffffffffffffffffffffffffffffffffffffff168473ffffffffffffffffffffffffffffffffffffffff167fddf252ad1be2c89b69c2b068fc378daa952ba7f163c4a11628f55a4df523b3ef60405160405180910390a461247e838383612d09565b505050565b6000612710905090565b61249782826115f9565b61256a576001600c600084815260200190815260200160002060000160008373ffffffffffffffffffffffffffffffffffffffff1673ffffffffffffffffffffffffffffffffffffffff16815260200190815260200160002060006101000a81548160ff02191690831515021790555061250f61207e565b73ffffffffffffffffffffffffffffffffffffffff168173ffffffffffffffffffffffffffffffffffffffff16837f2f8788117e7eff1d82e926ec794901d17c78024a50270940304540a733656f0d60405160405180910390a45b5050565b61257882826115f9565b1561264c576000600c600084815260200190815260200160002060000160008373ffffffffffffffffffffffffffffffffffffffff1673ffffffffffffffffffffffffffffffffffffffff16815260200190815260200160002060006101000a81548160ff0219169083151502179055506125f161207e565b73ffffffffffffffffffffffffffffffffffffffff168173ffffffffffffffffffffffffffffffffffffffff16837ff6391f5c32d9c69d2a47ea670b442974b53935d1edc7fd64eb21e047a839171b60405160405180910390a45b5050565b612658611427565b612697576040517f08c379a000000000000000000000000000000000000000000000000000000000815260040161268e9061517f565b60405180910390fd5b6000600b60006101000a81548160ff0219169083151502179055507f5db9ee0a495bf2e6ff9c91a7834c1ba4fdd244a5e8aa4e537bd38aeae4b073aa6126db61207e565b6040516126e89190613def565b60405180910390a1565b6126fb81612d0e565b50565b600081600001549050919050565b6001816000016000828254019250508190555050565b61273c828260405180602001604052806000815250612d61565b5050565b61274982612012565b612788576040517f08c379a000000000000000000000000000000000000000000000000000000000815260040161277f90615211565b60405180910390fd5b80600a600084815260200190815260200160002090816127a891906153dd565b505050565b6127b5611427565b156127f5576040517f08c379a00000000000000000000000000000000000000000000000000000000081526004016127ec906154fb565b60405180910390fd5b6001600b60006101000a81548160ff0219169083151502179055507f62e78cea01bee320cd4e420270b5ea74000d11b0c9f74754ebdbfc544b05a25861283961207e565b6040516128469190613def565b60405180910390a1565b8173ffffffffffffffffffffffffffffffffffffffff168373ffffffffffffffffffffffffffffffffffffffff16036128be576040517f08c379a00000000000000000000000000000000000000000000000000000000081526004016128b590615567565b60405180910390fd5b80600560008573ffffffffffffffffffffffffffffffffffffffff1673ffffffffffffffffffffffffffffffffffffffff16815260200190815260200160002060008473ffffffffffffffffffffffffffffffffffffffff1673ffffffffffffffffffffffffffffffffffffffff16815260200190815260200160002060006101000a81548160ff0219169083151502179055508173ffffffffffffffffffffffffffffffffffffffff168373ffffffffffffffffffffffffffffffffffffffff167f17307eab39ab6107e8899845ad3d59bd9653f200f220920489ca2b5937696c31836040516129af9190613b6e565b60405180910390a3505050565b60006129c860106126fe565b90506129d4601061270c565b6129de8382612722565b6129e88183612740565b505050565b6129f884848461221d565b612a0484848484612dbc565b612a43576040517f08c379a0000000000000000000000000000000000000000000000000000000008152600401612a3a906155f9565b60405180910390fd5b50505050565b6060612a5482612012565b612a93576040517f08c379a0000000000000000000000000000000000000000000000000000000008152600401612a8a9061568b565b60405180910390fd5b6000600a60008481526020019081526020016000208054612ab39061456e565b80601f0160208091040260200160405190810160405280929190818152602001828054612adf9061456e565b8015612b2c5780601f10612b0157610100808354040283529160200191612b2c565b820191906000526020600020905b815481529060010190602001808311612b0f57829003601f168201915b505050505090506000612b3d612f43565b90506000815103612b52578192505050612b95565b600082511115612b87578082604051602001612b6f9291906156e7565b60405160208183030381529060405292505050612b95565b612b9084612f5a565b925050505b919050565b60007f7965db0b000000000000000000000000000000000000000000000000000000007bffffffffffffffffffffffffffffffffffffffffffffffffffffffff1916827bffffffffffffffffffffffffffffffffffffffffffffffffffffffff19161480612c0d5750612c0c82613001565b5b9050919050565b612c1e82826115f9565b612cad57612c438173ffffffffffffffffffffffffffffffffffffffff166014611bb3565b612c518360001c6020611bb3565b604051602001612c629291906157a3565b6040516020818303038152906040526040517f08c379a0000000000000000000000000000000000000000000000000000000008152600401612ca49190613d65565b60405180910390fd5b5050565b612cb9611427565b15612cf9576040517f08c379a0000000000000000000000000000000000000000000000000000000008152600401612cf0906154fb565b60405180910390fd5b612d0483838361307b565b505050565b505050565b612d178161318d565b6000600a60008381526020019081526020016000208054612d379061456e565b905014612d5e57600a60008281526020019081526020016000206000612d5d9190613a5d565b5b50565b612d6b83836132aa565b612d786000848484612dbc565b612db7576040517f08c379a0000000000000000000000000000000000000000000000000000000008152600401612dae906155f9565b60405180910390fd5b505050565b6000612ddd8473ffffffffffffffffffffffffffffffffffffffff16613483565b15612f36578373ffffffffffffffffffffffffffffffffffffffff1663150b7a02612e0661207e565b8786866040518563ffffffff1660e01b8152600401612e289493929190615832565b6020604051808303816000875af1925050508015612e6457506040513d601f19601f82011682018060405250810190612e619190615893565b60015b612ee6573d8060008114612e94576040519150601f19603f3d011682016040523d82523d6000602084013e612e99565b606091505b506000815103612ede576040517f08c379a0000000000000000000000000000000000000000000000000000000008152600401612ed5906155f9565b60405180910390fd5b805181602001fd5b63150b7a0260e01b7bffffffffffffffffffffffffffffffffffffffffffffffffffffffff1916817bffffffffffffffffffffffffffffffffffffffffffffffffffffffff191614915050612f3b565b600190505b949350505050565b606060405180602001604052806000815250905090565b6060612f6582612012565b612fa4576040517f08c379a0000000000000000000000000000000000000000000000000000000008152600401612f9b90615932565b60405180910390fd5b6000612fae612f43565b90506000815111612fce5760405180602001604052806000815250612ff9565b80612fd8846134a6565b604051602001612fe99291906156e7565b6040516020818303038152906040525b915050919050565b60007f780e9d63000000000000000000000000000000000000000000000000000000007bffffffffffffffffffffffffffffffffffffffffffffffffffffffff1916827bffffffffffffffffffffffffffffffffffffffffffffffffffffffff19161480613074575061307382613606565b5b9050919050565b6130868383836136e8565b600073ffffffffffffffffffffffffffffffffffffffff168373ffffffffffffffffffffffffffffffffffffffff16036130c8576130c3816136ed565b613107565b8173ffffffffffffffffffffffffffffffffffffffff168373ffffffffffffffffffffffffffffffffffffffff1614613106576131058382613736565b5b5b600073ffffffffffffffffffffffffffffffffffffffff168273ffffffffffffffffffffffffffffffffffffffff160361314957613144816138a3565b613188565b8273ffffffffffffffffffffffffffffffffffffffff168273ffffffffffffffffffffffffffffffffffffffff1614613187576131868282613974565b5b5b505050565b60006131988261143e565b90506131a681600084612cb1565b6131b1600083612086565b6001600360008373ffffffffffffffffffffffffffffffffffffffff1673ffffffffffffffffffffffffffffffffffffffff16815260200190815260200160002060008282546132019190614d31565b925050819055506002600083815260200190815260200160002060006101000a81549073ffffffffffffffffffffffffffffffffffffffff021916905581600073ffffffffffffffffffffffffffffffffffffffff168273ffffffffffffffffffffffffffffffffffffffff167fddf252ad1be2c89b69c2b068fc378daa952ba7f163c4a11628f55a4df523b3ef60405160405180910390a46132a681600084612d09565b5050565b600073ffffffffffffffffffffffffffffffffffffffff168273ffffffffffffffffffffffffffffffffffffffff1603613319576040517f08c379a00000000000000000000000000000000000000000000000000000000081526004016133109061599e565b60405180910390fd5b61332281612012565b15613362576040517f08c379a000000000000000000000000000000000000000000000000000000000815260040161335990615a0a565b60405180910390fd5b61336e60008383612cb1565b6001600360008473ffffffffffffffffffffffffffffffffffffffff1673ffffffffffffffffffffffffffffffffffffffff16815260200190815260200160002060008282546133be9190614d94565b92505081905550816002600083815260200190815260200160002060006101000a81548173ffffffffffffffffffffffffffffffffffffffff021916908373ffffffffffffffffffffffffffffffffffffffff160217905550808273ffffffffffffffffffffffffffffffffffffffff16600073ffffffffffffffffffffffffffffffffffffffff167fddf252ad1be2c89b69c2b068fc378daa952ba7f163c4a11628f55a4df523b3ef60405160405180910390a461347f60008383612d09565b5050565b6000808273ffffffffffffffffffffffffffffffffffffffff163b119050919050565b6060600082036134ed576040518060400160405280600181526020017f30000000000000000000000000000000000000000000000000000000000000008152509050613601565b600082905060005b6000821461351f578080613508906144f7565b915050600a826135189190614902565b91506134f5565b60008167ffffffffffffffff81111561353b5761353a6140f9565b5b6040519080825280601f01601f19166020018201604052801561356d5781602001600182028036833780820191505090505b5090505b600085146135fa576001826135869190614d31565b9150600a856135959190615a2a565b60306135a19190614d94565b60f81b8183815181106135b7576135b6614499565b5b60200101907effffffffffffffffffffffffffffffffffffffffffffffffffffffffffffff1916908160001a905350600a856135f39190614902565b9450613571565b8093505050505b919050565b60007f80ac58cd000000000000000000000000000000000000000000000000000000007bffffffffffffffffffffffffffffffffffffffffffffffffffffffff1916827bffffffffffffffffffffffffffffffffffffffffffffffffffffffff191614806136d157507f5b5e139f000000000000000000000000000000000000000000000000000000007bffffffffffffffffffffffffffffffffffffffffffffffffffffffff1916827bffffffffffffffffffffffffffffffffffffffffffffffffffffffff1916145b806136e157506136e0826139f3565b5b9050919050565b505050565b6008805490506009600083815260200190815260200160002081905550600881908060018154018082558091505060019003906000526020600020016000909190919091505550565b60006001613743846114ef565b61374d9190614d31565b9050600060076000848152602001908152602001600020549050818114613832576000600660008673ffffffffffffffffffffffffffffffffffffffff1673ffffffffffffffffffffffffffffffffffffffff168152602001908152602001600020600084815260200190815260200160002054905080600660008773ffffffffffffffffffffffffffffffffffffffff1673ffffffffffffffffffffffffffffffffffffffff168152602001908152602001600020600084815260200190815260200160002081905550816007600083815260200190815260200160002081905550505b6007600084815260200190815260200160002060009055600660008573ffffffffffffffffffffffffffffffffffffffff1673ffffffffffffffffffffffffffffffffffffffff16815260200190815260200160002060008381526020019081526020016000206000905550505050565b600060016008805490506138b79190614d31565b90506000600960008481526020019081526020016000205490506000600883815481106138e7576138e6614499565b5b90600052602060002001549050806008838154811061390957613908614499565b5b90600052602060002001819055508160096000838152602001908152602001600020819055506009600085815260200190815260200160002060009055600880548061395857613957614d65565b5b6001900381819060005260206000200160009055905550505050565b600061397f836114ef565b905081600660008573ffffffffffffffffffffffffffffffffffffffff1673ffffffffffffffffffffffffffffffffffffffff168152602001908152602001600020600083815260200190815260200160002081905550806007600084815260200190815260200160002081905550505050565b60007f01ffc9a7000000000000000000000000000000000000000000000000000000007bffffffffffffffffffffffffffffffffffffffffffffffffffffffff1916827bffffffffffffffffffffffffffffffffffffffffffffffffffffffff1916149050919050565b508054613a699061456e565b6000825580601f10613a7b5750613a9a565b601f016020900490600052602060002090810190613a999190613a9d565b5b50565b5b80821115613ab6576000816000905550600101613a9e565b5090565b6000604051905090565b600080fd5b600080fd5b60007fffffffff0000000000000000000000000000000000000000000000000000000082169050919050565b613b0381613ace565b8114613b0e57600080fd5b50565b600081359050613b2081613afa565b92915050565b600060208284031215613b3c57613b3b613ac4565b5b6000613b4a84828501613b11565b91505092915050565b60008115159050919050565b613b6881613b53565b82525050565b6000602082019050613b836000830184613b5f565b92915050565b600073ffffffffffffffffffffffffffffffffffffffff82169050919050565b6000613bb482613b89565b9050919050565b613bc481613ba9565b8114613bcf57600080fd5b50565b600081359050613be181613bbb565b92915050565b60006bffffffffffffffffffffffff82169050919050565b613c0881613be7565b8114613c1357600080fd5b50565b600081359050613c2581613bff565b92915050565b60008060408385031215613c4257613c41613ac4565b5b6000613c5085828601613bd2565b9250506020613c6185828601613c16565b9150509250929050565b600060208284031215613c8157613c80613ac4565b5b6000613c8f84828501613bd2565b91505092915050565b6000819050919050565b613cab81613c98565b82525050565b6000602082019050613cc66000830184613ca2565b92915050565b600081519050919050565b600082825260208201905092915050565b60005b83811015613d06578082015181840152602081019050613ceb565b83811115613d15576000848401525b50505050565b6000601f19601f8301169050919050565b6000613d3782613ccc565b613d418185613cd7565b9350613d51818560208601613ce8565b613d5a81613d1b565b840191505092915050565b60006020820190508181036000830152613d7f8184613d2c565b905092915050565b613d9081613c98565b8114613d9b57600080fd5b50565b600081359050613dad81613d87565b92915050565b600060208284031215613dc957613dc8613ac4565b5b6000613dd784828501613d9e565b91505092915050565b613de981613ba9565b82525050565b6000602082019050613e046000830184613de0565b92915050565b60008060408385031215613e2157613e20613ac4565b5b6000613e2f85828601613bd2565b9250506020613e4085828601613d9e565b9150509250929050565b6000613e5582613b89565b9050919050565b613e6581613e4a565b82525050565b6000602082019050613e806000830184613e5c565b92915050565b600080600060608486031215613e9f57613e9e613ac4565b5b6000613ead86828701613bd2565b9350506020613ebe86828701613bd2565b9250506040613ecf86828701613d9e565b9150509250925092565b6000819050919050565b613eec81613ed9565b8114613ef757600080fd5b50565b600081359050613f0981613ee3565b92915050565b600060208284031215613f2557613f24613ac4565b5b6000613f3384828501613efa565b91505092915050565b613f4581613ed9565b82525050565b6000602082019050613f606000830184613f3c565b92915050565b60008060408385031215613f7d57613f7c613ac4565b5b6000613f8b85828601613d9e565b9250506020613f9c85828601613d9e565b9150509250929050565b6000604082019050613fbb6000830185613de0565b613fc86020830184613ca2565b9392505050565b60008060408385031215613fe657613fe5613ac4565b5b6000613ff485828601613efa565b925050602061400585828601613bd2565b9150509250929050565b600081519050919050565b600082825260208201905092915050565b6000819050602082019050919050565b61404481613ba9565b82525050565b6000614056838361403b565b60208301905092915050565b6000602082019050919050565b600061407a8261400f565b614084818561401a565b935061408f8361402b565b8060005b838110156140c05781516140a7888261404a565b97506140b283614062565b925050600181019050614093565b5085935050505092915050565b600060208201905081810360008301526140e7818461406f565b905092915050565b600080fd5b600080fd5b7f4e487b7100000000000000000000000000000000000000000000000000000000600052604160045260246000fd5b61413182613d1b565b810181811067ffffffffffffffff821117156141505761414f6140f9565b5b80604052505050565b6000614163613aba565b905061416f8282614128565b919050565b600067ffffffffffffffff82111561418f5761418e6140f9565b5b61419882613d1b565b9050602081019050919050565b82818337600083830152505050565b60006141c76141c284614174565b614159565b9050828152602081018484840111156141e3576141e26140f4565b5b6141ee8482856141a5565b509392505050565b600082601f83011261420b5761420a6140ef565b5b813561421b8482602086016141b4565b91505092915050565b6000806040838503121561423b5761423a613ac4565b5b600061424985828601613bd2565b925050602083013567ffffffffffffffff81111561426a57614269613ac9565b5b614276858286016141f6565b9150509250929050565b61428981613b53565b811461429457600080fd5b50565b6000813590506142a681614280565b92915050565b600080604083850312156142c3576142c2613ac4565b5b60006142d185828601613bd2565b92505060206142e285828601614297565b9150509250929050565b60006020828403121561430257614301613ac4565b5b600082013567ffffffffffffffff8111156143205761431f613ac9565b5b61432c848285016141f6565b91505092915050565b600067ffffffffffffffff8211156143505761434f6140f9565b5b61435982613d1b565b9050602081019050919050565b600061437961437484614335565b614159565b905082815260208101848484011115614395576143946140f4565b5b6143a08482856141a5565b509392505050565b600082601f8301126143bd576143bc6140ef565b5b81356143cd848260208601614366565b91505092915050565b600080600080608085870312156143f0576143ef613ac4565b5b60006143fe87828801613bd2565b945050602061440f87828801613bd2565b935050604061442087828801613d9e565b925050606085013567ffffffffffffffff81111561444157614440613ac9565b5b61444d878288016143a8565b91505092959194509250565b600080604083850312156144705761446f613ac4565b5b600061447e85828601613bd2565b925050602061448f85828601613bd2565b9150509250929050565b7f4e487b7100000000000000000000000000000000000000000000000000000000600052603260045260246000fd5b7f4e487b7100000000000000000000000000000000000000000000000000000000600052601160045260246000fd5b600061450282613c98565b91507fffffffffffffffffffffffffffffffffffffffffffffffffffffffffffffffff8203614534576145336144c8565b5b600182019050919050565b7f4e487b7100000000000000000000000000000000000000000000000000000000600052602260045260246000fd5b6000600282049050600182168061458657607f821691505b6020821081036145995761459861453f565b5b50919050565b7f4552433732313a20617070726f76656420717565727920666f72206e6f6e657860008201527f697374656e7420746f6b656e0000000000000000000000000000000000000000602082015250565b60006145fb602c83613cd7565b91506146068261459f565b604082019050919050565b6000602082019050818103600083015261462a816145ee565b9050919050565b7f4552433732313a20617070726f76616c20746f2063757272656e74206f776e6560008201527f7200000000000000000000000000000000000000000000000000000000000000602082015250565b600061468d602183613cd7565b915061469882614631565b604082019050919050565b600060208201905081810360008301526146bc81614680565b9050919050565b7f4552433732313a20617070726f76652063616c6c6572206973206e6f74206f7760008201527f6e6572206e6f7220617070726f76656420666f7220616c6c0000000000000000602082015250565b600061471f603883613cd7565b915061472a826146c3565b604082019050919050565b6000602082019050818103600083015261474e81614712565b9050919050565b7f546865206163636f756e742f6164647265737320686173206265656e2073756360008201527f6365737366756c6c7920726567697374657265642e0000000000000000000000602082015250565b60006147b1603583613cd7565b91506147bc82614755565b604082019050919050565b600060208201905081810360008301526147e0816147a4565b9050919050565b7f4552433732313a207472616e736665722063616c6c6572206973206e6f74206f60008201527f776e6572206e6f7220617070726f766564000000000000000000000000000000602082015250565b6000614843603183613cd7565b915061484e826147e7565b604082019050919050565b6000602082019050818103600083015261487281614836565b9050919050565b600061488482613c98565b915061488f83613c98565b9250817fffffffffffffffffffffffffffffffffffffffffffffffffffffffffffffffff04831182151516156148c8576148c76144c8565b5b828202905092915050565b7f4e487b7100000000000000000000000000000000000000000000000000000000600052601260045260246000fd5b600061490d82613c98565b915061491883613c98565b925082614928576149276148d3565b5b828204905092915050565b7f455243373231456e756d657261626c653a206f776e657220696e646578206f7560008201527f74206f6620626f756e6473000000000000000000000000000000000000000000602082015250565b600061498f602b83613cd7565b915061499a82614933565b604082019050919050565b600060208201905081810360008301526149be81614982565b9050919050565b7f416363657373436f6e74726f6c3a2063616e206f6e6c792072656e6f756e636560008201527f20726f6c657320666f722073656c660000000000000000000000000000000000602082015250565b6000614a21602f83613cd7565b9150614a2c826149c5565b604082019050919050565b60006020820190508181036000830152614a5081614a14565b9050919050565b7f4552433732314275726e61626c653a2063616c6c6572206973206e6f74206f7760008201527f6e6572206e6f7220617070726f76656400000000000000000000000000000000602082015250565b6000614ab3603083613cd7565b9150614abe82614a57565b604082019050919050565b60006020820190508181036000830152614ae281614aa6565b9050919050565b7f455243373231456e756d657261626c653a20676c6f62616c20696e646578206f60008201527f7574206f6620626f756e64730000000000000000000000000000000000000000602082015250565b6000614b45602c83613cd7565b9150614b5082614ae9565b604082019050919050565b60006020820190508181036000830152614b7481614b38565b9050919050565b7f4552433732313a206f776e657220717565727920666f72206e6f6e657869737460008201527f656e7420746f6b656e0000000000000000000000000000000000000000000000602082015250565b6000614bd7602983613cd7565b9150614be282614b7b565b604082019050919050565b60006020820190508181036000830152614c0681614bca565b9050919050565b7f4552433732313a2062616c616e636520717565727920666f7220746865207a6560008201527f726f206164647265737300000000000000000000000000000000000000000000602082015250565b6000614c69602a83613cd7565b9150614c7482614c0d565b604082019050919050565b60006020820190508181036000830152614c9881614c5c565b9050919050565b7f546865206d696e74696e6720686173206265656e20646f6e6520636f7272656360008201527f746c792e00000000000000000000000000000000000000000000000000000000602082015250565b6000614cfb602483613cd7565b9150614d0682614c9f565b604082019050919050565b60006020820190508181036000830152614d2a81614cee565b9050919050565b6000614d3c82613c98565b9150614d4783613c98565b925082821015614d5a57614d596144c8565b5b828203905092915050565b7f4e487b7100000000000000000000000000000000000000000000000000000000600052603160045260246000fd5b6000614d9f82613c98565b9150614daa83613c98565b9250827fffffffffffffffffffffffffffffffffffffffffffffffffffffffffffffffff03821115614ddf57614dde6144c8565b5b828201905092915050565b6000614df582613c98565b915060008203614e0857614e076144c8565b5b600182039050919050565b7f537472696e67733a20686578206c656e67746820696e73756666696369656e74600082015250565b6000614e49602083613cd7565b9150614e5482614e13565b602082019050919050565b60006020820190508181036000830152614e7881614e3c565b9050919050565b7f455243323938313a20726f79616c7479206665652077696c6c2065786365656460008201527f2073616c65507269636500000000000000000000000000000000000000000000602082015250565b6000614edb602a83613cd7565b9150614ee682614e7f565b604082019050919050565b60006020820190508181036000830152614f0a81614ece565b9050919050565b7f455243323938313a20696e76616c696420726563656976657200000000000000600082015250565b6000614f47601983613cd7565b9150614f5282614f11565b602082019050919050565b60006020820190508181036000830152614f7681614f3a565b9050919050565b7f4552433732313a206f70657261746f7220717565727920666f72206e6f6e657860008201527f697374656e7420746f6b656e0000000000000000000000000000000000000000602082015250565b6000614fd9602c83613cd7565b9150614fe482614f7d565b604082019050919050565b6000602082019050818103600083015261500881614fcc565b9050919050565b7f4552433732313a207472616e736665722066726f6d20696e636f72726563742060008201527f6f776e6572000000000000000000000000000000000000000000000000000000602082015250565b600061506b602583613cd7565b91506150768261500f565b604082019050919050565b6000602082019050818103600083015261509a8161505e565b9050919050565b7f4552433732313a207472616e7366657220746f20746865207a65726f2061646460008201527f7265737300000000000000000000000000000000000000000000000000000000602082015250565b60006150fd602483613cd7565b9150615108826150a1565b604082019050919050565b6000602082019050818103600083015261512c816150f0565b9050919050565b7f5061757361626c653a206e6f7420706175736564000000000000000000000000600082015250565b6000615169601483613cd7565b915061517482615133565b602082019050919050565b600060208201905081810360008301526151988161515c565b9050919050565b7f45524337323155524953746f726167653a2055524920736574206f66206e6f6e60008201527f6578697374656e7420746f6b656e000000000000000000000000000000000000602082015250565b60006151fb602e83613cd7565b91506152068261519f565b604082019050919050565b6000602082019050818103600083015261522a816151ee565b9050919050565b60008190508160005260206000209050919050565b60006020601f8301049050919050565b600082821b905092915050565b6000600883026152937fffffffffffffffffffffffffffffffffffffffffffffffffffffffffffffffff82615256565b61529d8683615256565b95508019841693508086168417925050509392505050565b6000819050919050565b60006152da6152d56152d084613c98565b6152b5565b613c98565b9050919050565b6000819050919050565b6152f4836152bf565b615308615300826152e1565b848454615263565b825550505050565b600090565b61531d615310565b6153288184846152eb565b505050565b5b8181101561534c57615341600082615315565b60018101905061532e565b5050565b601f8211156153915761536281615231565b61536b84615246565b8101602085101561537a578190505b61538e61538685615246565b83018261532d565b50505b505050565b600082821c905092915050565b60006153b460001984600802615396565b1980831691505092915050565b60006153cd83836153a3565b9150826002028217905092915050565b6153e682613ccc565b67ffffffffffffffff8111156153ff576153fe6140f9565b5b615409825461456e565b615414828285615350565b600060209050601f8311600181146154475760008415615435578287015190505b61543f85826153c1565b8655506154a7565b601f19841661545586615231565b60005b8281101561547d57848901518255600182019150602085019450602081019050615458565b8683101561549a5784890151615496601f8916826153a3565b8355505b6001600288020188555050505b505050505050565b7f5061757361626c653a2070617573656400000000000000000000000000000000600082015250565b60006154e5601083613cd7565b91506154f0826154af565b602082019050919050565b60006020820190508181036000830152615514816154d8565b9050919050565b7f4552433732313a20617070726f766520746f2063616c6c657200000000000000600082015250565b6000615551601983613cd7565b915061555c8261551b565b602082019050919050565b6000602082019050818103600083015261558081615544565b9050919050565b7f4552433732313a207472616e7366657220746f206e6f6e20455243373231526560008201527f63656976657220696d706c656d656e7465720000000000000000000000000000602082015250565b60006155e3603283613cd7565b91506155ee82615587565b604082019050919050565b60006020820190508181036000830152615612816155d6565b9050919050565b7f45524337323155524953746f726167653a2055524920717565727920666f722060008201527f6e6f6e6578697374656e7420746f6b656e000000000000000000000000000000602082015250565b6000615675603183613cd7565b915061568082615619565b604082019050919050565b600060208201905081810360008301526156a481615668565b9050919050565b600081905092915050565b60006156c182613ccc565b6156cb81856156ab565b93506156db818560208601613ce8565b80840191505092915050565b60006156f382856156b6565b91506156ff82846156b6565b91508190509392505050565b7f416363657373436f6e74726f6c3a206163636f756e7420000000000000000000600082015250565b60006157416017836156ab565b915061574c8261570b565b601782019050919050565b7f206973206d697373696e6720726f6c6520000000000000000000000000000000600082015250565b600061578d6011836156ab565b915061579882615757565b601182019050919050565b60006157ae82615734565b91506157ba82856156b6565b91506157c582615780565b91506157d182846156b6565b91508190509392505050565b600081519050919050565b600082825260208201905092915050565b6000615804826157dd565b61580e81856157e8565b935061581e818560208601613ce8565b61582781613d1b565b840191505092915050565b60006080820190506158476000830187613de0565b6158546020830186613de0565b6158616040830185613ca2565b818103606083015261587381846157f9565b905095945050505050565b60008151905061588d81613afa565b92915050565b6000602082840312156158a9576158a8613ac4565b5b60006158b78482850161587e565b91505092915050565b7f4552433732314d657461646174613a2055524920717565727920666f72206e6f60008201527f6e6578697374656e7420746f6b656e0000000000000000000000000000000000602082015250565b600061591c602f83613cd7565b9150615927826158c0565b604082019050919050565b6000602082019050818103600083015261594b8161590f565b9050919050565b7f4552433732313a206d696e7420746f20746865207a65726f2061646472657373600082015250565b6000615988602083613cd7565b915061599382615952565b602082019050919050565b600060208201905081810360008301526159b78161597b565b9050919050565b7f4552433732313a20746f6b656e20616c7265616479206d696e74656400000000600082015250565b60006159f4601c83613cd7565b91506159ff826159be565b602082019050919050565b60006020820190508181036000830152615a23816159e7565b9050919050565b6000615a3582613c98565b9150615a4083613c98565b925082615a5057615a4f6148d3565b5b82820690509291505056fe68747470733a2f2f697066732e696f2f697066732f6261666b7265696177336e6836746876366534783337686c76707978326d7533746c66327a6c636a32626b796e786c62746433737376786f79636d2fa2646970667358221220ddbec67117a46650637452dd164c250ebe77911b975df373362d6405bad1956a64736f6c634300080f0033",
  "immutableReferences": {},
  "source": "// SPDX-License-Identifier: MIT\npragma solidity ^0.8.4;\n\nimport \"@openzeppelin/contracts/token/ERC721/ERC721.sol\";\nimport \"@openzeppelin/contracts/token/ERC721/extensions/ERC721Enumerable.sol\";\nimport \"@openzeppelin/contracts/token/ERC721/extensions/ERC721URIStorage.sol\";\nimport \"@openzeppelin/contracts/security/Pausable.sol\";\nimport \"@openzeppelin/contracts/access/AccessControl.sol\";\nimport \"@openzeppelin/contracts/token/ERC721/extensions/ERC721Burnable.sol\";\nimport \"@openzeppelin/contracts/utils/Counters.sol\";\nimport \"@openzeppelin/contracts/token/common/ERC2981.sol\";\n\nimport \"./CryptoTicketsRewards.sol\";\n\ncontract CryptoTicketsMatchNFTs is\n    ERC721,\n    ERC721Enumerable,\n    ERC721URIStorage,\n    Pausable,\n    AccessControl,\n    ERC721Burnable,\n    ERC2981\n{\n    using Counters for Counters.Counter;\n\n    CryptoTicketsRewards rewardsTicket;\n\n    bytes32 public constant ADMIN_CLUB_ROLE = keccak256(\"ADMIN_CLUB_ROLE\");\n    Counters.Counter private _matchIdCounter;\n\n    string contractURL;\n\n    address[] public listSubscriber;\n\n    address payable public club;\n\n    uint96 private royaltyFeesInBips = 1000;\n\n    struct MatchTicket {\n        uint256 matchId;\n        string local;\n        string visitor;\n        uint256 maxCapacity;\n        uint256 expirationDate;\n    }\n    MatchTicket[] matchList;\n\n    event Status(string _message);\n    event MsgInfoAccountListOk(string _message, address indexed account);\n    event MsgInfoAccountListKo(string _message, address indexed account);\n    event MsgInfoMinted(string _message, address indexed account);\n    event ClubAdminRoleGranted(\n        address indexed sender,\n        address indexed clubAddress\n    );\n    event ClubAdminRoleRevoked(\n        address indexed sender,\n        address indexed clubAddress\n    );\n\n    constructor(address rewardsTicketAddress)\n        ERC721(\"CryptoTicketsMatchNFTs\", \"CTKMN\")\n    {\n        rewardsTicket = CryptoTicketsRewards(rewardsTicketAddress);\n        _grantRole(DEFAULT_ADMIN_ROLE, msg.sender);\n        _grantRole(ADMIN_CLUB_ROLE, msg.sender);\n        setRoyaltyInfo(msg.sender, royaltyFeesInBips);\n    }\n\n    function contractURI() public pure returns (string memory) {\n        return\n            \"https://ipfs.io/ipfs/bafkreiaw3nh6thv6e4x37hlvpyx2mu3tlf2zlcj2bkynxlbtd3ssvxoycm/\";\n    }\n\n    function pause() public onlyRole(ADMIN_CLUB_ROLE) {\n        _pause();\n    }\n\n    function unpause() public onlyRole(ADMIN_CLUB_ROLE) {\n        _unpause();\n    }\n\n    function mint(address to, string memory uri) private {\n        uint256 matchId = _matchIdCounter.current();\n        _matchIdCounter.increment();\n        _safeMint(to, matchId);\n        _setTokenURI(matchId, uri);\n    }\n\n    function mintTicket(address to, string memory uri) public payable {\n        uint256 matchId = _matchIdCounter.current();\n        _matchIdCounter.increment();\n        _safeMint(to, matchId);\n        _setTokenURI(matchId, uri);\n    }\n\n    function mintMatch(string memory uri) public onlyRole(ADMIN_CLUB_ROLE) {\n        for (uint256 i = 0; i < listSubscriber.length; i++) {\n            mint(listSubscriber[i], uri);\n        }\n        emit MsgInfoMinted(\"The minting has been done correctly.\", msg.sender);\n    }\n\n    function _beforeTokenTransfer(\n        address from,\n        address to,\n        uint256 matchId\n    ) internal override(ERC721, ERC721Enumerable) whenNotPaused {\n        super._beforeTokenTransfer(from, to, matchId);\n    }\n\n    function _burn(uint256 matchId)\n        internal\n        override(ERC721, ERC721URIStorage)\n    {\n        super._burn(matchId);\n    }\n\n    function burnTicket(uint256 tokenId) public {\n        _burn(tokenId);\n        rewardsTicket.addListForRewards(msg.sender);\n    }\n\n    function tokenURI(uint256 matchId)\n        public\n        view\n        override(ERC721, ERC721URIStorage)\n        returns (string memory)\n    {\n        return super.tokenURI(matchId);\n    }\n\n    function supportsInterface(bytes4 interfaceId)\n        public\n        view\n        override(ERC721, ERC721Enumerable, ERC2981, AccessControl)\n        returns (bool)\n    {\n        return super.supportsInterface(interfaceId);\n    }\n\n    function grantAdminRol(address account)\n        public\n        onlyRole(DEFAULT_ADMIN_ROLE)\n    {\n        _grantRole(DEFAULT_ADMIN_ROLE, account);\n    }\n\n    function grantClubRol(address account) public onlyRole(DEFAULT_ADMIN_ROLE) {\n        _grantRole(ADMIN_CLUB_ROLE, account);\n        emit ClubAdminRoleGranted(msg.sender, account);\n    }\n\n    function revokeClubRol(address account)\n        public\n        onlyRole(DEFAULT_ADMIN_ROLE)\n    {\n        _revokeRole(ADMIN_CLUB_ROLE, account);\n        emit ClubAdminRoleRevoked(msg.sender, account);\n    }\n\n    function addAMembershipddress(address account)\n        public\n        onlyRole(DEFAULT_ADMIN_ROLE)\n    {\n        listSubscriber.push(account);\n        emit MsgInfoAccountListOk(\n            \"The account/address has been successfully registered.\",\n            account\n        );\n    }\n\n    function findAddress(address value) public view returns (uint256) {\n        uint256 i = 0;\n        while (listSubscriber[i] != value) {\n            i++;\n        }\n        return i;\n    }\n\n    function getAddressInfo() public view returns (address[] memory) {\n        return (listSubscriber);\n    }\n\n    function removeMembershipAddress(address value) public {\n        uint256 index = findAddress(value);\n        listSubscriber[index] = listSubscriber[listSubscriber.length - 1];\n        listSubscriber.pop();\n    }\n\n    function setRoyaltyInfo(address _receiver, uint96 _royaltyFeesInBips)\n        public\n        onlyRole(DEFAULT_ADMIN_ROLE)\n    {\n        _setDefaultRoyalty(_receiver, _royaltyFeesInBips);\n    }\n    /*\n    function addMatchList(string memory local, string memory visitor, uint maxCapacity, uint256 expirationDate) public onlyRole(DEFAULT_ADMIN_ROLE){\n        MatchTicket memory newMatch = MatchTicket(matchId, local, visitor, maxCapacity, expirationDate); \n        matchList.push(newMatch);\n    }\n\n    function getInfoMatchList() public view returns(MatchTicket[] memory) {\n        return matchList;\n    }\n*/\n}\n",
  "sourcePath": "/Users/dosorio/Proyectos/Blockchain/SportTickets/contracts/CryptoTicketsMatchNFTs.sol",
  "compiler": {
    "name": "solc",
    "version": "0.8.15+commit.e14f2714.Emscripten.clang"
  },
  "schemaVersion": "3.4.7",
  "updatedAt": "2022-07-03T15:15:10.460Z",
  "networkType": "ethereum",
  "devdoc": {
    "kind": "dev",
    "methods": {
      "approve(address,uint256)": {
        "details": "See {IERC721-approve}."
      },
      "balanceOf(address)": {
        "details": "See {IERC721-balanceOf}."
      },
      "burn(uint256)": {
        "details": "Burns `tokenId`. See {ERC721-_burn}. Requirements: - The caller must own `tokenId` or be an approved operator."
      },
      "getApproved(uint256)": {
        "details": "See {IERC721-getApproved}."
      },
      "getRoleAdmin(bytes32)": {
        "details": "Returns the admin role that controls `role`. See {grantRole} and {revokeRole}. To change a role's admin, use {_setRoleAdmin}."
      },
      "grantRole(bytes32,address)": {
        "details": "Grants `role` to `account`. If `account` had not been already granted `role`, emits a {RoleGranted} event. Requirements: - the caller must have ``role``'s admin role."
      },
      "hasRole(bytes32,address)": {
        "details": "Returns `true` if `account` has been granted `role`."
      },
      "isApprovedForAll(address,address)": {
        "details": "See {IERC721-isApprovedForAll}."
      },
      "name()": {
        "details": "See {IERC721Metadata-name}."
      },
      "ownerOf(uint256)": {
        "details": "See {IERC721-ownerOf}."
      },
      "paused()": {
        "details": "Returns true if the contract is paused, and false otherwise."
      },
      "renounceRole(bytes32,address)": {
        "details": "Revokes `role` from the calling account. Roles are often managed via {grantRole} and {revokeRole}: this function's purpose is to provide a mechanism for accounts to lose their privileges if they are compromised (such as when a trusted device is misplaced). If the calling account had been revoked `role`, emits a {RoleRevoked} event. Requirements: - the caller must be `account`."
      },
      "revokeRole(bytes32,address)": {
        "details": "Revokes `role` from `account`. If `account` had been granted `role`, emits a {RoleRevoked} event. Requirements: - the caller must have ``role``'s admin role."
      },
      "royaltyInfo(uint256,uint256)": {
        "details": "Returns how much royalty is owed and to whom, based on a sale price that may be denominated in any unit of exchange. The royalty amount is denominated and should be paid in that same unit of exchange."
      },
      "safeTransferFrom(address,address,uint256)": {
        "details": "See {IERC721-safeTransferFrom}."
      },
      "safeTransferFrom(address,address,uint256,bytes)": {
        "details": "See {IERC721-safeTransferFrom}."
      },
      "setApprovalForAll(address,bool)": {
        "details": "See {IERC721-setApprovalForAll}."
      },
      "symbol()": {
        "details": "See {IERC721Metadata-symbol}."
      },
      "tokenByIndex(uint256)": {
        "details": "See {IERC721Enumerable-tokenByIndex}."
      },
      "tokenOfOwnerByIndex(address,uint256)": {
        "details": "See {IERC721Enumerable-tokenOfOwnerByIndex}."
      },
      "totalSupply()": {
        "details": "See {IERC721Enumerable-totalSupply}."
      },
      "transferFrom(address,address,uint256)": {
        "details": "See {IERC721-transferFrom}."
      }
    },
    "version": 1
  },
  "userdoc": {
    "kind": "user",
    "methods": {},
    "version": 1
  }
}