{
  "contractName": "CryptoTicketsMatchManagement",
  "abi": [
    {
      "inputs": [
        {
          "internalType": "address",
          "name": "matchTicketsContractAddresss",
          "type": "address"
        }
      ],
      "stateMutability": "nonpayable",
      "type": "constructor"
    },
    {
      "anonymous": false,
      "inputs": [
        {
          "indexed": false,
          "internalType": "address",
          "name": "account",
          "type": "address"
        }
      ],
      "name": "Paused",
      "type": "event"
    },
    {
      "anonymous": false,
      "inputs": [
        {
          "indexed": true,
          "internalType": "bytes32",
          "name": "role",
          "type": "bytes32"
        },
        {
          "indexed": true,
          "internalType": "bytes32",
          "name": "previousAdminRole",
          "type": "bytes32"
        },
        {
          "indexed": true,
          "internalType": "bytes32",
          "name": "newAdminRole",
          "type": "bytes32"
        }
      ],
      "name": "RoleAdminChanged",
      "type": "event"
    },
    {
      "anonymous": false,
      "inputs": [
        {
          "indexed": true,
          "internalType": "bytes32",
          "name": "role",
          "type": "bytes32"
        },
        {
          "indexed": true,
          "internalType": "address",
          "name": "account",
          "type": "address"
        },
        {
          "indexed": true,
          "internalType": "address",
          "name": "sender",
          "type": "address"
        }
      ],
      "name": "RoleGranted",
      "type": "event"
    },
    {
      "anonymous": false,
      "inputs": [
        {
          "indexed": true,
          "internalType": "bytes32",
          "name": "role",
          "type": "bytes32"
        },
        {
          "indexed": true,
          "internalType": "address",
          "name": "account",
          "type": "address"
        },
        {
          "indexed": true,
          "internalType": "address",
          "name": "sender",
          "type": "address"
        }
      ],
      "name": "RoleRevoked",
      "type": "event"
    },
    {
      "anonymous": false,
      "inputs": [
        {
          "indexed": false,
          "internalType": "address",
          "name": "account",
          "type": "address"
        }
      ],
      "name": "Unpaused",
      "type": "event"
    },
    {
      "inputs": [],
      "name": "DEFAULT_ADMIN_ROLE",
      "outputs": [
        {
          "internalType": "bytes32",
          "name": "",
          "type": "bytes32"
        }
      ],
      "stateMutability": "view",
      "type": "function",
      "constant": true
    },
    {
      "inputs": [],
      "name": "club",
      "outputs": [
        {
          "internalType": "address payable",
          "name": "",
          "type": "address"
        }
      ],
      "stateMutability": "view",
      "type": "function",
      "constant": true
    },
    {
      "inputs": [
        {
          "internalType": "bytes32",
          "name": "role",
          "type": "bytes32"
        }
      ],
      "name": "getRoleAdmin",
      "outputs": [
        {
          "internalType": "bytes32",
          "name": "",
          "type": "bytes32"
        }
      ],
      "stateMutability": "view",
      "type": "function",
      "constant": true
    },
    {
      "inputs": [
        {
          "internalType": "bytes32",
          "name": "role",
          "type": "bytes32"
        },
        {
          "internalType": "address",
          "name": "account",
          "type": "address"
        }
      ],
      "name": "grantRole",
      "outputs": [],
      "stateMutability": "nonpayable",
      "type": "function"
    },
    {
      "inputs": [
        {
          "internalType": "bytes32",
          "name": "role",
          "type": "bytes32"
        },
        {
          "internalType": "address",
          "name": "account",
          "type": "address"
        }
      ],
      "name": "hasRole",
      "outputs": [
        {
          "internalType": "bool",
          "name": "",
          "type": "bool"
        }
      ],
      "stateMutability": "view",
      "type": "function",
      "constant": true
    },
    {
      "inputs": [
        {
          "internalType": "uint256",
          "name": "",
          "type": "uint256"
        }
      ],
      "name": "matchList",
      "outputs": [
        {
          "internalType": "uint256",
          "name": "matchId",
          "type": "uint256"
        },
        {
          "internalType": "string",
          "name": "local",
          "type": "string"
        },
        {
          "internalType": "string",
          "name": "visitor",
          "type": "string"
        },
        {
          "internalType": "string",
          "name": "baseURI",
          "type": "string"
        },
        {
          "internalType": "string",
          "name": "metadataURI",
          "type": "string"
        },
        {
          "internalType": "uint256",
          "name": "maxCapacity",
          "type": "uint256"
        },
        {
          "internalType": "uint256",
          "name": "expirationDate",
          "type": "uint256"
        },
        {
          "internalType": "uint256",
          "name": "totalSales",
          "type": "uint256"
        },
        {
          "internalType": "uint256",
          "name": "carTotalTokens",
          "type": "uint256"
        },
        {
          "internalType": "uint256",
          "name": "pvp",
          "type": "uint256"
        }
      ],
      "stateMutability": "view",
      "type": "function",
      "constant": true
    },
    {
      "inputs": [],
      "name": "paused",
      "outputs": [
        {
          "internalType": "bool",
          "name": "",
          "type": "bool"
        }
      ],
      "stateMutability": "view",
      "type": "function",
      "constant": true
    },
    {
      "inputs": [
        {
          "internalType": "bytes32",
          "name": "role",
          "type": "bytes32"
        },
        {
          "internalType": "address",
          "name": "account",
          "type": "address"
        }
      ],
      "name": "renounceRole",
      "outputs": [],
      "stateMutability": "nonpayable",
      "type": "function"
    },
    {
      "inputs": [
        {
          "internalType": "bytes32",
          "name": "role",
          "type": "bytes32"
        },
        {
          "internalType": "address",
          "name": "account",
          "type": "address"
        }
      ],
      "name": "revokeRole",
      "outputs": [],
      "stateMutability": "nonpayable",
      "type": "function"
    },
    {
      "inputs": [
        {
          "internalType": "bytes4",
          "name": "interfaceId",
          "type": "bytes4"
        }
      ],
      "name": "supportsInterface",
      "outputs": [
        {
          "internalType": "bool",
          "name": "",
          "type": "bool"
        }
      ],
      "stateMutability": "view",
      "type": "function",
      "constant": true
    },
    {
      "inputs": [
        {
          "internalType": "string",
          "name": "local",
          "type": "string"
        },
        {
          "internalType": "string",
          "name": "visitor",
          "type": "string"
        },
        {
          "internalType": "string",
          "name": "baseURI",
          "type": "string"
        },
        {
          "internalType": "string",
          "name": "metadataURI",
          "type": "string"
        },
        {
          "internalType": "uint256",
          "name": "maxCapacity",
          "type": "uint256"
        },
        {
          "internalType": "uint256",
          "name": "expirationDate",
          "type": "uint256"
        },
        {
          "internalType": "uint256",
          "name": "carTotalTokens",
          "type": "uint256"
        },
        {
          "internalType": "uint256",
          "name": "pvp",
          "type": "uint256"
        }
      ],
      "name": "addNewMatch",
      "outputs": [],
      "stateMutability": "nonpayable",
      "type": "function"
    },
    {
      "inputs": [],
      "name": "getAllMatchs",
      "outputs": [
        {
          "components": [
            {
              "internalType": "uint256",
              "name": "matchId",
              "type": "uint256"
            },
            {
              "internalType": "string",
              "name": "local",
              "type": "string"
            },
            {
              "internalType": "string",
              "name": "visitor",
              "type": "string"
            },
            {
              "internalType": "string",
              "name": "baseURI",
              "type": "string"
            },
            {
              "internalType": "string",
              "name": "metadataURI",
              "type": "string"
            },
            {
              "internalType": "uint256",
              "name": "maxCapacity",
              "type": "uint256"
            },
            {
              "internalType": "uint256",
              "name": "expirationDate",
              "type": "uint256"
            },
            {
              "internalType": "uint256",
              "name": "totalSales",
              "type": "uint256"
            },
            {
              "internalType": "uint256",
              "name": "carTotalTokens",
              "type": "uint256"
            },
            {
              "internalType": "uint256",
              "name": "pvp",
              "type": "uint256"
            }
          ],
          "internalType": "struct CryptoTicketsMatchManagement.MatchInfo[]",
          "name": "",
          "type": "tuple[]"
        }
      ],
      "stateMutability": "view",
      "type": "function",
      "constant": true
    },
    {
      "inputs": [
        {
          "internalType": "uint256",
          "name": "matchId",
          "type": "uint256"
        }
      ],
      "name": "getMatch",
      "outputs": [
        {
          "components": [
            {
              "internalType": "uint256",
              "name": "matchId",
              "type": "uint256"
            },
            {
              "internalType": "string",
              "name": "local",
              "type": "string"
            },
            {
              "internalType": "string",
              "name": "visitor",
              "type": "string"
            },
            {
              "internalType": "string",
              "name": "baseURI",
              "type": "string"
            },
            {
              "internalType": "string",
              "name": "metadataURI",
              "type": "string"
            },
            {
              "internalType": "uint256",
              "name": "maxCapacity",
              "type": "uint256"
            },
            {
              "internalType": "uint256",
              "name": "expirationDate",
              "type": "uint256"
            },
            {
              "internalType": "uint256",
              "name": "totalSales",
              "type": "uint256"
            },
            {
              "internalType": "uint256",
              "name": "carTotalTokens",
              "type": "uint256"
            },
            {
              "internalType": "uint256",
              "name": "pvp",
              "type": "uint256"
            }
          ],
          "internalType": "struct CryptoTicketsMatchManagement.MatchInfo",
          "name": "",
          "type": "tuple"
        }
      ],
      "stateMutability": "view",
      "type": "function",
      "constant": true
    },
    {
      "inputs": [],
      "name": "getMatchIdList",
      "outputs": [
        {
          "internalType": "uint256[]",
          "name": "",
          "type": "uint256[]"
        }
      ],
      "stateMutability": "view",
      "type": "function",
      "constant": true
    },
    {
      "inputs": [],
      "name": "pause",
      "outputs": [],
      "stateMutability": "nonpayable",
      "type": "function"
    },
    {
      "inputs": [],
      "name": "unpause",
      "outputs": [],
      "stateMutability": "nonpayable",
      "type": "function"
    },
    {
      "inputs": [
        {
          "internalType": "uint256",
          "name": "matchId",
          "type": "uint256"
        }
      ],
      "name": "airdropMatchTickets",
      "outputs": [],
      "stateMutability": "nonpayable",
      "type": "function"
    },
    {
      "inputs": [
        {
          "internalType": "uint256",
          "name": "matchId",
          "type": "uint256"
        }
      ],
      "name": "mintSaleMatchTicket",
      "outputs": [],
      "stateMutability": "payable",
      "type": "function",
      "payable": true
    },
    {
      "inputs": [
        {
          "internalType": "address",
          "name": "account",
          "type": "address"
        }
      ],
      "name": "grantAdminRol",
      "outputs": [],
      "stateMutability": "nonpayable",
      "type": "function"
    },
    {
      "inputs": [
        {
          "internalType": "address",
          "name": "account",
          "type": "address"
        }
      ],
      "name": "revokeAdminRol",
      "outputs": [],
      "stateMutability": "nonpayable",
      "type": "function"
    }
  ],
  "bytecode": "0x60806040523480156200001157600080fd5b50604051620039c0380380620039c083398181016040528101906200003791906200027c565b60008060006101000a81548160ff02191690831515021790555080600260006101000a81548173ffffffffffffffffffffffffffffffffffffffff021916908373ffffffffffffffffffffffffffffffffffffffff160217905550620000a76000801b33620000ae60201b60201c565b50620002ae565b620000c082826200019f60201b60201c565b6200019b57600180600084815260200190815260200160002060000160008373ffffffffffffffffffffffffffffffffffffffff1673ffffffffffffffffffffffffffffffffffffffff16815260200190815260200160002060006101000a81548160ff021916908315150217905550620001406200020a60201b60201c565b73ffffffffffffffffffffffffffffffffffffffff168173ffffffffffffffffffffffffffffffffffffffff16837f2f8788117e7eff1d82e926ec794901d17c78024a50270940304540a733656f0d60405160405180910390a45b5050565b60006001600084815260200190815260200160002060000160008373ffffffffffffffffffffffffffffffffffffffff1673ffffffffffffffffffffffffffffffffffffffff16815260200190815260200160002060009054906101000a900460ff16905092915050565b600033905090565b600080fd5b600073ffffffffffffffffffffffffffffffffffffffff82169050919050565b6000620002448262000217565b9050919050565b620002568162000237565b81146200026257600080fd5b50565b60008151905062000276816200024b565b92915050565b60006020828403121562000295576200029462000212565b5b6000620002a58482850162000265565b91505092915050565b61370280620002be6000396000f3fe60806040526004361061011f5760003560e01c80637367c0d0116100a05780638456cb59116100645780638456cb59146103cd57806391d14854146103e4578063a217fddf14610421578063d547741f1461044c578063f661c429146104755761011f565b80637367c0d0146102fc57806376ad43b7146103255780637abdcc061461034e5780637bd886451461037957806383e4ba4a146103a45761011f565b80632f2ff15d116100e75780632f2ff15d1461022b57806336568abe146102545780633d092b3d1461027d5780633f4ba83a146102ba5780635c975abb146102d15761011f565b806301ffc9a7146101245780630efd097314610161578063140fc4b51461018c5780631bbacf25146101d2578063248a9ca3146101ee575b600080fd5b34801561013057600080fd5b5061014b600480360381019061014691906122e1565b61049e565b6040516101589190612329565b60405180910390f35b34801561016d57600080fd5b50610176610518565b6040516101839190612385565b60405180910390f35b34801561019857600080fd5b506101b360048036038101906101ae91906123d6565b61053e565b6040516101c99a999897969594939291906124ab565b60405180910390f35b6101ec60048036038101906101e791906123d6565b6107b2565b005b3480156101fa57600080fd5b5061021560048036038101906102109190612599565b610cfb565b60405161022291906125d5565b60405180910390f35b34801561023757600080fd5b50610252600480360381019061024d919061262e565b610d1b565b005b34801561026057600080fd5b5061027b6004803603810190610276919061262e565b610d3c565b005b34801561028957600080fd5b506102a4600480360381019061029f91906123d6565b610dbf565b6040516102b191906127b6565b60405180910390f35b3480156102c657600080fd5b506102cf611071565b005b3480156102dd57600080fd5b506102e6611089565b6040516102f39190612329565b60405180910390f35b34801561030857600080fd5b50610323600480360381019061031e91906127d8565b61109f565b005b34801561033157600080fd5b5061034c600480360381019061034791906127d8565b6110bd565b005b34801561035a57600080fd5b506103636110db565b60405161037091906128b4565b60405180910390f35b34801561038557600080fd5b5061038e611133565b60405161039b9190612a87565b60405180910390f35b3480156103b057600080fd5b506103cb60048036038101906103c691906123d6565b61149c565b005b3480156103d957600080fd5b506103e261199c565b005b3480156103f057600080fd5b5061040b6004803603810190610406919061262e565b6119b4565b6040516104189190612329565b60405180910390f35b34801561042d57600080fd5b50610436611a1f565b60405161044391906125d5565b60405180910390f35b34801561045857600080fd5b50610473600480360381019061046e919061262e565b611a26565b005b34801561048157600080fd5b5061049c60048036038101906104979190612bde565b611a47565b005b60007f7965db0b000000000000000000000000000000000000000000000000000000007bffffffffffffffffffffffffffffffffffffffffffffffffffffffff1916827bffffffffffffffffffffffffffffffffffffffffffffffffffffffff19161480610511575061051082611b9a565b5b9050919050565b600460009054906101000a900473ffffffffffffffffffffffffffffffffffffffff1681565b600660205280600052604060002060009150905080600001549080600101805461056790612d33565b80601f016020809104026020016040519081016040528092919081815260200182805461059390612d33565b80156105e05780601f106105b5576101008083540402835291602001916105e0565b820191906000526020600020905b8154815290600101906020018083116105c357829003601f168201915b5050505050908060020180546105f590612d33565b80601f016020809104026020016040519081016040528092919081815260200182805461062190612d33565b801561066e5780601f106106435761010080835404028352916020019161066e565b820191906000526020600020905b81548152906001019060200180831161065157829003601f168201915b50505050509080600301805461068390612d33565b80601f01602080910402602001604051908101604052809291908181526020018280546106af90612d33565b80156106fc5780601f106106d1576101008083540402835291602001916106fc565b820191906000526020600020905b8154815290600101906020018083116106df57829003601f168201915b50505050509080600401805461071190612d33565b80601f016020809104026020016040519081016040528092919081815260200182805461073d90612d33565b801561078a5780601f1061075f5761010080835404028352916020019161078a565b820191906000526020600020905b81548152906001019060200180831161076d57829003601f168201915b505050505090806005015490806006015490806007015490806008015490806009015490508a565b60006006600083815260200190815260200160002060405180610140016040529081600082015481526020016001820180546107ed90612d33565b80601f016020809104026020016040519081016040528092919081815260200182805461081990612d33565b80156108665780601f1061083b57610100808354040283529160200191610866565b820191906000526020600020905b81548152906001019060200180831161084957829003601f168201915b5050505050815260200160028201805461087f90612d33565b80601f01602080910402602001604051908101604052809291908181526020018280546108ab90612d33565b80156108f85780601f106108cd576101008083540402835291602001916108f8565b820191906000526020600020905b8154815290600101906020018083116108db57829003601f168201915b5050505050815260200160038201805461091190612d33565b80601f016020809104026020016040519081016040528092919081815260200182805461093d90612d33565b801561098a5780601f1061095f5761010080835404028352916020019161098a565b820191906000526020600020905b81548152906001019060200180831161096d57829003601f168201915b505050505081526020016004820180546109a390612d33565b80601f01602080910402602001604051908101604052809291908181526020018280546109cf90612d33565b8015610a1c5780601f106109f157610100808354040283529160200191610a1c565b820191906000526020600020905b8154815290600101906020018083116109ff57829003601f168201915b505050505081526020016005820154815260200160068201548152602001600782015481526020016008820154815260200160098201548152505090508060a001518160e001511115610aa4576040517f08c379a0000000000000000000000000000000000000000000000000000000008152600401610a9b90612db0565b60405180910390fd5b6001816101200151610ab69190612e2e565b341015610af8576040517f08c379a0000000000000000000000000000000000000000000000000000000008152600401610aef90612eab565b60405180910390fd5b600260009054906101000a900473ffffffffffffffffffffffffffffffffffffffff1673ffffffffffffffffffffffffffffffffffffffff166376d20c18343384600001518560a0015186606001518761010001516040518763ffffffff1660e01b8152600401610b6d959493929190612eda565b6000604051808303818588803b158015610b8657600080fd5b505af1158015610b9a573d6000803e3d6000fd5b50505050506000600260009054906101000a900473ffffffffffffffffffffffffffffffffffffffff1673ffffffffffffffffffffffffffffffffffffffff166330a254a5846040518263ffffffff1660e01b8152600401610bfc9190612f34565b602060405180830381865afa158015610c19573d6000803e3d6000fd5b505050506040513d601f19601f82011682018060405250810190610c3d9190612f64565b9050808260e00181815250508160066000858152602001908152602001600020600082015181600001556020820151816001019081610c7c919061313d565b506040820151816002019081610c92919061313d565b506060820151816003019081610ca8919061313d565b506080820151816004019081610cbe919061313d565b5060a0820151816005015560c0820151816006015560e0820151816007015561010082015181600801556101208201518160090155905050505050565b600060016000838152602001908152602001600020600101549050919050565b610d2482610cfb565b610d2d81611c04565b610d378383611c18565b505050565b610d44611cf8565b73ffffffffffffffffffffffffffffffffffffffff168173ffffffffffffffffffffffffffffffffffffffff1614610db1576040517f08c379a0000000000000000000000000000000000000000000000000000000008152600401610da890613281565b60405180910390fd5b610dbb8282611d00565b5050565b610dc7612222565b600660008381526020019081526020016000206040518061014001604052908160008201548152602001600182018054610e0090612d33565b80601f0160208091040260200160405190810160405280929190818152602001828054610e2c90612d33565b8015610e795780601f10610e4e57610100808354040283529160200191610e79565b820191906000526020600020905b815481529060010190602001808311610e5c57829003601f168201915b50505050508152602001600282018054610e9290612d33565b80601f0160208091040260200160405190810160405280929190818152602001828054610ebe90612d33565b8015610f0b5780601f10610ee057610100808354040283529160200191610f0b565b820191906000526020600020905b815481529060010190602001808311610eee57829003601f168201915b50505050508152602001600382018054610f2490612d33565b80601f0160208091040260200160405190810160405280929190818152602001828054610f5090612d33565b8015610f9d5780601f10610f7257610100808354040283529160200191610f9d565b820191906000526020600020905b815481529060010190602001808311610f8057829003601f168201915b50505050508152602001600482018054610fb690612d33565b80601f0160208091040260200160405190810160405280929190818152602001828054610fe290612d33565b801561102f5780601f106110045761010080835404028352916020019161102f565b820191906000526020600020905b81548152906001019060200180831161101257829003601f168201915b50505050508152602001600582015481526020016006820154815260200160078201548152602001600882015481526020016009820154815250509050919050565b6000801b61107e81611c04565b611086611de2565b50565b60008060009054906101000a900460ff16905090565b6000801b6110ac81611c04565b6110b96000801b83611c18565b5050565b6000801b6110ca81611c04565b6110d76000801b83611d00565b5050565b6060600580548060200260200160405190810160405280929190818152602001828054801561112957602002820191906000526020600020905b815481526020019060010190808311611115575b5050505050905090565b6060600060058054905067ffffffffffffffff81111561115657611155612ab3565b5b60405190808252806020026020018201604052801561118f57816020015b61117c612222565b8152602001906001900390816111745790505b50905060005b6005805490508110156114945760066000600583815481106111ba576111b96132a1565b5b9060005260206000200154815260200190815260200160002060405180610140016040529081600082015481526020016001820180546111f990612d33565b80601f016020809104026020016040519081016040528092919081815260200182805461122590612d33565b80156112725780601f1061124757610100808354040283529160200191611272565b820191906000526020600020905b81548152906001019060200180831161125557829003601f168201915b5050505050815260200160028201805461128b90612d33565b80601f01602080910402602001604051908101604052809291908181526020018280546112b790612d33565b80156113045780601f106112d957610100808354040283529160200191611304565b820191906000526020600020905b8154815290600101906020018083116112e757829003601f168201915b5050505050815260200160038201805461131d90612d33565b80601f016020809104026020016040519081016040528092919081815260200182805461134990612d33565b80156113965780601f1061136b57610100808354040283529160200191611396565b820191906000526020600020905b81548152906001019060200180831161137957829003601f168201915b505050505081526020016004820180546113af90612d33565b80601f01602080910402602001604051908101604052809291908181526020018280546113db90612d33565b80156114285780601f106113fd57610100808354040283529160200191611428565b820191906000526020600020905b81548152906001019060200180831161140b57829003601f168201915b5050505050815260200160058201548152602001600682015481526020016007820154815260200160088201548152602001600982015481525050828281518110611476576114756132a1565b5b6020026020010181905250808061148c906132d0565b915050611195565b508091505090565b6000801b6114a981611c04565b60006006600084815260200190815260200160002060405180610140016040529081600082015481526020016001820180546114e490612d33565b80601f016020809104026020016040519081016040528092919081815260200182805461151090612d33565b801561155d5780601f106115325761010080835404028352916020019161155d565b820191906000526020600020905b81548152906001019060200180831161154057829003601f168201915b5050505050815260200160028201805461157690612d33565b80601f01602080910402602001604051908101604052809291908181526020018280546115a290612d33565b80156115ef5780601f106115c4576101008083540402835291602001916115ef565b820191906000526020600020905b8154815290600101906020018083116115d257829003601f168201915b5050505050815260200160038201805461160890612d33565b80601f016020809104026020016040519081016040528092919081815260200182805461163490612d33565b80156116815780601f1061165657610100808354040283529160200191611681565b820191906000526020600020905b81548152906001019060200180831161166457829003601f168201915b5050505050815260200160048201805461169a90612d33565b80601f01602080910402602001604051908101604052809291908181526020018280546116c690612d33565b80156117135780601f106116e857610100808354040283529160200191611713565b820191906000526020600020905b8154815290600101906020018083116116f657829003601f168201915b505050505081526020016005820154815260200160068201548152602001600782015481526020016008820154815260200160098201548152505090508060a001518160e00151111561179b576040517f08c379a000000000000000000000000000000000000000000000000000000000815260040161179290612db0565b60405180910390fd5b600260009054906101000a900473ffffffffffffffffffffffffffffffffffffffff1673ffffffffffffffffffffffffffffffffffffffff1663a9f16f3e82600001518360a0015184606001518561010001516040518563ffffffff1660e01b815260040161180d9493929190613318565b600060405180830381600087803b15801561182757600080fd5b505af115801561183b573d6000803e3d6000fd5b505050506000600260009054906101000a900473ffffffffffffffffffffffffffffffffffffffff1673ffffffffffffffffffffffffffffffffffffffff166330a254a5856040518263ffffffff1660e01b815260040161189c9190612f34565b602060405180830381865afa1580156118b9573d6000803e3d6000fd5b505050506040513d601f19601f820116820180604052508101906118dd9190612f64565b9050808260e0018181525050816006600086815260200190815260200160002060008201518160000155602082015181600101908161191c919061313d565b506040820151816002019081611932919061313d565b506060820151816003019081611948919061313d565b50608082015181600401908161195e919061313d565b5060a0820151816005015560c0820151816006015560e082015181600701556101008201518160080155610120820151816009015590505050505050565b6000801b6119a981611c04565b6119b1611e83565b50565b60006001600084815260200190815260200160002060000160008373ffffffffffffffffffffffffffffffffffffffff1673ffffffffffffffffffffffffffffffffffffffff16815260200190815260200160002060009054906101000a900460ff16905092915050565b6000801b81565b611a2f82610cfb565b611a3881611c04565b611a428383611d00565b505050565b6000801b611a5481611c04565b6000611a606003611f25565b905060006040518061014001604052808381526020018c81526020018b81526020018a8152602001898152602001888152602001878152602001600081526020018681526020018581525090508060066000848152602001908152602001600020600082015181600001556020820151816001019081611ae0919061313d565b506040820151816002019081611af6919061313d565b506060820151816003019081611b0c919061313d565b506080820151816004019081611b22919061313d565b5060a0820151816005015560c0820151816006015560e08201518160070155610100820151816008015561012082015181600901559050506005829080600181540180825580915050600190039060005260206000200160009091909190915055611b8d6003611f33565b5050505050505050505050565b60007f01ffc9a7000000000000000000000000000000000000000000000000000000007bffffffffffffffffffffffffffffffffffffffffffffffffffffffff1916827bffffffffffffffffffffffffffffffffffffffffffffffffffffffff1916149050919050565b611c1581611c10611cf8565b611f49565b50565b611c2282826119b4565b611cf457600180600084815260200190815260200160002060000160008373ffffffffffffffffffffffffffffffffffffffff1673ffffffffffffffffffffffffffffffffffffffff16815260200190815260200160002060006101000a81548160ff021916908315150217905550611c99611cf8565b73ffffffffffffffffffffffffffffffffffffffff168173ffffffffffffffffffffffffffffffffffffffff16837f2f8788117e7eff1d82e926ec794901d17c78024a50270940304540a733656f0d60405160405180910390a45b5050565b600033905090565b611d0a82826119b4565b15611dde5760006001600084815260200190815260200160002060000160008373ffffffffffffffffffffffffffffffffffffffff1673ffffffffffffffffffffffffffffffffffffffff16815260200190815260200160002060006101000a81548160ff021916908315150217905550611d83611cf8565b73ffffffffffffffffffffffffffffffffffffffff168173ffffffffffffffffffffffffffffffffffffffff16837ff6391f5c32d9c69d2a47ea670b442974b53935d1edc7fd64eb21e047a839171b60405160405180910390a45b5050565b611dea611089565b611e29576040517f08c379a0000000000000000000000000000000000000000000000000000000008152600401611e20906133b0565b60405180910390fd5b60008060006101000a81548160ff0219169083151502179055507f5db9ee0a495bf2e6ff9c91a7834c1ba4fdd244a5e8aa4e537bd38aeae4b073aa611e6c611cf8565b604051611e7991906133d0565b60405180910390a1565b611e8b611089565b15611ecb576040517f08c379a0000000000000000000000000000000000000000000000000000000008152600401611ec290613437565b60405180910390fd5b60016000806101000a81548160ff0219169083151502179055507f62e78cea01bee320cd4e420270b5ea74000d11b0c9f74754ebdbfc544b05a258611f0e611cf8565b604051611f1b91906133d0565b60405180910390a1565b600081600001549050919050565b6001816000016000828254019250508190555050565b611f5382826119b4565b611fe257611f788173ffffffffffffffffffffffffffffffffffffffff166014611fe6565b611f868360001c6020611fe6565b604051602001611f9792919061352b565b6040516020818303038152906040526040517f08c379a0000000000000000000000000000000000000000000000000000000008152600401611fd99190613565565b60405180910390fd5b5050565b606060006002836002611ff99190613587565b61200391906135e1565b67ffffffffffffffff81111561201c5761201b612ab3565b5b6040519080825280601f01601f19166020018201604052801561204e5781602001600182028036833780820191505090505b5090507f300000000000000000000000000000000000000000000000000000000000000081600081518110612086576120856132a1565b5b60200101907effffffffffffffffffffffffffffffffffffffffffffffffffffffffffffff1916908160001a9053507f7800000000000000000000000000000000000000000000000000000000000000816001815181106120ea576120e96132a1565b5b60200101907effffffffffffffffffffffffffffffffffffffffffffffffffffffffffffff1916908160001a9053506000600184600261212a9190613587565b61213491906135e1565b90505b60018111156121d4577f3031323334353637383961626364656600000000000000000000000000000000600f861660108110612176576121756132a1565b5b1a60f81b82828151811061218d5761218c6132a1565b5b60200101907effffffffffffffffffffffffffffffffffffffffffffffffffffffffffffff1916908160001a905350600485901c9450806121cd90613637565b9050612137565b5060008414612218576040517f08c379a000000000000000000000000000000000000000000000000000000000815260040161220f906136ac565b60405180910390fd5b8091505092915050565b604051806101400160405280600081526020016060815260200160608152602001606081526020016060815260200160008152602001600081526020016000815260200160008152602001600081525090565b6000604051905090565b600080fd5b600080fd5b60007fffffffff0000000000000000000000000000000000000000000000000000000082169050919050565b6122be81612289565b81146122c957600080fd5b50565b6000813590506122db816122b5565b92915050565b6000602082840312156122f7576122f661227f565b5b6000612305848285016122cc565b91505092915050565b60008115159050919050565b6123238161230e565b82525050565b600060208201905061233e600083018461231a565b92915050565b600073ffffffffffffffffffffffffffffffffffffffff82169050919050565b600061236f82612344565b9050919050565b61237f81612364565b82525050565b600060208201905061239a6000830184612376565b92915050565b6000819050919050565b6123b3816123a0565b81146123be57600080fd5b50565b6000813590506123d0816123aa565b92915050565b6000602082840312156123ec576123eb61227f565b5b60006123fa848285016123c1565b91505092915050565b61240c816123a0565b82525050565b600081519050919050565b600082825260208201905092915050565b60005b8381101561244c578082015181840152602081019050612431565b8381111561245b576000848401525b50505050565b6000601f19601f8301169050919050565b600061247d82612412565b612487818561241d565b935061249781856020860161242e565b6124a081612461565b840191505092915050565b6000610140820190506124c1600083018d612403565b81810360208301526124d3818c612472565b905081810360408301526124e7818b612472565b905081810360608301526124fb818a612472565b9050818103608083015261250f8189612472565b905061251e60a0830188612403565b61252b60c0830187612403565b61253860e0830186612403565b612546610100830185612403565b612554610120830184612403565b9b9a5050505050505050505050565b6000819050919050565b61257681612563565b811461258157600080fd5b50565b6000813590506125938161256d565b92915050565b6000602082840312156125af576125ae61227f565b5b60006125bd84828501612584565b91505092915050565b6125cf81612563565b82525050565b60006020820190506125ea60008301846125c6565b92915050565b60006125fb82612344565b9050919050565b61260b816125f0565b811461261657600080fd5b50565b60008135905061262881612602565b92915050565b600080604083850312156126455761264461227f565b5b600061265385828601612584565b925050602061266485828601612619565b9150509250929050565b612677816123a0565b82525050565b600082825260208201905092915050565b600061269982612412565b6126a3818561267d565b93506126b381856020860161242e565b6126bc81612461565b840191505092915050565b6000610140830160008301516126e0600086018261266e565b50602083015184820360208601526126f8828261268e565b91505060408301518482036040860152612712828261268e565b9150506060830151848203606086015261272c828261268e565b91505060808301518482036080860152612746828261268e565b91505060a083015161275b60a086018261266e565b5060c083015161276e60c086018261266e565b5060e083015161278160e086018261266e565b5061010083015161279661010086018261266e565b506101208301516127ab61012086018261266e565b508091505092915050565b600060208201905081810360008301526127d081846126c7565b905092915050565b6000602082840312156127ee576127ed61227f565b5b60006127fc84828501612619565b91505092915050565b600081519050919050565b600082825260208201905092915050565b6000819050602082019050919050565b600061283d838361266e565b60208301905092915050565b6000602082019050919050565b600061286182612805565b61286b8185612810565b935061287683612821565b8060005b838110156128a757815161288e8882612831565b975061289983612849565b92505060018101905061287a565b5085935050505092915050565b600060208201905081810360008301526128ce8184612856565b905092915050565b600081519050919050565b600082825260208201905092915050565b6000819050602082019050919050565b60006101408301600083015161291b600086018261266e565b5060208301518482036020860152612933828261268e565b9150506040830151848203604086015261294d828261268e565b91505060608301518482036060860152612967828261268e565b91505060808301518482036080860152612981828261268e565b91505060a083015161299660a086018261266e565b5060c08301516129a960c086018261266e565b5060e08301516129bc60e086018261266e565b506101008301516129d161010086018261266e565b506101208301516129e661012086018261266e565b508091505092915050565b60006129fd8383612902565b905092915050565b6000602082019050919050565b6000612a1d826128d6565b612a2781856128e1565b935083602082028501612a39856128f2565b8060005b85811015612a755784840389528151612a5685826129f1565b9450612a6183612a05565b925060208a01995050600181019050612a3d565b50829750879550505050505092915050565b60006020820190508181036000830152612aa18184612a12565b905092915050565b600080fd5b600080fd5b7f4e487b7100000000000000000000000000000000000000000000000000000000600052604160045260246000fd5b612aeb82612461565b810181811067ffffffffffffffff82111715612b0a57612b09612ab3565b5b80604052505050565b6000612b1d612275565b9050612b298282612ae2565b919050565b600067ffffffffffffffff821115612b4957612b48612ab3565b5b612b5282612461565b9050602081019050919050565b82818337600083830152505050565b6000612b81612b7c84612b2e565b612b13565b905082815260208101848484011115612b9d57612b9c612aae565b5b612ba8848285612b5f565b509392505050565b600082601f830112612bc557612bc4612aa9565b5b8135612bd5848260208601612b6e565b91505092915050565b600080600080600080600080610100898b031215612bff57612bfe61227f565b5b600089013567ffffffffffffffff811115612c1d57612c1c612284565b5b612c298b828c01612bb0565b985050602089013567ffffffffffffffff811115612c4a57612c49612284565b5b612c568b828c01612bb0565b975050604089013567ffffffffffffffff811115612c7757612c76612284565b5b612c838b828c01612bb0565b965050606089013567ffffffffffffffff811115612ca457612ca3612284565b5b612cb08b828c01612bb0565b9550506080612cc18b828c016123c1565b94505060a0612cd28b828c016123c1565b93505060c0612ce38b828c016123c1565b92505060e0612cf48b828c016123c1565b9150509295985092959890939650565b7f4e487b7100000000000000000000000000000000000000000000000000000000600052602260045260246000fd5b60006002820490506001821680612d4b57607f821691505b602082108103612d5e57612d5d612d04565b5b50919050565b7f4d617463682069732066756c6c00000000000000000000000000000000000000600082015250565b6000612d9a600d8361241d565b9150612da582612d64565b602082019050919050565b60006020820190508181036000830152612dc981612d8d565b9050919050565b7f4e487b7100000000000000000000000000000000000000000000000000000000600052601260045260246000fd5b7f4e487b7100000000000000000000000000000000000000000000000000000000600052601160045260246000fd5b6000612e39826123a0565b9150612e44836123a0565b925082612e5457612e53612dd0565b5b828204905092915050565b7f596f7520646f6e2774206861766520656e6f756768206d6f6e65790000000000600082015250565b6000612e95601b8361241d565b9150612ea082612e5f565b602082019050919050565b60006020820190508181036000830152612ec481612e88565b9050919050565b612ed4816125f0565b82525050565b600060a082019050612eef6000830188612ecb565b612efc6020830187612403565b612f096040830186612403565b8181036060830152612f1b8185612472565b9050612f2a6080830184612403565b9695505050505050565b6000602082019050612f496000830184612403565b92915050565b600081519050612f5e816123aa565b92915050565b600060208284031215612f7a57612f7961227f565b5b6000612f8884828501612f4f565b91505092915050565b60008190508160005260206000209050919050565b60006020601f8301049050919050565b600082821b905092915050565b600060088302612ff37fffffffffffffffffffffffffffffffffffffffffffffffffffffffffffffffff82612fb6565b612ffd8683612fb6565b95508019841693508086168417925050509392505050565b6000819050919050565b600061303a613035613030846123a0565b613015565b6123a0565b9050919050565b6000819050919050565b6130548361301f565b61306861306082613041565b848454612fc3565b825550505050565b600090565b61307d613070565b61308881848461304b565b505050565b5b818110156130ac576130a1600082613075565b60018101905061308e565b5050565b601f8211156130f1576130c281612f91565b6130cb84612fa6565b810160208510156130da578190505b6130ee6130e685612fa6565b83018261308d565b50505b505050565b600082821c905092915050565b6000613114600019846008026130f6565b1980831691505092915050565b600061312d8383613103565b9150826002028217905092915050565b61314682612412565b67ffffffffffffffff81111561315f5761315e612ab3565b5b6131698254612d33565b6131748282856130b0565b600060209050601f8311600181146131a75760008415613195578287015190505b61319f8582613121565b865550613207565b601f1984166131b586612f91565b60005b828110156131dd578489015182556001820191506020850194506020810190506131b8565b868310156131fa57848901516131f6601f891682613103565b8355505b6001600288020188555050505b505050505050565b7f416363657373436f6e74726f6c3a2063616e206f6e6c792072656e6f756e636560008201527f20726f6c657320666f722073656c660000000000000000000000000000000000602082015250565b600061326b602f8361241d565b91506132768261320f565b604082019050919050565b6000602082019050818103600083015261329a8161325e565b9050919050565b7f4e487b7100000000000000000000000000000000000000000000000000000000600052603260045260246000fd5b60006132db826123a0565b91507fffffffffffffffffffffffffffffffffffffffffffffffffffffffffffffffff820361330d5761330c612dff565b5b600182019050919050565b600060808201905061332d6000830187612403565b61333a6020830186612403565b818103604083015261334c8185612472565b905061335b6060830184612403565b95945050505050565b7f5061757361626c653a206e6f7420706175736564000000000000000000000000600082015250565b600061339a60148361241d565b91506133a582613364565b602082019050919050565b600060208201905081810360008301526133c98161338d565b9050919050565b60006020820190506133e56000830184612ecb565b92915050565b7f5061757361626c653a2070617573656400000000000000000000000000000000600082015250565b600061342160108361241d565b915061342c826133eb565b602082019050919050565b6000602082019050818103600083015261345081613414565b9050919050565b600081905092915050565b7f416363657373436f6e74726f6c3a206163636f756e7420000000000000000000600082015250565b6000613498601783613457565b91506134a382613462565b601782019050919050565b60006134b982612412565b6134c38185613457565b93506134d381856020860161242e565b80840191505092915050565b7f206973206d697373696e6720726f6c6520000000000000000000000000000000600082015250565b6000613515601183613457565b9150613520826134df565b601182019050919050565b60006135368261348b565b915061354282856134ae565b915061354d82613508565b915061355982846134ae565b91508190509392505050565b6000602082019050818103600083015261357f8184612472565b905092915050565b6000613592826123a0565b915061359d836123a0565b9250817fffffffffffffffffffffffffffffffffffffffffffffffffffffffffffffffff04831182151516156135d6576135d5612dff565b5b828202905092915050565b60006135ec826123a0565b91506135f7836123a0565b9250827fffffffffffffffffffffffffffffffffffffffffffffffffffffffffffffffff0382111561362c5761362b612dff565b5b828201905092915050565b6000613642826123a0565b91506000820361365557613654612dff565b5b600182039050919050565b7f537472696e67733a20686578206c656e67746820696e73756666696369656e74600082015250565b600061369660208361241d565b91506136a182613660565b602082019050919050565b600060208201905081810360008301526136c581613689565b905091905056fea26469706673582212202279f9acf9cdbd76470cfafe6b82b14ad2728afea5ad53946d03468d54a8528864736f6c634300080f0033",
  "immutableReferences": {},
  "source": "// SPDX-License-Identifier: MIT\npragma solidity ^0.8.12;\n\nimport \"@openzeppelin/contracts/token/ERC721/ERC721.sol\";\nimport \"@openzeppelin/contracts/token/ERC721/extensions/ERC721Enumerable.sol\";\nimport \"@openzeppelin/contracts/token/ERC721/extensions/ERC721URIStorage.sol\";\nimport \"@openzeppelin/contracts/security/Pausable.sol\";\nimport \"@openzeppelin/contracts/access/AccessControl.sol\";\nimport \"@openzeppelin/contracts/token/ERC721/extensions/ERC721Burnable.sol\";\nimport \"@openzeppelin/contracts/utils/Counters.sol\";\nimport \"@openzeppelin/contracts/token/common/ERC2981.sol\";\n\nimport \"./CryptoTicketsMatchNFTs.sol\";\n\ncontract CryptoTicketsMatchManagement is Pausable, AccessControl {\n    CryptoTicketsMatchNFTs matchTicketsContract;\n\n    using Counters for Counters.Counter;\n    Counters.Counter private _matchNumberCounter;\n\n    address payable public club;\n\n    struct MatchInfo {\n        uint256 matchId;\n        string local;\n        string visitor;\n        string baseURI;\n        string metadataURI;\n        uint256 maxCapacity;\n        uint256 expirationDate;\n        uint256 totalSales;\n        uint256 carTotalTokens;\n        uint256 pvp;\n    }\n\n    uint256[] matchIdList;\n    mapping(uint256 => MatchInfo) public matchList;\n\n    constructor(address matchTicketsContractAddresss) {\n        matchTicketsContract = CryptoTicketsMatchNFTs(\n            matchTicketsContractAddresss\n        );\n        _grantRole(DEFAULT_ADMIN_ROLE, msg.sender);\n    }\n\n    function addNewMatch(\n        string memory local,\n        string memory visitor,\n        string memory baseURI,\n        string memory metadataURI,\n        uint256 maxCapacity,\n        uint256 expirationDate,\n        uint256 carTotalTokens,\n        uint256 pvp\n    ) public onlyRole(DEFAULT_ADMIN_ROLE) {\n        uint256 matchId = _matchNumberCounter.current();\n        MatchInfo memory matchInfo = MatchInfo(\n            matchId,\n            local,\n            visitor,\n            baseURI,\n            metadataURI,\n            maxCapacity,\n            expirationDate,\n            0,\n            carTotalTokens,\n            pvp\n        );\n        matchList[matchId] = matchInfo;\n        matchIdList.push(matchId);\n        _matchNumberCounter.increment();\n    }\n\n    function getAllMatchs() public view returns (MatchInfo[] memory) {\n        MatchInfo[] memory matchInfoList = new MatchInfo[](matchIdList.length);\n        for (uint256 i = 0; i < matchIdList.length; i++) {\n            matchInfoList[i] = matchList[matchIdList[i]];\n        }\n        return matchInfoList;\n    }\n\n    function getMatch(uint256 matchId) public view returns (MatchInfo memory) {\n        return matchList[matchId];\n    }\n\n    function getMatchIdList() public view returns (uint256[] memory) {\n        return matchIdList;\n    }\n\n    function pause() public onlyRole(DEFAULT_ADMIN_ROLE) {\n        _pause();\n    }\n\n    function unpause() public onlyRole(DEFAULT_ADMIN_ROLE) {\n        _unpause();\n    }\n\n    function airdropMatchTickets(uint256 matchId)\n        public\n        onlyRole(DEFAULT_ADMIN_ROLE)\n    {\n        MatchInfo memory matchInfo = matchList[matchId];\n        require(matchInfo.totalSales <= matchInfo.maxCapacity, \"Match is full\");\n\n        matchTicketsContract.airdropMatchTickets(\n            matchInfo.matchId,\n            matchInfo.maxCapacity,\n            matchInfo.baseURI,\n            matchInfo.carTotalTokens\n        );\n\n        uint256 newTotalSales = matchTicketsContract\n            .getTotalMintedTicketsByMatchId(matchId);\n        matchInfo.totalSales = newTotalSales;\n        matchList[matchId] = matchInfo;\n    }\n\n    function mintSaleMatchTicket(uint256 matchId) public payable {\n        MatchInfo memory matchInfo = matchList[matchId];\n        require(matchInfo.totalSales <= matchInfo.maxCapacity, \"Match is full\");\n        require(\n            msg.value >= matchInfo.pvp / 1 wei,\n            \"You don't have enough money\"\n        );\n\n        matchTicketsContract.mintSaleMatchTicket{value: msg.value}(\n            msg.sender,\n            matchInfo.matchId,\n            matchInfo.maxCapacity,\n            matchInfo.baseURI,\n            matchInfo.carTotalTokens\n        );\n        uint256 newTotalSales = matchTicketsContract\n            .getTotalMintedTicketsByMatchId(matchId);\n        matchInfo.totalSales = newTotalSales;\n        matchList[matchId] = matchInfo;\n    }\n\n    function grantAdminRol(address account)\n        public\n        onlyRole(DEFAULT_ADMIN_ROLE)\n    {\n        _grantRole(DEFAULT_ADMIN_ROLE, account);\n    }\n\n    function revokeAdminRol(address account)\n        public\n        onlyRole(DEFAULT_ADMIN_ROLE)\n    {\n        _revokeRole(DEFAULT_ADMIN_ROLE, account);\n    }\n}\n",
  "sourcePath": "/Users/dosorio/Proyectos/Blockchain/SportTickets/contracts/CryptoTicketsMatchManagement.sol",
  "compiler": {
    "name": "solc",
    "version": "0.8.15+commit.e14f2714.Emscripten.clang"
  },
  "schemaVersion": "3.4.7",
  "updatedAt": "2022-07-05T18:58:07.557Z",
  "networkType": "ethereum",
  "devdoc": {
    "kind": "dev",
    "methods": {
      "getRoleAdmin(bytes32)": {
        "details": "Returns the admin role that controls `role`. See {grantRole} and {revokeRole}. To change a role's admin, use {_setRoleAdmin}."
      },
      "grantRole(bytes32,address)": {
        "details": "Grants `role` to `account`. If `account` had not been already granted `role`, emits a {RoleGranted} event. Requirements: - the caller must have ``role``'s admin role."
      },
      "hasRole(bytes32,address)": {
        "details": "Returns `true` if `account` has been granted `role`."
      },
      "paused()": {
        "details": "Returns true if the contract is paused, and false otherwise."
      },
      "renounceRole(bytes32,address)": {
        "details": "Revokes `role` from the calling account. Roles are often managed via {grantRole} and {revokeRole}: this function's purpose is to provide a mechanism for accounts to lose their privileges if they are compromised (such as when a trusted device is misplaced). If the calling account had been revoked `role`, emits a {RoleRevoked} event. Requirements: - the caller must be `account`."
      },
      "revokeRole(bytes32,address)": {
        "details": "Revokes `role` from `account`. If `account` had been granted `role`, emits a {RoleRevoked} event. Requirements: - the caller must have ``role``'s admin role."
      },
      "supportsInterface(bytes4)": {
        "details": "See {IERC165-supportsInterface}."
      }
    },
    "version": 1
  },
  "userdoc": {
    "kind": "user",
    "methods": {},
    "version": 1
  }
}