{
  "contractName": "CryptoTicketsMatchNFTs",
  "abi": [
    {
      "inputs": [],
      "stateMutability": "nonpayable",
      "type": "constructor"
    },
    {
      "anonymous": false,
      "inputs": [
        {
          "indexed": true,
          "internalType": "address",
          "name": "owner",
          "type": "address"
        },
        {
          "indexed": true,
          "internalType": "address",
          "name": "approved",
          "type": "address"
        },
        {
          "indexed": true,
          "internalType": "uint256",
          "name": "tokenId",
          "type": "uint256"
        }
      ],
      "name": "Approval",
      "type": "event"
    },
    {
      "anonymous": false,
      "inputs": [
        {
          "indexed": true,
          "internalType": "address",
          "name": "owner",
          "type": "address"
        },
        {
          "indexed": true,
          "internalType": "address",
          "name": "operator",
          "type": "address"
        },
        {
          "indexed": false,
          "internalType": "bool",
          "name": "approved",
          "type": "bool"
        }
      ],
      "name": "ApprovalForAll",
      "type": "event"
    },
    {
      "anonymous": false,
      "inputs": [
        {
          "indexed": true,
          "internalType": "address",
          "name": "sender",
          "type": "address"
        },
        {
          "indexed": true,
          "internalType": "address",
          "name": "clubAddress",
          "type": "address"
        }
      ],
      "name": "ClubAdminRoleGranted",
      "type": "event"
    },
    {
      "anonymous": false,
      "inputs": [
        {
          "indexed": true,
          "internalType": "address",
          "name": "sender",
          "type": "address"
        },
        {
          "indexed": true,
          "internalType": "address",
          "name": "clubAddress",
          "type": "address"
        }
      ],
      "name": "ClubAdminRoleRevoked",
      "type": "event"
    },
    {
      "anonymous": false,
      "inputs": [
        {
          "indexed": false,
          "internalType": "string",
          "name": "_message",
          "type": "string"
        },
        {
          "indexed": true,
          "internalType": "address",
          "name": "account",
          "type": "address"
        }
      ],
      "name": "MsgInfoAccountListKo",
      "type": "event"
    },
    {
      "anonymous": false,
      "inputs": [
        {
          "indexed": false,
          "internalType": "string",
          "name": "_message",
          "type": "string"
        },
        {
          "indexed": true,
          "internalType": "address",
          "name": "account",
          "type": "address"
        }
      ],
      "name": "MsgInfoAccountListOk",
      "type": "event"
    },
    {
      "anonymous": false,
      "inputs": [
        {
          "indexed": false,
          "internalType": "string",
          "name": "_message",
          "type": "string"
        },
        {
          "indexed": true,
          "internalType": "address",
          "name": "account",
          "type": "address"
        }
      ],
      "name": "MsgInfoMinted",
      "type": "event"
    },
    {
      "anonymous": false,
      "inputs": [
        {
          "indexed": false,
          "internalType": "address",
          "name": "account",
          "type": "address"
        }
      ],
      "name": "Paused",
      "type": "event"
    },
    {
      "anonymous": false,
      "inputs": [
        {
          "indexed": true,
          "internalType": "bytes32",
          "name": "role",
          "type": "bytes32"
        },
        {
          "indexed": true,
          "internalType": "bytes32",
          "name": "previousAdminRole",
          "type": "bytes32"
        },
        {
          "indexed": true,
          "internalType": "bytes32",
          "name": "newAdminRole",
          "type": "bytes32"
        }
      ],
      "name": "RoleAdminChanged",
      "type": "event"
    },
    {
      "anonymous": false,
      "inputs": [
        {
          "indexed": true,
          "internalType": "bytes32",
          "name": "role",
          "type": "bytes32"
        },
        {
          "indexed": true,
          "internalType": "address",
          "name": "account",
          "type": "address"
        },
        {
          "indexed": true,
          "internalType": "address",
          "name": "sender",
          "type": "address"
        }
      ],
      "name": "RoleGranted",
      "type": "event"
    },
    {
      "anonymous": false,
      "inputs": [
        {
          "indexed": true,
          "internalType": "bytes32",
          "name": "role",
          "type": "bytes32"
        },
        {
          "indexed": true,
          "internalType": "address",
          "name": "account",
          "type": "address"
        },
        {
          "indexed": true,
          "internalType": "address",
          "name": "sender",
          "type": "address"
        }
      ],
      "name": "RoleRevoked",
      "type": "event"
    },
    {
      "anonymous": false,
      "inputs": [
        {
          "indexed": false,
          "internalType": "string",
          "name": "_message",
          "type": "string"
        }
      ],
      "name": "Status",
      "type": "event"
    },
    {
      "anonymous": false,
      "inputs": [
        {
          "indexed": true,
          "internalType": "address",
          "name": "from",
          "type": "address"
        },
        {
          "indexed": true,
          "internalType": "address",
          "name": "to",
          "type": "address"
        },
        {
          "indexed": true,
          "internalType": "uint256",
          "name": "tokenId",
          "type": "uint256"
        }
      ],
      "name": "Transfer",
      "type": "event"
    },
    {
      "anonymous": false,
      "inputs": [
        {
          "indexed": false,
          "internalType": "address",
          "name": "account",
          "type": "address"
        }
      ],
      "name": "Unpaused",
      "type": "event"
    },
    {
      "inputs": [],
      "name": "ADMIN_CLUB_ROLE",
      "outputs": [
        {
          "internalType": "bytes32",
          "name": "",
          "type": "bytes32"
        }
      ],
      "stateMutability": "view",
      "type": "function",
      "constant": true
    },
    {
      "inputs": [],
      "name": "DEFAULT_ADMIN_ROLE",
      "outputs": [
        {
          "internalType": "bytes32",
          "name": "",
          "type": "bytes32"
        }
      ],
      "stateMutability": "view",
      "type": "function",
      "constant": true
    },
    {
      "inputs": [
        {
          "internalType": "address",
          "name": "to",
          "type": "address"
        },
        {
          "internalType": "uint256",
          "name": "tokenId",
          "type": "uint256"
        }
      ],
      "name": "approve",
      "outputs": [],
      "stateMutability": "nonpayable",
      "type": "function"
    },
    {
      "inputs": [
        {
          "internalType": "address",
          "name": "owner",
          "type": "address"
        }
      ],
      "name": "balanceOf",
      "outputs": [
        {
          "internalType": "uint256",
          "name": "",
          "type": "uint256"
        }
      ],
      "stateMutability": "view",
      "type": "function",
      "constant": true
    },
    {
      "inputs": [
        {
          "internalType": "uint256",
          "name": "tokenId",
          "type": "uint256"
        }
      ],
      "name": "burn",
      "outputs": [],
      "stateMutability": "nonpayable",
      "type": "function"
    },
    {
      "inputs": [],
      "name": "club",
      "outputs": [
        {
          "internalType": "address payable",
          "name": "",
          "type": "address"
        }
      ],
      "stateMutability": "view",
      "type": "function",
      "constant": true
    },
    {
      "inputs": [
        {
          "internalType": "uint256",
          "name": "tokenId",
          "type": "uint256"
        }
      ],
      "name": "getApproved",
      "outputs": [
        {
          "internalType": "address",
          "name": "",
          "type": "address"
        }
      ],
      "stateMutability": "view",
      "type": "function",
      "constant": true
    },
    {
      "inputs": [
        {
          "internalType": "bytes32",
          "name": "role",
          "type": "bytes32"
        }
      ],
      "name": "getRoleAdmin",
      "outputs": [
        {
          "internalType": "bytes32",
          "name": "",
          "type": "bytes32"
        }
      ],
      "stateMutability": "view",
      "type": "function",
      "constant": true
    },
    {
      "inputs": [
        {
          "internalType": "bytes32",
          "name": "role",
          "type": "bytes32"
        },
        {
          "internalType": "address",
          "name": "account",
          "type": "address"
        }
      ],
      "name": "grantRole",
      "outputs": [],
      "stateMutability": "nonpayable",
      "type": "function"
    },
    {
      "inputs": [
        {
          "internalType": "bytes32",
          "name": "role",
          "type": "bytes32"
        },
        {
          "internalType": "address",
          "name": "account",
          "type": "address"
        }
      ],
      "name": "hasRole",
      "outputs": [
        {
          "internalType": "bool",
          "name": "",
          "type": "bool"
        }
      ],
      "stateMutability": "view",
      "type": "function",
      "constant": true
    },
    {
      "inputs": [
        {
          "internalType": "address",
          "name": "owner",
          "type": "address"
        },
        {
          "internalType": "address",
          "name": "operator",
          "type": "address"
        }
      ],
      "name": "isApprovedForAll",
      "outputs": [
        {
          "internalType": "bool",
          "name": "",
          "type": "bool"
        }
      ],
      "stateMutability": "view",
      "type": "function",
      "constant": true
    },
    {
      "inputs": [
        {
          "internalType": "uint256",
          "name": "",
          "type": "uint256"
        }
      ],
      "name": "listSubscriber",
      "outputs": [
        {
          "internalType": "address",
          "name": "",
          "type": "address"
        }
      ],
      "stateMutability": "view",
      "type": "function",
      "constant": true
    },
    {
      "inputs": [],
      "name": "name",
      "outputs": [
        {
          "internalType": "string",
          "name": "",
          "type": "string"
        }
      ],
      "stateMutability": "view",
      "type": "function",
      "constant": true
    },
    {
      "inputs": [],
      "name": "newOwner",
      "outputs": [
        {
          "internalType": "address",
          "name": "",
          "type": "address"
        }
      ],
      "stateMutability": "view",
      "type": "function",
      "constant": true
    },
    {
      "inputs": [
        {
          "internalType": "uint256",
          "name": "tokenId",
          "type": "uint256"
        }
      ],
      "name": "ownerOf",
      "outputs": [
        {
          "internalType": "address",
          "name": "",
          "type": "address"
        }
      ],
      "stateMutability": "view",
      "type": "function",
      "constant": true
    },
    {
      "inputs": [],
      "name": "paused",
      "outputs": [
        {
          "internalType": "bool",
          "name": "",
          "type": "bool"
        }
      ],
      "stateMutability": "view",
      "type": "function",
      "constant": true
    },
    {
      "inputs": [
        {
          "internalType": "bytes32",
          "name": "role",
          "type": "bytes32"
        },
        {
          "internalType": "address",
          "name": "account",
          "type": "address"
        }
      ],
      "name": "renounceRole",
      "outputs": [],
      "stateMutability": "nonpayable",
      "type": "function"
    },
    {
      "inputs": [
        {
          "internalType": "bytes32",
          "name": "role",
          "type": "bytes32"
        },
        {
          "internalType": "address",
          "name": "account",
          "type": "address"
        }
      ],
      "name": "revokeRole",
      "outputs": [],
      "stateMutability": "nonpayable",
      "type": "function"
    },
    {
      "inputs": [
        {
          "internalType": "uint256",
          "name": "_tokenId",
          "type": "uint256"
        },
        {
          "internalType": "uint256",
          "name": "_salePrice",
          "type": "uint256"
        }
      ],
      "name": "royaltyInfo",
      "outputs": [
        {
          "internalType": "address",
          "name": "",
          "type": "address"
        },
        {
          "internalType": "uint256",
          "name": "",
          "type": "uint256"
        }
      ],
      "stateMutability": "view",
      "type": "function",
      "constant": true
    },
    {
      "inputs": [
        {
          "internalType": "address",
          "name": "from",
          "type": "address"
        },
        {
          "internalType": "address",
          "name": "to",
          "type": "address"
        },
        {
          "internalType": "uint256",
          "name": "tokenId",
          "type": "uint256"
        }
      ],
      "name": "safeTransferFrom",
      "outputs": [],
      "stateMutability": "nonpayable",
      "type": "function"
    },
    {
      "inputs": [
        {
          "internalType": "address",
          "name": "from",
          "type": "address"
        },
        {
          "internalType": "address",
          "name": "to",
          "type": "address"
        },
        {
          "internalType": "uint256",
          "name": "tokenId",
          "type": "uint256"
        },
        {
          "internalType": "bytes",
          "name": "_data",
          "type": "bytes"
        }
      ],
      "name": "safeTransferFrom",
      "outputs": [],
      "stateMutability": "nonpayable",
      "type": "function"
    },
    {
      "inputs": [
        {
          "internalType": "address",
          "name": "operator",
          "type": "address"
        },
        {
          "internalType": "bool",
          "name": "approved",
          "type": "bool"
        }
      ],
      "name": "setApprovalForAll",
      "outputs": [],
      "stateMutability": "nonpayable",
      "type": "function"
    },
    {
      "inputs": [],
      "name": "symbol",
      "outputs": [
        {
          "internalType": "string",
          "name": "",
          "type": "string"
        }
      ],
      "stateMutability": "view",
      "type": "function",
      "constant": true
    },
    {
      "inputs": [
        {
          "internalType": "uint256",
          "name": "index",
          "type": "uint256"
        }
      ],
      "name": "tokenByIndex",
      "outputs": [
        {
          "internalType": "uint256",
          "name": "",
          "type": "uint256"
        }
      ],
      "stateMutability": "view",
      "type": "function",
      "constant": true
    },
    {
      "inputs": [
        {
          "internalType": "address",
          "name": "owner",
          "type": "address"
        },
        {
          "internalType": "uint256",
          "name": "index",
          "type": "uint256"
        }
      ],
      "name": "tokenOfOwnerByIndex",
      "outputs": [
        {
          "internalType": "uint256",
          "name": "",
          "type": "uint256"
        }
      ],
      "stateMutability": "view",
      "type": "function",
      "constant": true
    },
    {
      "inputs": [],
      "name": "totalSupply",
      "outputs": [
        {
          "internalType": "uint256",
          "name": "",
          "type": "uint256"
        }
      ],
      "stateMutability": "view",
      "type": "function",
      "constant": true
    },
    {
      "inputs": [
        {
          "internalType": "address",
          "name": "from",
          "type": "address"
        },
        {
          "internalType": "address",
          "name": "to",
          "type": "address"
        },
        {
          "internalType": "uint256",
          "name": "tokenId",
          "type": "uint256"
        }
      ],
      "name": "transferFrom",
      "outputs": [],
      "stateMutability": "nonpayable",
      "type": "function"
    },
    {
      "inputs": [],
      "name": "pause",
      "outputs": [],
      "stateMutability": "nonpayable",
      "type": "function"
    },
    {
      "inputs": [],
      "name": "unpause",
      "outputs": [],
      "stateMutability": "nonpayable",
      "type": "function"
    },
    {
      "inputs": [
        {
          "internalType": "address",
          "name": "to",
          "type": "address"
        },
        {
          "internalType": "string",
          "name": "uri",
          "type": "string"
        }
      ],
      "name": "mintTicket",
      "outputs": [],
      "stateMutability": "payable",
      "type": "function",
      "payable": true
    },
    {
      "inputs": [
        {
          "internalType": "string",
          "name": "uri",
          "type": "string"
        }
      ],
      "name": "mintMatch",
      "outputs": [],
      "stateMutability": "nonpayable",
      "type": "function"
    },
    {
      "inputs": [
        {
          "internalType": "uint256",
          "name": "tokenId",
          "type": "uint256"
        }
      ],
      "name": "burnTicket",
      "outputs": [],
      "stateMutability": "nonpayable",
      "type": "function"
    },
    {
      "inputs": [
        {
          "internalType": "uint256",
          "name": "matchId",
          "type": "uint256"
        }
      ],
      "name": "tokenURI",
      "outputs": [
        {
          "internalType": "string",
          "name": "",
          "type": "string"
        }
      ],
      "stateMutability": "view",
      "type": "function",
      "constant": true
    },
    {
      "inputs": [
        {
          "internalType": "bytes4",
          "name": "interfaceId",
          "type": "bytes4"
        }
      ],
      "name": "supportsInterface",
      "outputs": [
        {
          "internalType": "bool",
          "name": "",
          "type": "bool"
        }
      ],
      "stateMutability": "view",
      "type": "function",
      "constant": true
    },
    {
      "inputs": [
        {
          "internalType": "address",
          "name": "account",
          "type": "address"
        }
      ],
      "name": "grantAdminRol",
      "outputs": [],
      "stateMutability": "nonpayable",
      "type": "function"
    },
    {
      "inputs": [
        {
          "internalType": "address",
          "name": "account",
          "type": "address"
        }
      ],
      "name": "grantClubRol",
      "outputs": [],
      "stateMutability": "nonpayable",
      "type": "function"
    },
    {
      "inputs": [
        {
          "internalType": "address",
          "name": "account",
          "type": "address"
        }
      ],
      "name": "revokeClubRol",
      "outputs": [],
      "stateMutability": "nonpayable",
      "type": "function"
    },
    {
      "inputs": [
        {
          "internalType": "address",
          "name": "account",
          "type": "address"
        }
      ],
      "name": "addAddress",
      "outputs": [],
      "stateMutability": "nonpayable",
      "type": "function"
    },
    {
      "inputs": [],
      "name": "getAddressInfo",
      "outputs": [
        {
          "internalType": "address[]",
          "name": "",
          "type": "address[]"
        }
      ],
      "stateMutability": "view",
      "type": "function",
      "constant": true
    },
    {
      "inputs": [
        {
          "internalType": "address",
          "name": "value",
          "type": "address"
        }
      ],
      "name": "findAddress",
      "outputs": [
        {
          "internalType": "uint256",
          "name": "",
          "type": "uint256"
        }
      ],
      "stateMutability": "view",
      "type": "function",
      "constant": true
    },
    {
      "inputs": [
        {
          "internalType": "address",
          "name": "value",
          "type": "address"
        }
      ],
      "name": "removeAddress",
      "outputs": [],
      "stateMutability": "nonpayable",
      "type": "function"
    },
    {
      "inputs": [
        {
          "internalType": "uint256",
          "name": "i",
          "type": "uint256"
        }
      ],
      "name": "removeAddressByIndex",
      "outputs": [],
      "stateMutability": "nonpayable",
      "type": "function"
    },
    {
      "inputs": [
        {
          "internalType": "address",
          "name": "_receiver",
          "type": "address"
        },
        {
          "internalType": "uint96",
          "name": "_royaltyFeesInBips",
          "type": "uint96"
        }
      ],
      "name": "setRoyaltyInfo",
      "outputs": [],
      "stateMutability": "nonpayable",
      "type": "function"
    }
  ],
  "bytecode": "0x60806040526103e8601560016101000a8154816bffffffffffffffffffffffff02191690836bffffffffffffffffffffffff1602179055503480156200004457600080fd5b506040518060400160405280601681526020017f43727970746f5469636b6574734d617463684e465473000000000000000000008152506040518060400160405280600581526020017f43544b4d4e0000000000000000000000000000000000000000000000000000008152508160009081620000c2919062000a81565b508060019081620000d4919062000a81565b5050506000600b60006101000a81548160ff021916908315150217905550620001076000801b336200018660201b60201c565b620001397f9894090c012e113e817b2d99a7f6ad3e666491f10820f12b8bc4b139f2ea06bb336200018660201b60201c565b6001601560006101000a81548160ff0219169083151502179055506200018033601560019054906101000a90046bffffffffffffffffffffffff166200027860201b60201c565b6200100f565b620001988282620002a460201b60201c565b62000274576001600c600084815260200190815260200160002060000160008373ffffffffffffffffffffffffffffffffffffffff1673ffffffffffffffffffffffffffffffffffffffff16815260200190815260200160002060006101000a81548160ff021916908315150217905550620002196200030f60201b60201c565b73ffffffffffffffffffffffffffffffffffffffff168173ffffffffffffffffffffffffffffffffffffffff16837f2f8788117e7eff1d82e926ec794901d17c78024a50270940304540a733656f0d60405160405180910390a45b5050565b6000801b6200028d816200031760201b60201c565b6200029f83836200033b60201b60201c565b505050565b6000600c600084815260200190815260200160002060000160008373ffffffffffffffffffffffffffffffffffffffff1673ffffffffffffffffffffffffffffffffffffffff16815260200190815260200160002060009054906101000a900460ff16905092915050565b600033905090565b62000338816200032c6200030f60201b60201c565b620004de60201b60201c565b50565b6200034b620005a260201b60201c565b6bffffffffffffffffffffffff16816bffffffffffffffffffffffff161115620003ac576040517f08c379a0000000000000000000000000000000000000000000000000000000008152600401620003a39062000bef565b60405180910390fd5b600073ffffffffffffffffffffffffffffffffffffffff168273ffffffffffffffffffffffffffffffffffffffff16036200041e576040517f08c379a0000000000000000000000000000000000000000000000000000000008152600401620004159062000c61565b60405180910390fd5b60405180604001604052808373ffffffffffffffffffffffffffffffffffffffff168152602001826bffffffffffffffffffffffff16815250600d60008201518160000160006101000a81548173ffffffffffffffffffffffffffffffffffffffff021916908373ffffffffffffffffffffffffffffffffffffffff16021790555060208201518160000160146101000a8154816bffffffffffffffffffffffff02191690836bffffffffffffffffffffffff1602179055509050505050565b620004f08282620002a460201b60201c565b6200059e57620005238173ffffffffffffffffffffffffffffffffffffffff166014620005ac60201b62001d591760201c565b6200053e8360001c6020620005ac60201b62001d591760201c565b6040516020016200055192919062000d9b565b6040516020818303038152906040526040517f08c379a000000000000000000000000000000000000000000000000000000000815260040162000595919062000e2f565b60405180910390fd5b5050565b6000612710905090565b606060006002836002620005c1919062000e82565b620005cd919062000ee3565b67ffffffffffffffff811115620005e957620005e862000812565b5b6040519080825280601f01601f1916602001820160405280156200061c5781602001600182028036833780820191505090505b5090507f30000000000000000000000000000000000000000000000000000000000000008160008151811062000657576200065662000f40565b5b60200101907effffffffffffffffffffffffffffffffffffffffffffffffffffffffffffff1916908160001a9053507f780000000000000000000000000000000000000000000000000000000000000081600181518110620006be57620006bd62000f40565b5b60200101907effffffffffffffffffffffffffffffffffffffffffffffffffffffffffffff1916908160001a9053506000600184600262000700919062000e82565b6200070c919062000ee3565b90505b6001811115620007b6577f3031323334353637383961626364656600000000000000000000000000000000600f86166010811062000752576200075162000f40565b5b1a60f81b8282815181106200076c576200076b62000f40565b5b60200101907effffffffffffffffffffffffffffffffffffffffffffffffffffffffffffff1916908160001a905350600485901c945080620007ae9062000f6f565b90506200070f565b5060008414620007fd576040517f08c379a0000000000000000000000000000000000000000000000000000000008152600401620007f49062000fed565b60405180910390fd5b8091505092915050565b600081519050919050565b7f4e487b7100000000000000000000000000000000000000000000000000000000600052604160045260246000fd5b7f4e487b7100000000000000000000000000000000000000000000000000000000600052602260045260246000fd5b600060028204905060018216806200088957607f821691505b6020821081036200089f576200089e62000841565b5b50919050565b60008190508160005260206000209050919050565b60006020601f8301049050919050565b600082821b905092915050565b600060088302620009097fffffffffffffffffffffffffffffffffffffffffffffffffffffffffffffffff82620008ca565b620009158683620008ca565b95508019841693508086168417925050509392505050565b6000819050919050565b6000819050919050565b6000620009626200095c62000956846200092d565b62000937565b6200092d565b9050919050565b6000819050919050565b6200097e8362000941565b620009966200098d8262000969565b848454620008d7565b825550505050565b600090565b620009ad6200099e565b620009ba81848462000973565b505050565b5b81811015620009e257620009d6600082620009a3565b600181019050620009c0565b5050565b601f82111562000a3157620009fb81620008a5565b62000a0684620008ba565b8101602085101562000a16578190505b62000a2e62000a2585620008ba565b830182620009bf565b50505b505050565b600082821c905092915050565b600062000a566000198460080262000a36565b1980831691505092915050565b600062000a71838362000a43565b9150826002028217905092915050565b62000a8c8262000807565b67ffffffffffffffff81111562000aa85762000aa762000812565b5b62000ab4825462000870565b62000ac1828285620009e6565b600060209050601f83116001811462000af9576000841562000ae4578287015190505b62000af0858262000a63565b86555062000b60565b601f19841662000b0986620008a5565b60005b8281101562000b335784890151825560018201915060208501945060208101905062000b0c565b8683101562000b53578489015162000b4f601f89168262000a43565b8355505b6001600288020188555050505b505050505050565b600082825260208201905092915050565b7f455243323938313a20726f79616c7479206665652077696c6c2065786365656460008201527f2073616c65507269636500000000000000000000000000000000000000000000602082015250565b600062000bd7602a8362000b68565b915062000be48262000b79565b604082019050919050565b6000602082019050818103600083015262000c0a8162000bc8565b9050919050565b7f455243323938313a20696e76616c696420726563656976657200000000000000600082015250565b600062000c4960198362000b68565b915062000c568262000c11565b602082019050919050565b6000602082019050818103600083015262000c7c8162000c3a565b9050919050565b600081905092915050565b7f416363657373436f6e74726f6c3a206163636f756e7420000000000000000000600082015250565b600062000cc660178362000c83565b915062000cd38262000c8e565b601782019050919050565b60005b8381101562000cfe57808201518184015260208101905062000ce1565b8381111562000d0e576000848401525b50505050565b600062000d218262000807565b62000d2d818562000c83565b935062000d3f81856020860162000cde565b80840191505092915050565b7f206973206d697373696e6720726f6c6520000000000000000000000000000000600082015250565b600062000d8360118362000c83565b915062000d908262000d4b565b601182019050919050565b600062000da88262000cb7565b915062000db6828562000d14565b915062000dc38262000d74565b915062000dd1828462000d14565b91508190509392505050565b6000601f19601f8301169050919050565b600062000dfb8262000807565b62000e07818562000b68565b935062000e1981856020860162000cde565b62000e248162000ddd565b840191505092915050565b6000602082019050818103600083015262000e4b818462000dee565b905092915050565b7f4e487b7100000000000000000000000000000000000000000000000000000000600052601160045260246000fd5b600062000e8f826200092d565b915062000e9c836200092d565b9250817fffffffffffffffffffffffffffffffffffffffffffffffffffffffffffffffff048311821515161562000ed85762000ed762000e53565b5b828202905092915050565b600062000ef0826200092d565b915062000efd836200092d565b9250827fffffffffffffffffffffffffffffffffffffffffffffffffffffffffffffffff0382111562000f355762000f3462000e53565b5b828201905092915050565b7f4e487b7100000000000000000000000000000000000000000000000000000000600052603260045260246000fd5b600062000f7c826200092d565b91506000820362000f925762000f9162000e53565b5b600182039050919050565b7f537472696e67733a20686578206c656e67746820696e73756666696369656e74600082015250565b600062000fd560208362000b68565b915062000fe28262000f9d565b602082019050919050565b60006020820190508181036000830152620010088162000fc6565b9050919050565b615ca3806200101f6000396000f3fe60806040526004361061025c5760003560e01c80634f6ccce711610144578063a217fddf116100b6578063c87b56dd1161007a578063c87b56dd1461090a578063d356a87914610947578063d4ee1d9014610970578063d547741f1461099b578063e985e9c5146109c4578063fe5a066614610a015761025c565b8063a217fddf1461083b578063a22cb46514610866578063a476b73d1461088f578063a9757b53146108b8578063b88d4fde146108e15761025c565b806370a082311161010857806370a08231146107195780637367c0d0146107565780638456cb591461077f57806391d148541461079657806395d89b41146107d35780639b6dd9ae146107fe5761025c565b80634f6ccce71461062f578063504761171461066c5780635388842c146106955780635c975abb146106b15780636352211e146106dc5761025c565b80632a55205a116101dd5780633bf08451116101a15780633bf08451146105475780633f4ba83a1461057257806342842e0e1461058957806342966c68146105b25780634ba79dfe146105db5780634f2a36ab146106045761025c565b80632a55205a146104515780632f2ff15d1461048f5780632f745c59146104b857806336568abe146104f557806338eada1c1461051e5761025c565b8063095ea7b311610224578063095ea7b31461036c5780630efd09731461039557806318160ddd146103c057806323b872dd146103eb578063248a9ca3146104145761025c565b806301ffc9a71461026157806302fa7c471461029e5780630309aca3146102c757806306fdde0314610304578063081812fc1461032f575b600080fd5b34801561026d57600080fd5b5061028860048036038101906102839190613ccc565b610a2a565b6040516102959190613d14565b60405180910390f35b3480156102aa57600080fd5b506102c560048036038101906102c09190613dd1565b610a3c565b005b3480156102d357600080fd5b506102ee60048036038101906102e99190613e11565b610a58565b6040516102fb9190613e57565b60405180910390f35b34801561031057600080fd5b50610319610aed565b6040516103269190613f0b565b60405180910390f35b34801561033b57600080fd5b5061035660048036038101906103519190613f59565b610b7f565b6040516103639190613f95565b60405180910390f35b34801561037857600080fd5b50610393600480360381019061038e9190613fb0565b610c04565b005b3480156103a157600080fd5b506103aa610d1b565b6040516103b79190614011565b60405180910390f35b3480156103cc57600080fd5b506103d5610d41565b6040516103e29190613e57565b60405180910390f35b3480156103f757600080fd5b50610412600480360381019061040d919061402c565b610d4e565b005b34801561042057600080fd5b5061043b600480360381019061043691906140b5565b610dae565b60405161044891906140f1565b60405180910390f35b34801561045d57600080fd5b506104786004803603810190610473919061410c565b610dce565b60405161048692919061414c565b60405180910390f35b34801561049b57600080fd5b506104b660048036038101906104b19190614175565b610fb8565b005b3480156104c457600080fd5b506104df60048036038101906104da9190613fb0565b610fd9565b6040516104ec9190613e57565b60405180910390f35b34801561050157600080fd5b5061051c60048036038101906105179190614175565b61107e565b005b34801561052a57600080fd5b5061054560048036038101906105409190613e11565b611101565b005b34801561055357600080fd5b5061055c611386565b60405161056991906140f1565b60405180910390f35b34801561057e57600080fd5b506105876113aa565b005b34801561059557600080fd5b506105b060048036038101906105ab919061402c565b6113df565b005b3480156105be57600080fd5b506105d960048036038101906105d49190613f59565b6113ff565b005b3480156105e757600080fd5b5061060260048036038101906105fd9190613e11565b61145b565b005b34801561061057600080fd5b50610619611475565b6040516106269190614273565b60405180910390f35b34801561063b57600080fd5b5061065660048036038101906106519190613f59565b611503565b6040516106639190613e57565b60405180910390f35b34801561067857600080fd5b50610693600480360381019061068e9190613e11565b611574565b005b6106af60048036038101906106aa91906143ca565b611609565b005b3480156106bd57600080fd5b506106c661163a565b6040516106d39190613d14565b60405180910390f35b3480156106e857600080fd5b5061070360048036038101906106fe9190613f59565b611651565b6040516107109190613f95565b60405180910390f35b34801561072557600080fd5b50610740600480360381019061073b9190613e11565b611702565b60405161074d9190613e57565b60405180910390f35b34801561076257600080fd5b5061077d60048036038101906107789190613e11565b6117b9565b005b34801561078b57600080fd5b506107946117d7565b005b3480156107a257600080fd5b506107bd60048036038101906107b89190614175565b61180c565b6040516107ca9190613d14565b60405180910390f35b3480156107df57600080fd5b506107e8611877565b6040516107f59190613f0b565b60405180910390f35b34801561080a57600080fd5b5061082560048036038101906108209190613f59565b611909565b6040516108329190613f95565b60405180910390f35b34801561084757600080fd5b50610850611948565b60405161085d91906140f1565b60405180910390f35b34801561087257600080fd5b5061088d60048036038101906108889190614452565b61194f565b005b34801561089b57600080fd5b506108b660048036038101906108b19190613f59565b611965565b005b3480156108c457600080fd5b506108df60048036038101906108da9190614492565b611971565b005b3480156108ed57600080fd5b506109086004803603810190610903919061457c565b611a57565b005b34801561091657600080fd5b50610931600480360381019061092c9190613f59565b611ab9565b60405161093e9190613f0b565b60405180910390f35b34801561095357600080fd5b5061096e60048036038101906109699190613f59565b611acb565b005b34801561097c57600080fd5b50610985611be9565b6040516109929190613f95565b60405180910390f35b3480156109a757600080fd5b506109c260048036038101906109bd9190614175565b611c0f565b005b3480156109d057600080fd5b506109eb60048036038101906109e691906145ff565b611c30565b6040516109f89190613d14565b60405180910390f35b348015610a0d57600080fd5b50610a286004803603810190610a239190613e11565b611cc4565b005b6000610a3582611f95565b9050919050565b6000801b610a498161200f565b610a538383612023565b505050565b600080600090505b8273ffffffffffffffffffffffffffffffffffffffff1660118281548110610a8b57610a8a61463f565b5b9060005260206000200160009054906101000a900473ffffffffffffffffffffffffffffffffffffffff1673ffffffffffffffffffffffffffffffffffffffff1614610ae4578080610adc9061469d565b915050610a60565b80915050919050565b606060008054610afc90614714565b80601f0160208091040260200160405190810160405280929190818152602001828054610b2890614714565b8015610b755780601f10610b4a57610100808354040283529160200191610b75565b820191906000526020600020905b815481529060010190602001808311610b5857829003601f168201915b5050505050905090565b6000610b8a826121b8565b610bc9576040517f08c379a0000000000000000000000000000000000000000000000000000000008152600401610bc0906147b7565b60405180910390fd5b6004600083815260200190815260200160002060009054906101000a900473ffffffffffffffffffffffffffffffffffffffff169050919050565b6000610c0f82611651565b90508073ffffffffffffffffffffffffffffffffffffffff168373ffffffffffffffffffffffffffffffffffffffff1603610c7f576040517f08c379a0000000000000000000000000000000000000000000000000000000008152600401610c7690614849565b60405180910390fd5b8073ffffffffffffffffffffffffffffffffffffffff16610c9e612224565b73ffffffffffffffffffffffffffffffffffffffff161480610ccd5750610ccc81610cc7612224565b611c30565b5b610d0c576040517f08c379a0000000000000000000000000000000000000000000000000000000008152600401610d03906148db565b60405180910390fd5b610d16838361222c565b505050565b601260009054906101000a900473ffffffffffffffffffffffffffffffffffffffff1681565b6000600880549050905090565b610d5f610d59612224565b826122e5565b610d9e576040517f08c379a0000000000000000000000000000000000000000000000000000000008152600401610d959061496d565b60405180910390fd5b610da98383836123c3565b505050565b6000600c6000838152602001908152602001600020600101549050919050565b6000806000600e60008681526020019081526020016000206040518060400160405290816000820160009054906101000a900473ffffffffffffffffffffffffffffffffffffffff1673ffffffffffffffffffffffffffffffffffffffff1673ffffffffffffffffffffffffffffffffffffffff1681526020016000820160149054906101000a90046bffffffffffffffffffffffff166bffffffffffffffffffffffff166bffffffffffffffffffffffff16815250509050600073ffffffffffffffffffffffffffffffffffffffff16816000015173ffffffffffffffffffffffffffffffffffffffff1603610f6357600d6040518060400160405290816000820160009054906101000a900473ffffffffffffffffffffffffffffffffffffffff1673ffffffffffffffffffffffffffffffffffffffff1673ffffffffffffffffffffffffffffffffffffffff1681526020016000820160149054906101000a90046bffffffffffffffffffffffff166bffffffffffffffffffffffff166bffffffffffffffffffffffff168152505090505b6000610f6d612629565b6bffffffffffffffffffffffff1682602001516bffffffffffffffffffffffff1686610f99919061498d565b610fa39190614a16565b90508160000151819350935050509250929050565b610fc182610dae565b610fca8161200f565b610fd48383612633565b505050565b6000610fe483611702565b8210611025576040517f08c379a000000000000000000000000000000000000000000000000000000000815260040161101c90614ab9565b60405180910390fd5b600660008473ffffffffffffffffffffffffffffffffffffffff1673ffffffffffffffffffffffffffffffffffffffff168152602001908152602001600020600083815260200190815260200160002054905092915050565b611086612224565b73ffffffffffffffffffffffffffffffffffffffff168173ffffffffffffffffffffffffffffffffffffffff16146110f3576040517f08c379a00000000000000000000000000000000000000000000000000000000081526004016110ea90614b4b565b60405180910390fd5b6110fd8282612714565b5050565b6000801b61110e8161200f565b600060118054905011156112d257600080600090505b60016011805490506111369190614b6b565b811015611216578373ffffffffffffffffffffffffffffffffffffffff16601182815481106111685761116761463f565b5b9060005260206000200160009054906101000a900473ffffffffffffffffffffffffffffffffffffffff1673ffffffffffffffffffffffffffffffffffffffff16036111ff578373ffffffffffffffffffffffffffffffffffffffff167f05dd5f48f06cf107e99388a5ae26ff1f6abd57b4fce48e9bb71dd335c35aa2e56040516111f290614beb565b60405180910390a2611216565b60009150808061120e9061469d565b915050611124565b50806112cc576011839080600181540180825580915050600190039060005260206000200160009091909190916101000a81548173ffffffffffffffffffffffffffffffffffffffff021916908373ffffffffffffffffffffffffffffffffffffffff1602179055508273ffffffffffffffffffffffffffffffffffffffff167f8c5a800b232da4f063717d255d358a72560b410212770dd78b66b4e23133f77c6040516112c390614c7d565b60405180910390a25b50611382565b6011829080600181540180825580915050600190039060005260206000200160009091909190916101000a81548173ffffffffffffffffffffffffffffffffffffffff021916908373ffffffffffffffffffffffffffffffffffffffff1602179055508173ffffffffffffffffffffffffffffffffffffffff167f8c5a800b232da4f063717d255d358a72560b410212770dd78b66b4e23133f77c60405161137990614c7d565b60405180910390a25b5050565b7f9894090c012e113e817b2d99a7f6ad3e666491f10820f12b8bc4b139f2ea06bb81565b7f9894090c012e113e817b2d99a7f6ad3e666491f10820f12b8bc4b139f2ea06bb6113d48161200f565b6113dc6127f6565b50565b6113fa83838360405180602001604052806000815250611a57565b505050565b61141061140a612224565b826122e5565b61144f576040517f08c379a000000000000000000000000000000000000000000000000000000000815260040161144690614d0f565b60405180910390fd5b61145881612898565b50565b600061146682610a58565b905061147181611acb565b5050565b606060118054806020026020016040519081016040528092919081815260200182805480156114f957602002820191906000526020600020905b8160009054906101000a900473ffffffffffffffffffffffffffffffffffffffff1673ffffffffffffffffffffffffffffffffffffffff16815260200190600101908083116114af575b5050505050905090565b600061150d610d41565b821061154e576040517f08c379a000000000000000000000000000000000000000000000000000000000815260040161154590614da1565b60405180910390fd5b600882815481106115625761156161463f565b5b90600052602060002001549050919050565b6000801b6115818161200f565b6115ab7f9894090c012e113e817b2d99a7f6ad3e666491f10820f12b8bc4b139f2ea06bb83612633565b8173ffffffffffffffffffffffffffffffffffffffff163373ffffffffffffffffffffffffffffffffffffffff167ff25ae518afe49b3c8f1a0f93c0adc26c177ff270839cfdc2f23250dea3a025bc60405160405180910390a35050565b6000611615600f6128a4565b9050611621600f6128b2565b61162b83826128c8565b61163581836128e6565b505050565b6000600b60009054906101000a900460ff16905090565b6000806002600084815260200190815260200160002060009054906101000a900473ffffffffffffffffffffffffffffffffffffffff169050600073ffffffffffffffffffffffffffffffffffffffff168173ffffffffffffffffffffffffffffffffffffffff16036116f9576040517f08c379a00000000000000000000000000000000000000000000000000000000081526004016116f090614e33565b60405180910390fd5b80915050919050565b60008073ffffffffffffffffffffffffffffffffffffffff168273ffffffffffffffffffffffffffffffffffffffff1603611772576040517f08c379a000000000000000000000000000000000000000000000000000000000815260040161176990614ec5565b60405180910390fd5b600360008373ffffffffffffffffffffffffffffffffffffffff1673ffffffffffffffffffffffffffffffffffffffff168152602001908152602001600020549050919050565b6000801b6117c68161200f565b6117d36000801b83612633565b5050565b7f9894090c012e113e817b2d99a7f6ad3e666491f10820f12b8bc4b139f2ea06bb6118018161200f565b611809612953565b50565b6000600c600084815260200190815260200160002060000160008373ffffffffffffffffffffffffffffffffffffffff1673ffffffffffffffffffffffffffffffffffffffff16815260200190815260200160002060009054906101000a900460ff16905092915050565b60606001805461188690614714565b80601f01602080910402602001604051908101604052809291908181526020018280546118b290614714565b80156118ff5780601f106118d4576101008083540402835291602001916118ff565b820191906000526020600020905b8154815290600101906020018083116118e257829003601f168201915b5050505050905090565b6011818154811061191957600080fd5b906000526020600020016000915054906101000a900473ffffffffffffffffffffffffffffffffffffffff1681565b6000801b81565b61196161195a612224565b83836129f6565b5050565b61196e81612898565b50565b7f9894090c012e113e817b2d99a7f6ad3e666491f10820f12b8bc4b139f2ea06bb61199b8161200f565b60005b601180549050811015611a06576119f3601182815481106119c2576119c161463f565b5b9060005260206000200160009054906101000a900473ffffffffffffffffffffffffffffffffffffffff1684612b62565b80806119fe9061469d565b91505061199e565b503373ffffffffffffffffffffffffffffffffffffffff167f4553e13ff316f97f423d1ae7592854a3db7cbe812630d7fe99993903df0e028e604051611a4b90614f57565b60405180910390a25050565b611a68611a62612224565b836122e5565b611aa7576040517f08c379a0000000000000000000000000000000000000000000000000000000008152600401611a9e9061496d565b60405180910390fd5b611ab384848484612b93565b50505050565b6060611ac482612bef565b9050919050565b5b6001601180549050611ade9190614b6b565b811015611b9f576011600182611af49190614f77565b81548110611b0557611b0461463f565b5b9060005260206000200160009054906101000a900473ffffffffffffffffffffffffffffffffffffffff1660118281548110611b4457611b4361463f565b5b9060005260206000200160006101000a81548173ffffffffffffffffffffffffffffffffffffffff021916908373ffffffffffffffffffffffffffffffffffffffff1602179055508080611b979061469d565b915050611acc565b6011805480611bb157611bb0614fcd565b5b6001900381819060005260206000200160006101000a81549073ffffffffffffffffffffffffffffffffffffffff0219169055905550565b601360009054906101000a900473ffffffffffffffffffffffffffffffffffffffff1681565b611c1882610dae565b611c218161200f565b611c2b8383612714565b505050565b6000600560008473ffffffffffffffffffffffffffffffffffffffff1673ffffffffffffffffffffffffffffffffffffffff16815260200190815260200160002060008373ffffffffffffffffffffffffffffffffffffffff1673ffffffffffffffffffffffffffffffffffffffff16815260200190815260200160002060009054906101000a900460ff16905092915050565b6000801b611cd18161200f565b611cfb7f9894090c012e113e817b2d99a7f6ad3e666491f10820f12b8bc4b139f2ea06bb83612714565b8173ffffffffffffffffffffffffffffffffffffffff163373ffffffffffffffffffffffffffffffffffffffff167feca259f65afeb664520e27bcf53a29a7a276df0172960fd342f01ff705ba3b9560405160405180910390a35050565b606060006002836002611d6c919061498d565b611d769190614f77565b67ffffffffffffffff811115611d8f57611d8e61429f565b5b6040519080825280601f01601f191660200182016040528015611dc15781602001600182028036833780820191505090505b5090507f300000000000000000000000000000000000000000000000000000000000000081600081518110611df957611df861463f565b5b60200101907effffffffffffffffffffffffffffffffffffffffffffffffffffffffffffff1916908160001a9053507f780000000000000000000000000000000000000000000000000000000000000081600181518110611e5d57611e5c61463f565b5b60200101907effffffffffffffffffffffffffffffffffffffffffffffffffffffffffffff1916908160001a90535060006001846002611e9d919061498d565b611ea79190614f77565b90505b6001811115611f47577f3031323334353637383961626364656600000000000000000000000000000000600f861660108110611ee957611ee861463f565b5b1a60f81b828281518110611f0057611eff61463f565b5b60200101907effffffffffffffffffffffffffffffffffffffffffffffffffffffffffffff1916908160001a905350600485901c945080611f4090614ffc565b9050611eaa565b5060008414611f8b576040517f08c379a0000000000000000000000000000000000000000000000000000000008152600401611f8290615071565b60405180910390fd5b8091505092915050565b60007f2a55205a000000000000000000000000000000000000000000000000000000007bffffffffffffffffffffffffffffffffffffffffffffffffffffffff1916827bffffffffffffffffffffffffffffffffffffffffffffffffffffffff19161480612008575061200782612d40565b5b9050919050565b6120208161201b612224565b612dba565b50565b61202b612629565b6bffffffffffffffffffffffff16816bffffffffffffffffffffffff161115612089576040517f08c379a000000000000000000000000000000000000000000000000000000000815260040161208090615103565b60405180910390fd5b600073ffffffffffffffffffffffffffffffffffffffff168273ffffffffffffffffffffffffffffffffffffffff16036120f8576040517f08c379a00000000000000000000000000000000000000000000000000000000081526004016120ef9061516f565b60405180910390fd5b60405180604001604052808373ffffffffffffffffffffffffffffffffffffffff168152602001826bffffffffffffffffffffffff16815250600d60008201518160000160006101000a81548173ffffffffffffffffffffffffffffffffffffffff021916908373ffffffffffffffffffffffffffffffffffffffff16021790555060208201518160000160146101000a8154816bffffffffffffffffffffffff02191690836bffffffffffffffffffffffff1602179055509050505050565b60008073ffffffffffffffffffffffffffffffffffffffff166002600084815260200190815260200160002060009054906101000a900473ffffffffffffffffffffffffffffffffffffffff1673ffffffffffffffffffffffffffffffffffffffff1614159050919050565b600033905090565b816004600083815260200190815260200160002060006101000a81548173ffffffffffffffffffffffffffffffffffffffff021916908373ffffffffffffffffffffffffffffffffffffffff160217905550808273ffffffffffffffffffffffffffffffffffffffff1661229f83611651565b73ffffffffffffffffffffffffffffffffffffffff167f8c5be1e5ebec7d5bd14f71427d1e84f3dd0314c0f7b2291e5b200ac8c7c3b92560405160405180910390a45050565b60006122f0826121b8565b61232f576040517f08c379a000000000000000000000000000000000000000000000000000000000815260040161232690615201565b60405180910390fd5b600061233a83611651565b90508073ffffffffffffffffffffffffffffffffffffffff168473ffffffffffffffffffffffffffffffffffffffff16148061237c575061237b8185611c30565b5b806123ba57508373ffffffffffffffffffffffffffffffffffffffff166123a284610b7f565b73ffffffffffffffffffffffffffffffffffffffff16145b91505092915050565b8273ffffffffffffffffffffffffffffffffffffffff166123e382611651565b73ffffffffffffffffffffffffffffffffffffffff1614612439576040517f08c379a000000000000000000000000000000000000000000000000000000000815260040161243090615293565b60405180910390fd5b600073ffffffffffffffffffffffffffffffffffffffff168273ffffffffffffffffffffffffffffffffffffffff16036124a8576040517f08c379a000000000000000000000000000000000000000000000000000000000815260040161249f90615325565b60405180910390fd5b6124b3838383612e57565b6124be60008261222c565b6001600360008573ffffffffffffffffffffffffffffffffffffffff1673ffffffffffffffffffffffffffffffffffffffff168152602001908152602001600020600082825461250e9190614b6b565b925050819055506001600360008473ffffffffffffffffffffffffffffffffffffffff1673ffffffffffffffffffffffffffffffffffffffff16815260200190815260200160002060008282546125659190614f77565b92505081905550816002600083815260200190815260200160002060006101000a81548173ffffffffffffffffffffffffffffffffffffffff021916908373ffffffffffffffffffffffffffffffffffffffff160217905550808273ffffffffffffffffffffffffffffffffffffffff168473ffffffffffffffffffffffffffffffffffffffff167fddf252ad1be2c89b69c2b068fc378daa952ba7f163c4a11628f55a4df523b3ef60405160405180910390a4612624838383612eaf565b505050565b6000612710905090565b61263d828261180c565b612710576001600c600084815260200190815260200160002060000160008373ffffffffffffffffffffffffffffffffffffffff1673ffffffffffffffffffffffffffffffffffffffff16815260200190815260200160002060006101000a81548160ff0219169083151502179055506126b5612224565b73ffffffffffffffffffffffffffffffffffffffff168173ffffffffffffffffffffffffffffffffffffffff16837f2f8788117e7eff1d82e926ec794901d17c78024a50270940304540a733656f0d60405160405180910390a45b5050565b61271e828261180c565b156127f2576000600c600084815260200190815260200160002060000160008373ffffffffffffffffffffffffffffffffffffffff1673ffffffffffffffffffffffffffffffffffffffff16815260200190815260200160002060006101000a81548160ff021916908315150217905550612797612224565b73ffffffffffffffffffffffffffffffffffffffff168173ffffffffffffffffffffffffffffffffffffffff16837ff6391f5c32d9c69d2a47ea670b442974b53935d1edc7fd64eb21e047a839171b60405160405180910390a45b5050565b6127fe61163a565b61283d576040517f08c379a000000000000000000000000000000000000000000000000000000000815260040161283490615391565b60405180910390fd5b6000600b60006101000a81548160ff0219169083151502179055507f5db9ee0a495bf2e6ff9c91a7834c1ba4fdd244a5e8aa4e537bd38aeae4b073aa612881612224565b60405161288e9190613f95565b60405180910390a1565b6128a181612eb4565b50565b600081600001549050919050565b6001816000016000828254019250508190555050565b6128e2828260405180602001604052806000815250612f07565b5050565b6128ef826121b8565b61292e576040517f08c379a000000000000000000000000000000000000000000000000000000000815260040161292590615423565b60405180910390fd5b80600a6000848152602001908152602001600020908161294e91906155ef565b505050565b61295b61163a565b1561299b576040517f08c379a00000000000000000000000000000000000000000000000000000000081526004016129929061570d565b60405180910390fd5b6001600b60006101000a81548160ff0219169083151502179055507f62e78cea01bee320cd4e420270b5ea74000d11b0c9f74754ebdbfc544b05a2586129df612224565b6040516129ec9190613f95565b60405180910390a1565b8173ffffffffffffffffffffffffffffffffffffffff168373ffffffffffffffffffffffffffffffffffffffff1603612a64576040517f08c379a0000000000000000000000000000000000000000000000000000000008152600401612a5b90615779565b60405180910390fd5b80600560008573ffffffffffffffffffffffffffffffffffffffff1673ffffffffffffffffffffffffffffffffffffffff16815260200190815260200160002060008473ffffffffffffffffffffffffffffffffffffffff1673ffffffffffffffffffffffffffffffffffffffff16815260200190815260200160002060006101000a81548160ff0219169083151502179055508173ffffffffffffffffffffffffffffffffffffffff168373ffffffffffffffffffffffffffffffffffffffff167f17307eab39ab6107e8899845ad3d59bd9653f200f220920489ca2b5937696c3183604051612b559190613d14565b60405180910390a3505050565b6000612b6e600f6128a4565b9050612b7a600f6128b2565b612b8483826128c8565b612b8e81836128e6565b505050565b612b9e8484846123c3565b612baa84848484612f62565b612be9576040517f08c379a0000000000000000000000000000000000000000000000000000000008152600401612be09061580b565b60405180910390fd5b50505050565b6060612bfa826121b8565b612c39576040517f08c379a0000000000000000000000000000000000000000000000000000000008152600401612c309061589d565b60405180910390fd5b6000600a60008481526020019081526020016000208054612c5990614714565b80601f0160208091040260200160405190810160405280929190818152602001828054612c8590614714565b8015612cd25780601f10612ca757610100808354040283529160200191612cd2565b820191906000526020600020905b815481529060010190602001808311612cb557829003601f168201915b505050505090506000612ce36130e9565b90506000815103612cf8578192505050612d3b565b600082511115612d2d578082604051602001612d159291906158f9565b60405160208183030381529060405292505050612d3b565b612d3684613100565b925050505b919050565b60007f7965db0b000000000000000000000000000000000000000000000000000000007bffffffffffffffffffffffffffffffffffffffffffffffffffffffff1916827bffffffffffffffffffffffffffffffffffffffffffffffffffffffff19161480612db35750612db2826131a7565b5b9050919050565b612dc4828261180c565b612e5357612de98173ffffffffffffffffffffffffffffffffffffffff166014611d59565b612df78360001c6020611d59565b604051602001612e089291906159b5565b6040516020818303038152906040526040517f08c379a0000000000000000000000000000000000000000000000000000000008152600401612e4a9190613f0b565b60405180910390fd5b5050565b612e5f61163a565b15612e9f576040517f08c379a0000000000000000000000000000000000000000000000000000000008152600401612e969061570d565b60405180910390fd5b612eaa838383613221565b505050565b505050565b612ebd81613333565b6000600a60008381526020019081526020016000208054612edd90614714565b905014612f0457600a60008281526020019081526020016000206000612f039190613c03565b5b50565b612f118383613450565b612f1e6000848484612f62565b612f5d576040517f08c379a0000000000000000000000000000000000000000000000000000000008152600401612f549061580b565b60405180910390fd5b505050565b6000612f838473ffffffffffffffffffffffffffffffffffffffff16613629565b156130dc578373ffffffffffffffffffffffffffffffffffffffff1663150b7a02612fac612224565b8786866040518563ffffffff1660e01b8152600401612fce9493929190615a44565b6020604051808303816000875af192505050801561300a57506040513d601f19601f820116820180604052508101906130079190615aa5565b60015b61308c573d806000811461303a576040519150601f19603f3d011682016040523d82523d6000602084013e61303f565b606091505b506000815103613084576040517f08c379a000000000000000000000000000000000000000000000000000000000815260040161307b9061580b565b60405180910390fd5b805181602001fd5b63150b7a0260e01b7bffffffffffffffffffffffffffffffffffffffffffffffffffffffff1916817bffffffffffffffffffffffffffffffffffffffffffffffffffffffff1916149150506130e1565b600190505b949350505050565b606060405180602001604052806000815250905090565b606061310b826121b8565b61314a576040517f08c379a000000000000000000000000000000000000000000000000000000000815260040161314190615b44565b60405180910390fd5b60006131546130e9565b90506000815111613174576040518060200160405280600081525061319f565b8061317e8461364c565b60405160200161318f9291906158f9565b6040516020818303038152906040525b915050919050565b60007f780e9d63000000000000000000000000000000000000000000000000000000007bffffffffffffffffffffffffffffffffffffffffffffffffffffffff1916827bffffffffffffffffffffffffffffffffffffffffffffffffffffffff1916148061321a5750613219826137ac565b5b9050919050565b61322c83838361388e565b600073ffffffffffffffffffffffffffffffffffffffff168373ffffffffffffffffffffffffffffffffffffffff160361326e5761326981613893565b6132ad565b8173ffffffffffffffffffffffffffffffffffffffff168373ffffffffffffffffffffffffffffffffffffffff16146132ac576132ab83826138dc565b5b5b600073ffffffffffffffffffffffffffffffffffffffff168273ffffffffffffffffffffffffffffffffffffffff16036132ef576132ea81613a49565b61332e565b8273ffffffffffffffffffffffffffffffffffffffff168273ffffffffffffffffffffffffffffffffffffffff161461332d5761332c8282613b1a565b5b5b505050565b600061333e82611651565b905061334c81600084612e57565b61335760008361222c565b6001600360008373ffffffffffffffffffffffffffffffffffffffff1673ffffffffffffffffffffffffffffffffffffffff16815260200190815260200160002060008282546133a79190614b6b565b925050819055506002600083815260200190815260200160002060006101000a81549073ffffffffffffffffffffffffffffffffffffffff021916905581600073ffffffffffffffffffffffffffffffffffffffff168273ffffffffffffffffffffffffffffffffffffffff167fddf252ad1be2c89b69c2b068fc378daa952ba7f163c4a11628f55a4df523b3ef60405160405180910390a461344c81600084612eaf565b5050565b600073ffffffffffffffffffffffffffffffffffffffff168273ffffffffffffffffffffffffffffffffffffffff16036134bf576040517f08c379a00000000000000000000000000000000000000000000000000000000081526004016134b690615bb0565b60405180910390fd5b6134c8816121b8565b15613508576040517f08c379a00000000000000000000000000000000000000000000000000000000081526004016134ff90615c1c565b60405180910390fd5b61351460008383612e57565b6001600360008473ffffffffffffffffffffffffffffffffffffffff1673ffffffffffffffffffffffffffffffffffffffff16815260200190815260200160002060008282546135649190614f77565b92505081905550816002600083815260200190815260200160002060006101000a81548173ffffffffffffffffffffffffffffffffffffffff021916908373ffffffffffffffffffffffffffffffffffffffff160217905550808273ffffffffffffffffffffffffffffffffffffffff16600073ffffffffffffffffffffffffffffffffffffffff167fddf252ad1be2c89b69c2b068fc378daa952ba7f163c4a11628f55a4df523b3ef60405160405180910390a461362560008383612eaf565b5050565b6000808273ffffffffffffffffffffffffffffffffffffffff163b119050919050565b606060008203613693576040518060400160405280600181526020017f300000000000000000000000000000000000000000000000000000000000000081525090506137a7565b600082905060005b600082146136c55780806136ae9061469d565b915050600a826136be9190614a16565b915061369b565b60008167ffffffffffffffff8111156136e1576136e061429f565b5b6040519080825280601f01601f1916602001820160405280156137135781602001600182028036833780820191505090505b5090505b600085146137a05760018261372c9190614b6b565b9150600a8561373b9190615c3c565b60306137479190614f77565b60f81b81838151811061375d5761375c61463f565b5b60200101907effffffffffffffffffffffffffffffffffffffffffffffffffffffffffffff1916908160001a905350600a856137999190614a16565b9450613717565b8093505050505b919050565b60007f80ac58cd000000000000000000000000000000000000000000000000000000007bffffffffffffffffffffffffffffffffffffffffffffffffffffffff1916827bffffffffffffffffffffffffffffffffffffffffffffffffffffffff1916148061387757507f5b5e139f000000000000000000000000000000000000000000000000000000007bffffffffffffffffffffffffffffffffffffffffffffffffffffffff1916827bffffffffffffffffffffffffffffffffffffffffffffffffffffffff1916145b80613887575061388682613b99565b5b9050919050565b505050565b6008805490506009600083815260200190815260200160002081905550600881908060018154018082558091505060019003906000526020600020016000909190919091505550565b600060016138e984611702565b6138f39190614b6b565b90506000600760008481526020019081526020016000205490508181146139d8576000600660008673ffffffffffffffffffffffffffffffffffffffff1673ffffffffffffffffffffffffffffffffffffffff168152602001908152602001600020600084815260200190815260200160002054905080600660008773ffffffffffffffffffffffffffffffffffffffff1673ffffffffffffffffffffffffffffffffffffffff168152602001908152602001600020600084815260200190815260200160002081905550816007600083815260200190815260200160002081905550505b6007600084815260200190815260200160002060009055600660008573ffffffffffffffffffffffffffffffffffffffff1673ffffffffffffffffffffffffffffffffffffffff16815260200190815260200160002060008381526020019081526020016000206000905550505050565b60006001600880549050613a5d9190614b6b565b9050600060096000848152602001908152602001600020549050600060088381548110613a8d57613a8c61463f565b5b906000526020600020015490508060088381548110613aaf57613aae61463f565b5b906000526020600020018190555081600960008381526020019081526020016000208190555060096000858152602001908152602001600020600090556008805480613afe57613afd614fcd565b5b6001900381819060005260206000200160009055905550505050565b6000613b2583611702565b905081600660008573ffffffffffffffffffffffffffffffffffffffff1673ffffffffffffffffffffffffffffffffffffffff168152602001908152602001600020600083815260200190815260200160002081905550806007600084815260200190815260200160002081905550505050565b60007f01ffc9a7000000000000000000000000000000000000000000000000000000007bffffffffffffffffffffffffffffffffffffffffffffffffffffffff1916827bffffffffffffffffffffffffffffffffffffffffffffffffffffffff1916149050919050565b508054613c0f90614714565b6000825580601f10613c215750613c40565b601f016020900490600052602060002090810190613c3f9190613c43565b5b50565b5b80821115613c5c576000816000905550600101613c44565b5090565b6000604051905090565b600080fd5b600080fd5b60007fffffffff0000000000000000000000000000000000000000000000000000000082169050919050565b613ca981613c74565b8114613cb457600080fd5b50565b600081359050613cc681613ca0565b92915050565b600060208284031215613ce257613ce1613c6a565b5b6000613cf084828501613cb7565b91505092915050565b60008115159050919050565b613d0e81613cf9565b82525050565b6000602082019050613d296000830184613d05565b92915050565b600073ffffffffffffffffffffffffffffffffffffffff82169050919050565b6000613d5a82613d2f565b9050919050565b613d6a81613d4f565b8114613d7557600080fd5b50565b600081359050613d8781613d61565b92915050565b60006bffffffffffffffffffffffff82169050919050565b613dae81613d8d565b8114613db957600080fd5b50565b600081359050613dcb81613da5565b92915050565b60008060408385031215613de857613de7613c6a565b5b6000613df685828601613d78565b9250506020613e0785828601613dbc565b9150509250929050565b600060208284031215613e2757613e26613c6a565b5b6000613e3584828501613d78565b91505092915050565b6000819050919050565b613e5181613e3e565b82525050565b6000602082019050613e6c6000830184613e48565b92915050565b600081519050919050565b600082825260208201905092915050565b60005b83811015613eac578082015181840152602081019050613e91565b83811115613ebb576000848401525b50505050565b6000601f19601f8301169050919050565b6000613edd82613e72565b613ee78185613e7d565b9350613ef7818560208601613e8e565b613f0081613ec1565b840191505092915050565b60006020820190508181036000830152613f258184613ed2565b905092915050565b613f3681613e3e565b8114613f4157600080fd5b50565b600081359050613f5381613f2d565b92915050565b600060208284031215613f6f57613f6e613c6a565b5b6000613f7d84828501613f44565b91505092915050565b613f8f81613d4f565b82525050565b6000602082019050613faa6000830184613f86565b92915050565b60008060408385031215613fc757613fc6613c6a565b5b6000613fd585828601613d78565b9250506020613fe685828601613f44565b9150509250929050565b6000613ffb82613d2f565b9050919050565b61400b81613ff0565b82525050565b60006020820190506140266000830184614002565b92915050565b60008060006060848603121561404557614044613c6a565b5b600061405386828701613d78565b935050602061406486828701613d78565b925050604061407586828701613f44565b9150509250925092565b6000819050919050565b6140928161407f565b811461409d57600080fd5b50565b6000813590506140af81614089565b92915050565b6000602082840312156140cb576140ca613c6a565b5b60006140d9848285016140a0565b91505092915050565b6140eb8161407f565b82525050565b600060208201905061410660008301846140e2565b92915050565b6000806040838503121561412357614122613c6a565b5b600061413185828601613f44565b925050602061414285828601613f44565b9150509250929050565b60006040820190506141616000830185613f86565b61416e6020830184613e48565b9392505050565b6000806040838503121561418c5761418b613c6a565b5b600061419a858286016140a0565b92505060206141ab85828601613d78565b9150509250929050565b600081519050919050565b600082825260208201905092915050565b6000819050602082019050919050565b6141ea81613d4f565b82525050565b60006141fc83836141e1565b60208301905092915050565b6000602082019050919050565b6000614220826141b5565b61422a81856141c0565b9350614235836141d1565b8060005b8381101561426657815161424d88826141f0565b975061425883614208565b925050600181019050614239565b5085935050505092915050565b6000602082019050818103600083015261428d8184614215565b905092915050565b600080fd5b600080fd5b7f4e487b7100000000000000000000000000000000000000000000000000000000600052604160045260246000fd5b6142d782613ec1565b810181811067ffffffffffffffff821117156142f6576142f561429f565b5b80604052505050565b6000614309613c60565b905061431582826142ce565b919050565b600067ffffffffffffffff8211156143355761433461429f565b5b61433e82613ec1565b9050602081019050919050565b82818337600083830152505050565b600061436d6143688461431a565b6142ff565b9050828152602081018484840111156143895761438861429a565b5b61439484828561434b565b509392505050565b600082601f8301126143b1576143b0614295565b5b81356143c184826020860161435a565b91505092915050565b600080604083850312156143e1576143e0613c6a565b5b60006143ef85828601613d78565b925050602083013567ffffffffffffffff8111156144105761440f613c6f565b5b61441c8582860161439c565b9150509250929050565b61442f81613cf9565b811461443a57600080fd5b50565b60008135905061444c81614426565b92915050565b6000806040838503121561446957614468613c6a565b5b600061447785828601613d78565b92505060206144888582860161443d565b9150509250929050565b6000602082840312156144a8576144a7613c6a565b5b600082013567ffffffffffffffff8111156144c6576144c5613c6f565b5b6144d28482850161439c565b91505092915050565b600067ffffffffffffffff8211156144f6576144f561429f565b5b6144ff82613ec1565b9050602081019050919050565b600061451f61451a846144db565b6142ff565b90508281526020810184848401111561453b5761453a61429a565b5b61454684828561434b565b509392505050565b600082601f83011261456357614562614295565b5b813561457384826020860161450c565b91505092915050565b6000806000806080858703121561459657614595613c6a565b5b60006145a487828801613d78565b94505060206145b587828801613d78565b93505060406145c687828801613f44565b925050606085013567ffffffffffffffff8111156145e7576145e6613c6f565b5b6145f38782880161454e565b91505092959194509250565b6000806040838503121561461657614615613c6a565b5b600061462485828601613d78565b925050602061463585828601613d78565b9150509250929050565b7f4e487b7100000000000000000000000000000000000000000000000000000000600052603260045260246000fd5b7f4e487b7100000000000000000000000000000000000000000000000000000000600052601160045260246000fd5b60006146a882613e3e565b91507fffffffffffffffffffffffffffffffffffffffffffffffffffffffffffffffff82036146da576146d961466e565b5b600182019050919050565b7f4e487b7100000000000000000000000000000000000000000000000000000000600052602260045260246000fd5b6000600282049050600182168061472c57607f821691505b60208210810361473f5761473e6146e5565b5b50919050565b7f4552433732313a20617070726f76656420717565727920666f72206e6f6e657860008201527f697374656e7420746f6b656e0000000000000000000000000000000000000000602082015250565b60006147a1602c83613e7d565b91506147ac82614745565b604082019050919050565b600060208201905081810360008301526147d081614794565b9050919050565b7f4552433732313a20617070726f76616c20746f2063757272656e74206f776e6560008201527f7200000000000000000000000000000000000000000000000000000000000000602082015250565b6000614833602183613e7d565b915061483e826147d7565b604082019050919050565b6000602082019050818103600083015261486281614826565b9050919050565b7f4552433732313a20617070726f76652063616c6c6572206973206e6f74206f7760008201527f6e6572206e6f7220617070726f76656420666f7220616c6c0000000000000000602082015250565b60006148c5603883613e7d565b91506148d082614869565b604082019050919050565b600060208201905081810360008301526148f4816148b8565b9050919050565b7f4552433732313a207472616e736665722063616c6c6572206973206e6f74206f60008201527f776e6572206e6f7220617070726f766564000000000000000000000000000000602082015250565b6000614957603183613e7d565b9150614962826148fb565b604082019050919050565b600060208201905081810360008301526149868161494a565b9050919050565b600061499882613e3e565b91506149a383613e3e565b9250817fffffffffffffffffffffffffffffffffffffffffffffffffffffffffffffffff04831182151516156149dc576149db61466e565b5b828202905092915050565b7f4e487b7100000000000000000000000000000000000000000000000000000000600052601260045260246000fd5b6000614a2182613e3e565b9150614a2c83613e3e565b925082614a3c57614a3b6149e7565b5b828204905092915050565b7f455243373231456e756d657261626c653a206f776e657220696e646578206f7560008201527f74206f6620626f756e6473000000000000000000000000000000000000000000602082015250565b6000614aa3602b83613e7d565b9150614aae82614a47565b604082019050919050565b60006020820190508181036000830152614ad281614a96565b9050919050565b7f416363657373436f6e74726f6c3a2063616e206f6e6c792072656e6f756e636560008201527f20726f6c657320666f722073656c660000000000000000000000000000000000602082015250565b6000614b35602f83613e7d565b9150614b4082614ad9565b604082019050919050565b60006020820190508181036000830152614b6481614b28565b9050919050565b6000614b7682613e3e565b9150614b8183613e3e565b925082821015614b9457614b9361466e565b5b828203905092915050565b7f4163636f756e742f6164647265737320726567697374657265642e0000000000600082015250565b6000614bd5601b83613e7d565b9150614be082614b9f565b602082019050919050565b60006020820190508181036000830152614c0481614bc8565b9050919050565b7f546865206163636f756e742f6164647265737320686173206265656e2073756360008201527f6365737366756c6c7920726567697374657265642e0000000000000000000000602082015250565b6000614c67603583613e7d565b9150614c7282614c0b565b604082019050919050565b60006020820190508181036000830152614c9681614c5a565b9050919050565b7f4552433732314275726e61626c653a2063616c6c6572206973206e6f74206f7760008201527f6e6572206e6f7220617070726f76656400000000000000000000000000000000602082015250565b6000614cf9603083613e7d565b9150614d0482614c9d565b604082019050919050565b60006020820190508181036000830152614d2881614cec565b9050919050565b7f455243373231456e756d657261626c653a20676c6f62616c20696e646578206f60008201527f7574206f6620626f756e64730000000000000000000000000000000000000000602082015250565b6000614d8b602c83613e7d565b9150614d9682614d2f565b604082019050919050565b60006020820190508181036000830152614dba81614d7e565b9050919050565b7f4552433732313a206f776e657220717565727920666f72206e6f6e657869737460008201527f656e7420746f6b656e0000000000000000000000000000000000000000000000602082015250565b6000614e1d602983613e7d565b9150614e2882614dc1565b604082019050919050565b60006020820190508181036000830152614e4c81614e10565b9050919050565b7f4552433732313a2062616c616e636520717565727920666f7220746865207a6560008201527f726f206164647265737300000000000000000000000000000000000000000000602082015250565b6000614eaf602a83613e7d565b9150614eba82614e53565b604082019050919050565b60006020820190508181036000830152614ede81614ea2565b9050919050565b7f546865206d696e74696e6720686173206265656e20646f6e6520636f7272656360008201527f746c792e00000000000000000000000000000000000000000000000000000000602082015250565b6000614f41602483613e7d565b9150614f4c82614ee5565b604082019050919050565b60006020820190508181036000830152614f7081614f34565b9050919050565b6000614f8282613e3e565b9150614f8d83613e3e565b9250827fffffffffffffffffffffffffffffffffffffffffffffffffffffffffffffffff03821115614fc257614fc161466e565b5b828201905092915050565b7f4e487b7100000000000000000000000000000000000000000000000000000000600052603160045260246000fd5b600061500782613e3e565b91506000820361501a5761501961466e565b5b600182039050919050565b7f537472696e67733a20686578206c656e67746820696e73756666696369656e74600082015250565b600061505b602083613e7d565b915061506682615025565b602082019050919050565b6000602082019050818103600083015261508a8161504e565b9050919050565b7f455243323938313a20726f79616c7479206665652077696c6c2065786365656460008201527f2073616c65507269636500000000000000000000000000000000000000000000602082015250565b60006150ed602a83613e7d565b91506150f882615091565b604082019050919050565b6000602082019050818103600083015261511c816150e0565b9050919050565b7f455243323938313a20696e76616c696420726563656976657200000000000000600082015250565b6000615159601983613e7d565b915061516482615123565b602082019050919050565b600060208201905081810360008301526151888161514c565b9050919050565b7f4552433732313a206f70657261746f7220717565727920666f72206e6f6e657860008201527f697374656e7420746f6b656e0000000000000000000000000000000000000000602082015250565b60006151eb602c83613e7d565b91506151f68261518f565b604082019050919050565b6000602082019050818103600083015261521a816151de565b9050919050565b7f4552433732313a207472616e736665722066726f6d20696e636f72726563742060008201527f6f776e6572000000000000000000000000000000000000000000000000000000602082015250565b600061527d602583613e7d565b915061528882615221565b604082019050919050565b600060208201905081810360008301526152ac81615270565b9050919050565b7f4552433732313a207472616e7366657220746f20746865207a65726f2061646460008201527f7265737300000000000000000000000000000000000000000000000000000000602082015250565b600061530f602483613e7d565b915061531a826152b3565b604082019050919050565b6000602082019050818103600083015261533e81615302565b9050919050565b7f5061757361626c653a206e6f7420706175736564000000000000000000000000600082015250565b600061537b601483613e7d565b915061538682615345565b602082019050919050565b600060208201905081810360008301526153aa8161536e565b9050919050565b7f45524337323155524953746f726167653a2055524920736574206f66206e6f6e60008201527f6578697374656e7420746f6b656e000000000000000000000000000000000000602082015250565b600061540d602e83613e7d565b9150615418826153b1565b604082019050919050565b6000602082019050818103600083015261543c81615400565b9050919050565b60008190508160005260206000209050919050565b60006020601f8301049050919050565b600082821b905092915050565b6000600883026154a57fffffffffffffffffffffffffffffffffffffffffffffffffffffffffffffffff82615468565b6154af8683615468565b95508019841693508086168417925050509392505050565b6000819050919050565b60006154ec6154e76154e284613e3e565b6154c7565b613e3e565b9050919050565b6000819050919050565b615506836154d1565b61551a615512826154f3565b848454615475565b825550505050565b600090565b61552f615522565b61553a8184846154fd565b505050565b5b8181101561555e57615553600082615527565b600181019050615540565b5050565b601f8211156155a35761557481615443565b61557d84615458565b8101602085101561558c578190505b6155a061559885615458565b83018261553f565b50505b505050565b600082821c905092915050565b60006155c6600019846008026155a8565b1980831691505092915050565b60006155df83836155b5565b9150826002028217905092915050565b6155f882613e72565b67ffffffffffffffff8111156156115761561061429f565b5b61561b8254614714565b615626828285615562565b600060209050601f8311600181146156595760008415615647578287015190505b61565185826155d3565b8655506156b9565b601f19841661566786615443565b60005b8281101561568f5784890151825560018201915060208501945060208101905061566a565b868310156156ac57848901516156a8601f8916826155b5565b8355505b6001600288020188555050505b505050505050565b7f5061757361626c653a2070617573656400000000000000000000000000000000600082015250565b60006156f7601083613e7d565b9150615702826156c1565b602082019050919050565b60006020820190508181036000830152615726816156ea565b9050919050565b7f4552433732313a20617070726f766520746f2063616c6c657200000000000000600082015250565b6000615763601983613e7d565b915061576e8261572d565b602082019050919050565b6000602082019050818103600083015261579281615756565b9050919050565b7f4552433732313a207472616e7366657220746f206e6f6e20455243373231526560008201527f63656976657220696d706c656d656e7465720000000000000000000000000000602082015250565b60006157f5603283613e7d565b915061580082615799565b604082019050919050565b60006020820190508181036000830152615824816157e8565b9050919050565b7f45524337323155524953746f726167653a2055524920717565727920666f722060008201527f6e6f6e6578697374656e7420746f6b656e000000000000000000000000000000602082015250565b6000615887603183613e7d565b91506158928261582b565b604082019050919050565b600060208201905081810360008301526158b68161587a565b9050919050565b600081905092915050565b60006158d382613e72565b6158dd81856158bd565b93506158ed818560208601613e8e565b80840191505092915050565b600061590582856158c8565b915061591182846158c8565b91508190509392505050565b7f416363657373436f6e74726f6c3a206163636f756e7420000000000000000000600082015250565b60006159536017836158bd565b915061595e8261591d565b601782019050919050565b7f206973206d697373696e6720726f6c6520000000000000000000000000000000600082015250565b600061599f6011836158bd565b91506159aa82615969565b601182019050919050565b60006159c082615946565b91506159cc82856158c8565b91506159d782615992565b91506159e382846158c8565b91508190509392505050565b600081519050919050565b600082825260208201905092915050565b6000615a16826159ef565b615a2081856159fa565b9350615a30818560208601613e8e565b615a3981613ec1565b840191505092915050565b6000608082019050615a596000830187613f86565b615a666020830186613f86565b615a736040830185613e48565b8181036060830152615a858184615a0b565b905095945050505050565b600081519050615a9f81613ca0565b92915050565b600060208284031215615abb57615aba613c6a565b5b6000615ac984828501615a90565b91505092915050565b7f4552433732314d657461646174613a2055524920717565727920666f72206e6f60008201527f6e6578697374656e7420746f6b656e0000000000000000000000000000000000602082015250565b6000615b2e602f83613e7d565b9150615b3982615ad2565b604082019050919050565b60006020820190508181036000830152615b5d81615b21565b9050919050565b7f4552433732313a206d696e7420746f20746865207a65726f2061646472657373600082015250565b6000615b9a602083613e7d565b9150615ba582615b64565b602082019050919050565b60006020820190508181036000830152615bc981615b8d565b9050919050565b7f4552433732313a20746f6b656e20616c7265616479206d696e74656400000000600082015250565b6000615c06601c83613e7d565b9150615c1182615bd0565b602082019050919050565b60006020820190508181036000830152615c3581615bf9565b9050919050565b6000615c4782613e3e565b9150615c5283613e3e565b925082615c6257615c616149e7565b5b82820690509291505056fea2646970667358221220f2217a69e04008f24ce2f01759ef6f25d76a93effc56dfee07a4c5db96c4475f64736f6c634300080f0033",
  "immutableReferences": {},
  "source": "// SPDX-License-Identifier: MIT\npragma solidity ^0.8.4;\n\nimport \"@openzeppelin/contracts/token/ERC721/ERC721.sol\";\nimport \"@openzeppelin/contracts/token/ERC721/extensions/ERC721Enumerable.sol\";\nimport \"@openzeppelin/contracts/token/ERC721/extensions/ERC721URIStorage.sol\";\nimport \"@openzeppelin/contracts/security/Pausable.sol\";\nimport \"@openzeppelin/contracts/access/AccessControl.sol\";\nimport \"@openzeppelin/contracts/token/ERC721/extensions/ERC721Burnable.sol\";\nimport \"@openzeppelin/contracts/utils/Counters.sol\";\nimport \"@openzeppelin/contracts/token/common/ERC2981.sol\";\n\n\ncontract CryptoTicketsMatchNFTs is \n    ERC721, \n    ERC721Enumerable, \n    ERC721URIStorage, \n    Pausable, \n    AccessControl, \n    ERC721Burnable,\n    ERC2981\n{\n    using Counters for Counters.Counter;\n\n    bytes32 public constant ADMIN_CLUB_ROLE = keccak256(\"ADMIN_CLUB_ROLE\");\n    Counters.Counter private _matchIdCounter;\n\n    string contractURI;\n\n    address[] public listSubscriber;\n\n    address payable public club;\n    address public newOwner;\n\n    uint private basePrice;\n    bool private activeContract;\n\n    uint96 private royaltyFeesInBips = 1000;\n\n    event Status(string _message);\n    event MsgInfoAccountListOk(string _message, address indexed account);\n    event MsgInfoAccountListKo(string _message, address indexed account);\n    event MsgInfoMinted(string _message, address indexed account);\n    event ClubAdminRoleGranted(address indexed sender, address indexed clubAddress);\n    event ClubAdminRoleRevoked(address indexed sender, address indexed clubAddress);\n\n    struct MatchTransactionTicket{\n        address ownerAccount;\n        uint tokenId;\n        string typeTicket;\n        uint price;\n        //Aadir fecha de vencimiento del token\n    }\n\n    constructor() ERC721(\"CryptoTicketsMatchNFTs\", \"CTKMN\"){\n        _grantRole(DEFAULT_ADMIN_ROLE, msg.sender);\n        _grantRole(ADMIN_CLUB_ROLE, msg.sender);\n        //uri=ipfs://bafkreic3xz5cssins4ihcyoo27kcmflwmgqvpbm2stpr3xfxxnsykgkali/season\n        activeContract = true;\n        \n        setRoyaltyInfo(msg.sender, royaltyFeesInBips);\n    }\n\n    function pause() public onlyRole(ADMIN_CLUB_ROLE) {\n        _pause();\n    }\n\n    function unpause() public onlyRole(ADMIN_CLUB_ROLE) {\n        _unpause();\n    }\n\n    function mint(address to, string memory uri) private {\n        uint256 matchId = _matchIdCounter.current();\n        _matchIdCounter.increment();\n        _safeMint(to, matchId);\n        _setTokenURI(matchId, uri);\n    }\n\n    function mintTicket(address to, string memory uri) public payable {\n        uint256 matchId = _matchIdCounter.current();\n        _matchIdCounter.increment();\n        _safeMint(to, matchId);\n        _setTokenURI(matchId, uri);\n    }\n\n    //The tokens for each of the matches are minted to the list of subscribers\n    function mintMatch(string memory uri) public onlyRole(ADMIN_CLUB_ROLE) {\n       //uri=ipfs://bafybeidpaq5ba6237nat7nmj6yjrkfv2i3qdjj5tnh6kt4b7l7xd3te4u4/season0\n        for (uint i = 0; i<listSubscriber.length; i++){\n            mint(listSubscriber[i], uri);\n        }\n        emit MsgInfoMinted(\"The minting has been done correctly.\", msg.sender);\n    }\n\n    function _beforeTokenTransfer(address from, address to, uint256 matchId)\n        internal\n        whenNotPaused\n        override(ERC721, ERC721Enumerable)\n    {\n        super._beforeTokenTransfer(from, to, matchId);\n    }\n\n    function _burn(uint256 matchId) internal override(ERC721, ERC721URIStorage) {\n        super._burn(matchId);\n    }\n    \n    function burnTicket(uint256 tokenId) public  {\n        _burn(tokenId);\n    }\n\n    function tokenURI(uint256 matchId)\n        public\n        view\n        override(ERC721, ERC721URIStorage)\n        returns (string memory)\n    {\n        return super.tokenURI(matchId);\n    }\n\n    function supportsInterface(bytes4 interfaceId)\n        public\n        view\n        override(ERC721, ERC721Enumerable, ERC2981, AccessControl)\n        returns (bool)\n    {\n        return super.supportsInterface(interfaceId);\n    }\n\n    function grantAdminRol(address account) public onlyRole(DEFAULT_ADMIN_ROLE) {\n        _grantRole(DEFAULT_ADMIN_ROLE, account);\n    }\n\n    function grantClubRol(address account) public onlyRole(DEFAULT_ADMIN_ROLE) {\n        _grantRole(ADMIN_CLUB_ROLE, account);\n        emit ClubAdminRoleGranted(msg.sender, account);\n    }\n\n    function revokeClubRol(address account)\n        public\n        onlyRole(DEFAULT_ADMIN_ROLE)\n    {\n        _revokeRole(ADMIN_CLUB_ROLE, account);\n        emit ClubAdminRoleRevoked(msg.sender, account);\n    }\n\n    function addAddress(address account) public onlyRole(DEFAULT_ADMIN_ROLE){\n        if (listSubscriber.length>0){\n            bool exist;\n            for (uint i = 0; i<listSubscriber.length-1; i++){\n                if(listSubscriber[i] == account){\n                    emit MsgInfoAccountListKo(\"Account/address registered.\", account);\n                    break;\n                }else{\n                    exist = false;\n                }\n            }\n            if(!exist){\n                    listSubscriber.push(account);\n                    emit MsgInfoAccountListOk(\"The account/address has been successfully registered.\", account);\n                }\n        } else {\n            listSubscriber.push(account);\n            emit MsgInfoAccountListOk(\"The account/address has been successfully registered.\", account);\n        }\n    }\n\n    function getAddressInfo() public view returns(address[] memory){\n        return(listSubscriber);\n    }\n\n    function findAddress(address value) public view returns(uint) {\n        uint i = 0;\n        while (listSubscriber[i] != value) {\n            i++;\n        }\n        return i;\n    }\n\n    function removeAddress(address value) public{\n        uint i = findAddress(value);\n        removeAddressByIndex(i);\n    }\n\n    function removeAddressByIndex(uint i) public{\n        while (i<listSubscriber.length-1) {\n            listSubscriber[i] = listSubscriber[i+1];\n            i++;\n        }\n        listSubscriber.pop();\n    }\n\n/*\n    function approve(address to, uint256 tokenId) public {    \n        address owner = ownerOf(tokenId);    \n        require(to != owner);    \n        require(msg.sender == owner || isApprovedForAll(owner, msg.sender));    \n        _tokenApprovals[tokenId] = to;    \n        emit Approval(owner, to, tokenId);\n        }\n*/\n\n/*\n    function buyMatchTicket() public payable{\n        if(activeContract == false){\n            emit Status(\"No es posible realizar la compra, el contrato esta inactivo.\");\n        } else {\n            if (msg.value > basePrice){\n                // Se realiza la transferencia del precio de la entrada al club\n                club.transfer(msg.value - basePrice);\n                //Deshabilitamos el contrato\n                activeContract = false;\n                emit Status(\"La compra de la entrada se ha realizado correctamente.\");\n            } else {\n                emit Status(\"No es posible la compra, el importe no es suficiente\");\n            }\n        }\n    }\n*/\n    function setRoyaltyInfo(address _receiver, uint96 _royaltyFeesInBips) public onlyRole(DEFAULT_ADMIN_ROLE) {\n        _setDefaultRoyalty(_receiver, _royaltyFeesInBips);\n    }\n\n}\n",
  "sourcePath": "/Users/dosorio/Proyectos/Blockchain/SportTickets/contracts/CryptoTicketsMatchNFTs.sol",
  "compiler": {
    "name": "solc",
    "version": "0.8.15+commit.e14f2714.Emscripten.clang"
  },
  "schemaVersion": "3.4.7",
  "updatedAt": "2022-07-01T19:12:18.027Z",
  "networkType": "ethereum",
  "devdoc": {
    "kind": "dev",
    "methods": {
      "approve(address,uint256)": {
        "details": "See {IERC721-approve}."
      },
      "balanceOf(address)": {
        "details": "See {IERC721-balanceOf}."
      },
      "burn(uint256)": {
        "details": "Burns `tokenId`. See {ERC721-_burn}. Requirements: - The caller must own `tokenId` or be an approved operator."
      },
      "getApproved(uint256)": {
        "details": "See {IERC721-getApproved}."
      },
      "getRoleAdmin(bytes32)": {
        "details": "Returns the admin role that controls `role`. See {grantRole} and {revokeRole}. To change a role's admin, use {_setRoleAdmin}."
      },
      "grantRole(bytes32,address)": {
        "details": "Grants `role` to `account`. If `account` had not been already granted `role`, emits a {RoleGranted} event. Requirements: - the caller must have ``role``'s admin role."
      },
      "hasRole(bytes32,address)": {
        "details": "Returns `true` if `account` has been granted `role`."
      },
      "isApprovedForAll(address,address)": {
        "details": "See {IERC721-isApprovedForAll}."
      },
      "name()": {
        "details": "See {IERC721Metadata-name}."
      },
      "ownerOf(uint256)": {
        "details": "See {IERC721-ownerOf}."
      },
      "paused()": {
        "details": "Returns true if the contract is paused, and false otherwise."
      },
      "renounceRole(bytes32,address)": {
        "details": "Revokes `role` from the calling account. Roles are often managed via {grantRole} and {revokeRole}: this function's purpose is to provide a mechanism for accounts to lose their privileges if they are compromised (such as when a trusted device is misplaced). If the calling account had been revoked `role`, emits a {RoleRevoked} event. Requirements: - the caller must be `account`."
      },
      "revokeRole(bytes32,address)": {
        "details": "Revokes `role` from `account`. If `account` had been granted `role`, emits a {RoleRevoked} event. Requirements: - the caller must have ``role``'s admin role."
      },
      "royaltyInfo(uint256,uint256)": {
        "details": "Returns how much royalty is owed and to whom, based on a sale price that may be denominated in any unit of exchange. The royalty amount is denominated and should be paid in that same unit of exchange."
      },
      "safeTransferFrom(address,address,uint256)": {
        "details": "See {IERC721-safeTransferFrom}."
      },
      "safeTransferFrom(address,address,uint256,bytes)": {
        "details": "See {IERC721-safeTransferFrom}."
      },
      "setApprovalForAll(address,bool)": {
        "details": "See {IERC721-setApprovalForAll}."
      },
      "symbol()": {
        "details": "See {IERC721Metadata-symbol}."
      },
      "tokenByIndex(uint256)": {
        "details": "See {IERC721Enumerable-tokenByIndex}."
      },
      "tokenOfOwnerByIndex(address,uint256)": {
        "details": "See {IERC721Enumerable-tokenOfOwnerByIndex}."
      },
      "totalSupply()": {
        "details": "See {IERC721Enumerable-totalSupply}."
      },
      "transferFrom(address,address,uint256)": {
        "details": "See {IERC721-transferFrom}."
      }
    },
    "version": 1
  },
  "userdoc": {
    "kind": "user",
    "methods": {},
    "version": 1
  }
}