{
  "contractName": "CryptoTicketsMatchNFTs",
  "abi": [
    {
      "inputs": [],
      "stateMutability": "nonpayable",
      "type": "constructor"
    },
    {
      "anonymous": false,
      "inputs": [
        {
          "indexed": true,
          "internalType": "address",
          "name": "owner",
          "type": "address"
        },
        {
          "indexed": true,
          "internalType": "address",
          "name": "approved",
          "type": "address"
        },
        {
          "indexed": true,
          "internalType": "uint256",
          "name": "tokenId",
          "type": "uint256"
        }
      ],
      "name": "Approval",
      "type": "event"
    },
    {
      "anonymous": false,
      "inputs": [
        {
          "indexed": true,
          "internalType": "address",
          "name": "owner",
          "type": "address"
        },
        {
          "indexed": true,
          "internalType": "address",
          "name": "operator",
          "type": "address"
        },
        {
          "indexed": false,
          "internalType": "bool",
          "name": "approved",
          "type": "bool"
        }
      ],
      "name": "ApprovalForAll",
      "type": "event"
    },
    {
      "anonymous": false,
      "inputs": [
        {
          "indexed": true,
          "internalType": "address",
          "name": "sender",
          "type": "address"
        },
        {
          "indexed": true,
          "internalType": "address",
          "name": "clubAddress",
          "type": "address"
        }
      ],
      "name": "ClubAdminRoleGranted",
      "type": "event"
    },
    {
      "anonymous": false,
      "inputs": [
        {
          "indexed": true,
          "internalType": "address",
          "name": "sender",
          "type": "address"
        },
        {
          "indexed": true,
          "internalType": "address",
          "name": "clubAddress",
          "type": "address"
        }
      ],
      "name": "ClubAdminRoleRevoked",
      "type": "event"
    },
    {
      "anonymous": false,
      "inputs": [
        {
          "indexed": false,
          "internalType": "string",
          "name": "_message",
          "type": "string"
        },
        {
          "indexed": true,
          "internalType": "address",
          "name": "account",
          "type": "address"
        }
      ],
      "name": "MsgInfoAccountListKo",
      "type": "event"
    },
    {
      "anonymous": false,
      "inputs": [
        {
          "indexed": false,
          "internalType": "string",
          "name": "_message",
          "type": "string"
        },
        {
          "indexed": true,
          "internalType": "address",
          "name": "account",
          "type": "address"
        }
      ],
      "name": "MsgInfoAccountListOk",
      "type": "event"
    },
    {
      "anonymous": false,
      "inputs": [
        {
          "indexed": false,
          "internalType": "string",
          "name": "_message",
          "type": "string"
        },
        {
          "indexed": true,
          "internalType": "address",
          "name": "account",
          "type": "address"
        }
      ],
      "name": "MsgInfoMinted",
      "type": "event"
    },
    {
      "anonymous": false,
      "inputs": [
        {
          "indexed": false,
          "internalType": "address",
          "name": "account",
          "type": "address"
        }
      ],
      "name": "Paused",
      "type": "event"
    },
    {
      "anonymous": false,
      "inputs": [
        {
          "indexed": true,
          "internalType": "bytes32",
          "name": "role",
          "type": "bytes32"
        },
        {
          "indexed": true,
          "internalType": "bytes32",
          "name": "previousAdminRole",
          "type": "bytes32"
        },
        {
          "indexed": true,
          "internalType": "bytes32",
          "name": "newAdminRole",
          "type": "bytes32"
        }
      ],
      "name": "RoleAdminChanged",
      "type": "event"
    },
    {
      "anonymous": false,
      "inputs": [
        {
          "indexed": true,
          "internalType": "bytes32",
          "name": "role",
          "type": "bytes32"
        },
        {
          "indexed": true,
          "internalType": "address",
          "name": "account",
          "type": "address"
        },
        {
          "indexed": true,
          "internalType": "address",
          "name": "sender",
          "type": "address"
        }
      ],
      "name": "RoleGranted",
      "type": "event"
    },
    {
      "anonymous": false,
      "inputs": [
        {
          "indexed": true,
          "internalType": "bytes32",
          "name": "role",
          "type": "bytes32"
        },
        {
          "indexed": true,
          "internalType": "address",
          "name": "account",
          "type": "address"
        },
        {
          "indexed": true,
          "internalType": "address",
          "name": "sender",
          "type": "address"
        }
      ],
      "name": "RoleRevoked",
      "type": "event"
    },
    {
      "anonymous": false,
      "inputs": [
        {
          "indexed": false,
          "internalType": "string",
          "name": "_message",
          "type": "string"
        }
      ],
      "name": "Status",
      "type": "event"
    },
    {
      "anonymous": false,
      "inputs": [
        {
          "indexed": true,
          "internalType": "address",
          "name": "from",
          "type": "address"
        },
        {
          "indexed": true,
          "internalType": "address",
          "name": "to",
          "type": "address"
        },
        {
          "indexed": true,
          "internalType": "uint256",
          "name": "tokenId",
          "type": "uint256"
        }
      ],
      "name": "Transfer",
      "type": "event"
    },
    {
      "anonymous": false,
      "inputs": [
        {
          "indexed": false,
          "internalType": "address",
          "name": "account",
          "type": "address"
        }
      ],
      "name": "Unpaused",
      "type": "event"
    },
    {
      "inputs": [],
      "name": "ADMIN_CLUB_ROLE",
      "outputs": [
        {
          "internalType": "bytes32",
          "name": "",
          "type": "bytes32"
        }
      ],
      "stateMutability": "view",
      "type": "function",
      "constant": true
    },
    {
      "inputs": [],
      "name": "DEFAULT_ADMIN_ROLE",
      "outputs": [
        {
          "internalType": "bytes32",
          "name": "",
          "type": "bytes32"
        }
      ],
      "stateMutability": "view",
      "type": "function",
      "constant": true
    },
    {
      "inputs": [
        {
          "internalType": "address",
          "name": "to",
          "type": "address"
        },
        {
          "internalType": "uint256",
          "name": "tokenId",
          "type": "uint256"
        }
      ],
      "name": "approve",
      "outputs": [],
      "stateMutability": "nonpayable",
      "type": "function"
    },
    {
      "inputs": [
        {
          "internalType": "address",
          "name": "owner",
          "type": "address"
        }
      ],
      "name": "balanceOf",
      "outputs": [
        {
          "internalType": "uint256",
          "name": "",
          "type": "uint256"
        }
      ],
      "stateMutability": "view",
      "type": "function",
      "constant": true
    },
    {
      "inputs": [
        {
          "internalType": "uint256",
          "name": "tokenId",
          "type": "uint256"
        }
      ],
      "name": "burn",
      "outputs": [],
      "stateMutability": "nonpayable",
      "type": "function"
    },
    {
      "inputs": [],
      "name": "club",
      "outputs": [
        {
          "internalType": "address payable",
          "name": "",
          "type": "address"
        }
      ],
      "stateMutability": "view",
      "type": "function",
      "constant": true
    },
    {
      "inputs": [
        {
          "internalType": "uint256",
          "name": "tokenId",
          "type": "uint256"
        }
      ],
      "name": "getApproved",
      "outputs": [
        {
          "internalType": "address",
          "name": "",
          "type": "address"
        }
      ],
      "stateMutability": "view",
      "type": "function",
      "constant": true
    },
    {
      "inputs": [
        {
          "internalType": "bytes32",
          "name": "role",
          "type": "bytes32"
        }
      ],
      "name": "getRoleAdmin",
      "outputs": [
        {
          "internalType": "bytes32",
          "name": "",
          "type": "bytes32"
        }
      ],
      "stateMutability": "view",
      "type": "function",
      "constant": true
    },
    {
      "inputs": [
        {
          "internalType": "bytes32",
          "name": "role",
          "type": "bytes32"
        },
        {
          "internalType": "address",
          "name": "account",
          "type": "address"
        }
      ],
      "name": "grantRole",
      "outputs": [],
      "stateMutability": "nonpayable",
      "type": "function"
    },
    {
      "inputs": [
        {
          "internalType": "bytes32",
          "name": "role",
          "type": "bytes32"
        },
        {
          "internalType": "address",
          "name": "account",
          "type": "address"
        }
      ],
      "name": "hasRole",
      "outputs": [
        {
          "internalType": "bool",
          "name": "",
          "type": "bool"
        }
      ],
      "stateMutability": "view",
      "type": "function",
      "constant": true
    },
    {
      "inputs": [
        {
          "internalType": "address",
          "name": "owner",
          "type": "address"
        },
        {
          "internalType": "address",
          "name": "operator",
          "type": "address"
        }
      ],
      "name": "isApprovedForAll",
      "outputs": [
        {
          "internalType": "bool",
          "name": "",
          "type": "bool"
        }
      ],
      "stateMutability": "view",
      "type": "function",
      "constant": true
    },
    {
      "inputs": [
        {
          "internalType": "uint256",
          "name": "",
          "type": "uint256"
        }
      ],
      "name": "listSubscriber",
      "outputs": [
        {
          "internalType": "address",
          "name": "",
          "type": "address"
        }
      ],
      "stateMutability": "view",
      "type": "function",
      "constant": true
    },
    {
      "inputs": [],
      "name": "name",
      "outputs": [
        {
          "internalType": "string",
          "name": "",
          "type": "string"
        }
      ],
      "stateMutability": "view",
      "type": "function",
      "constant": true
    },
    {
      "inputs": [],
      "name": "newOwner",
      "outputs": [
        {
          "internalType": "address",
          "name": "",
          "type": "address"
        }
      ],
      "stateMutability": "view",
      "type": "function",
      "constant": true
    },
    {
      "inputs": [
        {
          "internalType": "uint256",
          "name": "tokenId",
          "type": "uint256"
        }
      ],
      "name": "ownerOf",
      "outputs": [
        {
          "internalType": "address",
          "name": "",
          "type": "address"
        }
      ],
      "stateMutability": "view",
      "type": "function",
      "constant": true
    },
    {
      "inputs": [],
      "name": "paused",
      "outputs": [
        {
          "internalType": "bool",
          "name": "",
          "type": "bool"
        }
      ],
      "stateMutability": "view",
      "type": "function",
      "constant": true
    },
    {
      "inputs": [
        {
          "internalType": "bytes32",
          "name": "role",
          "type": "bytes32"
        },
        {
          "internalType": "address",
          "name": "account",
          "type": "address"
        }
      ],
      "name": "renounceRole",
      "outputs": [],
      "stateMutability": "nonpayable",
      "type": "function"
    },
    {
      "inputs": [
        {
          "internalType": "bytes32",
          "name": "role",
          "type": "bytes32"
        },
        {
          "internalType": "address",
          "name": "account",
          "type": "address"
        }
      ],
      "name": "revokeRole",
      "outputs": [],
      "stateMutability": "nonpayable",
      "type": "function"
    },
    {
      "inputs": [
        {
          "internalType": "uint256",
          "name": "_tokenId",
          "type": "uint256"
        },
        {
          "internalType": "uint256",
          "name": "_salePrice",
          "type": "uint256"
        }
      ],
      "name": "royaltyInfo",
      "outputs": [
        {
          "internalType": "address",
          "name": "",
          "type": "address"
        },
        {
          "internalType": "uint256",
          "name": "",
          "type": "uint256"
        }
      ],
      "stateMutability": "view",
      "type": "function",
      "constant": true
    },
    {
      "inputs": [
        {
          "internalType": "address",
          "name": "from",
          "type": "address"
        },
        {
          "internalType": "address",
          "name": "to",
          "type": "address"
        },
        {
          "internalType": "uint256",
          "name": "tokenId",
          "type": "uint256"
        }
      ],
      "name": "safeTransferFrom",
      "outputs": [],
      "stateMutability": "nonpayable",
      "type": "function"
    },
    {
      "inputs": [
        {
          "internalType": "address",
          "name": "from",
          "type": "address"
        },
        {
          "internalType": "address",
          "name": "to",
          "type": "address"
        },
        {
          "internalType": "uint256",
          "name": "tokenId",
          "type": "uint256"
        },
        {
          "internalType": "bytes",
          "name": "_data",
          "type": "bytes"
        }
      ],
      "name": "safeTransferFrom",
      "outputs": [],
      "stateMutability": "nonpayable",
      "type": "function"
    },
    {
      "inputs": [
        {
          "internalType": "address",
          "name": "operator",
          "type": "address"
        },
        {
          "internalType": "bool",
          "name": "approved",
          "type": "bool"
        }
      ],
      "name": "setApprovalForAll",
      "outputs": [],
      "stateMutability": "nonpayable",
      "type": "function"
    },
    {
      "inputs": [],
      "name": "symbol",
      "outputs": [
        {
          "internalType": "string",
          "name": "",
          "type": "string"
        }
      ],
      "stateMutability": "view",
      "type": "function",
      "constant": true
    },
    {
      "inputs": [
        {
          "internalType": "uint256",
          "name": "index",
          "type": "uint256"
        }
      ],
      "name": "tokenByIndex",
      "outputs": [
        {
          "internalType": "uint256",
          "name": "",
          "type": "uint256"
        }
      ],
      "stateMutability": "view",
      "type": "function",
      "constant": true
    },
    {
      "inputs": [
        {
          "internalType": "address",
          "name": "owner",
          "type": "address"
        },
        {
          "internalType": "uint256",
          "name": "index",
          "type": "uint256"
        }
      ],
      "name": "tokenOfOwnerByIndex",
      "outputs": [
        {
          "internalType": "uint256",
          "name": "",
          "type": "uint256"
        }
      ],
      "stateMutability": "view",
      "type": "function",
      "constant": true
    },
    {
      "inputs": [],
      "name": "totalSupply",
      "outputs": [
        {
          "internalType": "uint256",
          "name": "",
          "type": "uint256"
        }
      ],
      "stateMutability": "view",
      "type": "function",
      "constant": true
    },
    {
      "inputs": [
        {
          "internalType": "address",
          "name": "from",
          "type": "address"
        },
        {
          "internalType": "address",
          "name": "to",
          "type": "address"
        },
        {
          "internalType": "uint256",
          "name": "tokenId",
          "type": "uint256"
        }
      ],
      "name": "transferFrom",
      "outputs": [],
      "stateMutability": "nonpayable",
      "type": "function"
    },
    {
      "inputs": [],
      "name": "contractURI",
      "outputs": [
        {
          "internalType": "string",
          "name": "",
          "type": "string"
        }
      ],
      "stateMutability": "pure",
      "type": "function",
      "constant": true
    },
    {
      "inputs": [],
      "name": "pause",
      "outputs": [],
      "stateMutability": "nonpayable",
      "type": "function"
    },
    {
      "inputs": [],
      "name": "unpause",
      "outputs": [],
      "stateMutability": "nonpayable",
      "type": "function"
    },
    {
      "inputs": [
        {
          "internalType": "address",
          "name": "to",
          "type": "address"
        },
        {
          "internalType": "string",
          "name": "uri",
          "type": "string"
        }
      ],
      "name": "mintTicket",
      "outputs": [],
      "stateMutability": "payable",
      "type": "function",
      "payable": true
    },
    {
      "inputs": [
        {
          "internalType": "string",
          "name": "uri",
          "type": "string"
        }
      ],
      "name": "mintMatch",
      "outputs": [],
      "stateMutability": "nonpayable",
      "type": "function"
    },
    {
      "inputs": [
        {
          "internalType": "uint256",
          "name": "tokenId",
          "type": "uint256"
        }
      ],
      "name": "burnTicket",
      "outputs": [],
      "stateMutability": "nonpayable",
      "type": "function"
    },
    {
      "inputs": [
        {
          "internalType": "uint256",
          "name": "matchId",
          "type": "uint256"
        }
      ],
      "name": "tokenURI",
      "outputs": [
        {
          "internalType": "string",
          "name": "",
          "type": "string"
        }
      ],
      "stateMutability": "view",
      "type": "function",
      "constant": true
    },
    {
      "inputs": [
        {
          "internalType": "bytes4",
          "name": "interfaceId",
          "type": "bytes4"
        }
      ],
      "name": "supportsInterface",
      "outputs": [
        {
          "internalType": "bool",
          "name": "",
          "type": "bool"
        }
      ],
      "stateMutability": "view",
      "type": "function",
      "constant": true
    },
    {
      "inputs": [
        {
          "internalType": "address",
          "name": "account",
          "type": "address"
        }
      ],
      "name": "grantAdminRol",
      "outputs": [],
      "stateMutability": "nonpayable",
      "type": "function"
    },
    {
      "inputs": [
        {
          "internalType": "address",
          "name": "account",
          "type": "address"
        }
      ],
      "name": "grantClubRol",
      "outputs": [],
      "stateMutability": "nonpayable",
      "type": "function"
    },
    {
      "inputs": [
        {
          "internalType": "address",
          "name": "account",
          "type": "address"
        }
      ],
      "name": "revokeClubRol",
      "outputs": [],
      "stateMutability": "nonpayable",
      "type": "function"
    },
    {
      "inputs": [
        {
          "internalType": "address",
          "name": "account",
          "type": "address"
        }
      ],
      "name": "addAddress",
      "outputs": [],
      "stateMutability": "nonpayable",
      "type": "function"
    },
    {
      "inputs": [],
      "name": "getAddressInfo",
      "outputs": [
        {
          "internalType": "address[]",
          "name": "",
          "type": "address[]"
        }
      ],
      "stateMutability": "view",
      "type": "function",
      "constant": true
    },
    {
      "inputs": [
        {
          "internalType": "address",
          "name": "value",
          "type": "address"
        }
      ],
      "name": "findAddress",
      "outputs": [
        {
          "internalType": "uint256",
          "name": "",
          "type": "uint256"
        }
      ],
      "stateMutability": "view",
      "type": "function",
      "constant": true
    },
    {
      "inputs": [
        {
          "internalType": "address",
          "name": "value",
          "type": "address"
        }
      ],
      "name": "removeAddress",
      "outputs": [],
      "stateMutability": "nonpayable",
      "type": "function"
    },
    {
      "inputs": [
        {
          "internalType": "uint256",
          "name": "i",
          "type": "uint256"
        }
      ],
      "name": "removeAddressByIndex",
      "outputs": [],
      "stateMutability": "nonpayable",
      "type": "function"
    },
    {
      "inputs": [
        {
          "internalType": "address",
          "name": "_receiver",
          "type": "address"
        },
        {
          "internalType": "uint96",
          "name": "_royaltyFeesInBips",
          "type": "uint96"
        }
      ],
      "name": "setRoyaltyInfo",
      "outputs": [],
      "stateMutability": "nonpayable",
      "type": "function"
    }
  ],
  "bytecode": "0x60806040526103e8601560016101000a8154816bffffffffffffffffffffffff02191690836bffffffffffffffffffffffff1602179055503480156200004457600080fd5b506040518060400160405280601681526020017f43727970746f5469636b6574734d617463684e465473000000000000000000008152506040518060400160405280600581526020017f43544b4d4e0000000000000000000000000000000000000000000000000000008152508160009081620000c2919062000a81565b508060019081620000d4919062000a81565b5050506000600b60006101000a81548160ff021916908315150217905550620001076000801b336200018660201b60201c565b620001397f9894090c012e113e817b2d99a7f6ad3e666491f10820f12b8bc4b139f2ea06bb336200018660201b60201c565b6001601560006101000a81548160ff0219169083151502179055506200018033601560019054906101000a90046bffffffffffffffffffffffff166200027860201b60201c565b6200100f565b620001988282620002a460201b60201c565b62000274576001600c600084815260200190815260200160002060000160008373ffffffffffffffffffffffffffffffffffffffff1673ffffffffffffffffffffffffffffffffffffffff16815260200190815260200160002060006101000a81548160ff021916908315150217905550620002196200030f60201b60201c565b73ffffffffffffffffffffffffffffffffffffffff168173ffffffffffffffffffffffffffffffffffffffff16837f2f8788117e7eff1d82e926ec794901d17c78024a50270940304540a733656f0d60405160405180910390a45b5050565b6000801b6200028d816200031760201b60201c565b6200029f83836200033b60201b60201c565b505050565b6000600c600084815260200190815260200160002060000160008373ffffffffffffffffffffffffffffffffffffffff1673ffffffffffffffffffffffffffffffffffffffff16815260200190815260200160002060009054906101000a900460ff16905092915050565b600033905090565b62000338816200032c6200030f60201b60201c565b620004de60201b60201c565b50565b6200034b620005a260201b60201c565b6bffffffffffffffffffffffff16816bffffffffffffffffffffffff161115620003ac576040517f08c379a0000000000000000000000000000000000000000000000000000000008152600401620003a39062000bef565b60405180910390fd5b600073ffffffffffffffffffffffffffffffffffffffff168273ffffffffffffffffffffffffffffffffffffffff16036200041e576040517f08c379a0000000000000000000000000000000000000000000000000000000008152600401620004159062000c61565b60405180910390fd5b60405180604001604052808373ffffffffffffffffffffffffffffffffffffffff168152602001826bffffffffffffffffffffffff16815250600d60008201518160000160006101000a81548173ffffffffffffffffffffffffffffffffffffffff021916908373ffffffffffffffffffffffffffffffffffffffff16021790555060208201518160000160146101000a8154816bffffffffffffffffffffffff02191690836bffffffffffffffffffffffff1602179055509050505050565b620004f08282620002a460201b60201c565b6200059e57620005238173ffffffffffffffffffffffffffffffffffffffff166014620005ac60201b62001daf1760201c565b6200053e8360001c6020620005ac60201b62001daf1760201c565b6040516020016200055192919062000d9b565b6040516020818303038152906040526040517f08c379a000000000000000000000000000000000000000000000000000000000815260040162000595919062000e2f565b60405180910390fd5b5050565b6000612710905090565b606060006002836002620005c1919062000e82565b620005cd919062000ee3565b67ffffffffffffffff811115620005e957620005e862000812565b5b6040519080825280601f01601f1916602001820160405280156200061c5781602001600182028036833780820191505090505b5090507f30000000000000000000000000000000000000000000000000000000000000008160008151811062000657576200065662000f40565b5b60200101907effffffffffffffffffffffffffffffffffffffffffffffffffffffffffffff1916908160001a9053507f780000000000000000000000000000000000000000000000000000000000000081600181518110620006be57620006bd62000f40565b5b60200101907effffffffffffffffffffffffffffffffffffffffffffffffffffffffffffff1916908160001a9053506000600184600262000700919062000e82565b6200070c919062000ee3565b90505b6001811115620007b6577f3031323334353637383961626364656600000000000000000000000000000000600f86166010811062000752576200075162000f40565b5b1a60f81b8282815181106200076c576200076b62000f40565b5b60200101907effffffffffffffffffffffffffffffffffffffffffffffffffffffffffffff1916908160001a905350600485901c945080620007ae9062000f6f565b90506200070f565b5060008414620007fd576040517f08c379a0000000000000000000000000000000000000000000000000000000008152600401620007f49062000fed565b60405180910390fd5b8091505092915050565b600081519050919050565b7f4e487b7100000000000000000000000000000000000000000000000000000000600052604160045260246000fd5b7f4e487b7100000000000000000000000000000000000000000000000000000000600052602260045260246000fd5b600060028204905060018216806200088957607f821691505b6020821081036200089f576200089e62000841565b5b50919050565b60008190508160005260206000209050919050565b60006020601f8301049050919050565b600082821b905092915050565b600060088302620009097fffffffffffffffffffffffffffffffffffffffffffffffffffffffffffffffff82620008ca565b620009158683620008ca565b95508019841693508086168417925050509392505050565b6000819050919050565b6000819050919050565b6000620009626200095c62000956846200092d565b62000937565b6200092d565b9050919050565b6000819050919050565b6200097e8362000941565b620009966200098d8262000969565b848454620008d7565b825550505050565b600090565b620009ad6200099e565b620009ba81848462000973565b505050565b5b81811015620009e257620009d6600082620009a3565b600181019050620009c0565b5050565b601f82111562000a3157620009fb81620008a5565b62000a0684620008ba565b8101602085101562000a16578190505b62000a2e62000a2585620008ba565b830182620009bf565b50505b505050565b600082821c905092915050565b600062000a566000198460080262000a36565b1980831691505092915050565b600062000a71838362000a43565b9150826002028217905092915050565b62000a8c8262000807565b67ffffffffffffffff81111562000aa85762000aa762000812565b5b62000ab4825462000870565b62000ac1828285620009e6565b600060209050601f83116001811462000af9576000841562000ae4578287015190505b62000af0858262000a63565b86555062000b60565b601f19841662000b0986620008a5565b60005b8281101562000b335784890151825560018201915060208501945060208101905062000b0c565b8683101562000b53578489015162000b4f601f89168262000a43565b8355505b6001600288020188555050505b505050505050565b600082825260208201905092915050565b7f455243323938313a20726f79616c7479206665652077696c6c2065786365656460008201527f2073616c65507269636500000000000000000000000000000000000000000000602082015250565b600062000bd7602a8362000b68565b915062000be48262000b79565b604082019050919050565b6000602082019050818103600083015262000c0a8162000bc8565b9050919050565b7f455243323938313a20696e76616c696420726563656976657200000000000000600082015250565b600062000c4960198362000b68565b915062000c568262000c11565b602082019050919050565b6000602082019050818103600083015262000c7c8162000c3a565b9050919050565b600081905092915050565b7f416363657373436f6e74726f6c3a206163636f756e7420000000000000000000600082015250565b600062000cc660178362000c83565b915062000cd38262000c8e565b601782019050919050565b60005b8381101562000cfe57808201518184015260208101905062000ce1565b8381111562000d0e576000848401525b50505050565b600062000d218262000807565b62000d2d818562000c83565b935062000d3f81856020860162000cde565b80840191505092915050565b7f206973206d697373696e6720726f6c6520000000000000000000000000000000600082015250565b600062000d8360118362000c83565b915062000d908262000d4b565b601182019050919050565b600062000da88262000cb7565b915062000db6828562000d14565b915062000dc38262000d74565b915062000dd1828462000d14565b91508190509392505050565b6000601f19601f8301169050919050565b600062000dfb8262000807565b62000e07818562000b68565b935062000e1981856020860162000cde565b62000e248162000ddd565b840191505092915050565b6000602082019050818103600083015262000e4b818462000dee565b905092915050565b7f4e487b7100000000000000000000000000000000000000000000000000000000600052601160045260246000fd5b600062000e8f826200092d565b915062000e9c836200092d565b9250817fffffffffffffffffffffffffffffffffffffffffffffffffffffffffffffffff048311821515161562000ed85762000ed762000e53565b5b828202905092915050565b600062000ef0826200092d565b915062000efd836200092d565b9250827fffffffffffffffffffffffffffffffffffffffffffffffffffffffffffffffff0382111562000f355762000f3462000e53565b5b828201905092915050565b7f4e487b7100000000000000000000000000000000000000000000000000000000600052603260045260246000fd5b600062000f7c826200092d565b91506000820362000f925762000f9162000e53565b5b600182039050919050565b7f537472696e67733a20686578206c656e67746820696e73756666696369656e74600082015250565b600062000fd560208362000b68565b915062000fe28262000f9d565b602082019050919050565b60006020820190508181036000830152620010088162000fc6565b9050919050565b615d4a806200101f6000396000f3fe6080604052600436106102675760003560e01c80635047611711610144578063a22cb465116100b6578063d356a8791161007a578063d356a87914610952578063d4ee1d901461097b578063d547741f146109a6578063e8a3d485146109cf578063e985e9c5146109fa578063fe5a066614610a3757610267565b8063a22cb46514610871578063a476b73d1461089a578063a9757b53146108c3578063b88d4fde146108ec578063c87b56dd1461091557610267565b80637367c0d0116101085780637367c0d0146107615780638456cb591461078a57806391d14854146107a157806395d89b41146107de5780639b6dd9ae14610809578063a217fddf1461084657610267565b806350476117146106775780635388842c146106a05780635c975abb146106bc5780636352211e146106e757806370a082311461072457610267565b80632f2ff15d116101dd5780633f4ba83a116101a15780633f4ba83a1461057d57806342842e0e1461059457806342966c68146105bd5780634ba79dfe146105e65780634f2a36ab1461060f5780634f6ccce71461063a57610267565b80632f2ff15d1461049a5780632f745c59146104c357806336568abe1461050057806338eada1c146105295780633bf084511461055257610267565b8063095ea7b31161022f578063095ea7b3146103775780630efd0973146103a057806318160ddd146103cb57806323b872dd146103f6578063248a9ca31461041f5780632a55205a1461045c57610267565b806301ffc9a71461026c57806302fa7c47146102a95780630309aca3146102d257806306fdde031461030f578063081812fc1461033a575b600080fd5b34801561027857600080fd5b50610293600480360381019061028e9190613d22565b610a60565b6040516102a09190613d6a565b60405180910390f35b3480156102b557600080fd5b506102d060048036038101906102cb9190613e27565b610a72565b005b3480156102de57600080fd5b506102f960048036038101906102f49190613e67565b610a8e565b6040516103069190613ead565b60405180910390f35b34801561031b57600080fd5b50610324610b23565b6040516103319190613f61565b60405180910390f35b34801561034657600080fd5b50610361600480360381019061035c9190613faf565b610bb5565b60405161036e9190613feb565b60405180910390f35b34801561038357600080fd5b5061039e60048036038101906103999190614006565b610c3a565b005b3480156103ac57600080fd5b506103b5610d51565b6040516103c29190614067565b60405180910390f35b3480156103d757600080fd5b506103e0610d77565b6040516103ed9190613ead565b60405180910390f35b34801561040257600080fd5b5061041d60048036038101906104189190614082565b610d84565b005b34801561042b57600080fd5b506104466004803603810190610441919061410b565b610de4565b6040516104539190614147565b60405180910390f35b34801561046857600080fd5b50610483600480360381019061047e9190614162565b610e04565b6040516104919291906141a2565b60405180910390f35b3480156104a657600080fd5b506104c160048036038101906104bc91906141cb565b610fee565b005b3480156104cf57600080fd5b506104ea60048036038101906104e59190614006565b61100f565b6040516104f79190613ead565b60405180910390f35b34801561050c57600080fd5b50610527600480360381019061052291906141cb565b6110b4565b005b34801561053557600080fd5b50610550600480360381019061054b9190613e67565b611137565b005b34801561055e57600080fd5b506105676113bc565b6040516105749190614147565b60405180910390f35b34801561058957600080fd5b506105926113e0565b005b3480156105a057600080fd5b506105bb60048036038101906105b69190614082565b611415565b005b3480156105c957600080fd5b506105e460048036038101906105df9190613faf565b611435565b005b3480156105f257600080fd5b5061060d60048036038101906106089190613e67565b611491565b005b34801561061b57600080fd5b506106246114ab565b60405161063191906142c9565b60405180910390f35b34801561064657600080fd5b50610661600480360381019061065c9190613faf565b611539565b60405161066e9190613ead565b60405180910390f35b34801561068357600080fd5b5061069e60048036038101906106999190613e67565b6115aa565b005b6106ba60048036038101906106b59190614420565b61163f565b005b3480156106c857600080fd5b506106d1611670565b6040516106de9190613d6a565b60405180910390f35b3480156106f357600080fd5b5061070e60048036038101906107099190613faf565b611687565b60405161071b9190613feb565b60405180910390f35b34801561073057600080fd5b5061074b60048036038101906107469190613e67565b611738565b6040516107589190613ead565b60405180910390f35b34801561076d57600080fd5b5061078860048036038101906107839190613e67565b6117ef565b005b34801561079657600080fd5b5061079f61180d565b005b3480156107ad57600080fd5b506107c860048036038101906107c391906141cb565b611842565b6040516107d59190613d6a565b60405180910390f35b3480156107ea57600080fd5b506107f36118ad565b6040516108009190613f61565b60405180910390f35b34801561081557600080fd5b50610830600480360381019061082b9190613faf565b61193f565b60405161083d9190613feb565b60405180910390f35b34801561085257600080fd5b5061085b61197e565b6040516108689190614147565b60405180910390f35b34801561087d57600080fd5b50610898600480360381019061089391906144a8565b611985565b005b3480156108a657600080fd5b506108c160048036038101906108bc9190613faf565b61199b565b005b3480156108cf57600080fd5b506108ea60048036038101906108e591906144e8565b6119a7565b005b3480156108f857600080fd5b50610913600480360381019061090e91906145d2565b611a8d565b005b34801561092157600080fd5b5061093c60048036038101906109379190613faf565b611aef565b6040516109499190613f61565b60405180910390f35b34801561095e57600080fd5b5061097960048036038101906109749190613faf565b611b01565b005b34801561098757600080fd5b50610990611c1f565b60405161099d9190613feb565b60405180910390f35b3480156109b257600080fd5b506109cd60048036038101906109c891906141cb565b611c45565b005b3480156109db57600080fd5b506109e4611c66565b6040516109f19190613f61565b60405180910390f35b348015610a0657600080fd5b50610a216004803603810190610a1c9190614655565b611c86565b604051610a2e9190613d6a565b60405180910390f35b348015610a4357600080fd5b50610a5e6004803603810190610a599190613e67565b611d1a565b005b6000610a6b82611feb565b9050919050565b6000801b610a7f81612065565b610a898383612079565b505050565b600080600090505b8273ffffffffffffffffffffffffffffffffffffffff1660118281548110610ac157610ac0614695565b5b9060005260206000200160009054906101000a900473ffffffffffffffffffffffffffffffffffffffff1673ffffffffffffffffffffffffffffffffffffffff1614610b1a578080610b12906146f3565b915050610a96565b80915050919050565b606060008054610b329061476a565b80601f0160208091040260200160405190810160405280929190818152602001828054610b5e9061476a565b8015610bab5780601f10610b8057610100808354040283529160200191610bab565b820191906000526020600020905b815481529060010190602001808311610b8e57829003601f168201915b5050505050905090565b6000610bc08261220e565b610bff576040517f08c379a0000000000000000000000000000000000000000000000000000000008152600401610bf69061480d565b60405180910390fd5b6004600083815260200190815260200160002060009054906101000a900473ffffffffffffffffffffffffffffffffffffffff169050919050565b6000610c4582611687565b90508073ffffffffffffffffffffffffffffffffffffffff168373ffffffffffffffffffffffffffffffffffffffff1603610cb5576040517f08c379a0000000000000000000000000000000000000000000000000000000008152600401610cac9061489f565b60405180910390fd5b8073ffffffffffffffffffffffffffffffffffffffff16610cd461227a565b73ffffffffffffffffffffffffffffffffffffffff161480610d035750610d0281610cfd61227a565b611c86565b5b610d42576040517f08c379a0000000000000000000000000000000000000000000000000000000008152600401610d3990614931565b60405180910390fd5b610d4c8383612282565b505050565b601260009054906101000a900473ffffffffffffffffffffffffffffffffffffffff1681565b6000600880549050905090565b610d95610d8f61227a565b8261233b565b610dd4576040517f08c379a0000000000000000000000000000000000000000000000000000000008152600401610dcb906149c3565b60405180910390fd5b610ddf838383612419565b505050565b6000600c6000838152602001908152602001600020600101549050919050565b6000806000600e60008681526020019081526020016000206040518060400160405290816000820160009054906101000a900473ffffffffffffffffffffffffffffffffffffffff1673ffffffffffffffffffffffffffffffffffffffff1673ffffffffffffffffffffffffffffffffffffffff1681526020016000820160149054906101000a90046bffffffffffffffffffffffff166bffffffffffffffffffffffff166bffffffffffffffffffffffff16815250509050600073ffffffffffffffffffffffffffffffffffffffff16816000015173ffffffffffffffffffffffffffffffffffffffff1603610f9957600d6040518060400160405290816000820160009054906101000a900473ffffffffffffffffffffffffffffffffffffffff1673ffffffffffffffffffffffffffffffffffffffff1673ffffffffffffffffffffffffffffffffffffffff1681526020016000820160149054906101000a90046bffffffffffffffffffffffff166bffffffffffffffffffffffff166bffffffffffffffffffffffff168152505090505b6000610fa361267f565b6bffffffffffffffffffffffff1682602001516bffffffffffffffffffffffff1686610fcf91906149e3565b610fd99190614a6c565b90508160000151819350935050509250929050565b610ff782610de4565b61100081612065565b61100a8383612689565b505050565b600061101a83611738565b821061105b576040517f08c379a000000000000000000000000000000000000000000000000000000000815260040161105290614b0f565b60405180910390fd5b600660008473ffffffffffffffffffffffffffffffffffffffff1673ffffffffffffffffffffffffffffffffffffffff168152602001908152602001600020600083815260200190815260200160002054905092915050565b6110bc61227a565b73ffffffffffffffffffffffffffffffffffffffff168173ffffffffffffffffffffffffffffffffffffffff1614611129576040517f08c379a000000000000000000000000000000000000000000000000000000000815260040161112090614ba1565b60405180910390fd5b611133828261276a565b5050565b6000801b61114481612065565b6000601180549050111561130857600080600090505b600160118054905061116c9190614bc1565b81101561124c578373ffffffffffffffffffffffffffffffffffffffff166011828154811061119e5761119d614695565b5b9060005260206000200160009054906101000a900473ffffffffffffffffffffffffffffffffffffffff1673ffffffffffffffffffffffffffffffffffffffff1603611235578373ffffffffffffffffffffffffffffffffffffffff167f05dd5f48f06cf107e99388a5ae26ff1f6abd57b4fce48e9bb71dd335c35aa2e560405161122890614c41565b60405180910390a261124c565b600091508080611244906146f3565b91505061115a565b5080611302576011839080600181540180825580915050600190039060005260206000200160009091909190916101000a81548173ffffffffffffffffffffffffffffffffffffffff021916908373ffffffffffffffffffffffffffffffffffffffff1602179055508273ffffffffffffffffffffffffffffffffffffffff167f8c5a800b232da4f063717d255d358a72560b410212770dd78b66b4e23133f77c6040516112f990614cd3565b60405180910390a25b506113b8565b6011829080600181540180825580915050600190039060005260206000200160009091909190916101000a81548173ffffffffffffffffffffffffffffffffffffffff021916908373ffffffffffffffffffffffffffffffffffffffff1602179055508173ffffffffffffffffffffffffffffffffffffffff167f8c5a800b232da4f063717d255d358a72560b410212770dd78b66b4e23133f77c6040516113af90614cd3565b60405180910390a25b5050565b7f9894090c012e113e817b2d99a7f6ad3e666491f10820f12b8bc4b139f2ea06bb81565b7f9894090c012e113e817b2d99a7f6ad3e666491f10820f12b8bc4b139f2ea06bb61140a81612065565b61141261284c565b50565b61143083838360405180602001604052806000815250611a8d565b505050565b61144661144061227a565b8261233b565b611485576040517f08c379a000000000000000000000000000000000000000000000000000000000815260040161147c90614d65565b60405180910390fd5b61148e816128ee565b50565b600061149c82610a8e565b90506114a781611b01565b5050565b6060601180548060200260200160405190810160405280929190818152602001828054801561152f57602002820191906000526020600020905b8160009054906101000a900473ffffffffffffffffffffffffffffffffffffffff1673ffffffffffffffffffffffffffffffffffffffff16815260200190600101908083116114e5575b5050505050905090565b6000611543610d77565b8210611584576040517f08c379a000000000000000000000000000000000000000000000000000000000815260040161157b90614df7565b60405180910390fd5b6008828154811061159857611597614695565b5b90600052602060002001549050919050565b6000801b6115b781612065565b6115e17f9894090c012e113e817b2d99a7f6ad3e666491f10820f12b8bc4b139f2ea06bb83612689565b8173ffffffffffffffffffffffffffffffffffffffff163373ffffffffffffffffffffffffffffffffffffffff167ff25ae518afe49b3c8f1a0f93c0adc26c177ff270839cfdc2f23250dea3a025bc60405160405180910390a35050565b600061164b600f6128fa565b9050611657600f612908565b611661838261291e565b61166b818361293c565b505050565b6000600b60009054906101000a900460ff16905090565b6000806002600084815260200190815260200160002060009054906101000a900473ffffffffffffffffffffffffffffffffffffffff169050600073ffffffffffffffffffffffffffffffffffffffff168173ffffffffffffffffffffffffffffffffffffffff160361172f576040517f08c379a000000000000000000000000000000000000000000000000000000000815260040161172690614e89565b60405180910390fd5b80915050919050565b60008073ffffffffffffffffffffffffffffffffffffffff168273ffffffffffffffffffffffffffffffffffffffff16036117a8576040517f08c379a000000000000000000000000000000000000000000000000000000000815260040161179f90614f1b565b60405180910390fd5b600360008373ffffffffffffffffffffffffffffffffffffffff1673ffffffffffffffffffffffffffffffffffffffff168152602001908152602001600020549050919050565b6000801b6117fc81612065565b6118096000801b83612689565b5050565b7f9894090c012e113e817b2d99a7f6ad3e666491f10820f12b8bc4b139f2ea06bb61183781612065565b61183f6129a9565b50565b6000600c600084815260200190815260200160002060000160008373ffffffffffffffffffffffffffffffffffffffff1673ffffffffffffffffffffffffffffffffffffffff16815260200190815260200160002060009054906101000a900460ff16905092915050565b6060600180546118bc9061476a565b80601f01602080910402602001604051908101604052809291908181526020018280546118e89061476a565b80156119355780601f1061190a57610100808354040283529160200191611935565b820191906000526020600020905b81548152906001019060200180831161191857829003601f168201915b5050505050905090565b6011818154811061194f57600080fd5b906000526020600020016000915054906101000a900473ffffffffffffffffffffffffffffffffffffffff1681565b6000801b81565b61199761199061227a565b8383612a4c565b5050565b6119a4816128ee565b50565b7f9894090c012e113e817b2d99a7f6ad3e666491f10820f12b8bc4b139f2ea06bb6119d181612065565b60005b601180549050811015611a3c57611a29601182815481106119f8576119f7614695565b5b9060005260206000200160009054906101000a900473ffffffffffffffffffffffffffffffffffffffff1684612bb8565b8080611a34906146f3565b9150506119d4565b503373ffffffffffffffffffffffffffffffffffffffff167f4553e13ff316f97f423d1ae7592854a3db7cbe812630d7fe99993903df0e028e604051611a8190614fad565b60405180910390a25050565b611a9e611a9861227a565b8361233b565b611add576040517f08c379a0000000000000000000000000000000000000000000000000000000008152600401611ad4906149c3565b60405180910390fd5b611ae984848484612be9565b50505050565b6060611afa82612c45565b9050919050565b5b6001601180549050611b149190614bc1565b811015611bd5576011600182611b2a9190614fcd565b81548110611b3b57611b3a614695565b5b9060005260206000200160009054906101000a900473ffffffffffffffffffffffffffffffffffffffff1660118281548110611b7a57611b79614695565b5b9060005260206000200160006101000a81548173ffffffffffffffffffffffffffffffffffffffff021916908373ffffffffffffffffffffffffffffffffffffffff1602179055508080611bcd906146f3565b915050611b02565b6011805480611be757611be6615023565b5b6001900381819060005260206000200160006101000a81549073ffffffffffffffffffffffffffffffffffffffff0219169055905550565b601360009054906101000a900473ffffffffffffffffffffffffffffffffffffffff1681565b611c4e82610de4565b611c5781612065565b611c61838361276a565b505050565b6060604051806080016040528060518152602001615cc460519139905090565b6000600560008473ffffffffffffffffffffffffffffffffffffffff1673ffffffffffffffffffffffffffffffffffffffff16815260200190815260200160002060008373ffffffffffffffffffffffffffffffffffffffff1673ffffffffffffffffffffffffffffffffffffffff16815260200190815260200160002060009054906101000a900460ff16905092915050565b6000801b611d2781612065565b611d517f9894090c012e113e817b2d99a7f6ad3e666491f10820f12b8bc4b139f2ea06bb8361276a565b8173ffffffffffffffffffffffffffffffffffffffff163373ffffffffffffffffffffffffffffffffffffffff167feca259f65afeb664520e27bcf53a29a7a276df0172960fd342f01ff705ba3b9560405160405180910390a35050565b606060006002836002611dc291906149e3565b611dcc9190614fcd565b67ffffffffffffffff811115611de557611de46142f5565b5b6040519080825280601f01601f191660200182016040528015611e175781602001600182028036833780820191505090505b5090507f300000000000000000000000000000000000000000000000000000000000000081600081518110611e4f57611e4e614695565b5b60200101907effffffffffffffffffffffffffffffffffffffffffffffffffffffffffffff1916908160001a9053507f780000000000000000000000000000000000000000000000000000000000000081600181518110611eb357611eb2614695565b5b60200101907effffffffffffffffffffffffffffffffffffffffffffffffffffffffffffff1916908160001a90535060006001846002611ef391906149e3565b611efd9190614fcd565b90505b6001811115611f9d577f3031323334353637383961626364656600000000000000000000000000000000600f861660108110611f3f57611f3e614695565b5b1a60f81b828281518110611f5657611f55614695565b5b60200101907effffffffffffffffffffffffffffffffffffffffffffffffffffffffffffff1916908160001a905350600485901c945080611f9690615052565b9050611f00565b5060008414611fe1576040517f08c379a0000000000000000000000000000000000000000000000000000000008152600401611fd8906150c7565b60405180910390fd5b8091505092915050565b60007f2a55205a000000000000000000000000000000000000000000000000000000007bffffffffffffffffffffffffffffffffffffffffffffffffffffffff1916827bffffffffffffffffffffffffffffffffffffffffffffffffffffffff1916148061205e575061205d82612d96565b5b9050919050565b6120768161207161227a565b612e10565b50565b61208161267f565b6bffffffffffffffffffffffff16816bffffffffffffffffffffffff1611156120df576040517f08c379a00000000000000000000000000000000000000000000000000000000081526004016120d690615159565b60405180910390fd5b600073ffffffffffffffffffffffffffffffffffffffff168273ffffffffffffffffffffffffffffffffffffffff160361214e576040517f08c379a0000000000000000000000000000000000000000000000000000000008152600401612145906151c5565b60405180910390fd5b60405180604001604052808373ffffffffffffffffffffffffffffffffffffffff168152602001826bffffffffffffffffffffffff16815250600d60008201518160000160006101000a81548173ffffffffffffffffffffffffffffffffffffffff021916908373ffffffffffffffffffffffffffffffffffffffff16021790555060208201518160000160146101000a8154816bffffffffffffffffffffffff02191690836bffffffffffffffffffffffff1602179055509050505050565b60008073ffffffffffffffffffffffffffffffffffffffff166002600084815260200190815260200160002060009054906101000a900473ffffffffffffffffffffffffffffffffffffffff1673ffffffffffffffffffffffffffffffffffffffff1614159050919050565b600033905090565b816004600083815260200190815260200160002060006101000a81548173ffffffffffffffffffffffffffffffffffffffff021916908373ffffffffffffffffffffffffffffffffffffffff160217905550808273ffffffffffffffffffffffffffffffffffffffff166122f583611687565b73ffffffffffffffffffffffffffffffffffffffff167f8c5be1e5ebec7d5bd14f71427d1e84f3dd0314c0f7b2291e5b200ac8c7c3b92560405160405180910390a45050565b60006123468261220e565b612385576040517f08c379a000000000000000000000000000000000000000000000000000000000815260040161237c90615257565b60405180910390fd5b600061239083611687565b90508073ffffffffffffffffffffffffffffffffffffffff168473ffffffffffffffffffffffffffffffffffffffff1614806123d257506123d18185611c86565b5b8061241057508373ffffffffffffffffffffffffffffffffffffffff166123f884610bb5565b73ffffffffffffffffffffffffffffffffffffffff16145b91505092915050565b8273ffffffffffffffffffffffffffffffffffffffff1661243982611687565b73ffffffffffffffffffffffffffffffffffffffff161461248f576040517f08c379a0000000000000000000000000000000000000000000000000000000008152600401612486906152e9565b60405180910390fd5b600073ffffffffffffffffffffffffffffffffffffffff168273ffffffffffffffffffffffffffffffffffffffff16036124fe576040517f08c379a00000000000000000000000000000000000000000000000000000000081526004016124f59061537b565b60405180910390fd5b612509838383612ead565b612514600082612282565b6001600360008573ffffffffffffffffffffffffffffffffffffffff1673ffffffffffffffffffffffffffffffffffffffff16815260200190815260200160002060008282546125649190614bc1565b925050819055506001600360008473ffffffffffffffffffffffffffffffffffffffff1673ffffffffffffffffffffffffffffffffffffffff16815260200190815260200160002060008282546125bb9190614fcd565b92505081905550816002600083815260200190815260200160002060006101000a81548173ffffffffffffffffffffffffffffffffffffffff021916908373ffffffffffffffffffffffffffffffffffffffff160217905550808273ffffffffffffffffffffffffffffffffffffffff168473ffffffffffffffffffffffffffffffffffffffff167fddf252ad1be2c89b69c2b068fc378daa952ba7f163c4a11628f55a4df523b3ef60405160405180910390a461267a838383612f05565b505050565b6000612710905090565b6126938282611842565b612766576001600c600084815260200190815260200160002060000160008373ffffffffffffffffffffffffffffffffffffffff1673ffffffffffffffffffffffffffffffffffffffff16815260200190815260200160002060006101000a81548160ff02191690831515021790555061270b61227a565b73ffffffffffffffffffffffffffffffffffffffff168173ffffffffffffffffffffffffffffffffffffffff16837f2f8788117e7eff1d82e926ec794901d17c78024a50270940304540a733656f0d60405160405180910390a45b5050565b6127748282611842565b15612848576000600c600084815260200190815260200160002060000160008373ffffffffffffffffffffffffffffffffffffffff1673ffffffffffffffffffffffffffffffffffffffff16815260200190815260200160002060006101000a81548160ff0219169083151502179055506127ed61227a565b73ffffffffffffffffffffffffffffffffffffffff168173ffffffffffffffffffffffffffffffffffffffff16837ff6391f5c32d9c69d2a47ea670b442974b53935d1edc7fd64eb21e047a839171b60405160405180910390a45b5050565b612854611670565b612893576040517f08c379a000000000000000000000000000000000000000000000000000000000815260040161288a906153e7565b60405180910390fd5b6000600b60006101000a81548160ff0219169083151502179055507f5db9ee0a495bf2e6ff9c91a7834c1ba4fdd244a5e8aa4e537bd38aeae4b073aa6128d761227a565b6040516128e49190613feb565b60405180910390a1565b6128f781612f0a565b50565b600081600001549050919050565b6001816000016000828254019250508190555050565b612938828260405180602001604052806000815250612f5d565b5050565b6129458261220e565b612984576040517f08c379a000000000000000000000000000000000000000000000000000000000815260040161297b90615479565b60405180910390fd5b80600a600084815260200190815260200160002090816129a49190615645565b505050565b6129b1611670565b156129f1576040517f08c379a00000000000000000000000000000000000000000000000000000000081526004016129e890615763565b60405180910390fd5b6001600b60006101000a81548160ff0219169083151502179055507f62e78cea01bee320cd4e420270b5ea74000d11b0c9f74754ebdbfc544b05a258612a3561227a565b604051612a429190613feb565b60405180910390a1565b8173ffffffffffffffffffffffffffffffffffffffff168373ffffffffffffffffffffffffffffffffffffffff1603612aba576040517f08c379a0000000000000000000000000000000000000000000000000000000008152600401612ab1906157cf565b60405180910390fd5b80600560008573ffffffffffffffffffffffffffffffffffffffff1673ffffffffffffffffffffffffffffffffffffffff16815260200190815260200160002060008473ffffffffffffffffffffffffffffffffffffffff1673ffffffffffffffffffffffffffffffffffffffff16815260200190815260200160002060006101000a81548160ff0219169083151502179055508173ffffffffffffffffffffffffffffffffffffffff168373ffffffffffffffffffffffffffffffffffffffff167f17307eab39ab6107e8899845ad3d59bd9653f200f220920489ca2b5937696c3183604051612bab9190613d6a565b60405180910390a3505050565b6000612bc4600f6128fa565b9050612bd0600f612908565b612bda838261291e565b612be4818361293c565b505050565b612bf4848484612419565b612c0084848484612fb8565b612c3f576040517f08c379a0000000000000000000000000000000000000000000000000000000008152600401612c3690615861565b60405180910390fd5b50505050565b6060612c508261220e565b612c8f576040517f08c379a0000000000000000000000000000000000000000000000000000000008152600401612c86906158f3565b60405180910390fd5b6000600a60008481526020019081526020016000208054612caf9061476a565b80601f0160208091040260200160405190810160405280929190818152602001828054612cdb9061476a565b8015612d285780601f10612cfd57610100808354040283529160200191612d28565b820191906000526020600020905b815481529060010190602001808311612d0b57829003601f168201915b505050505090506000612d3961313f565b90506000815103612d4e578192505050612d91565b600082511115612d83578082604051602001612d6b92919061594f565b60405160208183030381529060405292505050612d91565b612d8c84613156565b925050505b919050565b60007f7965db0b000000000000000000000000000000000000000000000000000000007bffffffffffffffffffffffffffffffffffffffffffffffffffffffff1916827bffffffffffffffffffffffffffffffffffffffffffffffffffffffff19161480612e095750612e08826131fd565b5b9050919050565b612e1a8282611842565b612ea957612e3f8173ffffffffffffffffffffffffffffffffffffffff166014611daf565b612e4d8360001c6020611daf565b604051602001612e5e929190615a0b565b6040516020818303038152906040526040517f08c379a0000000000000000000000000000000000000000000000000000000008152600401612ea09190613f61565b60405180910390fd5b5050565b612eb5611670565b15612ef5576040517f08c379a0000000000000000000000000000000000000000000000000000000008152600401612eec90615763565b60405180910390fd5b612f00838383613277565b505050565b505050565b612f1381613389565b6000600a60008381526020019081526020016000208054612f339061476a565b905014612f5a57600a60008281526020019081526020016000206000612f599190613c59565b5b50565b612f6783836134a6565b612f746000848484612fb8565b612fb3576040517f08c379a0000000000000000000000000000000000000000000000000000000008152600401612faa90615861565b60405180910390fd5b505050565b6000612fd98473ffffffffffffffffffffffffffffffffffffffff1661367f565b15613132578373ffffffffffffffffffffffffffffffffffffffff1663150b7a0261300261227a565b8786866040518563ffffffff1660e01b81526004016130249493929190615a9a565b6020604051808303816000875af192505050801561306057506040513d601f19601f8201168201806040525081019061305d9190615afb565b60015b6130e2573d8060008114613090576040519150601f19603f3d011682016040523d82523d6000602084013e613095565b606091505b5060008151036130da576040517f08c379a00000000000000000000000000000000000000000000000000000000081526004016130d190615861565b60405180910390fd5b805181602001fd5b63150b7a0260e01b7bffffffffffffffffffffffffffffffffffffffffffffffffffffffff1916817bffffffffffffffffffffffffffffffffffffffffffffffffffffffff191614915050613137565b600190505b949350505050565b606060405180602001604052806000815250905090565b60606131618261220e565b6131a0576040517f08c379a000000000000000000000000000000000000000000000000000000000815260040161319790615b9a565b60405180910390fd5b60006131aa61313f565b905060008151116131ca57604051806020016040528060008152506131f5565b806131d4846136a2565b6040516020016131e592919061594f565b6040516020818303038152906040525b915050919050565b60007f780e9d63000000000000000000000000000000000000000000000000000000007bffffffffffffffffffffffffffffffffffffffffffffffffffffffff1916827bffffffffffffffffffffffffffffffffffffffffffffffffffffffff19161480613270575061326f82613802565b5b9050919050565b6132828383836138e4565b600073ffffffffffffffffffffffffffffffffffffffff168373ffffffffffffffffffffffffffffffffffffffff16036132c4576132bf816138e9565b613303565b8173ffffffffffffffffffffffffffffffffffffffff168373ffffffffffffffffffffffffffffffffffffffff1614613302576133018382613932565b5b5b600073ffffffffffffffffffffffffffffffffffffffff168273ffffffffffffffffffffffffffffffffffffffff16036133455761334081613a9f565b613384565b8273ffffffffffffffffffffffffffffffffffffffff168273ffffffffffffffffffffffffffffffffffffffff1614613383576133828282613b70565b5b5b505050565b600061339482611687565b90506133a281600084612ead565b6133ad600083612282565b6001600360008373ffffffffffffffffffffffffffffffffffffffff1673ffffffffffffffffffffffffffffffffffffffff16815260200190815260200160002060008282546133fd9190614bc1565b925050819055506002600083815260200190815260200160002060006101000a81549073ffffffffffffffffffffffffffffffffffffffff021916905581600073ffffffffffffffffffffffffffffffffffffffff168273ffffffffffffffffffffffffffffffffffffffff167fddf252ad1be2c89b69c2b068fc378daa952ba7f163c4a11628f55a4df523b3ef60405160405180910390a46134a281600084612f05565b5050565b600073ffffffffffffffffffffffffffffffffffffffff168273ffffffffffffffffffffffffffffffffffffffff1603613515576040517f08c379a000000000000000000000000000000000000000000000000000000000815260040161350c90615c06565b60405180910390fd5b61351e8161220e565b1561355e576040517f08c379a000000000000000000000000000000000000000000000000000000000815260040161355590615c72565b60405180910390fd5b61356a60008383612ead565b6001600360008473ffffffffffffffffffffffffffffffffffffffff1673ffffffffffffffffffffffffffffffffffffffff16815260200190815260200160002060008282546135ba9190614fcd565b92505081905550816002600083815260200190815260200160002060006101000a81548173ffffffffffffffffffffffffffffffffffffffff021916908373ffffffffffffffffffffffffffffffffffffffff160217905550808273ffffffffffffffffffffffffffffffffffffffff16600073ffffffffffffffffffffffffffffffffffffffff167fddf252ad1be2c89b69c2b068fc378daa952ba7f163c4a11628f55a4df523b3ef60405160405180910390a461367b60008383612f05565b5050565b6000808273ffffffffffffffffffffffffffffffffffffffff163b119050919050565b6060600082036136e9576040518060400160405280600181526020017f300000000000000000000000000000000000000000000000000000000000000081525090506137fd565b600082905060005b6000821461371b578080613704906146f3565b915050600a826137149190614a6c565b91506136f1565b60008167ffffffffffffffff811115613737576137366142f5565b5b6040519080825280601f01601f1916602001820160405280156137695781602001600182028036833780820191505090505b5090505b600085146137f6576001826137829190614bc1565b9150600a856137919190615c92565b603061379d9190614fcd565b60f81b8183815181106137b3576137b2614695565b5b60200101907effffffffffffffffffffffffffffffffffffffffffffffffffffffffffffff1916908160001a905350600a856137ef9190614a6c565b945061376d565b8093505050505b919050565b60007f80ac58cd000000000000000000000000000000000000000000000000000000007bffffffffffffffffffffffffffffffffffffffffffffffffffffffff1916827bffffffffffffffffffffffffffffffffffffffffffffffffffffffff191614806138cd57507f5b5e139f000000000000000000000000000000000000000000000000000000007bffffffffffffffffffffffffffffffffffffffffffffffffffffffff1916827bffffffffffffffffffffffffffffffffffffffffffffffffffffffff1916145b806138dd57506138dc82613bef565b5b9050919050565b505050565b6008805490506009600083815260200190815260200160002081905550600881908060018154018082558091505060019003906000526020600020016000909190919091505550565b6000600161393f84611738565b6139499190614bc1565b9050600060076000848152602001908152602001600020549050818114613a2e576000600660008673ffffffffffffffffffffffffffffffffffffffff1673ffffffffffffffffffffffffffffffffffffffff168152602001908152602001600020600084815260200190815260200160002054905080600660008773ffffffffffffffffffffffffffffffffffffffff1673ffffffffffffffffffffffffffffffffffffffff168152602001908152602001600020600084815260200190815260200160002081905550816007600083815260200190815260200160002081905550505b6007600084815260200190815260200160002060009055600660008573ffffffffffffffffffffffffffffffffffffffff1673ffffffffffffffffffffffffffffffffffffffff16815260200190815260200160002060008381526020019081526020016000206000905550505050565b60006001600880549050613ab39190614bc1565b9050600060096000848152602001908152602001600020549050600060088381548110613ae357613ae2614695565b5b906000526020600020015490508060088381548110613b0557613b04614695565b5b906000526020600020018190555081600960008381526020019081526020016000208190555060096000858152602001908152602001600020600090556008805480613b5457613b53615023565b5b6001900381819060005260206000200160009055905550505050565b6000613b7b83611738565b905081600660008573ffffffffffffffffffffffffffffffffffffffff1673ffffffffffffffffffffffffffffffffffffffff168152602001908152602001600020600083815260200190815260200160002081905550806007600084815260200190815260200160002081905550505050565b60007f01ffc9a7000000000000000000000000000000000000000000000000000000007bffffffffffffffffffffffffffffffffffffffffffffffffffffffff1916827bffffffffffffffffffffffffffffffffffffffffffffffffffffffff1916149050919050565b508054613c659061476a565b6000825580601f10613c775750613c96565b601f016020900490600052602060002090810190613c959190613c99565b5b50565b5b80821115613cb2576000816000905550600101613c9a565b5090565b6000604051905090565b600080fd5b600080fd5b60007fffffffff0000000000000000000000000000000000000000000000000000000082169050919050565b613cff81613cca565b8114613d0a57600080fd5b50565b600081359050613d1c81613cf6565b92915050565b600060208284031215613d3857613d37613cc0565b5b6000613d4684828501613d0d565b91505092915050565b60008115159050919050565b613d6481613d4f565b82525050565b6000602082019050613d7f6000830184613d5b565b92915050565b600073ffffffffffffffffffffffffffffffffffffffff82169050919050565b6000613db082613d85565b9050919050565b613dc081613da5565b8114613dcb57600080fd5b50565b600081359050613ddd81613db7565b92915050565b60006bffffffffffffffffffffffff82169050919050565b613e0481613de3565b8114613e0f57600080fd5b50565b600081359050613e2181613dfb565b92915050565b60008060408385031215613e3e57613e3d613cc0565b5b6000613e4c85828601613dce565b9250506020613e5d85828601613e12565b9150509250929050565b600060208284031215613e7d57613e7c613cc0565b5b6000613e8b84828501613dce565b91505092915050565b6000819050919050565b613ea781613e94565b82525050565b6000602082019050613ec26000830184613e9e565b92915050565b600081519050919050565b600082825260208201905092915050565b60005b83811015613f02578082015181840152602081019050613ee7565b83811115613f11576000848401525b50505050565b6000601f19601f8301169050919050565b6000613f3382613ec8565b613f3d8185613ed3565b9350613f4d818560208601613ee4565b613f5681613f17565b840191505092915050565b60006020820190508181036000830152613f7b8184613f28565b905092915050565b613f8c81613e94565b8114613f9757600080fd5b50565b600081359050613fa981613f83565b92915050565b600060208284031215613fc557613fc4613cc0565b5b6000613fd384828501613f9a565b91505092915050565b613fe581613da5565b82525050565b60006020820190506140006000830184613fdc565b92915050565b6000806040838503121561401d5761401c613cc0565b5b600061402b85828601613dce565b925050602061403c85828601613f9a565b9150509250929050565b600061405182613d85565b9050919050565b61406181614046565b82525050565b600060208201905061407c6000830184614058565b92915050565b60008060006060848603121561409b5761409a613cc0565b5b60006140a986828701613dce565b93505060206140ba86828701613dce565b92505060406140cb86828701613f9a565b9150509250925092565b6000819050919050565b6140e8816140d5565b81146140f357600080fd5b50565b600081359050614105816140df565b92915050565b60006020828403121561412157614120613cc0565b5b600061412f848285016140f6565b91505092915050565b614141816140d5565b82525050565b600060208201905061415c6000830184614138565b92915050565b6000806040838503121561417957614178613cc0565b5b600061418785828601613f9a565b925050602061419885828601613f9a565b9150509250929050565b60006040820190506141b76000830185613fdc565b6141c46020830184613e9e565b9392505050565b600080604083850312156141e2576141e1613cc0565b5b60006141f0858286016140f6565b925050602061420185828601613dce565b9150509250929050565b600081519050919050565b600082825260208201905092915050565b6000819050602082019050919050565b61424081613da5565b82525050565b60006142528383614237565b60208301905092915050565b6000602082019050919050565b60006142768261420b565b6142808185614216565b935061428b83614227565b8060005b838110156142bc5781516142a38882614246565b97506142ae8361425e565b92505060018101905061428f565b5085935050505092915050565b600060208201905081810360008301526142e3818461426b565b905092915050565b600080fd5b600080fd5b7f4e487b7100000000000000000000000000000000000000000000000000000000600052604160045260246000fd5b61432d82613f17565b810181811067ffffffffffffffff8211171561434c5761434b6142f5565b5b80604052505050565b600061435f613cb6565b905061436b8282614324565b919050565b600067ffffffffffffffff82111561438b5761438a6142f5565b5b61439482613f17565b9050602081019050919050565b82818337600083830152505050565b60006143c36143be84614370565b614355565b9050828152602081018484840111156143df576143de6142f0565b5b6143ea8482856143a1565b509392505050565b600082601f830112614407576144066142eb565b5b81356144178482602086016143b0565b91505092915050565b6000806040838503121561443757614436613cc0565b5b600061444585828601613dce565b925050602083013567ffffffffffffffff81111561446657614465613cc5565b5b614472858286016143f2565b9150509250929050565b61448581613d4f565b811461449057600080fd5b50565b6000813590506144a28161447c565b92915050565b600080604083850312156144bf576144be613cc0565b5b60006144cd85828601613dce565b92505060206144de85828601614493565b9150509250929050565b6000602082840312156144fe576144fd613cc0565b5b600082013567ffffffffffffffff81111561451c5761451b613cc5565b5b614528848285016143f2565b91505092915050565b600067ffffffffffffffff82111561454c5761454b6142f5565b5b61455582613f17565b9050602081019050919050565b600061457561457084614531565b614355565b905082815260208101848484011115614591576145906142f0565b5b61459c8482856143a1565b509392505050565b600082601f8301126145b9576145b86142eb565b5b81356145c9848260208601614562565b91505092915050565b600080600080608085870312156145ec576145eb613cc0565b5b60006145fa87828801613dce565b945050602061460b87828801613dce565b935050604061461c87828801613f9a565b925050606085013567ffffffffffffffff81111561463d5761463c613cc5565b5b614649878288016145a4565b91505092959194509250565b6000806040838503121561466c5761466b613cc0565b5b600061467a85828601613dce565b925050602061468b85828601613dce565b9150509250929050565b7f4e487b7100000000000000000000000000000000000000000000000000000000600052603260045260246000fd5b7f4e487b7100000000000000000000000000000000000000000000000000000000600052601160045260246000fd5b60006146fe82613e94565b91507fffffffffffffffffffffffffffffffffffffffffffffffffffffffffffffffff82036147305761472f6146c4565b5b600182019050919050565b7f4e487b7100000000000000000000000000000000000000000000000000000000600052602260045260246000fd5b6000600282049050600182168061478257607f821691505b6020821081036147955761479461473b565b5b50919050565b7f4552433732313a20617070726f76656420717565727920666f72206e6f6e657860008201527f697374656e7420746f6b656e0000000000000000000000000000000000000000602082015250565b60006147f7602c83613ed3565b91506148028261479b565b604082019050919050565b60006020820190508181036000830152614826816147ea565b9050919050565b7f4552433732313a20617070726f76616c20746f2063757272656e74206f776e6560008201527f7200000000000000000000000000000000000000000000000000000000000000602082015250565b6000614889602183613ed3565b91506148948261482d565b604082019050919050565b600060208201905081810360008301526148b88161487c565b9050919050565b7f4552433732313a20617070726f76652063616c6c6572206973206e6f74206f7760008201527f6e6572206e6f7220617070726f76656420666f7220616c6c0000000000000000602082015250565b600061491b603883613ed3565b9150614926826148bf565b604082019050919050565b6000602082019050818103600083015261494a8161490e565b9050919050565b7f4552433732313a207472616e736665722063616c6c6572206973206e6f74206f60008201527f776e6572206e6f7220617070726f766564000000000000000000000000000000602082015250565b60006149ad603183613ed3565b91506149b882614951565b604082019050919050565b600060208201905081810360008301526149dc816149a0565b9050919050565b60006149ee82613e94565b91506149f983613e94565b9250817fffffffffffffffffffffffffffffffffffffffffffffffffffffffffffffffff0483118215151615614a3257614a316146c4565b5b828202905092915050565b7f4e487b7100000000000000000000000000000000000000000000000000000000600052601260045260246000fd5b6000614a7782613e94565b9150614a8283613e94565b925082614a9257614a91614a3d565b5b828204905092915050565b7f455243373231456e756d657261626c653a206f776e657220696e646578206f7560008201527f74206f6620626f756e6473000000000000000000000000000000000000000000602082015250565b6000614af9602b83613ed3565b9150614b0482614a9d565b604082019050919050565b60006020820190508181036000830152614b2881614aec565b9050919050565b7f416363657373436f6e74726f6c3a2063616e206f6e6c792072656e6f756e636560008201527f20726f6c657320666f722073656c660000000000000000000000000000000000602082015250565b6000614b8b602f83613ed3565b9150614b9682614b2f565b604082019050919050565b60006020820190508181036000830152614bba81614b7e565b9050919050565b6000614bcc82613e94565b9150614bd783613e94565b925082821015614bea57614be96146c4565b5b828203905092915050565b7f4163636f756e742f6164647265737320726567697374657265642e0000000000600082015250565b6000614c2b601b83613ed3565b9150614c3682614bf5565b602082019050919050565b60006020820190508181036000830152614c5a81614c1e565b9050919050565b7f546865206163636f756e742f6164647265737320686173206265656e2073756360008201527f6365737366756c6c7920726567697374657265642e0000000000000000000000602082015250565b6000614cbd603583613ed3565b9150614cc882614c61565b604082019050919050565b60006020820190508181036000830152614cec81614cb0565b9050919050565b7f4552433732314275726e61626c653a2063616c6c6572206973206e6f74206f7760008201527f6e6572206e6f7220617070726f76656400000000000000000000000000000000602082015250565b6000614d4f603083613ed3565b9150614d5a82614cf3565b604082019050919050565b60006020820190508181036000830152614d7e81614d42565b9050919050565b7f455243373231456e756d657261626c653a20676c6f62616c20696e646578206f60008201527f7574206f6620626f756e64730000000000000000000000000000000000000000602082015250565b6000614de1602c83613ed3565b9150614dec82614d85565b604082019050919050565b60006020820190508181036000830152614e1081614dd4565b9050919050565b7f4552433732313a206f776e657220717565727920666f72206e6f6e657869737460008201527f656e7420746f6b656e0000000000000000000000000000000000000000000000602082015250565b6000614e73602983613ed3565b9150614e7e82614e17565b604082019050919050565b60006020820190508181036000830152614ea281614e66565b9050919050565b7f4552433732313a2062616c616e636520717565727920666f7220746865207a6560008201527f726f206164647265737300000000000000000000000000000000000000000000602082015250565b6000614f05602a83613ed3565b9150614f1082614ea9565b604082019050919050565b60006020820190508181036000830152614f3481614ef8565b9050919050565b7f546865206d696e74696e6720686173206265656e20646f6e6520636f7272656360008201527f746c792e00000000000000000000000000000000000000000000000000000000602082015250565b6000614f97602483613ed3565b9150614fa282614f3b565b604082019050919050565b60006020820190508181036000830152614fc681614f8a565b9050919050565b6000614fd882613e94565b9150614fe383613e94565b9250827fffffffffffffffffffffffffffffffffffffffffffffffffffffffffffffffff03821115615018576150176146c4565b5b828201905092915050565b7f4e487b7100000000000000000000000000000000000000000000000000000000600052603160045260246000fd5b600061505d82613e94565b9150600082036150705761506f6146c4565b5b600182039050919050565b7f537472696e67733a20686578206c656e67746820696e73756666696369656e74600082015250565b60006150b1602083613ed3565b91506150bc8261507b565b602082019050919050565b600060208201905081810360008301526150e0816150a4565b9050919050565b7f455243323938313a20726f79616c7479206665652077696c6c2065786365656460008201527f2073616c65507269636500000000000000000000000000000000000000000000602082015250565b6000615143602a83613ed3565b915061514e826150e7565b604082019050919050565b6000602082019050818103600083015261517281615136565b9050919050565b7f455243323938313a20696e76616c696420726563656976657200000000000000600082015250565b60006151af601983613ed3565b91506151ba82615179565b602082019050919050565b600060208201905081810360008301526151de816151a2565b9050919050565b7f4552433732313a206f70657261746f7220717565727920666f72206e6f6e657860008201527f697374656e7420746f6b656e0000000000000000000000000000000000000000602082015250565b6000615241602c83613ed3565b915061524c826151e5565b604082019050919050565b6000602082019050818103600083015261527081615234565b9050919050565b7f4552433732313a207472616e736665722066726f6d20696e636f72726563742060008201527f6f776e6572000000000000000000000000000000000000000000000000000000602082015250565b60006152d3602583613ed3565b91506152de82615277565b604082019050919050565b60006020820190508181036000830152615302816152c6565b9050919050565b7f4552433732313a207472616e7366657220746f20746865207a65726f2061646460008201527f7265737300000000000000000000000000000000000000000000000000000000602082015250565b6000615365602483613ed3565b915061537082615309565b604082019050919050565b6000602082019050818103600083015261539481615358565b9050919050565b7f5061757361626c653a206e6f7420706175736564000000000000000000000000600082015250565b60006153d1601483613ed3565b91506153dc8261539b565b602082019050919050565b60006020820190508181036000830152615400816153c4565b9050919050565b7f45524337323155524953746f726167653a2055524920736574206f66206e6f6e60008201527f6578697374656e7420746f6b656e000000000000000000000000000000000000602082015250565b6000615463602e83613ed3565b915061546e82615407565b604082019050919050565b6000602082019050818103600083015261549281615456565b9050919050565b60008190508160005260206000209050919050565b60006020601f8301049050919050565b600082821b905092915050565b6000600883026154fb7fffffffffffffffffffffffffffffffffffffffffffffffffffffffffffffffff826154be565b61550586836154be565b95508019841693508086168417925050509392505050565b6000819050919050565b600061554261553d61553884613e94565b61551d565b613e94565b9050919050565b6000819050919050565b61555c83615527565b61557061556882615549565b8484546154cb565b825550505050565b600090565b615585615578565b615590818484615553565b505050565b5b818110156155b4576155a960008261557d565b600181019050615596565b5050565b601f8211156155f9576155ca81615499565b6155d3846154ae565b810160208510156155e2578190505b6155f66155ee856154ae565b830182615595565b50505b505050565b600082821c905092915050565b600061561c600019846008026155fe565b1980831691505092915050565b6000615635838361560b565b9150826002028217905092915050565b61564e82613ec8565b67ffffffffffffffff811115615667576156666142f5565b5b615671825461476a565b61567c8282856155b8565b600060209050601f8311600181146156af576000841561569d578287015190505b6156a78582615629565b86555061570f565b601f1984166156bd86615499565b60005b828110156156e5578489015182556001820191506020850194506020810190506156c0565b8683101561570257848901516156fe601f89168261560b565b8355505b6001600288020188555050505b505050505050565b7f5061757361626c653a2070617573656400000000000000000000000000000000600082015250565b600061574d601083613ed3565b915061575882615717565b602082019050919050565b6000602082019050818103600083015261577c81615740565b9050919050565b7f4552433732313a20617070726f766520746f2063616c6c657200000000000000600082015250565b60006157b9601983613ed3565b91506157c482615783565b602082019050919050565b600060208201905081810360008301526157e8816157ac565b9050919050565b7f4552433732313a207472616e7366657220746f206e6f6e20455243373231526560008201527f63656976657220696d706c656d656e7465720000000000000000000000000000602082015250565b600061584b603283613ed3565b9150615856826157ef565b604082019050919050565b6000602082019050818103600083015261587a8161583e565b9050919050565b7f45524337323155524953746f726167653a2055524920717565727920666f722060008201527f6e6f6e6578697374656e7420746f6b656e000000000000000000000000000000602082015250565b60006158dd603183613ed3565b91506158e882615881565b604082019050919050565b6000602082019050818103600083015261590c816158d0565b9050919050565b600081905092915050565b600061592982613ec8565b6159338185615913565b9350615943818560208601613ee4565b80840191505092915050565b600061595b828561591e565b9150615967828461591e565b91508190509392505050565b7f416363657373436f6e74726f6c3a206163636f756e7420000000000000000000600082015250565b60006159a9601783615913565b91506159b482615973565b601782019050919050565b7f206973206d697373696e6720726f6c6520000000000000000000000000000000600082015250565b60006159f5601183615913565b9150615a00826159bf565b601182019050919050565b6000615a168261599c565b9150615a22828561591e565b9150615a2d826159e8565b9150615a39828461591e565b91508190509392505050565b600081519050919050565b600082825260208201905092915050565b6000615a6c82615a45565b615a768185615a50565b9350615a86818560208601613ee4565b615a8f81613f17565b840191505092915050565b6000608082019050615aaf6000830187613fdc565b615abc6020830186613fdc565b615ac96040830185613e9e565b8181036060830152615adb8184615a61565b905095945050505050565b600081519050615af581613cf6565b92915050565b600060208284031215615b1157615b10613cc0565b5b6000615b1f84828501615ae6565b91505092915050565b7f4552433732314d657461646174613a2055524920717565727920666f72206e6f60008201527f6e6578697374656e7420746f6b656e0000000000000000000000000000000000602082015250565b6000615b84602f83613ed3565b9150615b8f82615b28565b604082019050919050565b60006020820190508181036000830152615bb381615b77565b9050919050565b7f4552433732313a206d696e7420746f20746865207a65726f2061646472657373600082015250565b6000615bf0602083613ed3565b9150615bfb82615bba565b602082019050919050565b60006020820190508181036000830152615c1f81615be3565b9050919050565b7f4552433732313a20746f6b656e20616c7265616479206d696e74656400000000600082015250565b6000615c5c601c83613ed3565b9150615c6782615c26565b602082019050919050565b60006020820190508181036000830152615c8b81615c4f565b9050919050565b6000615c9d82613e94565b9150615ca883613e94565b925082615cb857615cb7614a3d565b5b82820690509291505056fe68747470733a2f2f697066732e696f2f697066732f6261666b7265696177336e6836746876366534783337686c76707978326d7533746c66327a6c636a32626b796e786c62746433737376786f79636d2fa2646970667358221220357f22b28581bfce7a88cb029668b4bae110e4716f85e0154ea0ae8b3a46322d64736f6c634300080f0033",
  "immutableReferences": {},
  "source": "// SPDX-License-Identifier: MIT\npragma solidity ^0.8.4;\n\nimport \"@openzeppelin/contracts/token/ERC721/ERC721.sol\";\nimport \"@openzeppelin/contracts/token/ERC721/extensions/ERC721Enumerable.sol\";\nimport \"@openzeppelin/contracts/token/ERC721/extensions/ERC721URIStorage.sol\";\nimport \"@openzeppelin/contracts/security/Pausable.sol\";\nimport \"@openzeppelin/contracts/access/AccessControl.sol\";\nimport \"@openzeppelin/contracts/token/ERC721/extensions/ERC721Burnable.sol\";\nimport \"@openzeppelin/contracts/utils/Counters.sol\";\nimport \"@openzeppelin/contracts/token/common/ERC2981.sol\";\n\n\ncontract CryptoTicketsMatchNFTs is \n    ERC721, \n    ERC721Enumerable, \n    ERC721URIStorage, \n    Pausable, \n    AccessControl, \n    ERC721Burnable,\n    ERC2981\n{\n    using Counters for Counters.Counter;\n\n    bytes32 public constant ADMIN_CLUB_ROLE = keccak256(\"ADMIN_CLUB_ROLE\");\n    Counters.Counter private _matchIdCounter;\n\n    string contractURL;\n\n    address[] public listSubscriber;\n\n    address payable public club;\n    address public newOwner;\n\n    uint private basePrice;\n    bool private activeContract;\n\n    uint96 private royaltyFeesInBips = 1000;\n\n    event Status(string _message);\n    event MsgInfoAccountListOk(string _message, address indexed account);\n    event MsgInfoAccountListKo(string _message, address indexed account);\n    event MsgInfoMinted(string _message, address indexed account);\n    event ClubAdminRoleGranted(address indexed sender, address indexed clubAddress);\n    event ClubAdminRoleRevoked(address indexed sender, address indexed clubAddress);\n\n    struct MatchTransactionTicket{\n        address ownerAccount;\n        uint tokenId;\n        string typeTicket;\n        uint price;\n        //Aadir fecha de vencimiento del token\n    }\n\n    constructor() ERC721(\"CryptoTicketsMatchNFTs\", \"CTKMN\"){\n        _grantRole(DEFAULT_ADMIN_ROLE, msg.sender);\n        _grantRole(ADMIN_CLUB_ROLE, msg.sender);\n        //uri=ipfs://bafkreic3xz5cssins4ihcyoo27kcmflwmgqvpbm2stpr3xfxxnsykgkali/season\n        \n        activeContract = true;\n        \n        setRoyaltyInfo(msg.sender, royaltyFeesInBips);\n    }\n\n    function contractURI() public pure returns (string memory) {\n        return \"https://ipfs.io/ipfs/bafkreiaw3nh6thv6e4x37hlvpyx2mu3tlf2zlcj2bkynxlbtd3ssvxoycm/\";\n    }\n\n    function pause() public onlyRole(ADMIN_CLUB_ROLE) {\n        _pause();\n    }\n\n    function unpause() public onlyRole(ADMIN_CLUB_ROLE) {\n        _unpause();\n    }\n\n    function mint(address to, string memory uri) private {\n        uint256 matchId = _matchIdCounter.current();\n        _matchIdCounter.increment();\n        _safeMint(to, matchId);\n        _setTokenURI(matchId, uri);\n    }\n\n    function mintTicket(address to, string memory uri) public payable {\n        uint256 matchId = _matchIdCounter.current();\n        _matchIdCounter.increment();\n        _safeMint(to, matchId);\n        _setTokenURI(matchId, uri);\n    }\n\n    //The tokens for each of the matches are minted to the list of subscribers\n    function mintMatch(string memory uri) public onlyRole(ADMIN_CLUB_ROLE) {\n       //uri=ipfs://bafybeidpaq5ba6237nat7nmj6yjrkfv2i3qdjj5tnh6kt4b7l7xd3te4u4/season0\n        for (uint i = 0; i<listSubscriber.length; i++){\n            mint(listSubscriber[i], uri);\n        }\n        emit MsgInfoMinted(\"The minting has been done correctly.\", msg.sender);\n    }\n\n    function _beforeTokenTransfer(address from, address to, uint256 matchId)\n        internal\n        whenNotPaused\n        override(ERC721, ERC721Enumerable)\n    {\n        super._beforeTokenTransfer(from, to, matchId);\n    }\n\n    function _burn(uint256 matchId) internal override(ERC721, ERC721URIStorage) {\n        super._burn(matchId);\n    }\n    \n    function burnTicket(uint256 tokenId) public  {\n        _burn(tokenId);\n    }\n\n    function tokenURI(uint256 matchId)\n        public\n        view\n        override(ERC721, ERC721URIStorage)\n        returns (string memory)\n    {\n        return super.tokenURI(matchId);\n    }\n\n    function supportsInterface(bytes4 interfaceId)\n        public\n        view\n        override(ERC721, ERC721Enumerable, ERC2981, AccessControl)\n        returns (bool)\n    {\n        return super.supportsInterface(interfaceId);\n    }\n\n    function grantAdminRol(address account) public onlyRole(DEFAULT_ADMIN_ROLE) {\n        _grantRole(DEFAULT_ADMIN_ROLE, account);\n    }\n\n    function grantClubRol(address account) public onlyRole(DEFAULT_ADMIN_ROLE) {\n        _grantRole(ADMIN_CLUB_ROLE, account);\n        emit ClubAdminRoleGranted(msg.sender, account);\n    }\n\n    function revokeClubRol(address account)\n        public\n        onlyRole(DEFAULT_ADMIN_ROLE)\n    {\n        _revokeRole(ADMIN_CLUB_ROLE, account);\n        emit ClubAdminRoleRevoked(msg.sender, account);\n    }\n\n    function addAddress(address account) public onlyRole(DEFAULT_ADMIN_ROLE){\n        if (listSubscriber.length>0){\n            bool exist;\n            for (uint i = 0; i<listSubscriber.length-1; i++){\n                if(listSubscriber[i] == account){\n                    emit MsgInfoAccountListKo(\"Account/address registered.\", account);\n                    break;\n                }else{\n                    exist = false;\n                }\n            }\n            if(!exist){\n                    listSubscriber.push(account);\n                    emit MsgInfoAccountListOk(\"The account/address has been successfully registered.\", account);\n                }\n        } else {\n            listSubscriber.push(account);\n            emit MsgInfoAccountListOk(\"The account/address has been successfully registered.\", account);\n        }\n    }\n\n    function getAddressInfo() public view returns(address[] memory){\n        return(listSubscriber);\n    }\n\n    function findAddress(address value) public view returns(uint) {\n        uint i = 0;\n        while (listSubscriber[i] != value) {\n            i++;\n        }\n        return i;\n    }\n\n    function removeAddress(address value) public{\n        uint i = findAddress(value);\n        removeAddressByIndex(i);\n    }\n\n    function removeAddressByIndex(uint i) public{\n        while (i<listSubscriber.length-1) {\n            listSubscriber[i] = listSubscriber[i+1];\n            i++;\n        }\n        listSubscriber.pop();\n    }\n\n/*\n    function approve(address to, uint256 tokenId) public {    \n        address owner = ownerOf(tokenId);    \n        require(to != owner);    \n        require(msg.sender == owner || isApprovedForAll(owner, msg.sender));    \n        _tokenApprovals[tokenId] = to;    \n        emit Approval(owner, to, tokenId);\n        }\n*/\n\n/*\n    function buyMatchTicket() public payable{\n        if(activeContract == false){\n            emit Status(\"No es posible realizar la compra, el contrato esta inactivo.\");\n        } else {\n            if (msg.value > basePrice){\n                // Se realiza la transferencia del precio de la entrada al club\n                club.transfer(msg.value - basePrice);\n                //Deshabilitamos el contrato\n                activeContract = false;\n                emit Status(\"La compra de la entrada se ha realizado correctamente.\");\n            } else {\n                emit Status(\"No es posible la compra, el importe no es suficiente\");\n            }\n        }\n    }\n*/\n    function setRoyaltyInfo(address _receiver, uint96 _royaltyFeesInBips) public onlyRole(DEFAULT_ADMIN_ROLE) {\n        _setDefaultRoyalty(_receiver, _royaltyFeesInBips);\n    }\n\n}\n",
  "sourcePath": "/Users/dosorio/Proyectos/Blockchain/SportTickets/contracts/CryptoTicketsMatchNFTs.sol",
  "compiler": {
    "name": "solc",
    "version": "0.8.15+commit.e14f2714.Emscripten.clang"
  },
  "schemaVersion": "3.4.7",
  "updatedAt": "2022-07-02T15:46:35.749Z",
  "networkType": "ethereum",
  "devdoc": {
    "kind": "dev",
    "methods": {
      "approve(address,uint256)": {
        "details": "See {IERC721-approve}."
      },
      "balanceOf(address)": {
        "details": "See {IERC721-balanceOf}."
      },
      "burn(uint256)": {
        "details": "Burns `tokenId`. See {ERC721-_burn}. Requirements: - The caller must own `tokenId` or be an approved operator."
      },
      "getApproved(uint256)": {
        "details": "See {IERC721-getApproved}."
      },
      "getRoleAdmin(bytes32)": {
        "details": "Returns the admin role that controls `role`. See {grantRole} and {revokeRole}. To change a role's admin, use {_setRoleAdmin}."
      },
      "grantRole(bytes32,address)": {
        "details": "Grants `role` to `account`. If `account` had not been already granted `role`, emits a {RoleGranted} event. Requirements: - the caller must have ``role``'s admin role."
      },
      "hasRole(bytes32,address)": {
        "details": "Returns `true` if `account` has been granted `role`."
      },
      "isApprovedForAll(address,address)": {
        "details": "See {IERC721-isApprovedForAll}."
      },
      "name()": {
        "details": "See {IERC721Metadata-name}."
      },
      "ownerOf(uint256)": {
        "details": "See {IERC721-ownerOf}."
      },
      "paused()": {
        "details": "Returns true if the contract is paused, and false otherwise."
      },
      "renounceRole(bytes32,address)": {
        "details": "Revokes `role` from the calling account. Roles are often managed via {grantRole} and {revokeRole}: this function's purpose is to provide a mechanism for accounts to lose their privileges if they are compromised (such as when a trusted device is misplaced). If the calling account had been revoked `role`, emits a {RoleRevoked} event. Requirements: - the caller must be `account`."
      },
      "revokeRole(bytes32,address)": {
        "details": "Revokes `role` from `account`. If `account` had been granted `role`, emits a {RoleRevoked} event. Requirements: - the caller must have ``role``'s admin role."
      },
      "royaltyInfo(uint256,uint256)": {
        "details": "Returns how much royalty is owed and to whom, based on a sale price that may be denominated in any unit of exchange. The royalty amount is denominated and should be paid in that same unit of exchange."
      },
      "safeTransferFrom(address,address,uint256)": {
        "details": "See {IERC721-safeTransferFrom}."
      },
      "safeTransferFrom(address,address,uint256,bytes)": {
        "details": "See {IERC721-safeTransferFrom}."
      },
      "setApprovalForAll(address,bool)": {
        "details": "See {IERC721-setApprovalForAll}."
      },
      "symbol()": {
        "details": "See {IERC721Metadata-symbol}."
      },
      "tokenByIndex(uint256)": {
        "details": "See {IERC721Enumerable-tokenByIndex}."
      },
      "tokenOfOwnerByIndex(address,uint256)": {
        "details": "See {IERC721Enumerable-tokenOfOwnerByIndex}."
      },
      "totalSupply()": {
        "details": "See {IERC721Enumerable-totalSupply}."
      },
      "transferFrom(address,address,uint256)": {
        "details": "See {IERC721-transferFrom}."
      }
    },
    "version": 1
  },
  "userdoc": {
    "kind": "user",
    "methods": {},
    "version": 1
  }
}