{
  "contractName": "CryptoTicketsRewards",
  "abi": [
    {
      "inputs": [],
      "stateMutability": "nonpayable",
      "type": "constructor"
    },
    {
      "anonymous": false,
      "inputs": [
        {
          "indexed": true,
          "internalType": "address",
          "name": "owner",
          "type": "address"
        },
        {
          "indexed": true,
          "internalType": "address",
          "name": "approved",
          "type": "address"
        },
        {
          "indexed": true,
          "internalType": "uint256",
          "name": "tokenId",
          "type": "uint256"
        }
      ],
      "name": "Approval",
      "type": "event"
    },
    {
      "anonymous": false,
      "inputs": [
        {
          "indexed": true,
          "internalType": "address",
          "name": "owner",
          "type": "address"
        },
        {
          "indexed": true,
          "internalType": "address",
          "name": "operator",
          "type": "address"
        },
        {
          "indexed": false,
          "internalType": "bool",
          "name": "approved",
          "type": "bool"
        }
      ],
      "name": "ApprovalForAll",
      "type": "event"
    },
    {
      "anonymous": false,
      "inputs": [
        {
          "indexed": false,
          "internalType": "string",
          "name": "_message",
          "type": "string"
        },
        {
          "indexed": true,
          "internalType": "address",
          "name": "account",
          "type": "address"
        }
      ],
      "name": "MsgInfoAccountListOk",
      "type": "event"
    },
    {
      "anonymous": false,
      "inputs": [
        {
          "indexed": false,
          "internalType": "string",
          "name": "_message",
          "type": "string"
        },
        {
          "indexed": true,
          "internalType": "address",
          "name": "account",
          "type": "address"
        }
      ],
      "name": "MsgInfoMinted",
      "type": "event"
    },
    {
      "anonymous": false,
      "inputs": [
        {
          "indexed": false,
          "internalType": "address",
          "name": "account",
          "type": "address"
        }
      ],
      "name": "Paused",
      "type": "event"
    },
    {
      "anonymous": false,
      "inputs": [
        {
          "indexed": true,
          "internalType": "bytes32",
          "name": "role",
          "type": "bytes32"
        },
        {
          "indexed": true,
          "internalType": "bytes32",
          "name": "previousAdminRole",
          "type": "bytes32"
        },
        {
          "indexed": true,
          "internalType": "bytes32",
          "name": "newAdminRole",
          "type": "bytes32"
        }
      ],
      "name": "RoleAdminChanged",
      "type": "event"
    },
    {
      "anonymous": false,
      "inputs": [
        {
          "indexed": true,
          "internalType": "bytes32",
          "name": "role",
          "type": "bytes32"
        },
        {
          "indexed": true,
          "internalType": "address",
          "name": "account",
          "type": "address"
        },
        {
          "indexed": true,
          "internalType": "address",
          "name": "sender",
          "type": "address"
        }
      ],
      "name": "RoleGranted",
      "type": "event"
    },
    {
      "anonymous": false,
      "inputs": [
        {
          "indexed": true,
          "internalType": "bytes32",
          "name": "role",
          "type": "bytes32"
        },
        {
          "indexed": true,
          "internalType": "address",
          "name": "account",
          "type": "address"
        },
        {
          "indexed": true,
          "internalType": "address",
          "name": "sender",
          "type": "address"
        }
      ],
      "name": "RoleRevoked",
      "type": "event"
    },
    {
      "anonymous": false,
      "inputs": [
        {
          "indexed": false,
          "internalType": "string",
          "name": "_message",
          "type": "string"
        }
      ],
      "name": "Status",
      "type": "event"
    },
    {
      "anonymous": false,
      "inputs": [
        {
          "indexed": true,
          "internalType": "address",
          "name": "from",
          "type": "address"
        },
        {
          "indexed": true,
          "internalType": "address",
          "name": "to",
          "type": "address"
        },
        {
          "indexed": true,
          "internalType": "uint256",
          "name": "tokenId",
          "type": "uint256"
        }
      ],
      "name": "Transfer",
      "type": "event"
    },
    {
      "anonymous": false,
      "inputs": [
        {
          "indexed": false,
          "internalType": "address",
          "name": "account",
          "type": "address"
        }
      ],
      "name": "Unpaused",
      "type": "event"
    },
    {
      "inputs": [],
      "name": "DEFAULT_ADMIN_ROLE",
      "outputs": [
        {
          "internalType": "bytes32",
          "name": "",
          "type": "bytes32"
        }
      ],
      "stateMutability": "view",
      "type": "function",
      "constant": true
    },
    {
      "inputs": [
        {
          "internalType": "address",
          "name": "to",
          "type": "address"
        },
        {
          "internalType": "uint256",
          "name": "tokenId",
          "type": "uint256"
        }
      ],
      "name": "approve",
      "outputs": [],
      "stateMutability": "nonpayable",
      "type": "function"
    },
    {
      "inputs": [
        {
          "internalType": "address",
          "name": "owner",
          "type": "address"
        }
      ],
      "name": "balanceOf",
      "outputs": [
        {
          "internalType": "uint256",
          "name": "",
          "type": "uint256"
        }
      ],
      "stateMutability": "view",
      "type": "function",
      "constant": true
    },
    {
      "inputs": [
        {
          "internalType": "uint256",
          "name": "tokenId",
          "type": "uint256"
        }
      ],
      "name": "burn",
      "outputs": [],
      "stateMutability": "nonpayable",
      "type": "function"
    },
    {
      "inputs": [],
      "name": "club",
      "outputs": [
        {
          "internalType": "address payable",
          "name": "",
          "type": "address"
        }
      ],
      "stateMutability": "view",
      "type": "function",
      "constant": true
    },
    {
      "inputs": [
        {
          "internalType": "uint256",
          "name": "tokenId",
          "type": "uint256"
        }
      ],
      "name": "getApproved",
      "outputs": [
        {
          "internalType": "address",
          "name": "",
          "type": "address"
        }
      ],
      "stateMutability": "view",
      "type": "function",
      "constant": true
    },
    {
      "inputs": [
        {
          "internalType": "bytes32",
          "name": "role",
          "type": "bytes32"
        }
      ],
      "name": "getRoleAdmin",
      "outputs": [
        {
          "internalType": "bytes32",
          "name": "",
          "type": "bytes32"
        }
      ],
      "stateMutability": "view",
      "type": "function",
      "constant": true
    },
    {
      "inputs": [
        {
          "internalType": "bytes32",
          "name": "role",
          "type": "bytes32"
        },
        {
          "internalType": "address",
          "name": "account",
          "type": "address"
        }
      ],
      "name": "grantRole",
      "outputs": [],
      "stateMutability": "nonpayable",
      "type": "function"
    },
    {
      "inputs": [
        {
          "internalType": "bytes32",
          "name": "role",
          "type": "bytes32"
        },
        {
          "internalType": "address",
          "name": "account",
          "type": "address"
        }
      ],
      "name": "hasRole",
      "outputs": [
        {
          "internalType": "bool",
          "name": "",
          "type": "bool"
        }
      ],
      "stateMutability": "view",
      "type": "function",
      "constant": true
    },
    {
      "inputs": [
        {
          "internalType": "address",
          "name": "owner",
          "type": "address"
        },
        {
          "internalType": "address",
          "name": "operator",
          "type": "address"
        }
      ],
      "name": "isApprovedForAll",
      "outputs": [
        {
          "internalType": "bool",
          "name": "",
          "type": "bool"
        }
      ],
      "stateMutability": "view",
      "type": "function",
      "constant": true
    },
    {
      "inputs": [
        {
          "internalType": "uint256",
          "name": "",
          "type": "uint256"
        }
      ],
      "name": "listUserRewards",
      "outputs": [
        {
          "internalType": "address",
          "name": "",
          "type": "address"
        }
      ],
      "stateMutability": "view",
      "type": "function",
      "constant": true
    },
    {
      "inputs": [],
      "name": "name",
      "outputs": [
        {
          "internalType": "string",
          "name": "",
          "type": "string"
        }
      ],
      "stateMutability": "view",
      "type": "function",
      "constant": true
    },
    {
      "inputs": [
        {
          "internalType": "uint256",
          "name": "tokenId",
          "type": "uint256"
        }
      ],
      "name": "ownerOf",
      "outputs": [
        {
          "internalType": "address",
          "name": "",
          "type": "address"
        }
      ],
      "stateMutability": "view",
      "type": "function",
      "constant": true
    },
    {
      "inputs": [],
      "name": "paused",
      "outputs": [
        {
          "internalType": "bool",
          "name": "",
          "type": "bool"
        }
      ],
      "stateMutability": "view",
      "type": "function",
      "constant": true
    },
    {
      "inputs": [
        {
          "internalType": "bytes32",
          "name": "role",
          "type": "bytes32"
        },
        {
          "internalType": "address",
          "name": "account",
          "type": "address"
        }
      ],
      "name": "renounceRole",
      "outputs": [],
      "stateMutability": "nonpayable",
      "type": "function"
    },
    {
      "inputs": [
        {
          "internalType": "bytes32",
          "name": "role",
          "type": "bytes32"
        },
        {
          "internalType": "address",
          "name": "account",
          "type": "address"
        }
      ],
      "name": "revokeRole",
      "outputs": [],
      "stateMutability": "nonpayable",
      "type": "function"
    },
    {
      "inputs": [
        {
          "internalType": "address",
          "name": "from",
          "type": "address"
        },
        {
          "internalType": "address",
          "name": "to",
          "type": "address"
        },
        {
          "internalType": "uint256",
          "name": "tokenId",
          "type": "uint256"
        }
      ],
      "name": "safeTransferFrom",
      "outputs": [],
      "stateMutability": "nonpayable",
      "type": "function"
    },
    {
      "inputs": [
        {
          "internalType": "address",
          "name": "from",
          "type": "address"
        },
        {
          "internalType": "address",
          "name": "to",
          "type": "address"
        },
        {
          "internalType": "uint256",
          "name": "tokenId",
          "type": "uint256"
        },
        {
          "internalType": "bytes",
          "name": "_data",
          "type": "bytes"
        }
      ],
      "name": "safeTransferFrom",
      "outputs": [],
      "stateMutability": "nonpayable",
      "type": "function"
    },
    {
      "inputs": [
        {
          "internalType": "address",
          "name": "operator",
          "type": "address"
        },
        {
          "internalType": "bool",
          "name": "approved",
          "type": "bool"
        }
      ],
      "name": "setApprovalForAll",
      "outputs": [],
      "stateMutability": "nonpayable",
      "type": "function"
    },
    {
      "inputs": [],
      "name": "symbol",
      "outputs": [
        {
          "internalType": "string",
          "name": "",
          "type": "string"
        }
      ],
      "stateMutability": "view",
      "type": "function",
      "constant": true
    },
    {
      "inputs": [
        {
          "internalType": "uint256",
          "name": "index",
          "type": "uint256"
        }
      ],
      "name": "tokenByIndex",
      "outputs": [
        {
          "internalType": "uint256",
          "name": "",
          "type": "uint256"
        }
      ],
      "stateMutability": "view",
      "type": "function",
      "constant": true
    },
    {
      "inputs": [
        {
          "internalType": "address",
          "name": "owner",
          "type": "address"
        },
        {
          "internalType": "uint256",
          "name": "index",
          "type": "uint256"
        }
      ],
      "name": "tokenOfOwnerByIndex",
      "outputs": [
        {
          "internalType": "uint256",
          "name": "",
          "type": "uint256"
        }
      ],
      "stateMutability": "view",
      "type": "function",
      "constant": true
    },
    {
      "inputs": [],
      "name": "totalSupply",
      "outputs": [
        {
          "internalType": "uint256",
          "name": "",
          "type": "uint256"
        }
      ],
      "stateMutability": "view",
      "type": "function",
      "constant": true
    },
    {
      "inputs": [
        {
          "internalType": "address",
          "name": "from",
          "type": "address"
        },
        {
          "internalType": "address",
          "name": "to",
          "type": "address"
        },
        {
          "internalType": "uint256",
          "name": "tokenId",
          "type": "uint256"
        }
      ],
      "name": "transferFrom",
      "outputs": [],
      "stateMutability": "nonpayable",
      "type": "function"
    },
    {
      "inputs": [],
      "name": "getBaseURI",
      "outputs": [
        {
          "internalType": "string",
          "name": "",
          "type": "string"
        },
        {
          "internalType": "uint256",
          "name": "",
          "type": "uint256"
        }
      ],
      "stateMutability": "view",
      "type": "function",
      "constant": true
    },
    {
      "inputs": [
        {
          "internalType": "string",
          "name": "newBaseURI",
          "type": "string"
        },
        {
          "internalType": "uint256",
          "name": "numElements",
          "type": "uint256"
        }
      ],
      "name": "setBaseURI",
      "outputs": [],
      "stateMutability": "nonpayable",
      "type": "function"
    },
    {
      "inputs": [],
      "name": "pause",
      "outputs": [],
      "stateMutability": "nonpayable",
      "type": "function"
    },
    {
      "inputs": [],
      "name": "unpause",
      "outputs": [],
      "stateMutability": "nonpayable",
      "type": "function"
    },
    {
      "inputs": [],
      "name": "mintReward",
      "outputs": [],
      "stateMutability": "nonpayable",
      "type": "function"
    },
    {
      "inputs": [
        {
          "internalType": "uint256",
          "name": "tokenId",
          "type": "uint256"
        }
      ],
      "name": "burnReward",
      "outputs": [],
      "stateMutability": "nonpayable",
      "type": "function"
    },
    {
      "inputs": [
        {
          "internalType": "uint256",
          "name": "rewardId",
          "type": "uint256"
        }
      ],
      "name": "tokenURI",
      "outputs": [
        {
          "internalType": "string",
          "name": "",
          "type": "string"
        }
      ],
      "stateMutability": "view",
      "type": "function",
      "constant": true
    },
    {
      "inputs": [
        {
          "internalType": "bytes4",
          "name": "interfaceId",
          "type": "bytes4"
        }
      ],
      "name": "supportsInterface",
      "outputs": [
        {
          "internalType": "bool",
          "name": "",
          "type": "bool"
        }
      ],
      "stateMutability": "view",
      "type": "function",
      "constant": true
    },
    {
      "inputs": [
        {
          "internalType": "address",
          "name": "account",
          "type": "address"
        }
      ],
      "name": "grantAdminRol",
      "outputs": [],
      "stateMutability": "nonpayable",
      "type": "function"
    },
    {
      "inputs": [
        {
          "internalType": "address",
          "name": "account",
          "type": "address"
        }
      ],
      "name": "addListForRewards",
      "outputs": [],
      "stateMutability": "nonpayable",
      "type": "function"
    },
    {
      "inputs": [],
      "name": "getListAddressRewardsInfo",
      "outputs": [
        {
          "internalType": "address[]",
          "name": "",
          "type": "address[]"
        }
      ],
      "stateMutability": "view",
      "type": "function",
      "constant": true
    }
  ],
  "bytecode": "0x60806040526006600e556040518060800160405280604381526020016200555660439139600f9081620000339190620004e9565b503480156200004157600080fd5b506040518060400160405280601481526020017f43727970746f5469636b657473526577617264730000000000000000000000008152506040518060400160405280600581526020017f43544b52570000000000000000000000000000000000000000000000000000008152508160009081620000bf9190620004e9565b508060019081620000d19190620004e9565b5050506000600b60006101000a81548160ff021916908315150217905550620001046000801b336200010a60201b60201c565b620005d0565b6200011c8282620001fc60201b60201c565b620001f8576001600c600084815260200190815260200160002060000160008373ffffffffffffffffffffffffffffffffffffffff1673ffffffffffffffffffffffffffffffffffffffff16815260200190815260200160002060006101000a81548160ff0219169083151502179055506200019d6200026760201b60201c565b73ffffffffffffffffffffffffffffffffffffffff168173ffffffffffffffffffffffffffffffffffffffff16837f2f8788117e7eff1d82e926ec794901d17c78024a50270940304540a733656f0d60405160405180910390a45b5050565b6000600c600084815260200190815260200160002060000160008373ffffffffffffffffffffffffffffffffffffffff1673ffffffffffffffffffffffffffffffffffffffff16815260200190815260200160002060009054906101000a900460ff16905092915050565b600033905090565b600081519050919050565b7f4e487b7100000000000000000000000000000000000000000000000000000000600052604160045260246000fd5b7f4e487b7100000000000000000000000000000000000000000000000000000000600052602260045260246000fd5b60006002820490506001821680620002f157607f821691505b602082108103620003075762000306620002a9565b5b50919050565b60008190508160005260206000209050919050565b60006020601f8301049050919050565b600082821b905092915050565b600060088302620003717fffffffffffffffffffffffffffffffffffffffffffffffffffffffffffffffff8262000332565b6200037d868362000332565b95508019841693508086168417925050509392505050565b6000819050919050565b6000819050919050565b6000620003ca620003c4620003be8462000395565b6200039f565b62000395565b9050919050565b6000819050919050565b620003e683620003a9565b620003fe620003f582620003d1565b8484546200033f565b825550505050565b600090565b6200041562000406565b62000422818484620003db565b505050565b5b818110156200044a576200043e6000826200040b565b60018101905062000428565b5050565b601f821115620004995762000463816200030d565b6200046e8462000322565b810160208510156200047e578190505b620004966200048d8562000322565b83018262000427565b50505b505050565b600082821c905092915050565b6000620004be600019846008026200049e565b1980831691505092915050565b6000620004d98383620004ab565b9150826002028217905092915050565b620004f4826200026f565b67ffffffffffffffff81111562000510576200050f6200027a565b5b6200051c8254620002d8565b620005298282856200044e565b600060209050601f8311600181146200056157600084156200054c578287015190505b620005588582620004cb565b865550620005c8565b601f19841662000571866200030d565b60005b828110156200059b5784890151825560018201915060208501945060208101905062000574565b86831015620005bb5784890151620005b7601f891682620004ab565b8355505b6001600288020188555050505b505050505050565b614f7680620005e06000396000f3fe608060405234801561001057600080fd5b50600436106102105760003560e01c806342966c681161012557806391d14854116100ad578063b5e8cf021161007c578063b5e8cf02146105ec578063b88d4fde14610608578063c87b56dd14610624578063d547741f14610654578063e985e9c51461067057610210565b806391d148541461056457806395d89b4114610594578063a217fddf146105b2578063a22cb465146105d057610210565b80636ed2c6cf116100f45780636ed2c6cf146104d357806370a08231146104ef578063714c53981461051f5780637367c0d01461053e5780638456cb591461055a57610210565b806342966c68146104395780634f6ccce7146104555780635c975abb146104855780636352211e146104a357610210565b806323b872dd116101a85780632f50c0df116101775780632f50c0df146103975780632f745c59146103c757806336568abe146103f75780633f4ba83a1461041357806342842e0e1461041d57610210565b806323b872dd14610311578063248a9ca31461032d5780632eabd0f11461035d5780632f2ff15d1461037b57610210565b8063095ea7b3116101e4578063095ea7b3146102af5780630efd0973146102cb578063174f57af146102e957806318160ddd146102f357610210565b80629f25ff1461021557806301ffc9a71461023157806306fdde0314610261578063081812fc1461027f575b600080fd5b61022f600480360381019061022a91906132fb565b6106a0565b005b61024b600480360381019061024691906133af565b6106c9565b60405161025891906133f7565b60405180910390f35b6102696106db565b604051610276919061349a565b60405180910390f35b610299600480360381019061029491906134bc565b61076d565b6040516102a6919061352a565b60405180910390f35b6102c960048036038101906102c49190613571565b6107f2565b005b6102d3610909565b6040516102e091906135d2565b60405180910390f35b6102f161092f565b005b6102fb610a47565b60405161030891906135fc565b60405180910390f35b61032b60048036038101906103269190613617565b610a54565b005b610347600480360381019061034291906136a0565b610ab4565b60405161035491906136dc565b60405180910390f35b610365610ad4565b60405161037291906137b5565b60405180910390f35b610395600480360381019061039091906137d7565b610b70565b005b6103b160048036038101906103ac91906134bc565b610b91565b6040516103be919061352a565b60405180910390f35b6103e160048036038101906103dc9190613571565b610bd0565b6040516103ee91906135fc565b60405180910390f35b610411600480360381019061040c91906137d7565b610c75565b005b61041b610cf8565b005b61043760048036038101906104329190613617565b610d10565b005b610453600480360381019061044e91906134bc565b610d30565b005b61046f600480360381019061046a91906134bc565b610d8c565b60405161047c91906135fc565b60405180910390f35b61048d610dfd565b60405161049a91906133f7565b60405180910390f35b6104bd60048036038101906104b891906134bc565b610e14565b6040516104ca919061352a565b60405180910390f35b6104ed60048036038101906104e89190613817565b610ec5565b005b61050960048036038101906105049190613817565b610f85565b60405161051691906135fc565b60405180910390f35b61052761103c565b604051610535929190613844565b60405180910390f35b61055860048036038101906105539190613817565b6110d9565b005b6105626110f7565b005b61057e600480360381019061057991906137d7565b61110f565b60405161058b91906133f7565b60405180910390f35b61059c61117a565b6040516105a9919061349a565b60405180910390f35b6105ba61120c565b6040516105c791906136dc565b60405180910390f35b6105ea60048036038101906105e591906138a0565b611213565b005b610606600480360381019061060191906134bc565b611229565b005b610622600480360381019061061d9190613981565b611235565b005b61063e600480360381019061063991906134bc565b611297565b60405161064b919061349a565b60405180910390f35b61066e600480360381019061066991906137d7565b6112a9565b005b61068a60048036038101906106859190613a04565b6112ca565b60405161069791906133f7565b60405180910390f35b6000801b6106ad8161135e565b81600e8190555082600f90816106c39190613c50565b50505050565b60006106d482611372565b9050919050565b6060600080546106ea90613a73565b80601f016020809104026020016040519081016040528092919081815260200182805461071690613a73565b80156107635780601f1061073857610100808354040283529160200191610763565b820191906000526020600020905b81548152906001019060200180831161074657829003601f168201915b5050505050905090565b6000610778826113ec565b6107b7576040517f08c379a00000000000000000000000000000000000000000000000000000000081526004016107ae90613d94565b60405180910390fd5b6004600083815260200190815260200160002060009054906101000a900473ffffffffffffffffffffffffffffffffffffffff169050919050565b60006107fd82610e14565b90508073ffffffffffffffffffffffffffffffffffffffff168373ffffffffffffffffffffffffffffffffffffffff160361086d576040517f08c379a000000000000000000000000000000000000000000000000000000000815260040161086490613e26565b60405180910390fd5b8073ffffffffffffffffffffffffffffffffffffffff1661088c611458565b73ffffffffffffffffffffffffffffffffffffffff1614806108bb57506108ba816108b5611458565b6112ca565b5b6108fa576040517f08c379a00000000000000000000000000000000000000000000000000000000081526004016108f190613eb8565b60405180910390fd5b6109048383611460565b505050565b601160009054906101000a900473ffffffffffffffffffffffffffffffffffffffff1681565b6000801b61093c8161135e565b610944610dfd565b15610984576040517f08c379a000000000000000000000000000000000000000000000000000000000815260040161097b90613f24565b60405180910390fd5b60005b6010805490508110156109ef576109dc601082815481106109ab576109aa613f44565b5b9060005260206000200160009054906101000a900473ffffffffffffffffffffffffffffffffffffffff1682611519565b80806109e790613fa2565b915050610987565b506109f8611560565b3373ffffffffffffffffffffffffffffffffffffffff167f4553e13ff316f97f423d1ae7592854a3db7cbe812630d7fe99993903df0e028e604051610a3c9061405c565b60405180910390a250565b6000600880549050905090565b610a65610a5f611458565b8261157e565b610aa4576040517f08c379a0000000000000000000000000000000000000000000000000000000008152600401610a9b906140ee565b60405180910390fd5b610aaf83838361165c565b505050565b6000600c6000838152602001908152602001600020600101549050919050565b60606000801b610ae38161135e565b6010805480602002602001604051908101604052809291908181526020018280548015610b6557602002820191906000526020600020905b8160009054906101000a900473ffffffffffffffffffffffffffffffffffffffff1673ffffffffffffffffffffffffffffffffffffffff1681526020019060010190808311610b1b575b505050505091505090565b610b7982610ab4565b610b828161135e565b610b8c83836118c2565b505050565b60108181548110610ba157600080fd5b906000526020600020016000915054906101000a900473ffffffffffffffffffffffffffffffffffffffff1681565b6000610bdb83610f85565b8210610c1c576040517f08c379a0000000000000000000000000000000000000000000000000000000008152600401610c1390614180565b60405180910390fd5b600660008473ffffffffffffffffffffffffffffffffffffffff1673ffffffffffffffffffffffffffffffffffffffff168152602001908152602001600020600083815260200190815260200160002054905092915050565b610c7d611458565b73ffffffffffffffffffffffffffffffffffffffff168173ffffffffffffffffffffffffffffffffffffffff1614610cea576040517f08c379a0000000000000000000000000000000000000000000000000000000008152600401610ce190614212565b60405180910390fd5b610cf482826119a3565b5050565b6000801b610d058161135e565b610d0d611a85565b50565b610d2b83838360405180602001604052806000815250611235565b505050565b610d41610d3b611458565b8261157e565b610d80576040517f08c379a0000000000000000000000000000000000000000000000000000000008152600401610d77906142a4565b60405180910390fd5b610d8981611b27565b50565b6000610d96610a47565b8210610dd7576040517f08c379a0000000000000000000000000000000000000000000000000000000008152600401610dce90614336565b60405180910390fd5b60088281548110610deb57610dea613f44565b5b90600052602060002001549050919050565b6000600b60009054906101000a900460ff16905090565b6000806002600084815260200190815260200160002060009054906101000a900473ffffffffffffffffffffffffffffffffffffffff169050600073ffffffffffffffffffffffffffffffffffffffff168173ffffffffffffffffffffffffffffffffffffffff1603610ebc576040517f08c379a0000000000000000000000000000000000000000000000000000000008152600401610eb3906143c8565b60405180910390fd5b80915050919050565b6000801b610ed28161135e565b6010829080600181540180825580915050600190039060005260206000200160009091909190916101000a81548173ffffffffffffffffffffffffffffffffffffffff021916908373ffffffffffffffffffffffffffffffffffffffff1602179055508173ffffffffffffffffffffffffffffffffffffffff167f8c5a800b232da4f063717d255d358a72560b410212770dd78b66b4e23133f77c604051610f7990614434565b60405180910390a25050565b60008073ffffffffffffffffffffffffffffffffffffffff168273ffffffffffffffffffffffffffffffffffffffff1603610ff5576040517f08c379a0000000000000000000000000000000000000000000000000000000008152600401610fec906144c6565b60405180910390fd5b600360008373ffffffffffffffffffffffffffffffffffffffff1673ffffffffffffffffffffffffffffffffffffffff168152602001908152602001600020549050919050565b60606000600f600e5481805461105190613a73565b80601f016020809104026020016040519081016040528092919081815260200182805461107d90613a73565b80156110ca5780601f1061109f576101008083540402835291602001916110ca565b820191906000526020600020905b8154815290600101906020018083116110ad57829003601f168201915b50505050509150915091509091565b6000801b6110e68161135e565b6110f36000801b836118c2565b5050565b6000801b6111048161135e565b61110c611b33565b50565b6000600c600084815260200190815260200160002060000160008373ffffffffffffffffffffffffffffffffffffffff1673ffffffffffffffffffffffffffffffffffffffff16815260200190815260200160002060009054906101000a900460ff16905092915050565b60606001805461118990613a73565b80601f01602080910402602001604051908101604052809291908181526020018280546111b590613a73565b80156112025780601f106111d757610100808354040283529160200191611202565b820191906000526020600020905b8154815290600101906020018083116111e557829003601f168201915b5050505050905090565b6000801b81565b61122561121e611458565b8383611bd6565b5050565b61123281611b27565b50565b611246611240611458565b8361157e565b611285576040517f08c379a000000000000000000000000000000000000000000000000000000000815260040161127c906140ee565b60405180910390fd5b61129184848484611d42565b50505050565b60606112a282611d9e565b9050919050565b6112b282610ab4565b6112bb8161135e565b6112c583836119a3565b505050565b6000600560008473ffffffffffffffffffffffffffffffffffffffff1673ffffffffffffffffffffffffffffffffffffffff16815260200190815260200160002060008373ffffffffffffffffffffffffffffffffffffffff1673ffffffffffffffffffffffffffffffffffffffff16815260200190815260200160002060009054906101000a900460ff16905092915050565b61136f8161136a611458565b611eef565b50565b60007f7965db0b000000000000000000000000000000000000000000000000000000007bffffffffffffffffffffffffffffffffffffffffffffffffffffffff1916827bffffffffffffffffffffffffffffffffffffffffffffffffffffffff191614806113e557506113e482611f8c565b5b9050919050565b60008073ffffffffffffffffffffffffffffffffffffffff166002600084815260200190815260200160002060009054906101000a900473ffffffffffffffffffffffffffffffffffffffff1673ffffffffffffffffffffffffffffffffffffffff1614159050919050565b600033905090565b816004600083815260200190815260200160002060006101000a81548173ffffffffffffffffffffffffffffffffffffffff021916908373ffffffffffffffffffffffffffffffffffffffff160217905550808273ffffffffffffffffffffffffffffffffffffffff166114d383610e14565b73ffffffffffffffffffffffffffffffffffffffff167f8c5be1e5ebec7d5bd14f71427d1e84f3dd0314c0f7b2291e5b200ac8c7c3b92560405160405180910390a45050565b6000611525600d612006565b9050611531600d612014565b61153b838261202a565b61155b8161155661154e600e5486612048565b60ff16612097565b6121f7565b505050565b6000801b61156d8161135e565b6010600061157b91906130ed565b50565b6000611589826113ec565b6115c8576040517f08c379a00000000000000000000000000000000000000000000000000000000081526004016115bf90614558565b60405180910390fd5b60006115d383610e14565b90508073ffffffffffffffffffffffffffffffffffffffff168473ffffffffffffffffffffffffffffffffffffffff161480611615575061161481856112ca565b5b8061165357508373ffffffffffffffffffffffffffffffffffffffff1661163b8461076d565b73ffffffffffffffffffffffffffffffffffffffff16145b91505092915050565b8273ffffffffffffffffffffffffffffffffffffffff1661167c82610e14565b73ffffffffffffffffffffffffffffffffffffffff16146116d2576040517f08c379a00000000000000000000000000000000000000000000000000000000081526004016116c9906145ea565b60405180910390fd5b600073ffffffffffffffffffffffffffffffffffffffff168273ffffffffffffffffffffffffffffffffffffffff1603611741576040517f08c379a00000000000000000000000000000000000000000000000000000000081526004016117389061467c565b60405180910390fd5b61174c838383612264565b611757600082611460565b6001600360008573ffffffffffffffffffffffffffffffffffffffff1673ffffffffffffffffffffffffffffffffffffffff16815260200190815260200160002060008282546117a7919061469c565b925050819055506001600360008473ffffffffffffffffffffffffffffffffffffffff1673ffffffffffffffffffffffffffffffffffffffff16815260200190815260200160002060008282546117fe91906146d0565b92505081905550816002600083815260200190815260200160002060006101000a81548173ffffffffffffffffffffffffffffffffffffffff021916908373ffffffffffffffffffffffffffffffffffffffff160217905550808273ffffffffffffffffffffffffffffffffffffffff168473ffffffffffffffffffffffffffffffffffffffff167fddf252ad1be2c89b69c2b068fc378daa952ba7f163c4a11628f55a4df523b3ef60405160405180910390a46118bd8383836122bc565b505050565b6118cc828261110f565b61199f576001600c600084815260200190815260200160002060000160008373ffffffffffffffffffffffffffffffffffffffff1673ffffffffffffffffffffffffffffffffffffffff16815260200190815260200160002060006101000a81548160ff021916908315150217905550611944611458565b73ffffffffffffffffffffffffffffffffffffffff168173ffffffffffffffffffffffffffffffffffffffff16837f2f8788117e7eff1d82e926ec794901d17c78024a50270940304540a733656f0d60405160405180910390a45b5050565b6119ad828261110f565b15611a81576000600c600084815260200190815260200160002060000160008373ffffffffffffffffffffffffffffffffffffffff1673ffffffffffffffffffffffffffffffffffffffff16815260200190815260200160002060006101000a81548160ff021916908315150217905550611a26611458565b73ffffffffffffffffffffffffffffffffffffffff168173ffffffffffffffffffffffffffffffffffffffff16837ff6391f5c32d9c69d2a47ea670b442974b53935d1edc7fd64eb21e047a839171b60405160405180910390a45b5050565b611a8d610dfd565b611acc576040517f08c379a0000000000000000000000000000000000000000000000000000000008152600401611ac390614772565b60405180910390fd5b6000600b60006101000a81548160ff0219169083151502179055507f5db9ee0a495bf2e6ff9c91a7834c1ba4fdd244a5e8aa4e537bd38aeae4b073aa611b10611458565b604051611b1d919061352a565b60405180910390a1565b611b30816122c1565b50565b611b3b610dfd565b15611b7b576040517f08c379a0000000000000000000000000000000000000000000000000000000008152600401611b7290613f24565b60405180910390fd5b6001600b60006101000a81548160ff0219169083151502179055507f62e78cea01bee320cd4e420270b5ea74000d11b0c9f74754ebdbfc544b05a258611bbf611458565b604051611bcc919061352a565b60405180910390a1565b8173ffffffffffffffffffffffffffffffffffffffff168373ffffffffffffffffffffffffffffffffffffffff1603611c44576040517f08c379a0000000000000000000000000000000000000000000000000000000008152600401611c3b906147de565b60405180910390fd5b80600560008573ffffffffffffffffffffffffffffffffffffffff1673ffffffffffffffffffffffffffffffffffffffff16815260200190815260200160002060008473ffffffffffffffffffffffffffffffffffffffff1673ffffffffffffffffffffffffffffffffffffffff16815260200190815260200160002060006101000a81548160ff0219169083151502179055508173ffffffffffffffffffffffffffffffffffffffff168373ffffffffffffffffffffffffffffffffffffffff167f17307eab39ab6107e8899845ad3d59bd9653f200f220920489ca2b5937696c3183604051611d3591906133f7565b60405180910390a3505050565b611d4d84848461165c565b611d5984848484612314565b611d98576040517f08c379a0000000000000000000000000000000000000000000000000000000008152600401611d8f90614870565b60405180910390fd5b50505050565b6060611da9826113ec565b611de8576040517f08c379a0000000000000000000000000000000000000000000000000000000008152600401611ddf90614902565b60405180910390fd5b6000600a60008481526020019081526020016000208054611e0890613a73565b80601f0160208091040260200160405190810160405280929190818152602001828054611e3490613a73565b8015611e815780601f10611e5657610100808354040283529160200191611e81565b820191906000526020600020905b815481529060010190602001808311611e6457829003601f168201915b505050505090506000611e9261249b565b90506000815103611ea7578192505050611eea565b600082511115611edc578082604051602001611ec492919061495e565b60405160208183030381529060405292505050611eea565b611ee58461252d565b925050505b919050565b611ef9828261110f565b611f8857611f1e8173ffffffffffffffffffffffffffffffffffffffff1660146125d4565b611f2c8360001c60206125d4565b604051602001611f3d929190614a1a565b6040516020818303038152906040526040517f08c379a0000000000000000000000000000000000000000000000000000000008152600401611f7f919061349a565b60405180910390fd5b5050565b60007f780e9d63000000000000000000000000000000000000000000000000000000007bffffffffffffffffffffffffffffffffffffffffffffffffffffffff1916827bffffffffffffffffffffffffffffffffffffffffffffffffffffffff19161480611fff5750611ffe82612810565b5b9050919050565b600081600001549050919050565b6001816000016000828254019250508190555050565b6120448282604051806020016040528060008152506128f2565b5050565b600060018342448560405160200161206293929190614a75565b6040516020818303038152906040528051906020012060001c6120859190614ae1565b61208f91906146d0565b905092915050565b6060600082036120de576040518060400160405280600181526020017f300000000000000000000000000000000000000000000000000000000000000081525090506121f2565b600082905060005b600082146121105780806120f990613fa2565b915050600a826121099190614b12565b91506120e6565b60008167ffffffffffffffff81111561212c5761212b61319a565b5b6040519080825280601f01601f19166020018201604052801561215e5781602001600182028036833780820191505090505b5090505b600085146121eb57600182612177919061469c565b9150600a856121869190614ae1565b603061219291906146d0565b60f81b8183815181106121a8576121a7613f44565b5b60200101907effffffffffffffffffffffffffffffffffffffffffffffffffffffffffffff1916908160001a905350600a856121e49190614b12565b9450612162565b8093505050505b919050565b612200826113ec565b61223f576040517f08c379a000000000000000000000000000000000000000000000000000000000815260040161223690614bb5565b60405180910390fd5b80600a6000848152602001908152602001600020908161225f9190613c50565b505050565b61226c610dfd565b156122ac576040517f08c379a00000000000000000000000000000000000000000000000000000000081526004016122a390613f24565b60405180910390fd5b6122b783838361294d565b505050565b505050565b6122ca81612a5f565b6000600a600083815260200190815260200160002080546122ea90613a73565b90501461231157600a60008281526020019081526020016000206000612310919061310e565b5b50565b60006123358473ffffffffffffffffffffffffffffffffffffffff16612b7c565b1561248e578373ffffffffffffffffffffffffffffffffffffffff1663150b7a0261235e611458565b8786866040518563ffffffff1660e01b81526004016123809493929190614c2a565b6020604051808303816000875af19250505080156123bc57506040513d601f19601f820116820180604052508101906123b99190614c8b565b60015b61243e573d80600081146123ec576040519150601f19603f3d011682016040523d82523d6000602084013e6123f1565b606091505b506000815103612436576040517f08c379a000000000000000000000000000000000000000000000000000000000815260040161242d90614870565b60405180910390fd5b805181602001fd5b63150b7a0260e01b7bffffffffffffffffffffffffffffffffffffffffffffffffffffffff1916817bffffffffffffffffffffffffffffffffffffffffffffffffffffffff191614915050612493565b600190505b949350505050565b6060600f80546124aa90613a73565b80601f01602080910402602001604051908101604052809291908181526020018280546124d690613a73565b80156125235780601f106124f857610100808354040283529160200191612523565b820191906000526020600020905b81548152906001019060200180831161250657829003601f168201915b5050505050905090565b6060612538826113ec565b612577576040517f08c379a000000000000000000000000000000000000000000000000000000000815260040161256e90614d2a565b60405180910390fd5b600061258161249b565b905060008151116125a157604051806020016040528060008152506125cc565b806125ab84612097565b6040516020016125bc92919061495e565b6040516020818303038152906040525b915050919050565b6060600060028360026125e79190614d4a565b6125f191906146d0565b67ffffffffffffffff81111561260a5761260961319a565b5b6040519080825280601f01601f19166020018201604052801561263c5781602001600182028036833780820191505090505b5090507f30000000000000000000000000000000000000000000000000000000000000008160008151811061267457612673613f44565b5b60200101907effffffffffffffffffffffffffffffffffffffffffffffffffffffffffffff1916908160001a9053507f7800000000000000000000000000000000000000000000000000000000000000816001815181106126d8576126d7613f44565b5b60200101907effffffffffffffffffffffffffffffffffffffffffffffffffffffffffffff1916908160001a905350600060018460026127189190614d4a565b61272291906146d0565b90505b60018111156127c2577f3031323334353637383961626364656600000000000000000000000000000000600f86166010811061276457612763613f44565b5b1a60f81b82828151811061277b5761277a613f44565b5b60200101907effffffffffffffffffffffffffffffffffffffffffffffffffffffffffffff1916908160001a905350600485901c9450806127bb90614da4565b9050612725565b5060008414612806576040517f08c379a00000000000000000000000000000000000000000000000000000000081526004016127fd90614e19565b60405180910390fd5b8091505092915050565b60007f80ac58cd000000000000000000000000000000000000000000000000000000007bffffffffffffffffffffffffffffffffffffffffffffffffffffffff1916827bffffffffffffffffffffffffffffffffffffffffffffffffffffffff191614806128db57507f5b5e139f000000000000000000000000000000000000000000000000000000007bffffffffffffffffffffffffffffffffffffffffffffffffffffffff1916827bffffffffffffffffffffffffffffffffffffffffffffffffffffffff1916145b806128eb57506128ea82612b9f565b5b9050919050565b6128fc8383612c09565b6129096000848484612314565b612948576040517f08c379a000000000000000000000000000000000000000000000000000000000815260040161293f90614870565b60405180910390fd5b505050565b612958838383612de2565b600073ffffffffffffffffffffffffffffffffffffffff168373ffffffffffffffffffffffffffffffffffffffff160361299a5761299581612de7565b6129d9565b8173ffffffffffffffffffffffffffffffffffffffff168373ffffffffffffffffffffffffffffffffffffffff16146129d8576129d78382612e30565b5b5b600073ffffffffffffffffffffffffffffffffffffffff168273ffffffffffffffffffffffffffffffffffffffff1603612a1b57612a1681612f9d565b612a5a565b8273ffffffffffffffffffffffffffffffffffffffff168273ffffffffffffffffffffffffffffffffffffffff1614612a5957612a58828261306e565b5b5b505050565b6000612a6a82610e14565b9050612a7881600084612264565b612a83600083611460565b6001600360008373ffffffffffffffffffffffffffffffffffffffff1673ffffffffffffffffffffffffffffffffffffffff1681526020019081526020016000206000828254612ad3919061469c565b925050819055506002600083815260200190815260200160002060006101000a81549073ffffffffffffffffffffffffffffffffffffffff021916905581600073ffffffffffffffffffffffffffffffffffffffff168273ffffffffffffffffffffffffffffffffffffffff167fddf252ad1be2c89b69c2b068fc378daa952ba7f163c4a11628f55a4df523b3ef60405160405180910390a4612b78816000846122bc565b5050565b6000808273ffffffffffffffffffffffffffffffffffffffff163b119050919050565b60007f01ffc9a7000000000000000000000000000000000000000000000000000000007bffffffffffffffffffffffffffffffffffffffffffffffffffffffff1916827bffffffffffffffffffffffffffffffffffffffffffffffffffffffff1916149050919050565b600073ffffffffffffffffffffffffffffffffffffffff168273ffffffffffffffffffffffffffffffffffffffff1603612c78576040517f08c379a0000000000000000000000000000000000000000000000000000000008152600401612c6f90614e85565b60405180910390fd5b612c81816113ec565b15612cc1576040517f08c379a0000000000000000000000000000000000000000000000000000000008152600401612cb890614ef1565b60405180910390fd5b612ccd60008383612264565b6001600360008473ffffffffffffffffffffffffffffffffffffffff1673ffffffffffffffffffffffffffffffffffffffff1681526020019081526020016000206000828254612d1d91906146d0565b92505081905550816002600083815260200190815260200160002060006101000a81548173ffffffffffffffffffffffffffffffffffffffff021916908373ffffffffffffffffffffffffffffffffffffffff160217905550808273ffffffffffffffffffffffffffffffffffffffff16600073ffffffffffffffffffffffffffffffffffffffff167fddf252ad1be2c89b69c2b068fc378daa952ba7f163c4a11628f55a4df523b3ef60405160405180910390a4612dde600083836122bc565b5050565b505050565b6008805490506009600083815260200190815260200160002081905550600881908060018154018082558091505060019003906000526020600020016000909190919091505550565b60006001612e3d84610f85565b612e47919061469c565b9050600060076000848152602001908152602001600020549050818114612f2c576000600660008673ffffffffffffffffffffffffffffffffffffffff1673ffffffffffffffffffffffffffffffffffffffff168152602001908152602001600020600084815260200190815260200160002054905080600660008773ffffffffffffffffffffffffffffffffffffffff1673ffffffffffffffffffffffffffffffffffffffff168152602001908152602001600020600084815260200190815260200160002081905550816007600083815260200190815260200160002081905550505b6007600084815260200190815260200160002060009055600660008573ffffffffffffffffffffffffffffffffffffffff1673ffffffffffffffffffffffffffffffffffffffff16815260200190815260200160002060008381526020019081526020016000206000905550505050565b60006001600880549050612fb1919061469c565b9050600060096000848152602001908152602001600020549050600060088381548110612fe157612fe0613f44565b5b90600052602060002001549050806008838154811061300357613002613f44565b5b90600052602060002001819055508160096000838152602001908152602001600020819055506009600085815260200190815260200160002060009055600880548061305257613051614f11565b5b6001900381819060005260206000200160009055905550505050565b600061307983610f85565b905081600660008573ffffffffffffffffffffffffffffffffffffffff1673ffffffffffffffffffffffffffffffffffffffff168152602001908152602001600020600083815260200190815260200160002081905550806007600084815260200190815260200160002081905550505050565b508054600082559060005260206000209081019061310b919061314e565b50565b50805461311a90613a73565b6000825580601f1061312c575061314b565b601f01602090049060005260206000209081019061314a919061314e565b5b50565b5b8082111561316757600081600090555060010161314f565b5090565b6000604051905090565b600080fd5b600080fd5b600080fd5b600080fd5b6000601f19601f8301169050919050565b7f4e487b7100000000000000000000000000000000000000000000000000000000600052604160045260246000fd5b6131d282613189565b810181811067ffffffffffffffff821117156131f1576131f061319a565b5b80604052505050565b600061320461316b565b905061321082826131c9565b919050565b600067ffffffffffffffff8211156132305761322f61319a565b5b61323982613189565b9050602081019050919050565b82818337600083830152505050565b600061326861326384613215565b6131fa565b90508281526020810184848401111561328457613283613184565b5b61328f848285613246565b509392505050565b600082601f8301126132ac576132ab61317f565b5b81356132bc848260208601613255565b91505092915050565b6000819050919050565b6132d8816132c5565b81146132e357600080fd5b50565b6000813590506132f5816132cf565b92915050565b6000806040838503121561331257613311613175565b5b600083013567ffffffffffffffff8111156133305761332f61317a565b5b61333c85828601613297565b925050602061334d858286016132e6565b9150509250929050565b60007fffffffff0000000000000000000000000000000000000000000000000000000082169050919050565b61338c81613357565b811461339757600080fd5b50565b6000813590506133a981613383565b92915050565b6000602082840312156133c5576133c4613175565b5b60006133d38482850161339a565b91505092915050565b60008115159050919050565b6133f1816133dc565b82525050565b600060208201905061340c60008301846133e8565b92915050565b600081519050919050565b600082825260208201905092915050565b60005b8381101561344c578082015181840152602081019050613431565b8381111561345b576000848401525b50505050565b600061346c82613412565b613476818561341d565b935061348681856020860161342e565b61348f81613189565b840191505092915050565b600060208201905081810360008301526134b48184613461565b905092915050565b6000602082840312156134d2576134d1613175565b5b60006134e0848285016132e6565b91505092915050565b600073ffffffffffffffffffffffffffffffffffffffff82169050919050565b6000613514826134e9565b9050919050565b61352481613509565b82525050565b600060208201905061353f600083018461351b565b92915050565b61354e81613509565b811461355957600080fd5b50565b60008135905061356b81613545565b92915050565b6000806040838503121561358857613587613175565b5b60006135968582860161355c565b92505060206135a7858286016132e6565b9150509250929050565b60006135bc826134e9565b9050919050565b6135cc816135b1565b82525050565b60006020820190506135e760008301846135c3565b92915050565b6135f6816132c5565b82525050565b600060208201905061361160008301846135ed565b92915050565b6000806000606084860312156136305761362f613175565b5b600061363e8682870161355c565b935050602061364f8682870161355c565b9250506040613660868287016132e6565b9150509250925092565b6000819050919050565b61367d8161366a565b811461368857600080fd5b50565b60008135905061369a81613674565b92915050565b6000602082840312156136b6576136b5613175565b5b60006136c48482850161368b565b91505092915050565b6136d68161366a565b82525050565b60006020820190506136f160008301846136cd565b92915050565b600081519050919050565b600082825260208201905092915050565b6000819050602082019050919050565b61372c81613509565b82525050565b600061373e8383613723565b60208301905092915050565b6000602082019050919050565b6000613762826136f7565b61376c8185613702565b935061377783613713565b8060005b838110156137a857815161378f8882613732565b975061379a8361374a565b92505060018101905061377b565b5085935050505092915050565b600060208201905081810360008301526137cf8184613757565b905092915050565b600080604083850312156137ee576137ed613175565b5b60006137fc8582860161368b565b925050602061380d8582860161355c565b9150509250929050565b60006020828403121561382d5761382c613175565b5b600061383b8482850161355c565b91505092915050565b6000604082019050818103600083015261385e8185613461565b905061386d60208301846135ed565b9392505050565b61387d816133dc565b811461388857600080fd5b50565b60008135905061389a81613874565b92915050565b600080604083850312156138b7576138b6613175565b5b60006138c58582860161355c565b92505060206138d68582860161388b565b9150509250929050565b600067ffffffffffffffff8211156138fb576138fa61319a565b5b61390482613189565b9050602081019050919050565b600061392461391f846138e0565b6131fa565b9050828152602081018484840111156139405761393f613184565b5b61394b848285613246565b509392505050565b600082601f8301126139685761396761317f565b5b8135613978848260208601613911565b91505092915050565b6000806000806080858703121561399b5761399a613175565b5b60006139a98782880161355c565b94505060206139ba8782880161355c565b93505060406139cb878288016132e6565b925050606085013567ffffffffffffffff8111156139ec576139eb61317a565b5b6139f887828801613953565b91505092959194509250565b60008060408385031215613a1b57613a1a613175565b5b6000613a298582860161355c565b9250506020613a3a8582860161355c565b9150509250929050565b7f4e487b7100000000000000000000000000000000000000000000000000000000600052602260045260246000fd5b60006002820490506001821680613a8b57607f821691505b602082108103613a9e57613a9d613a44565b5b50919050565b60008190508160005260206000209050919050565b60006020601f8301049050919050565b600082821b905092915050565b600060088302613b067fffffffffffffffffffffffffffffffffffffffffffffffffffffffffffffffff82613ac9565b613b108683613ac9565b95508019841693508086168417925050509392505050565b6000819050919050565b6000613b4d613b48613b43846132c5565b613b28565b6132c5565b9050919050565b6000819050919050565b613b6783613b32565b613b7b613b7382613b54565b848454613ad6565b825550505050565b600090565b613b90613b83565b613b9b818484613b5e565b505050565b5b81811015613bbf57613bb4600082613b88565b600181019050613ba1565b5050565b601f821115613c0457613bd581613aa4565b613bde84613ab9565b81016020851015613bed578190505b613c01613bf985613ab9565b830182613ba0565b50505b505050565b600082821c905092915050565b6000613c2760001984600802613c09565b1980831691505092915050565b6000613c408383613c16565b9150826002028217905092915050565b613c5982613412565b67ffffffffffffffff811115613c7257613c7161319a565b5b613c7c8254613a73565b613c87828285613bc3565b600060209050601f831160018114613cba5760008415613ca8578287015190505b613cb28582613c34565b865550613d1a565b601f198416613cc886613aa4565b60005b82811015613cf057848901518255600182019150602085019450602081019050613ccb565b86831015613d0d5784890151613d09601f891682613c16565b8355505b6001600288020188555050505b505050505050565b7f4552433732313a20617070726f76656420717565727920666f72206e6f6e657860008201527f697374656e7420746f6b656e0000000000000000000000000000000000000000602082015250565b6000613d7e602c8361341d565b9150613d8982613d22565b604082019050919050565b60006020820190508181036000830152613dad81613d71565b9050919050565b7f4552433732313a20617070726f76616c20746f2063757272656e74206f776e6560008201527f7200000000000000000000000000000000000000000000000000000000000000602082015250565b6000613e1060218361341d565b9150613e1b82613db4565b604082019050919050565b60006020820190508181036000830152613e3f81613e03565b9050919050565b7f4552433732313a20617070726f76652063616c6c6572206973206e6f74206f7760008201527f6e6572206e6f7220617070726f76656420666f7220616c6c0000000000000000602082015250565b6000613ea260388361341d565b9150613ead82613e46565b604082019050919050565b60006020820190508181036000830152613ed181613e95565b9050919050565b7f5061757361626c653a2070617573656400000000000000000000000000000000600082015250565b6000613f0e60108361341d565b9150613f1982613ed8565b602082019050919050565b60006020820190508181036000830152613f3d81613f01565b9050919050565b7f4e487b7100000000000000000000000000000000000000000000000000000000600052603260045260246000fd5b7f4e487b7100000000000000000000000000000000000000000000000000000000600052601160045260246000fd5b6000613fad826132c5565b91507fffffffffffffffffffffffffffffffffffffffffffffffffffffffffffffffff8203613fdf57613fde613f73565b5b600182019050919050565b7f546865206d696e74696e6720686173206265656e20646f6e6520636f7272656360008201527f746c792e00000000000000000000000000000000000000000000000000000000602082015250565b600061404660248361341d565b915061405182613fea565b604082019050919050565b6000602082019050818103600083015261407581614039565b9050919050565b7f4552433732313a207472616e736665722063616c6c6572206973206e6f74206f60008201527f776e6572206e6f7220617070726f766564000000000000000000000000000000602082015250565b60006140d860318361341d565b91506140e38261407c565b604082019050919050565b60006020820190508181036000830152614107816140cb565b9050919050565b7f455243373231456e756d657261626c653a206f776e657220696e646578206f7560008201527f74206f6620626f756e6473000000000000000000000000000000000000000000602082015250565b600061416a602b8361341d565b91506141758261410e565b604082019050919050565b600060208201905081810360008301526141998161415d565b9050919050565b7f416363657373436f6e74726f6c3a2063616e206f6e6c792072656e6f756e636560008201527f20726f6c657320666f722073656c660000000000000000000000000000000000602082015250565b60006141fc602f8361341d565b9150614207826141a0565b604082019050919050565b6000602082019050818103600083015261422b816141ef565b9050919050565b7f4552433732314275726e61626c653a2063616c6c6572206973206e6f74206f7760008201527f6e6572206e6f7220617070726f76656400000000000000000000000000000000602082015250565b600061428e60308361341d565b915061429982614232565b604082019050919050565b600060208201905081810360008301526142bd81614281565b9050919050565b7f455243373231456e756d657261626c653a20676c6f62616c20696e646578206f60008201527f7574206f6620626f756e64730000000000000000000000000000000000000000602082015250565b6000614320602c8361341d565b915061432b826142c4565b604082019050919050565b6000602082019050818103600083015261434f81614313565b9050919050565b7f4552433732313a206f776e657220717565727920666f72206e6f6e657869737460008201527f656e7420746f6b656e0000000000000000000000000000000000000000000000602082015250565b60006143b260298361341d565b91506143bd82614356565b604082019050919050565b600060208201905081810360008301526143e1816143a5565b9050919050565b7f4163636f756e7420726567697374657265642e00000000000000000000000000600082015250565b600061441e60138361341d565b9150614429826143e8565b602082019050919050565b6000602082019050818103600083015261444d81614411565b9050919050565b7f4552433732313a2062616c616e636520717565727920666f7220746865207a6560008201527f726f206164647265737300000000000000000000000000000000000000000000602082015250565b60006144b0602a8361341d565b91506144bb82614454565b604082019050919050565b600060208201905081810360008301526144df816144a3565b9050919050565b7f4552433732313a206f70657261746f7220717565727920666f72206e6f6e657860008201527f697374656e7420746f6b656e0000000000000000000000000000000000000000602082015250565b6000614542602c8361341d565b915061454d826144e6565b604082019050919050565b6000602082019050818103600083015261457181614535565b9050919050565b7f4552433732313a207472616e736665722066726f6d20696e636f72726563742060008201527f6f776e6572000000000000000000000000000000000000000000000000000000602082015250565b60006145d460258361341d565b91506145df82614578565b604082019050919050565b60006020820190508181036000830152614603816145c7565b9050919050565b7f4552433732313a207472616e7366657220746f20746865207a65726f2061646460008201527f7265737300000000000000000000000000000000000000000000000000000000602082015250565b600061466660248361341d565b91506146718261460a565b604082019050919050565b6000602082019050818103600083015261469581614659565b9050919050565b60006146a7826132c5565b91506146b2836132c5565b9250828210156146c5576146c4613f73565b5b828203905092915050565b60006146db826132c5565b91506146e6836132c5565b9250827fffffffffffffffffffffffffffffffffffffffffffffffffffffffffffffffff0382111561471b5761471a613f73565b5b828201905092915050565b7f5061757361626c653a206e6f7420706175736564000000000000000000000000600082015250565b600061475c60148361341d565b915061476782614726565b602082019050919050565b6000602082019050818103600083015261478b8161474f565b9050919050565b7f4552433732313a20617070726f766520746f2063616c6c657200000000000000600082015250565b60006147c860198361341d565b91506147d382614792565b602082019050919050565b600060208201905081810360008301526147f7816147bb565b9050919050565b7f4552433732313a207472616e7366657220746f206e6f6e20455243373231526560008201527f63656976657220696d706c656d656e7465720000000000000000000000000000602082015250565b600061485a60328361341d565b9150614865826147fe565b604082019050919050565b600060208201905081810360008301526148898161484d565b9050919050565b7f45524337323155524953746f726167653a2055524920717565727920666f722060008201527f6e6f6e6578697374656e7420746f6b656e000000000000000000000000000000602082015250565b60006148ec60318361341d565b91506148f782614890565b604082019050919050565b6000602082019050818103600083015261491b816148df565b9050919050565b600081905092915050565b600061493882613412565b6149428185614922565b935061495281856020860161342e565b80840191505092915050565b600061496a828561492d565b9150614976828461492d565b91508190509392505050565b7f416363657373436f6e74726f6c3a206163636f756e7420000000000000000000600082015250565b60006149b8601783614922565b91506149c382614982565b601782019050919050565b7f206973206d697373696e6720726f6c6520000000000000000000000000000000600082015250565b6000614a04601183614922565b9150614a0f826149ce565b601182019050919050565b6000614a25826149ab565b9150614a31828561492d565b9150614a3c826149f7565b9150614a48828461492d565b91508190509392505050565b6000819050919050565b614a6f614a6a826132c5565b614a54565b82525050565b6000614a818286614a5e565b602082019150614a918285614a5e565b602082019150614aa18284614a5e565b602082019150819050949350505050565b7f4e487b7100000000000000000000000000000000000000000000000000000000600052601260045260246000fd5b6000614aec826132c5565b9150614af7836132c5565b925082614b0757614b06614ab2565b5b828206905092915050565b6000614b1d826132c5565b9150614b28836132c5565b925082614b3857614b37614ab2565b5b828204905092915050565b7f45524337323155524953746f726167653a2055524920736574206f66206e6f6e60008201527f6578697374656e7420746f6b656e000000000000000000000000000000000000602082015250565b6000614b9f602e8361341d565b9150614baa82614b43565b604082019050919050565b60006020820190508181036000830152614bce81614b92565b9050919050565b600081519050919050565b600082825260208201905092915050565b6000614bfc82614bd5565b614c068185614be0565b9350614c1681856020860161342e565b614c1f81613189565b840191505092915050565b6000608082019050614c3f600083018761351b565b614c4c602083018661351b565b614c5960408301856135ed565b8181036060830152614c6b8184614bf1565b905095945050505050565b600081519050614c8581613383565b92915050565b600060208284031215614ca157614ca0613175565b5b6000614caf84828501614c76565b91505092915050565b7f4552433732314d657461646174613a2055524920717565727920666f72206e6f60008201527f6e6578697374656e7420746f6b656e0000000000000000000000000000000000602082015250565b6000614d14602f8361341d565b9150614d1f82614cb8565b604082019050919050565b60006020820190508181036000830152614d4381614d07565b9050919050565b6000614d55826132c5565b9150614d60836132c5565b9250817fffffffffffffffffffffffffffffffffffffffffffffffffffffffffffffffff0483118215151615614d9957614d98613f73565b5b828202905092915050565b6000614daf826132c5565b915060008203614dc257614dc1613f73565b5b600182039050919050565b7f537472696e67733a20686578206c656e67746820696e73756666696369656e74600082015250565b6000614e0360208361341d565b9150614e0e82614dcd565b602082019050919050565b60006020820190508181036000830152614e3281614df6565b9050919050565b7f4552433732313a206d696e7420746f20746865207a65726f2061646472657373600082015250565b6000614e6f60208361341d565b9150614e7a82614e39565b602082019050919050565b60006020820190508181036000830152614e9e81614e62565b9050919050565b7f4552433732313a20746f6b656e20616c7265616479206d696e74656400000000600082015250565b6000614edb601c8361341d565b9150614ee682614ea5565b602082019050919050565b60006020820190508181036000830152614f0a81614ece565b9050919050565b7f4e487b7100000000000000000000000000000000000000000000000000000000600052603160045260246000fdfea264697066735822122017238904a7bc53243b64eb727febab64226d11f013d497dda3abe04aad1218c264736f6c634300080f0033697066733a2f2f626166796265696175696b70366d62646162666d667136727776677772367a6833756f78786c6e7a6978626a6d7a7a7837376a70367761787671342f",
  "immutableReferences": {},
  "source": "// SPDX-License-Identifier: MIT\npragma solidity ^0.8.4;\n\nimport \"@openzeppelin/contracts/token/ERC721/ERC721.sol\";\nimport \"@openzeppelin/contracts/token/ERC721/extensions/ERC721Enumerable.sol\";\nimport \"@openzeppelin/contracts/token/ERC721/extensions/ERC721URIStorage.sol\";\nimport \"@openzeppelin/contracts/security/Pausable.sol\";\nimport \"@openzeppelin/contracts/access/AccessControl.sol\";\nimport \"@openzeppelin/contracts/token/ERC721/extensions/ERC721Burnable.sol\";\nimport \"@openzeppelin/contracts/utils/Counters.sol\";\nimport \"@openzeppelin/contracts/utils/Strings.sol\";\n\ncontract CryptoTicketsRewards is\n    ERC721,\n    ERC721Enumerable,\n    ERC721URIStorage,\n    Pausable,\n    AccessControl,\n    ERC721Burnable\n{\n    using Counters for Counters.Counter;\n    Counters.Counter private _rewardIdCounter;\n\n    //numero de elementos del car\n    uint256 carRewardsSize = 6;\n    string baseURI =\n        \"ipfs://bafybeiauikp6mbdabfmfq6rwvgwr6zh3uoxxlnzixbjmzzx77jp6waxvq4/\";\n\n    address[] public listUserRewards;\n    address payable public club;\n\n    event Status(string _message);\n    event MsgInfoAccountListOk(string _message, address indexed account);\n    event MsgInfoMinted(string _message, address indexed account);\n\n    constructor() ERC721(\"CryptoTicketsRewards\", \"CTKRW\") {\n        _grantRole(DEFAULT_ADMIN_ROLE, msg.sender);\n    }\n\n    function _baseURI() internal view override returns (string memory) {\n        return baseURI;\n    }\n\n    function getBaseURI() public view returns (string memory, uint256) {\n        return (baseURI, carRewardsSize);\n    }\n\n    function setBaseURI(string memory newBaseURI, uint256 numElements)\n        public\n        onlyRole(DEFAULT_ADMIN_ROLE)\n    {\n        carRewardsSize = numElements;\n        baseURI = newBaseURI;\n    }\n\n    function pause() public onlyRole(DEFAULT_ADMIN_ROLE) {\n        _pause();\n    }\n\n    function unpause() public onlyRole(DEFAULT_ADMIN_ROLE) {\n        _unpause();\n    }\n\n    function random(uint256 countListElementRewards, uint256 countRandom)\n        private\n        view\n        returns (uint8)\n    {\n        return\n            uint8(\n                (uint256(\n                    keccak256(\n                        abi.encodePacked(\n                            block.timestamp,\n                            block.difficulty,\n                            countRandom\n                        )\n                    )\n                ) % countListElementRewards) + 1\n            );\n    }\n\n    function mint(address to, uint256 countRandom) private {\n        uint256 rewardId = _rewardIdCounter.current();\n        _rewardIdCounter.increment();\n        _safeMint(to, rewardId);\n        _setTokenURI(\n            rewardId,\n            Strings.toString(random(carRewardsSize, countRandom))\n        );\n    }\n\n    function mintReward() public onlyRole(DEFAULT_ADMIN_ROLE) whenNotPaused {\n        for (uint256 i = 0; i < listUserRewards.length; i++) {\n            mint(listUserRewards[i], i);\n        }\n        removeListUserRewards();\n        emit MsgInfoMinted(\"The minting has been done correctly.\", msg.sender);\n    }\n\n    function _beforeTokenTransfer(\n        address from,\n        address to,\n        uint256 rewardId\n    ) internal override(ERC721, ERC721Enumerable) whenNotPaused {\n        super._beforeTokenTransfer(from, to, rewardId);\n    }\n\n    function _burn(uint256 rewardId)\n        internal\n        override(ERC721, ERC721URIStorage)\n    {\n        super._burn(rewardId);\n    }\n\n    function burnReward(uint256 tokenId) public {\n        _burn(tokenId);\n    }\n\n    function tokenURI(uint256 rewardId)\n        public\n        view\n        override(ERC721, ERC721URIStorage)\n        returns (string memory)\n    {\n        return super.tokenURI(rewardId);\n    }\n\n    function supportsInterface(bytes4 interfaceId)\n        public\n        view\n        override(ERC721, ERC721Enumerable, AccessControl)\n        returns (bool)\n    {\n        return super.supportsInterface(interfaceId);\n    }\n\n    function grantAdminRol(address account)\n        public\n        onlyRole(DEFAULT_ADMIN_ROLE)\n    {\n        _grantRole(DEFAULT_ADMIN_ROLE, account);\n    }\n\n    function addListForRewards(address account)\n        public\n        onlyRole(DEFAULT_ADMIN_ROLE)\n    {\n        listUserRewards.push(account);\n        emit MsgInfoAccountListOk(\"Account registered.\", account);\n    }\n\n    function getListAddressRewardsInfo()\n        public\n        view\n        onlyRole(DEFAULT_ADMIN_ROLE)\n        returns (address[] memory)\n    {\n        return (listUserRewards);\n    }\n\n    function removeListUserRewards() internal onlyRole(DEFAULT_ADMIN_ROLE) {\n        delete listUserRewards;\n    }\n}\n",
  "sourcePath": "/Users/dosorio/Proyectos/Blockchain/SportTickets/contracts/CryptoTicketsRewards.sol",
  "compiler": {
    "name": "solc",
    "version": "0.8.15+commit.e14f2714.Emscripten.clang"
  },
  "schemaVersion": "3.4.7",
  "updatedAt": "2022-07-03T15:15:10.475Z",
  "networkType": "ethereum",
  "devdoc": {
    "kind": "dev",
    "methods": {
      "approve(address,uint256)": {
        "details": "See {IERC721-approve}."
      },
      "balanceOf(address)": {
        "details": "See {IERC721-balanceOf}."
      },
      "burn(uint256)": {
        "details": "Burns `tokenId`. See {ERC721-_burn}. Requirements: - The caller must own `tokenId` or be an approved operator."
      },
      "getApproved(uint256)": {
        "details": "See {IERC721-getApproved}."
      },
      "getRoleAdmin(bytes32)": {
        "details": "Returns the admin role that controls `role`. See {grantRole} and {revokeRole}. To change a role's admin, use {_setRoleAdmin}."
      },
      "grantRole(bytes32,address)": {
        "details": "Grants `role` to `account`. If `account` had not been already granted `role`, emits a {RoleGranted} event. Requirements: - the caller must have ``role``'s admin role."
      },
      "hasRole(bytes32,address)": {
        "details": "Returns `true` if `account` has been granted `role`."
      },
      "isApprovedForAll(address,address)": {
        "details": "See {IERC721-isApprovedForAll}."
      },
      "name()": {
        "details": "See {IERC721Metadata-name}."
      },
      "ownerOf(uint256)": {
        "details": "See {IERC721-ownerOf}."
      },
      "paused()": {
        "details": "Returns true if the contract is paused, and false otherwise."
      },
      "renounceRole(bytes32,address)": {
        "details": "Revokes `role` from the calling account. Roles are often managed via {grantRole} and {revokeRole}: this function's purpose is to provide a mechanism for accounts to lose their privileges if they are compromised (such as when a trusted device is misplaced). If the calling account had been revoked `role`, emits a {RoleRevoked} event. Requirements: - the caller must be `account`."
      },
      "revokeRole(bytes32,address)": {
        "details": "Revokes `role` from `account`. If `account` had been granted `role`, emits a {RoleRevoked} event. Requirements: - the caller must have ``role``'s admin role."
      },
      "safeTransferFrom(address,address,uint256)": {
        "details": "See {IERC721-safeTransferFrom}."
      },
      "safeTransferFrom(address,address,uint256,bytes)": {
        "details": "See {IERC721-safeTransferFrom}."
      },
      "setApprovalForAll(address,bool)": {
        "details": "See {IERC721-setApprovalForAll}."
      },
      "symbol()": {
        "details": "See {IERC721Metadata-symbol}."
      },
      "tokenByIndex(uint256)": {
        "details": "See {IERC721Enumerable-tokenByIndex}."
      },
      "tokenOfOwnerByIndex(address,uint256)": {
        "details": "See {IERC721Enumerable-tokenOfOwnerByIndex}."
      },
      "totalSupply()": {
        "details": "See {IERC721Enumerable-totalSupply}."
      },
      "transferFrom(address,address,uint256)": {
        "details": "See {IERC721-transferFrom}."
      }
    },
    "version": 1
  },
  "userdoc": {
    "kind": "user",
    "methods": {},
    "version": 1
  }
}