{
  "contractName": "CryptoTicketsMarketplace",
  "abi": [
    {
      "inputs": [
        {
          "internalType": "address",
          "name": "matchTicketsContractAddresss",
          "type": "address"
        },
        {
          "internalType": "address payable",
          "name": "clubOwnerAddress",
          "type": "address"
        }
      ],
      "stateMutability": "nonpayable",
      "type": "constructor"
    },
    {
      "anonymous": false,
      "inputs": [
        {
          "indexed": false,
          "internalType": "address",
          "name": "account",
          "type": "address"
        }
      ],
      "name": "Paused",
      "type": "event"
    },
    {
      "anonymous": false,
      "inputs": [
        {
          "indexed": true,
          "internalType": "bytes32",
          "name": "role",
          "type": "bytes32"
        },
        {
          "indexed": true,
          "internalType": "bytes32",
          "name": "previousAdminRole",
          "type": "bytes32"
        },
        {
          "indexed": true,
          "internalType": "bytes32",
          "name": "newAdminRole",
          "type": "bytes32"
        }
      ],
      "name": "RoleAdminChanged",
      "type": "event"
    },
    {
      "anonymous": false,
      "inputs": [
        {
          "indexed": true,
          "internalType": "bytes32",
          "name": "role",
          "type": "bytes32"
        },
        {
          "indexed": true,
          "internalType": "address",
          "name": "account",
          "type": "address"
        },
        {
          "indexed": true,
          "internalType": "address",
          "name": "sender",
          "type": "address"
        }
      ],
      "name": "RoleGranted",
      "type": "event"
    },
    {
      "anonymous": false,
      "inputs": [
        {
          "indexed": true,
          "internalType": "bytes32",
          "name": "role",
          "type": "bytes32"
        },
        {
          "indexed": true,
          "internalType": "address",
          "name": "account",
          "type": "address"
        },
        {
          "indexed": true,
          "internalType": "address",
          "name": "sender",
          "type": "address"
        }
      ],
      "name": "RoleRevoked",
      "type": "event"
    },
    {
      "anonymous": false,
      "inputs": [
        {
          "indexed": false,
          "internalType": "address",
          "name": "account",
          "type": "address"
        }
      ],
      "name": "Unpaused",
      "type": "event"
    },
    {
      "inputs": [],
      "name": "DEFAULT_ADMIN_ROLE",
      "outputs": [
        {
          "internalType": "bytes32",
          "name": "",
          "type": "bytes32"
        }
      ],
      "stateMutability": "view",
      "type": "function",
      "constant": true
    },
    {
      "inputs": [
        {
          "internalType": "bytes32",
          "name": "role",
          "type": "bytes32"
        }
      ],
      "name": "getRoleAdmin",
      "outputs": [
        {
          "internalType": "bytes32",
          "name": "",
          "type": "bytes32"
        }
      ],
      "stateMutability": "view",
      "type": "function",
      "constant": true
    },
    {
      "inputs": [
        {
          "internalType": "bytes32",
          "name": "role",
          "type": "bytes32"
        },
        {
          "internalType": "address",
          "name": "account",
          "type": "address"
        }
      ],
      "name": "grantRole",
      "outputs": [],
      "stateMutability": "nonpayable",
      "type": "function"
    },
    {
      "inputs": [
        {
          "internalType": "bytes32",
          "name": "role",
          "type": "bytes32"
        },
        {
          "internalType": "address",
          "name": "account",
          "type": "address"
        }
      ],
      "name": "hasRole",
      "outputs": [
        {
          "internalType": "bool",
          "name": "",
          "type": "bool"
        }
      ],
      "stateMutability": "view",
      "type": "function",
      "constant": true
    },
    {
      "inputs": [
        {
          "internalType": "uint256",
          "name": "",
          "type": "uint256"
        }
      ],
      "name": "listingIds",
      "outputs": [
        {
          "internalType": "address",
          "name": "",
          "type": "address"
        }
      ],
      "stateMutability": "view",
      "type": "function",
      "constant": true
    },
    {
      "inputs": [
        {
          "internalType": "address",
          "name": "",
          "type": "address"
        },
        {
          "internalType": "uint256",
          "name": "",
          "type": "uint256"
        }
      ],
      "name": "listings",
      "outputs": [
        {
          "internalType": "uint256",
          "name": "price",
          "type": "uint256"
        },
        {
          "internalType": "address payable",
          "name": "seller",
          "type": "address"
        }
      ],
      "stateMutability": "view",
      "type": "function",
      "constant": true
    },
    {
      "inputs": [],
      "name": "paused",
      "outputs": [
        {
          "internalType": "bool",
          "name": "",
          "type": "bool"
        }
      ],
      "stateMutability": "view",
      "type": "function",
      "constant": true
    },
    {
      "inputs": [
        {
          "internalType": "bytes32",
          "name": "role",
          "type": "bytes32"
        },
        {
          "internalType": "address",
          "name": "account",
          "type": "address"
        }
      ],
      "name": "renounceRole",
      "outputs": [],
      "stateMutability": "nonpayable",
      "type": "function"
    },
    {
      "inputs": [
        {
          "internalType": "bytes32",
          "name": "role",
          "type": "bytes32"
        },
        {
          "internalType": "address",
          "name": "account",
          "type": "address"
        }
      ],
      "name": "revokeRole",
      "outputs": [],
      "stateMutability": "nonpayable",
      "type": "function"
    },
    {
      "inputs": [
        {
          "internalType": "bytes4",
          "name": "interfaceId",
          "type": "bytes4"
        }
      ],
      "name": "supportsInterface",
      "outputs": [
        {
          "internalType": "bool",
          "name": "",
          "type": "bool"
        }
      ],
      "stateMutability": "view",
      "type": "function",
      "constant": true
    },
    {
      "inputs": [
        {
          "internalType": "uint256",
          "name": "",
          "type": "uint256"
        }
      ],
      "name": "tokensOnSale",
      "outputs": [
        {
          "internalType": "uint256",
          "name": "",
          "type": "uint256"
        }
      ],
      "stateMutability": "view",
      "type": "function",
      "constant": true
    },
    {
      "inputs": [
        {
          "internalType": "uint256",
          "name": "tokenId",
          "type": "uint256"
        },
        {
          "internalType": "uint256",
          "name": "price",
          "type": "uint256"
        }
      ],
      "name": "addListing",
      "outputs": [],
      "stateMutability": "nonpayable",
      "type": "function"
    },
    {
      "inputs": [
        {
          "internalType": "uint256",
          "name": "tokenId",
          "type": "uint256"
        }
      ],
      "name": "removeListing",
      "outputs": [],
      "stateMutability": "nonpayable",
      "type": "function"
    },
    {
      "inputs": [
        {
          "internalType": "uint256",
          "name": "tokenId",
          "type": "uint256"
        }
      ],
      "name": "purchase",
      "outputs": [],
      "stateMutability": "payable",
      "type": "function",
      "payable": true
    },
    {
      "inputs": [],
      "name": "getOnSaleTokens",
      "outputs": [
        {
          "internalType": "uint256[]",
          "name": "",
          "type": "uint256[]"
        }
      ],
      "stateMutability": "view",
      "type": "function",
      "constant": true
    },
    {
      "inputs": [],
      "name": "pause",
      "outputs": [],
      "stateMutability": "nonpayable",
      "type": "function"
    },
    {
      "inputs": [],
      "name": "unpause",
      "outputs": [],
      "stateMutability": "nonpayable",
      "type": "function"
    }
  ],
  "bytecode": "0x60806040523480156200001157600080fd5b506040516200297638038062002976833981810160405281019062000037919062000318565b60008060006101000a81548160ff02191690831515021790555081600260006101000a81548173ffffffffffffffffffffffffffffffffffffffff021916908373ffffffffffffffffffffffffffffffffffffffff160217905550620000a76000801b336200010560201b60201c565b620000bc6000801b826200010560201b60201c565b80600660006101000a81548173ffffffffffffffffffffffffffffffffffffffff021916908373ffffffffffffffffffffffffffffffffffffffff16021790555050506200035f565b620001178282620001f660201b60201c565b620001f257600180600084815260200190815260200160002060000160008373ffffffffffffffffffffffffffffffffffffffff1673ffffffffffffffffffffffffffffffffffffffff16815260200190815260200160002060006101000a81548160ff021916908315150217905550620001976200026160201b60201c565b73ffffffffffffffffffffffffffffffffffffffff168173ffffffffffffffffffffffffffffffffffffffff16837f2f8788117e7eff1d82e926ec794901d17c78024a50270940304540a733656f0d60405160405180910390a45b5050565b60006001600084815260200190815260200160002060000160008373ffffffffffffffffffffffffffffffffffffffff1673ffffffffffffffffffffffffffffffffffffffff16815260200190815260200160002060009054906101000a900460ff16905092915050565b600033905090565b600080fd5b600073ffffffffffffffffffffffffffffffffffffffff82169050919050565b60006200029b826200026e565b9050919050565b620002ad816200028e565b8114620002b957600080fd5b50565b600081519050620002cd81620002a2565b92915050565b6000620002e0826200026e565b9050919050565b620002f281620002d3565b8114620002fe57600080fd5b50565b6000815190506200031281620002e7565b92915050565b6000806040838503121562000332576200033162000269565b5b60006200034285828601620002bc565b9250506020620003558582860162000301565b9150509250929050565b612607806200036f6000396000f3fe6080604052600436106100fd5760003560e01c806352bea3601161009557806391d148541161006457806391d1485414610331578063a217fddf1461036e578063d547741f14610399578063e7daaab5146103c2578063efef39a1146103ed576100fd565b806352bea360146102895780635c975abb146102c6578063836cf6e9146102f15780638456cb591461031a576100fd565b8063308b4c97116100d1578063308b4c97146101e357806336568abe146102205780633f4ba83a14610249578063479ad4c314610260576100fd565b806207df301461010257806301ffc9a714610140578063248a9ca31461017d5780632f2ff15d146101ba575b600080fd5b34801561010e57600080fd5b506101296004803603810190610124919061195f565b610409565b6040516101379291906119cf565b60405180910390f35b34801561014c57600080fd5b5061016760048036038101906101629190611a50565b61045a565b6040516101749190611a98565b60405180910390f35b34801561018957600080fd5b506101a4600480360381019061019f9190611ae9565b6104d4565b6040516101b19190611b25565b60405180910390f35b3480156101c657600080fd5b506101e160048036038101906101dc9190611b40565b6104f4565b005b3480156101ef57600080fd5b5061020a60048036038101906102059190611b80565b610515565b6040516102179190611bad565b60405180910390f35b34801561022c57600080fd5b5061024760048036038101906102429190611b40565b610539565b005b34801561025557600080fd5b5061025e6105bc565b005b34801561026c57600080fd5b5061028760048036038101906102829190611b80565b6105d4565b005b34801561029557600080fd5b506102b060048036038101906102ab9190611b80565b6108ef565b6040516102bd9190611bd7565b60405180910390f35b3480156102d257600080fd5b506102db610922565b6040516102e89190611a98565b60405180910390f35b3480156102fd57600080fd5b5061031860048036038101906103139190611bf2565b610938565b005b34801561032657600080fd5b5061032f610c6c565b005b34801561033d57600080fd5b5061035860048036038101906103539190611b40565b610c84565b6040516103659190611a98565b60405180910390f35b34801561037a57600080fd5b50610383610cef565b6040516103909190611b25565b60405180910390f35b3480156103a557600080fd5b506103c060048036038101906103bb9190611b40565b610cf6565b005b3480156103ce57600080fd5b506103d7610d17565b6040516103e49190611cf0565b60405180910390f35b61040760048036038101906104029190611b80565b610d6f565b005b6003602052816000526040600020602052806000526040600020600091509150508060000154908060010160009054906101000a900473ffffffffffffffffffffffffffffffffffffffff16905082565b60007f7965db0b000000000000000000000000000000000000000000000000000000007bffffffffffffffffffffffffffffffffffffffffffffffffffffffff1916827bffffffffffffffffffffffffffffffffffffffffffffffffffffffff191614806104cd57506104cc82611262565b5b9050919050565b600060016000838152602001908152602001600020600101549050919050565b6104fd826104d4565b610506816112cc565b61051083836112e0565b505050565b6005818154811061052557600080fd5b906000526020600020016000915090505481565b6105416113c0565b73ffffffffffffffffffffffffffffffffffffffff168173ffffffffffffffffffffffffffffffffffffffff16146105ae576040517f08c379a00000000000000000000000000000000000000000000000000000000081526004016105a590611d95565b60405180910390fd5b6105b882826113c8565b5050565b6000801b6105c9816112cc565b6105d16114aa565b50565b3373ffffffffffffffffffffffffffffffffffffffff16600260009054906101000a900473ffffffffffffffffffffffffffffffffffffffff1673ffffffffffffffffffffffffffffffffffffffff16636352211e836040518263ffffffff1660e01b81526004016106469190611bad565b602060405180830381865afa158015610663573d6000803e3d6000fd5b505050506040513d601f19601f820116820180604052508101906106879190611dca565b73ffffffffffffffffffffffffffffffffffffffff16146106dd576040517f08c379a00000000000000000000000000000000000000000000000000000000081526004016106d490611e43565b60405180910390fd5b600260009054906101000a900473ffffffffffffffffffffffffffffffffffffffff1673ffffffffffffffffffffffffffffffffffffffff1663e985e9c533306040518363ffffffff1660e01b815260040161073a929190611e63565b602060405180830381865afa158015610757573d6000803e3d6000fd5b505050506040513d601f19601f8201168201806040525081019061077b9190611eb8565b6107ba576040517f08c379a00000000000000000000000000000000000000000000000000000000081526004016107b190611f57565b60405180910390fd5b6004600082815260200190815260200160002060006101000a81549073ffffffffffffffffffffffffffffffffffffffff0219169055600360003373ffffffffffffffffffffffffffffffffffffffff1673ffffffffffffffffffffffffffffffffffffffff16815260200190815260200160002060008281526020019081526020016000206000808201600090556001820160006101000a81549073ffffffffffffffffffffffffffffffffffffffff02191690555050600560016005805490506108869190611fa6565b8154811061089757610896611fda565b5b9060005260206000200154600582815481106108b6576108b5611fda565b5b906000526020600020018190555060058054806108d6576108d5612009565b5b6001900381819060005260206000200160009055905550565b60046020528060005260406000206000915054906101000a900473ffffffffffffffffffffffffffffffffffffffff1681565b60008060009054906101000a900460ff16905090565b3373ffffffffffffffffffffffffffffffffffffffff16600260009054906101000a900473ffffffffffffffffffffffffffffffffffffffff1673ffffffffffffffffffffffffffffffffffffffff16636352211e846040518263ffffffff1660e01b81526004016109aa9190611bad565b602060405180830381865afa1580156109c7573d6000803e3d6000fd5b505050506040513d601f19601f820116820180604052508101906109eb9190611dca565b73ffffffffffffffffffffffffffffffffffffffff1614610a41576040517f08c379a0000000000000000000000000000000000000000000000000000000008152600401610a3890611e43565b60405180910390fd5b600260009054906101000a900473ffffffffffffffffffffffffffffffffffffffff1673ffffffffffffffffffffffffffffffffffffffff1663e985e9c533306040518363ffffffff1660e01b8152600401610a9e929190611e63565b602060405180830381865afa158015610abb573d6000803e3d6000fd5b505050506040513d601f19601f82011682018060405250810190610adf9190611eb8565b610b1e576040517f08c379a0000000000000000000000000000000000000000000000000000000008152600401610b1590611f57565b60405180910390fd5b60405180604001604052808281526020013373ffffffffffffffffffffffffffffffffffffffff16815250600360003373ffffffffffffffffffffffffffffffffffffffff1673ffffffffffffffffffffffffffffffffffffffff16815260200190815260200160002060008481526020019081526020016000206000820151816000015560208201518160010160006101000a81548173ffffffffffffffffffffffffffffffffffffffff021916908373ffffffffffffffffffffffffffffffffffffffff160217905550905050336004600084815260200190815260200160002060006101000a81548173ffffffffffffffffffffffffffffffffffffffff021916908373ffffffffffffffffffffffffffffffffffffffff16021790555060058290806001815401808255809150506001900390600052602060002001600090919091909150555050565b6000801b610c79816112cc565b610c8161154b565b50565b60006001600084815260200190815260200160002060000160008373ffffffffffffffffffffffffffffffffffffffff1673ffffffffffffffffffffffffffffffffffffffff16815260200190815260200160002060009054906101000a900460ff16905092915050565b6000801b81565b610cff826104d4565b610d08816112cc565b610d1283836113c8565b505050565b60606005805480602002602001604051908101604052809291908181526020018280548015610d6557602002820191906000526020600020905b815481526020019060010190808311610d51575b5050505050905090565b60006004600083815260200190815260200160002060009054906101000a900473ffffffffffffffffffffffffffffffffffffffff1690506000600360008373ffffffffffffffffffffffffffffffffffffffff1673ffffffffffffffffffffffffffffffffffffffff1681526020019081526020016000206000848152602001908152602001600020604051806040016040529081600082015481526020016001820160009054906101000a900473ffffffffffffffffffffffffffffffffffffffff1673ffffffffffffffffffffffffffffffffffffffff1673ffffffffffffffffffffffffffffffffffffffff168152505090508060000151341015610ead576040517f08c379a0000000000000000000000000000000000000000000000000000000008152600401610ea490612084565b60405180910390fd5b8173ffffffffffffffffffffffffffffffffffffffff16600260009054906101000a900473ffffffffffffffffffffffffffffffffffffffff1673ffffffffffffffffffffffffffffffffffffffff16636352211e856040518263ffffffff1660e01b8152600401610f1f9190611bad565b602060405180830381865afa158015610f3c573d6000803e3d6000fd5b505050506040513d601f19601f82011682018060405250810190610f609190611dca565b73ffffffffffffffffffffffffffffffffffffffff1614610fb6576040517f08c379a0000000000000000000000000000000000000000000000000000000008152600401610fad90612116565b60405180910390fd5b600260009054906101000a900473ffffffffffffffffffffffffffffffffffffffff1673ffffffffffffffffffffffffffffffffffffffff166342842e0e8333866040518463ffffffff1660e01b815260040161101593929190612136565b600060405180830381600087803b15801561102f57600080fd5b505af1158015611043573d6000803e3d6000fd5b505050506004600084815260200190815260200160002060006101000a81549073ffffffffffffffffffffffffffffffffffffffff0219169055600360008373ffffffffffffffffffffffffffffffffffffffff1673ffffffffffffffffffffffffffffffffffffffff16815260200190815260200160002060008481526020019081526020016000206000808201600090556001820160006101000a81549073ffffffffffffffffffffffffffffffffffffffff02191690555050600560016005805490506111139190611fa6565b8154811061112457611123611fda565b5b90600052602060002001546005848154811061114357611142611fda565b5b9060005260206000200181905550600580548061116357611162612009565b5b60019003818190600052602060002001600090559055806020015173ffffffffffffffffffffffffffffffffffffffff166108fc6064605a346111a6919061216d565b6111b091906121f6565b9081150290604051600060405180830381858888f193505050501580156111db573d6000803e3d6000fd5b50600660009054906101000a900473ffffffffffffffffffffffffffffffffffffffff1673ffffffffffffffffffffffffffffffffffffffff166108fc6064600a34611227919061216d565b61123191906121f6565b9081150290604051600060405180830381858888f1935050505015801561125c573d6000803e3d6000fd5b50505050565b60007f01ffc9a7000000000000000000000000000000000000000000000000000000007bffffffffffffffffffffffffffffffffffffffffffffffffffffffff1916827bffffffffffffffffffffffffffffffffffffffffffffffffffffffff1916149050919050565b6112dd816112d86113c0565b6115ed565b50565b6112ea8282610c84565b6113bc57600180600084815260200190815260200160002060000160008373ffffffffffffffffffffffffffffffffffffffff1673ffffffffffffffffffffffffffffffffffffffff16815260200190815260200160002060006101000a81548160ff0219169083151502179055506113616113c0565b73ffffffffffffffffffffffffffffffffffffffff168173ffffffffffffffffffffffffffffffffffffffff16837f2f8788117e7eff1d82e926ec794901d17c78024a50270940304540a733656f0d60405160405180910390a45b5050565b600033905090565b6113d28282610c84565b156114a65760006001600084815260200190815260200160002060000160008373ffffffffffffffffffffffffffffffffffffffff1673ffffffffffffffffffffffffffffffffffffffff16815260200190815260200160002060006101000a81548160ff02191690831515021790555061144b6113c0565b73ffffffffffffffffffffffffffffffffffffffff168173ffffffffffffffffffffffffffffffffffffffff16837ff6391f5c32d9c69d2a47ea670b442974b53935d1edc7fd64eb21e047a839171b60405160405180910390a45b5050565b6114b2610922565b6114f1576040517f08c379a00000000000000000000000000000000000000000000000000000000081526004016114e890612273565b60405180910390fd5b60008060006101000a81548160ff0219169083151502179055507f5db9ee0a495bf2e6ff9c91a7834c1ba4fdd244a5e8aa4e537bd38aeae4b073aa6115346113c0565b6040516115419190611bd7565b60405180910390a1565b611553610922565b15611593576040517f08c379a000000000000000000000000000000000000000000000000000000000815260040161158a906122df565b60405180910390fd5b60016000806101000a81548160ff0219169083151502179055507f62e78cea01bee320cd4e420270b5ea74000d11b0c9f74754ebdbfc544b05a2586115d66113c0565b6040516115e39190611bd7565b60405180910390a1565b6115f78282610c84565b6116865761161c8173ffffffffffffffffffffffffffffffffffffffff16601461168a565b61162a8360001c602061168a565b60405160200161163b929190612411565b6040516020818303038152906040526040517f08c379a000000000000000000000000000000000000000000000000000000000815260040161167d9190612495565b60405180910390fd5b5050565b60606000600283600261169d919061216d565b6116a791906124b7565b67ffffffffffffffff8111156116c0576116bf61250d565b5b6040519080825280601f01601f1916602001820160405280156116f25781602001600182028036833780820191505090505b5090507f30000000000000000000000000000000000000000000000000000000000000008160008151811061172a57611729611fda565b5b60200101907effffffffffffffffffffffffffffffffffffffffffffffffffffffffffffff1916908160001a9053507f78000000000000000000000000000000000000000000000000000000000000008160018151811061178e5761178d611fda565b5b60200101907effffffffffffffffffffffffffffffffffffffffffffffffffffffffffffff1916908160001a905350600060018460026117ce919061216d565b6117d891906124b7565b90505b6001811115611878577f3031323334353637383961626364656600000000000000000000000000000000600f86166010811061181a57611819611fda565b5b1a60f81b82828151811061183157611830611fda565b5b60200101907effffffffffffffffffffffffffffffffffffffffffffffffffffffffffffff1916908160001a905350600485901c9450806118719061253c565b90506117db565b50600084146118bc576040517f08c379a00000000000000000000000000000000000000000000000000000000081526004016118b3906125b1565b60405180910390fd5b8091505092915050565b600080fd5b600073ffffffffffffffffffffffffffffffffffffffff82169050919050565b60006118f6826118cb565b9050919050565b611906816118eb565b811461191157600080fd5b50565b600081359050611923816118fd565b92915050565b6000819050919050565b61193c81611929565b811461194757600080fd5b50565b60008135905061195981611933565b92915050565b60008060408385031215611976576119756118c6565b5b600061198485828601611914565b92505060206119958582860161194a565b9150509250929050565b6119a881611929565b82525050565b60006119b9826118cb565b9050919050565b6119c9816119ae565b82525050565b60006040820190506119e4600083018561199f565b6119f160208301846119c0565b9392505050565b60007fffffffff0000000000000000000000000000000000000000000000000000000082169050919050565b611a2d816119f8565b8114611a3857600080fd5b50565b600081359050611a4a81611a24565b92915050565b600060208284031215611a6657611a656118c6565b5b6000611a7484828501611a3b565b91505092915050565b60008115159050919050565b611a9281611a7d565b82525050565b6000602082019050611aad6000830184611a89565b92915050565b6000819050919050565b611ac681611ab3565b8114611ad157600080fd5b50565b600081359050611ae381611abd565b92915050565b600060208284031215611aff57611afe6118c6565b5b6000611b0d84828501611ad4565b91505092915050565b611b1f81611ab3565b82525050565b6000602082019050611b3a6000830184611b16565b92915050565b60008060408385031215611b5757611b566118c6565b5b6000611b6585828601611ad4565b9250506020611b7685828601611914565b9150509250929050565b600060208284031215611b9657611b956118c6565b5b6000611ba48482850161194a565b91505092915050565b6000602082019050611bc2600083018461199f565b92915050565b611bd1816118eb565b82525050565b6000602082019050611bec6000830184611bc8565b92915050565b60008060408385031215611c0957611c086118c6565b5b6000611c178582860161194a565b9250506020611c288582860161194a565b9150509250929050565b600081519050919050565b600082825260208201905092915050565b6000819050602082019050919050565b611c6781611929565b82525050565b6000611c798383611c5e565b60208301905092915050565b6000602082019050919050565b6000611c9d82611c32565b611ca78185611c3d565b9350611cb283611c4e565b8060005b83811015611ce3578151611cca8882611c6d565b9750611cd583611c85565b925050600181019050611cb6565b5085935050505092915050565b60006020820190508181036000830152611d0a8184611c92565b905092915050565b600082825260208201905092915050565b7f416363657373436f6e74726f6c3a2063616e206f6e6c792072656e6f756e636560008201527f20726f6c657320666f722073656c660000000000000000000000000000000000602082015250565b6000611d7f602f83611d12565b9150611d8a82611d23565b604082019050919050565b60006020820190508181036000830152611dae81611d72565b9050919050565b600081519050611dc4816118fd565b92915050565b600060208284031215611de057611ddf6118c6565b5b6000611dee84828501611db5565b91505092915050565b7f596f7520646f6e2774206f776e207468697320746f6b656e0000000000000000600082015250565b6000611e2d601883611d12565b9150611e3882611df7565b602082019050919050565b60006020820190508181036000830152611e5c81611e20565b9050919050565b6000604082019050611e786000830185611bc8565b611e856020830184611bc8565b9392505050565b611e9581611a7d565b8114611ea057600080fd5b50565b600081519050611eb281611e8c565b92915050565b600060208284031215611ece57611ecd6118c6565b5b6000611edc84828501611ea3565b91505092915050565b7f596f7520617265206e6f7420617070726f76656420666f72207468697320636f60008201527f6e74726163740000000000000000000000000000000000000000000000000000602082015250565b6000611f41602683611d12565b9150611f4c82611ee5565b604082019050919050565b60006020820190508181036000830152611f7081611f34565b9050919050565b7f4e487b7100000000000000000000000000000000000000000000000000000000600052601160045260246000fd5b6000611fb182611929565b9150611fbc83611929565b925082821015611fcf57611fce611f77565b5b828203905092915050565b7f4e487b7100000000000000000000000000000000000000000000000000000000600052603260045260246000fd5b7f4e487b7100000000000000000000000000000000000000000000000000000000600052603160045260246000fd5b7f596f7520646f6e2774206861766520656e6f756768206d6f6e65790000000000600082015250565b600061206e601b83611d12565b915061207982612038565b602082019050919050565b6000602082019050818103600083015261209d81612061565b9050919050565b7f546865206f776e6572206f66207468697320746f6b656e206973206e6f74207460008201527f68652073656c6c65720000000000000000000000000000000000000000000000602082015250565b6000612100602983611d12565b915061210b826120a4565b604082019050919050565b6000602082019050818103600083015261212f816120f3565b9050919050565b600060608201905061214b6000830186611bc8565b6121586020830185611bc8565b612165604083018461199f565b949350505050565b600061217882611929565b915061218383611929565b9250817fffffffffffffffffffffffffffffffffffffffffffffffffffffffffffffffff04831182151516156121bc576121bb611f77565b5b828202905092915050565b7f4e487b7100000000000000000000000000000000000000000000000000000000600052601260045260246000fd5b600061220182611929565b915061220c83611929565b92508261221c5761221b6121c7565b5b828204905092915050565b7f5061757361626c653a206e6f7420706175736564000000000000000000000000600082015250565b600061225d601483611d12565b915061226882612227565b602082019050919050565b6000602082019050818103600083015261228c81612250565b9050919050565b7f5061757361626c653a2070617573656400000000000000000000000000000000600082015250565b60006122c9601083611d12565b91506122d482612293565b602082019050919050565b600060208201905081810360008301526122f8816122bc565b9050919050565b600081905092915050565b7f416363657373436f6e74726f6c3a206163636f756e7420000000000000000000600082015250565b60006123406017836122ff565b915061234b8261230a565b601782019050919050565b600081519050919050565b60005b8381101561237f578082015181840152602081019050612364565b8381111561238e576000848401525b50505050565b600061239f82612356565b6123a981856122ff565b93506123b9818560208601612361565b80840191505092915050565b7f206973206d697373696e6720726f6c6520000000000000000000000000000000600082015250565b60006123fb6011836122ff565b9150612406826123c5565b601182019050919050565b600061241c82612333565b91506124288285612394565b9150612433826123ee565b915061243f8284612394565b91508190509392505050565b6000601f19601f8301169050919050565b600061246782612356565b6124718185611d12565b9350612481818560208601612361565b61248a8161244b565b840191505092915050565b600060208201905081810360008301526124af818461245c565b905092915050565b60006124c282611929565b91506124cd83611929565b9250827fffffffffffffffffffffffffffffffffffffffffffffffffffffffffffffffff0382111561250257612501611f77565b5b828201905092915050565b7f4e487b7100000000000000000000000000000000000000000000000000000000600052604160045260246000fd5b600061254782611929565b91506000820361255a57612559611f77565b5b600182039050919050565b7f537472696e67733a20686578206c656e67746820696e73756666696369656e74600082015250565b600061259b602083611d12565b91506125a682612565565b602082019050919050565b600060208201905081810360008301526125ca8161258e565b905091905056fea2646970667358221220d1baba2ea9273e77f72bc8a84ca379b7614c1dd259889970f54845ee12e475fe64736f6c634300080f0033",
  "immutableReferences": {},
  "source": "// SPDX-License-Identifier: MIT\npragma solidity ^0.8.4;\n\nimport \"@openzeppelin/contracts/security/Pausable.sol\";\nimport \"@openzeppelin/contracts/access/AccessControl.sol\";\n\nimport \"./CryptoTicketsMatchNFTs.sol\";\n\ncontract CryptoTicketsMarketplace is Pausable, AccessControl {\n    // Other contracts\n    CryptoTicketsMatchNFTs matchTicketsContract;\n\n    struct Listing {\n      uint256 price;\n      address payable seller;\n    }\n\n    mapping(address => mapping(uint256 => Listing)) public listings;\n    mapping(uint256 => address) public listingIds; // List of owners by token id\n    uint256[] public tokensOnSale;\n\n    address payable clubAddress;\n\n    constructor(address matchTicketsContractAddresss, address payable clubOwnerAddress) {\n        matchTicketsContract = CryptoTicketsMatchNFTs(matchTicketsContractAddresss);\n        _grantRole(DEFAULT_ADMIN_ROLE, msg.sender);\n        _grantRole(DEFAULT_ADMIN_ROLE, clubOwnerAddress);\n        clubAddress = clubOwnerAddress;\n    }\n\n    function addListing(uint256 tokenId, uint256 price) public {\n        require(matchTicketsContract.ownerOf(tokenId) == msg.sender, \"You don't own this token\");\n        require(matchTicketsContract.isApprovedForAll(msg.sender, address(this)), \"You are not approved for this contract\");\n\n        listings[msg.sender][tokenId] = Listing(price, payable(msg.sender));\n        listingIds[tokenId] = msg.sender;\n        tokensOnSale.push(tokenId);\n    }\n\n    function removeListing(uint256 tokenId) public {\n        require(matchTicketsContract.ownerOf(tokenId) == msg.sender, \"You don't own this token\");\n        require(matchTicketsContract.isApprovedForAll(msg.sender, address(this)), \"You are not approved for this contract\");\n\n        delete listingIds[tokenId];\n        delete listings[payable(msg.sender)][tokenId];\n\n        // Remove token from array of tokens on sale\n        tokensOnSale[tokenId] = tokensOnSale[tokensOnSale.length - 1];\n        tokensOnSale.pop();\n    }\n\n    function purchase(uint256 tokenId) public payable {\n      address ownerAddress = listingIds[tokenId];\n      Listing memory item = listings[ownerAddress][tokenId];\n      require(msg.value >= item.price, \"You don't have enough money\");\n      require(matchTicketsContract.ownerOf(tokenId) == ownerAddress, \"The owner of this token is not the seller\");\n\n      matchTicketsContract.safeTransferFrom(ownerAddress, msg.sender, tokenId);\n\n      delete listingIds[tokenId];\n      delete listings[ownerAddress][tokenId];\n      // Remove token from array of tokens on sale\n      tokensOnSale[tokenId] = tokensOnSale[tokensOnSale.length - 1];\n      tokensOnSale.pop();\n      // Send money to seller and the fees for the club\n      item.seller.transfer(msg.value * 90 / 100);\n      clubAddress.transfer(msg.value * 10 / 100);\n    }\n\n    function getOnSaleTokens() public view returns (uint256[] memory) {\n      return tokensOnSale;\n    }\n\n    function pause() public onlyRole(DEFAULT_ADMIN_ROLE) {\n        _pause();\n    }\n\n    function unpause() public onlyRole(DEFAULT_ADMIN_ROLE) {\n        _unpause();\n    }\n}\n",
  "sourcePath": "/Users/dosorio/Proyectos/Blockchain/SportTickets/contracts/CryptoTicketsMarketplace.sol",
  "compiler": {
    "name": "solc",
    "version": "0.8.15+commit.e14f2714.Emscripten.clang"
  },
  "schemaVersion": "3.4.7",
  "updatedAt": "2022-07-02T11:22:42.884Z",
  "networkType": "ethereum",
  "devdoc": {
    "kind": "dev",
    "methods": {
      "getRoleAdmin(bytes32)": {
        "details": "Returns the admin role that controls `role`. See {grantRole} and {revokeRole}. To change a role's admin, use {_setRoleAdmin}."
      },
      "grantRole(bytes32,address)": {
        "details": "Grants `role` to `account`. If `account` had not been already granted `role`, emits a {RoleGranted} event. Requirements: - the caller must have ``role``'s admin role."
      },
      "hasRole(bytes32,address)": {
        "details": "Returns `true` if `account` has been granted `role`."
      },
      "paused()": {
        "details": "Returns true if the contract is paused, and false otherwise."
      },
      "renounceRole(bytes32,address)": {
        "details": "Revokes `role` from the calling account. Roles are often managed via {grantRole} and {revokeRole}: this function's purpose is to provide a mechanism for accounts to lose their privileges if they are compromised (such as when a trusted device is misplaced). If the calling account had been revoked `role`, emits a {RoleRevoked} event. Requirements: - the caller must be `account`."
      },
      "revokeRole(bytes32,address)": {
        "details": "Revokes `role` from `account`. If `account` had been granted `role`, emits a {RoleRevoked} event. Requirements: - the caller must have ``role``'s admin role."
      },
      "supportsInterface(bytes4)": {
        "details": "See {IERC165-supportsInterface}."
      }
    },
    "version": 1
  },
  "userdoc": {
    "kind": "user",
    "methods": {},
    "version": 1
  }
}