{
  "contractName": "CryptoTicketsMembershipNFTs",
  "abi": [
    {
      "inputs": [
        {
          "internalType": "address",
          "name": "matchTicketsContractAddresss",
          "type": "address"
        },
        {
          "internalType": "address",
          "name": "matchManagementContractAddresss",
          "type": "address"
        }
      ],
      "stateMutability": "nonpayable",
      "type": "constructor"
    },
    {
      "anonymous": false,
      "inputs": [
        {
          "indexed": true,
          "internalType": "address",
          "name": "owner",
          "type": "address"
        },
        {
          "indexed": true,
          "internalType": "address",
          "name": "approved",
          "type": "address"
        },
        {
          "indexed": true,
          "internalType": "uint256",
          "name": "tokenId",
          "type": "uint256"
        }
      ],
      "name": "Approval",
      "type": "event"
    },
    {
      "anonymous": false,
      "inputs": [
        {
          "indexed": true,
          "internalType": "address",
          "name": "owner",
          "type": "address"
        },
        {
          "indexed": true,
          "internalType": "address",
          "name": "operator",
          "type": "address"
        },
        {
          "indexed": false,
          "internalType": "bool",
          "name": "approved",
          "type": "bool"
        }
      ],
      "name": "ApprovalForAll",
      "type": "event"
    },
    {
      "anonymous": false,
      "inputs": [
        {
          "indexed": true,
          "internalType": "address",
          "name": "sender",
          "type": "address"
        },
        {
          "indexed": true,
          "internalType": "address",
          "name": "clubAddress",
          "type": "address"
        }
      ],
      "name": "ClubAdminRoleGranted",
      "type": "event"
    },
    {
      "anonymous": false,
      "inputs": [
        {
          "indexed": true,
          "internalType": "address",
          "name": "sender",
          "type": "address"
        },
        {
          "indexed": true,
          "internalType": "address",
          "name": "clubAddress",
          "type": "address"
        }
      ],
      "name": "ClubAdminRoleRevoked",
      "type": "event"
    },
    {
      "anonymous": false,
      "inputs": [
        {
          "indexed": true,
          "internalType": "address",
          "name": "sender",
          "type": "address"
        },
        {
          "indexed": true,
          "internalType": "address",
          "name": "membershipAddress",
          "type": "address"
        }
      ],
      "name": "MembershipRoleGranted",
      "type": "event"
    },
    {
      "anonymous": false,
      "inputs": [
        {
          "indexed": true,
          "internalType": "address",
          "name": "sender",
          "type": "address"
        },
        {
          "indexed": true,
          "internalType": "address",
          "name": "membershipAddress",
          "type": "address"
        }
      ],
      "name": "MembershipRoleRevoked",
      "type": "event"
    },
    {
      "anonymous": false,
      "inputs": [
        {
          "indexed": true,
          "internalType": "address",
          "name": "membershipId",
          "type": "address"
        },
        {
          "indexed": true,
          "internalType": "uint256",
          "name": "tokenId",
          "type": "uint256"
        }
      ],
      "name": "MembershipTokenMinted",
      "type": "event"
    },
    {
      "anonymous": false,
      "inputs": [
        {
          "indexed": false,
          "internalType": "address",
          "name": "account",
          "type": "address"
        }
      ],
      "name": "Paused",
      "type": "event"
    },
    {
      "anonymous": false,
      "inputs": [
        {
          "indexed": true,
          "internalType": "bytes32",
          "name": "role",
          "type": "bytes32"
        },
        {
          "indexed": true,
          "internalType": "bytes32",
          "name": "previousAdminRole",
          "type": "bytes32"
        },
        {
          "indexed": true,
          "internalType": "bytes32",
          "name": "newAdminRole",
          "type": "bytes32"
        }
      ],
      "name": "RoleAdminChanged",
      "type": "event"
    },
    {
      "anonymous": false,
      "inputs": [
        {
          "indexed": true,
          "internalType": "bytes32",
          "name": "role",
          "type": "bytes32"
        },
        {
          "indexed": true,
          "internalType": "address",
          "name": "account",
          "type": "address"
        },
        {
          "indexed": true,
          "internalType": "address",
          "name": "sender",
          "type": "address"
        }
      ],
      "name": "RoleGranted",
      "type": "event"
    },
    {
      "anonymous": false,
      "inputs": [
        {
          "indexed": true,
          "internalType": "bytes32",
          "name": "role",
          "type": "bytes32"
        },
        {
          "indexed": true,
          "internalType": "address",
          "name": "account",
          "type": "address"
        },
        {
          "indexed": true,
          "internalType": "address",
          "name": "sender",
          "type": "address"
        }
      ],
      "name": "RoleRevoked",
      "type": "event"
    },
    {
      "anonymous": false,
      "inputs": [
        {
          "indexed": true,
          "internalType": "address",
          "name": "from",
          "type": "address"
        },
        {
          "indexed": true,
          "internalType": "address",
          "name": "to",
          "type": "address"
        },
        {
          "indexed": true,
          "internalType": "uint256",
          "name": "tokenId",
          "type": "uint256"
        }
      ],
      "name": "Transfer",
      "type": "event"
    },
    {
      "anonymous": false,
      "inputs": [
        {
          "indexed": false,
          "internalType": "address",
          "name": "account",
          "type": "address"
        }
      ],
      "name": "Unpaused",
      "type": "event"
    },
    {
      "inputs": [],
      "name": "CLUB_ADMIN_ROLE",
      "outputs": [
        {
          "internalType": "bytes32",
          "name": "",
          "type": "bytes32"
        }
      ],
      "stateMutability": "view",
      "type": "function",
      "constant": true
    },
    {
      "inputs": [],
      "name": "DEFAULT_ADMIN_ROLE",
      "outputs": [
        {
          "internalType": "bytes32",
          "name": "",
          "type": "bytes32"
        }
      ],
      "stateMutability": "view",
      "type": "function",
      "constant": true
    },
    {
      "inputs": [],
      "name": "MEMBERSHIP_ROLE",
      "outputs": [
        {
          "internalType": "bytes32",
          "name": "",
          "type": "bytes32"
        }
      ],
      "stateMutability": "view",
      "type": "function",
      "constant": true
    },
    {
      "inputs": [
        {
          "internalType": "address",
          "name": "to",
          "type": "address"
        },
        {
          "internalType": "uint256",
          "name": "tokenId",
          "type": "uint256"
        }
      ],
      "name": "approve",
      "outputs": [],
      "stateMutability": "nonpayable",
      "type": "function"
    },
    {
      "inputs": [
        {
          "internalType": "address",
          "name": "owner",
          "type": "address"
        }
      ],
      "name": "balanceOf",
      "outputs": [
        {
          "internalType": "uint256",
          "name": "",
          "type": "uint256"
        }
      ],
      "stateMutability": "view",
      "type": "function",
      "constant": true
    },
    {
      "inputs": [
        {
          "internalType": "uint256",
          "name": "tokenId",
          "type": "uint256"
        }
      ],
      "name": "burn",
      "outputs": [],
      "stateMutability": "nonpayable",
      "type": "function"
    },
    {
      "inputs": [
        {
          "internalType": "address",
          "name": "",
          "type": "address"
        }
      ],
      "name": "clubAdmins",
      "outputs": [
        {
          "internalType": "bool",
          "name": "",
          "type": "bool"
        }
      ],
      "stateMutability": "view",
      "type": "function",
      "constant": true
    },
    {
      "inputs": [
        {
          "internalType": "uint256",
          "name": "tokenId",
          "type": "uint256"
        }
      ],
      "name": "getApproved",
      "outputs": [
        {
          "internalType": "address",
          "name": "",
          "type": "address"
        }
      ],
      "stateMutability": "view",
      "type": "function",
      "constant": true
    },
    {
      "inputs": [
        {
          "internalType": "bytes32",
          "name": "role",
          "type": "bytes32"
        }
      ],
      "name": "getRoleAdmin",
      "outputs": [
        {
          "internalType": "bytes32",
          "name": "",
          "type": "bytes32"
        }
      ],
      "stateMutability": "view",
      "type": "function",
      "constant": true
    },
    {
      "inputs": [
        {
          "internalType": "bytes32",
          "name": "role",
          "type": "bytes32"
        },
        {
          "internalType": "address",
          "name": "account",
          "type": "address"
        }
      ],
      "name": "grantRole",
      "outputs": [],
      "stateMutability": "nonpayable",
      "type": "function"
    },
    {
      "inputs": [
        {
          "internalType": "bytes32",
          "name": "role",
          "type": "bytes32"
        },
        {
          "internalType": "address",
          "name": "account",
          "type": "address"
        }
      ],
      "name": "hasRole",
      "outputs": [
        {
          "internalType": "bool",
          "name": "",
          "type": "bool"
        }
      ],
      "stateMutability": "view",
      "type": "function",
      "constant": true
    },
    {
      "inputs": [
        {
          "internalType": "address",
          "name": "owner",
          "type": "address"
        },
        {
          "internalType": "address",
          "name": "operator",
          "type": "address"
        }
      ],
      "name": "isApprovedForAll",
      "outputs": [
        {
          "internalType": "bool",
          "name": "",
          "type": "bool"
        }
      ],
      "stateMutability": "view",
      "type": "function",
      "constant": true
    },
    {
      "inputs": [
        {
          "internalType": "address",
          "name": "",
          "type": "address"
        }
      ],
      "name": "memberships",
      "outputs": [
        {
          "internalType": "bool",
          "name": "",
          "type": "bool"
        }
      ],
      "stateMutability": "view",
      "type": "function",
      "constant": true
    },
    {
      "inputs": [
        {
          "internalType": "address",
          "name": "",
          "type": "address"
        }
      ],
      "name": "membershipsTokenMinted",
      "outputs": [
        {
          "internalType": "bool",
          "name": "",
          "type": "bool"
        }
      ],
      "stateMutability": "view",
      "type": "function",
      "constant": true
    },
    {
      "inputs": [],
      "name": "name",
      "outputs": [
        {
          "internalType": "string",
          "name": "",
          "type": "string"
        }
      ],
      "stateMutability": "view",
      "type": "function",
      "constant": true
    },
    {
      "inputs": [
        {
          "internalType": "uint256",
          "name": "tokenId",
          "type": "uint256"
        }
      ],
      "name": "ownerOf",
      "outputs": [
        {
          "internalType": "address",
          "name": "",
          "type": "address"
        }
      ],
      "stateMutability": "view",
      "type": "function",
      "constant": true
    },
    {
      "inputs": [],
      "name": "paused",
      "outputs": [
        {
          "internalType": "bool",
          "name": "",
          "type": "bool"
        }
      ],
      "stateMutability": "view",
      "type": "function",
      "constant": true
    },
    {
      "inputs": [
        {
          "internalType": "bytes32",
          "name": "role",
          "type": "bytes32"
        },
        {
          "internalType": "address",
          "name": "account",
          "type": "address"
        }
      ],
      "name": "renounceRole",
      "outputs": [],
      "stateMutability": "nonpayable",
      "type": "function"
    },
    {
      "inputs": [
        {
          "internalType": "bytes32",
          "name": "role",
          "type": "bytes32"
        },
        {
          "internalType": "address",
          "name": "account",
          "type": "address"
        }
      ],
      "name": "revokeRole",
      "outputs": [],
      "stateMutability": "nonpayable",
      "type": "function"
    },
    {
      "inputs": [
        {
          "internalType": "address",
          "name": "from",
          "type": "address"
        },
        {
          "internalType": "address",
          "name": "to",
          "type": "address"
        },
        {
          "internalType": "uint256",
          "name": "tokenId",
          "type": "uint256"
        }
      ],
      "name": "safeTransferFrom",
      "outputs": [],
      "stateMutability": "nonpayable",
      "type": "function"
    },
    {
      "inputs": [
        {
          "internalType": "address",
          "name": "from",
          "type": "address"
        },
        {
          "internalType": "address",
          "name": "to",
          "type": "address"
        },
        {
          "internalType": "uint256",
          "name": "tokenId",
          "type": "uint256"
        },
        {
          "internalType": "bytes",
          "name": "_data",
          "type": "bytes"
        }
      ],
      "name": "safeTransferFrom",
      "outputs": [],
      "stateMutability": "nonpayable",
      "type": "function"
    },
    {
      "inputs": [
        {
          "internalType": "address",
          "name": "operator",
          "type": "address"
        },
        {
          "internalType": "bool",
          "name": "approved",
          "type": "bool"
        }
      ],
      "name": "setApprovalForAll",
      "outputs": [],
      "stateMutability": "nonpayable",
      "type": "function"
    },
    {
      "inputs": [],
      "name": "symbol",
      "outputs": [
        {
          "internalType": "string",
          "name": "",
          "type": "string"
        }
      ],
      "stateMutability": "view",
      "type": "function",
      "constant": true
    },
    {
      "inputs": [
        {
          "internalType": "uint256",
          "name": "index",
          "type": "uint256"
        }
      ],
      "name": "tokenByIndex",
      "outputs": [
        {
          "internalType": "uint256",
          "name": "",
          "type": "uint256"
        }
      ],
      "stateMutability": "view",
      "type": "function",
      "constant": true
    },
    {
      "inputs": [
        {
          "internalType": "address",
          "name": "owner",
          "type": "address"
        },
        {
          "internalType": "uint256",
          "name": "index",
          "type": "uint256"
        }
      ],
      "name": "tokenOfOwnerByIndex",
      "outputs": [
        {
          "internalType": "uint256",
          "name": "",
          "type": "uint256"
        }
      ],
      "stateMutability": "view",
      "type": "function",
      "constant": true
    },
    {
      "inputs": [],
      "name": "totalSupply",
      "outputs": [
        {
          "internalType": "uint256",
          "name": "",
          "type": "uint256"
        }
      ],
      "stateMutability": "view",
      "type": "function",
      "constant": true
    },
    {
      "inputs": [
        {
          "internalType": "address",
          "name": "from",
          "type": "address"
        },
        {
          "internalType": "address",
          "name": "to",
          "type": "address"
        },
        {
          "internalType": "uint256",
          "name": "tokenId",
          "type": "uint256"
        }
      ],
      "name": "transferFrom",
      "outputs": [],
      "stateMutability": "nonpayable",
      "type": "function"
    },
    {
      "inputs": [],
      "name": "pause",
      "outputs": [],
      "stateMutability": "nonpayable",
      "type": "function"
    },
    {
      "inputs": [],
      "name": "unpause",
      "outputs": [],
      "stateMutability": "nonpayable",
      "type": "function"
    },
    {
      "inputs": [],
      "name": "mintMembershipToken",
      "outputs": [],
      "stateMutability": "nonpayable",
      "type": "function"
    },
    {
      "inputs": [
        {
          "internalType": "uint256",
          "name": "tokenId",
          "type": "uint256"
        }
      ],
      "name": "tokenURI",
      "outputs": [
        {
          "internalType": "string",
          "name": "",
          "type": "string"
        }
      ],
      "stateMutability": "view",
      "type": "function",
      "constant": true
    },
    {
      "inputs": [
        {
          "internalType": "bytes4",
          "name": "interfaceId",
          "type": "bytes4"
        }
      ],
      "name": "supportsInterface",
      "outputs": [
        {
          "internalType": "bool",
          "name": "",
          "type": "bool"
        }
      ],
      "stateMutability": "view",
      "type": "function",
      "constant": true
    },
    {
      "inputs": [
        {
          "internalType": "address",
          "name": "account",
          "type": "address"
        }
      ],
      "name": "grantClubRol",
      "outputs": [],
      "stateMutability": "nonpayable",
      "type": "function"
    },
    {
      "inputs": [
        {
          "internalType": "address",
          "name": "account",
          "type": "address"
        }
      ],
      "name": "revokeClubRol",
      "outputs": [],
      "stateMutability": "nonpayable",
      "type": "function"
    },
    {
      "inputs": [
        {
          "internalType": "address",
          "name": "account",
          "type": "address"
        }
      ],
      "name": "hasClubRol",
      "outputs": [
        {
          "internalType": "bool",
          "name": "",
          "type": "bool"
        }
      ],
      "stateMutability": "view",
      "type": "function",
      "constant": true
    },
    {
      "inputs": [
        {
          "internalType": "address",
          "name": "account",
          "type": "address"
        }
      ],
      "name": "grantMembershipRol",
      "outputs": [],
      "stateMutability": "nonpayable",
      "type": "function"
    },
    {
      "inputs": [
        {
          "internalType": "address",
          "name": "account",
          "type": "address"
        }
      ],
      "name": "revokeMembershipRol",
      "outputs": [],
      "stateMutability": "nonpayable",
      "type": "function"
    },
    {
      "inputs": [
        {
          "internalType": "address",
          "name": "account",
          "type": "address"
        }
      ],
      "name": "hasMembershipRol",
      "outputs": [
        {
          "internalType": "bool",
          "name": "",
          "type": "bool"
        }
      ],
      "stateMutability": "view",
      "type": "function",
      "constant": true
    },
    {
      "inputs": [
        {
          "internalType": "address",
          "name": "account",
          "type": "address"
        }
      ],
      "name": "isMembershipTokenMinted",
      "outputs": [
        {
          "internalType": "bool",
          "name": "",
          "type": "bool"
        }
      ],
      "stateMutability": "view",
      "type": "function",
      "constant": true
    },
    {
      "inputs": [],
      "name": "membershipsNumber",
      "outputs": [
        {
          "internalType": "uint256",
          "name": "",
          "type": "uint256"
        }
      ],
      "stateMutability": "view",
      "type": "function",
      "constant": true
    }
  ],
  "bytecode": "0x6080604052600560135560405180608001604052806043815260200162005c216043913960149081620000339190620006a6565b503480156200004157600080fd5b5060405162005c6438038062005c648339818101604052810190620000679190620007f7565b6040518060400160405280601b81526020017f43727970746f5469636b6574734d656d626572736869704e46547300000000008152506040518060400160405280600581526020017f43544b554e0000000000000000000000000000000000000000000000000000008152508160009081620000e49190620006a6565b508060019081620000f69190620006a6565b5050506000600b60006101000a81548160ff02191690831515021790555081600d60006101000a81548173ffffffffffffffffffffffffffffffffffffffff021916908373ffffffffffffffffffffffffffffffffffffffff16021790555080600e60006101000a81548173ffffffffffffffffffffffffffffffffffffffff021916908373ffffffffffffffffffffffffffffffffffffffff160217905550620001ab6000801b33620002c760201b60201c565b620001dd7ffea4c03f1677c8672a8e0564f7a4b9b68035dd9e6f8cfe58bc00e6e870e6a7cd33620002c760201b60201c565b6200020f7f41a3fffbda0f1c9e28bd52ae72187b3406590146b6ca8f19961d2250566efd1633620002c760201b60201c565b6001600f60003373ffffffffffffffffffffffffffffffffffffffff1673ffffffffffffffffffffffffffffffffffffffff16815260200190815260200160002060006101000a81548160ff0219169083151502179055506001601060003373ffffffffffffffffffffffffffffffffffffffff1673ffffffffffffffffffffffffffffffffffffffff16815260200190815260200160002060006101000a81548160ff02191690831515021790555050506200083e565b620002d98282620003b960201b60201c565b620003b5576001600c600084815260200190815260200160002060000160008373ffffffffffffffffffffffffffffffffffffffff1673ffffffffffffffffffffffffffffffffffffffff16815260200190815260200160002060006101000a81548160ff0219169083151502179055506200035a6200042460201b60201c565b73ffffffffffffffffffffffffffffffffffffffff168173ffffffffffffffffffffffffffffffffffffffff16837f2f8788117e7eff1d82e926ec794901d17c78024a50270940304540a733656f0d60405160405180910390a45b5050565b6000600c600084815260200190815260200160002060000160008373ffffffffffffffffffffffffffffffffffffffff1673ffffffffffffffffffffffffffffffffffffffff16815260200190815260200160002060009054906101000a900460ff16905092915050565b600033905090565b600081519050919050565b7f4e487b7100000000000000000000000000000000000000000000000000000000600052604160045260246000fd5b7f4e487b7100000000000000000000000000000000000000000000000000000000600052602260045260246000fd5b60006002820490506001821680620004ae57607f821691505b602082108103620004c457620004c362000466565b5b50919050565b60008190508160005260206000209050919050565b60006020601f8301049050919050565b600082821b905092915050565b6000600883026200052e7fffffffffffffffffffffffffffffffffffffffffffffffffffffffffffffffff82620004ef565b6200053a8683620004ef565b95508019841693508086168417925050509392505050565b6000819050919050565b6000819050919050565b600062000587620005816200057b8462000552565b6200055c565b62000552565b9050919050565b6000819050919050565b620005a38362000566565b620005bb620005b2826200058e565b848454620004fc565b825550505050565b600090565b620005d2620005c3565b620005df81848462000598565b505050565b5b818110156200060757620005fb600082620005c8565b600181019050620005e5565b5050565b601f82111562000656576200062081620004ca565b6200062b84620004df565b810160208510156200063b578190505b620006536200064a85620004df565b830182620005e4565b50505b505050565b600082821c905092915050565b60006200067b600019846008026200065b565b1980831691505092915050565b600062000696838362000668565b9150826002028217905092915050565b620006b1826200042c565b67ffffffffffffffff811115620006cd57620006cc62000437565b5b620006d9825462000495565b620006e68282856200060b565b600060209050601f8311600181146200071e576000841562000709578287015190505b62000715858262000688565b86555062000785565b601f1984166200072e86620004ca565b60005b82811015620007585784890151825560018201915060208501945060208101905062000731565b8683101562000778578489015162000774601f89168262000668565b8355505b6001600288020188555050505b505050505050565b600080fd5b600073ffffffffffffffffffffffffffffffffffffffff82169050919050565b6000620007bf8262000792565b9050919050565b620007d181620007b2565b8114620007dd57600080fd5b50565b600081519050620007f181620007c6565b92915050565b600080604083850312156200081157620008106200078d565b5b60006200082185828601620007e0565b92505060206200083485828601620007e0565b9150509250929050565b6153d3806200084e6000396000f3fe608060405234801561001057600080fd5b50600436106102485760003560e01c80635aa3454c1161013b578063a217fddf116100b8578063c87b56dd1161007c578063c87b56dd14610711578063d547741f14610741578063df37bb191461075d578063e985e9c51461077b578063fe5a0666146107ab57610248565b8063a217fddf1461065b578063a22cb46514610679578063af65910614610695578063b88d4fde146106c5578063b95ec162146106e157610248565b806373d98799116100ff57806373d98799146105b75780638456cb59146105e757806385f67835146105f157806391d148541461060d57806395d89b411461063d57610248565b80635aa3454c146104ed5780635c975abb1461051d578063633b55101461053b5780636352211e1461055757806370a082311461058757610248565b80632f745c59116101c957806342842e0e1161018d57806342842e0e1461043957806342966c68146104555780634f6ccce71461047157806350476117146104a157806358c6a735146104bd57610248565b80632f745c59146103955780633022b466146103c557806336568abe146103e35780633d44ba42146103ff5780633f4ba83a1461042f57610248565b806318160ddd1161021057806318160ddd146103055780631e9ad7e31461032357806323b872dd1461032d578063248a9ca3146103495780632f2ff15d1461037957610248565b806301ffc9a71461024d57806306fdde031461027d578063081812fc1461029b578063095ea7b3146102cb5780631403c0d3146102e7575b600080fd5b61026760048036038101906102629190613947565b6107c7565b604051610274919061398f565b60405180910390f35b6102856107d9565b6040516102929190613a43565b60405180910390f35b6102b560048036038101906102b09190613a9b565b61086b565b6040516102c29190613b09565b60405180910390f35b6102e560048036038101906102e09190613b50565b6108f0565b005b6102ef610a07565b6040516102fc9190613ba9565b60405180910390f35b61030d610a2b565b60405161031a9190613bd3565b60405180910390f35b61032b610a38565b005b61034760048036038101906103429190613bee565b610c5d565b005b610363600480360381019061035e9190613c6d565b610cbd565b6040516103709190613ba9565b60405180910390f35b610393600480360381019061038e9190613c9a565b610cdd565b005b6103af60048036038101906103aa9190613b50565b610cfe565b6040516103bc9190613bd3565b60405180910390f35b6103cd610da3565b6040516103da9190613bd3565b60405180910390f35b6103fd60048036038101906103f89190613c9a565b610db4565b005b61041960048036038101906104149190613cda565b610e37565b604051610426919061398f565b60405180910390f35b610437610e8d565b005b610453600480360381019061044e9190613bee565b610ea5565b005b61046f600480360381019061046a9190613a9b565b610ec5565b005b61048b60048036038101906104869190613a9b565b610f21565b6040516104989190613bd3565b60405180910390f35b6104bb60048036038101906104b69190613cda565b610f92565b005b6104d760048036038101906104d29190613cda565b611199565b6040516104e4919061398f565b60405180910390f35b61050760048036038101906105029190613cda565b6111b9565b604051610514919061398f565b60405180910390f35b61052561120f565b604051610532919061398f565b60405180910390f35b61055560048036038101906105509190613cda565b611226565b005b610571600480360381019061056c9190613a9b565b611330565b60405161057e9190613b09565b60405180910390f35b6105a1600480360381019061059c9190613cda565b6113e1565b6040516105ae9190613bd3565b60405180910390f35b6105d160048036038101906105cc9190613cda565b611498565b6040516105de919061398f565b60405180910390f35b6105ef6114b8565b005b61060b60048036038101906106069190613cda565b6114d0565b005b61062760048036038101906106229190613c9a565b6115da565b604051610634919061398f565b60405180910390f35b610645611645565b6040516106529190613a43565b60405180910390f35b6106636116d7565b6040516106709190613ba9565b60405180910390f35b610693600480360381019061068e9190613d33565b6116de565b005b6106af60048036038101906106aa9190613cda565b6116f4565b6040516106bc919061398f565b60405180910390f35b6106df60048036038101906106da9190613ea8565b611714565b005b6106fb60048036038101906106f69190613cda565b611776565b604051610708919061398f565b60405180910390f35b61072b60048036038101906107269190613a9b565b6117cc565b6040516107389190613a43565b60405180910390f35b61075b60048036038101906107569190613c9a565b6117de565b005b6107656117ff565b6040516107729190613ba9565b60405180910390f35b61079560048036038101906107909190613f2b565b611823565b6040516107a2919061398f565b60405180910390f35b6107c560048036038101906107c09190613cda565b6118b7565b005b60006107d282611abe565b9050919050565b6060600080546107e890613f9a565b80601f016020809104026020016040519081016040528092919081815260200182805461081490613f9a565b80156108615780601f1061083657610100808354040283529160200191610861565b820191906000526020600020905b81548152906001019060200180831161084457829003601f168201915b5050505050905090565b600061087682611b38565b6108b5576040517f08c379a00000000000000000000000000000000000000000000000000000000081526004016108ac9061403d565b60405180910390fd5b6004600083815260200190815260200160002060009054906101000a900473ffffffffffffffffffffffffffffffffffffffff169050919050565b60006108fb82611330565b90508073ffffffffffffffffffffffffffffffffffffffff168373ffffffffffffffffffffffffffffffffffffffff160361096b576040517f08c379a0000000000000000000000000000000000000000000000000000000008152600401610962906140cf565b60405180910390fd5b8073ffffffffffffffffffffffffffffffffffffffff1661098a611ba4565b73ffffffffffffffffffffffffffffffffffffffff1614806109b957506109b8816109b3611ba4565b611823565b5b6109f8576040517f08c379a00000000000000000000000000000000000000000000000000000000081526004016109ef90614161565b60405180910390fd5b610a028383611bac565b505050565b7ffea4c03f1677c8672a8e0564f7a4b9b68035dd9e6f8cfe58bc00e6e870e6a7cd81565b6000600880549050905090565b7f41a3fffbda0f1c9e28bd52ae72187b3406590146b6ca8f19961d2250566efd16610a6281611c65565b601160003373ffffffffffffffffffffffffffffffffffffffff1673ffffffffffffffffffffffffffffffffffffffff16815260200190815260200160002060009054906101000a900460ff1615610aef576040517f08c379a0000000000000000000000000000000000000000000000000000000008152600401610ae6906141f3565b60405180910390fd5b6000610afb6012611c79565b9050610b076012611c87565b610b113382611c9d565b610b3081610b2b60135484610b269190614242565b611cbb565b611e1b565b6001601160003373ffffffffffffffffffffffffffffffffffffffff1673ffffffffffffffffffffffffffffffffffffffff16815260200190815260200160002060006101000a81548160ff021916908315150217905550600d60009054906101000a900473ffffffffffffffffffffffffffffffffffffffff1673ffffffffffffffffffffffffffffffffffffffff16631355e517336040518263ffffffff1660e01b8152600401610be39190613b09565b600060405180830381600087803b158015610bfd57600080fd5b505af1158015610c11573d6000803e3d6000fd5b50505050803373ffffffffffffffffffffffffffffffffffffffff167feb566efad9626b41af91d6ffb04ce599137c61c2fe28b95b132efeab61e7ea8760405160405180910390a35050565b610c6e610c68611ba4565b82611e88565b610cad576040517f08c379a0000000000000000000000000000000000000000000000000000000008152600401610ca4906142e5565b60405180910390fd5b610cb8838383611f66565b505050565b6000600c6000838152602001908152602001600020600101549050919050565b610ce682610cbd565b610cef81611c65565b610cf983836121cc565b505050565b6000610d09836113e1565b8210610d4a576040517f08c379a0000000000000000000000000000000000000000000000000000000008152600401610d4190614377565b60405180910390fd5b600660008473ffffffffffffffffffffffffffffffffffffffff1673ffffffffffffffffffffffffffffffffffffffff168152602001908152602001600020600083815260200190815260200160002054905092915050565b6000610daf6012611c79565b905090565b610dbc611ba4565b73ffffffffffffffffffffffffffffffffffffffff168173ffffffffffffffffffffffffffffffffffffffff1614610e29576040517f08c379a0000000000000000000000000000000000000000000000000000000008152600401610e2090614409565b60405180910390fd5b610e3382826122ad565b5050565b6000601160008373ffffffffffffffffffffffffffffffffffffffff1673ffffffffffffffffffffffffffffffffffffffff16815260200190815260200160002060009054906101000a900460ff169050919050565b6000801b610e9a81611c65565b610ea261238f565b50565b610ec083838360405180602001604052806000815250611714565b505050565b610ed6610ed0611ba4565b82611e88565b610f15576040517f08c379a0000000000000000000000000000000000000000000000000000000008152600401610f0c9061449b565b60405180910390fd5b610f1e81612431565b50565b6000610f2b610a2b565b8210610f6c576040517f08c379a0000000000000000000000000000000000000000000000000000000008152600401610f639061452d565b60405180910390fd5b60088281548110610f8057610f7f61454d565b5b90600052602060002001549050919050565b6000801b610f9f81611c65565b610fc97ffea4c03f1677c8672a8e0564f7a4b9b68035dd9e6f8cfe58bc00e6e870e6a7cd836121cc565b6001600f60008473ffffffffffffffffffffffffffffffffffffffff1673ffffffffffffffffffffffffffffffffffffffff16815260200190815260200160002060006101000a81548160ff021916908315150217905550600d60009054906101000a900473ffffffffffffffffffffffffffffffffffffffff1673ffffffffffffffffffffffffffffffffffffffff166350476117836040518263ffffffff1660e01b815260040161107c9190613b09565b600060405180830381600087803b15801561109657600080fd5b505af11580156110aa573d6000803e3d6000fd5b50505050600e60009054906101000a900473ffffffffffffffffffffffffffffffffffffffff1673ffffffffffffffffffffffffffffffffffffffff16637367c0d0836040518263ffffffff1660e01b81526004016111099190613b09565b600060405180830381600087803b15801561112357600080fd5b505af1158015611137573d6000803e3d6000fd5b505050508173ffffffffffffffffffffffffffffffffffffffff163373ffffffffffffffffffffffffffffffffffffffff167ff25ae518afe49b3c8f1a0f93c0adc26c177ff270839cfdc2f23250dea3a025bc60405160405180910390a35050565b60116020528060005260406000206000915054906101000a900460ff1681565b6000600f60008373ffffffffffffffffffffffffffffffffffffffff1673ffffffffffffffffffffffffffffffffffffffff16815260200190815260200160002060009054906101000a900460ff169050919050565b6000600b60009054906101000a900460ff16905090565b7ffea4c03f1677c8672a8e0564f7a4b9b68035dd9e6f8cfe58bc00e6e870e6a7cd61125081611c65565b61127a7f41a3fffbda0f1c9e28bd52ae72187b3406590146b6ca8f19961d2250566efd16836121cc565b6001601060008473ffffffffffffffffffffffffffffffffffffffff1673ffffffffffffffffffffffffffffffffffffffff16815260200190815260200160002060006101000a81548160ff0219169083151502179055508173ffffffffffffffffffffffffffffffffffffffff163373ffffffffffffffffffffffffffffffffffffffff167fc7456bf1910aabbd12578687132912d6f0958549e986fb05eaf79068cad923de60405160405180910390a35050565b6000806002600084815260200190815260200160002060009054906101000a900473ffffffffffffffffffffffffffffffffffffffff169050600073ffffffffffffffffffffffffffffffffffffffff168173ffffffffffffffffffffffffffffffffffffffff16036113d8576040517f08c379a00000000000000000000000000000000000000000000000000000000081526004016113cf906145ee565b60405180910390fd5b80915050919050565b60008073ffffffffffffffffffffffffffffffffffffffff168273ffffffffffffffffffffffffffffffffffffffff1603611451576040517f08c379a000000000000000000000000000000000000000000000000000000000815260040161144890614680565b60405180910390fd5b600360008373ffffffffffffffffffffffffffffffffffffffff1673ffffffffffffffffffffffffffffffffffffffff168152602001908152602001600020549050919050565b60106020528060005260406000206000915054906101000a900460ff1681565b6000801b6114c581611c65565b6114cd612522565b50565b7ffea4c03f1677c8672a8e0564f7a4b9b68035dd9e6f8cfe58bc00e6e870e6a7cd6114fa81611c65565b6115247f41a3fffbda0f1c9e28bd52ae72187b3406590146b6ca8f19961d2250566efd16836122ad565b6000601060008473ffffffffffffffffffffffffffffffffffffffff1673ffffffffffffffffffffffffffffffffffffffff16815260200190815260200160002060006101000a81548160ff0219169083151502179055508173ffffffffffffffffffffffffffffffffffffffff163373ffffffffffffffffffffffffffffffffffffffff167f4cee40a6bfc7aee0013cf7d930a3fc8bacbe218568f9594a0f10795095e7eb2860405160405180910390a35050565b6000600c600084815260200190815260200160002060000160008373ffffffffffffffffffffffffffffffffffffffff1673ffffffffffffffffffffffffffffffffffffffff16815260200190815260200160002060009054906101000a900460ff16905092915050565b60606001805461165490613f9a565b80601f016020809104026020016040519081016040528092919081815260200182805461168090613f9a565b80156116cd5780601f106116a2576101008083540402835291602001916116cd565b820191906000526020600020905b8154815290600101906020018083116116b057829003601f168201915b5050505050905090565b6000801b81565b6116f06116e9611ba4565b83836125c5565b5050565b600f6020528060005260406000206000915054906101000a900460ff1681565b61172561171f611ba4565b83611e88565b611764576040517f08c379a000000000000000000000000000000000000000000000000000000000815260040161175b906142e5565b60405180910390fd5b61177084848484612731565b50505050565b6000601060008373ffffffffffffffffffffffffffffffffffffffff1673ffffffffffffffffffffffffffffffffffffffff16815260200190815260200160002060009054906101000a900460ff169050919050565b60606117d78261278d565b9050919050565b6117e782610cbd565b6117f081611c65565b6117fa83836122ad565b505050565b7f41a3fffbda0f1c9e28bd52ae72187b3406590146b6ca8f19961d2250566efd1681565b6000600560008473ffffffffffffffffffffffffffffffffffffffff1673ffffffffffffffffffffffffffffffffffffffff16815260200190815260200160002060008373ffffffffffffffffffffffffffffffffffffffff1673ffffffffffffffffffffffffffffffffffffffff16815260200190815260200160002060009054906101000a900460ff16905092915050565b6000801b6118c481611c65565b6118ee7ffea4c03f1677c8672a8e0564f7a4b9b68035dd9e6f8cfe58bc00e6e870e6a7cd836122ad565b6000600f60008473ffffffffffffffffffffffffffffffffffffffff1673ffffffffffffffffffffffffffffffffffffffff16815260200190815260200160002060006101000a81548160ff021916908315150217905550600d60009054906101000a900473ffffffffffffffffffffffffffffffffffffffff1673ffffffffffffffffffffffffffffffffffffffff1663fe5a0666836040518263ffffffff1660e01b81526004016119a19190613b09565b600060405180830381600087803b1580156119bb57600080fd5b505af11580156119cf573d6000803e3d6000fd5b50505050600e60009054906101000a900473ffffffffffffffffffffffffffffffffffffffff1673ffffffffffffffffffffffffffffffffffffffff166376ad43b7836040518263ffffffff1660e01b8152600401611a2e9190613b09565b600060405180830381600087803b158015611a4857600080fd5b505af1158015611a5c573d6000803e3d6000fd5b505050508173ffffffffffffffffffffffffffffffffffffffff163373ffffffffffffffffffffffffffffffffffffffff167feca259f65afeb664520e27bcf53a29a7a276df0172960fd342f01ff705ba3b9560405160405180910390a35050565b60007f7965db0b000000000000000000000000000000000000000000000000000000007bffffffffffffffffffffffffffffffffffffffffffffffffffffffff1916827bffffffffffffffffffffffffffffffffffffffffffffffffffffffff19161480611b315750611b30826128de565b5b9050919050565b60008073ffffffffffffffffffffffffffffffffffffffff166002600084815260200190815260200160002060009054906101000a900473ffffffffffffffffffffffffffffffffffffffff1673ffffffffffffffffffffffffffffffffffffffff1614159050919050565b600033905090565b816004600083815260200190815260200160002060006101000a81548173ffffffffffffffffffffffffffffffffffffffff021916908373ffffffffffffffffffffffffffffffffffffffff160217905550808273ffffffffffffffffffffffffffffffffffffffff16611c1f83611330565b73ffffffffffffffffffffffffffffffffffffffff167f8c5be1e5ebec7d5bd14f71427d1e84f3dd0314c0f7b2291e5b200ac8c7c3b92560405160405180910390a45050565b611c7681611c71611ba4565b612958565b50565b600081600001549050919050565b6001816000016000828254019250508190555050565b611cb78282604051806020016040528060008152506129f5565b5050565b606060008203611d02576040518060400160405280600181526020017f30000000000000000000000000000000000000000000000000000000000000008152509050611e16565b600082905060005b60008214611d34578080611d1d906146cf565b915050600a82611d2d9190614717565b9150611d0a565b60008167ffffffffffffffff811115611d5057611d4f613d7d565b5b6040519080825280601f01601f191660200182016040528015611d825781602001600182028036833780820191505090505b5090505b60008514611e0f57600182611d9b9190614748565b9150600a85611daa9190614242565b6030611db6919061477c565b60f81b818381518110611dcc57611dcb61454d565b5b60200101907effffffffffffffffffffffffffffffffffffffffffffffffffffffffffffff1916908160001a905350600a85611e089190614717565b9450611d86565b8093505050505b919050565b611e2482611b38565b611e63576040517f08c379a0000000000000000000000000000000000000000000000000000000008152600401611e5a90614844565b60405180910390fd5b80600a60008481526020019081526020016000209081611e839190614a10565b505050565b6000611e9382611b38565b611ed2576040517f08c379a0000000000000000000000000000000000000000000000000000000008152600401611ec990614b54565b60405180910390fd5b6000611edd83611330565b90508073ffffffffffffffffffffffffffffffffffffffff168473ffffffffffffffffffffffffffffffffffffffff161480611f1f5750611f1e8185611823565b5b80611f5d57508373ffffffffffffffffffffffffffffffffffffffff16611f458461086b565b73ffffffffffffffffffffffffffffffffffffffff16145b91505092915050565b8273ffffffffffffffffffffffffffffffffffffffff16611f8682611330565b73ffffffffffffffffffffffffffffffffffffffff1614611fdc576040517f08c379a0000000000000000000000000000000000000000000000000000000008152600401611fd390614be6565b60405180910390fd5b600073ffffffffffffffffffffffffffffffffffffffff168273ffffffffffffffffffffffffffffffffffffffff160361204b576040517f08c379a000000000000000000000000000000000000000000000000000000000815260040161204290614c78565b60405180910390fd5b612056838383612a50565b612061600082611bac565b6001600360008573ffffffffffffffffffffffffffffffffffffffff1673ffffffffffffffffffffffffffffffffffffffff16815260200190815260200160002060008282546120b19190614748565b925050819055506001600360008473ffffffffffffffffffffffffffffffffffffffff1673ffffffffffffffffffffffffffffffffffffffff1681526020019081526020016000206000828254612108919061477c565b92505081905550816002600083815260200190815260200160002060006101000a81548173ffffffffffffffffffffffffffffffffffffffff021916908373ffffffffffffffffffffffffffffffffffffffff160217905550808273ffffffffffffffffffffffffffffffffffffffff168473ffffffffffffffffffffffffffffffffffffffff167fddf252ad1be2c89b69c2b068fc378daa952ba7f163c4a11628f55a4df523b3ef60405160405180910390a46121c7838383612aa8565b505050565b6121d682826115da565b6122a9576001600c600084815260200190815260200160002060000160008373ffffffffffffffffffffffffffffffffffffffff1673ffffffffffffffffffffffffffffffffffffffff16815260200190815260200160002060006101000a81548160ff02191690831515021790555061224e611ba4565b73ffffffffffffffffffffffffffffffffffffffff168173ffffffffffffffffffffffffffffffffffffffff16837f2f8788117e7eff1d82e926ec794901d17c78024a50270940304540a733656f0d60405160405180910390a45b5050565b6122b782826115da565b1561238b576000600c600084815260200190815260200160002060000160008373ffffffffffffffffffffffffffffffffffffffff1673ffffffffffffffffffffffffffffffffffffffff16815260200190815260200160002060006101000a81548160ff021916908315150217905550612330611ba4565b73ffffffffffffffffffffffffffffffffffffffff168173ffffffffffffffffffffffffffffffffffffffff16837ff6391f5c32d9c69d2a47ea670b442974b53935d1edc7fd64eb21e047a839171b60405160405180910390a45b5050565b61239761120f565b6123d6576040517f08c379a00000000000000000000000000000000000000000000000000000000081526004016123cd90614ce4565b60405180910390fd5b6000600b60006101000a81548160ff0219169083151502179055507f5db9ee0a495bf2e6ff9c91a7834c1ba4fdd244a5e8aa4e537bd38aeae4b073aa61241a611ba4565b6040516124279190613b09565b60405180910390a1565b6000601160003373ffffffffffffffffffffffffffffffffffffffff1673ffffffffffffffffffffffffffffffffffffffff16815260200190815260200160002060006101000a81548160ff021916908315150217905550600d60009054906101000a900473ffffffffffffffffffffffffffffffffffffffff1673ffffffffffffffffffffffffffffffffffffffff1663cd08dbb2336040518263ffffffff1660e01b81526004016124e49190613b09565b600060405180830381600087803b1580156124fe57600080fd5b505af1158015612512573d6000803e3d6000fd5b5050505061251f81612aad565b50565b61252a61120f565b1561256a576040517f08c379a000000000000000000000000000000000000000000000000000000000815260040161256190614d50565b60405180910390fd5b6001600b60006101000a81548160ff0219169083151502179055507f62e78cea01bee320cd4e420270b5ea74000d11b0c9f74754ebdbfc544b05a2586125ae611ba4565b6040516125bb9190613b09565b60405180910390a1565b8173ffffffffffffffffffffffffffffffffffffffff168373ffffffffffffffffffffffffffffffffffffffff1603612633576040517f08c379a000000000000000000000000000000000000000000000000000000000815260040161262a90614dbc565b60405180910390fd5b80600560008573ffffffffffffffffffffffffffffffffffffffff1673ffffffffffffffffffffffffffffffffffffffff16815260200190815260200160002060008473ffffffffffffffffffffffffffffffffffffffff1673ffffffffffffffffffffffffffffffffffffffff16815260200190815260200160002060006101000a81548160ff0219169083151502179055508173ffffffffffffffffffffffffffffffffffffffff168373ffffffffffffffffffffffffffffffffffffffff167f17307eab39ab6107e8899845ad3d59bd9653f200f220920489ca2b5937696c3183604051612724919061398f565b60405180910390a3505050565b61273c848484611f66565b61274884848484612b00565b612787576040517f08c379a000000000000000000000000000000000000000000000000000000000815260040161277e90614e4e565b60405180910390fd5b50505050565b606061279882611b38565b6127d7576040517f08c379a00000000000000000000000000000000000000000000000000000000081526004016127ce90614ee0565b60405180910390fd5b6000600a600084815260200190815260200160002080546127f790613f9a565b80601f016020809104026020016040519081016040528092919081815260200182805461282390613f9a565b80156128705780601f1061284557610100808354040283529160200191612870565b820191906000526020600020905b81548152906001019060200180831161285357829003601f168201915b505050505090506000612881612c87565b905060008151036128965781925050506128d9565b6000825111156128cb5780826040516020016128b3929190614f3c565b604051602081830303815290604052925050506128d9565b6128d484612d19565b925050505b919050565b60007f780e9d63000000000000000000000000000000000000000000000000000000007bffffffffffffffffffffffffffffffffffffffffffffffffffffffff1916827bffffffffffffffffffffffffffffffffffffffffffffffffffffffff19161480612951575061295082612dc0565b5b9050919050565b61296282826115da565b6129f1576129878173ffffffffffffffffffffffffffffffffffffffff166014612ea2565b6129958360001c6020612ea2565b6040516020016129a6929190614ff8565b6040516020818303038152906040526040517f08c379a00000000000000000000000000000000000000000000000000000000081526004016129e89190613a43565b60405180910390fd5b5050565b6129ff83836130de565b612a0c6000848484612b00565b612a4b576040517f08c379a0000000000000000000000000000000000000000000000000000000008152600401612a4290614e4e565b60405180910390fd5b505050565b612a5861120f565b15612a98576040517f08c379a0000000000000000000000000000000000000000000000000000000008152600401612a8f90614d50565b60405180910390fd5b612aa38383836132b7565b505050565b505050565b612ab6816133c9565b6000600a60008381526020019081526020016000208054612ad690613f9a565b905014612afd57600a60008281526020019081526020016000206000612afc919061387e565b5b50565b6000612b218473ffffffffffffffffffffffffffffffffffffffff166134e6565b15612c7a578373ffffffffffffffffffffffffffffffffffffffff1663150b7a02612b4a611ba4565b8786866040518563ffffffff1660e01b8152600401612b6c9493929190615087565b6020604051808303816000875af1925050508015612ba857506040513d601f19601f82011682018060405250810190612ba591906150e8565b60015b612c2a573d8060008114612bd8576040519150601f19603f3d011682016040523d82523d6000602084013e612bdd565b606091505b506000815103612c22576040517f08c379a0000000000000000000000000000000000000000000000000000000008152600401612c1990614e4e565b60405180910390fd5b805181602001fd5b63150b7a0260e01b7bffffffffffffffffffffffffffffffffffffffffffffffffffffffff1916817bffffffffffffffffffffffffffffffffffffffffffffffffffffffff191614915050612c7f565b600190505b949350505050565b606060148054612c9690613f9a565b80601f0160208091040260200160405190810160405280929190818152602001828054612cc290613f9a565b8015612d0f5780601f10612ce457610100808354040283529160200191612d0f565b820191906000526020600020905b815481529060010190602001808311612cf257829003601f168201915b5050505050905090565b6060612d2482611b38565b612d63576040517f08c379a0000000000000000000000000000000000000000000000000000000008152600401612d5a90615187565b60405180910390fd5b6000612d6d612c87565b90506000815111612d8d5760405180602001604052806000815250612db8565b80612d9784611cbb565b604051602001612da8929190614f3c565b6040516020818303038152906040525b915050919050565b60007f80ac58cd000000000000000000000000000000000000000000000000000000007bffffffffffffffffffffffffffffffffffffffffffffffffffffffff1916827bffffffffffffffffffffffffffffffffffffffffffffffffffffffff19161480612e8b57507f5b5e139f000000000000000000000000000000000000000000000000000000007bffffffffffffffffffffffffffffffffffffffffffffffffffffffff1916827bffffffffffffffffffffffffffffffffffffffffffffffffffffffff1916145b80612e9b5750612e9a82613509565b5b9050919050565b606060006002836002612eb591906151a7565b612ebf919061477c565b67ffffffffffffffff811115612ed857612ed7613d7d565b5b6040519080825280601f01601f191660200182016040528015612f0a5781602001600182028036833780820191505090505b5090507f300000000000000000000000000000000000000000000000000000000000000081600081518110612f4257612f4161454d565b5b60200101907effffffffffffffffffffffffffffffffffffffffffffffffffffffffffffff1916908160001a9053507f780000000000000000000000000000000000000000000000000000000000000081600181518110612fa657612fa561454d565b5b60200101907effffffffffffffffffffffffffffffffffffffffffffffffffffffffffffff1916908160001a90535060006001846002612fe691906151a7565b612ff0919061477c565b90505b6001811115613090577f3031323334353637383961626364656600000000000000000000000000000000600f8616601081106130325761303161454d565b5b1a60f81b8282815181106130495761304861454d565b5b60200101907effffffffffffffffffffffffffffffffffffffffffffffffffffffffffffff1916908160001a905350600485901c94508061308990615201565b9050612ff3565b50600084146130d4576040517f08c379a00000000000000000000000000000000000000000000000000000000081526004016130cb90615276565b60405180910390fd5b8091505092915050565b600073ffffffffffffffffffffffffffffffffffffffff168273ffffffffffffffffffffffffffffffffffffffff160361314d576040517f08c379a0000000000000000000000000000000000000000000000000000000008152600401613144906152e2565b60405180910390fd5b61315681611b38565b15613196576040517f08c379a000000000000000000000000000000000000000000000000000000000815260040161318d9061534e565b60405180910390fd5b6131a260008383612a50565b6001600360008473ffffffffffffffffffffffffffffffffffffffff1673ffffffffffffffffffffffffffffffffffffffff16815260200190815260200160002060008282546131f2919061477c565b92505081905550816002600083815260200190815260200160002060006101000a81548173ffffffffffffffffffffffffffffffffffffffff021916908373ffffffffffffffffffffffffffffffffffffffff160217905550808273ffffffffffffffffffffffffffffffffffffffff16600073ffffffffffffffffffffffffffffffffffffffff167fddf252ad1be2c89b69c2b068fc378daa952ba7f163c4a11628f55a4df523b3ef60405160405180910390a46132b360008383612aa8565b5050565b6132c2838383613573565b600073ffffffffffffffffffffffffffffffffffffffff168373ffffffffffffffffffffffffffffffffffffffff1603613304576132ff81613578565b613343565b8173ffffffffffffffffffffffffffffffffffffffff168373ffffffffffffffffffffffffffffffffffffffff16146133425761334183826135c1565b5b5b600073ffffffffffffffffffffffffffffffffffffffff168273ffffffffffffffffffffffffffffffffffffffff1603613385576133808161372e565b6133c4565b8273ffffffffffffffffffffffffffffffffffffffff168273ffffffffffffffffffffffffffffffffffffffff16146133c3576133c282826137ff565b5b5b505050565b60006133d482611330565b90506133e281600084612a50565b6133ed600083611bac565b6001600360008373ffffffffffffffffffffffffffffffffffffffff1673ffffffffffffffffffffffffffffffffffffffff168152602001908152602001600020600082825461343d9190614748565b925050819055506002600083815260200190815260200160002060006101000a81549073ffffffffffffffffffffffffffffffffffffffff021916905581600073ffffffffffffffffffffffffffffffffffffffff168273ffffffffffffffffffffffffffffffffffffffff167fddf252ad1be2c89b69c2b068fc378daa952ba7f163c4a11628f55a4df523b3ef60405160405180910390a46134e281600084612aa8565b5050565b6000808273ffffffffffffffffffffffffffffffffffffffff163b119050919050565b60007f01ffc9a7000000000000000000000000000000000000000000000000000000007bffffffffffffffffffffffffffffffffffffffffffffffffffffffff1916827bffffffffffffffffffffffffffffffffffffffffffffffffffffffff1916149050919050565b505050565b6008805490506009600083815260200190815260200160002081905550600881908060018154018082558091505060019003906000526020600020016000909190919091505550565b600060016135ce846113e1565b6135d89190614748565b90506000600760008481526020019081526020016000205490508181146136bd576000600660008673ffffffffffffffffffffffffffffffffffffffff1673ffffffffffffffffffffffffffffffffffffffff168152602001908152602001600020600084815260200190815260200160002054905080600660008773ffffffffffffffffffffffffffffffffffffffff1673ffffffffffffffffffffffffffffffffffffffff168152602001908152602001600020600084815260200190815260200160002081905550816007600083815260200190815260200160002081905550505b6007600084815260200190815260200160002060009055600660008573ffffffffffffffffffffffffffffffffffffffff1673ffffffffffffffffffffffffffffffffffffffff16815260200190815260200160002060008381526020019081526020016000206000905550505050565b600060016008805490506137429190614748565b90506000600960008481526020019081526020016000205490506000600883815481106137725761377161454d565b5b9060005260206000200154905080600883815481106137945761379361454d565b5b9060005260206000200181905550816009600083815260200190815260200160002081905550600960008581526020019081526020016000206000905560088054806137e3576137e261536e565b5b6001900381819060005260206000200160009055905550505050565b600061380a836113e1565b905081600660008573ffffffffffffffffffffffffffffffffffffffff1673ffffffffffffffffffffffffffffffffffffffff168152602001908152602001600020600083815260200190815260200160002081905550806007600084815260200190815260200160002081905550505050565b50805461388a90613f9a565b6000825580601f1061389c57506138bb565b601f0160209004906000526020600020908101906138ba91906138be565b5b50565b5b808211156138d75760008160009055506001016138bf565b5090565b6000604051905090565b600080fd5b600080fd5b60007fffffffff0000000000000000000000000000000000000000000000000000000082169050919050565b613924816138ef565b811461392f57600080fd5b50565b6000813590506139418161391b565b92915050565b60006020828403121561395d5761395c6138e5565b5b600061396b84828501613932565b91505092915050565b60008115159050919050565b61398981613974565b82525050565b60006020820190506139a46000830184613980565b92915050565b600081519050919050565b600082825260208201905092915050565b60005b838110156139e45780820151818401526020810190506139c9565b838111156139f3576000848401525b50505050565b6000601f19601f8301169050919050565b6000613a15826139aa565b613a1f81856139b5565b9350613a2f8185602086016139c6565b613a38816139f9565b840191505092915050565b60006020820190508181036000830152613a5d8184613a0a565b905092915050565b6000819050919050565b613a7881613a65565b8114613a8357600080fd5b50565b600081359050613a9581613a6f565b92915050565b600060208284031215613ab157613ab06138e5565b5b6000613abf84828501613a86565b91505092915050565b600073ffffffffffffffffffffffffffffffffffffffff82169050919050565b6000613af382613ac8565b9050919050565b613b0381613ae8565b82525050565b6000602082019050613b1e6000830184613afa565b92915050565b613b2d81613ae8565b8114613b3857600080fd5b50565b600081359050613b4a81613b24565b92915050565b60008060408385031215613b6757613b666138e5565b5b6000613b7585828601613b3b565b9250506020613b8685828601613a86565b9150509250929050565b6000819050919050565b613ba381613b90565b82525050565b6000602082019050613bbe6000830184613b9a565b92915050565b613bcd81613a65565b82525050565b6000602082019050613be86000830184613bc4565b92915050565b600080600060608486031215613c0757613c066138e5565b5b6000613c1586828701613b3b565b9350506020613c2686828701613b3b565b9250506040613c3786828701613a86565b9150509250925092565b613c4a81613b90565b8114613c5557600080fd5b50565b600081359050613c6781613c41565b92915050565b600060208284031215613c8357613c826138e5565b5b6000613c9184828501613c58565b91505092915050565b60008060408385031215613cb157613cb06138e5565b5b6000613cbf85828601613c58565b9250506020613cd085828601613b3b565b9150509250929050565b600060208284031215613cf057613cef6138e5565b5b6000613cfe84828501613b3b565b91505092915050565b613d1081613974565b8114613d1b57600080fd5b50565b600081359050613d2d81613d07565b92915050565b60008060408385031215613d4a57613d496138e5565b5b6000613d5885828601613b3b565b9250506020613d6985828601613d1e565b9150509250929050565b600080fd5b600080fd5b7f4e487b7100000000000000000000000000000000000000000000000000000000600052604160045260246000fd5b613db5826139f9565b810181811067ffffffffffffffff82111715613dd457613dd3613d7d565b5b80604052505050565b6000613de76138db565b9050613df38282613dac565b919050565b600067ffffffffffffffff821115613e1357613e12613d7d565b5b613e1c826139f9565b9050602081019050919050565b82818337600083830152505050565b6000613e4b613e4684613df8565b613ddd565b905082815260208101848484011115613e6757613e66613d78565b5b613e72848285613e29565b509392505050565b600082601f830112613e8f57613e8e613d73565b5b8135613e9f848260208601613e38565b91505092915050565b60008060008060808587031215613ec257613ec16138e5565b5b6000613ed087828801613b3b565b9450506020613ee187828801613b3b565b9350506040613ef287828801613a86565b925050606085013567ffffffffffffffff811115613f1357613f126138ea565b5b613f1f87828801613e7a565b91505092959194509250565b60008060408385031215613f4257613f416138e5565b5b6000613f5085828601613b3b565b9250506020613f6185828601613b3b565b9150509250929050565b7f4e487b7100000000000000000000000000000000000000000000000000000000600052602260045260246000fd5b60006002820490506001821680613fb257607f821691505b602082108103613fc557613fc4613f6b565b5b50919050565b7f4552433732313a20617070726f76656420717565727920666f72206e6f6e657860008201527f697374656e7420746f6b656e0000000000000000000000000000000000000000602082015250565b6000614027602c836139b5565b915061403282613fcb565b604082019050919050565b600060208201905081810360008301526140568161401a565b9050919050565b7f4552433732313a20617070726f76616c20746f2063757272656e74206f776e6560008201527f7200000000000000000000000000000000000000000000000000000000000000602082015250565b60006140b96021836139b5565b91506140c48261405d565b604082019050919050565b600060208201905081810360008301526140e8816140ac565b9050919050565b7f4552433732313a20617070726f76652063616c6c6572206973206e6f74206f7760008201527f6e6572206e6f7220617070726f76656420666f7220616c6c0000000000000000602082015250565b600061414b6038836139b5565b9150614156826140ef565b604082019050919050565b6000602082019050818103600083015261417a8161413e565b9050919050565b7f596f7520616c726561647920686176652061206d656d6265727368697020746f60008201527f6b656e206d696e74656400000000000000000000000000000000000000000000602082015250565b60006141dd602a836139b5565b91506141e882614181565b604082019050919050565b6000602082019050818103600083015261420c816141d0565b9050919050565b7f4e487b7100000000000000000000000000000000000000000000000000000000600052601260045260246000fd5b600061424d82613a65565b915061425883613a65565b92508261426857614267614213565b5b828206905092915050565b7f4552433732313a207472616e736665722063616c6c6572206973206e6f74206f60008201527f776e6572206e6f7220617070726f766564000000000000000000000000000000602082015250565b60006142cf6031836139b5565b91506142da82614273565b604082019050919050565b600060208201905081810360008301526142fe816142c2565b9050919050565b7f455243373231456e756d657261626c653a206f776e657220696e646578206f7560008201527f74206f6620626f756e6473000000000000000000000000000000000000000000602082015250565b6000614361602b836139b5565b915061436c82614305565b604082019050919050565b6000602082019050818103600083015261439081614354565b9050919050565b7f416363657373436f6e74726f6c3a2063616e206f6e6c792072656e6f756e636560008201527f20726f6c657320666f722073656c660000000000000000000000000000000000602082015250565b60006143f3602f836139b5565b91506143fe82614397565b604082019050919050565b60006020820190508181036000830152614422816143e6565b9050919050565b7f4552433732314275726e61626c653a2063616c6c6572206973206e6f74206f7760008201527f6e6572206e6f7220617070726f76656400000000000000000000000000000000602082015250565b60006144856030836139b5565b915061449082614429565b604082019050919050565b600060208201905081810360008301526144b481614478565b9050919050565b7f455243373231456e756d657261626c653a20676c6f62616c20696e646578206f60008201527f7574206f6620626f756e64730000000000000000000000000000000000000000602082015250565b6000614517602c836139b5565b9150614522826144bb565b604082019050919050565b600060208201905081810360008301526145468161450a565b9050919050565b7f4e487b7100000000000000000000000000000000000000000000000000000000600052603260045260246000fd5b7f4552433732313a206f776e657220717565727920666f72206e6f6e657869737460008201527f656e7420746f6b656e0000000000000000000000000000000000000000000000602082015250565b60006145d86029836139b5565b91506145e38261457c565b604082019050919050565b60006020820190508181036000830152614607816145cb565b9050919050565b7f4552433732313a2062616c616e636520717565727920666f7220746865207a6560008201527f726f206164647265737300000000000000000000000000000000000000000000602082015250565b600061466a602a836139b5565b91506146758261460e565b604082019050919050565b600060208201905081810360008301526146998161465d565b9050919050565b7f4e487b7100000000000000000000000000000000000000000000000000000000600052601160045260246000fd5b60006146da82613a65565b91507fffffffffffffffffffffffffffffffffffffffffffffffffffffffffffffffff820361470c5761470b6146a0565b5b600182019050919050565b600061472282613a65565b915061472d83613a65565b92508261473d5761473c614213565b5b828204905092915050565b600061475382613a65565b915061475e83613a65565b925082821015614771576147706146a0565b5b828203905092915050565b600061478782613a65565b915061479283613a65565b9250827fffffffffffffffffffffffffffffffffffffffffffffffffffffffffffffffff038211156147c7576147c66146a0565b5b828201905092915050565b7f45524337323155524953746f726167653a2055524920736574206f66206e6f6e60008201527f6578697374656e7420746f6b656e000000000000000000000000000000000000602082015250565b600061482e602e836139b5565b9150614839826147d2565b604082019050919050565b6000602082019050818103600083015261485d81614821565b9050919050565b60008190508160005260206000209050919050565b60006020601f8301049050919050565b600082821b905092915050565b6000600883026148c67fffffffffffffffffffffffffffffffffffffffffffffffffffffffffffffffff82614889565b6148d08683614889565b95508019841693508086168417925050509392505050565b6000819050919050565b600061490d61490861490384613a65565b6148e8565b613a65565b9050919050565b6000819050919050565b614927836148f2565b61493b61493382614914565b848454614896565b825550505050565b600090565b614950614943565b61495b81848461491e565b505050565b5b8181101561497f57614974600082614948565b600181019050614961565b5050565b601f8211156149c45761499581614864565b61499e84614879565b810160208510156149ad578190505b6149c16149b985614879565b830182614960565b50505b505050565b600082821c905092915050565b60006149e7600019846008026149c9565b1980831691505092915050565b6000614a0083836149d6565b9150826002028217905092915050565b614a19826139aa565b67ffffffffffffffff811115614a3257614a31613d7d565b5b614a3c8254613f9a565b614a47828285614983565b600060209050601f831160018114614a7a5760008415614a68578287015190505b614a7285826149f4565b865550614ada565b601f198416614a8886614864565b60005b82811015614ab057848901518255600182019150602085019450602081019050614a8b565b86831015614acd5784890151614ac9601f8916826149d6565b8355505b6001600288020188555050505b505050505050565b7f4552433732313a206f70657261746f7220717565727920666f72206e6f6e657860008201527f697374656e7420746f6b656e0000000000000000000000000000000000000000602082015250565b6000614b3e602c836139b5565b9150614b4982614ae2565b604082019050919050565b60006020820190508181036000830152614b6d81614b31565b9050919050565b7f4552433732313a207472616e736665722066726f6d20696e636f72726563742060008201527f6f776e6572000000000000000000000000000000000000000000000000000000602082015250565b6000614bd06025836139b5565b9150614bdb82614b74565b604082019050919050565b60006020820190508181036000830152614bff81614bc3565b9050919050565b7f4552433732313a207472616e7366657220746f20746865207a65726f2061646460008201527f7265737300000000000000000000000000000000000000000000000000000000602082015250565b6000614c626024836139b5565b9150614c6d82614c06565b604082019050919050565b60006020820190508181036000830152614c9181614c55565b9050919050565b7f5061757361626c653a206e6f7420706175736564000000000000000000000000600082015250565b6000614cce6014836139b5565b9150614cd982614c98565b602082019050919050565b60006020820190508181036000830152614cfd81614cc1565b9050919050565b7f5061757361626c653a2070617573656400000000000000000000000000000000600082015250565b6000614d3a6010836139b5565b9150614d4582614d04565b602082019050919050565b60006020820190508181036000830152614d6981614d2d565b9050919050565b7f4552433732313a20617070726f766520746f2063616c6c657200000000000000600082015250565b6000614da66019836139b5565b9150614db182614d70565b602082019050919050565b60006020820190508181036000830152614dd581614d99565b9050919050565b7f4552433732313a207472616e7366657220746f206e6f6e20455243373231526560008201527f63656976657220696d706c656d656e7465720000000000000000000000000000602082015250565b6000614e386032836139b5565b9150614e4382614ddc565b604082019050919050565b60006020820190508181036000830152614e6781614e2b565b9050919050565b7f45524337323155524953746f726167653a2055524920717565727920666f722060008201527f6e6f6e6578697374656e7420746f6b656e000000000000000000000000000000602082015250565b6000614eca6031836139b5565b9150614ed582614e6e565b604082019050919050565b60006020820190508181036000830152614ef981614ebd565b9050919050565b600081905092915050565b6000614f16826139aa565b614f208185614f00565b9350614f308185602086016139c6565b80840191505092915050565b6000614f488285614f0b565b9150614f548284614f0b565b91508190509392505050565b7f416363657373436f6e74726f6c3a206163636f756e7420000000000000000000600082015250565b6000614f96601783614f00565b9150614fa182614f60565b601782019050919050565b7f206973206d697373696e6720726f6c6520000000000000000000000000000000600082015250565b6000614fe2601183614f00565b9150614fed82614fac565b601182019050919050565b600061500382614f89565b915061500f8285614f0b565b915061501a82614fd5565b91506150268284614f0b565b91508190509392505050565b600081519050919050565b600082825260208201905092915050565b600061505982615032565b615063818561503d565b93506150738185602086016139c6565b61507c816139f9565b840191505092915050565b600060808201905061509c6000830187613afa565b6150a96020830186613afa565b6150b66040830185613bc4565b81810360608301526150c8818461504e565b905095945050505050565b6000815190506150e28161391b565b92915050565b6000602082840312156150fe576150fd6138e5565b5b600061510c848285016150d3565b91505092915050565b7f4552433732314d657461646174613a2055524920717565727920666f72206e6f60008201527f6e6578697374656e7420746f6b656e0000000000000000000000000000000000602082015250565b6000615171602f836139b5565b915061517c82615115565b604082019050919050565b600060208201905081810360008301526151a081615164565b9050919050565b60006151b282613a65565b91506151bd83613a65565b9250817fffffffffffffffffffffffffffffffffffffffffffffffffffffffffffffffff04831182151516156151f6576151f56146a0565b5b828202905092915050565b600061520c82613a65565b91506000820361521f5761521e6146a0565b5b600182039050919050565b7f537472696e67733a20686578206c656e67746820696e73756666696369656e74600082015250565b60006152606020836139b5565b915061526b8261522a565b602082019050919050565b6000602082019050818103600083015261528f81615253565b9050919050565b7f4552433732313a206d696e7420746f20746865207a65726f2061646472657373600082015250565b60006152cc6020836139b5565b91506152d782615296565b602082019050919050565b600060208201905081810360008301526152fb816152bf565b9050919050565b7f4552433732313a20746f6b656e20616c7265616479206d696e74656400000000600082015250565b6000615338601c836139b5565b915061534382615302565b602082019050919050565b600060208201905081810360008301526153678161532b565b9050919050565b7f4e487b7100000000000000000000000000000000000000000000000000000000600052603160045260246000fdfea2646970667358221220342980a298a53af2e4aaf868ebfe5b8f56880880132ae55335186238555360e464736f6c634300080f0033697066733a2f2f6261667962656962637262796d776568616979663674747766717574346177373433366775616c6d717737736c37786f6171636c6f3573696f78692f",
  "immutableReferences": {},
  "source": "// SPDX-License-Identifier: MIT\r\npragma solidity ^0.8.12;\r\n\r\nimport \"@openzeppelin/contracts/token/ERC721/ERC721.sol\";\r\nimport \"@openzeppelin/contracts/token/ERC721/extensions/ERC721Enumerable.sol\";\r\nimport \"@openzeppelin/contracts/token/ERC721/extensions/ERC721URIStorage.sol\";\r\nimport \"@openzeppelin/contracts/security/Pausable.sol\";\r\nimport \"@openzeppelin/contracts/access/AccessControl.sol\";\r\nimport \"@openzeppelin/contracts/token/ERC721/extensions/ERC721Burnable.sol\";\r\nimport \"@openzeppelin/contracts/utils/Counters.sol\";\r\nimport \"@openzeppelin/contracts/utils/Strings.sol\";\r\n\r\nimport \"./CryptoTicketsMatchNFTs.sol\";\r\nimport \"./CryptoTicketsMatchManagement.sol\";\r\n\r\ncontract CryptoTicketsMembershipNFTs is\r\n    ERC721,\r\n    ERC721Enumerable,\r\n    ERC721URIStorage,\r\n    Pausable,\r\n    AccessControl,\r\n    ERC721Burnable\r\n{\r\n    // Other contracts\r\n    CryptoTicketsMatchNFTs matchTicketsContract;\r\n    CryptoTicketsMatchManagement matchManagementContract;\r\n    // Roles (administrador, club, abonado)\r\n    bytes32 public constant CLUB_ADMIN_ROLE = keccak256(\"CLUB_ADMIN_ROLE\");\r\n    bytes32 public constant MEMBERSHIP_ROLE = keccak256(\"MEMBERSHIP_ROLE\");\r\n    mapping(address => bool) public clubAdmins;\r\n    mapping(address => bool) public memberships;\r\n    mapping(address => bool) public membershipsTokenMinted;\r\n\r\n    // Events\r\n    event MembershipTokenMinted(\r\n        address indexed membershipId,\r\n        uint256 indexed tokenId\r\n    );\r\n    event ClubAdminRoleGranted(\r\n        address indexed sender,\r\n        address indexed clubAddress\r\n    );\r\n    event ClubAdminRoleRevoked(\r\n        address indexed sender,\r\n        address indexed clubAddress\r\n    );\r\n    event MembershipRoleGranted(\r\n        address indexed sender,\r\n        address indexed membershipAddress\r\n    );\r\n    event MembershipRoleRevoked(\r\n        address indexed sender,\r\n        address indexed membershipAddress\r\n    );\r\n\r\n    using Counters for Counters.Counter;\r\n    Counters.Counter private _membershipCounter;\r\n\r\n    uint256 membershipsInCar = 5;\r\n    string baseURI =\r\n        \"ipfs://bafybeibcrbymwehaiyf6ttwfqut4aw7436gualmqw7sl7xoaqclo5sioxi/\";\r\n\r\n    constructor(\r\n        address matchTicketsContractAddresss,\r\n        address matchManagementContractAddresss\r\n    ) ERC721(\"CryptoTicketsMembershipNFTs\", \"CTKUN\") {\r\n        matchTicketsContract = CryptoTicketsMatchNFTs(\r\n            matchTicketsContractAddresss\r\n        );\r\n\r\n        matchManagementContract = CryptoTicketsMatchManagement(\r\n            matchManagementContractAddresss\r\n        );\r\n        _grantRole(DEFAULT_ADMIN_ROLE, msg.sender);\r\n        _grantRole(CLUB_ADMIN_ROLE, msg.sender);\r\n        _grantRole(MEMBERSHIP_ROLE, msg.sender);\r\n\r\n        clubAdmins[msg.sender] = true;\r\n        memberships[msg.sender] = true;\r\n    }\r\n\r\n    function _baseURI() internal view override returns (string memory) {\r\n        return baseURI;\r\n    }\r\n\r\n    function pause() public onlyRole(DEFAULT_ADMIN_ROLE) {\r\n        _pause();\r\n    }\r\n\r\n    function unpause() public onlyRole(DEFAULT_ADMIN_ROLE) {\r\n        _unpause();\r\n    }\r\n\r\n    function mintMembershipToken() public onlyRole(MEMBERSHIP_ROLE) {\r\n        if (membershipsTokenMinted[msg.sender]) {\r\n            revert(\"You already have a membership token minted\");\r\n        }\r\n        uint256 tokenId = _membershipCounter.current();\r\n        _membershipCounter.increment();\r\n        _safeMint(msg.sender, tokenId);\r\n        _setTokenURI(tokenId, Strings.toString(tokenId % membershipsInCar));\r\n        membershipsTokenMinted[msg.sender] = true;\r\n\r\n        matchTicketsContract.addAMembershipddress(msg.sender);\r\n        emit MembershipTokenMinted(msg.sender, tokenId);\r\n    }\r\n\r\n    function _beforeTokenTransfer(\r\n        address from,\r\n        address to,\r\n        uint256 tokenId\r\n    ) internal override(ERC721, ERC721Enumerable) whenNotPaused {\r\n        super._beforeTokenTransfer(from, to, tokenId);\r\n    }\r\n\r\n    function _burn(uint256 tokenId)\r\n        internal\r\n        override(ERC721, ERC721URIStorage)\r\n    {\r\n        membershipsTokenMinted[msg.sender] = false;\r\n        matchTicketsContract.removeMembershipAddress(msg.sender);\r\n        super._burn(tokenId);\r\n    }\r\n\r\n    function tokenURI(uint256 tokenId)\r\n        public\r\n        view\r\n        override(ERC721, ERC721URIStorage)\r\n        returns (string memory)\r\n    {\r\n        return super.tokenURI(tokenId);\r\n    }\r\n\r\n    function supportsInterface(bytes4 interfaceId)\r\n        public\r\n        view\r\n        override(ERC721, ERC721Enumerable, AccessControl)\r\n        returns (bool)\r\n    {\r\n        return super.supportsInterface(interfaceId);\r\n    }\r\n\r\n    function grantClubRol(address account) public onlyRole(DEFAULT_ADMIN_ROLE) {\r\n        _grantRole(CLUB_ADMIN_ROLE, account);\r\n        clubAdmins[account] = true;\r\n        // Call Smart Contract to grant role to the clubAdmins\r\n        matchTicketsContract.grantClubRol(account);\r\n        matchManagementContract.grantAdminRol(account);\r\n        emit ClubAdminRoleGranted(msg.sender, account);\r\n    }\r\n\r\n    function revokeClubRol(address account)\r\n        public\r\n        onlyRole(DEFAULT_ADMIN_ROLE)\r\n    {\r\n        _revokeRole(CLUB_ADMIN_ROLE, account);\r\n        clubAdmins[account] = false;\r\n        matchTicketsContract.revokeClubRol(account);\r\n        matchManagementContract.revokeAdminRol(account);\r\n        emit ClubAdminRoleRevoked(msg.sender, account);\r\n    }\r\n\r\n    function hasClubRol(address account) public view returns (bool) {\r\n        return clubAdmins[account];\r\n    }\r\n\r\n    function grantMembershipRol(address account)\r\n        public\r\n        onlyRole(CLUB_ADMIN_ROLE)\r\n    {\r\n        _grantRole(MEMBERSHIP_ROLE, account);\r\n        memberships[account] = true;\r\n        emit MembershipRoleGranted(msg.sender, account);\r\n    }\r\n\r\n    function revokeMembershipRol(address account)\r\n        public\r\n        onlyRole(CLUB_ADMIN_ROLE)\r\n    {\r\n        _revokeRole(MEMBERSHIP_ROLE, account);\r\n        memberships[account] = false;\r\n\r\n        emit MembershipRoleRevoked(msg.sender, account);\r\n    }\r\n\r\n    function hasMembershipRol(address account) public view returns (bool) {\r\n        return memberships[account];\r\n    }\r\n\r\n    function isMembershipTokenMinted(address account)\r\n        public\r\n        view\r\n        returns (bool)\r\n    {\r\n        return membershipsTokenMinted[account];\r\n    }\r\n\r\n    function membershipsNumber() public view returns (uint256) {\r\n        return _membershipCounter.current();\r\n    }\r\n}\r\n",
  "sourcePath": "/Users/dosorio/Proyectos/Blockchain/SportTickets/contracts/CryptoTicketsMembershipNFTs.sol",
  "compiler": {
    "name": "solc",
    "version": "0.8.15+commit.e14f2714.Emscripten.clang"
  },
  "schemaVersion": "3.4.7",
  "updatedAt": "2022-07-04T21:59:08.429Z",
  "networkType": "ethereum",
  "devdoc": {
    "kind": "dev",
    "methods": {
      "approve(address,uint256)": {
        "details": "See {IERC721-approve}."
      },
      "balanceOf(address)": {
        "details": "See {IERC721-balanceOf}."
      },
      "burn(uint256)": {
        "details": "Burns `tokenId`. See {ERC721-_burn}. Requirements: - The caller must own `tokenId` or be an approved operator."
      },
      "getApproved(uint256)": {
        "details": "See {IERC721-getApproved}."
      },
      "getRoleAdmin(bytes32)": {
        "details": "Returns the admin role that controls `role`. See {grantRole} and {revokeRole}. To change a role's admin, use {_setRoleAdmin}."
      },
      "grantRole(bytes32,address)": {
        "details": "Grants `role` to `account`. If `account` had not been already granted `role`, emits a {RoleGranted} event. Requirements: - the caller must have ``role``'s admin role."
      },
      "hasRole(bytes32,address)": {
        "details": "Returns `true` if `account` has been granted `role`."
      },
      "isApprovedForAll(address,address)": {
        "details": "See {IERC721-isApprovedForAll}."
      },
      "name()": {
        "details": "See {IERC721Metadata-name}."
      },
      "ownerOf(uint256)": {
        "details": "See {IERC721-ownerOf}."
      },
      "paused()": {
        "details": "Returns true if the contract is paused, and false otherwise."
      },
      "renounceRole(bytes32,address)": {
        "details": "Revokes `role` from the calling account. Roles are often managed via {grantRole} and {revokeRole}: this function's purpose is to provide a mechanism for accounts to lose their privileges if they are compromised (such as when a trusted device is misplaced). If the calling account had been revoked `role`, emits a {RoleRevoked} event. Requirements: - the caller must be `account`."
      },
      "revokeRole(bytes32,address)": {
        "details": "Revokes `role` from `account`. If `account` had been granted `role`, emits a {RoleRevoked} event. Requirements: - the caller must have ``role``'s admin role."
      },
      "safeTransferFrom(address,address,uint256)": {
        "details": "See {IERC721-safeTransferFrom}."
      },
      "safeTransferFrom(address,address,uint256,bytes)": {
        "details": "See {IERC721-safeTransferFrom}."
      },
      "setApprovalForAll(address,bool)": {
        "details": "See {IERC721-setApprovalForAll}."
      },
      "symbol()": {
        "details": "See {IERC721Metadata-symbol}."
      },
      "tokenByIndex(uint256)": {
        "details": "See {IERC721Enumerable-tokenByIndex}."
      },
      "tokenOfOwnerByIndex(address,uint256)": {
        "details": "See {IERC721Enumerable-tokenOfOwnerByIndex}."
      },
      "totalSupply()": {
        "details": "See {IERC721Enumerable-totalSupply}."
      },
      "transferFrom(address,address,uint256)": {
        "details": "See {IERC721-transferFrom}."
      }
    },
    "version": 1
  },
  "userdoc": {
    "kind": "user",
    "methods": {},
    "version": 1
  }
}