{
  "contractName": "CryptoTicketsMarketplace",
  "abi": [
    {
      "inputs": [
        {
          "internalType": "address",
          "name": "matchTicketsContractAddresss",
          "type": "address"
        },
        {
          "internalType": "address payable",
          "name": "clubOwnerAddress",
          "type": "address"
        }
      ],
      "stateMutability": "nonpayable",
      "type": "constructor"
    },
    {
      "anonymous": false,
      "inputs": [
        {
          "indexed": false,
          "internalType": "address",
          "name": "account",
          "type": "address"
        }
      ],
      "name": "Paused",
      "type": "event"
    },
    {
      "anonymous": false,
      "inputs": [
        {
          "indexed": true,
          "internalType": "bytes32",
          "name": "role",
          "type": "bytes32"
        },
        {
          "indexed": true,
          "internalType": "bytes32",
          "name": "previousAdminRole",
          "type": "bytes32"
        },
        {
          "indexed": true,
          "internalType": "bytes32",
          "name": "newAdminRole",
          "type": "bytes32"
        }
      ],
      "name": "RoleAdminChanged",
      "type": "event"
    },
    {
      "anonymous": false,
      "inputs": [
        {
          "indexed": true,
          "internalType": "bytes32",
          "name": "role",
          "type": "bytes32"
        },
        {
          "indexed": true,
          "internalType": "address",
          "name": "account",
          "type": "address"
        },
        {
          "indexed": true,
          "internalType": "address",
          "name": "sender",
          "type": "address"
        }
      ],
      "name": "RoleGranted",
      "type": "event"
    },
    {
      "anonymous": false,
      "inputs": [
        {
          "indexed": true,
          "internalType": "bytes32",
          "name": "role",
          "type": "bytes32"
        },
        {
          "indexed": true,
          "internalType": "address",
          "name": "account",
          "type": "address"
        },
        {
          "indexed": true,
          "internalType": "address",
          "name": "sender",
          "type": "address"
        }
      ],
      "name": "RoleRevoked",
      "type": "event"
    },
    {
      "anonymous": false,
      "inputs": [
        {
          "indexed": false,
          "internalType": "address",
          "name": "account",
          "type": "address"
        }
      ],
      "name": "Unpaused",
      "type": "event"
    },
    {
      "inputs": [],
      "name": "DEFAULT_ADMIN_ROLE",
      "outputs": [
        {
          "internalType": "bytes32",
          "name": "",
          "type": "bytes32"
        }
      ],
      "stateMutability": "view",
      "type": "function",
      "constant": true
    },
    {
      "inputs": [
        {
          "internalType": "bytes32",
          "name": "role",
          "type": "bytes32"
        }
      ],
      "name": "getRoleAdmin",
      "outputs": [
        {
          "internalType": "bytes32",
          "name": "",
          "type": "bytes32"
        }
      ],
      "stateMutability": "view",
      "type": "function",
      "constant": true
    },
    {
      "inputs": [
        {
          "internalType": "bytes32",
          "name": "role",
          "type": "bytes32"
        },
        {
          "internalType": "address",
          "name": "account",
          "type": "address"
        }
      ],
      "name": "grantRole",
      "outputs": [],
      "stateMutability": "nonpayable",
      "type": "function"
    },
    {
      "inputs": [
        {
          "internalType": "bytes32",
          "name": "role",
          "type": "bytes32"
        },
        {
          "internalType": "address",
          "name": "account",
          "type": "address"
        }
      ],
      "name": "hasRole",
      "outputs": [
        {
          "internalType": "bool",
          "name": "",
          "type": "bool"
        }
      ],
      "stateMutability": "view",
      "type": "function",
      "constant": true
    },
    {
      "inputs": [
        {
          "internalType": "uint256",
          "name": "",
          "type": "uint256"
        }
      ],
      "name": "listingIds",
      "outputs": [
        {
          "internalType": "address",
          "name": "",
          "type": "address"
        }
      ],
      "stateMutability": "view",
      "type": "function",
      "constant": true
    },
    {
      "inputs": [
        {
          "internalType": "address",
          "name": "",
          "type": "address"
        },
        {
          "internalType": "uint256",
          "name": "",
          "type": "uint256"
        }
      ],
      "name": "listings",
      "outputs": [
        {
          "internalType": "uint256",
          "name": "price",
          "type": "uint256"
        },
        {
          "internalType": "address payable",
          "name": "seller",
          "type": "address"
        },
        {
          "internalType": "uint256",
          "name": "tokenId",
          "type": "uint256"
        }
      ],
      "stateMutability": "view",
      "type": "function",
      "constant": true
    },
    {
      "inputs": [],
      "name": "paused",
      "outputs": [
        {
          "internalType": "bool",
          "name": "",
          "type": "bool"
        }
      ],
      "stateMutability": "view",
      "type": "function",
      "constant": true
    },
    {
      "inputs": [
        {
          "internalType": "bytes32",
          "name": "role",
          "type": "bytes32"
        },
        {
          "internalType": "address",
          "name": "account",
          "type": "address"
        }
      ],
      "name": "renounceRole",
      "outputs": [],
      "stateMutability": "nonpayable",
      "type": "function"
    },
    {
      "inputs": [
        {
          "internalType": "bytes32",
          "name": "role",
          "type": "bytes32"
        },
        {
          "internalType": "address",
          "name": "account",
          "type": "address"
        }
      ],
      "name": "revokeRole",
      "outputs": [],
      "stateMutability": "nonpayable",
      "type": "function"
    },
    {
      "inputs": [
        {
          "internalType": "bytes4",
          "name": "interfaceId",
          "type": "bytes4"
        }
      ],
      "name": "supportsInterface",
      "outputs": [
        {
          "internalType": "bool",
          "name": "",
          "type": "bool"
        }
      ],
      "stateMutability": "view",
      "type": "function",
      "constant": true
    },
    {
      "inputs": [
        {
          "internalType": "uint256",
          "name": "",
          "type": "uint256"
        }
      ],
      "name": "tokensOnSale",
      "outputs": [
        {
          "internalType": "uint256",
          "name": "",
          "type": "uint256"
        }
      ],
      "stateMutability": "view",
      "type": "function",
      "constant": true
    },
    {
      "inputs": [
        {
          "internalType": "uint256",
          "name": "tokenId",
          "type": "uint256"
        },
        {
          "internalType": "uint256",
          "name": "price",
          "type": "uint256"
        }
      ],
      "name": "addListing",
      "outputs": [],
      "stateMutability": "nonpayable",
      "type": "function"
    },
    {
      "inputs": [
        {
          "internalType": "uint256",
          "name": "tokenId",
          "type": "uint256"
        }
      ],
      "name": "removeListing",
      "outputs": [],
      "stateMutability": "nonpayable",
      "type": "function"
    },
    {
      "inputs": [
        {
          "internalType": "uint256",
          "name": "tokenId",
          "type": "uint256"
        }
      ],
      "name": "purchase",
      "outputs": [],
      "stateMutability": "payable",
      "type": "function",
      "payable": true
    },
    {
      "inputs": [],
      "name": "getOnSaleTokens",
      "outputs": [
        {
          "internalType": "uint256[]",
          "name": "",
          "type": "uint256[]"
        }
      ],
      "stateMutability": "view",
      "type": "function",
      "constant": true
    },
    {
      "inputs": [],
      "name": "getOnSaleTokensInfo",
      "outputs": [
        {
          "components": [
            {
              "internalType": "uint256",
              "name": "price",
              "type": "uint256"
            },
            {
              "internalType": "address payable",
              "name": "seller",
              "type": "address"
            },
            {
              "internalType": "uint256",
              "name": "tokenId",
              "type": "uint256"
            }
          ],
          "internalType": "struct CryptoTicketsMarketplace.Listing[]",
          "name": "",
          "type": "tuple[]"
        }
      ],
      "stateMutability": "view",
      "type": "function",
      "constant": true
    },
    {
      "inputs": [],
      "name": "pause",
      "outputs": [],
      "stateMutability": "nonpayable",
      "type": "function"
    },
    {
      "inputs": [],
      "name": "unpause",
      "outputs": [],
      "stateMutability": "nonpayable",
      "type": "function"
    }
  ],
  "bytecode": "0x60806040523480156200001157600080fd5b5060405162002d6838038062002d68833981810160405281019062000037919062000318565b60008060006101000a81548160ff02191690831515021790555081600260006101000a81548173ffffffffffffffffffffffffffffffffffffffff021916908373ffffffffffffffffffffffffffffffffffffffff160217905550620000a76000801b336200010560201b60201c565b620000bc6000801b826200010560201b60201c565b80600660006101000a81548173ffffffffffffffffffffffffffffffffffffffff021916908373ffffffffffffffffffffffffffffffffffffffff16021790555050506200035f565b620001178282620001f660201b60201c565b620001f257600180600084815260200190815260200160002060000160008373ffffffffffffffffffffffffffffffffffffffff1673ffffffffffffffffffffffffffffffffffffffff16815260200190815260200160002060006101000a81548160ff021916908315150217905550620001976200026160201b60201c565b73ffffffffffffffffffffffffffffffffffffffff168173ffffffffffffffffffffffffffffffffffffffff16837f2f8788117e7eff1d82e926ec794901d17c78024a50270940304540a733656f0d60405160405180910390a45b5050565b60006001600084815260200190815260200160002060000160008373ffffffffffffffffffffffffffffffffffffffff1673ffffffffffffffffffffffffffffffffffffffff16815260200190815260200160002060009054906101000a900460ff16905092915050565b600033905090565b600080fd5b600073ffffffffffffffffffffffffffffffffffffffff82169050919050565b60006200029b826200026e565b9050919050565b620002ad816200028e565b8114620002b957600080fd5b50565b600081519050620002cd81620002a2565b92915050565b6000620002e0826200026e565b9050919050565b620002f281620002d3565b8114620002fe57600080fd5b50565b6000815190506200031281620002e7565b92915050565b6000806040838503121562000332576200033162000269565b5b60006200034285828601620002bc565b9250506020620003558582860162000301565b9150509250929050565b6129f9806200036f6000396000f3fe6080604052600436106101085760003560e01c80635c975abb11610095578063a217fddf11610064578063a217fddf1461037a578063abfcc8c9146103a5578063d547741f146103d0578063e7daaab5146103f9578063efef39a11461042457610108565b80635c975abb146102d2578063836cf6e9146102fd5780638456cb591461032657806391d148541461033d57610108565b8063308b4c97116100dc578063308b4c97146101ef57806336568abe1461022c5780633f4ba83a14610255578063479ad4c31461026c57806352bea3601461029557610108565b806207df301461010d57806301ffc9a71461014c578063248a9ca3146101895780632f2ff15d146101c6575b600080fd5b34801561011957600080fd5b50610134600480360381019061012f9190611bd9565b610440565b60405161014393929190611c49565b60405180910390f35b34801561015857600080fd5b50610173600480360381019061016e9190611cd8565b610497565b6040516101809190611d20565b60405180910390f35b34801561019557600080fd5b506101b060048036038101906101ab9190611d71565b610511565b6040516101bd9190611dad565b60405180910390f35b3480156101d257600080fd5b506101ed60048036038101906101e89190611dc8565b610531565b005b3480156101fb57600080fd5b5061021660048036038101906102119190611e08565b610552565b6040516102239190611e35565b60405180910390f35b34801561023857600080fd5b50610253600480360381019061024e9190611dc8565b610576565b005b34801561026157600080fd5b5061026a6105f9565b005b34801561027857600080fd5b50610293600480360381019061028e9190611e08565b610611565b005b3480156102a157600080fd5b506102bc60048036038101906102b79190611e08565b610934565b6040516102c99190611e5f565b60405180910390f35b3480156102de57600080fd5b506102e7610967565b6040516102f49190611d20565b60405180910390f35b34801561030957600080fd5b50610324600480360381019061031f9190611e7a565b61097d565b005b34801561033257600080fd5b5061033b610cc1565b005b34801561034957600080fd5b50610364600480360381019061035f9190611dc8565b610cd9565b6040516103719190611d20565b60405180910390f35b34801561038657600080fd5b5061038f610d44565b60405161039c9190611dad565b60405180910390f35b3480156103b157600080fd5b506103ba610d4b565b6040516103c79190611fc9565b60405180910390f35b3480156103dc57600080fd5b506103f760048036038101906103f29190611dc8565b610f27565b005b34801561040557600080fd5b5061040e610f48565b60405161041b919061209a565b60405180910390f35b61043e60048036038101906104399190611e08565b610fa0565b005b6003602052816000526040600020602052806000526040600020600091509150508060000154908060010160009054906101000a900473ffffffffffffffffffffffffffffffffffffffff16908060020154905083565b60007f7965db0b000000000000000000000000000000000000000000000000000000007bffffffffffffffffffffffffffffffffffffffffffffffffffffffff1916827bffffffffffffffffffffffffffffffffffffffffffffffffffffffff1916148061050a5750610509826114a5565b5b9050919050565b600060016000838152602001908152602001600020600101549050919050565b61053a82610511565b6105438161150f565b61054d8383611523565b505050565b6005818154811061056257600080fd5b906000526020600020016000915090505481565b61057e611603565b73ffffffffffffffffffffffffffffffffffffffff168173ffffffffffffffffffffffffffffffffffffffff16146105eb576040517f08c379a00000000000000000000000000000000000000000000000000000000081526004016105e29061213f565b60405180910390fd5b6105f5828261160b565b5050565b6000801b6106068161150f565b61060e6116ed565b50565b3373ffffffffffffffffffffffffffffffffffffffff16600260009054906101000a900473ffffffffffffffffffffffffffffffffffffffff1673ffffffffffffffffffffffffffffffffffffffff16636352211e836040518263ffffffff1660e01b81526004016106839190611e35565b602060405180830381865afa1580156106a0573d6000803e3d6000fd5b505050506040513d601f19601f820116820180604052508101906106c49190612174565b73ffffffffffffffffffffffffffffffffffffffff161461071a576040517f08c379a0000000000000000000000000000000000000000000000000000000008152600401610711906121ed565b60405180910390fd5b600260009054906101000a900473ffffffffffffffffffffffffffffffffffffffff1673ffffffffffffffffffffffffffffffffffffffff1663e985e9c533306040518363ffffffff1660e01b815260040161077792919061220d565b602060405180830381865afa158015610794573d6000803e3d6000fd5b505050506040513d601f19601f820116820180604052508101906107b89190612262565b6107f7576040517f08c379a00000000000000000000000000000000000000000000000000000000081526004016107ee90612301565b60405180910390fd5b6004600082815260200190815260200160002060006101000a81549073ffffffffffffffffffffffffffffffffffffffff0219169055600360003373ffffffffffffffffffffffffffffffffffffffff1673ffffffffffffffffffffffffffffffffffffffff16815260200190815260200160002060008281526020019081526020016000206000808201600090556001820160006101000a81549073ffffffffffffffffffffffffffffffffffffffff021916905560028201600090555050600560016005805490506108cb9190612350565b815481106108dc576108db612384565b5b9060005260206000200154600582815481106108fb576108fa612384565b5b9060005260206000200181905550600580548061091b5761091a6123b3565b5b6001900381819060005260206000200160009055905550565b60046020528060005260406000206000915054906101000a900473ffffffffffffffffffffffffffffffffffffffff1681565b60008060009054906101000a900460ff16905090565b3373ffffffffffffffffffffffffffffffffffffffff16600260009054906101000a900473ffffffffffffffffffffffffffffffffffffffff1673ffffffffffffffffffffffffffffffffffffffff16636352211e846040518263ffffffff1660e01b81526004016109ef9190611e35565b602060405180830381865afa158015610a0c573d6000803e3d6000fd5b505050506040513d601f19601f82011682018060405250810190610a309190612174565b73ffffffffffffffffffffffffffffffffffffffff1614610a86576040517f08c379a0000000000000000000000000000000000000000000000000000000008152600401610a7d906121ed565b60405180910390fd5b600260009054906101000a900473ffffffffffffffffffffffffffffffffffffffff1673ffffffffffffffffffffffffffffffffffffffff1663e985e9c533306040518363ffffffff1660e01b8152600401610ae392919061220d565b602060405180830381865afa158015610b00573d6000803e3d6000fd5b505050506040513d601f19601f82011682018060405250810190610b249190612262565b610b63576040517f08c379a0000000000000000000000000000000000000000000000000000000008152600401610b5a90612301565b60405180910390fd5b60405180606001604052808281526020013373ffffffffffffffffffffffffffffffffffffffff16815260200183815250600360003373ffffffffffffffffffffffffffffffffffffffff1673ffffffffffffffffffffffffffffffffffffffff16815260200190815260200160002060008481526020019081526020016000206000820151816000015560208201518160010160006101000a81548173ffffffffffffffffffffffffffffffffffffffff021916908373ffffffffffffffffffffffffffffffffffffffff16021790555060408201518160020155905050336004600084815260200190815260200160002060006101000a81548173ffffffffffffffffffffffffffffffffffffffff021916908373ffffffffffffffffffffffffffffffffffffffff16021790555060058290806001815401808255809150506001900390600052602060002001600090919091909150555050565b6000801b610cce8161150f565b610cd661178e565b50565b60006001600084815260200190815260200160002060000160008373ffffffffffffffffffffffffffffffffffffffff1673ffffffffffffffffffffffffffffffffffffffff16815260200190815260200160002060009054906101000a900460ff16905092915050565b6000801b81565b6060600060058054905067ffffffffffffffff811115610d6e57610d6d6123e2565b5b604051908082528060200260200182016040528015610da757816020015b610d94611b09565b815260200190600190039081610d8c5790505b50905060005b600580549050811015610f1f57600360006004600060058581548110610dd657610dd5612384565b5b9060005260206000200154815260200190815260200160002060009054906101000a900473ffffffffffffffffffffffffffffffffffffffff1673ffffffffffffffffffffffffffffffffffffffff1673ffffffffffffffffffffffffffffffffffffffff168152602001908152602001600020600060058381548110610e6057610e5f612384565b5b90600052602060002001548152602001908152602001600020604051806060016040529081600082015481526020016001820160009054906101000a900473ffffffffffffffffffffffffffffffffffffffff1673ffffffffffffffffffffffffffffffffffffffff1673ffffffffffffffffffffffffffffffffffffffff168152602001600282015481525050828281518110610f0157610f00612384565b5b60200260200101819052508080610f1790612411565b915050610dad565b508091505090565b610f3082610511565b610f398161150f565b610f43838361160b565b505050565b60606005805480602002602001604051908101604052809291908181526020018280548015610f9657602002820191906000526020600020905b815481526020019060010190808311610f82575b5050505050905090565b60006004600083815260200190815260200160002060009054906101000a900473ffffffffffffffffffffffffffffffffffffffff1690506000600360008373ffffffffffffffffffffffffffffffffffffffff1673ffffffffffffffffffffffffffffffffffffffff1681526020019081526020016000206000848152602001908152602001600020604051806060016040529081600082015481526020016001820160009054906101000a900473ffffffffffffffffffffffffffffffffffffffff1673ffffffffffffffffffffffffffffffffffffffff1673ffffffffffffffffffffffffffffffffffffffff168152602001600282015481525050905080600001513410156110e8576040517f08c379a00000000000000000000000000000000000000000000000000000000081526004016110df906124a5565b60405180910390fd5b8173ffffffffffffffffffffffffffffffffffffffff16600260009054906101000a900473ffffffffffffffffffffffffffffffffffffffff1673ffffffffffffffffffffffffffffffffffffffff16636352211e856040518263ffffffff1660e01b815260040161115a9190611e35565b602060405180830381865afa158015611177573d6000803e3d6000fd5b505050506040513d601f19601f8201168201806040525081019061119b9190612174565b73ffffffffffffffffffffffffffffffffffffffff16146111f1576040517f08c379a00000000000000000000000000000000000000000000000000000000081526004016111e890612537565b60405180910390fd5b600260009054906101000a900473ffffffffffffffffffffffffffffffffffffffff1673ffffffffffffffffffffffffffffffffffffffff166342842e0e8333866040518463ffffffff1660e01b815260040161125093929190612557565b600060405180830381600087803b15801561126a57600080fd5b505af115801561127e573d6000803e3d6000fd5b505050506004600084815260200190815260200160002060006101000a81549073ffffffffffffffffffffffffffffffffffffffff0219169055600360008373ffffffffffffffffffffffffffffffffffffffff1673ffffffffffffffffffffffffffffffffffffffff16815260200190815260200160002060008481526020019081526020016000206000808201600090556001820160006101000a81549073ffffffffffffffffffffffffffffffffffffffff021916905560028201600090555050600560016005805490506113569190612350565b8154811061136757611366612384565b5b90600052602060002001546005848154811061138657611385612384565b5b906000526020600020018190555060058054806113a6576113a56123b3565b5b60019003818190600052602060002001600090559055806020015173ffffffffffffffffffffffffffffffffffffffff166108fc6064605a346113e9919061258e565b6113f39190612617565b9081150290604051600060405180830381858888f1935050505015801561141e573d6000803e3d6000fd5b50600660009054906101000a900473ffffffffffffffffffffffffffffffffffffffff1673ffffffffffffffffffffffffffffffffffffffff166108fc6064600a3461146a919061258e565b6114749190612617565b9081150290604051600060405180830381858888f1935050505015801561149f573d6000803e3d6000fd5b50505050565b60007f01ffc9a7000000000000000000000000000000000000000000000000000000007bffffffffffffffffffffffffffffffffffffffffffffffffffffffff1916827bffffffffffffffffffffffffffffffffffffffffffffffffffffffff1916149050919050565b6115208161151b611603565b611830565b50565b61152d8282610cd9565b6115ff57600180600084815260200190815260200160002060000160008373ffffffffffffffffffffffffffffffffffffffff1673ffffffffffffffffffffffffffffffffffffffff16815260200190815260200160002060006101000a81548160ff0219169083151502179055506115a4611603565b73ffffffffffffffffffffffffffffffffffffffff168173ffffffffffffffffffffffffffffffffffffffff16837f2f8788117e7eff1d82e926ec794901d17c78024a50270940304540a733656f0d60405160405180910390a45b5050565b600033905090565b6116158282610cd9565b156116e95760006001600084815260200190815260200160002060000160008373ffffffffffffffffffffffffffffffffffffffff1673ffffffffffffffffffffffffffffffffffffffff16815260200190815260200160002060006101000a81548160ff02191690831515021790555061168e611603565b73ffffffffffffffffffffffffffffffffffffffff168173ffffffffffffffffffffffffffffffffffffffff16837ff6391f5c32d9c69d2a47ea670b442974b53935d1edc7fd64eb21e047a839171b60405160405180910390a45b5050565b6116f5610967565b611734576040517f08c379a000000000000000000000000000000000000000000000000000000000815260040161172b90612694565b60405180910390fd5b60008060006101000a81548160ff0219169083151502179055507f5db9ee0a495bf2e6ff9c91a7834c1ba4fdd244a5e8aa4e537bd38aeae4b073aa611777611603565b6040516117849190611e5f565b60405180910390a1565b611796610967565b156117d6576040517f08c379a00000000000000000000000000000000000000000000000000000000081526004016117cd90612700565b60405180910390fd5b60016000806101000a81548160ff0219169083151502179055507f62e78cea01bee320cd4e420270b5ea74000d11b0c9f74754ebdbfc544b05a258611819611603565b6040516118269190611e5f565b60405180910390a1565b61183a8282610cd9565b6118c95761185f8173ffffffffffffffffffffffffffffffffffffffff1660146118cd565b61186d8360001c60206118cd565b60405160200161187e929190612832565b6040516020818303038152906040526040517f08c379a00000000000000000000000000000000000000000000000000000000081526004016118c091906128b6565b60405180910390fd5b5050565b6060600060028360026118e0919061258e565b6118ea91906128d8565b67ffffffffffffffff811115611903576119026123e2565b5b6040519080825280601f01601f1916602001820160405280156119355781602001600182028036833780820191505090505b5090507f30000000000000000000000000000000000000000000000000000000000000008160008151811061196d5761196c612384565b5b60200101907effffffffffffffffffffffffffffffffffffffffffffffffffffffffffffff1916908160001a9053507f7800000000000000000000000000000000000000000000000000000000000000816001815181106119d1576119d0612384565b5b60200101907effffffffffffffffffffffffffffffffffffffffffffffffffffffffffffff1916908160001a90535060006001846002611a11919061258e565b611a1b91906128d8565b90505b6001811115611abb577f3031323334353637383961626364656600000000000000000000000000000000600f861660108110611a5d57611a5c612384565b5b1a60f81b828281518110611a7457611a73612384565b5b60200101907effffffffffffffffffffffffffffffffffffffffffffffffffffffffffffff1916908160001a905350600485901c945080611ab49061292e565b9050611a1e565b5060008414611aff576040517f08c379a0000000000000000000000000000000000000000000000000000000008152600401611af6906129a3565b60405180910390fd5b8091505092915050565b604051806060016040528060008152602001600073ffffffffffffffffffffffffffffffffffffffff168152602001600081525090565b600080fd5b600073ffffffffffffffffffffffffffffffffffffffff82169050919050565b6000611b7082611b45565b9050919050565b611b8081611b65565b8114611b8b57600080fd5b50565b600081359050611b9d81611b77565b92915050565b6000819050919050565b611bb681611ba3565b8114611bc157600080fd5b50565b600081359050611bd381611bad565b92915050565b60008060408385031215611bf057611bef611b40565b5b6000611bfe85828601611b8e565b9250506020611c0f85828601611bc4565b9150509250929050565b611c2281611ba3565b82525050565b6000611c3382611b45565b9050919050565b611c4381611c28565b82525050565b6000606082019050611c5e6000830186611c19565b611c6b6020830185611c3a565b611c786040830184611c19565b949350505050565b60007fffffffff0000000000000000000000000000000000000000000000000000000082169050919050565b611cb581611c80565b8114611cc057600080fd5b50565b600081359050611cd281611cac565b92915050565b600060208284031215611cee57611ced611b40565b5b6000611cfc84828501611cc3565b91505092915050565b60008115159050919050565b611d1a81611d05565b82525050565b6000602082019050611d356000830184611d11565b92915050565b6000819050919050565b611d4e81611d3b565b8114611d5957600080fd5b50565b600081359050611d6b81611d45565b92915050565b600060208284031215611d8757611d86611b40565b5b6000611d9584828501611d5c565b91505092915050565b611da781611d3b565b82525050565b6000602082019050611dc26000830184611d9e565b92915050565b60008060408385031215611ddf57611dde611b40565b5b6000611ded85828601611d5c565b9250506020611dfe85828601611b8e565b9150509250929050565b600060208284031215611e1e57611e1d611b40565b5b6000611e2c84828501611bc4565b91505092915050565b6000602082019050611e4a6000830184611c19565b92915050565b611e5981611b65565b82525050565b6000602082019050611e746000830184611e50565b92915050565b60008060408385031215611e9157611e90611b40565b5b6000611e9f85828601611bc4565b9250506020611eb085828601611bc4565b9150509250929050565b600081519050919050565b600082825260208201905092915050565b6000819050602082019050919050565b611eef81611ba3565b82525050565b611efe81611c28565b82525050565b606082016000820151611f1a6000850182611ee6565b506020820151611f2d6020850182611ef5565b506040820151611f406040850182611ee6565b50505050565b6000611f528383611f04565b60608301905092915050565b6000602082019050919050565b6000611f7682611eba565b611f808185611ec5565b9350611f8b83611ed6565b8060005b83811015611fbc578151611fa38882611f46565b9750611fae83611f5e565b925050600181019050611f8f565b5085935050505092915050565b60006020820190508181036000830152611fe38184611f6b565b905092915050565b600081519050919050565b600082825260208201905092915050565b6000819050602082019050919050565b60006120238383611ee6565b60208301905092915050565b6000602082019050919050565b600061204782611feb565b6120518185611ff6565b935061205c83612007565b8060005b8381101561208d5781516120748882612017565b975061207f8361202f565b925050600181019050612060565b5085935050505092915050565b600060208201905081810360008301526120b4818461203c565b905092915050565b600082825260208201905092915050565b7f416363657373436f6e74726f6c3a2063616e206f6e6c792072656e6f756e636560008201527f20726f6c657320666f722073656c660000000000000000000000000000000000602082015250565b6000612129602f836120bc565b9150612134826120cd565b604082019050919050565b600060208201905081810360008301526121588161211c565b9050919050565b60008151905061216e81611b77565b92915050565b60006020828403121561218a57612189611b40565b5b60006121988482850161215f565b91505092915050565b7f596f7520646f6e2774206f776e207468697320746f6b656e0000000000000000600082015250565b60006121d76018836120bc565b91506121e2826121a1565b602082019050919050565b60006020820190508181036000830152612206816121ca565b9050919050565b60006040820190506122226000830185611e50565b61222f6020830184611e50565b9392505050565b61223f81611d05565b811461224a57600080fd5b50565b60008151905061225c81612236565b92915050565b60006020828403121561227857612277611b40565b5b60006122868482850161224d565b91505092915050565b7f596f7520617265206e6f7420617070726f76656420666f72207468697320636f60008201527f6e74726163740000000000000000000000000000000000000000000000000000602082015250565b60006122eb6026836120bc565b91506122f68261228f565b604082019050919050565b6000602082019050818103600083015261231a816122de565b9050919050565b7f4e487b7100000000000000000000000000000000000000000000000000000000600052601160045260246000fd5b600061235b82611ba3565b915061236683611ba3565b92508282101561237957612378612321565b5b828203905092915050565b7f4e487b7100000000000000000000000000000000000000000000000000000000600052603260045260246000fd5b7f4e487b7100000000000000000000000000000000000000000000000000000000600052603160045260246000fd5b7f4e487b7100000000000000000000000000000000000000000000000000000000600052604160045260246000fd5b600061241c82611ba3565b91507fffffffffffffffffffffffffffffffffffffffffffffffffffffffffffffffff820361244e5761244d612321565b5b600182019050919050565b7f596f7520646f6e2774206861766520656e6f756768206d6f6e65790000000000600082015250565b600061248f601b836120bc565b915061249a82612459565b602082019050919050565b600060208201905081810360008301526124be81612482565b9050919050565b7f546865206f776e6572206f66207468697320746f6b656e206973206e6f74207460008201527f68652073656c6c65720000000000000000000000000000000000000000000000602082015250565b60006125216029836120bc565b915061252c826124c5565b604082019050919050565b6000602082019050818103600083015261255081612514565b9050919050565b600060608201905061256c6000830186611e50565b6125796020830185611e50565b6125866040830184611c19565b949350505050565b600061259982611ba3565b91506125a483611ba3565b9250817fffffffffffffffffffffffffffffffffffffffffffffffffffffffffffffffff04831182151516156125dd576125dc612321565b5b828202905092915050565b7f4e487b7100000000000000000000000000000000000000000000000000000000600052601260045260246000fd5b600061262282611ba3565b915061262d83611ba3565b92508261263d5761263c6125e8565b5b828204905092915050565b7f5061757361626c653a206e6f7420706175736564000000000000000000000000600082015250565b600061267e6014836120bc565b915061268982612648565b602082019050919050565b600060208201905081810360008301526126ad81612671565b9050919050565b7f5061757361626c653a2070617573656400000000000000000000000000000000600082015250565b60006126ea6010836120bc565b91506126f5826126b4565b602082019050919050565b60006020820190508181036000830152612719816126dd565b9050919050565b600081905092915050565b7f416363657373436f6e74726f6c3a206163636f756e7420000000000000000000600082015250565b6000612761601783612720565b915061276c8261272b565b601782019050919050565b600081519050919050565b60005b838110156127a0578082015181840152602081019050612785565b838111156127af576000848401525b50505050565b60006127c082612777565b6127ca8185612720565b93506127da818560208601612782565b80840191505092915050565b7f206973206d697373696e6720726f6c6520000000000000000000000000000000600082015250565b600061281c601183612720565b9150612827826127e6565b601182019050919050565b600061283d82612754565b915061284982856127b5565b91506128548261280f565b915061286082846127b5565b91508190509392505050565b6000601f19601f8301169050919050565b600061288882612777565b61289281856120bc565b93506128a2818560208601612782565b6128ab8161286c565b840191505092915050565b600060208201905081810360008301526128d0818461287d565b905092915050565b60006128e382611ba3565b91506128ee83611ba3565b9250827fffffffffffffffffffffffffffffffffffffffffffffffffffffffffffffffff0382111561292357612922612321565b5b828201905092915050565b600061293982611ba3565b91506000820361294c5761294b612321565b5b600182039050919050565b7f537472696e67733a20686578206c656e67746820696e73756666696369656e74600082015250565b600061298d6020836120bc565b915061299882612957565b602082019050919050565b600060208201905081810360008301526129bc81612980565b905091905056fea26469706673582212202efc72f61aba1a1e8b336412c0984b72fe2c778f2910a44ed2440b39f292e07064736f6c634300080f0033",
  "immutableReferences": {},
  "source": "// SPDX-License-Identifier: MIT\npragma solidity ^0.8.4;\n\nimport \"@openzeppelin/contracts/security/Pausable.sol\";\nimport \"@openzeppelin/contracts/access/AccessControl.sol\";\n\nimport \"./CryptoTicketsMatchNFTs.sol\";\n\ncontract CryptoTicketsMarketplace is Pausable, AccessControl {\n    // Other contracts\n    CryptoTicketsMatchNFTs matchTicketsContract;\n\n    struct Listing {\n      uint256 price;\n      address payable seller;\n      uint256 tokenId;\n    }\n\n    mapping(address => mapping(uint256 => Listing)) public listings;\n    mapping(uint256 => address) public listingIds; // List of owners by token id\n    uint256[] public tokensOnSale;\n\n    address payable clubAddress;\n\n    constructor(address matchTicketsContractAddresss, address payable clubOwnerAddress) {\n        matchTicketsContract = CryptoTicketsMatchNFTs(matchTicketsContractAddresss);\n        _grantRole(DEFAULT_ADMIN_ROLE, msg.sender);\n        _grantRole(DEFAULT_ADMIN_ROLE, clubOwnerAddress);\n        clubAddress = clubOwnerAddress;\n    }\n\n    function addListing(uint256 tokenId, uint256 price) public {\n        require(matchTicketsContract.ownerOf(tokenId) == msg.sender, \"You don't own this token\");\n        require(matchTicketsContract.isApprovedForAll(msg.sender, address(this)), \"You are not approved for this contract\");\n\n        listings[msg.sender][tokenId] = Listing(price, payable(msg.sender), tokenId);\n        listingIds[tokenId] = msg.sender;\n        tokensOnSale.push(tokenId);\n    }\n\n    function removeListing(uint256 tokenId) public {\n        require(matchTicketsContract.ownerOf(tokenId) == msg.sender, \"You don't own this token\");\n        require(matchTicketsContract.isApprovedForAll(msg.sender, address(this)), \"You are not approved for this contract\");\n\n        delete listingIds[tokenId];\n        delete listings[payable(msg.sender)][tokenId];\n\n        // Remove token from array of tokens on sale\n        tokensOnSale[tokenId] = tokensOnSale[tokensOnSale.length - 1];\n        tokensOnSale.pop();\n    }\n\n    function purchase(uint256 tokenId) public payable {\n      address ownerAddress = listingIds[tokenId];\n      Listing memory item = listings[ownerAddress][tokenId];\n      require(msg.value >= item.price, \"You don't have enough money\");\n      require(matchTicketsContract.ownerOf(tokenId) == ownerAddress, \"The owner of this token is not the seller\");\n\n      matchTicketsContract.safeTransferFrom(ownerAddress, msg.sender, tokenId);\n\n      delete listingIds[tokenId];\n      delete listings[ownerAddress][tokenId];\n      // // Remove token from array of tokens on sale\n      tokensOnSale[tokenId] = tokensOnSale[tokensOnSale.length - 1];\n      tokensOnSale.pop();\n      // Send money to seller and the fees for the club\n      item.seller.transfer(msg.value * 90 / 100);\n      clubAddress.transfer(msg.value * 10 / 100);\n    }\n\n    function getOnSaleTokens() public view returns (uint256[] memory) {\n      return tokensOnSale;\n    }\n\n    function getOnSaleTokensInfo() public view returns (Listing[] memory) {\n      Listing[] memory items = new Listing[](tokensOnSale.length);\n      for (uint i = 0; i < tokensOnSale.length; i++) {\n        items[i] = listings[listingIds[tokensOnSale[i]]][tokensOnSale[i]];\n      }\n      return items;\n    }\n\n    function pause() public onlyRole(DEFAULT_ADMIN_ROLE) {\n        _pause();\n    }\n\n    function unpause() public onlyRole(DEFAULT_ADMIN_ROLE) {\n        _unpause();\n    }\n}\n",
  "sourcePath": "/Users/dosorio/Proyectos/Blockchain/SportTickets/contracts/CryptoTicketsMarketplace.sol",
  "compiler": {
    "name": "solc",
    "version": "0.8.15+commit.e14f2714.Emscripten.clang"
  },
  "schemaVersion": "3.4.7",
  "updatedAt": "2022-07-02T15:46:35.757Z",
  "networkType": "ethereum",
  "devdoc": {
    "kind": "dev",
    "methods": {
      "getRoleAdmin(bytes32)": {
        "details": "Returns the admin role that controls `role`. See {grantRole} and {revokeRole}. To change a role's admin, use {_setRoleAdmin}."
      },
      "grantRole(bytes32,address)": {
        "details": "Grants `role` to `account`. If `account` had not been already granted `role`, emits a {RoleGranted} event. Requirements: - the caller must have ``role``'s admin role."
      },
      "hasRole(bytes32,address)": {
        "details": "Returns `true` if `account` has been granted `role`."
      },
      "paused()": {
        "details": "Returns true if the contract is paused, and false otherwise."
      },
      "renounceRole(bytes32,address)": {
        "details": "Revokes `role` from the calling account. Roles are often managed via {grantRole} and {revokeRole}: this function's purpose is to provide a mechanism for accounts to lose their privileges if they are compromised (such as when a trusted device is misplaced). If the calling account had been revoked `role`, emits a {RoleRevoked} event. Requirements: - the caller must be `account`."
      },
      "revokeRole(bytes32,address)": {
        "details": "Revokes `role` from `account`. If `account` had been granted `role`, emits a {RoleRevoked} event. Requirements: - the caller must have ``role``'s admin role."
      },
      "supportsInterface(bytes4)": {
        "details": "See {IERC165-supportsInterface}."
      }
    },
    "version": 1
  },
  "userdoc": {
    "kind": "user",
    "methods": {},
    "version": 1
  }
}