{
  "contractName": "CryptoTicketsMatchNFTs",
  "abi": [
    {
      "inputs": [
        {
          "internalType": "address",
          "name": "rewardsTicketAddress",
          "type": "address"
        }
      ],
      "stateMutability": "nonpayable",
      "type": "constructor"
    },
    {
      "anonymous": false,
      "inputs": [
        {
          "indexed": true,
          "internalType": "address",
          "name": "owner",
          "type": "address"
        },
        {
          "indexed": true,
          "internalType": "address",
          "name": "approved",
          "type": "address"
        },
        {
          "indexed": true,
          "internalType": "uint256",
          "name": "tokenId",
          "type": "uint256"
        }
      ],
      "name": "Approval",
      "type": "event"
    },
    {
      "anonymous": false,
      "inputs": [
        {
          "indexed": true,
          "internalType": "address",
          "name": "owner",
          "type": "address"
        },
        {
          "indexed": true,
          "internalType": "address",
          "name": "operator",
          "type": "address"
        },
        {
          "indexed": false,
          "internalType": "bool",
          "name": "approved",
          "type": "bool"
        }
      ],
      "name": "ApprovalForAll",
      "type": "event"
    },
    {
      "anonymous": false,
      "inputs": [
        {
          "indexed": false,
          "internalType": "address",
          "name": "account",
          "type": "address"
        }
      ],
      "name": "Paused",
      "type": "event"
    },
    {
      "anonymous": false,
      "inputs": [
        {
          "indexed": true,
          "internalType": "bytes32",
          "name": "role",
          "type": "bytes32"
        },
        {
          "indexed": true,
          "internalType": "bytes32",
          "name": "previousAdminRole",
          "type": "bytes32"
        },
        {
          "indexed": true,
          "internalType": "bytes32",
          "name": "newAdminRole",
          "type": "bytes32"
        }
      ],
      "name": "RoleAdminChanged",
      "type": "event"
    },
    {
      "anonymous": false,
      "inputs": [
        {
          "indexed": true,
          "internalType": "bytes32",
          "name": "role",
          "type": "bytes32"
        },
        {
          "indexed": true,
          "internalType": "address",
          "name": "account",
          "type": "address"
        },
        {
          "indexed": true,
          "internalType": "address",
          "name": "sender",
          "type": "address"
        }
      ],
      "name": "RoleGranted",
      "type": "event"
    },
    {
      "anonymous": false,
      "inputs": [
        {
          "indexed": true,
          "internalType": "bytes32",
          "name": "role",
          "type": "bytes32"
        },
        {
          "indexed": true,
          "internalType": "address",
          "name": "account",
          "type": "address"
        },
        {
          "indexed": true,
          "internalType": "address",
          "name": "sender",
          "type": "address"
        }
      ],
      "name": "RoleRevoked",
      "type": "event"
    },
    {
      "anonymous": false,
      "inputs": [
        {
          "indexed": true,
          "internalType": "address",
          "name": "from",
          "type": "address"
        },
        {
          "indexed": true,
          "internalType": "address",
          "name": "to",
          "type": "address"
        },
        {
          "indexed": true,
          "internalType": "uint256",
          "name": "tokenId",
          "type": "uint256"
        }
      ],
      "name": "Transfer",
      "type": "event"
    },
    {
      "anonymous": false,
      "inputs": [
        {
          "indexed": false,
          "internalType": "address",
          "name": "account",
          "type": "address"
        }
      ],
      "name": "Unpaused",
      "type": "event"
    },
    {
      "inputs": [],
      "name": "ADMIN_CLUB_ROLE",
      "outputs": [
        {
          "internalType": "bytes32",
          "name": "",
          "type": "bytes32"
        }
      ],
      "stateMutability": "view",
      "type": "function",
      "constant": true
    },
    {
      "inputs": [],
      "name": "DEFAULT_ADMIN_ROLE",
      "outputs": [
        {
          "internalType": "bytes32",
          "name": "",
          "type": "bytes32"
        }
      ],
      "stateMutability": "view",
      "type": "function",
      "constant": true
    },
    {
      "inputs": [
        {
          "internalType": "address",
          "name": "to",
          "type": "address"
        },
        {
          "internalType": "uint256",
          "name": "tokenId",
          "type": "uint256"
        }
      ],
      "name": "approve",
      "outputs": [],
      "stateMutability": "nonpayable",
      "type": "function"
    },
    {
      "inputs": [
        {
          "internalType": "address",
          "name": "owner",
          "type": "address"
        }
      ],
      "name": "balanceOf",
      "outputs": [
        {
          "internalType": "uint256",
          "name": "",
          "type": "uint256"
        }
      ],
      "stateMutability": "view",
      "type": "function",
      "constant": true
    },
    {
      "inputs": [
        {
          "internalType": "uint256",
          "name": "tokenId",
          "type": "uint256"
        }
      ],
      "name": "burn",
      "outputs": [],
      "stateMutability": "nonpayable",
      "type": "function"
    },
    {
      "inputs": [],
      "name": "club",
      "outputs": [
        {
          "internalType": "address payable",
          "name": "",
          "type": "address"
        }
      ],
      "stateMutability": "view",
      "type": "function",
      "constant": true
    },
    {
      "inputs": [
        {
          "internalType": "uint256",
          "name": "tokenId",
          "type": "uint256"
        }
      ],
      "name": "getApproved",
      "outputs": [
        {
          "internalType": "address",
          "name": "",
          "type": "address"
        }
      ],
      "stateMutability": "view",
      "type": "function",
      "constant": true
    },
    {
      "inputs": [
        {
          "internalType": "bytes32",
          "name": "role",
          "type": "bytes32"
        }
      ],
      "name": "getRoleAdmin",
      "outputs": [
        {
          "internalType": "bytes32",
          "name": "",
          "type": "bytes32"
        }
      ],
      "stateMutability": "view",
      "type": "function",
      "constant": true
    },
    {
      "inputs": [
        {
          "internalType": "bytes32",
          "name": "role",
          "type": "bytes32"
        },
        {
          "internalType": "address",
          "name": "account",
          "type": "address"
        }
      ],
      "name": "grantRole",
      "outputs": [],
      "stateMutability": "nonpayable",
      "type": "function"
    },
    {
      "inputs": [
        {
          "internalType": "bytes32",
          "name": "role",
          "type": "bytes32"
        },
        {
          "internalType": "address",
          "name": "account",
          "type": "address"
        }
      ],
      "name": "hasRole",
      "outputs": [
        {
          "internalType": "bool",
          "name": "",
          "type": "bool"
        }
      ],
      "stateMutability": "view",
      "type": "function",
      "constant": true
    },
    {
      "inputs": [
        {
          "internalType": "address",
          "name": "owner",
          "type": "address"
        },
        {
          "internalType": "address",
          "name": "operator",
          "type": "address"
        }
      ],
      "name": "isApprovedForAll",
      "outputs": [
        {
          "internalType": "bool",
          "name": "",
          "type": "bool"
        }
      ],
      "stateMutability": "view",
      "type": "function",
      "constant": true
    },
    {
      "inputs": [
        {
          "internalType": "uint256",
          "name": "",
          "type": "uint256"
        }
      ],
      "name": "listSubscriber",
      "outputs": [
        {
          "internalType": "address",
          "name": "",
          "type": "address"
        }
      ],
      "stateMutability": "view",
      "type": "function",
      "constant": true
    },
    {
      "inputs": [],
      "name": "name",
      "outputs": [
        {
          "internalType": "string",
          "name": "",
          "type": "string"
        }
      ],
      "stateMutability": "view",
      "type": "function",
      "constant": true
    },
    {
      "inputs": [
        {
          "internalType": "uint256",
          "name": "tokenId",
          "type": "uint256"
        }
      ],
      "name": "ownerOf",
      "outputs": [
        {
          "internalType": "address",
          "name": "",
          "type": "address"
        }
      ],
      "stateMutability": "view",
      "type": "function",
      "constant": true
    },
    {
      "inputs": [],
      "name": "paused",
      "outputs": [
        {
          "internalType": "bool",
          "name": "",
          "type": "bool"
        }
      ],
      "stateMutability": "view",
      "type": "function",
      "constant": true
    },
    {
      "inputs": [
        {
          "internalType": "bytes32",
          "name": "role",
          "type": "bytes32"
        },
        {
          "internalType": "address",
          "name": "account",
          "type": "address"
        }
      ],
      "name": "renounceRole",
      "outputs": [],
      "stateMutability": "nonpayable",
      "type": "function"
    },
    {
      "inputs": [
        {
          "internalType": "bytes32",
          "name": "role",
          "type": "bytes32"
        },
        {
          "internalType": "address",
          "name": "account",
          "type": "address"
        }
      ],
      "name": "revokeRole",
      "outputs": [],
      "stateMutability": "nonpayable",
      "type": "function"
    },
    {
      "inputs": [
        {
          "internalType": "uint256",
          "name": "_tokenId",
          "type": "uint256"
        },
        {
          "internalType": "uint256",
          "name": "_salePrice",
          "type": "uint256"
        }
      ],
      "name": "royaltyInfo",
      "outputs": [
        {
          "internalType": "address",
          "name": "",
          "type": "address"
        },
        {
          "internalType": "uint256",
          "name": "",
          "type": "uint256"
        }
      ],
      "stateMutability": "view",
      "type": "function",
      "constant": true
    },
    {
      "inputs": [
        {
          "internalType": "address",
          "name": "from",
          "type": "address"
        },
        {
          "internalType": "address",
          "name": "to",
          "type": "address"
        },
        {
          "internalType": "uint256",
          "name": "tokenId",
          "type": "uint256"
        }
      ],
      "name": "safeTransferFrom",
      "outputs": [],
      "stateMutability": "nonpayable",
      "type": "function"
    },
    {
      "inputs": [
        {
          "internalType": "address",
          "name": "from",
          "type": "address"
        },
        {
          "internalType": "address",
          "name": "to",
          "type": "address"
        },
        {
          "internalType": "uint256",
          "name": "tokenId",
          "type": "uint256"
        },
        {
          "internalType": "bytes",
          "name": "_data",
          "type": "bytes"
        }
      ],
      "name": "safeTransferFrom",
      "outputs": [],
      "stateMutability": "nonpayable",
      "type": "function"
    },
    {
      "inputs": [
        {
          "internalType": "address",
          "name": "operator",
          "type": "address"
        },
        {
          "internalType": "bool",
          "name": "approved",
          "type": "bool"
        }
      ],
      "name": "setApprovalForAll",
      "outputs": [],
      "stateMutability": "nonpayable",
      "type": "function"
    },
    {
      "inputs": [],
      "name": "symbol",
      "outputs": [
        {
          "internalType": "string",
          "name": "",
          "type": "string"
        }
      ],
      "stateMutability": "view",
      "type": "function",
      "constant": true
    },
    {
      "inputs": [
        {
          "internalType": "uint256",
          "name": "index",
          "type": "uint256"
        }
      ],
      "name": "tokenByIndex",
      "outputs": [
        {
          "internalType": "uint256",
          "name": "",
          "type": "uint256"
        }
      ],
      "stateMutability": "view",
      "type": "function",
      "constant": true
    },
    {
      "inputs": [
        {
          "internalType": "address",
          "name": "owner",
          "type": "address"
        },
        {
          "internalType": "uint256",
          "name": "index",
          "type": "uint256"
        }
      ],
      "name": "tokenOfOwnerByIndex",
      "outputs": [
        {
          "internalType": "uint256",
          "name": "",
          "type": "uint256"
        }
      ],
      "stateMutability": "view",
      "type": "function",
      "constant": true
    },
    {
      "inputs": [
        {
          "internalType": "uint256",
          "name": "",
          "type": "uint256"
        }
      ],
      "name": "tokensMintedByMatch",
      "outputs": [
        {
          "internalType": "uint256",
          "name": "",
          "type": "uint256"
        }
      ],
      "stateMutability": "view",
      "type": "function",
      "constant": true
    },
    {
      "inputs": [],
      "name": "totalSupply",
      "outputs": [
        {
          "internalType": "uint256",
          "name": "",
          "type": "uint256"
        }
      ],
      "stateMutability": "view",
      "type": "function",
      "constant": true
    },
    {
      "inputs": [
        {
          "internalType": "address",
          "name": "from",
          "type": "address"
        },
        {
          "internalType": "address",
          "name": "to",
          "type": "address"
        },
        {
          "internalType": "uint256",
          "name": "tokenId",
          "type": "uint256"
        }
      ],
      "name": "transferFrom",
      "outputs": [],
      "stateMutability": "nonpayable",
      "type": "function"
    },
    {
      "inputs": [],
      "name": "contractURI",
      "outputs": [
        {
          "internalType": "string",
          "name": "",
          "type": "string"
        }
      ],
      "stateMutability": "pure",
      "type": "function",
      "constant": true
    },
    {
      "inputs": [],
      "name": "pause",
      "outputs": [],
      "stateMutability": "nonpayable",
      "type": "function"
    },
    {
      "inputs": [],
      "name": "unpause",
      "outputs": [],
      "stateMutability": "nonpayable",
      "type": "function"
    },
    {
      "inputs": [
        {
          "internalType": "uint256",
          "name": "matchId",
          "type": "uint256"
        },
        {
          "internalType": "uint256",
          "name": "maxCapacity",
          "type": "uint256"
        },
        {
          "internalType": "string",
          "name": "uri",
          "type": "string"
        },
        {
          "internalType": "uint256",
          "name": "carSize",
          "type": "uint256"
        }
      ],
      "name": "airdropMatchTickets",
      "outputs": [],
      "stateMutability": "nonpayable",
      "type": "function"
    },
    {
      "inputs": [
        {
          "internalType": "uint256",
          "name": "matchId",
          "type": "uint256"
        }
      ],
      "name": "getTotalMintedTicketsByMatchId",
      "outputs": [
        {
          "internalType": "uint256",
          "name": "",
          "type": "uint256"
        }
      ],
      "stateMutability": "view",
      "type": "function",
      "constant": true
    },
    {
      "inputs": [
        {
          "internalType": "uint256",
          "name": "tokenId",
          "type": "uint256"
        }
      ],
      "name": "burnTicket",
      "outputs": [],
      "stateMutability": "nonpayable",
      "type": "function"
    },
    {
      "inputs": [
        {
          "internalType": "uint256",
          "name": "matchId",
          "type": "uint256"
        }
      ],
      "name": "tokenURI",
      "outputs": [
        {
          "internalType": "string",
          "name": "",
          "type": "string"
        }
      ],
      "stateMutability": "view",
      "type": "function",
      "constant": true
    },
    {
      "inputs": [
        {
          "internalType": "bytes4",
          "name": "interfaceId",
          "type": "bytes4"
        }
      ],
      "name": "supportsInterface",
      "outputs": [
        {
          "internalType": "bool",
          "name": "",
          "type": "bool"
        }
      ],
      "stateMutability": "view",
      "type": "function",
      "constant": true
    },
    {
      "inputs": [
        {
          "internalType": "address",
          "name": "account",
          "type": "address"
        }
      ],
      "name": "grantAdminRol",
      "outputs": [],
      "stateMutability": "nonpayable",
      "type": "function"
    },
    {
      "inputs": [
        {
          "internalType": "address",
          "name": "account",
          "type": "address"
        }
      ],
      "name": "grantClubRol",
      "outputs": [],
      "stateMutability": "nonpayable",
      "type": "function"
    },
    {
      "inputs": [
        {
          "internalType": "address",
          "name": "account",
          "type": "address"
        }
      ],
      "name": "revokeClubRol",
      "outputs": [],
      "stateMutability": "nonpayable",
      "type": "function"
    },
    {
      "inputs": [
        {
          "internalType": "address",
          "name": "account",
          "type": "address"
        }
      ],
      "name": "addAMembershipddress",
      "outputs": [],
      "stateMutability": "nonpayable",
      "type": "function"
    },
    {
      "inputs": [
        {
          "internalType": "address",
          "name": "value",
          "type": "address"
        }
      ],
      "name": "findAddress",
      "outputs": [
        {
          "internalType": "uint256",
          "name": "",
          "type": "uint256"
        }
      ],
      "stateMutability": "view",
      "type": "function",
      "constant": true
    },
    {
      "inputs": [],
      "name": "getAddressInfo",
      "outputs": [
        {
          "internalType": "address[]",
          "name": "",
          "type": "address[]"
        }
      ],
      "stateMutability": "view",
      "type": "function",
      "constant": true
    },
    {
      "inputs": [
        {
          "internalType": "address",
          "name": "value",
          "type": "address"
        }
      ],
      "name": "removeMembershipAddress",
      "outputs": [],
      "stateMutability": "nonpayable",
      "type": "function"
    },
    {
      "inputs": [
        {
          "internalType": "address",
          "name": "_receiver",
          "type": "address"
        },
        {
          "internalType": "uint96",
          "name": "_royaltyFeesInBips",
          "type": "uint96"
        }
      ],
      "name": "setRoyaltyInfo",
      "outputs": [],
      "stateMutability": "nonpayable",
      "type": "function"
    }
  ],
  "bytecode": "0x60806040526103e86014806101000a8154816bffffffffffffffffffffffff02191690836bffffffffffffffffffffffff1602179055503480156200004357600080fd5b5060405162006a1b38038062006a1b8339818101604052810190620000699190620008ba565b6040518060400160405280601681526020017f43727970746f5469636b6574734d617463684e465473000000000000000000008152506040518060400160405280600581526020017f43544b4d4e0000000000000000000000000000000000000000000000000000008152508160009081620000e6919062000b66565b508060019081620000f8919062000b66565b5050506000600b60006101000a81548160ff02191690831515021790555080600f60006101000a81548173ffffffffffffffffffffffffffffffffffffffff021916908373ffffffffffffffffffffffffffffffffffffffff1602179055506200016c6000801b33620001cf60201b60201c565b6200019e7f9894090c012e113e817b2d99a7f6ad3e666491f10820f12b8bc4b139f2ea06bb33620001cf60201b60201c565b620001c83360148054906101000a90046bffffffffffffffffffffffff16620002c160201b60201c565b50620010f4565b620001e18282620002ed60201b60201c565b620002bd576001600c600084815260200190815260200160002060000160008373ffffffffffffffffffffffffffffffffffffffff1673ffffffffffffffffffffffffffffffffffffffff16815260200190815260200160002060006101000a81548160ff021916908315150217905550620002626200035860201b60201c565b73ffffffffffffffffffffffffffffffffffffffff168173ffffffffffffffffffffffffffffffffffffffff16837f2f8788117e7eff1d82e926ec794901d17c78024a50270940304540a733656f0d60405160405180910390a45b5050565b6000801b620002d6816200036060201b60201c565b620002e883836200038460201b60201c565b505050565b6000600c600084815260200190815260200160002060000160008373ffffffffffffffffffffffffffffffffffffffff1673ffffffffffffffffffffffffffffffffffffffff16815260200190815260200160002060009054906101000a900460ff16905092915050565b600033905090565b6200038181620003756200035860201b60201c565b6200052760201b60201c565b50565b62000394620005eb60201b60201c565b6bffffffffffffffffffffffff16816bffffffffffffffffffffffff161115620003f5576040517f08c379a0000000000000000000000000000000000000000000000000000000008152600401620003ec9062000cd4565b60405180910390fd5b600073ffffffffffffffffffffffffffffffffffffffff168273ffffffffffffffffffffffffffffffffffffffff160362000467576040517f08c379a00000000000000000000000000000000000000000000000000000000081526004016200045e9062000d46565b60405180910390fd5b60405180604001604052808373ffffffffffffffffffffffffffffffffffffffff168152602001826bffffffffffffffffffffffff16815250600d60008201518160000160006101000a81548173ffffffffffffffffffffffffffffffffffffffff021916908373ffffffffffffffffffffffffffffffffffffffff16021790555060208201518160000160146101000a8154816bffffffffffffffffffffffff02191690836bffffffffffffffffffffffff1602179055509050505050565b620005398282620002ed60201b60201c565b620005e7576200056c8173ffffffffffffffffffffffffffffffffffffffff166014620005f560201b62001a8c1760201c565b620005878360001c6020620005f560201b62001a8c1760201c565b6040516020016200059a92919062000e80565b6040516020818303038152906040526040517f08c379a0000000000000000000000000000000000000000000000000000000008152600401620005de919062000f14565b60405180910390fd5b5050565b6000612710905090565b6060600060028360026200060a919062000f67565b62000616919062000fc8565b67ffffffffffffffff811115620006325762000631620008f7565b5b6040519080825280601f01601f191660200182016040528015620006655781602001600182028036833780820191505090505b5090507f300000000000000000000000000000000000000000000000000000000000000081600081518110620006a0576200069f62001025565b5b60200101907effffffffffffffffffffffffffffffffffffffffffffffffffffffffffffff1916908160001a9053507f78000000000000000000000000000000000000000000000000000000000000008160018151811062000707576200070662001025565b5b60200101907effffffffffffffffffffffffffffffffffffffffffffffffffffffffffffff1916908160001a9053506000600184600262000749919062000f67565b62000755919062000fc8565b90505b6001811115620007ff577f3031323334353637383961626364656600000000000000000000000000000000600f8616601081106200079b576200079a62001025565b5b1a60f81b828281518110620007b557620007b462001025565b5b60200101907effffffffffffffffffffffffffffffffffffffffffffffffffffffffffffff1916908160001a905350600485901c945080620007f79062001054565b905062000758565b506000841462000846576040517f08c379a00000000000000000000000000000000000000000000000000000000081526004016200083d90620010d2565b60405180910390fd5b8091505092915050565b600080fd5b600073ffffffffffffffffffffffffffffffffffffffff82169050919050565b6000620008828262000855565b9050919050565b620008948162000875565b8114620008a057600080fd5b50565b600081519050620008b48162000889565b92915050565b600060208284031215620008d357620008d262000850565b5b6000620008e384828501620008a3565b91505092915050565b600081519050919050565b7f4e487b7100000000000000000000000000000000000000000000000000000000600052604160045260246000fd5b7f4e487b7100000000000000000000000000000000000000000000000000000000600052602260045260246000fd5b600060028204905060018216806200096e57607f821691505b60208210810362000984576200098362000926565b5b50919050565b60008190508160005260206000209050919050565b60006020601f8301049050919050565b600082821b905092915050565b600060088302620009ee7fffffffffffffffffffffffffffffffffffffffffffffffffffffffffffffffff82620009af565b620009fa8683620009af565b95508019841693508086168417925050509392505050565b6000819050919050565b6000819050919050565b600062000a4762000a4162000a3b8462000a12565b62000a1c565b62000a12565b9050919050565b6000819050919050565b62000a638362000a26565b62000a7b62000a728262000a4e565b848454620009bc565b825550505050565b600090565b62000a9262000a83565b62000a9f81848462000a58565b505050565b5b8181101562000ac75762000abb60008262000a88565b60018101905062000aa5565b5050565b601f82111562000b165762000ae0816200098a565b62000aeb846200099f565b8101602085101562000afb578190505b62000b1362000b0a856200099f565b83018262000aa4565b50505b505050565b600082821c905092915050565b600062000b3b6000198460080262000b1b565b1980831691505092915050565b600062000b56838362000b28565b9150826002028217905092915050565b62000b7182620008ec565b67ffffffffffffffff81111562000b8d5762000b8c620008f7565b5b62000b99825462000955565b62000ba682828562000acb565b600060209050601f83116001811462000bde576000841562000bc9578287015190505b62000bd5858262000b48565b86555062000c45565b601f19841662000bee866200098a565b60005b8281101562000c185784890151825560018201915060208501945060208101905062000bf1565b8683101562000c38578489015162000c34601f89168262000b28565b8355505b6001600288020188555050505b505050505050565b600082825260208201905092915050565b7f455243323938313a20726f79616c7479206665652077696c6c2065786365656460008201527f2073616c65507269636500000000000000000000000000000000000000000000602082015250565b600062000cbc602a8362000c4d565b915062000cc98262000c5e565b604082019050919050565b6000602082019050818103600083015262000cef8162000cad565b9050919050565b7f455243323938313a20696e76616c696420726563656976657200000000000000600082015250565b600062000d2e60198362000c4d565b915062000d3b8262000cf6565b602082019050919050565b6000602082019050818103600083015262000d618162000d1f565b9050919050565b600081905092915050565b7f416363657373436f6e74726f6c3a206163636f756e7420000000000000000000600082015250565b600062000dab60178362000d68565b915062000db88262000d73565b601782019050919050565b60005b8381101562000de357808201518184015260208101905062000dc6565b8381111562000df3576000848401525b50505050565b600062000e0682620008ec565b62000e12818562000d68565b935062000e2481856020860162000dc3565b80840191505092915050565b7f206973206d697373696e6720726f6c6520000000000000000000000000000000600082015250565b600062000e6860118362000d68565b915062000e758262000e30565b601182019050919050565b600062000e8d8262000d9c565b915062000e9b828562000df9565b915062000ea88262000e59565b915062000eb6828462000df9565b91508190509392505050565b6000601f19601f8301169050919050565b600062000ee082620008ec565b62000eec818562000c4d565b935062000efe81856020860162000dc3565b62000f098162000ec2565b840191505092915050565b6000602082019050818103600083015262000f30818462000ed3565b905092915050565b7f4e487b7100000000000000000000000000000000000000000000000000000000600052601160045260246000fd5b600062000f748262000a12565b915062000f818362000a12565b9250817fffffffffffffffffffffffffffffffffffffffffffffffffffffffffffffffff048311821515161562000fbd5762000fbc62000f38565b5b828202905092915050565b600062000fd58262000a12565b915062000fe28362000a12565b9250827fffffffffffffffffffffffffffffffffffffffffffffffffffffffffffffffff038211156200101a576200101962000f38565b5b828201905092915050565b7f4e487b7100000000000000000000000000000000000000000000000000000000600052603260045260246000fd5b6000620010618262000a12565b91506000820362001077576200107662000f38565b5b600182039050919050565b7f537472696e67733a20686578206c656e67746820696e73756666696369656e74600082015250565b6000620010ba60208362000c4d565b9150620010c78262001082565b602082019050919050565b60006020820190508181036000830152620010ed81620010ab565b9050919050565b61591780620011046000396000f3fe608060405234801561001057600080fd5b50600436106102695760003560e01c80634f6ccce711610151578063a217fddf116100c3578063c87b56dd11610087578063c87b56dd1461076b578063cd08dbb21461079b578063d547741f146107b7578063e8a3d485146107d3578063e985e9c5146107f1578063fe5a06661461082157610269565b8063a217fddf146106dd578063a22cb465146106fb578063a476b73d14610717578063a9f16f3e14610733578063b88d4fde1461074f57610269565b80637367c0d0116101155780637367c0d0146106095780638456cb591461062557806391d148541461062f57806395d89b411461065f5780639749afc31461067d5780639b6dd9ae146106ad57610269565b80634f6ccce71461053f578063504761171461056f5780635c975abb1461058b5780636352211e146105a957806370a08231146105d957610269565b8063248a9ca3116101ea57806336568abe116101ae57806336568abe146104a55780633bf08451146104c15780633f4ba83a146104df57806342842e0e146104e957806342966c68146105055780634f2a36ab1461052157610269565b8063248a9ca3146103c85780632a55205a146103f85780632f2ff15d146104295780632f745c591461044557806330a254a51461047557610269565b8063095ea7b311610231578063095ea7b3146103385780630efd0973146103545780631355e5171461037257806318160ddd1461038e57806323b872dd146103ac57610269565b806301ffc9a71461026e57806302fa7c471461029e5780630309aca3146102ba57806306fdde03146102ea578063081812fc14610308575b600080fd5b61028860048036038101906102839190613a35565b61083d565b6040516102959190613a7d565b60405180910390f35b6102b860048036038101906102b39190613b3a565b61084f565b005b6102d460048036038101906102cf9190613b7a565b61086b565b6040516102e19190613bc0565b60405180910390f35b6102f2610900565b6040516102ff9190613c74565b60405180910390f35b610322600480360381019061031d9190613cc2565b610992565b60405161032f9190613cfe565b60405180910390f35b610352600480360381019061034d9190613d19565b610a17565b005b61035c610b2e565b6040516103699190613d7a565b60405180910390f35b61038c60048036038101906103879190613b7a565b610b54565b005b610396610bc8565b6040516103a39190613bc0565b60405180910390f35b6103c660048036038101906103c19190613d95565b610bd5565b005b6103e260048036038101906103dd9190613e1e565b610c35565b6040516103ef9190613e5a565b60405180910390f35b610412600480360381019061040d9190613e75565b610c55565b604051610420929190613eb5565b60405180910390f35b610443600480360381019061043e9190613ede565b610e3f565b005b61045f600480360381019061045a9190613d19565b610e60565b60405161046c9190613bc0565b60405180910390f35b61048f600480360381019061048a9190613cc2565b610f05565b60405161049c9190613bc0565b60405180910390f35b6104bf60048036038101906104ba9190613ede565b610f22565b005b6104c9610fa5565b6040516104d69190613e5a565b60405180910390f35b6104e7610fc9565b005b61050360048036038101906104fe9190613d95565b610ffe565b005b61051f600480360381019061051a9190613cc2565b61101e565b005b61052961107a565b6040516105369190613fdc565b60405180910390f35b61055960048036038101906105549190613cc2565b611108565b6040516105669190613bc0565b60405180910390f35b61058960048036038101906105849190613b7a565b611179565b005b610593611241565b6040516105a09190613a7d565b60405180910390f35b6105c360048036038101906105be9190613cc2565b611258565b6040516105d09190613cfe565b60405180910390f35b6105f360048036038101906105ee9190613b7a565b611309565b6040516106009190613bc0565b60405180910390f35b610623600480360381019061061e9190613b7a565b6113c0565b005b61062d6113de565b005b61064960048036038101906106449190613ede565b611413565b6040516106569190613a7d565b60405180910390f35b61066761147e565b6040516106749190613c74565b60405180910390f35b61069760048036038101906106929190613cc2565b611510565b6040516106a49190613bc0565b60405180910390f35b6106c760048036038101906106c29190613cc2565b611528565b6040516106d49190613cfe565b60405180910390f35b6106e5611567565b6040516106f29190613e5a565b60405180910390f35b6107156004803603810190610710919061402a565b61156e565b005b610731600480360381019061072c9190613cc2565b611584565b005b61074d6004803603810190610748919061419f565b61161d565b005b610769600480360381019061076491906142c3565b611777565b005b61078560048036038101906107809190613cc2565b6117d9565b6040516107929190613c74565b60405180910390f35b6107b560048036038101906107b09190613b7a565b6117eb565b005b6107d160048036038101906107cc9190613ede565b6118ef565b005b6107db611910565b6040516107e89190613c74565b60405180910390f35b61080b60048036038101906108069190614346565b611930565b6040516108189190613a7d565b60405180910390f35b61083b60048036038101906108369190613b7a565b6119c4565b005b600061084882611cc8565b9050919050565b6000801b61085c81611d42565b6108668383611d56565b505050565b600080600090505b8273ffffffffffffffffffffffffffffffffffffffff166012828154811061089e5761089d614386565b5b9060005260206000200160009054906101000a900473ffffffffffffffffffffffffffffffffffffffff1673ffffffffffffffffffffffffffffffffffffffff16146108f75780806108ef906143e4565b915050610873565b80915050919050565b60606000805461090f9061445b565b80601f016020809104026020016040519081016040528092919081815260200182805461093b9061445b565b80156109885780601f1061095d57610100808354040283529160200191610988565b820191906000526020600020905b81548152906001019060200180831161096b57829003601f168201915b5050505050905090565b600061099d82611eeb565b6109dc576040517f08c379a00000000000000000000000000000000000000000000000000000000081526004016109d3906144fe565b60405180910390fd5b6004600083815260200190815260200160002060009054906101000a900473ffffffffffffffffffffffffffffffffffffffff169050919050565b6000610a2282611258565b90508073ffffffffffffffffffffffffffffffffffffffff168373ffffffffffffffffffffffffffffffffffffffff1603610a92576040517f08c379a0000000000000000000000000000000000000000000000000000000008152600401610a8990614590565b60405180910390fd5b8073ffffffffffffffffffffffffffffffffffffffff16610ab1611f57565b73ffffffffffffffffffffffffffffffffffffffff161480610ae05750610adf81610ada611f57565b611930565b5b610b1f576040517f08c379a0000000000000000000000000000000000000000000000000000000008152600401610b1690614622565b60405180910390fd5b610b298383611f5f565b505050565b601460009054906101000a900473ffffffffffffffffffffffffffffffffffffffff1681565b6000801b610b6181611d42565b6012829080600181540180825580915050600190039060005260206000200160009091909190916101000a81548173ffffffffffffffffffffffffffffffffffffffff021916908373ffffffffffffffffffffffffffffffffffffffff1602179055505050565b6000600880549050905090565b610be6610be0611f57565b82612018565b610c25576040517f08c379a0000000000000000000000000000000000000000000000000000000008152600401610c1c906146b4565b60405180910390fd5b610c308383836120f6565b505050565b6000600c6000838152602001908152602001600020600101549050919050565b6000806000600e60008681526020019081526020016000206040518060400160405290816000820160009054906101000a900473ffffffffffffffffffffffffffffffffffffffff1673ffffffffffffffffffffffffffffffffffffffff1673ffffffffffffffffffffffffffffffffffffffff1681526020016000820160149054906101000a90046bffffffffffffffffffffffff166bffffffffffffffffffffffff166bffffffffffffffffffffffff16815250509050600073ffffffffffffffffffffffffffffffffffffffff16816000015173ffffffffffffffffffffffffffffffffffffffff1603610dea57600d6040518060400160405290816000820160009054906101000a900473ffffffffffffffffffffffffffffffffffffffff1673ffffffffffffffffffffffffffffffffffffffff1673ffffffffffffffffffffffffffffffffffffffff1681526020016000820160149054906101000a90046bffffffffffffffffffffffff166bffffffffffffffffffffffff166bffffffffffffffffffffffff168152505090505b6000610df461235c565b6bffffffffffffffffffffffff1682602001516bffffffffffffffffffffffff1686610e2091906146d4565b610e2a919061475d565b90508160000151819350935050509250929050565b610e4882610c35565b610e5181611d42565b610e5b8383612366565b505050565b6000610e6b83611309565b8210610eac576040517f08c379a0000000000000000000000000000000000000000000000000000000008152600401610ea390614800565b60405180910390fd5b600660008473ffffffffffffffffffffffffffffffffffffffff1673ffffffffffffffffffffffffffffffffffffffff168152602001908152602001600020600083815260200190815260200160002054905092915050565b600060136000838152602001908152602001600020549050919050565b610f2a611f57565b73ffffffffffffffffffffffffffffffffffffffff168173ffffffffffffffffffffffffffffffffffffffff1614610f97576040517f08c379a0000000000000000000000000000000000000000000000000000000008152600401610f8e90614892565b60405180910390fd5b610fa18282612447565b5050565b7f9894090c012e113e817b2d99a7f6ad3e666491f10820f12b8bc4b139f2ea06bb81565b7f9894090c012e113e817b2d99a7f6ad3e666491f10820f12b8bc4b139f2ea06bb610ff381611d42565b610ffb612529565b50565b61101983838360405180602001604052806000815250611777565b505050565b61102f611029611f57565b82612018565b61106e576040517f08c379a000000000000000000000000000000000000000000000000000000000815260040161106590614924565b60405180910390fd5b611077816125cb565b50565b606060128054806020026020016040519081016040528092919081815260200182805480156110fe57602002820191906000526020600020905b8160009054906101000a900473ffffffffffffffffffffffffffffffffffffffff1673ffffffffffffffffffffffffffffffffffffffff16815260200190600101908083116110b4575b5050505050905090565b6000611112610bc8565b8210611153576040517f08c379a000000000000000000000000000000000000000000000000000000000815260040161114a906149b6565b60405180910390fd5b6008828154811061116757611166614386565b5b90600052602060002001549050919050565b6000801b61118681611d42565b6111b07f9894090c012e113e817b2d99a7f6ad3e666491f10820f12b8bc4b139f2ea06bb83612366565b600f60009054906101000a900473ffffffffffffffffffffffffffffffffffffffff1673ffffffffffffffffffffffffffffffffffffffff16637367c0d0836040518263ffffffff1660e01b815260040161120b9190613cfe565b600060405180830381600087803b15801561122557600080fd5b505af1158015611239573d6000803e3d6000fd5b505050505050565b6000600b60009054906101000a900460ff16905090565b6000806002600084815260200190815260200160002060009054906101000a900473ffffffffffffffffffffffffffffffffffffffff169050600073ffffffffffffffffffffffffffffffffffffffff168173ffffffffffffffffffffffffffffffffffffffff1603611300576040517f08c379a00000000000000000000000000000000000000000000000000000000081526004016112f790614a48565b60405180910390fd5b80915050919050565b60008073ffffffffffffffffffffffffffffffffffffffff168273ffffffffffffffffffffffffffffffffffffffff1603611379576040517f08c379a000000000000000000000000000000000000000000000000000000000815260040161137090614ada565b60405180910390fd5b600360008373ffffffffffffffffffffffffffffffffffffffff1673ffffffffffffffffffffffffffffffffffffffff168152602001908152602001600020549050919050565b6000801b6113cd81611d42565b6113da6000801b83612366565b5050565b7f9894090c012e113e817b2d99a7f6ad3e666491f10820f12b8bc4b139f2ea06bb61140881611d42565b6114106125d7565b50565b6000600c600084815260200190815260200160002060000160008373ffffffffffffffffffffffffffffffffffffffff1673ffffffffffffffffffffffffffffffffffffffff16815260200190815260200160002060009054906101000a900460ff16905092915050565b60606001805461148d9061445b565b80601f01602080910402602001604051908101604052809291908181526020018280546114b99061445b565b80156115065780601f106114db57610100808354040283529160200191611506565b820191906000526020600020905b8154815290600101906020018083116114e957829003601f168201915b5050505050905090565b60136020528060005260406000206000915090505481565b6012818154811061153857600080fd5b906000526020600020016000915054906101000a900473ffffffffffffffffffffffffffffffffffffffff1681565b6000801b81565b611580611579611f57565b838361267a565b5050565b61158d816125cb565b600f60009054906101000a900473ffffffffffffffffffffffffffffffffffffffff1673ffffffffffffffffffffffffffffffffffffffff16636ed2c6cf336040518263ffffffff1660e01b81526004016115e89190613cfe565b600060405180830381600087803b15801561160257600080fd5b505af1158015611616573d6000803e3d6000fd5b5050505050565b7f9894090c012e113e817b2d99a7f6ad3e666491f10820f12b8bc4b139f2ea06bb61164781611d42565b83601280549050601360008881526020019081526020016000205461166c9190614afa565b106116ac576040517f08c379a00000000000000000000000000000000000000000000000000000000081526004016116a390614b9c565b60405180910390fd5b60006013600087815260200190815260200160002054905060005b60128054905081101561173f5761171e601282815481106116eb576116ea614386565b5b9060005260206000200160009054906101000a900473ffffffffffffffffffffffffffffffffffffffff168684876127e6565b8180611729906143e4565b9250508080611737906143e4565b9150506116c7565b506012805490506013600088815260200190815260200160002060008282546117689190614afa565b92505081905550505050505050565b611788611782611f57565b83612018565b6117c7576040517f08c379a00000000000000000000000000000000000000000000000000000000081526004016117be906146b4565b60405180910390fd5b6117d38484848461284d565b50505050565b60606117e4826128a9565b9050919050565b60006117f68261086b565b90506012600160128054905061180c9190614bbc565b8154811061181d5761181c614386565b5b9060005260206000200160009054906101000a900473ffffffffffffffffffffffffffffffffffffffff166012828154811061185c5761185b614386565b5b9060005260206000200160006101000a81548173ffffffffffffffffffffffffffffffffffffffff021916908373ffffffffffffffffffffffffffffffffffffffff16021790555060128054806118b6576118b5614bf0565b5b6001900381819060005260206000200160006101000a81549073ffffffffffffffffffffffffffffffffffffffff021916905590555050565b6118f882610c35565b61190181611d42565b61190b8383612447565b505050565b606060405180608001604052806051815260200161589160519139905090565b6000600560008473ffffffffffffffffffffffffffffffffffffffff1673ffffffffffffffffffffffffffffffffffffffff16815260200190815260200160002060008373ffffffffffffffffffffffffffffffffffffffff1673ffffffffffffffffffffffffffffffffffffffff16815260200190815260200160002060009054906101000a900460ff16905092915050565b6000801b6119d181611d42565b6119fb7f9894090c012e113e817b2d99a7f6ad3e666491f10820f12b8bc4b139f2ea06bb83612447565b600f60009054906101000a900473ffffffffffffffffffffffffffffffffffffffff1673ffffffffffffffffffffffffffffffffffffffff166376ad43b7836040518263ffffffff1660e01b8152600401611a569190613cfe565b600060405180830381600087803b158015611a7057600080fd5b505af1158015611a84573d6000803e3d6000fd5b505050505050565b606060006002836002611a9f91906146d4565b611aa99190614afa565b67ffffffffffffffff811115611ac257611ac1614074565b5b6040519080825280601f01601f191660200182016040528015611af45781602001600182028036833780820191505090505b5090507f300000000000000000000000000000000000000000000000000000000000000081600081518110611b2c57611b2b614386565b5b60200101907effffffffffffffffffffffffffffffffffffffffffffffffffffffffffffff1916908160001a9053507f780000000000000000000000000000000000000000000000000000000000000081600181518110611b9057611b8f614386565b5b60200101907effffffffffffffffffffffffffffffffffffffffffffffffffffffffffffff1916908160001a90535060006001846002611bd091906146d4565b611bda9190614afa565b90505b6001811115611c7a577f3031323334353637383961626364656600000000000000000000000000000000600f861660108110611c1c57611c1b614386565b5b1a60f81b828281518110611c3357611c32614386565b5b60200101907effffffffffffffffffffffffffffffffffffffffffffffffffffffffffffff1916908160001a905350600485901c945080611c7390614c1f565b9050611bdd565b5060008414611cbe576040517f08c379a0000000000000000000000000000000000000000000000000000000008152600401611cb590614c94565b60405180910390fd5b8091505092915050565b60007f2a55205a000000000000000000000000000000000000000000000000000000007bffffffffffffffffffffffffffffffffffffffffffffffffffffffff1916827bffffffffffffffffffffffffffffffffffffffffffffffffffffffff19161480611d3b5750611d3a826129fa565b5b9050919050565b611d5381611d4e611f57565b612a74565b50565b611d5e61235c565b6bffffffffffffffffffffffff16816bffffffffffffffffffffffff161115611dbc576040517f08c379a0000000000000000000000000000000000000000000000000000000008152600401611db390614d26565b60405180910390fd5b600073ffffffffffffffffffffffffffffffffffffffff168273ffffffffffffffffffffffffffffffffffffffff1603611e2b576040517f08c379a0000000000000000000000000000000000000000000000000000000008152600401611e2290614d92565b60405180910390fd5b60405180604001604052808373ffffffffffffffffffffffffffffffffffffffff168152602001826bffffffffffffffffffffffff16815250600d60008201518160000160006101000a81548173ffffffffffffffffffffffffffffffffffffffff021916908373ffffffffffffffffffffffffffffffffffffffff16021790555060208201518160000160146101000a8154816bffffffffffffffffffffffff02191690836bffffffffffffffffffffffff1602179055509050505050565b60008073ffffffffffffffffffffffffffffffffffffffff166002600084815260200190815260200160002060009054906101000a900473ffffffffffffffffffffffffffffffffffffffff1673ffffffffffffffffffffffffffffffffffffffff1614159050919050565b600033905090565b816004600083815260200190815260200160002060006101000a81548173ffffffffffffffffffffffffffffffffffffffff021916908373ffffffffffffffffffffffffffffffffffffffff160217905550808273ffffffffffffffffffffffffffffffffffffffff16611fd283611258565b73ffffffffffffffffffffffffffffffffffffffff167f8c5be1e5ebec7d5bd14f71427d1e84f3dd0314c0f7b2291e5b200ac8c7c3b92560405160405180910390a45050565b600061202382611eeb565b612062576040517f08c379a000000000000000000000000000000000000000000000000000000000815260040161205990614e24565b60405180910390fd5b600061206d83611258565b90508073ffffffffffffffffffffffffffffffffffffffff168473ffffffffffffffffffffffffffffffffffffffff1614806120af57506120ae8185611930565b5b806120ed57508373ffffffffffffffffffffffffffffffffffffffff166120d584610992565b73ffffffffffffffffffffffffffffffffffffffff16145b91505092915050565b8273ffffffffffffffffffffffffffffffffffffffff1661211682611258565b73ffffffffffffffffffffffffffffffffffffffff161461216c576040517f08c379a000000000000000000000000000000000000000000000000000000000815260040161216390614eb6565b60405180910390fd5b600073ffffffffffffffffffffffffffffffffffffffff168273ffffffffffffffffffffffffffffffffffffffff16036121db576040517f08c379a00000000000000000000000000000000000000000000000000000000081526004016121d290614f48565b60405180910390fd5b6121e6838383612b11565b6121f1600082611f5f565b6001600360008573ffffffffffffffffffffffffffffffffffffffff1673ffffffffffffffffffffffffffffffffffffffff16815260200190815260200160002060008282546122419190614bbc565b925050819055506001600360008473ffffffffffffffffffffffffffffffffffffffff1673ffffffffffffffffffffffffffffffffffffffff16815260200190815260200160002060008282546122989190614afa565b92505081905550816002600083815260200190815260200160002060006101000a81548173ffffffffffffffffffffffffffffffffffffffff021916908373ffffffffffffffffffffffffffffffffffffffff160217905550808273ffffffffffffffffffffffffffffffffffffffff168473ffffffffffffffffffffffffffffffffffffffff167fddf252ad1be2c89b69c2b068fc378daa952ba7f163c4a11628f55a4df523b3ef60405160405180910390a4612357838383612b69565b505050565b6000612710905090565b6123708282611413565b612443576001600c600084815260200190815260200160002060000160008373ffffffffffffffffffffffffffffffffffffffff1673ffffffffffffffffffffffffffffffffffffffff16815260200190815260200160002060006101000a81548160ff0219169083151502179055506123e8611f57565b73ffffffffffffffffffffffffffffffffffffffff168173ffffffffffffffffffffffffffffffffffffffff16837f2f8788117e7eff1d82e926ec794901d17c78024a50270940304540a733656f0d60405160405180910390a45b5050565b6124518282611413565b15612525576000600c600084815260200190815260200160002060000160008373ffffffffffffffffffffffffffffffffffffffff1673ffffffffffffffffffffffffffffffffffffffff16815260200190815260200160002060006101000a81548160ff0219169083151502179055506124ca611f57565b73ffffffffffffffffffffffffffffffffffffffff168173ffffffffffffffffffffffffffffffffffffffff16837ff6391f5c32d9c69d2a47ea670b442974b53935d1edc7fd64eb21e047a839171b60405160405180910390a45b5050565b612531611241565b612570576040517f08c379a000000000000000000000000000000000000000000000000000000000815260040161256790614fb4565b60405180910390fd5b6000600b60006101000a81548160ff0219169083151502179055507f5db9ee0a495bf2e6ff9c91a7834c1ba4fdd244a5e8aa4e537bd38aeae4b073aa6125b4611f57565b6040516125c19190613cfe565b60405180910390a1565b6125d481612b6e565b50565b6125df611241565b1561261f576040517f08c379a000000000000000000000000000000000000000000000000000000000815260040161261690615020565b60405180910390fd5b6001600b60006101000a81548160ff0219169083151502179055507f62e78cea01bee320cd4e420270b5ea74000d11b0c9f74754ebdbfc544b05a258612663611f57565b6040516126709190613cfe565b60405180910390a1565b8173ffffffffffffffffffffffffffffffffffffffff168373ffffffffffffffffffffffffffffffffffffffff16036126e8576040517f08c379a00000000000000000000000000000000000000000000000000000000081526004016126df9061508c565b60405180910390fd5b80600560008573ffffffffffffffffffffffffffffffffffffffff1673ffffffffffffffffffffffffffffffffffffffff16815260200190815260200160002060008473ffffffffffffffffffffffffffffffffffffffff1673ffffffffffffffffffffffffffffffffffffffff16815260200190815260200160002060006101000a81548160ff0219169083151502179055508173ffffffffffffffffffffffffffffffffffffffff168373ffffffffffffffffffffffffffffffffffffffff167f17307eab39ab6107e8899845ad3d59bd9653f200f220920489ca2b5937696c31836040516127d99190613a7d565b60405180910390a3505050565b60006127f26010612bc1565b90506127fe6010612bcf565b6128088582612be5565b6128468185612821858761281c91906150ac565b612c03565b604051602001612832929190615119565b604051602081830303815290604052612d63565b5050505050565b6128588484846120f6565b61286484848484612dd0565b6128a3576040517f08c379a000000000000000000000000000000000000000000000000000000000815260040161289a906151af565b60405180910390fd5b50505050565b60606128b482611eeb565b6128f3576040517f08c379a00000000000000000000000000000000000000000000000000000000081526004016128ea90615241565b60405180910390fd5b6000600a600084815260200190815260200160002080546129139061445b565b80601f016020809104026020016040519081016040528092919081815260200182805461293f9061445b565b801561298c5780601f106129615761010080835404028352916020019161298c565b820191906000526020600020905b81548152906001019060200180831161296f57829003601f168201915b50505050509050600061299d612f57565b905060008151036129b25781925050506129f5565b6000825111156129e75780826040516020016129cf929190615119565b604051602081830303815290604052925050506129f5565b6129f084612f6e565b925050505b919050565b60007f7965db0b000000000000000000000000000000000000000000000000000000007bffffffffffffffffffffffffffffffffffffffffffffffffffffffff1916827bffffffffffffffffffffffffffffffffffffffffffffffffffffffff19161480612a6d5750612a6c82613015565b5b9050919050565b612a7e8282611413565b612b0d57612aa38173ffffffffffffffffffffffffffffffffffffffff166014611a8c565b612ab18360001c6020611a8c565b604051602001612ac29291906152f9565b6040516020818303038152906040526040517f08c379a0000000000000000000000000000000000000000000000000000000008152600401612b049190613c74565b60405180910390fd5b5050565b612b19611241565b15612b59576040517f08c379a0000000000000000000000000000000000000000000000000000000008152600401612b5090615020565b60405180910390fd5b612b6483838361308f565b505050565b505050565b612b77816131a1565b6000600a60008381526020019081526020016000208054612b979061445b565b905014612bbe57600a60008281526020019081526020016000206000612bbd919061396c565b5b50565b600081600001549050919050565b6001816000016000828254019250508190555050565b612bff8282604051806020016040528060008152506132be565b5050565b606060008203612c4a576040518060400160405280600181526020017f30000000000000000000000000000000000000000000000000000000000000008152509050612d5e565b600082905060005b60008214612c7c578080612c65906143e4565b915050600a82612c75919061475d565b9150612c52565b60008167ffffffffffffffff811115612c9857612c97614074565b5b6040519080825280601f01601f191660200182016040528015612cca5781602001600182028036833780820191505090505b5090505b60008514612d5757600182612ce39190614bbc565b9150600a85612cf291906150ac565b6030612cfe9190614afa565b60f81b818381518110612d1457612d13614386565b5b60200101907effffffffffffffffffffffffffffffffffffffffffffffffffffffffffffff1916908160001a905350600a85612d50919061475d565b9450612cce565b8093505050505b919050565b612d6c82611eeb565b612dab576040517f08c379a0000000000000000000000000000000000000000000000000000000008152600401612da2906153a5565b60405180910390fd5b80600a60008481526020019081526020016000209081612dcb9190615571565b505050565b6000612df18473ffffffffffffffffffffffffffffffffffffffff16613319565b15612f4a578373ffffffffffffffffffffffffffffffffffffffff1663150b7a02612e1a611f57565b8786866040518563ffffffff1660e01b8152600401612e3c9493929190615698565b6020604051808303816000875af1925050508015612e7857506040513d601f19601f82011682018060405250810190612e7591906156f9565b60015b612efa573d8060008114612ea8576040519150601f19603f3d011682016040523d82523d6000602084013e612ead565b606091505b506000815103612ef2576040517f08c379a0000000000000000000000000000000000000000000000000000000008152600401612ee9906151af565b60405180910390fd5b805181602001fd5b63150b7a0260e01b7bffffffffffffffffffffffffffffffffffffffffffffffffffffffff1916817bffffffffffffffffffffffffffffffffffffffffffffffffffffffff191614915050612f4f565b600190505b949350505050565b606060405180602001604052806000815250905090565b6060612f7982611eeb565b612fb8576040517f08c379a0000000000000000000000000000000000000000000000000000000008152600401612faf90615798565b60405180910390fd5b6000612fc2612f57565b90506000815111612fe2576040518060200160405280600081525061300d565b80612fec84612c03565b604051602001612ffd929190615119565b6040516020818303038152906040525b915050919050565b60007f780e9d63000000000000000000000000000000000000000000000000000000007bffffffffffffffffffffffffffffffffffffffffffffffffffffffff1916827bffffffffffffffffffffffffffffffffffffffffffffffffffffffff1916148061308857506130878261333c565b5b9050919050565b61309a83838361341e565b600073ffffffffffffffffffffffffffffffffffffffff168373ffffffffffffffffffffffffffffffffffffffff16036130dc576130d781613423565b61311b565b8173ffffffffffffffffffffffffffffffffffffffff168373ffffffffffffffffffffffffffffffffffffffff161461311a57613119838261346c565b5b5b600073ffffffffffffffffffffffffffffffffffffffff168273ffffffffffffffffffffffffffffffffffffffff160361315d57613158816135d9565b61319c565b8273ffffffffffffffffffffffffffffffffffffffff168273ffffffffffffffffffffffffffffffffffffffff161461319b5761319a82826136aa565b5b5b505050565b60006131ac82611258565b90506131ba81600084612b11565b6131c5600083611f5f565b6001600360008373ffffffffffffffffffffffffffffffffffffffff1673ffffffffffffffffffffffffffffffffffffffff16815260200190815260200160002060008282546132159190614bbc565b925050819055506002600083815260200190815260200160002060006101000a81549073ffffffffffffffffffffffffffffffffffffffff021916905581600073ffffffffffffffffffffffffffffffffffffffff168273ffffffffffffffffffffffffffffffffffffffff167fddf252ad1be2c89b69c2b068fc378daa952ba7f163c4a11628f55a4df523b3ef60405160405180910390a46132ba81600084612b69565b5050565b6132c88383613729565b6132d56000848484612dd0565b613314576040517f08c379a000000000000000000000000000000000000000000000000000000000815260040161330b906151af565b60405180910390fd5b505050565b6000808273ffffffffffffffffffffffffffffffffffffffff163b119050919050565b60007f80ac58cd000000000000000000000000000000000000000000000000000000007bffffffffffffffffffffffffffffffffffffffffffffffffffffffff1916827bffffffffffffffffffffffffffffffffffffffffffffffffffffffff1916148061340757507f5b5e139f000000000000000000000000000000000000000000000000000000007bffffffffffffffffffffffffffffffffffffffffffffffffffffffff1916827bffffffffffffffffffffffffffffffffffffffffffffffffffffffff1916145b80613417575061341682613902565b5b9050919050565b505050565b6008805490506009600083815260200190815260200160002081905550600881908060018154018082558091505060019003906000526020600020016000909190919091505550565b6000600161347984611309565b6134839190614bbc565b9050600060076000848152602001908152602001600020549050818114613568576000600660008673ffffffffffffffffffffffffffffffffffffffff1673ffffffffffffffffffffffffffffffffffffffff168152602001908152602001600020600084815260200190815260200160002054905080600660008773ffffffffffffffffffffffffffffffffffffffff1673ffffffffffffffffffffffffffffffffffffffff168152602001908152602001600020600084815260200190815260200160002081905550816007600083815260200190815260200160002081905550505b6007600084815260200190815260200160002060009055600660008573ffffffffffffffffffffffffffffffffffffffff1673ffffffffffffffffffffffffffffffffffffffff16815260200190815260200160002060008381526020019081526020016000206000905550505050565b600060016008805490506135ed9190614bbc565b905060006009600084815260200190815260200160002054905060006008838154811061361d5761361c614386565b5b90600052602060002001549050806008838154811061363f5761363e614386565b5b90600052602060002001819055508160096000838152602001908152602001600020819055506009600085815260200190815260200160002060009055600880548061368e5761368d614bf0565b5b6001900381819060005260206000200160009055905550505050565b60006136b583611309565b905081600660008573ffffffffffffffffffffffffffffffffffffffff1673ffffffffffffffffffffffffffffffffffffffff168152602001908152602001600020600083815260200190815260200160002081905550806007600084815260200190815260200160002081905550505050565b600073ffffffffffffffffffffffffffffffffffffffff168273ffffffffffffffffffffffffffffffffffffffff1603613798576040517f08c379a000000000000000000000000000000000000000000000000000000000815260040161378f90615804565b60405180910390fd5b6137a181611eeb565b156137e1576040517f08c379a00000000000000000000000000000000000000000000000000000000081526004016137d890615870565b60405180910390fd5b6137ed60008383612b11565b6001600360008473ffffffffffffffffffffffffffffffffffffffff1673ffffffffffffffffffffffffffffffffffffffff168152602001908152602001600020600082825461383d9190614afa565b92505081905550816002600083815260200190815260200160002060006101000a81548173ffffffffffffffffffffffffffffffffffffffff021916908373ffffffffffffffffffffffffffffffffffffffff160217905550808273ffffffffffffffffffffffffffffffffffffffff16600073ffffffffffffffffffffffffffffffffffffffff167fddf252ad1be2c89b69c2b068fc378daa952ba7f163c4a11628f55a4df523b3ef60405160405180910390a46138fe60008383612b69565b5050565b60007f01ffc9a7000000000000000000000000000000000000000000000000000000007bffffffffffffffffffffffffffffffffffffffffffffffffffffffff1916827bffffffffffffffffffffffffffffffffffffffffffffffffffffffff1916149050919050565b5080546139789061445b565b6000825580601f1061398a57506139a9565b601f0160209004906000526020600020908101906139a891906139ac565b5b50565b5b808211156139c55760008160009055506001016139ad565b5090565b6000604051905090565b600080fd5b600080fd5b60007fffffffff0000000000000000000000000000000000000000000000000000000082169050919050565b613a12816139dd565b8114613a1d57600080fd5b50565b600081359050613a2f81613a09565b92915050565b600060208284031215613a4b57613a4a6139d3565b5b6000613a5984828501613a20565b91505092915050565b60008115159050919050565b613a7781613a62565b82525050565b6000602082019050613a926000830184613a6e565b92915050565b600073ffffffffffffffffffffffffffffffffffffffff82169050919050565b6000613ac382613a98565b9050919050565b613ad381613ab8565b8114613ade57600080fd5b50565b600081359050613af081613aca565b92915050565b60006bffffffffffffffffffffffff82169050919050565b613b1781613af6565b8114613b2257600080fd5b50565b600081359050613b3481613b0e565b92915050565b60008060408385031215613b5157613b506139d3565b5b6000613b5f85828601613ae1565b9250506020613b7085828601613b25565b9150509250929050565b600060208284031215613b9057613b8f6139d3565b5b6000613b9e84828501613ae1565b91505092915050565b6000819050919050565b613bba81613ba7565b82525050565b6000602082019050613bd56000830184613bb1565b92915050565b600081519050919050565b600082825260208201905092915050565b60005b83811015613c15578082015181840152602081019050613bfa565b83811115613c24576000848401525b50505050565b6000601f19601f8301169050919050565b6000613c4682613bdb565b613c508185613be6565b9350613c60818560208601613bf7565b613c6981613c2a565b840191505092915050565b60006020820190508181036000830152613c8e8184613c3b565b905092915050565b613c9f81613ba7565b8114613caa57600080fd5b50565b600081359050613cbc81613c96565b92915050565b600060208284031215613cd857613cd76139d3565b5b6000613ce684828501613cad565b91505092915050565b613cf881613ab8565b82525050565b6000602082019050613d136000830184613cef565b92915050565b60008060408385031215613d3057613d2f6139d3565b5b6000613d3e85828601613ae1565b9250506020613d4f85828601613cad565b9150509250929050565b6000613d6482613a98565b9050919050565b613d7481613d59565b82525050565b6000602082019050613d8f6000830184613d6b565b92915050565b600080600060608486031215613dae57613dad6139d3565b5b6000613dbc86828701613ae1565b9350506020613dcd86828701613ae1565b9250506040613dde86828701613cad565b9150509250925092565b6000819050919050565b613dfb81613de8565b8114613e0657600080fd5b50565b600081359050613e1881613df2565b92915050565b600060208284031215613e3457613e336139d3565b5b6000613e4284828501613e09565b91505092915050565b613e5481613de8565b82525050565b6000602082019050613e6f6000830184613e4b565b92915050565b60008060408385031215613e8c57613e8b6139d3565b5b6000613e9a85828601613cad565b9250506020613eab85828601613cad565b9150509250929050565b6000604082019050613eca6000830185613cef565b613ed76020830184613bb1565b9392505050565b60008060408385031215613ef557613ef46139d3565b5b6000613f0385828601613e09565b9250506020613f1485828601613ae1565b9150509250929050565b600081519050919050565b600082825260208201905092915050565b6000819050602082019050919050565b613f5381613ab8565b82525050565b6000613f658383613f4a565b60208301905092915050565b6000602082019050919050565b6000613f8982613f1e565b613f938185613f29565b9350613f9e83613f3a565b8060005b83811015613fcf578151613fb68882613f59565b9750613fc183613f71565b925050600181019050613fa2565b5085935050505092915050565b60006020820190508181036000830152613ff68184613f7e565b905092915050565b61400781613a62565b811461401257600080fd5b50565b60008135905061402481613ffe565b92915050565b60008060408385031215614041576140406139d3565b5b600061404f85828601613ae1565b925050602061406085828601614015565b9150509250929050565b600080fd5b600080fd5b7f4e487b7100000000000000000000000000000000000000000000000000000000600052604160045260246000fd5b6140ac82613c2a565b810181811067ffffffffffffffff821117156140cb576140ca614074565b5b80604052505050565b60006140de6139c9565b90506140ea82826140a3565b919050565b600067ffffffffffffffff82111561410a57614109614074565b5b61411382613c2a565b9050602081019050919050565b82818337600083830152505050565b600061414261413d846140ef565b6140d4565b90508281526020810184848401111561415e5761415d61406f565b5b614169848285614120565b509392505050565b600082601f8301126141865761418561406a565b5b813561419684826020860161412f565b91505092915050565b600080600080608085870312156141b9576141b86139d3565b5b60006141c787828801613cad565b94505060206141d887828801613cad565b935050604085013567ffffffffffffffff8111156141f9576141f86139d8565b5b61420587828801614171565b925050606061421687828801613cad565b91505092959194509250565b600067ffffffffffffffff82111561423d5761423c614074565b5b61424682613c2a565b9050602081019050919050565b600061426661426184614222565b6140d4565b9050828152602081018484840111156142825761428161406f565b5b61428d848285614120565b509392505050565b600082601f8301126142aa576142a961406a565b5b81356142ba848260208601614253565b91505092915050565b600080600080608085870312156142dd576142dc6139d3565b5b60006142eb87828801613ae1565b94505060206142fc87828801613ae1565b935050604061430d87828801613cad565b925050606085013567ffffffffffffffff81111561432e5761432d6139d8565b5b61433a87828801614295565b91505092959194509250565b6000806040838503121561435d5761435c6139d3565b5b600061436b85828601613ae1565b925050602061437c85828601613ae1565b9150509250929050565b7f4e487b7100000000000000000000000000000000000000000000000000000000600052603260045260246000fd5b7f4e487b7100000000000000000000000000000000000000000000000000000000600052601160045260246000fd5b60006143ef82613ba7565b91507fffffffffffffffffffffffffffffffffffffffffffffffffffffffffffffffff8203614421576144206143b5565b5b600182019050919050565b7f4e487b7100000000000000000000000000000000000000000000000000000000600052602260045260246000fd5b6000600282049050600182168061447357607f821691505b6020821081036144865761448561442c565b5b50919050565b7f4552433732313a20617070726f76656420717565727920666f72206e6f6e657860008201527f697374656e7420746f6b656e0000000000000000000000000000000000000000602082015250565b60006144e8602c83613be6565b91506144f38261448c565b604082019050919050565b60006020820190508181036000830152614517816144db565b9050919050565b7f4552433732313a20617070726f76616c20746f2063757272656e74206f776e6560008201527f7200000000000000000000000000000000000000000000000000000000000000602082015250565b600061457a602183613be6565b91506145858261451e565b604082019050919050565b600060208201905081810360008301526145a98161456d565b9050919050565b7f4552433732313a20617070726f76652063616c6c6572206973206e6f74206f7760008201527f6e6572206e6f7220617070726f76656420666f7220616c6c0000000000000000602082015250565b600061460c603883613be6565b9150614617826145b0565b604082019050919050565b6000602082019050818103600083015261463b816145ff565b9050919050565b7f4552433732313a207472616e736665722063616c6c6572206973206e6f74206f60008201527f776e6572206e6f7220617070726f766564000000000000000000000000000000602082015250565b600061469e603183613be6565b91506146a982614642565b604082019050919050565b600060208201905081810360008301526146cd81614691565b9050919050565b60006146df82613ba7565b91506146ea83613ba7565b9250817fffffffffffffffffffffffffffffffffffffffffffffffffffffffffffffffff0483118215151615614723576147226143b5565b5b828202905092915050565b7f4e487b7100000000000000000000000000000000000000000000000000000000600052601260045260246000fd5b600061476882613ba7565b915061477383613ba7565b9250826147835761478261472e565b5b828204905092915050565b7f455243373231456e756d657261626c653a206f776e657220696e646578206f7560008201527f74206f6620626f756e6473000000000000000000000000000000000000000000602082015250565b60006147ea602b83613be6565b91506147f58261478e565b604082019050919050565b60006020820190508181036000830152614819816147dd565b9050919050565b7f416363657373436f6e74726f6c3a2063616e206f6e6c792072656e6f756e636560008201527f20726f6c657320666f722073656c660000000000000000000000000000000000602082015250565b600061487c602f83613be6565b915061488782614820565b604082019050919050565b600060208201905081810360008301526148ab8161486f565b9050919050565b7f4552433732314275726e61626c653a2063616c6c6572206973206e6f74206f7760008201527f6e6572206e6f7220617070726f76656400000000000000000000000000000000602082015250565b600061490e603083613be6565b9150614919826148b2565b604082019050919050565b6000602082019050818103600083015261493d81614901565b9050919050565b7f455243373231456e756d657261626c653a20676c6f62616c20696e646578206f60008201527f7574206f6620626f756e64730000000000000000000000000000000000000000602082015250565b60006149a0602c83613be6565b91506149ab82614944565b604082019050919050565b600060208201905081810360008301526149cf81614993565b9050919050565b7f4552433732313a206f776e657220717565727920666f72206e6f6e657869737460008201527f656e7420746f6b656e0000000000000000000000000000000000000000000000602082015250565b6000614a32602983613be6565b9150614a3d826149d6565b604082019050919050565b60006020820190508181036000830152614a6181614a25565b9050919050565b7f4552433732313a2062616c616e636520717565727920666f7220746865207a6560008201527f726f206164647265737300000000000000000000000000000000000000000000602082015250565b6000614ac4602a83613be6565b9150614acf82614a68565b604082019050919050565b60006020820190508181036000830152614af381614ab7565b9050919050565b6000614b0582613ba7565b9150614b1083613ba7565b9250827fffffffffffffffffffffffffffffffffffffffffffffffffffffffffffffffff03821115614b4557614b446143b5565b5b828201905092915050565b7f4d617463682069732066756c6c00000000000000000000000000000000000000600082015250565b6000614b86600d83613be6565b9150614b9182614b50565b602082019050919050565b60006020820190508181036000830152614bb581614b79565b9050919050565b6000614bc782613ba7565b9150614bd283613ba7565b925082821015614be557614be46143b5565b5b828203905092915050565b7f4e487b7100000000000000000000000000000000000000000000000000000000600052603160045260246000fd5b6000614c2a82613ba7565b915060008203614c3d57614c3c6143b5565b5b600182039050919050565b7f537472696e67733a20686578206c656e67746820696e73756666696369656e74600082015250565b6000614c7e602083613be6565b9150614c8982614c48565b602082019050919050565b60006020820190508181036000830152614cad81614c71565b9050919050565b7f455243323938313a20726f79616c7479206665652077696c6c2065786365656460008201527f2073616c65507269636500000000000000000000000000000000000000000000602082015250565b6000614d10602a83613be6565b9150614d1b82614cb4565b604082019050919050565b60006020820190508181036000830152614d3f81614d03565b9050919050565b7f455243323938313a20696e76616c696420726563656976657200000000000000600082015250565b6000614d7c601983613be6565b9150614d8782614d46565b602082019050919050565b60006020820190508181036000830152614dab81614d6f565b9050919050565b7f4552433732313a206f70657261746f7220717565727920666f72206e6f6e657860008201527f697374656e7420746f6b656e0000000000000000000000000000000000000000602082015250565b6000614e0e602c83613be6565b9150614e1982614db2565b604082019050919050565b60006020820190508181036000830152614e3d81614e01565b9050919050565b7f4552433732313a207472616e736665722066726f6d20696e636f72726563742060008201527f6f776e6572000000000000000000000000000000000000000000000000000000602082015250565b6000614ea0602583613be6565b9150614eab82614e44565b604082019050919050565b60006020820190508181036000830152614ecf81614e93565b9050919050565b7f4552433732313a207472616e7366657220746f20746865207a65726f2061646460008201527f7265737300000000000000000000000000000000000000000000000000000000602082015250565b6000614f32602483613be6565b9150614f3d82614ed6565b604082019050919050565b60006020820190508181036000830152614f6181614f25565b9050919050565b7f5061757361626c653a206e6f7420706175736564000000000000000000000000600082015250565b6000614f9e601483613be6565b9150614fa982614f68565b602082019050919050565b60006020820190508181036000830152614fcd81614f91565b9050919050565b7f5061757361626c653a2070617573656400000000000000000000000000000000600082015250565b600061500a601083613be6565b915061501582614fd4565b602082019050919050565b6000602082019050818103600083015261503981614ffd565b9050919050565b7f4552433732313a20617070726f766520746f2063616c6c657200000000000000600082015250565b6000615076601983613be6565b915061508182615040565b602082019050919050565b600060208201905081810360008301526150a581615069565b9050919050565b60006150b782613ba7565b91506150c283613ba7565b9250826150d2576150d161472e565b5b828206905092915050565b600081905092915050565b60006150f382613bdb565b6150fd81856150dd565b935061510d818560208601613bf7565b80840191505092915050565b600061512582856150e8565b915061513182846150e8565b91508190509392505050565b7f4552433732313a207472616e7366657220746f206e6f6e20455243373231526560008201527f63656976657220696d706c656d656e7465720000000000000000000000000000602082015250565b6000615199603283613be6565b91506151a48261513d565b604082019050919050565b600060208201905081810360008301526151c88161518c565b9050919050565b7f45524337323155524953746f726167653a2055524920717565727920666f722060008201527f6e6f6e6578697374656e7420746f6b656e000000000000000000000000000000602082015250565b600061522b603183613be6565b9150615236826151cf565b604082019050919050565b6000602082019050818103600083015261525a8161521e565b9050919050565b7f416363657373436f6e74726f6c3a206163636f756e7420000000000000000000600082015250565b60006152976017836150dd565b91506152a282615261565b601782019050919050565b7f206973206d697373696e6720726f6c6520000000000000000000000000000000600082015250565b60006152e36011836150dd565b91506152ee826152ad565b601182019050919050565b60006153048261528a565b915061531082856150e8565b915061531b826152d6565b915061532782846150e8565b91508190509392505050565b7f45524337323155524953746f726167653a2055524920736574206f66206e6f6e60008201527f6578697374656e7420746f6b656e000000000000000000000000000000000000602082015250565b600061538f602e83613be6565b915061539a82615333565b604082019050919050565b600060208201905081810360008301526153be81615382565b9050919050565b60008190508160005260206000209050919050565b60006020601f8301049050919050565b600082821b905092915050565b6000600883026154277fffffffffffffffffffffffffffffffffffffffffffffffffffffffffffffffff826153ea565b61543186836153ea565b95508019841693508086168417925050509392505050565b6000819050919050565b600061546e61546961546484613ba7565b615449565b613ba7565b9050919050565b6000819050919050565b61548883615453565b61549c61549482615475565b8484546153f7565b825550505050565b600090565b6154b16154a4565b6154bc81848461547f565b505050565b5b818110156154e0576154d56000826154a9565b6001810190506154c2565b5050565b601f821115615525576154f6816153c5565b6154ff846153da565b8101602085101561550e578190505b61552261551a856153da565b8301826154c1565b50505b505050565b600082821c905092915050565b60006155486000198460080261552a565b1980831691505092915050565b60006155618383615537565b9150826002028217905092915050565b61557a82613bdb565b67ffffffffffffffff81111561559357615592614074565b5b61559d825461445b565b6155a88282856154e4565b600060209050601f8311600181146155db57600084156155c9578287015190505b6155d38582615555565b86555061563b565b601f1984166155e9866153c5565b60005b82811015615611578489015182556001820191506020850194506020810190506155ec565b8683101561562e578489015161562a601f891682615537565b8355505b6001600288020188555050505b505050505050565b600081519050919050565b600082825260208201905092915050565b600061566a82615643565b615674818561564e565b9350615684818560208601613bf7565b61568d81613c2a565b840191505092915050565b60006080820190506156ad6000830187613cef565b6156ba6020830186613cef565b6156c76040830185613bb1565b81810360608301526156d9818461565f565b905095945050505050565b6000815190506156f381613a09565b92915050565b60006020828403121561570f5761570e6139d3565b5b600061571d848285016156e4565b91505092915050565b7f4552433732314d657461646174613a2055524920717565727920666f72206e6f60008201527f6e6578697374656e7420746f6b656e0000000000000000000000000000000000602082015250565b6000615782602f83613be6565b915061578d82615726565b604082019050919050565b600060208201905081810360008301526157b181615775565b9050919050565b7f4552433732313a206d696e7420746f20746865207a65726f2061646472657373600082015250565b60006157ee602083613be6565b91506157f9826157b8565b602082019050919050565b6000602082019050818103600083015261581d816157e1565b9050919050565b7f4552433732313a20746f6b656e20616c7265616479206d696e74656400000000600082015250565b600061585a601c83613be6565b915061586582615824565b602082019050919050565b600060208201905081810360008301526158898161584d565b905091905056fe68747470733a2f2f697066732e696f2f697066732f6261666b7265696177336e6836746876366534783337686c76707978326d7533746c66327a6c636a32626b796e786c62746433737376786f79636d2fa2646970667358221220832c865c4cf9331588388b38c8a9a4f6353266faf143ae0601df04c14bb2820064736f6c634300080f0033",
  "immutableReferences": {},
  "source": "// SPDX-License-Identifier: MIT\npragma solidity ^0.8.12;\n\nimport \"@openzeppelin/contracts/token/ERC721/ERC721.sol\";\nimport \"@openzeppelin/contracts/token/ERC721/extensions/ERC721Enumerable.sol\";\nimport \"@openzeppelin/contracts/token/ERC721/extensions/ERC721URIStorage.sol\";\nimport \"@openzeppelin/contracts/security/Pausable.sol\";\nimport \"@openzeppelin/contracts/access/AccessControl.sol\";\nimport \"@openzeppelin/contracts/token/ERC721/extensions/ERC721Burnable.sol\";\nimport \"@openzeppelin/contracts/utils/Counters.sol\";\nimport \"@openzeppelin/contracts/token/common/ERC2981.sol\";\n\nimport \"./CryptoTicketsRewards.sol\";\n\ncontract CryptoTicketsMatchNFTs is\n    ERC721,\n    ERC721Enumerable,\n    ERC721URIStorage,\n    Pausable,\n    AccessControl,\n    ERC721Burnable,\n    ERC2981\n{\n    using Counters for Counters.Counter;\n\n    CryptoTicketsRewards rewardsTicket;\n\n    bytes32 public constant ADMIN_CLUB_ROLE = keccak256(\"ADMIN_CLUB_ROLE\");\n    Counters.Counter private _matchIdCounter;\n\n    string contractURL;\n\n    address[] public listSubscriber;\n    mapping(uint256 => uint256) public tokensMintedByMatch;\n\n    address payable public club;\n\n    uint96 private royaltyFeesInBips = 1000;\n\n    constructor(address rewardsTicketAddress)\n        ERC721(\"CryptoTicketsMatchNFTs\", \"CTKMN\")\n    {\n        rewardsTicket = CryptoTicketsRewards(rewardsTicketAddress);\n        _grantRole(DEFAULT_ADMIN_ROLE, msg.sender);\n        _grantRole(ADMIN_CLUB_ROLE, msg.sender);\n        setRoyaltyInfo(msg.sender, royaltyFeesInBips);\n    }\n\n    function contractURI() public pure returns (string memory) {\n        return\n            \"https://ipfs.io/ipfs/bafkreiaw3nh6thv6e4x37hlvpyx2mu3tlf2zlcj2bkynxlbtd3ssvxoycm/\";\n    }\n\n    function pause() public onlyRole(ADMIN_CLUB_ROLE) {\n        _pause();\n    }\n\n    function unpause() public onlyRole(ADMIN_CLUB_ROLE) {\n        _unpause();\n    }\n\n    function mintMatchTicket(\n        address to,\n        string memory uri,\n        uint256 randomNumber,\n        uint256 carSize\n    ) private {\n        uint256 matchId = _matchIdCounter.current();\n        _matchIdCounter.increment();\n        _safeMint(to, matchId);\n        _setTokenURI(\n            matchId,\n            string.concat(uri, Strings.toString(randomNumber % carSize))\n        );\n    }\n\n    function airdropMatchTickets(\n        uint256 matchId,\n        uint256 maxCapacity,\n        string memory uri,\n        uint256 carSize\n    ) public onlyRole(ADMIN_CLUB_ROLE) {\n        require(\n            tokensMintedByMatch[matchId] + listSubscriber.length < maxCapacity,\n            \"Match is full\"\n        );\n        uint256 randomNumber = tokensMintedByMatch[matchId];\n        for (uint256 i = 0; i < listSubscriber.length; i++) {\n            mintMatchTicket(listSubscriber[i], uri, randomNumber, carSize);\n            randomNumber++;\n        }\n        tokensMintedByMatch[matchId] += listSubscriber.length;\n    }\n\n    // function mintSaleMatchTicket(address to, string memory uri) public payable {\n    //     uint256 matchId = _matchIdCounter.current();\n    //     _matchIdCounter.increment();\n    //     _safeMint(to, matchId);\n    //     _setTokenURI(matchId, uri);\n    // }\n\n    function getTotalMintedTicketsByMatchId(uint256 matchId)\n        public\n        view\n        returns (uint256)\n    {\n        return tokensMintedByMatch[matchId];\n    }\n\n    function _beforeTokenTransfer(\n        address from,\n        address to,\n        uint256 matchId\n    ) internal override(ERC721, ERC721Enumerable) whenNotPaused {\n        super._beforeTokenTransfer(from, to, matchId);\n    }\n\n    function _burn(uint256 matchId)\n        internal\n        override(ERC721, ERC721URIStorage)\n    {\n        super._burn(matchId);\n    }\n\n    function burnTicket(uint256 tokenId) public {\n        _burn(tokenId);\n        rewardsTicket.addListForRewards(msg.sender);\n    }\n\n    function tokenURI(uint256 matchId)\n        public\n        view\n        override(ERC721, ERC721URIStorage)\n        returns (string memory)\n    {\n        return super.tokenURI(matchId);\n    }\n\n    function supportsInterface(bytes4 interfaceId)\n        public\n        view\n        override(ERC721, ERC721Enumerable, ERC2981, AccessControl)\n        returns (bool)\n    {\n        return super.supportsInterface(interfaceId);\n    }\n\n    function grantAdminRol(address account)\n        public\n        onlyRole(DEFAULT_ADMIN_ROLE)\n    {\n        _grantRole(DEFAULT_ADMIN_ROLE, account);\n    }\n\n    function grantClubRol(address account) public onlyRole(DEFAULT_ADMIN_ROLE) {\n        _grantRole(ADMIN_CLUB_ROLE, account);\n        rewardsTicket.grantAdminRol(account);\n    }\n\n    function revokeClubRol(address account)\n        public\n        onlyRole(DEFAULT_ADMIN_ROLE)\n    {\n        _revokeRole(ADMIN_CLUB_ROLE, account);\n        rewardsTicket.revokeAdminRol(account);\n    }\n\n    function addAMembershipddress(address account)\n        public\n        onlyRole(DEFAULT_ADMIN_ROLE)\n    {\n        listSubscriber.push(account);\n    }\n\n    function findAddress(address value) public view returns (uint256) {\n        uint256 i = 0;\n        while (listSubscriber[i] != value) {\n            i++;\n        }\n        return i;\n    }\n\n    function getAddressInfo() public view returns (address[] memory) {\n        return (listSubscriber);\n    }\n\n    function removeMembershipAddress(address value) public {\n        uint256 index = findAddress(value);\n        listSubscriber[index] = listSubscriber[listSubscriber.length - 1];\n        listSubscriber.pop();\n    }\n\n    function setRoyaltyInfo(address _receiver, uint96 _royaltyFeesInBips)\n        public\n        onlyRole(DEFAULT_ADMIN_ROLE)\n    {\n        _setDefaultRoyalty(_receiver, _royaltyFeesInBips);\n    }\n}\n",
  "sourcePath": "/Users/dosorio/Proyectos/Blockchain/SportTickets/contracts/CryptoTicketsMatchNFTs.sol",
  "compiler": {
    "name": "solc",
    "version": "0.8.15+commit.e14f2714.Emscripten.clang"
  },
  "schemaVersion": "3.4.7",
  "updatedAt": "2022-07-04T23:18:31.081Z",
  "networkType": "ethereum",
  "devdoc": {
    "kind": "dev",
    "methods": {
      "approve(address,uint256)": {
        "details": "See {IERC721-approve}."
      },
      "balanceOf(address)": {
        "details": "See {IERC721-balanceOf}."
      },
      "burn(uint256)": {
        "details": "Burns `tokenId`. See {ERC721-_burn}. Requirements: - The caller must own `tokenId` or be an approved operator."
      },
      "getApproved(uint256)": {
        "details": "See {IERC721-getApproved}."
      },
      "getRoleAdmin(bytes32)": {
        "details": "Returns the admin role that controls `role`. See {grantRole} and {revokeRole}. To change a role's admin, use {_setRoleAdmin}."
      },
      "grantRole(bytes32,address)": {
        "details": "Grants `role` to `account`. If `account` had not been already granted `role`, emits a {RoleGranted} event. Requirements: - the caller must have ``role``'s admin role."
      },
      "hasRole(bytes32,address)": {
        "details": "Returns `true` if `account` has been granted `role`."
      },
      "isApprovedForAll(address,address)": {
        "details": "See {IERC721-isApprovedForAll}."
      },
      "name()": {
        "details": "See {IERC721Metadata-name}."
      },
      "ownerOf(uint256)": {
        "details": "See {IERC721-ownerOf}."
      },
      "paused()": {
        "details": "Returns true if the contract is paused, and false otherwise."
      },
      "renounceRole(bytes32,address)": {
        "details": "Revokes `role` from the calling account. Roles are often managed via {grantRole} and {revokeRole}: this function's purpose is to provide a mechanism for accounts to lose their privileges if they are compromised (such as when a trusted device is misplaced). If the calling account had been revoked `role`, emits a {RoleRevoked} event. Requirements: - the caller must be `account`."
      },
      "revokeRole(bytes32,address)": {
        "details": "Revokes `role` from `account`. If `account` had been granted `role`, emits a {RoleRevoked} event. Requirements: - the caller must have ``role``'s admin role."
      },
      "royaltyInfo(uint256,uint256)": {
        "details": "Returns how much royalty is owed and to whom, based on a sale price that may be denominated in any unit of exchange. The royalty amount is denominated and should be paid in that same unit of exchange."
      },
      "safeTransferFrom(address,address,uint256)": {
        "details": "See {IERC721-safeTransferFrom}."
      },
      "safeTransferFrom(address,address,uint256,bytes)": {
        "details": "See {IERC721-safeTransferFrom}."
      },
      "setApprovalForAll(address,bool)": {
        "details": "See {IERC721-setApprovalForAll}."
      },
      "symbol()": {
        "details": "See {IERC721Metadata-symbol}."
      },
      "tokenByIndex(uint256)": {
        "details": "See {IERC721Enumerable-tokenByIndex}."
      },
      "tokenOfOwnerByIndex(address,uint256)": {
        "details": "See {IERC721Enumerable-tokenOfOwnerByIndex}."
      },
      "totalSupply()": {
        "details": "See {IERC721Enumerable-totalSupply}."
      },
      "transferFrom(address,address,uint256)": {
        "details": "See {IERC721-transferFrom}."
      }
    },
    "version": 1
  },
  "userdoc": {
    "kind": "user",
    "methods": {},
    "version": 1
  }
}