{
  "contractName": "CryptoTicketsMarketplace",
  "abi": [
    {
      "inputs": [
        {
          "internalType": "address",
          "name": "matchTicketsContractAddresss",
          "type": "address"
        },
        {
          "internalType": "address payable",
          "name": "clubOwnerAddress",
          "type": "address"
        }
      ],
      "stateMutability": "nonpayable",
      "type": "constructor"
    },
    {
      "anonymous": false,
      "inputs": [
        {
          "indexed": false,
          "internalType": "address",
          "name": "account",
          "type": "address"
        }
      ],
      "name": "Paused",
      "type": "event"
    },
    {
      "anonymous": false,
      "inputs": [
        {
          "indexed": true,
          "internalType": "bytes32",
          "name": "role",
          "type": "bytes32"
        },
        {
          "indexed": true,
          "internalType": "bytes32",
          "name": "previousAdminRole",
          "type": "bytes32"
        },
        {
          "indexed": true,
          "internalType": "bytes32",
          "name": "newAdminRole",
          "type": "bytes32"
        }
      ],
      "name": "RoleAdminChanged",
      "type": "event"
    },
    {
      "anonymous": false,
      "inputs": [
        {
          "indexed": true,
          "internalType": "bytes32",
          "name": "role",
          "type": "bytes32"
        },
        {
          "indexed": true,
          "internalType": "address",
          "name": "account",
          "type": "address"
        },
        {
          "indexed": true,
          "internalType": "address",
          "name": "sender",
          "type": "address"
        }
      ],
      "name": "RoleGranted",
      "type": "event"
    },
    {
      "anonymous": false,
      "inputs": [
        {
          "indexed": true,
          "internalType": "bytes32",
          "name": "role",
          "type": "bytes32"
        },
        {
          "indexed": true,
          "internalType": "address",
          "name": "account",
          "type": "address"
        },
        {
          "indexed": true,
          "internalType": "address",
          "name": "sender",
          "type": "address"
        }
      ],
      "name": "RoleRevoked",
      "type": "event"
    },
    {
      "anonymous": false,
      "inputs": [
        {
          "indexed": false,
          "internalType": "address",
          "name": "account",
          "type": "address"
        }
      ],
      "name": "Unpaused",
      "type": "event"
    },
    {
      "inputs": [],
      "name": "DEFAULT_ADMIN_ROLE",
      "outputs": [
        {
          "internalType": "bytes32",
          "name": "",
          "type": "bytes32"
        }
      ],
      "stateMutability": "view",
      "type": "function",
      "constant": true
    },
    {
      "inputs": [
        {
          "internalType": "bytes32",
          "name": "role",
          "type": "bytes32"
        }
      ],
      "name": "getRoleAdmin",
      "outputs": [
        {
          "internalType": "bytes32",
          "name": "",
          "type": "bytes32"
        }
      ],
      "stateMutability": "view",
      "type": "function",
      "constant": true
    },
    {
      "inputs": [
        {
          "internalType": "bytes32",
          "name": "role",
          "type": "bytes32"
        },
        {
          "internalType": "address",
          "name": "account",
          "type": "address"
        }
      ],
      "name": "grantRole",
      "outputs": [],
      "stateMutability": "nonpayable",
      "type": "function"
    },
    {
      "inputs": [
        {
          "internalType": "bytes32",
          "name": "role",
          "type": "bytes32"
        },
        {
          "internalType": "address",
          "name": "account",
          "type": "address"
        }
      ],
      "name": "hasRole",
      "outputs": [
        {
          "internalType": "bool",
          "name": "",
          "type": "bool"
        }
      ],
      "stateMutability": "view",
      "type": "function",
      "constant": true
    },
    {
      "inputs": [
        {
          "internalType": "uint256",
          "name": "",
          "type": "uint256"
        }
      ],
      "name": "listingIds",
      "outputs": [
        {
          "internalType": "address",
          "name": "",
          "type": "address"
        }
      ],
      "stateMutability": "view",
      "type": "function",
      "constant": true
    },
    {
      "inputs": [
        {
          "internalType": "address",
          "name": "",
          "type": "address"
        },
        {
          "internalType": "uint256",
          "name": "",
          "type": "uint256"
        }
      ],
      "name": "listings",
      "outputs": [
        {
          "internalType": "uint256",
          "name": "price",
          "type": "uint256"
        },
        {
          "internalType": "address payable",
          "name": "seller",
          "type": "address"
        },
        {
          "internalType": "uint256",
          "name": "tokenId",
          "type": "uint256"
        }
      ],
      "stateMutability": "view",
      "type": "function",
      "constant": true
    },
    {
      "inputs": [],
      "name": "paused",
      "outputs": [
        {
          "internalType": "bool",
          "name": "",
          "type": "bool"
        }
      ],
      "stateMutability": "view",
      "type": "function",
      "constant": true
    },
    {
      "inputs": [
        {
          "internalType": "bytes32",
          "name": "role",
          "type": "bytes32"
        },
        {
          "internalType": "address",
          "name": "account",
          "type": "address"
        }
      ],
      "name": "renounceRole",
      "outputs": [],
      "stateMutability": "nonpayable",
      "type": "function"
    },
    {
      "inputs": [
        {
          "internalType": "bytes32",
          "name": "role",
          "type": "bytes32"
        },
        {
          "internalType": "address",
          "name": "account",
          "type": "address"
        }
      ],
      "name": "revokeRole",
      "outputs": [],
      "stateMutability": "nonpayable",
      "type": "function"
    },
    {
      "inputs": [
        {
          "internalType": "bytes4",
          "name": "interfaceId",
          "type": "bytes4"
        }
      ],
      "name": "supportsInterface",
      "outputs": [
        {
          "internalType": "bool",
          "name": "",
          "type": "bool"
        }
      ],
      "stateMutability": "view",
      "type": "function",
      "constant": true
    },
    {
      "inputs": [
        {
          "internalType": "uint256",
          "name": "",
          "type": "uint256"
        }
      ],
      "name": "tokensOnSale",
      "outputs": [
        {
          "internalType": "uint256",
          "name": "",
          "type": "uint256"
        }
      ],
      "stateMutability": "view",
      "type": "function",
      "constant": true
    },
    {
      "inputs": [
        {
          "internalType": "uint256",
          "name": "tokenId",
          "type": "uint256"
        },
        {
          "internalType": "uint256",
          "name": "price",
          "type": "uint256"
        }
      ],
      "name": "addListing",
      "outputs": [],
      "stateMutability": "nonpayable",
      "type": "function"
    },
    {
      "inputs": [
        {
          "internalType": "uint256",
          "name": "tokenId",
          "type": "uint256"
        }
      ],
      "name": "findTokenIdIndex",
      "outputs": [
        {
          "internalType": "uint256",
          "name": "",
          "type": "uint256"
        }
      ],
      "stateMutability": "view",
      "type": "function",
      "constant": true
    },
    {
      "inputs": [
        {
          "internalType": "uint256",
          "name": "tokenId",
          "type": "uint256"
        }
      ],
      "name": "removeTokenIdFromSaleList",
      "outputs": [],
      "stateMutability": "nonpayable",
      "type": "function"
    },
    {
      "inputs": [
        {
          "internalType": "uint256",
          "name": "tokenId",
          "type": "uint256"
        }
      ],
      "name": "removeListing",
      "outputs": [],
      "stateMutability": "nonpayable",
      "type": "function"
    },
    {
      "inputs": [
        {
          "internalType": "uint256",
          "name": "tokenId",
          "type": "uint256"
        }
      ],
      "name": "purchase",
      "outputs": [],
      "stateMutability": "payable",
      "type": "function",
      "payable": true
    },
    {
      "inputs": [],
      "name": "getOnSaleTokens",
      "outputs": [
        {
          "internalType": "uint256[]",
          "name": "",
          "type": "uint256[]"
        }
      ],
      "stateMutability": "view",
      "type": "function",
      "constant": true
    },
    {
      "inputs": [],
      "name": "getOnSaleTokensInfo",
      "outputs": [
        {
          "components": [
            {
              "internalType": "uint256",
              "name": "price",
              "type": "uint256"
            },
            {
              "internalType": "address payable",
              "name": "seller",
              "type": "address"
            },
            {
              "internalType": "uint256",
              "name": "tokenId",
              "type": "uint256"
            }
          ],
          "internalType": "struct CryptoTicketsMarketplace.Listing[]",
          "name": "",
          "type": "tuple[]"
        }
      ],
      "stateMutability": "view",
      "type": "function",
      "constant": true
    },
    {
      "inputs": [],
      "name": "pause",
      "outputs": [],
      "stateMutability": "nonpayable",
      "type": "function"
    },
    {
      "inputs": [],
      "name": "unpause",
      "outputs": [],
      "stateMutability": "nonpayable",
      "type": "function"
    }
  ],
  "bytecode": "0x60806040523480156200001157600080fd5b5060405162002ed838038062002ed8833981810160405281019062000037919062000318565b60008060006101000a81548160ff02191690831515021790555081600260006101000a81548173ffffffffffffffffffffffffffffffffffffffff021916908373ffffffffffffffffffffffffffffffffffffffff160217905550620000a76000801b336200010560201b60201c565b620000bc6000801b826200010560201b60201c565b80600660006101000a81548173ffffffffffffffffffffffffffffffffffffffff021916908373ffffffffffffffffffffffffffffffffffffffff16021790555050506200035f565b620001178282620001f660201b60201c565b620001f257600180600084815260200190815260200160002060000160008373ffffffffffffffffffffffffffffffffffffffff1673ffffffffffffffffffffffffffffffffffffffff16815260200190815260200160002060006101000a81548160ff021916908315150217905550620001976200026160201b60201c565b73ffffffffffffffffffffffffffffffffffffffff168173ffffffffffffffffffffffffffffffffffffffff16837f2f8788117e7eff1d82e926ec794901d17c78024a50270940304540a733656f0d60405160405180910390a45b5050565b60006001600084815260200190815260200160002060000160008373ffffffffffffffffffffffffffffffffffffffff1673ffffffffffffffffffffffffffffffffffffffff16815260200190815260200160002060009054906101000a900460ff16905092915050565b600033905090565b600080fd5b600073ffffffffffffffffffffffffffffffffffffffff82169050919050565b60006200029b826200026e565b9050919050565b620002ad816200028e565b8114620002b957600080fd5b50565b600081519050620002cd81620002a2565b92915050565b6000620002e0826200026e565b9050919050565b620002f281620002d3565b8114620002fe57600080fd5b50565b6000815190506200031281620002e7565b92915050565b6000806040838503121562000332576200033162000269565b5b60006200034285828601620002bc565b9250506020620003558582860162000301565b9150509250929050565b612b69806200036f6000396000f3fe60806040526004361061011e5760003560e01c80637a77bffb116100a0578063a217fddf11610064578063a217fddf146103f6578063abfcc8c914610421578063d547741f1461044c578063e7daaab514610475578063efef39a1146104a05761011e565b80637a77bffb14610313578063836cf6e9146103505780638456cb591461037957806391d14854146103905780639de10720146103cd5761011e565b806336568abe116100e757806336568abe146102425780633f4ba83a1461026b578063479ad4c31461028257806352bea360146102ab5780635c975abb146102e85761011e565b806207df301461012357806301ffc9a714610162578063248a9ca31461019f5780632f2ff15d146101dc578063308b4c9714610205575b600080fd5b34801561012f57600080fd5b5061014a60048036038101906101459190611cdd565b6104bc565b60405161015993929190611d4d565b60405180910390f35b34801561016e57600080fd5b5061018960048036038101906101849190611ddc565b610513565b6040516101969190611e24565b60405180910390f35b3480156101ab57600080fd5b506101c660048036038101906101c19190611e75565b61058d565b6040516101d39190611eb1565b60405180910390f35b3480156101e857600080fd5b5061020360048036038101906101fe9190611ecc565b6105ad565b005b34801561021157600080fd5b5061022c60048036038101906102279190611f0c565b6105ce565b6040516102399190611f39565b60405180910390f35b34801561024e57600080fd5b5061026960048036038101906102649190611ecc565b6105f2565b005b34801561027757600080fd5b50610280610675565b005b34801561028e57600080fd5b506102a960048036038101906102a49190611f0c565b61068d565b005b3480156102b757600080fd5b506102d260048036038101906102cd9190611f0c565b61093f565b6040516102df9190611f63565b60405180910390f35b3480156102f457600080fd5b506102fd610972565b60405161030a9190611e24565b60405180910390f35b34801561031f57600080fd5b5061033a60048036038101906103359190611f0c565b610988565b6040516103479190611f39565b60405180910390f35b34801561035c57600080fd5b5061037760048036038101906103729190611f7e565b6109d1565b005b34801561038557600080fd5b5061038e610d15565b005b34801561039c57600080fd5b506103b760048036038101906103b29190611ecc565b610d2d565b6040516103c49190611e24565b60405180910390f35b3480156103d957600080fd5b506103f460048036038101906103ef9190611f0c565b610d98565b005b34801561040257600080fd5b5061040b610e23565b6040516104189190611eb1565b60405180910390f35b34801561042d57600080fd5b50610436610e2a565b60405161044391906120cd565b60405180910390f35b34801561045857600080fd5b50610473600480360381019061046e9190611ecc565b611006565b005b34801561048157600080fd5b5061048a611027565b604051610497919061219e565b60405180910390f35b6104ba60048036038101906104b59190611f0c565b61107f565b005b6003602052816000526040600020602052806000526040600020600091509150508060000154908060010160009054906101000a900473ffffffffffffffffffffffffffffffffffffffff16908060020154905083565b60007f7965db0b000000000000000000000000000000000000000000000000000000007bffffffffffffffffffffffffffffffffffffffffffffffffffffffff1916827bffffffffffffffffffffffffffffffffffffffffffffffffffffffff191614806105865750610585826115a9565b5b9050919050565b600060016000838152602001908152602001600020600101549050919050565b6105b68261058d565b6105bf81611613565b6105c98383611627565b505050565b600581815481106105de57600080fd5b906000526020600020016000915090505481565b6105fa611707565b73ffffffffffffffffffffffffffffffffffffffff168173ffffffffffffffffffffffffffffffffffffffff1614610667576040517f08c379a000000000000000000000000000000000000000000000000000000000815260040161065e90612243565b60405180910390fd5b610671828261170f565b5050565b6000801b61068281611613565b61068a6117f1565b50565b3373ffffffffffffffffffffffffffffffffffffffff16600260009054906101000a900473ffffffffffffffffffffffffffffffffffffffff1673ffffffffffffffffffffffffffffffffffffffff16636352211e836040518263ffffffff1660e01b81526004016106ff9190611f39565b602060405180830381865afa15801561071c573d6000803e3d6000fd5b505050506040513d601f19601f820116820180604052508101906107409190612278565b73ffffffffffffffffffffffffffffffffffffffff1614610796576040517f08c379a000000000000000000000000000000000000000000000000000000000815260040161078d906122f1565b60405180910390fd5b600260009054906101000a900473ffffffffffffffffffffffffffffffffffffffff1673ffffffffffffffffffffffffffffffffffffffff1663e985e9c533306040518363ffffffff1660e01b81526004016107f3929190612311565b602060405180830381865afa158015610810573d6000803e3d6000fd5b505050506040513d601f19601f820116820180604052508101906108349190612366565b610873576040517f08c379a000000000000000000000000000000000000000000000000000000000815260040161086a90612405565b60405180910390fd5b6004600082815260200190815260200160002060006101000a81549073ffffffffffffffffffffffffffffffffffffffff0219169055600360003373ffffffffffffffffffffffffffffffffffffffff1673ffffffffffffffffffffffffffffffffffffffff16815260200190815260200160002060008281526020019081526020016000206000808201600090556001820160006101000a81549073ffffffffffffffffffffffffffffffffffffffff02191690556002820160009055505061093c81610d98565b50565b60046020528060005260406000206000915054906101000a900473ffffffffffffffffffffffffffffffffffffffff1681565b60008060009054906101000a900460ff16905090565b600080600090505b82600582815481106109a5576109a4612425565b5b9060005260206000200154146109c85780806109c090612483565b915050610990565b80915050919050565b3373ffffffffffffffffffffffffffffffffffffffff16600260009054906101000a900473ffffffffffffffffffffffffffffffffffffffff1673ffffffffffffffffffffffffffffffffffffffff16636352211e846040518263ffffffff1660e01b8152600401610a439190611f39565b602060405180830381865afa158015610a60573d6000803e3d6000fd5b505050506040513d601f19601f82011682018060405250810190610a849190612278565b73ffffffffffffffffffffffffffffffffffffffff1614610ada576040517f08c379a0000000000000000000000000000000000000000000000000000000008152600401610ad1906122f1565b60405180910390fd5b600260009054906101000a900473ffffffffffffffffffffffffffffffffffffffff1673ffffffffffffffffffffffffffffffffffffffff1663e985e9c533306040518363ffffffff1660e01b8152600401610b37929190612311565b602060405180830381865afa158015610b54573d6000803e3d6000fd5b505050506040513d601f19601f82011682018060405250810190610b789190612366565b610bb7576040517f08c379a0000000000000000000000000000000000000000000000000000000008152600401610bae90612405565b60405180910390fd5b60405180606001604052808281526020013373ffffffffffffffffffffffffffffffffffffffff16815260200183815250600360003373ffffffffffffffffffffffffffffffffffffffff1673ffffffffffffffffffffffffffffffffffffffff16815260200190815260200160002060008481526020019081526020016000206000820151816000015560208201518160010160006101000a81548173ffffffffffffffffffffffffffffffffffffffff021916908373ffffffffffffffffffffffffffffffffffffffff16021790555060408201518160020155905050336004600084815260200190815260200160002060006101000a81548173ffffffffffffffffffffffffffffffffffffffff021916908373ffffffffffffffffffffffffffffffffffffffff16021790555060058290806001815401808255809150506001900390600052602060002001600090919091909150555050565b6000801b610d2281611613565b610d2a611892565b50565b60006001600084815260200190815260200160002060000160008373ffffffffffffffffffffffffffffffffffffffff1673ffffffffffffffffffffffffffffffffffffffff16815260200190815260200160002060009054906101000a900460ff16905092915050565b6000610da382610988565b905060056001600580549050610db991906124cb565b81548110610dca57610dc9612425565b5b906000526020600020015460058281548110610de957610de8612425565b5b90600052602060002001819055506005805480610e0957610e086124ff565b5b600190038181906000526020600020016000905590555050565b6000801b81565b6060600060058054905067ffffffffffffffff811115610e4d57610e4c61252e565b5b604051908082528060200260200182016040528015610e8657816020015b610e73611c0d565b815260200190600190039081610e6b5790505b50905060005b600580549050811015610ffe57600360006004600060058581548110610eb557610eb4612425565b5b9060005260206000200154815260200190815260200160002060009054906101000a900473ffffffffffffffffffffffffffffffffffffffff1673ffffffffffffffffffffffffffffffffffffffff1673ffffffffffffffffffffffffffffffffffffffff168152602001908152602001600020600060058381548110610f3f57610f3e612425565b5b90600052602060002001548152602001908152602001600020604051806060016040529081600082015481526020016001820160009054906101000a900473ffffffffffffffffffffffffffffffffffffffff1673ffffffffffffffffffffffffffffffffffffffff1673ffffffffffffffffffffffffffffffffffffffff168152602001600282015481525050828281518110610fe057610fdf612425565b5b60200260200101819052508080610ff690612483565b915050610e8c565b508091505090565b61100f8261058d565b61101881611613565b611022838361170f565b505050565b6060600580548060200260200160405190810160405280929190818152602001828054801561107557602002820191906000526020600020905b815481526020019060010190808311611061575b5050505050905090565b60006004600083815260200190815260200160002060009054906101000a900473ffffffffffffffffffffffffffffffffffffffff1690506000600360008373ffffffffffffffffffffffffffffffffffffffff1673ffffffffffffffffffffffffffffffffffffffff1681526020019081526020016000206000848152602001908152602001600020604051806060016040529081600082015481526020016001820160009054906101000a900473ffffffffffffffffffffffffffffffffffffffff1673ffffffffffffffffffffffffffffffffffffffff1673ffffffffffffffffffffffffffffffffffffffff168152602001600282015481525050905060018160000151611191919061258c565b3410156111d3576040517f08c379a00000000000000000000000000000000000000000000000000000000081526004016111ca90612609565b60405180910390fd5b806020015173ffffffffffffffffffffffffffffffffffffffff163373ffffffffffffffffffffffffffffffffffffffff1603611245576040517f08c379a000000000000000000000000000000000000000000000000000000000815260040161123c90612675565b60405180910390fd5b8173ffffffffffffffffffffffffffffffffffffffff16600260009054906101000a900473ffffffffffffffffffffffffffffffffffffffff1673ffffffffffffffffffffffffffffffffffffffff16636352211e856040518263ffffffff1660e01b81526004016112b79190611f39565b602060405180830381865afa1580156112d4573d6000803e3d6000fd5b505050506040513d601f19601f820116820180604052508101906112f89190612278565b73ffffffffffffffffffffffffffffffffffffffff161461134e576040517f08c379a000000000000000000000000000000000000000000000000000000000815260040161134590612707565b60405180910390fd5b600260009054906101000a900473ffffffffffffffffffffffffffffffffffffffff1673ffffffffffffffffffffffffffffffffffffffff166342842e0e8333866040518463ffffffff1660e01b81526004016113ad93929190612727565b600060405180830381600087803b1580156113c757600080fd5b505af11580156113db573d6000803e3d6000fd5b505050506004600084815260200190815260200160002060006101000a81549073ffffffffffffffffffffffffffffffffffffffff0219169055600360008373ffffffffffffffffffffffffffffffffffffffff1673ffffffffffffffffffffffffffffffffffffffff16815260200190815260200160002060008481526020019081526020016000206000808201600090556001820160006101000a81549073ffffffffffffffffffffffffffffffffffffffff0219169055600282016000905550506114a883610d98565b806020015173ffffffffffffffffffffffffffffffffffffffff166108fc6064605a6001346114d7919061258c565b6114e1919061275e565b6114eb919061258c565b9081150290604051600060405180830381858888f19350505050158015611516573d6000803e3d6000fd5b50600660009054906101000a900473ffffffffffffffffffffffffffffffffffffffff1673ffffffffffffffffffffffffffffffffffffffff166108fc6064600a600134611564919061258c565b61156e919061275e565b611578919061258c565b9081150290604051600060405180830381858888f193505050501580156115a3573d6000803e3d6000fd5b50505050565b60007f01ffc9a7000000000000000000000000000000000000000000000000000000007bffffffffffffffffffffffffffffffffffffffffffffffffffffffff1916827bffffffffffffffffffffffffffffffffffffffffffffffffffffffff1916149050919050565b6116248161161f611707565b611934565b50565b6116318282610d2d565b61170357600180600084815260200190815260200160002060000160008373ffffffffffffffffffffffffffffffffffffffff1673ffffffffffffffffffffffffffffffffffffffff16815260200190815260200160002060006101000a81548160ff0219169083151502179055506116a8611707565b73ffffffffffffffffffffffffffffffffffffffff168173ffffffffffffffffffffffffffffffffffffffff16837f2f8788117e7eff1d82e926ec794901d17c78024a50270940304540a733656f0d60405160405180910390a45b5050565b600033905090565b6117198282610d2d565b156117ed5760006001600084815260200190815260200160002060000160008373ffffffffffffffffffffffffffffffffffffffff1673ffffffffffffffffffffffffffffffffffffffff16815260200190815260200160002060006101000a81548160ff021916908315150217905550611792611707565b73ffffffffffffffffffffffffffffffffffffffff168173ffffffffffffffffffffffffffffffffffffffff16837ff6391f5c32d9c69d2a47ea670b442974b53935d1edc7fd64eb21e047a839171b60405160405180910390a45b5050565b6117f9610972565b611838576040517f08c379a000000000000000000000000000000000000000000000000000000000815260040161182f90612804565b60405180910390fd5b60008060006101000a81548160ff0219169083151502179055507f5db9ee0a495bf2e6ff9c91a7834c1ba4fdd244a5e8aa4e537bd38aeae4b073aa61187b611707565b6040516118889190611f63565b60405180910390a1565b61189a610972565b156118da576040517f08c379a00000000000000000000000000000000000000000000000000000000081526004016118d190612870565b60405180910390fd5b60016000806101000a81548160ff0219169083151502179055507f62e78cea01bee320cd4e420270b5ea74000d11b0c9f74754ebdbfc544b05a25861191d611707565b60405161192a9190611f63565b60405180910390a1565b61193e8282610d2d565b6119cd576119638173ffffffffffffffffffffffffffffffffffffffff1660146119d1565b6119718360001c60206119d1565b6040516020016119829291906129a2565b6040516020818303038152906040526040517f08c379a00000000000000000000000000000000000000000000000000000000081526004016119c49190612a26565b60405180910390fd5b5050565b6060600060028360026119e4919061275e565b6119ee9190612a48565b67ffffffffffffffff811115611a0757611a0661252e565b5b6040519080825280601f01601f191660200182016040528015611a395781602001600182028036833780820191505090505b5090507f300000000000000000000000000000000000000000000000000000000000000081600081518110611a7157611a70612425565b5b60200101907effffffffffffffffffffffffffffffffffffffffffffffffffffffffffffff1916908160001a9053507f780000000000000000000000000000000000000000000000000000000000000081600181518110611ad557611ad4612425565b5b60200101907effffffffffffffffffffffffffffffffffffffffffffffffffffffffffffff1916908160001a90535060006001846002611b15919061275e565b611b1f9190612a48565b90505b6001811115611bbf577f3031323334353637383961626364656600000000000000000000000000000000600f861660108110611b6157611b60612425565b5b1a60f81b828281518110611b7857611b77612425565b5b60200101907effffffffffffffffffffffffffffffffffffffffffffffffffffffffffffff1916908160001a905350600485901c945080611bb890612a9e565b9050611b22565b5060008414611c03576040517f08c379a0000000000000000000000000000000000000000000000000000000008152600401611bfa90612b13565b60405180910390fd5b8091505092915050565b604051806060016040528060008152602001600073ffffffffffffffffffffffffffffffffffffffff168152602001600081525090565b600080fd5b600073ffffffffffffffffffffffffffffffffffffffff82169050919050565b6000611c7482611c49565b9050919050565b611c8481611c69565b8114611c8f57600080fd5b50565b600081359050611ca181611c7b565b92915050565b6000819050919050565b611cba81611ca7565b8114611cc557600080fd5b50565b600081359050611cd781611cb1565b92915050565b60008060408385031215611cf457611cf3611c44565b5b6000611d0285828601611c92565b9250506020611d1385828601611cc8565b9150509250929050565b611d2681611ca7565b82525050565b6000611d3782611c49565b9050919050565b611d4781611d2c565b82525050565b6000606082019050611d626000830186611d1d565b611d6f6020830185611d3e565b611d7c6040830184611d1d565b949350505050565b60007fffffffff0000000000000000000000000000000000000000000000000000000082169050919050565b611db981611d84565b8114611dc457600080fd5b50565b600081359050611dd681611db0565b92915050565b600060208284031215611df257611df1611c44565b5b6000611e0084828501611dc7565b91505092915050565b60008115159050919050565b611e1e81611e09565b82525050565b6000602082019050611e396000830184611e15565b92915050565b6000819050919050565b611e5281611e3f565b8114611e5d57600080fd5b50565b600081359050611e6f81611e49565b92915050565b600060208284031215611e8b57611e8a611c44565b5b6000611e9984828501611e60565b91505092915050565b611eab81611e3f565b82525050565b6000602082019050611ec66000830184611ea2565b92915050565b60008060408385031215611ee357611ee2611c44565b5b6000611ef185828601611e60565b9250506020611f0285828601611c92565b9150509250929050565b600060208284031215611f2257611f21611c44565b5b6000611f3084828501611cc8565b91505092915050565b6000602082019050611f4e6000830184611d1d565b92915050565b611f5d81611c69565b82525050565b6000602082019050611f786000830184611f54565b92915050565b60008060408385031215611f9557611f94611c44565b5b6000611fa385828601611cc8565b9250506020611fb485828601611cc8565b9150509250929050565b600081519050919050565b600082825260208201905092915050565b6000819050602082019050919050565b611ff381611ca7565b82525050565b61200281611d2c565b82525050565b60608201600082015161201e6000850182611fea565b5060208201516120316020850182611ff9565b5060408201516120446040850182611fea565b50505050565b60006120568383612008565b60608301905092915050565b6000602082019050919050565b600061207a82611fbe565b6120848185611fc9565b935061208f83611fda565b8060005b838110156120c05781516120a7888261204a565b97506120b283612062565b925050600181019050612093565b5085935050505092915050565b600060208201905081810360008301526120e7818461206f565b905092915050565b600081519050919050565b600082825260208201905092915050565b6000819050602082019050919050565b60006121278383611fea565b60208301905092915050565b6000602082019050919050565b600061214b826120ef565b61215581856120fa565b93506121608361210b565b8060005b83811015612191578151612178888261211b565b975061218383612133565b925050600181019050612164565b5085935050505092915050565b600060208201905081810360008301526121b88184612140565b905092915050565b600082825260208201905092915050565b7f416363657373436f6e74726f6c3a2063616e206f6e6c792072656e6f756e636560008201527f20726f6c657320666f722073656c660000000000000000000000000000000000602082015250565b600061222d602f836121c0565b9150612238826121d1565b604082019050919050565b6000602082019050818103600083015261225c81612220565b9050919050565b60008151905061227281611c7b565b92915050565b60006020828403121561228e5761228d611c44565b5b600061229c84828501612263565b91505092915050565b7f596f7520646f6e2774206f776e207468697320746f6b656e0000000000000000600082015250565b60006122db6018836121c0565b91506122e6826122a5565b602082019050919050565b6000602082019050818103600083015261230a816122ce565b9050919050565b60006040820190506123266000830185611f54565b6123336020830184611f54565b9392505050565b61234381611e09565b811461234e57600080fd5b50565b6000815190506123608161233a565b92915050565b60006020828403121561237c5761237b611c44565b5b600061238a84828501612351565b91505092915050565b7f596f7520617265206e6f7420617070726f76656420666f72207468697320636f60008201527f6e74726163740000000000000000000000000000000000000000000000000000602082015250565b60006123ef6026836121c0565b91506123fa82612393565b604082019050919050565b6000602082019050818103600083015261241e816123e2565b9050919050565b7f4e487b7100000000000000000000000000000000000000000000000000000000600052603260045260246000fd5b7f4e487b7100000000000000000000000000000000000000000000000000000000600052601160045260246000fd5b600061248e82611ca7565b91507fffffffffffffffffffffffffffffffffffffffffffffffffffffffffffffffff82036124c0576124bf612454565b5b600182019050919050565b60006124d682611ca7565b91506124e183611ca7565b9250828210156124f4576124f3612454565b5b828203905092915050565b7f4e487b7100000000000000000000000000000000000000000000000000000000600052603160045260246000fd5b7f4e487b7100000000000000000000000000000000000000000000000000000000600052604160045260246000fd5b7f4e487b7100000000000000000000000000000000000000000000000000000000600052601260045260246000fd5b600061259782611ca7565b91506125a283611ca7565b9250826125b2576125b161255d565b5b828204905092915050565b7f596f7520646f6e2774206861766520656e6f756768206d6f6e65790000000000600082015250565b60006125f3601b836121c0565b91506125fe826125bd565b602082019050919050565b60006020820190508181036000830152612622816125e6565b9050919050565b7f596f752063616e27742062757920796f7572206f776e207469636b6574000000600082015250565b600061265f601d836121c0565b915061266a82612629565b602082019050919050565b6000602082019050818103600083015261268e81612652565b9050919050565b7f546865206f776e6572206f66207468697320746f6b656e206973206e6f74207460008201527f68652073656c6c65720000000000000000000000000000000000000000000000602082015250565b60006126f16029836121c0565b91506126fc82612695565b604082019050919050565b60006020820190508181036000830152612720816126e4565b9050919050565b600060608201905061273c6000830186611f54565b6127496020830185611f54565b6127566040830184611d1d565b949350505050565b600061276982611ca7565b915061277483611ca7565b9250817fffffffffffffffffffffffffffffffffffffffffffffffffffffffffffffffff04831182151516156127ad576127ac612454565b5b828202905092915050565b7f5061757361626c653a206e6f7420706175736564000000000000000000000000600082015250565b60006127ee6014836121c0565b91506127f9826127b8565b602082019050919050565b6000602082019050818103600083015261281d816127e1565b9050919050565b7f5061757361626c653a2070617573656400000000000000000000000000000000600082015250565b600061285a6010836121c0565b915061286582612824565b602082019050919050565b600060208201905081810360008301526128898161284d565b9050919050565b600081905092915050565b7f416363657373436f6e74726f6c3a206163636f756e7420000000000000000000600082015250565b60006128d1601783612890565b91506128dc8261289b565b601782019050919050565b600081519050919050565b60005b838110156129105780820151818401526020810190506128f5565b8381111561291f576000848401525b50505050565b6000612930826128e7565b61293a8185612890565b935061294a8185602086016128f2565b80840191505092915050565b7f206973206d697373696e6720726f6c6520000000000000000000000000000000600082015250565b600061298c601183612890565b915061299782612956565b601182019050919050565b60006129ad826128c4565b91506129b98285612925565b91506129c48261297f565b91506129d08284612925565b91508190509392505050565b6000601f19601f8301169050919050565b60006129f8826128e7565b612a0281856121c0565b9350612a128185602086016128f2565b612a1b816129dc565b840191505092915050565b60006020820190508181036000830152612a4081846129ed565b905092915050565b6000612a5382611ca7565b9150612a5e83611ca7565b9250827fffffffffffffffffffffffffffffffffffffffffffffffffffffffffffffffff03821115612a9357612a92612454565b5b828201905092915050565b6000612aa982611ca7565b915060008203612abc57612abb612454565b5b600182039050919050565b7f537472696e67733a20686578206c656e67746820696e73756666696369656e74600082015250565b6000612afd6020836121c0565b9150612b0882612ac7565b602082019050919050565b60006020820190508181036000830152612b2c81612af0565b905091905056fea26469706673582212207f29dc56fe5ad829d26502086f5514102d24a4b8596189633bb477550e25dd3564736f6c634300080f0033",
  "immutableReferences": {},
  "source": "// SPDX-License-Identifier: MIT\npragma solidity ^0.8.12;\n\nimport \"@openzeppelin/contracts/security/Pausable.sol\";\nimport \"@openzeppelin/contracts/access/AccessControl.sol\";\n\nimport \"./CryptoTicketsMatchNFTs.sol\";\n\ncontract CryptoTicketsMarketplace is Pausable, AccessControl {\n    // Other contracts\n    CryptoTicketsMatchNFTs matchTicketsContract;\n\n    struct Listing {\n        uint256 price;\n        address payable seller;\n        uint256 tokenId;\n    }\n\n    mapping(address => mapping(uint256 => Listing)) public listings;\n    mapping(uint256 => address) public listingIds; // List of owners by token id\n    uint256[] public tokensOnSale;\n\n    address payable clubAddress;\n\n    constructor(\n        address matchTicketsContractAddresss,\n        address payable clubOwnerAddress\n    ) {\n        matchTicketsContract = CryptoTicketsMatchNFTs(\n            matchTicketsContractAddresss\n        );\n        _grantRole(DEFAULT_ADMIN_ROLE, msg.sender);\n        _grantRole(DEFAULT_ADMIN_ROLE, clubOwnerAddress);\n        clubAddress = clubOwnerAddress;\n    }\n\n    function addListing(uint256 tokenId, uint256 price) public {\n        require(\n            matchTicketsContract.ownerOf(tokenId) == msg.sender,\n            \"You don't own this token\"\n        );\n        require(\n            matchTicketsContract.isApprovedForAll(msg.sender, address(this)),\n            \"You are not approved for this contract\"\n        );\n\n        listings[msg.sender][tokenId] = Listing(\n            price,\n            payable(msg.sender),\n            tokenId\n        );\n        listingIds[tokenId] = msg.sender;\n        tokensOnSale.push(tokenId);\n    }\n\n    function findTokenIdIndex(uint256 tokenId) public view returns (uint256) {\n        uint256 i = 0;\n        while (tokensOnSale[i] != tokenId) {\n            i++;\n        }\n        return i;\n    }\n\n    function removeTokenIdFromSaleList(uint256 tokenId) public {\n        uint256 index = findTokenIdIndex(tokenId);\n        tokensOnSale[index] = tokensOnSale[tokensOnSale.length - 1];\n        tokensOnSale.pop();\n    }\n\n    function removeListing(uint256 tokenId) public {\n        require(\n            matchTicketsContract.ownerOf(tokenId) == msg.sender,\n            \"You don't own this token\"\n        );\n        require(\n            matchTicketsContract.isApprovedForAll(msg.sender, address(this)),\n            \"You are not approved for this contract\"\n        );\n\n        delete listingIds[tokenId];\n        delete listings[payable(msg.sender)][tokenId];\n\n        // Remove token from array of tokens on sale\n        removeTokenIdFromSaleList(tokenId);\n    }\n\n    function purchase(uint256 tokenId) public payable {\n        address ownerAddress = listingIds[tokenId];\n        Listing memory item = listings[ownerAddress][tokenId];\n        require(msg.value >= item.price / 1 wei, \"You don't have enough money\");\n        require(msg.sender != item.seller, \"You can't buy your own ticket\");\n        require(\n            matchTicketsContract.ownerOf(tokenId) == ownerAddress,\n            \"The owner of this token is not the seller\"\n        );\n\n        matchTicketsContract.safeTransferFrom(\n            ownerAddress,\n            msg.sender,\n            tokenId\n        );\n\n        delete listingIds[tokenId];\n        delete listings[ownerAddress][tokenId];\n        // Remove token from array of tokens on sale\n        removeTokenIdFromSaleList(tokenId);\n        // Send money to seller and the fees for the club\n        item.seller.transfer(((msg.value / 1 wei) * 90) / 100);\n        clubAddress.transfer(((msg.value / 1 wei) * 10) / 100);\n    }\n\n    function getOnSaleTokens() public view returns (uint256[] memory) {\n        return tokensOnSale;\n    }\n\n    function getOnSaleTokensInfo() public view returns (Listing[] memory) {\n        Listing[] memory items = new Listing[](tokensOnSale.length);\n        for (uint256 i = 0; i < tokensOnSale.length; i++) {\n            items[i] = listings[listingIds[tokensOnSale[i]]][tokensOnSale[i]];\n        }\n        return items;\n    }\n\n    function pause() public onlyRole(DEFAULT_ADMIN_ROLE) {\n        _pause();\n    }\n\n    function unpause() public onlyRole(DEFAULT_ADMIN_ROLE) {\n        _unpause();\n    }\n}\n",
  "sourcePath": "/Users/dosorio/Proyectos/Blockchain/SportTickets/contracts/CryptoTicketsMarketplace.sol",
  "compiler": {
    "name": "solc",
    "version": "0.8.15+commit.e14f2714.Emscripten.clang"
  },
  "schemaVersion": "3.4.7",
  "updatedAt": "2022-07-05T18:58:07.536Z",
  "networkType": "ethereum",
  "devdoc": {
    "kind": "dev",
    "methods": {
      "getRoleAdmin(bytes32)": {
        "details": "Returns the admin role that controls `role`. See {grantRole} and {revokeRole}. To change a role's admin, use {_setRoleAdmin}."
      },
      "grantRole(bytes32,address)": {
        "details": "Grants `role` to `account`. If `account` had not been already granted `role`, emits a {RoleGranted} event. Requirements: - the caller must have ``role``'s admin role."
      },
      "hasRole(bytes32,address)": {
        "details": "Returns `true` if `account` has been granted `role`."
      },
      "paused()": {
        "details": "Returns true if the contract is paused, and false otherwise."
      },
      "renounceRole(bytes32,address)": {
        "details": "Revokes `role` from the calling account. Roles are often managed via {grantRole} and {revokeRole}: this function's purpose is to provide a mechanism for accounts to lose their privileges if they are compromised (such as when a trusted device is misplaced). If the calling account had been revoked `role`, emits a {RoleRevoked} event. Requirements: - the caller must be `account`."
      },
      "revokeRole(bytes32,address)": {
        "details": "Revokes `role` from `account`. If `account` had been granted `role`, emits a {RoleRevoked} event. Requirements: - the caller must have ``role``'s admin role."
      },
      "supportsInterface(bytes4)": {
        "details": "See {IERC165-supportsInterface}."
      }
    },
    "version": 1
  },
  "userdoc": {
    "kind": "user",
    "methods": {},
    "version": 1
  }
}