{
  "contractName": "CryptoTicketsMarketplace",
  "abi": [
    {
      "inputs": [
        {
          "internalType": "address",
          "name": "matchTicketsContractAddresss",
          "type": "address"
        },
        {
          "internalType": "address payable",
          "name": "clubOwnerAddress",
          "type": "address"
        }
      ],
      "stateMutability": "nonpayable",
      "type": "constructor"
    },
    {
      "anonymous": false,
      "inputs": [
        {
          "indexed": false,
          "internalType": "address",
          "name": "account",
          "type": "address"
        }
      ],
      "name": "Paused",
      "type": "event"
    },
    {
      "anonymous": false,
      "inputs": [
        {
          "indexed": true,
          "internalType": "bytes32",
          "name": "role",
          "type": "bytes32"
        },
        {
          "indexed": true,
          "internalType": "bytes32",
          "name": "previousAdminRole",
          "type": "bytes32"
        },
        {
          "indexed": true,
          "internalType": "bytes32",
          "name": "newAdminRole",
          "type": "bytes32"
        }
      ],
      "name": "RoleAdminChanged",
      "type": "event"
    },
    {
      "anonymous": false,
      "inputs": [
        {
          "indexed": true,
          "internalType": "bytes32",
          "name": "role",
          "type": "bytes32"
        },
        {
          "indexed": true,
          "internalType": "address",
          "name": "account",
          "type": "address"
        },
        {
          "indexed": true,
          "internalType": "address",
          "name": "sender",
          "type": "address"
        }
      ],
      "name": "RoleGranted",
      "type": "event"
    },
    {
      "anonymous": false,
      "inputs": [
        {
          "indexed": true,
          "internalType": "bytes32",
          "name": "role",
          "type": "bytes32"
        },
        {
          "indexed": true,
          "internalType": "address",
          "name": "account",
          "type": "address"
        },
        {
          "indexed": true,
          "internalType": "address",
          "name": "sender",
          "type": "address"
        }
      ],
      "name": "RoleRevoked",
      "type": "event"
    },
    {
      "anonymous": false,
      "inputs": [
        {
          "indexed": false,
          "internalType": "address",
          "name": "account",
          "type": "address"
        }
      ],
      "name": "Unpaused",
      "type": "event"
    },
    {
      "inputs": [],
      "name": "DEFAULT_ADMIN_ROLE",
      "outputs": [
        {
          "internalType": "bytes32",
          "name": "",
          "type": "bytes32"
        }
      ],
      "stateMutability": "view",
      "type": "function",
      "constant": true
    },
    {
      "inputs": [
        {
          "internalType": "bytes32",
          "name": "role",
          "type": "bytes32"
        }
      ],
      "name": "getRoleAdmin",
      "outputs": [
        {
          "internalType": "bytes32",
          "name": "",
          "type": "bytes32"
        }
      ],
      "stateMutability": "view",
      "type": "function",
      "constant": true
    },
    {
      "inputs": [
        {
          "internalType": "bytes32",
          "name": "role",
          "type": "bytes32"
        },
        {
          "internalType": "address",
          "name": "account",
          "type": "address"
        }
      ],
      "name": "grantRole",
      "outputs": [],
      "stateMutability": "nonpayable",
      "type": "function"
    },
    {
      "inputs": [
        {
          "internalType": "bytes32",
          "name": "role",
          "type": "bytes32"
        },
        {
          "internalType": "address",
          "name": "account",
          "type": "address"
        }
      ],
      "name": "hasRole",
      "outputs": [
        {
          "internalType": "bool",
          "name": "",
          "type": "bool"
        }
      ],
      "stateMutability": "view",
      "type": "function",
      "constant": true
    },
    {
      "inputs": [
        {
          "internalType": "uint256",
          "name": "",
          "type": "uint256"
        }
      ],
      "name": "listingIds",
      "outputs": [
        {
          "internalType": "address",
          "name": "",
          "type": "address"
        }
      ],
      "stateMutability": "view",
      "type": "function",
      "constant": true
    },
    {
      "inputs": [
        {
          "internalType": "address",
          "name": "",
          "type": "address"
        },
        {
          "internalType": "uint256",
          "name": "",
          "type": "uint256"
        }
      ],
      "name": "listings",
      "outputs": [
        {
          "internalType": "uint256",
          "name": "price",
          "type": "uint256"
        },
        {
          "internalType": "address payable",
          "name": "seller",
          "type": "address"
        },
        {
          "internalType": "uint256",
          "name": "tokenId",
          "type": "uint256"
        }
      ],
      "stateMutability": "view",
      "type": "function",
      "constant": true
    },
    {
      "inputs": [],
      "name": "paused",
      "outputs": [
        {
          "internalType": "bool",
          "name": "",
          "type": "bool"
        }
      ],
      "stateMutability": "view",
      "type": "function",
      "constant": true
    },
    {
      "inputs": [
        {
          "internalType": "bytes32",
          "name": "role",
          "type": "bytes32"
        },
        {
          "internalType": "address",
          "name": "account",
          "type": "address"
        }
      ],
      "name": "renounceRole",
      "outputs": [],
      "stateMutability": "nonpayable",
      "type": "function"
    },
    {
      "inputs": [
        {
          "internalType": "bytes32",
          "name": "role",
          "type": "bytes32"
        },
        {
          "internalType": "address",
          "name": "account",
          "type": "address"
        }
      ],
      "name": "revokeRole",
      "outputs": [],
      "stateMutability": "nonpayable",
      "type": "function"
    },
    {
      "inputs": [
        {
          "internalType": "bytes4",
          "name": "interfaceId",
          "type": "bytes4"
        }
      ],
      "name": "supportsInterface",
      "outputs": [
        {
          "internalType": "bool",
          "name": "",
          "type": "bool"
        }
      ],
      "stateMutability": "view",
      "type": "function",
      "constant": true
    },
    {
      "inputs": [
        {
          "internalType": "uint256",
          "name": "",
          "type": "uint256"
        }
      ],
      "name": "tokensOnSale",
      "outputs": [
        {
          "internalType": "uint256",
          "name": "",
          "type": "uint256"
        }
      ],
      "stateMutability": "view",
      "type": "function",
      "constant": true
    },
    {
      "inputs": [
        {
          "internalType": "uint256",
          "name": "tokenId",
          "type": "uint256"
        },
        {
          "internalType": "uint256",
          "name": "price",
          "type": "uint256"
        }
      ],
      "name": "addListing",
      "outputs": [],
      "stateMutability": "nonpayable",
      "type": "function"
    },
    {
      "inputs": [
        {
          "internalType": "uint256",
          "name": "tokenId",
          "type": "uint256"
        }
      ],
      "name": "removeListing",
      "outputs": [],
      "stateMutability": "nonpayable",
      "type": "function"
    },
    {
      "inputs": [
        {
          "internalType": "uint256",
          "name": "tokenId",
          "type": "uint256"
        }
      ],
      "name": "purchase",
      "outputs": [],
      "stateMutability": "payable",
      "type": "function",
      "payable": true
    },
    {
      "inputs": [],
      "name": "getOnSaleTokens",
      "outputs": [
        {
          "internalType": "uint256[]",
          "name": "",
          "type": "uint256[]"
        }
      ],
      "stateMutability": "view",
      "type": "function",
      "constant": true
    },
    {
      "inputs": [],
      "name": "getOnSaleTokensInfo",
      "outputs": [
        {
          "components": [
            {
              "internalType": "uint256",
              "name": "price",
              "type": "uint256"
            },
            {
              "internalType": "address payable",
              "name": "seller",
              "type": "address"
            },
            {
              "internalType": "uint256",
              "name": "tokenId",
              "type": "uint256"
            }
          ],
          "internalType": "struct CryptoTicketsMarketplace.Listing[]",
          "name": "",
          "type": "tuple[]"
        }
      ],
      "stateMutability": "view",
      "type": "function",
      "constant": true
    },
    {
      "inputs": [],
      "name": "pause",
      "outputs": [],
      "stateMutability": "nonpayable",
      "type": "function"
    },
    {
      "inputs": [],
      "name": "unpause",
      "outputs": [],
      "stateMutability": "nonpayable",
      "type": "function"
    }
  ],
  "bytecode": "0x60806040523480156200001157600080fd5b5060405162002e5238038062002e52833981810160405281019062000037919062000318565b60008060006101000a81548160ff02191690831515021790555081600260006101000a81548173ffffffffffffffffffffffffffffffffffffffff021916908373ffffffffffffffffffffffffffffffffffffffff160217905550620000a76000801b336200010560201b60201c565b620000bc6000801b826200010560201b60201c565b80600660006101000a81548173ffffffffffffffffffffffffffffffffffffffff021916908373ffffffffffffffffffffffffffffffffffffffff16021790555050506200035f565b620001178282620001f660201b60201c565b620001f257600180600084815260200190815260200160002060000160008373ffffffffffffffffffffffffffffffffffffffff1673ffffffffffffffffffffffffffffffffffffffff16815260200190815260200160002060006101000a81548160ff021916908315150217905550620001976200026160201b60201c565b73ffffffffffffffffffffffffffffffffffffffff168173ffffffffffffffffffffffffffffffffffffffff16837f2f8788117e7eff1d82e926ec794901d17c78024a50270940304540a733656f0d60405160405180910390a45b5050565b60006001600084815260200190815260200160002060000160008373ffffffffffffffffffffffffffffffffffffffff1673ffffffffffffffffffffffffffffffffffffffff16815260200190815260200160002060009054906101000a900460ff16905092915050565b600033905090565b600080fd5b600073ffffffffffffffffffffffffffffffffffffffff82169050919050565b60006200029b826200026e565b9050919050565b620002ad816200028e565b8114620002b957600080fd5b50565b600081519050620002cd81620002a2565b92915050565b6000620002e0826200026e565b9050919050565b620002f281620002d3565b8114620002fe57600080fd5b50565b6000815190506200031281620002e7565b92915050565b6000806040838503121562000332576200033162000269565b5b60006200034285828601620002bc565b9250506020620003558582860162000301565b9150509250929050565b612ae3806200036f6000396000f3fe6080604052600436106101085760003560e01c80635c975abb11610095578063a217fddf11610064578063a217fddf1461037a578063abfcc8c9146103a5578063d547741f146103d0578063e7daaab5146103f9578063efef39a11461042457610108565b80635c975abb146102d2578063836cf6e9146102fd5780638456cb591461032657806391d148541461033d57610108565b8063308b4c97116100dc578063308b4c97146101ef57806336568abe1461022c5780633f4ba83a14610255578063479ad4c31461026c57806352bea3601461029557610108565b806207df301461010d57806301ffc9a71461014c578063248a9ca3146101895780632f2ff15d146101c6575b600080fd5b34801561011957600080fd5b50610134600480360381019061012f9190611c57565b610440565b60405161014393929190611cc7565b60405180910390f35b34801561015857600080fd5b50610173600480360381019061016e9190611d56565b610497565b6040516101809190611d9e565b60405180910390f35b34801561019557600080fd5b506101b060048036038101906101ab9190611def565b610511565b6040516101bd9190611e2b565b60405180910390f35b3480156101d257600080fd5b506101ed60048036038101906101e89190611e46565b610531565b005b3480156101fb57600080fd5b5061021660048036038101906102119190611e86565b610552565b6040516102239190611eb3565b60405180910390f35b34801561023857600080fd5b50610253600480360381019061024e9190611e46565b610576565b005b34801561026157600080fd5b5061026a6105f9565b005b34801561027857600080fd5b50610293600480360381019061028e9190611e86565b610611565b005b3480156102a157600080fd5b506102bc60048036038101906102b79190611e86565b610934565b6040516102c99190611edd565b60405180910390f35b3480156102de57600080fd5b506102e7610967565b6040516102f49190611d9e565b60405180910390f35b34801561030957600080fd5b50610324600480360381019061031f9190611ef8565b61097d565b005b34801561033257600080fd5b5061033b610cc1565b005b34801561034957600080fd5b50610364600480360381019061035f9190611e46565b610cd9565b6040516103719190611d9e565b60405180910390f35b34801561038657600080fd5b5061038f610d44565b60405161039c9190611e2b565b60405180910390f35b3480156103b157600080fd5b506103ba610d4b565b6040516103c79190612047565b60405180910390f35b3480156103dc57600080fd5b506103f760048036038101906103f29190611e46565b610f27565b005b34801561040557600080fd5b5061040e610f48565b60405161041b9190612118565b60405180910390f35b61043e60048036038101906104399190611e86565b610fa0565b005b6003602052816000526040600020602052806000526040600020600091509150508060000154908060010160009054906101000a900473ffffffffffffffffffffffffffffffffffffffff16908060020154905083565b60007f7965db0b000000000000000000000000000000000000000000000000000000007bffffffffffffffffffffffffffffffffffffffffffffffffffffffff1916827bffffffffffffffffffffffffffffffffffffffffffffffffffffffff1916148061050a575061050982611523565b5b9050919050565b600060016000838152602001908152602001600020600101549050919050565b61053a82610511565b6105438161158d565b61054d83836115a1565b505050565b6005818154811061056257600080fd5b906000526020600020016000915090505481565b61057e611681565b73ffffffffffffffffffffffffffffffffffffffff168173ffffffffffffffffffffffffffffffffffffffff16146105eb576040517f08c379a00000000000000000000000000000000000000000000000000000000081526004016105e2906121bd565b60405180910390fd5b6105f58282611689565b5050565b6000801b6106068161158d565b61060e61176b565b50565b3373ffffffffffffffffffffffffffffffffffffffff16600260009054906101000a900473ffffffffffffffffffffffffffffffffffffffff1673ffffffffffffffffffffffffffffffffffffffff16636352211e836040518263ffffffff1660e01b81526004016106839190611eb3565b602060405180830381865afa1580156106a0573d6000803e3d6000fd5b505050506040513d601f19601f820116820180604052508101906106c491906121f2565b73ffffffffffffffffffffffffffffffffffffffff161461071a576040517f08c379a00000000000000000000000000000000000000000000000000000000081526004016107119061226b565b60405180910390fd5b600260009054906101000a900473ffffffffffffffffffffffffffffffffffffffff1673ffffffffffffffffffffffffffffffffffffffff1663e985e9c533306040518363ffffffff1660e01b815260040161077792919061228b565b602060405180830381865afa158015610794573d6000803e3d6000fd5b505050506040513d601f19601f820116820180604052508101906107b891906122e0565b6107f7576040517f08c379a00000000000000000000000000000000000000000000000000000000081526004016107ee9061237f565b60405180910390fd5b6004600082815260200190815260200160002060006101000a81549073ffffffffffffffffffffffffffffffffffffffff0219169055600360003373ffffffffffffffffffffffffffffffffffffffff1673ffffffffffffffffffffffffffffffffffffffff16815260200190815260200160002060008281526020019081526020016000206000808201600090556001820160006101000a81549073ffffffffffffffffffffffffffffffffffffffff021916905560028201600090555050600560016005805490506108cb91906123ce565b815481106108dc576108db612402565b5b9060005260206000200154600582815481106108fb576108fa612402565b5b9060005260206000200181905550600580548061091b5761091a612431565b5b6001900381819060005260206000200160009055905550565b60046020528060005260406000206000915054906101000a900473ffffffffffffffffffffffffffffffffffffffff1681565b60008060009054906101000a900460ff16905090565b3373ffffffffffffffffffffffffffffffffffffffff16600260009054906101000a900473ffffffffffffffffffffffffffffffffffffffff1673ffffffffffffffffffffffffffffffffffffffff16636352211e846040518263ffffffff1660e01b81526004016109ef9190611eb3565b602060405180830381865afa158015610a0c573d6000803e3d6000fd5b505050506040513d601f19601f82011682018060405250810190610a3091906121f2565b73ffffffffffffffffffffffffffffffffffffffff1614610a86576040517f08c379a0000000000000000000000000000000000000000000000000000000008152600401610a7d9061226b565b60405180910390fd5b600260009054906101000a900473ffffffffffffffffffffffffffffffffffffffff1673ffffffffffffffffffffffffffffffffffffffff1663e985e9c533306040518363ffffffff1660e01b8152600401610ae392919061228b565b602060405180830381865afa158015610b00573d6000803e3d6000fd5b505050506040513d601f19601f82011682018060405250810190610b2491906122e0565b610b63576040517f08c379a0000000000000000000000000000000000000000000000000000000008152600401610b5a9061237f565b60405180910390fd5b60405180606001604052808281526020013373ffffffffffffffffffffffffffffffffffffffff16815260200183815250600360003373ffffffffffffffffffffffffffffffffffffffff1673ffffffffffffffffffffffffffffffffffffffff16815260200190815260200160002060008481526020019081526020016000206000820151816000015560208201518160010160006101000a81548173ffffffffffffffffffffffffffffffffffffffff021916908373ffffffffffffffffffffffffffffffffffffffff16021790555060408201518160020155905050336004600084815260200190815260200160002060006101000a81548173ffffffffffffffffffffffffffffffffffffffff021916908373ffffffffffffffffffffffffffffffffffffffff16021790555060058290806001815401808255809150506001900390600052602060002001600090919091909150555050565b6000801b610cce8161158d565b610cd661180c565b50565b60006001600084815260200190815260200160002060000160008373ffffffffffffffffffffffffffffffffffffffff1673ffffffffffffffffffffffffffffffffffffffff16815260200190815260200160002060009054906101000a900460ff16905092915050565b6000801b81565b6060600060058054905067ffffffffffffffff811115610d6e57610d6d612460565b5b604051908082528060200260200182016040528015610da757816020015b610d94611b87565b815260200190600190039081610d8c5790505b50905060005b600580549050811015610f1f57600360006004600060058581548110610dd657610dd5612402565b5b9060005260206000200154815260200190815260200160002060009054906101000a900473ffffffffffffffffffffffffffffffffffffffff1673ffffffffffffffffffffffffffffffffffffffff1673ffffffffffffffffffffffffffffffffffffffff168152602001908152602001600020600060058381548110610e6057610e5f612402565b5b90600052602060002001548152602001908152602001600020604051806060016040529081600082015481526020016001820160009054906101000a900473ffffffffffffffffffffffffffffffffffffffff1673ffffffffffffffffffffffffffffffffffffffff1673ffffffffffffffffffffffffffffffffffffffff168152602001600282015481525050828281518110610f0157610f00612402565b5b60200260200101819052508080610f179061248f565b915050610dad565b508091505090565b610f3082610511565b610f398161158d565b610f438383611689565b505050565b60606005805480602002602001604051908101604052809291908181526020018280548015610f9657602002820191906000526020600020905b815481526020019060010190808311610f82575b5050505050905090565b60006004600083815260200190815260200160002060009054906101000a900473ffffffffffffffffffffffffffffffffffffffff1690506000600360008373ffffffffffffffffffffffffffffffffffffffff1673ffffffffffffffffffffffffffffffffffffffff1681526020019081526020016000206000848152602001908152602001600020604051806060016040529081600082015481526020016001820160009054906101000a900473ffffffffffffffffffffffffffffffffffffffff1673ffffffffffffffffffffffffffffffffffffffff1673ffffffffffffffffffffffffffffffffffffffff1681526020016002820154815250509050600181600001516110b29190612506565b3410156110f4576040517f08c379a00000000000000000000000000000000000000000000000000000000081526004016110eb90612583565b60405180910390fd5b806020015173ffffffffffffffffffffffffffffffffffffffff163373ffffffffffffffffffffffffffffffffffffffff1603611166576040517f08c379a000000000000000000000000000000000000000000000000000000000815260040161115d906125ef565b60405180910390fd5b8173ffffffffffffffffffffffffffffffffffffffff16600260009054906101000a900473ffffffffffffffffffffffffffffffffffffffff1673ffffffffffffffffffffffffffffffffffffffff16636352211e856040518263ffffffff1660e01b81526004016111d89190611eb3565b602060405180830381865afa1580156111f5573d6000803e3d6000fd5b505050506040513d601f19601f8201168201806040525081019061121991906121f2565b73ffffffffffffffffffffffffffffffffffffffff161461126f576040517f08c379a000000000000000000000000000000000000000000000000000000000815260040161126690612681565b60405180910390fd5b600260009054906101000a900473ffffffffffffffffffffffffffffffffffffffff1673ffffffffffffffffffffffffffffffffffffffff166342842e0e8333866040518463ffffffff1660e01b81526004016112ce939291906126a1565b600060405180830381600087803b1580156112e857600080fd5b505af11580156112fc573d6000803e3d6000fd5b505050506004600084815260200190815260200160002060006101000a81549073ffffffffffffffffffffffffffffffffffffffff0219169055600360008373ffffffffffffffffffffffffffffffffffffffff1673ffffffffffffffffffffffffffffffffffffffff16815260200190815260200160002060008481526020019081526020016000206000808201600090556001820160006101000a81549073ffffffffffffffffffffffffffffffffffffffff021916905560028201600090555050600560016005805490506113d491906123ce565b815481106113e5576113e4612402565b5b90600052602060002001546005848154811061140457611403612402565b5b9060005260206000200181905550600580548061142457611423612431565b5b60019003818190600052602060002001600090559055806020015173ffffffffffffffffffffffffffffffffffffffff166108fc6064605a3461146791906126d8565b6114719190612506565b9081150290604051600060405180830381858888f1935050505015801561149c573d6000803e3d6000fd5b50600660009054906101000a900473ffffffffffffffffffffffffffffffffffffffff1673ffffffffffffffffffffffffffffffffffffffff166108fc6064600a346114e891906126d8565b6114f29190612506565b9081150290604051600060405180830381858888f1935050505015801561151d573d6000803e3d6000fd5b50505050565b60007f01ffc9a7000000000000000000000000000000000000000000000000000000007bffffffffffffffffffffffffffffffffffffffffffffffffffffffff1916827bffffffffffffffffffffffffffffffffffffffffffffffffffffffff1916149050919050565b61159e81611599611681565b6118ae565b50565b6115ab8282610cd9565b61167d57600180600084815260200190815260200160002060000160008373ffffffffffffffffffffffffffffffffffffffff1673ffffffffffffffffffffffffffffffffffffffff16815260200190815260200160002060006101000a81548160ff021916908315150217905550611622611681565b73ffffffffffffffffffffffffffffffffffffffff168173ffffffffffffffffffffffffffffffffffffffff16837f2f8788117e7eff1d82e926ec794901d17c78024a50270940304540a733656f0d60405160405180910390a45b5050565b600033905090565b6116938282610cd9565b156117675760006001600084815260200190815260200160002060000160008373ffffffffffffffffffffffffffffffffffffffff1673ffffffffffffffffffffffffffffffffffffffff16815260200190815260200160002060006101000a81548160ff02191690831515021790555061170c611681565b73ffffffffffffffffffffffffffffffffffffffff168173ffffffffffffffffffffffffffffffffffffffff16837ff6391f5c32d9c69d2a47ea670b442974b53935d1edc7fd64eb21e047a839171b60405160405180910390a45b5050565b611773610967565b6117b2576040517f08c379a00000000000000000000000000000000000000000000000000000000081526004016117a99061277e565b60405180910390fd5b60008060006101000a81548160ff0219169083151502179055507f5db9ee0a495bf2e6ff9c91a7834c1ba4fdd244a5e8aa4e537bd38aeae4b073aa6117f5611681565b6040516118029190611edd565b60405180910390a1565b611814610967565b15611854576040517f08c379a000000000000000000000000000000000000000000000000000000000815260040161184b906127ea565b60405180910390fd5b60016000806101000a81548160ff0219169083151502179055507f62e78cea01bee320cd4e420270b5ea74000d11b0c9f74754ebdbfc544b05a258611897611681565b6040516118a49190611edd565b60405180910390a1565b6118b88282610cd9565b611947576118dd8173ffffffffffffffffffffffffffffffffffffffff16601461194b565b6118eb8360001c602061194b565b6040516020016118fc92919061291c565b6040516020818303038152906040526040517f08c379a000000000000000000000000000000000000000000000000000000000815260040161193e91906129a0565b60405180910390fd5b5050565b60606000600283600261195e91906126d8565b61196891906129c2565b67ffffffffffffffff81111561198157611980612460565b5b6040519080825280601f01601f1916602001820160405280156119b35781602001600182028036833780820191505090505b5090507f3000000000000000000000000000000000000000000000000000000000000000816000815181106119eb576119ea612402565b5b60200101907effffffffffffffffffffffffffffffffffffffffffffffffffffffffffffff1916908160001a9053507f780000000000000000000000000000000000000000000000000000000000000081600181518110611a4f57611a4e612402565b5b60200101907effffffffffffffffffffffffffffffffffffffffffffffffffffffffffffff1916908160001a90535060006001846002611a8f91906126d8565b611a9991906129c2565b90505b6001811115611b39577f3031323334353637383961626364656600000000000000000000000000000000600f861660108110611adb57611ada612402565b5b1a60f81b828281518110611af257611af1612402565b5b60200101907effffffffffffffffffffffffffffffffffffffffffffffffffffffffffffff1916908160001a905350600485901c945080611b3290612a18565b9050611a9c565b5060008414611b7d576040517f08c379a0000000000000000000000000000000000000000000000000000000008152600401611b7490612a8d565b60405180910390fd5b8091505092915050565b604051806060016040528060008152602001600073ffffffffffffffffffffffffffffffffffffffff168152602001600081525090565b600080fd5b600073ffffffffffffffffffffffffffffffffffffffff82169050919050565b6000611bee82611bc3565b9050919050565b611bfe81611be3565b8114611c0957600080fd5b50565b600081359050611c1b81611bf5565b92915050565b6000819050919050565b611c3481611c21565b8114611c3f57600080fd5b50565b600081359050611c5181611c2b565b92915050565b60008060408385031215611c6e57611c6d611bbe565b5b6000611c7c85828601611c0c565b9250506020611c8d85828601611c42565b9150509250929050565b611ca081611c21565b82525050565b6000611cb182611bc3565b9050919050565b611cc181611ca6565b82525050565b6000606082019050611cdc6000830186611c97565b611ce96020830185611cb8565b611cf66040830184611c97565b949350505050565b60007fffffffff0000000000000000000000000000000000000000000000000000000082169050919050565b611d3381611cfe565b8114611d3e57600080fd5b50565b600081359050611d5081611d2a565b92915050565b600060208284031215611d6c57611d6b611bbe565b5b6000611d7a84828501611d41565b91505092915050565b60008115159050919050565b611d9881611d83565b82525050565b6000602082019050611db36000830184611d8f565b92915050565b6000819050919050565b611dcc81611db9565b8114611dd757600080fd5b50565b600081359050611de981611dc3565b92915050565b600060208284031215611e0557611e04611bbe565b5b6000611e1384828501611dda565b91505092915050565b611e2581611db9565b82525050565b6000602082019050611e406000830184611e1c565b92915050565b60008060408385031215611e5d57611e5c611bbe565b5b6000611e6b85828601611dda565b9250506020611e7c85828601611c0c565b9150509250929050565b600060208284031215611e9c57611e9b611bbe565b5b6000611eaa84828501611c42565b91505092915050565b6000602082019050611ec86000830184611c97565b92915050565b611ed781611be3565b82525050565b6000602082019050611ef26000830184611ece565b92915050565b60008060408385031215611f0f57611f0e611bbe565b5b6000611f1d85828601611c42565b9250506020611f2e85828601611c42565b9150509250929050565b600081519050919050565b600082825260208201905092915050565b6000819050602082019050919050565b611f6d81611c21565b82525050565b611f7c81611ca6565b82525050565b606082016000820151611f986000850182611f64565b506020820151611fab6020850182611f73565b506040820151611fbe6040850182611f64565b50505050565b6000611fd08383611f82565b60608301905092915050565b6000602082019050919050565b6000611ff482611f38565b611ffe8185611f43565b935061200983611f54565b8060005b8381101561203a5781516120218882611fc4565b975061202c83611fdc565b92505060018101905061200d565b5085935050505092915050565b600060208201905081810360008301526120618184611fe9565b905092915050565b600081519050919050565b600082825260208201905092915050565b6000819050602082019050919050565b60006120a18383611f64565b60208301905092915050565b6000602082019050919050565b60006120c582612069565b6120cf8185612074565b93506120da83612085565b8060005b8381101561210b5781516120f28882612095565b97506120fd836120ad565b9250506001810190506120de565b5085935050505092915050565b6000602082019050818103600083015261213281846120ba565b905092915050565b600082825260208201905092915050565b7f416363657373436f6e74726f6c3a2063616e206f6e6c792072656e6f756e636560008201527f20726f6c657320666f722073656c660000000000000000000000000000000000602082015250565b60006121a7602f8361213a565b91506121b28261214b565b604082019050919050565b600060208201905081810360008301526121d68161219a565b9050919050565b6000815190506121ec81611bf5565b92915050565b60006020828403121561220857612207611bbe565b5b6000612216848285016121dd565b91505092915050565b7f596f7520646f6e2774206f776e207468697320746f6b656e0000000000000000600082015250565b600061225560188361213a565b91506122608261221f565b602082019050919050565b6000602082019050818103600083015261228481612248565b9050919050565b60006040820190506122a06000830185611ece565b6122ad6020830184611ece565b9392505050565b6122bd81611d83565b81146122c857600080fd5b50565b6000815190506122da816122b4565b92915050565b6000602082840312156122f6576122f5611bbe565b5b6000612304848285016122cb565b91505092915050565b7f596f7520617265206e6f7420617070726f76656420666f72207468697320636f60008201527f6e74726163740000000000000000000000000000000000000000000000000000602082015250565b600061236960268361213a565b91506123748261230d565b604082019050919050565b600060208201905081810360008301526123988161235c565b9050919050565b7f4e487b7100000000000000000000000000000000000000000000000000000000600052601160045260246000fd5b60006123d982611c21565b91506123e483611c21565b9250828210156123f7576123f661239f565b5b828203905092915050565b7f4e487b7100000000000000000000000000000000000000000000000000000000600052603260045260246000fd5b7f4e487b7100000000000000000000000000000000000000000000000000000000600052603160045260246000fd5b7f4e487b7100000000000000000000000000000000000000000000000000000000600052604160045260246000fd5b600061249a82611c21565b91507fffffffffffffffffffffffffffffffffffffffffffffffffffffffffffffffff82036124cc576124cb61239f565b5b600182019050919050565b7f4e487b7100000000000000000000000000000000000000000000000000000000600052601260045260246000fd5b600061251182611c21565b915061251c83611c21565b92508261252c5761252b6124d7565b5b828204905092915050565b7f596f7520646f6e2774206861766520656e6f756768206d6f6e65790000000000600082015250565b600061256d601b8361213a565b915061257882612537565b602082019050919050565b6000602082019050818103600083015261259c81612560565b9050919050565b7f596f752063616e27742062757920796f7572206f776e207469636b6574000000600082015250565b60006125d9601d8361213a565b91506125e4826125a3565b602082019050919050565b60006020820190508181036000830152612608816125cc565b9050919050565b7f546865206f776e6572206f66207468697320746f6b656e206973206e6f74207460008201527f68652073656c6c65720000000000000000000000000000000000000000000000602082015250565b600061266b60298361213a565b91506126768261260f565b604082019050919050565b6000602082019050818103600083015261269a8161265e565b9050919050565b60006060820190506126b66000830186611ece565b6126c36020830185611ece565b6126d06040830184611c97565b949350505050565b60006126e382611c21565b91506126ee83611c21565b9250817fffffffffffffffffffffffffffffffffffffffffffffffffffffffffffffffff04831182151516156127275761272661239f565b5b828202905092915050565b7f5061757361626c653a206e6f7420706175736564000000000000000000000000600082015250565b600061276860148361213a565b915061277382612732565b602082019050919050565b600060208201905081810360008301526127978161275b565b9050919050565b7f5061757361626c653a2070617573656400000000000000000000000000000000600082015250565b60006127d460108361213a565b91506127df8261279e565b602082019050919050565b60006020820190508181036000830152612803816127c7565b9050919050565b600081905092915050565b7f416363657373436f6e74726f6c3a206163636f756e7420000000000000000000600082015250565b600061284b60178361280a565b915061285682612815565b601782019050919050565b600081519050919050565b60005b8381101561288a57808201518184015260208101905061286f565b83811115612899576000848401525b50505050565b60006128aa82612861565b6128b4818561280a565b93506128c481856020860161286c565b80840191505092915050565b7f206973206d697373696e6720726f6c6520000000000000000000000000000000600082015250565b600061290660118361280a565b9150612911826128d0565b601182019050919050565b60006129278261283e565b9150612933828561289f565b915061293e826128f9565b915061294a828461289f565b91508190509392505050565b6000601f19601f8301169050919050565b600061297282612861565b61297c818561213a565b935061298c81856020860161286c565b61299581612956565b840191505092915050565b600060208201905081810360008301526129ba8184612967565b905092915050565b60006129cd82611c21565b91506129d883611c21565b9250827fffffffffffffffffffffffffffffffffffffffffffffffffffffffffffffffff03821115612a0d57612a0c61239f565b5b828201905092915050565b6000612a2382611c21565b915060008203612a3657612a3561239f565b5b600182039050919050565b7f537472696e67733a20686578206c656e67746820696e73756666696369656e74600082015250565b6000612a7760208361213a565b9150612a8282612a41565b602082019050919050565b60006020820190508181036000830152612aa681612a6a565b905091905056fea264697066735822122040c14cc32734fa8a8a04d71cc656bef4abdc28471155e91e9cd8ea2ce620cc4564736f6c634300080f0033",
  "immutableReferences": {},
  "source": "// SPDX-License-Identifier: MIT\npragma solidity ^0.8.4;\n\nimport \"@openzeppelin/contracts/security/Pausable.sol\";\nimport \"@openzeppelin/contracts/access/AccessControl.sol\";\n\nimport \"./CryptoTicketsMatchNFTs.sol\";\n\ncontract CryptoTicketsMarketplace is Pausable, AccessControl {\n    // Other contracts\n    CryptoTicketsMatchNFTs matchTicketsContract;\n\n    struct Listing {\n      uint256 price;\n      address payable seller;\n      uint256 tokenId;\n    }\n\n    mapping(address => mapping(uint256 => Listing)) public listings;\n    mapping(uint256 => address) public listingIds; // List of owners by token id\n    uint256[] public tokensOnSale;\n\n    address payable clubAddress;\n\n    constructor(address matchTicketsContractAddresss, address payable clubOwnerAddress) {\n        matchTicketsContract = CryptoTicketsMatchNFTs(matchTicketsContractAddresss);\n        _grantRole(DEFAULT_ADMIN_ROLE, msg.sender);\n        _grantRole(DEFAULT_ADMIN_ROLE, clubOwnerAddress);\n        clubAddress = clubOwnerAddress;\n    }\n\n    function addListing(uint256 tokenId, uint256 price) public {\n        require(matchTicketsContract.ownerOf(tokenId) == msg.sender, \"You don't own this token\");\n        require(matchTicketsContract.isApprovedForAll(msg.sender, address(this)), \"You are not approved for this contract\");\n\n        listings[msg.sender][tokenId] = Listing(price, payable(msg.sender), tokenId);\n        listingIds[tokenId] = msg.sender;\n        tokensOnSale.push(tokenId);\n    }\n\n    function removeListing(uint256 tokenId) public {\n        require(matchTicketsContract.ownerOf(tokenId) == msg.sender, \"You don't own this token\");\n        require(matchTicketsContract.isApprovedForAll(msg.sender, address(this)), \"You are not approved for this contract\");\n\n        delete listingIds[tokenId];\n        delete listings[payable(msg.sender)][tokenId];\n\n        // Remove token from array of tokens on sale\n        tokensOnSale[tokenId] = tokensOnSale[tokensOnSale.length - 1];\n        tokensOnSale.pop();\n    }\n\n    function purchase(uint256 tokenId) public payable {\n      address ownerAddress = listingIds[tokenId];\n      Listing memory item = listings[ownerAddress][tokenId];\n      require(msg.value >= item.price / 1 wei, \"You don't have enough money\");\n      require(msg.sender != item.seller, \"You can't buy your own ticket\");\n      require(matchTicketsContract.ownerOf(tokenId) == ownerAddress, \"The owner of this token is not the seller\");\n\n      matchTicketsContract.safeTransferFrom(ownerAddress, msg.sender, tokenId);\n\n      delete listingIds[tokenId];\n      delete listings[ownerAddress][tokenId];\n      // Remove token from array of tokens on sale\n      tokensOnSale[tokenId] = tokensOnSale[tokensOnSale.length - 1];\n      tokensOnSale.pop();\n      // Send money to seller and the fees for the club\n      item.seller.transfer(msg.value * 90 / 100);\n      clubAddress.transfer(msg.value * 10 / 100);\n    }\n\n    function getOnSaleTokens() public view returns (uint256[] memory) {\n      return tokensOnSale;\n    }\n\n    function getOnSaleTokensInfo() public view returns (Listing[] memory) {\n      Listing[] memory items = new Listing[](tokensOnSale.length);\n      for (uint i = 0; i < tokensOnSale.length; i++) {\n        items[i] = listings[listingIds[tokensOnSale[i]]][tokensOnSale[i]];\n      }\n      return items;\n    }\n\n    function pause() public onlyRole(DEFAULT_ADMIN_ROLE) {\n        _pause();\n    }\n\n    function unpause() public onlyRole(DEFAULT_ADMIN_ROLE) {\n        _unpause();\n    }\n}\n",
  "sourcePath": "/Users/dosorio/Proyectos/Blockchain/SportTickets/contracts/CryptoTicketsMarketplace.sol",
  "compiler": {
    "name": "solc",
    "version": "0.8.15+commit.e14f2714.Emscripten.clang"
  },
  "schemaVersion": "3.4.7",
  "updatedAt": "2022-07-02T23:40:05.941Z",
  "networkType": "ethereum",
  "devdoc": {
    "kind": "dev",
    "methods": {
      "getRoleAdmin(bytes32)": {
        "details": "Returns the admin role that controls `role`. See {grantRole} and {revokeRole}. To change a role's admin, use {_setRoleAdmin}."
      },
      "grantRole(bytes32,address)": {
        "details": "Grants `role` to `account`. If `account` had not been already granted `role`, emits a {RoleGranted} event. Requirements: - the caller must have ``role``'s admin role."
      },
      "hasRole(bytes32,address)": {
        "details": "Returns `true` if `account` has been granted `role`."
      },
      "paused()": {
        "details": "Returns true if the contract is paused, and false otherwise."
      },
      "renounceRole(bytes32,address)": {
        "details": "Revokes `role` from the calling account. Roles are often managed via {grantRole} and {revokeRole}: this function's purpose is to provide a mechanism for accounts to lose their privileges if they are compromised (such as when a trusted device is misplaced). If the calling account had been revoked `role`, emits a {RoleRevoked} event. Requirements: - the caller must be `account`."
      },
      "revokeRole(bytes32,address)": {
        "details": "Revokes `role` from `account`. If `account` had been granted `role`, emits a {RoleRevoked} event. Requirements: - the caller must have ``role``'s admin role."
      },
      "supportsInterface(bytes4)": {
        "details": "See {IERC165-supportsInterface}."
      }
    },
    "version": 1
  },
  "userdoc": {
    "kind": "user",
    "methods": {},
    "version": 1
  }
}