{
  "contractName": "CryptoTicketsMatchManagement",
  "abi": [
    {
      "inputs": [
        {
          "internalType": "address",
          "name": "matchTicketsContractAddresss",
          "type": "address"
        }
      ],
      "stateMutability": "nonpayable",
      "type": "constructor"
    },
    {
      "anonymous": false,
      "inputs": [
        {
          "indexed": false,
          "internalType": "address",
          "name": "account",
          "type": "address"
        }
      ],
      "name": "Paused",
      "type": "event"
    },
    {
      "anonymous": false,
      "inputs": [
        {
          "indexed": true,
          "internalType": "bytes32",
          "name": "role",
          "type": "bytes32"
        },
        {
          "indexed": true,
          "internalType": "bytes32",
          "name": "previousAdminRole",
          "type": "bytes32"
        },
        {
          "indexed": true,
          "internalType": "bytes32",
          "name": "newAdminRole",
          "type": "bytes32"
        }
      ],
      "name": "RoleAdminChanged",
      "type": "event"
    },
    {
      "anonymous": false,
      "inputs": [
        {
          "indexed": true,
          "internalType": "bytes32",
          "name": "role",
          "type": "bytes32"
        },
        {
          "indexed": true,
          "internalType": "address",
          "name": "account",
          "type": "address"
        },
        {
          "indexed": true,
          "internalType": "address",
          "name": "sender",
          "type": "address"
        }
      ],
      "name": "RoleGranted",
      "type": "event"
    },
    {
      "anonymous": false,
      "inputs": [
        {
          "indexed": true,
          "internalType": "bytes32",
          "name": "role",
          "type": "bytes32"
        },
        {
          "indexed": true,
          "internalType": "address",
          "name": "account",
          "type": "address"
        },
        {
          "indexed": true,
          "internalType": "address",
          "name": "sender",
          "type": "address"
        }
      ],
      "name": "RoleRevoked",
      "type": "event"
    },
    {
      "anonymous": false,
      "inputs": [
        {
          "indexed": false,
          "internalType": "address",
          "name": "account",
          "type": "address"
        }
      ],
      "name": "Unpaused",
      "type": "event"
    },
    {
      "inputs": [],
      "name": "DEFAULT_ADMIN_ROLE",
      "outputs": [
        {
          "internalType": "bytes32",
          "name": "",
          "type": "bytes32"
        }
      ],
      "stateMutability": "view",
      "type": "function",
      "constant": true
    },
    {
      "inputs": [],
      "name": "club",
      "outputs": [
        {
          "internalType": "address payable",
          "name": "",
          "type": "address"
        }
      ],
      "stateMutability": "view",
      "type": "function",
      "constant": true
    },
    {
      "inputs": [
        {
          "internalType": "bytes32",
          "name": "role",
          "type": "bytes32"
        }
      ],
      "name": "getRoleAdmin",
      "outputs": [
        {
          "internalType": "bytes32",
          "name": "",
          "type": "bytes32"
        }
      ],
      "stateMutability": "view",
      "type": "function",
      "constant": true
    },
    {
      "inputs": [
        {
          "internalType": "bytes32",
          "name": "role",
          "type": "bytes32"
        },
        {
          "internalType": "address",
          "name": "account",
          "type": "address"
        }
      ],
      "name": "grantRole",
      "outputs": [],
      "stateMutability": "nonpayable",
      "type": "function"
    },
    {
      "inputs": [
        {
          "internalType": "bytes32",
          "name": "role",
          "type": "bytes32"
        },
        {
          "internalType": "address",
          "name": "account",
          "type": "address"
        }
      ],
      "name": "hasRole",
      "outputs": [
        {
          "internalType": "bool",
          "name": "",
          "type": "bool"
        }
      ],
      "stateMutability": "view",
      "type": "function",
      "constant": true
    },
    {
      "inputs": [
        {
          "internalType": "uint256",
          "name": "",
          "type": "uint256"
        }
      ],
      "name": "matchList",
      "outputs": [
        {
          "internalType": "uint256",
          "name": "matchId",
          "type": "uint256"
        },
        {
          "internalType": "string",
          "name": "local",
          "type": "string"
        },
        {
          "internalType": "string",
          "name": "visitor",
          "type": "string"
        },
        {
          "internalType": "string",
          "name": "baseURI",
          "type": "string"
        },
        {
          "internalType": "uint256",
          "name": "maxCapacity",
          "type": "uint256"
        },
        {
          "internalType": "uint256",
          "name": "expirationDate",
          "type": "uint256"
        },
        {
          "internalType": "uint256",
          "name": "totalSales",
          "type": "uint256"
        },
        {
          "internalType": "uint256",
          "name": "carTotalTokens",
          "type": "uint256"
        }
      ],
      "stateMutability": "view",
      "type": "function",
      "constant": true
    },
    {
      "inputs": [],
      "name": "paused",
      "outputs": [
        {
          "internalType": "bool",
          "name": "",
          "type": "bool"
        }
      ],
      "stateMutability": "view",
      "type": "function",
      "constant": true
    },
    {
      "inputs": [
        {
          "internalType": "bytes32",
          "name": "role",
          "type": "bytes32"
        },
        {
          "internalType": "address",
          "name": "account",
          "type": "address"
        }
      ],
      "name": "renounceRole",
      "outputs": [],
      "stateMutability": "nonpayable",
      "type": "function"
    },
    {
      "inputs": [
        {
          "internalType": "bytes32",
          "name": "role",
          "type": "bytes32"
        },
        {
          "internalType": "address",
          "name": "account",
          "type": "address"
        }
      ],
      "name": "revokeRole",
      "outputs": [],
      "stateMutability": "nonpayable",
      "type": "function"
    },
    {
      "inputs": [
        {
          "internalType": "bytes4",
          "name": "interfaceId",
          "type": "bytes4"
        }
      ],
      "name": "supportsInterface",
      "outputs": [
        {
          "internalType": "bool",
          "name": "",
          "type": "bool"
        }
      ],
      "stateMutability": "view",
      "type": "function",
      "constant": true
    },
    {
      "inputs": [
        {
          "internalType": "string",
          "name": "local",
          "type": "string"
        },
        {
          "internalType": "string",
          "name": "visitor",
          "type": "string"
        },
        {
          "internalType": "string",
          "name": "baseURI",
          "type": "string"
        },
        {
          "internalType": "uint256",
          "name": "maxCapacity",
          "type": "uint256"
        },
        {
          "internalType": "uint256",
          "name": "expirationDate",
          "type": "uint256"
        },
        {
          "internalType": "uint256",
          "name": "carTotalTokens",
          "type": "uint256"
        }
      ],
      "name": "addNewMatch",
      "outputs": [],
      "stateMutability": "nonpayable",
      "type": "function"
    },
    {
      "inputs": [],
      "name": "getAllMatchs",
      "outputs": [
        {
          "components": [
            {
              "internalType": "uint256",
              "name": "matchId",
              "type": "uint256"
            },
            {
              "internalType": "string",
              "name": "local",
              "type": "string"
            },
            {
              "internalType": "string",
              "name": "visitor",
              "type": "string"
            },
            {
              "internalType": "string",
              "name": "baseURI",
              "type": "string"
            },
            {
              "internalType": "uint256",
              "name": "maxCapacity",
              "type": "uint256"
            },
            {
              "internalType": "uint256",
              "name": "expirationDate",
              "type": "uint256"
            },
            {
              "internalType": "uint256",
              "name": "totalSales",
              "type": "uint256"
            },
            {
              "internalType": "uint256",
              "name": "carTotalTokens",
              "type": "uint256"
            }
          ],
          "internalType": "struct CryptoTicketsMatchManagement.MatchInfo[]",
          "name": "",
          "type": "tuple[]"
        }
      ],
      "stateMutability": "view",
      "type": "function",
      "constant": true
    },
    {
      "inputs": [
        {
          "internalType": "uint256",
          "name": "matchId",
          "type": "uint256"
        }
      ],
      "name": "getMatch",
      "outputs": [
        {
          "components": [
            {
              "internalType": "uint256",
              "name": "matchId",
              "type": "uint256"
            },
            {
              "internalType": "string",
              "name": "local",
              "type": "string"
            },
            {
              "internalType": "string",
              "name": "visitor",
              "type": "string"
            },
            {
              "internalType": "string",
              "name": "baseURI",
              "type": "string"
            },
            {
              "internalType": "uint256",
              "name": "maxCapacity",
              "type": "uint256"
            },
            {
              "internalType": "uint256",
              "name": "expirationDate",
              "type": "uint256"
            },
            {
              "internalType": "uint256",
              "name": "totalSales",
              "type": "uint256"
            },
            {
              "internalType": "uint256",
              "name": "carTotalTokens",
              "type": "uint256"
            }
          ],
          "internalType": "struct CryptoTicketsMatchManagement.MatchInfo",
          "name": "",
          "type": "tuple"
        }
      ],
      "stateMutability": "view",
      "type": "function",
      "constant": true
    },
    {
      "inputs": [],
      "name": "getMatchIdList",
      "outputs": [
        {
          "internalType": "uint256[]",
          "name": "",
          "type": "uint256[]"
        }
      ],
      "stateMutability": "view",
      "type": "function",
      "constant": true
    },
    {
      "inputs": [],
      "name": "pause",
      "outputs": [],
      "stateMutability": "nonpayable",
      "type": "function"
    },
    {
      "inputs": [],
      "name": "unpause",
      "outputs": [],
      "stateMutability": "nonpayable",
      "type": "function"
    },
    {
      "inputs": [
        {
          "internalType": "uint256",
          "name": "matchId",
          "type": "uint256"
        }
      ],
      "name": "airdropMatchTickets",
      "outputs": [],
      "stateMutability": "nonpayable",
      "type": "function"
    },
    {
      "inputs": [
        {
          "internalType": "address",
          "name": "account",
          "type": "address"
        }
      ],
      "name": "grantAdminRol",
      "outputs": [],
      "stateMutability": "nonpayable",
      "type": "function"
    },
    {
      "inputs": [
        {
          "internalType": "address",
          "name": "account",
          "type": "address"
        }
      ],
      "name": "revokeAdminRol",
      "outputs": [],
      "stateMutability": "nonpayable",
      "type": "function"
    }
  ],
  "bytecode": "0x60806040523480156200001157600080fd5b5060405162002ea838038062002ea883398181016040528101906200003791906200027c565b60008060006101000a81548160ff02191690831515021790555080600260006101000a81548173ffffffffffffffffffffffffffffffffffffffff021916908373ffffffffffffffffffffffffffffffffffffffff160217905550620000a76000801b33620000ae60201b60201c565b50620002ae565b620000c082826200019f60201b60201c565b6200019b57600180600084815260200190815260200160002060000160008373ffffffffffffffffffffffffffffffffffffffff1673ffffffffffffffffffffffffffffffffffffffff16815260200190815260200160002060006101000a81548160ff021916908315150217905550620001406200020a60201b60201c565b73ffffffffffffffffffffffffffffffffffffffff168173ffffffffffffffffffffffffffffffffffffffff16837f2f8788117e7eff1d82e926ec794901d17c78024a50270940304540a733656f0d60405160405180910390a45b5050565b60006001600084815260200190815260200160002060000160008373ffffffffffffffffffffffffffffffffffffffff1673ffffffffffffffffffffffffffffffffffffffff16815260200190815260200160002060009054906101000a900460ff16905092915050565b600033905090565b600080fd5b600073ffffffffffffffffffffffffffffffffffffffff82169050919050565b6000620002448262000217565b9050919050565b620002568162000237565b81146200026257600080fd5b50565b60008151905062000276816200024b565b92915050565b60006020828403121562000295576200029462000212565b5b6000620002a58482850162000265565b91505092915050565b612bea80620002be6000396000f3fe608060405234801561001057600080fd5b50600436106101215760003560e01c80635c975abb116100ad57806383e4ba4a1161007157806383e4ba4a146102fb5780638456cb591461031757806391d1485414610321578063a217fddf14610351578063d547741f1461036f57610121565b80635c975abb146102695780637367c0d01461028757806376ad43b7146102a35780637abdcc06146102bf5780637bd88645146102dd57610121565b80632f2ff15d116100f45780632f2ff15d146101db578063357da825146101f757806336568abe146102135780633d092b3d1461022f5780633f4ba83a1461025f57610121565b806301ffc9a7146101265780630efd097314610156578063140fc4b514610174578063248a9ca3146101ab575b600080fd5b610140600480360381019061013b91906119bb565b61038b565b60405161014d9190611a03565b60405180910390f35b61015e610405565b60405161016b9190611a5f565b60405180910390f35b61018e60048036038101906101899190611ab0565b61042b565b6040516101a2989796959493929190611b85565b60405180910390f35b6101c560048036038101906101c09190611c4e565b61060b565b6040516101d29190611c8a565b60405180910390f35b6101f560048036038101906101f09190611ce3565b61062b565b005b610211600480360381019061020c9190611e58565b61064c565b005b61022d60048036038101906102289190611ce3565b61076f565b005b61024960048036038101906102449190611ab0565b6107f2565b6040516102569190612050565b60405180910390f35b610267610a08565b005b610271610a20565b60405161027e9190611a03565b60405180910390f35b6102a1600480360381019061029c9190612072565b610a36565b005b6102bd60048036038101906102b89190612072565b610a54565b005b6102c7610a72565b6040516102d4919061214e565b60405180910390f35b6102e5610aca565b6040516102f291906122f0565b60405180910390f35b61031560048036038101906103109190611ab0565b610d97565b005b61031f6111d7565b005b61033b60048036038101906103369190611ce3565b6111ef565b6040516103489190611a03565b60405180910390f35b61035961125a565b6040516103669190611c8a565b60405180910390f35b61038960048036038101906103849190611ce3565b611261565b005b60007f7965db0b000000000000000000000000000000000000000000000000000000007bffffffffffffffffffffffffffffffffffffffffffffffffffffffff1916827bffffffffffffffffffffffffffffffffffffffffffffffffffffffff191614806103fe57506103fd82611282565b5b9050919050565b600460009054906101000a900473ffffffffffffffffffffffffffffffffffffffff1681565b600660205280600052604060002060009150905080600001549080600101805461045490612341565b80601f016020809104026020016040519081016040528092919081815260200182805461048090612341565b80156104cd5780601f106104a2576101008083540402835291602001916104cd565b820191906000526020600020905b8154815290600101906020018083116104b057829003601f168201915b5050505050908060020180546104e290612341565b80601f016020809104026020016040519081016040528092919081815260200182805461050e90612341565b801561055b5780601f106105305761010080835404028352916020019161055b565b820191906000526020600020905b81548152906001019060200180831161053e57829003601f168201915b50505050509080600301805461057090612341565b80601f016020809104026020016040519081016040528092919081815260200182805461059c90612341565b80156105e95780601f106105be576101008083540402835291602001916105e9565b820191906000526020600020905b8154815290600101906020018083116105cc57829003601f168201915b5050505050908060040154908060050154908060060154908060070154905088565b600060016000838152602001908152602001600020600101549050919050565b6106348261060b565b61063d816112ec565b6106478383611300565b505050565b6000801b610659816112ec565b600061066560036113e0565b905060006040518061010001604052808381526020018a81526020018981526020018881526020018781526020018681526020016000815260200185815250905080600660008481526020019081526020016000206000820151816000015560208201518160010190816106d9919061251e565b5060408201518160020190816106ef919061251e565b506060820151816003019081610705919061251e565b506080820151816004015560a0820151816005015560c0820151816006015560e08201518160070155905050600582908060018154018082558091505060019003906000526020600020016000909190919091505561076460036113ee565b505050505050505050565b610777611404565b73ffffffffffffffffffffffffffffffffffffffff168173ffffffffffffffffffffffffffffffffffffffff16146107e4576040517f08c379a00000000000000000000000000000000000000000000000000000000081526004016107db90612662565b60405180910390fd5b6107ee828261140c565b5050565b6107fa61190a565b60066000838152602001908152602001600020604051806101000160405290816000820154815260200160018201805461083390612341565b80601f016020809104026020016040519081016040528092919081815260200182805461085f90612341565b80156108ac5780601f10610881576101008083540402835291602001916108ac565b820191906000526020600020905b81548152906001019060200180831161088f57829003601f168201915b505050505081526020016002820180546108c590612341565b80601f01602080910402602001604051908101604052809291908181526020018280546108f190612341565b801561093e5780601f106109135761010080835404028352916020019161093e565b820191906000526020600020905b81548152906001019060200180831161092157829003601f168201915b5050505050815260200160038201805461095790612341565b80601f016020809104026020016040519081016040528092919081815260200182805461098390612341565b80156109d05780601f106109a5576101008083540402835291602001916109d0565b820191906000526020600020905b8154815290600101906020018083116109b357829003601f168201915b505050505081526020016004820154815260200160058201548152602001600682015481526020016007820154815250509050919050565b6000801b610a15816112ec565b610a1d6114ee565b50565b60008060009054906101000a900460ff16905090565b6000801b610a43816112ec565b610a506000801b83611300565b5050565b6000801b610a61816112ec565b610a6e6000801b8361140c565b5050565b60606005805480602002602001604051908101604052809291908181526020018280548015610ac057602002820191906000526020600020905b815481526020019060010190808311610aac575b5050505050905090565b6060600060058054905067ffffffffffffffff811115610aed57610aec611d2d565b5b604051908082528060200260200182016040528015610b2657816020015b610b1361190a565b815260200190600190039081610b0b5790505b50905060005b600580549050811015610d8f576006600060058381548110610b5157610b50612682565b5b906000526020600020015481526020019081526020016000206040518061010001604052908160008201548152602001600182018054610b9090612341565b80601f0160208091040260200160405190810160405280929190818152602001828054610bbc90612341565b8015610c095780601f10610bde57610100808354040283529160200191610c09565b820191906000526020600020905b815481529060010190602001808311610bec57829003601f168201915b50505050508152602001600282018054610c2290612341565b80601f0160208091040260200160405190810160405280929190818152602001828054610c4e90612341565b8015610c9b5780601f10610c7057610100808354040283529160200191610c9b565b820191906000526020600020905b815481529060010190602001808311610c7e57829003601f168201915b50505050508152602001600382018054610cb490612341565b80601f0160208091040260200160405190810160405280929190818152602001828054610ce090612341565b8015610d2d5780601f10610d0257610100808354040283529160200191610d2d565b820191906000526020600020905b815481529060010190602001808311610d1057829003601f168201915b50505050508152602001600482015481526020016005820154815260200160068201548152602001600782015481525050828281518110610d7157610d70612682565b5b60200260200101819052508080610d87906126e0565b915050610b2c565b508091505090565b6000801b610da4816112ec565b6000600660008481526020019081526020016000206040518061010001604052908160008201548152602001600182018054610ddf90612341565b80601f0160208091040260200160405190810160405280929190818152602001828054610e0b90612341565b8015610e585780601f10610e2d57610100808354040283529160200191610e58565b820191906000526020600020905b815481529060010190602001808311610e3b57829003601f168201915b50505050508152602001600282018054610e7190612341565b80601f0160208091040260200160405190810160405280929190818152602001828054610e9d90612341565b8015610eea5780601f10610ebf57610100808354040283529160200191610eea565b820191906000526020600020905b815481529060010190602001808311610ecd57829003601f168201915b50505050508152602001600382018054610f0390612341565b80601f0160208091040260200160405190810160405280929190818152602001828054610f2f90612341565b8015610f7c5780601f10610f5157610100808354040283529160200191610f7c565b820191906000526020600020905b815481529060010190602001808311610f5f57829003601f168201915b50505050508152602001600482015481526020016005820154815260200160068201548152602001600782015481525050905080608001518160c0015110610ff9576040517f08c379a0000000000000000000000000000000000000000000000000000000008152600401610ff090612774565b60405180910390fd5b600260009054906101000a900473ffffffffffffffffffffffffffffffffffffffff1673ffffffffffffffffffffffffffffffffffffffff1663a9f16f3e8260000151836080015184606001518560e001516040518563ffffffff1660e01b815260040161106a9493929190612794565b600060405180830381600087803b15801561108457600080fd5b505af1158015611098573d6000803e3d6000fd5b505050506000600260009054906101000a900473ffffffffffffffffffffffffffffffffffffffff1673ffffffffffffffffffffffffffffffffffffffff166330a254a5856040518263ffffffff1660e01b81526004016110f991906127e0565b602060405180830381865afa158015611116573d6000803e3d6000fd5b505050506040513d601f19601f8201168201806040525081019061113a9190612810565b9050808260c00181815250508160066000868152602001908152602001600020600082015181600001556020820151816001019081611179919061251e565b50604082015181600201908161118f919061251e565b5060608201518160030190816111a5919061251e565b506080820151816004015560a0820151816005015560c0820151816006015560e0820151816007015590505050505050565b6000801b6111e4816112ec565b6111ec61158f565b50565b60006001600084815260200190815260200160002060000160008373ffffffffffffffffffffffffffffffffffffffff1673ffffffffffffffffffffffffffffffffffffffff16815260200190815260200160002060009054906101000a900460ff16905092915050565b6000801b81565b61126a8261060b565b611273816112ec565b61127d838361140c565b505050565b60007f01ffc9a7000000000000000000000000000000000000000000000000000000007bffffffffffffffffffffffffffffffffffffffffffffffffffffffff1916827bffffffffffffffffffffffffffffffffffffffffffffffffffffffff1916149050919050565b6112fd816112f8611404565b611631565b50565b61130a82826111ef565b6113dc57600180600084815260200190815260200160002060000160008373ffffffffffffffffffffffffffffffffffffffff1673ffffffffffffffffffffffffffffffffffffffff16815260200190815260200160002060006101000a81548160ff021916908315150217905550611381611404565b73ffffffffffffffffffffffffffffffffffffffff168173ffffffffffffffffffffffffffffffffffffffff16837f2f8788117e7eff1d82e926ec794901d17c78024a50270940304540a733656f0d60405160405180910390a45b5050565b600081600001549050919050565b6001816000016000828254019250508190555050565b600033905090565b61141682826111ef565b156114ea5760006001600084815260200190815260200160002060000160008373ffffffffffffffffffffffffffffffffffffffff1673ffffffffffffffffffffffffffffffffffffffff16815260200190815260200160002060006101000a81548160ff02191690831515021790555061148f611404565b73ffffffffffffffffffffffffffffffffffffffff168173ffffffffffffffffffffffffffffffffffffffff16837ff6391f5c32d9c69d2a47ea670b442974b53935d1edc7fd64eb21e047a839171b60405160405180910390a45b5050565b6114f6610a20565b611535576040517f08c379a000000000000000000000000000000000000000000000000000000000815260040161152c90612889565b60405180910390fd5b60008060006101000a81548160ff0219169083151502179055507f5db9ee0a495bf2e6ff9c91a7834c1ba4fdd244a5e8aa4e537bd38aeae4b073aa611578611404565b60405161158591906128b8565b60405180910390a1565b611597610a20565b156115d7576040517f08c379a00000000000000000000000000000000000000000000000000000000081526004016115ce9061291f565b60405180910390fd5b60016000806101000a81548160ff0219169083151502179055507f62e78cea01bee320cd4e420270b5ea74000d11b0c9f74754ebdbfc544b05a25861161a611404565b60405161162791906128b8565b60405180910390a1565b61163b82826111ef565b6116ca576116608173ffffffffffffffffffffffffffffffffffffffff1660146116ce565b61166e8360001c60206116ce565b60405160200161167f929190612a13565b6040516020818303038152906040526040517f08c379a00000000000000000000000000000000000000000000000000000000081526004016116c19190612a4d565b60405180910390fd5b5050565b6060600060028360026116e19190612a6f565b6116eb9190612ac9565b67ffffffffffffffff81111561170457611703611d2d565b5b6040519080825280601f01601f1916602001820160405280156117365781602001600182028036833780820191505090505b5090507f30000000000000000000000000000000000000000000000000000000000000008160008151811061176e5761176d612682565b5b60200101907effffffffffffffffffffffffffffffffffffffffffffffffffffffffffffff1916908160001a9053507f7800000000000000000000000000000000000000000000000000000000000000816001815181106117d2576117d1612682565b5b60200101907effffffffffffffffffffffffffffffffffffffffffffffffffffffffffffff1916908160001a905350600060018460026118129190612a6f565b61181c9190612ac9565b90505b60018111156118bc577f3031323334353637383961626364656600000000000000000000000000000000600f86166010811061185e5761185d612682565b5b1a60f81b82828151811061187557611874612682565b5b60200101907effffffffffffffffffffffffffffffffffffffffffffffffffffffffffffff1916908160001a905350600485901c9450806118b590612b1f565b905061181f565b5060008414611900576040517f08c379a00000000000000000000000000000000000000000000000000000000081526004016118f790612b94565b60405180910390fd5b8091505092915050565b60405180610100016040528060008152602001606081526020016060815260200160608152602001600081526020016000815260200160008152602001600081525090565b6000604051905090565b600080fd5b600080fd5b60007fffffffff0000000000000000000000000000000000000000000000000000000082169050919050565b61199881611963565b81146119a357600080fd5b50565b6000813590506119b58161198f565b92915050565b6000602082840312156119d1576119d0611959565b5b60006119df848285016119a6565b91505092915050565b60008115159050919050565b6119fd816119e8565b82525050565b6000602082019050611a1860008301846119f4565b92915050565b600073ffffffffffffffffffffffffffffffffffffffff82169050919050565b6000611a4982611a1e565b9050919050565b611a5981611a3e565b82525050565b6000602082019050611a746000830184611a50565b92915050565b6000819050919050565b611a8d81611a7a565b8114611a9857600080fd5b50565b600081359050611aaa81611a84565b92915050565b600060208284031215611ac657611ac5611959565b5b6000611ad484828501611a9b565b91505092915050565b611ae681611a7a565b82525050565b600081519050919050565b600082825260208201905092915050565b60005b83811015611b26578082015181840152602081019050611b0b565b83811115611b35576000848401525b50505050565b6000601f19601f8301169050919050565b6000611b5782611aec565b611b618185611af7565b9350611b71818560208601611b08565b611b7a81611b3b565b840191505092915050565b600061010082019050611b9b600083018b611add565b8181036020830152611bad818a611b4c565b90508181036040830152611bc18189611b4c565b90508181036060830152611bd58188611b4c565b9050611be46080830187611add565b611bf160a0830186611add565b611bfe60c0830185611add565b611c0b60e0830184611add565b9998505050505050505050565b6000819050919050565b611c2b81611c18565b8114611c3657600080fd5b50565b600081359050611c4881611c22565b92915050565b600060208284031215611c6457611c63611959565b5b6000611c7284828501611c39565b91505092915050565b611c8481611c18565b82525050565b6000602082019050611c9f6000830184611c7b565b92915050565b6000611cb082611a1e565b9050919050565b611cc081611ca5565b8114611ccb57600080fd5b50565b600081359050611cdd81611cb7565b92915050565b60008060408385031215611cfa57611cf9611959565b5b6000611d0885828601611c39565b9250506020611d1985828601611cce565b9150509250929050565b600080fd5b600080fd5b7f4e487b7100000000000000000000000000000000000000000000000000000000600052604160045260246000fd5b611d6582611b3b565b810181811067ffffffffffffffff82111715611d8457611d83611d2d565b5b80604052505050565b6000611d9761194f565b9050611da38282611d5c565b919050565b600067ffffffffffffffff821115611dc357611dc2611d2d565b5b611dcc82611b3b565b9050602081019050919050565b82818337600083830152505050565b6000611dfb611df684611da8565b611d8d565b905082815260208101848484011115611e1757611e16611d28565b5b611e22848285611dd9565b509392505050565b600082601f830112611e3f57611e3e611d23565b5b8135611e4f848260208601611de8565b91505092915050565b60008060008060008060c08789031215611e7557611e74611959565b5b600087013567ffffffffffffffff811115611e9357611e9261195e565b5b611e9f89828a01611e2a565b965050602087013567ffffffffffffffff811115611ec057611ebf61195e565b5b611ecc89828a01611e2a565b955050604087013567ffffffffffffffff811115611eed57611eec61195e565b5b611ef989828a01611e2a565b9450506060611f0a89828a01611a9b565b9350506080611f1b89828a01611a9b565b92505060a0611f2c89828a01611a9b565b9150509295509295509295565b611f4281611a7a565b82525050565b600082825260208201905092915050565b6000611f6482611aec565b611f6e8185611f48565b9350611f7e818560208601611b08565b611f8781611b3b565b840191505092915050565b600061010083016000830151611fab6000860182611f39565b5060208301518482036020860152611fc38282611f59565b91505060408301518482036040860152611fdd8282611f59565b91505060608301518482036060860152611ff78282611f59565b915050608083015161200c6080860182611f39565b5060a083015161201f60a0860182611f39565b5060c083015161203260c0860182611f39565b5060e083015161204560e0860182611f39565b508091505092915050565b6000602082019050818103600083015261206a8184611f92565b905092915050565b60006020828403121561208857612087611959565b5b600061209684828501611cce565b91505092915050565b600081519050919050565b600082825260208201905092915050565b6000819050602082019050919050565b60006120d78383611f39565b60208301905092915050565b6000602082019050919050565b60006120fb8261209f565b61210581856120aa565b9350612110836120bb565b8060005b8381101561214157815161212888826120cb565b9750612133836120e3565b925050600181019050612114565b5085935050505092915050565b6000602082019050818103600083015261216881846120f0565b905092915050565b600081519050919050565b600082825260208201905092915050565b6000819050602082019050919050565b6000610100830160008301516121b56000860182611f39565b50602083015184820360208601526121cd8282611f59565b915050604083015184820360408601526121e78282611f59565b915050606083015184820360608601526122018282611f59565b91505060808301516122166080860182611f39565b5060a083015161222960a0860182611f39565b5060c083015161223c60c0860182611f39565b5060e083015161224f60e0860182611f39565b508091505092915050565b6000612266838361219c565b905092915050565b6000602082019050919050565b600061228682612170565b612290818561217b565b9350836020820285016122a28561218c565b8060005b858110156122de57848403895281516122bf858261225a565b94506122ca8361226e565b925060208a019950506001810190506122a6565b50829750879550505050505092915050565b6000602082019050818103600083015261230a818461227b565b905092915050565b7f4e487b7100000000000000000000000000000000000000000000000000000000600052602260045260246000fd5b6000600282049050600182168061235957607f821691505b60208210810361236c5761236b612312565b5b50919050565b60008190508160005260206000209050919050565b60006020601f8301049050919050565b600082821b905092915050565b6000600883026123d47fffffffffffffffffffffffffffffffffffffffffffffffffffffffffffffffff82612397565b6123de8683612397565b95508019841693508086168417925050509392505050565b6000819050919050565b600061241b61241661241184611a7a565b6123f6565b611a7a565b9050919050565b6000819050919050565b61243583612400565b61244961244182612422565b8484546123a4565b825550505050565b600090565b61245e612451565b61246981848461242c565b505050565b5b8181101561248d57612482600082612456565b60018101905061246f565b5050565b601f8211156124d2576124a381612372565b6124ac84612387565b810160208510156124bb578190505b6124cf6124c785612387565b83018261246e565b50505b505050565b600082821c905092915050565b60006124f5600019846008026124d7565b1980831691505092915050565b600061250e83836124e4565b9150826002028217905092915050565b61252782611aec565b67ffffffffffffffff8111156125405761253f611d2d565b5b61254a8254612341565b612555828285612491565b600060209050601f8311600181146125885760008415612576578287015190505b6125808582612502565b8655506125e8565b601f19841661259686612372565b60005b828110156125be57848901518255600182019150602085019450602081019050612599565b868310156125db57848901516125d7601f8916826124e4565b8355505b6001600288020188555050505b505050505050565b7f416363657373436f6e74726f6c3a2063616e206f6e6c792072656e6f756e636560008201527f20726f6c657320666f722073656c660000000000000000000000000000000000602082015250565b600061264c602f83611af7565b9150612657826125f0565b604082019050919050565b6000602082019050818103600083015261267b8161263f565b9050919050565b7f4e487b7100000000000000000000000000000000000000000000000000000000600052603260045260246000fd5b7f4e487b7100000000000000000000000000000000000000000000000000000000600052601160045260246000fd5b60006126eb82611a7a565b91507fffffffffffffffffffffffffffffffffffffffffffffffffffffffffffffffff820361271d5761271c6126b1565b5b600182019050919050565b7f4d617463682069732066756c6c00000000000000000000000000000000000000600082015250565b600061275e600d83611af7565b915061276982612728565b602082019050919050565b6000602082019050818103600083015261278d81612751565b9050919050565b60006080820190506127a96000830187611add565b6127b66020830186611add565b81810360408301526127c88185611b4c565b90506127d76060830184611add565b95945050505050565b60006020820190506127f56000830184611add565b92915050565b60008151905061280a81611a84565b92915050565b60006020828403121561282657612825611959565b5b6000612834848285016127fb565b91505092915050565b7f5061757361626c653a206e6f7420706175736564000000000000000000000000600082015250565b6000612873601483611af7565b915061287e8261283d565b602082019050919050565b600060208201905081810360008301526128a281612866565b9050919050565b6128b281611ca5565b82525050565b60006020820190506128cd60008301846128a9565b92915050565b7f5061757361626c653a2070617573656400000000000000000000000000000000600082015250565b6000612909601083611af7565b9150612914826128d3565b602082019050919050565b60006020820190508181036000830152612938816128fc565b9050919050565b600081905092915050565b7f416363657373436f6e74726f6c3a206163636f756e7420000000000000000000600082015250565b600061298060178361293f565b915061298b8261294a565b601782019050919050565b60006129a182611aec565b6129ab818561293f565b93506129bb818560208601611b08565b80840191505092915050565b7f206973206d697373696e6720726f6c6520000000000000000000000000000000600082015250565b60006129fd60118361293f565b9150612a08826129c7565b601182019050919050565b6000612a1e82612973565b9150612a2a8285612996565b9150612a35826129f0565b9150612a418284612996565b91508190509392505050565b60006020820190508181036000830152612a678184611b4c565b905092915050565b6000612a7a82611a7a565b9150612a8583611a7a565b9250817fffffffffffffffffffffffffffffffffffffffffffffffffffffffffffffffff0483118215151615612abe57612abd6126b1565b5b828202905092915050565b6000612ad482611a7a565b9150612adf83611a7a565b9250827fffffffffffffffffffffffffffffffffffffffffffffffffffffffffffffffff03821115612b1457612b136126b1565b5b828201905092915050565b6000612b2a82611a7a565b915060008203612b3d57612b3c6126b1565b5b600182039050919050565b7f537472696e67733a20686578206c656e67746820696e73756666696369656e74600082015250565b6000612b7e602083611af7565b9150612b8982612b48565b602082019050919050565b60006020820190508181036000830152612bad81612b71565b905091905056fea2646970667358221220db5c8e225f35176971f7f2c6f398d2c69d7813d05f9a098c5cbce9ea787db55a64736f6c634300080f0033",
  "immutableReferences": {},
  "source": "// SPDX-License-Identifier: MIT\npragma solidity ^0.8.12;\n\nimport \"@openzeppelin/contracts/token/ERC721/ERC721.sol\";\nimport \"@openzeppelin/contracts/token/ERC721/extensions/ERC721Enumerable.sol\";\nimport \"@openzeppelin/contracts/token/ERC721/extensions/ERC721URIStorage.sol\";\nimport \"@openzeppelin/contracts/security/Pausable.sol\";\nimport \"@openzeppelin/contracts/access/AccessControl.sol\";\nimport \"@openzeppelin/contracts/token/ERC721/extensions/ERC721Burnable.sol\";\nimport \"@openzeppelin/contracts/utils/Counters.sol\";\nimport \"@openzeppelin/contracts/token/common/ERC2981.sol\";\n\nimport \"./CryptoTicketsMatchNFTs.sol\";\n\ncontract CryptoTicketsMatchManagement is Pausable, AccessControl {\n    CryptoTicketsMatchNFTs matchTicketsContract;\n\n    using Counters for Counters.Counter;\n    Counters.Counter private _matchNumberCounter;\n\n    address payable public club;\n\n    struct MatchInfo {\n        uint256 matchId;\n        string local;\n        string visitor;\n        string baseURI;\n        uint256 maxCapacity;\n        uint256 expirationDate;\n        uint256 totalSales;\n        uint256 carTotalTokens;\n    }\n\n    uint256[] matchIdList;\n    mapping(uint256 => MatchInfo) public matchList;\n\n    constructor(address matchTicketsContractAddresss) {\n        matchTicketsContract = CryptoTicketsMatchNFTs(\n            matchTicketsContractAddresss\n        );\n        _grantRole(DEFAULT_ADMIN_ROLE, msg.sender);\n    }\n\n    function addNewMatch(\n        string memory local,\n        string memory visitor,\n        string memory baseURI,\n        uint256 maxCapacity,\n        uint256 expirationDate,\n        uint256 carTotalTokens\n    ) public onlyRole(DEFAULT_ADMIN_ROLE) {\n        uint256 matchId = _matchNumberCounter.current();\n        MatchInfo memory matchInfo = MatchInfo(\n            matchId,\n            local,\n            visitor,\n            baseURI,\n            maxCapacity,\n            expirationDate,\n            0,\n            carTotalTokens\n        );\n        matchList[matchId] = matchInfo;\n        matchIdList.push(matchId);\n        _matchNumberCounter.increment();\n    }\n\n    function getAllMatchs() public view returns (MatchInfo[] memory) {\n        MatchInfo[] memory matchInfoList = new MatchInfo[](matchIdList.length);\n        for (uint256 i = 0; i < matchIdList.length; i++) {\n            matchInfoList[i] = matchList[matchIdList[i]];\n        }\n        return matchInfoList;\n    }\n\n    function getMatch(uint256 matchId) public view returns (MatchInfo memory) {\n        return matchList[matchId];\n    }\n\n    function getMatchIdList() public view returns (uint256[] memory) {\n        return matchIdList;\n    }\n\n    function pause() public onlyRole(DEFAULT_ADMIN_ROLE) {\n        _pause();\n    }\n\n    function unpause() public onlyRole(DEFAULT_ADMIN_ROLE) {\n        _unpause();\n    }\n\n    function airdropMatchTickets(uint256 matchId)\n        public\n        onlyRole(DEFAULT_ADMIN_ROLE)\n    {\n        MatchInfo memory matchInfo = matchList[matchId];\n        require(matchInfo.totalSales < matchInfo.maxCapacity, \"Match is full\");\n\n        matchTicketsContract.airdropMatchTickets(\n            matchInfo.matchId,\n            matchInfo.maxCapacity,\n            matchInfo.baseURI,\n            matchInfo.carTotalTokens\n        );\n\n        uint256 newTotalSales = matchTicketsContract\n            .getTotalMintedTicketsByMatchId(matchId);\n        matchInfo.totalSales = newTotalSales;\n        matchList[matchId] = matchInfo;\n    }\n\n    // function mintSaleMatchTicket(address to, string memory uri) public payable {\n    //     uint256 matchId = _matchIdCounter.current();\n    //     _matchIdCounter.increment();\n    //     _safeMint(to, matchId);\n    //     _setTokenURI(matchId, uri);\n    // }\n\n    function grantAdminRol(address account)\n        public\n        onlyRole(DEFAULT_ADMIN_ROLE)\n    {\n        _grantRole(DEFAULT_ADMIN_ROLE, account);\n    }\n\n    function revokeAdminRol(address account)\n        public\n        onlyRole(DEFAULT_ADMIN_ROLE)\n    {\n        _revokeRole(DEFAULT_ADMIN_ROLE, account);\n    }\n}\n",
  "sourcePath": "/Users/dosorio/Proyectos/Blockchain/SportTickets/contracts/CryptoTicketsMatchManagement.sol",
  "compiler": {
    "name": "solc",
    "version": "0.8.15+commit.e14f2714.Emscripten.clang"
  },
  "schemaVersion": "3.4.7",
  "updatedAt": "2022-07-04T23:18:31.112Z",
  "networkType": "ethereum",
  "devdoc": {
    "kind": "dev",
    "methods": {
      "getRoleAdmin(bytes32)": {
        "details": "Returns the admin role that controls `role`. See {grantRole} and {revokeRole}. To change a role's admin, use {_setRoleAdmin}."
      },
      "grantRole(bytes32,address)": {
        "details": "Grants `role` to `account`. If `account` had not been already granted `role`, emits a {RoleGranted} event. Requirements: - the caller must have ``role``'s admin role."
      },
      "hasRole(bytes32,address)": {
        "details": "Returns `true` if `account` has been granted `role`."
      },
      "paused()": {
        "details": "Returns true if the contract is paused, and false otherwise."
      },
      "renounceRole(bytes32,address)": {
        "details": "Revokes `role` from the calling account. Roles are often managed via {grantRole} and {revokeRole}: this function's purpose is to provide a mechanism for accounts to lose their privileges if they are compromised (such as when a trusted device is misplaced). If the calling account had been revoked `role`, emits a {RoleRevoked} event. Requirements: - the caller must be `account`."
      },
      "revokeRole(bytes32,address)": {
        "details": "Revokes `role` from `account`. If `account` had been granted `role`, emits a {RoleRevoked} event. Requirements: - the caller must have ``role``'s admin role."
      },
      "supportsInterface(bytes4)": {
        "details": "See {IERC165-supportsInterface}."
      }
    },
    "version": 1
  },
  "userdoc": {
    "kind": "user",
    "methods": {},
    "version": 1
  }
}