{
  "contractName": "CryptoTicketsMatchNFTs",
  "abi": [
    {
      "inputs": [
        {
          "internalType": "address",
          "name": "rewardsTicketAddress",
          "type": "address"
        }
      ],
      "stateMutability": "nonpayable",
      "type": "constructor"
    },
    {
      "anonymous": false,
      "inputs": [
        {
          "indexed": true,
          "internalType": "address",
          "name": "owner",
          "type": "address"
        },
        {
          "indexed": true,
          "internalType": "address",
          "name": "approved",
          "type": "address"
        },
        {
          "indexed": true,
          "internalType": "uint256",
          "name": "tokenId",
          "type": "uint256"
        }
      ],
      "name": "Approval",
      "type": "event"
    },
    {
      "anonymous": false,
      "inputs": [
        {
          "indexed": true,
          "internalType": "address",
          "name": "owner",
          "type": "address"
        },
        {
          "indexed": true,
          "internalType": "address",
          "name": "operator",
          "type": "address"
        },
        {
          "indexed": false,
          "internalType": "bool",
          "name": "approved",
          "type": "bool"
        }
      ],
      "name": "ApprovalForAll",
      "type": "event"
    },
    {
      "anonymous": false,
      "inputs": [
        {
          "indexed": true,
          "internalType": "address",
          "name": "sender",
          "type": "address"
        },
        {
          "indexed": true,
          "internalType": "address",
          "name": "clubAddress",
          "type": "address"
        }
      ],
      "name": "ClubAdminRoleGranted",
      "type": "event"
    },
    {
      "anonymous": false,
      "inputs": [
        {
          "indexed": true,
          "internalType": "address",
          "name": "sender",
          "type": "address"
        },
        {
          "indexed": true,
          "internalType": "address",
          "name": "clubAddress",
          "type": "address"
        }
      ],
      "name": "ClubAdminRoleRevoked",
      "type": "event"
    },
    {
      "anonymous": false,
      "inputs": [
        {
          "indexed": false,
          "internalType": "string",
          "name": "_message",
          "type": "string"
        },
        {
          "indexed": true,
          "internalType": "address",
          "name": "account",
          "type": "address"
        }
      ],
      "name": "MsgInfoAccountListKo",
      "type": "event"
    },
    {
      "anonymous": false,
      "inputs": [
        {
          "indexed": false,
          "internalType": "string",
          "name": "_message",
          "type": "string"
        },
        {
          "indexed": true,
          "internalType": "address",
          "name": "account",
          "type": "address"
        }
      ],
      "name": "MsgInfoAccountListOk",
      "type": "event"
    },
    {
      "anonymous": false,
      "inputs": [
        {
          "indexed": false,
          "internalType": "string",
          "name": "_message",
          "type": "string"
        },
        {
          "indexed": true,
          "internalType": "address",
          "name": "account",
          "type": "address"
        }
      ],
      "name": "MsgInfoMinted",
      "type": "event"
    },
    {
      "anonymous": false,
      "inputs": [
        {
          "indexed": false,
          "internalType": "address",
          "name": "account",
          "type": "address"
        }
      ],
      "name": "Paused",
      "type": "event"
    },
    {
      "anonymous": false,
      "inputs": [
        {
          "indexed": true,
          "internalType": "bytes32",
          "name": "role",
          "type": "bytes32"
        },
        {
          "indexed": true,
          "internalType": "bytes32",
          "name": "previousAdminRole",
          "type": "bytes32"
        },
        {
          "indexed": true,
          "internalType": "bytes32",
          "name": "newAdminRole",
          "type": "bytes32"
        }
      ],
      "name": "RoleAdminChanged",
      "type": "event"
    },
    {
      "anonymous": false,
      "inputs": [
        {
          "indexed": true,
          "internalType": "bytes32",
          "name": "role",
          "type": "bytes32"
        },
        {
          "indexed": true,
          "internalType": "address",
          "name": "account",
          "type": "address"
        },
        {
          "indexed": true,
          "internalType": "address",
          "name": "sender",
          "type": "address"
        }
      ],
      "name": "RoleGranted",
      "type": "event"
    },
    {
      "anonymous": false,
      "inputs": [
        {
          "indexed": true,
          "internalType": "bytes32",
          "name": "role",
          "type": "bytes32"
        },
        {
          "indexed": true,
          "internalType": "address",
          "name": "account",
          "type": "address"
        },
        {
          "indexed": true,
          "internalType": "address",
          "name": "sender",
          "type": "address"
        }
      ],
      "name": "RoleRevoked",
      "type": "event"
    },
    {
      "anonymous": false,
      "inputs": [
        {
          "indexed": false,
          "internalType": "string",
          "name": "_message",
          "type": "string"
        }
      ],
      "name": "Status",
      "type": "event"
    },
    {
      "anonymous": false,
      "inputs": [
        {
          "indexed": true,
          "internalType": "address",
          "name": "from",
          "type": "address"
        },
        {
          "indexed": true,
          "internalType": "address",
          "name": "to",
          "type": "address"
        },
        {
          "indexed": true,
          "internalType": "uint256",
          "name": "tokenId",
          "type": "uint256"
        }
      ],
      "name": "Transfer",
      "type": "event"
    },
    {
      "anonymous": false,
      "inputs": [
        {
          "indexed": false,
          "internalType": "address",
          "name": "account",
          "type": "address"
        }
      ],
      "name": "Unpaused",
      "type": "event"
    },
    {
      "inputs": [],
      "name": "ADMIN_CLUB_ROLE",
      "outputs": [
        {
          "internalType": "bytes32",
          "name": "",
          "type": "bytes32"
        }
      ],
      "stateMutability": "view",
      "type": "function",
      "constant": true
    },
    {
      "inputs": [],
      "name": "DEFAULT_ADMIN_ROLE",
      "outputs": [
        {
          "internalType": "bytes32",
          "name": "",
          "type": "bytes32"
        }
      ],
      "stateMutability": "view",
      "type": "function",
      "constant": true
    },
    {
      "inputs": [
        {
          "internalType": "address",
          "name": "to",
          "type": "address"
        },
        {
          "internalType": "uint256",
          "name": "tokenId",
          "type": "uint256"
        }
      ],
      "name": "approve",
      "outputs": [],
      "stateMutability": "nonpayable",
      "type": "function"
    },
    {
      "inputs": [
        {
          "internalType": "address",
          "name": "owner",
          "type": "address"
        }
      ],
      "name": "balanceOf",
      "outputs": [
        {
          "internalType": "uint256",
          "name": "",
          "type": "uint256"
        }
      ],
      "stateMutability": "view",
      "type": "function",
      "constant": true
    },
    {
      "inputs": [
        {
          "internalType": "uint256",
          "name": "tokenId",
          "type": "uint256"
        }
      ],
      "name": "burn",
      "outputs": [],
      "stateMutability": "nonpayable",
      "type": "function"
    },
    {
      "inputs": [],
      "name": "club",
      "outputs": [
        {
          "internalType": "address payable",
          "name": "",
          "type": "address"
        }
      ],
      "stateMutability": "view",
      "type": "function",
      "constant": true
    },
    {
      "inputs": [
        {
          "internalType": "uint256",
          "name": "tokenId",
          "type": "uint256"
        }
      ],
      "name": "getApproved",
      "outputs": [
        {
          "internalType": "address",
          "name": "",
          "type": "address"
        }
      ],
      "stateMutability": "view",
      "type": "function",
      "constant": true
    },
    {
      "inputs": [
        {
          "internalType": "bytes32",
          "name": "role",
          "type": "bytes32"
        }
      ],
      "name": "getRoleAdmin",
      "outputs": [
        {
          "internalType": "bytes32",
          "name": "",
          "type": "bytes32"
        }
      ],
      "stateMutability": "view",
      "type": "function",
      "constant": true
    },
    {
      "inputs": [
        {
          "internalType": "bytes32",
          "name": "role",
          "type": "bytes32"
        },
        {
          "internalType": "address",
          "name": "account",
          "type": "address"
        }
      ],
      "name": "grantRole",
      "outputs": [],
      "stateMutability": "nonpayable",
      "type": "function"
    },
    {
      "inputs": [
        {
          "internalType": "bytes32",
          "name": "role",
          "type": "bytes32"
        },
        {
          "internalType": "address",
          "name": "account",
          "type": "address"
        }
      ],
      "name": "hasRole",
      "outputs": [
        {
          "internalType": "bool",
          "name": "",
          "type": "bool"
        }
      ],
      "stateMutability": "view",
      "type": "function",
      "constant": true
    },
    {
      "inputs": [
        {
          "internalType": "address",
          "name": "owner",
          "type": "address"
        },
        {
          "internalType": "address",
          "name": "operator",
          "type": "address"
        }
      ],
      "name": "isApprovedForAll",
      "outputs": [
        {
          "internalType": "bool",
          "name": "",
          "type": "bool"
        }
      ],
      "stateMutability": "view",
      "type": "function",
      "constant": true
    },
    {
      "inputs": [
        {
          "internalType": "uint256",
          "name": "",
          "type": "uint256"
        }
      ],
      "name": "listSubscriber",
      "outputs": [
        {
          "internalType": "address",
          "name": "",
          "type": "address"
        }
      ],
      "stateMutability": "view",
      "type": "function",
      "constant": true
    },
    {
      "inputs": [],
      "name": "name",
      "outputs": [
        {
          "internalType": "string",
          "name": "",
          "type": "string"
        }
      ],
      "stateMutability": "view",
      "type": "function",
      "constant": true
    },
    {
      "inputs": [],
      "name": "newOwner",
      "outputs": [
        {
          "internalType": "address",
          "name": "",
          "type": "address"
        }
      ],
      "stateMutability": "view",
      "type": "function",
      "constant": true
    },
    {
      "inputs": [
        {
          "internalType": "uint256",
          "name": "tokenId",
          "type": "uint256"
        }
      ],
      "name": "ownerOf",
      "outputs": [
        {
          "internalType": "address",
          "name": "",
          "type": "address"
        }
      ],
      "stateMutability": "view",
      "type": "function",
      "constant": true
    },
    {
      "inputs": [],
      "name": "paused",
      "outputs": [
        {
          "internalType": "bool",
          "name": "",
          "type": "bool"
        }
      ],
      "stateMutability": "view",
      "type": "function",
      "constant": true
    },
    {
      "inputs": [
        {
          "internalType": "bytes32",
          "name": "role",
          "type": "bytes32"
        },
        {
          "internalType": "address",
          "name": "account",
          "type": "address"
        }
      ],
      "name": "renounceRole",
      "outputs": [],
      "stateMutability": "nonpayable",
      "type": "function"
    },
    {
      "inputs": [
        {
          "internalType": "bytes32",
          "name": "role",
          "type": "bytes32"
        },
        {
          "internalType": "address",
          "name": "account",
          "type": "address"
        }
      ],
      "name": "revokeRole",
      "outputs": [],
      "stateMutability": "nonpayable",
      "type": "function"
    },
    {
      "inputs": [
        {
          "internalType": "uint256",
          "name": "_tokenId",
          "type": "uint256"
        },
        {
          "internalType": "uint256",
          "name": "_salePrice",
          "type": "uint256"
        }
      ],
      "name": "royaltyInfo",
      "outputs": [
        {
          "internalType": "address",
          "name": "",
          "type": "address"
        },
        {
          "internalType": "uint256",
          "name": "",
          "type": "uint256"
        }
      ],
      "stateMutability": "view",
      "type": "function",
      "constant": true
    },
    {
      "inputs": [
        {
          "internalType": "address",
          "name": "from",
          "type": "address"
        },
        {
          "internalType": "address",
          "name": "to",
          "type": "address"
        },
        {
          "internalType": "uint256",
          "name": "tokenId",
          "type": "uint256"
        }
      ],
      "name": "safeTransferFrom",
      "outputs": [],
      "stateMutability": "nonpayable",
      "type": "function"
    },
    {
      "inputs": [
        {
          "internalType": "address",
          "name": "from",
          "type": "address"
        },
        {
          "internalType": "address",
          "name": "to",
          "type": "address"
        },
        {
          "internalType": "uint256",
          "name": "tokenId",
          "type": "uint256"
        },
        {
          "internalType": "bytes",
          "name": "_data",
          "type": "bytes"
        }
      ],
      "name": "safeTransferFrom",
      "outputs": [],
      "stateMutability": "nonpayable",
      "type": "function"
    },
    {
      "inputs": [
        {
          "internalType": "address",
          "name": "operator",
          "type": "address"
        },
        {
          "internalType": "bool",
          "name": "approved",
          "type": "bool"
        }
      ],
      "name": "setApprovalForAll",
      "outputs": [],
      "stateMutability": "nonpayable",
      "type": "function"
    },
    {
      "inputs": [],
      "name": "symbol",
      "outputs": [
        {
          "internalType": "string",
          "name": "",
          "type": "string"
        }
      ],
      "stateMutability": "view",
      "type": "function",
      "constant": true
    },
    {
      "inputs": [
        {
          "internalType": "uint256",
          "name": "index",
          "type": "uint256"
        }
      ],
      "name": "tokenByIndex",
      "outputs": [
        {
          "internalType": "uint256",
          "name": "",
          "type": "uint256"
        }
      ],
      "stateMutability": "view",
      "type": "function",
      "constant": true
    },
    {
      "inputs": [
        {
          "internalType": "address",
          "name": "owner",
          "type": "address"
        },
        {
          "internalType": "uint256",
          "name": "index",
          "type": "uint256"
        }
      ],
      "name": "tokenOfOwnerByIndex",
      "outputs": [
        {
          "internalType": "uint256",
          "name": "",
          "type": "uint256"
        }
      ],
      "stateMutability": "view",
      "type": "function",
      "constant": true
    },
    {
      "inputs": [],
      "name": "totalSupply",
      "outputs": [
        {
          "internalType": "uint256",
          "name": "",
          "type": "uint256"
        }
      ],
      "stateMutability": "view",
      "type": "function",
      "constant": true
    },
    {
      "inputs": [
        {
          "internalType": "address",
          "name": "from",
          "type": "address"
        },
        {
          "internalType": "address",
          "name": "to",
          "type": "address"
        },
        {
          "internalType": "uint256",
          "name": "tokenId",
          "type": "uint256"
        }
      ],
      "name": "transferFrom",
      "outputs": [],
      "stateMutability": "nonpayable",
      "type": "function"
    },
    {
      "inputs": [],
      "name": "contractURI",
      "outputs": [
        {
          "internalType": "string",
          "name": "",
          "type": "string"
        }
      ],
      "stateMutability": "pure",
      "type": "function",
      "constant": true
    },
    {
      "inputs": [],
      "name": "pause",
      "outputs": [],
      "stateMutability": "nonpayable",
      "type": "function"
    },
    {
      "inputs": [],
      "name": "unpause",
      "outputs": [],
      "stateMutability": "nonpayable",
      "type": "function"
    },
    {
      "inputs": [
        {
          "internalType": "address",
          "name": "to",
          "type": "address"
        },
        {
          "internalType": "string",
          "name": "uri",
          "type": "string"
        }
      ],
      "name": "mintTicket",
      "outputs": [],
      "stateMutability": "payable",
      "type": "function",
      "payable": true
    },
    {
      "inputs": [
        {
          "internalType": "string",
          "name": "uri",
          "type": "string"
        }
      ],
      "name": "mintMatch",
      "outputs": [],
      "stateMutability": "nonpayable",
      "type": "function"
    },
    {
      "inputs": [
        {
          "internalType": "uint256",
          "name": "tokenId",
          "type": "uint256"
        }
      ],
      "name": "burnTicket",
      "outputs": [],
      "stateMutability": "nonpayable",
      "type": "function"
    },
    {
      "inputs": [
        {
          "internalType": "uint256",
          "name": "matchId",
          "type": "uint256"
        }
      ],
      "name": "tokenURI",
      "outputs": [
        {
          "internalType": "string",
          "name": "",
          "type": "string"
        }
      ],
      "stateMutability": "view",
      "type": "function",
      "constant": true
    },
    {
      "inputs": [
        {
          "internalType": "bytes4",
          "name": "interfaceId",
          "type": "bytes4"
        }
      ],
      "name": "supportsInterface",
      "outputs": [
        {
          "internalType": "bool",
          "name": "",
          "type": "bool"
        }
      ],
      "stateMutability": "view",
      "type": "function",
      "constant": true
    },
    {
      "inputs": [
        {
          "internalType": "address",
          "name": "account",
          "type": "address"
        }
      ],
      "name": "grantAdminRol",
      "outputs": [],
      "stateMutability": "nonpayable",
      "type": "function"
    },
    {
      "inputs": [
        {
          "internalType": "address",
          "name": "account",
          "type": "address"
        }
      ],
      "name": "grantClubRol",
      "outputs": [],
      "stateMutability": "nonpayable",
      "type": "function"
    },
    {
      "inputs": [
        {
          "internalType": "address",
          "name": "account",
          "type": "address"
        }
      ],
      "name": "revokeClubRol",
      "outputs": [],
      "stateMutability": "nonpayable",
      "type": "function"
    },
    {
      "inputs": [
        {
          "internalType": "address",
          "name": "account",
          "type": "address"
        }
      ],
      "name": "addAddress",
      "outputs": [],
      "stateMutability": "nonpayable",
      "type": "function"
    },
    {
      "inputs": [],
      "name": "getAddressInfo",
      "outputs": [
        {
          "internalType": "address[]",
          "name": "",
          "type": "address[]"
        }
      ],
      "stateMutability": "view",
      "type": "function",
      "constant": true
    },
    {
      "inputs": [
        {
          "internalType": "address",
          "name": "value",
          "type": "address"
        }
      ],
      "name": "findAddress",
      "outputs": [
        {
          "internalType": "uint256",
          "name": "",
          "type": "uint256"
        }
      ],
      "stateMutability": "view",
      "type": "function",
      "constant": true
    },
    {
      "inputs": [
        {
          "internalType": "address",
          "name": "value",
          "type": "address"
        }
      ],
      "name": "removeAddress",
      "outputs": [],
      "stateMutability": "nonpayable",
      "type": "function"
    },
    {
      "inputs": [
        {
          "internalType": "uint256",
          "name": "i",
          "type": "uint256"
        }
      ],
      "name": "removeAddressByIndex",
      "outputs": [],
      "stateMutability": "nonpayable",
      "type": "function"
    },
    {
      "inputs": [
        {
          "internalType": "address",
          "name": "_receiver",
          "type": "address"
        },
        {
          "internalType": "uint96",
          "name": "_royaltyFeesInBips",
          "type": "uint96"
        }
      ],
      "name": "setRoyaltyInfo",
      "outputs": [],
      "stateMutability": "nonpayable",
      "type": "function"
    }
  ],
  "bytecode": "0x60806040526103e8601660006101000a8154816bffffffffffffffffffffffff02191690836bffffffffffffffffffffffff1602179055503480156200004457600080fd5b5060405162006ed338038062006ed383398181016040528101906200006a9190620008bd565b6040518060400160405280601681526020017f43727970746f5469636b6574734d617463684e465473000000000000000000008152506040518060400160405280600581526020017f43544b4d4e0000000000000000000000000000000000000000000000000000008152508160009081620000e7919062000b69565b508060019081620000f9919062000b69565b5050506000600b60006101000a81548160ff02191690831515021790555080600f60006101000a81548173ffffffffffffffffffffffffffffffffffffffff021916908373ffffffffffffffffffffffffffffffffffffffff1602179055506200016d6000801b33620001d260201b60201c565b6200019f7f9894090c012e113e817b2d99a7f6ad3e666491f10820f12b8bc4b139f2ea06bb33620001d260201b60201c565b620001cb33601660009054906101000a90046bffffffffffffffffffffffff16620002c460201b60201c565b50620010f7565b620001e48282620002f060201b60201c565b620002c0576001600c600084815260200190815260200160002060000160008373ffffffffffffffffffffffffffffffffffffffff1673ffffffffffffffffffffffffffffffffffffffff16815260200190815260200160002060006101000a81548160ff021916908315150217905550620002656200035b60201b60201c565b73ffffffffffffffffffffffffffffffffffffffff168173ffffffffffffffffffffffffffffffffffffffff16837f2f8788117e7eff1d82e926ec794901d17c78024a50270940304540a733656f0d60405160405180910390a45b5050565b6000801b620002d9816200036360201b60201c565b620002eb83836200038760201b60201c565b505050565b6000600c600084815260200190815260200160002060000160008373ffffffffffffffffffffffffffffffffffffffff1673ffffffffffffffffffffffffffffffffffffffff16815260200190815260200160002060009054906101000a900460ff16905092915050565b600033905090565b6200038481620003786200035b60201b60201c565b6200052a60201b60201c565b50565b62000397620005ee60201b60201c565b6bffffffffffffffffffffffff16816bffffffffffffffffffffffff161115620003f8576040517f08c379a0000000000000000000000000000000000000000000000000000000008152600401620003ef9062000cd7565b60405180910390fd5b600073ffffffffffffffffffffffffffffffffffffffff168273ffffffffffffffffffffffffffffffffffffffff16036200046a576040517f08c379a0000000000000000000000000000000000000000000000000000000008152600401620004619062000d49565b60405180910390fd5b60405180604001604052808373ffffffffffffffffffffffffffffffffffffffff168152602001826bffffffffffffffffffffffff16815250600d60008201518160000160006101000a81548173ffffffffffffffffffffffffffffffffffffffff021916908373ffffffffffffffffffffffffffffffffffffffff16021790555060208201518160000160146101000a8154816bffffffffffffffffffffffff02191690836bffffffffffffffffffffffff1602179055509050505050565b6200053c8282620002f060201b60201c565b620005ea576200056f8173ffffffffffffffffffffffffffffffffffffffff166014620005f860201b62001e311760201c565b6200058a8360001c6020620005f860201b62001e311760201c565b6040516020016200059d92919062000e83565b6040516020818303038152906040526040517f08c379a0000000000000000000000000000000000000000000000000000000008152600401620005e1919062000f17565b60405180910390fd5b5050565b6000612710905090565b6060600060028360026200060d919062000f6a565b62000619919062000fcb565b67ffffffffffffffff811115620006355762000634620008fa565b5b6040519080825280601f01601f191660200182016040528015620006685781602001600182028036833780820191505090505b5090507f300000000000000000000000000000000000000000000000000000000000000081600081518110620006a357620006a262001028565b5b60200101907effffffffffffffffffffffffffffffffffffffffffffffffffffffffffffff1916908160001a9053507f7800000000000000000000000000000000000000000000000000000000000000816001815181106200070a576200070962001028565b5b60200101907effffffffffffffffffffffffffffffffffffffffffffffffffffffffffffff1916908160001a905350600060018460026200074c919062000f6a565b62000758919062000fcb565b90505b600181111562000802577f3031323334353637383961626364656600000000000000000000000000000000600f8616601081106200079e576200079d62001028565b5b1a60f81b828281518110620007b857620007b762001028565b5b60200101907effffffffffffffffffffffffffffffffffffffffffffffffffffffffffffff1916908160001a905350600485901c945080620007fa9062001057565b90506200075b565b506000841462000849576040517f08c379a00000000000000000000000000000000000000000000000000000000081526004016200084090620010d5565b60405180910390fd5b8091505092915050565b600080fd5b600073ffffffffffffffffffffffffffffffffffffffff82169050919050565b6000620008858262000858565b9050919050565b620008978162000878565b8114620008a357600080fd5b50565b600081519050620008b7816200088c565b92915050565b600060208284031215620008d657620008d562000853565b5b6000620008e684828501620008a6565b91505092915050565b600081519050919050565b7f4e487b7100000000000000000000000000000000000000000000000000000000600052604160045260246000fd5b7f4e487b7100000000000000000000000000000000000000000000000000000000600052602260045260246000fd5b600060028204905060018216806200097157607f821691505b60208210810362000987576200098662000929565b5b50919050565b60008190508160005260206000209050919050565b60006020601f8301049050919050565b600082821b905092915050565b600060088302620009f17fffffffffffffffffffffffffffffffffffffffffffffffffffffffffffffffff82620009b2565b620009fd8683620009b2565b95508019841693508086168417925050509392505050565b6000819050919050565b6000819050919050565b600062000a4a62000a4462000a3e8462000a15565b62000a1f565b62000a15565b9050919050565b6000819050919050565b62000a668362000a29565b62000a7e62000a758262000a51565b848454620009bf565b825550505050565b600090565b62000a9562000a86565b62000aa281848462000a5b565b505050565b5b8181101562000aca5762000abe60008262000a8b565b60018101905062000aa8565b5050565b601f82111562000b195762000ae3816200098d565b62000aee84620009a2565b8101602085101562000afe578190505b62000b1662000b0d85620009a2565b83018262000aa7565b50505b505050565b600082821c905092915050565b600062000b3e6000198460080262000b1e565b1980831691505092915050565b600062000b59838362000b2b565b9150826002028217905092915050565b62000b7482620008ef565b67ffffffffffffffff81111562000b905762000b8f620008fa565b5b62000b9c825462000958565b62000ba982828562000ace565b600060209050601f83116001811462000be1576000841562000bcc578287015190505b62000bd8858262000b4b565b86555062000c48565b601f19841662000bf1866200098d565b60005b8281101562000c1b5784890151825560018201915060208501945060208101905062000bf4565b8683101562000c3b578489015162000c37601f89168262000b2b565b8355505b6001600288020188555050505b505050505050565b600082825260208201905092915050565b7f455243323938313a20726f79616c7479206665652077696c6c2065786365656460008201527f2073616c65507269636500000000000000000000000000000000000000000000602082015250565b600062000cbf602a8362000c50565b915062000ccc8262000c61565b604082019050919050565b6000602082019050818103600083015262000cf28162000cb0565b9050919050565b7f455243323938313a20696e76616c696420726563656976657200000000000000600082015250565b600062000d3160198362000c50565b915062000d3e8262000cf9565b602082019050919050565b6000602082019050818103600083015262000d648162000d22565b9050919050565b600081905092915050565b7f416363657373436f6e74726f6c3a206163636f756e7420000000000000000000600082015250565b600062000dae60178362000d6b565b915062000dbb8262000d76565b601782019050919050565b60005b8381101562000de657808201518184015260208101905062000dc9565b8381111562000df6576000848401525b50505050565b600062000e0982620008ef565b62000e15818562000d6b565b935062000e2781856020860162000dc6565b80840191505092915050565b7f206973206d697373696e6720726f6c6520000000000000000000000000000000600082015250565b600062000e6b60118362000d6b565b915062000e788262000e33565b601182019050919050565b600062000e908262000d9f565b915062000e9e828562000dfc565b915062000eab8262000e5c565b915062000eb9828462000dfc565b91508190509392505050565b6000601f19601f8301169050919050565b600062000ee382620008ef565b62000eef818562000c50565b935062000f0181856020860162000dc6565b62000f0c8162000ec5565b840191505092915050565b6000602082019050818103600083015262000f33818462000ed6565b905092915050565b7f4e487b7100000000000000000000000000000000000000000000000000000000600052601160045260246000fd5b600062000f778262000a15565b915062000f848362000a15565b9250817fffffffffffffffffffffffffffffffffffffffffffffffffffffffffffffffff048311821515161562000fc05762000fbf62000f3b565b5b828202905092915050565b600062000fd88262000a15565b915062000fe58362000a15565b9250827fffffffffffffffffffffffffffffffffffffffffffffffffffffffffffffffff038211156200101d576200101c62000f3b565b5b828201905092915050565b7f4e487b7100000000000000000000000000000000000000000000000000000000600052603260045260246000fd5b6000620010648262000a15565b9150600082036200107a576200107962000f3b565b5b600182039050919050565b7f537472696e67733a20686578206c656e67746820696e73756666696369656e74600082015250565b6000620010bd60208362000c50565b9150620010ca8262001085565b602082019050919050565b60006020820190508181036000830152620010f081620010ae565b9050919050565b615dcc80620011076000396000f3fe6080604052600436106102675760003560e01c80635047611711610144578063a22cb465116100b6578063d356a8791161007a578063d356a87914610952578063d4ee1d901461097b578063d547741f146109a6578063e8a3d485146109cf578063e985e9c5146109fa578063fe5a066614610a3757610267565b8063a22cb46514610871578063a476b73d1461089a578063a9757b53146108c3578063b88d4fde146108ec578063c87b56dd1461091557610267565b80637367c0d0116101085780637367c0d0146107615780638456cb591461078a57806391d14854146107a157806395d89b41146107de5780639b6dd9ae14610809578063a217fddf1461084657610267565b806350476117146106775780635388842c146106a05780635c975abb146106bc5780636352211e146106e757806370a082311461072457610267565b80632f2ff15d116101dd5780633f4ba83a116101a15780633f4ba83a1461057d57806342842e0e1461059457806342966c68146105bd5780634ba79dfe146105e65780634f2a36ab1461060f5780634f6ccce71461063a57610267565b80632f2ff15d1461049a5780632f745c59146104c357806336568abe1461050057806338eada1c146105295780633bf084511461055257610267565b8063095ea7b31161022f578063095ea7b3146103775780630efd0973146103a057806318160ddd146103cb57806323b872dd146103f6578063248a9ca31461041f5780632a55205a1461045c57610267565b806301ffc9a71461026c57806302fa7c47146102a95780630309aca3146102d257806306fdde031461030f578063081812fc1461033a575b600080fd5b34801561027857600080fd5b50610293600480360381019061028e9190613da4565b610a60565b6040516102a09190613dec565b60405180910390f35b3480156102b557600080fd5b506102d060048036038101906102cb9190613ea9565b610a72565b005b3480156102de57600080fd5b506102f960048036038101906102f49190613ee9565b610a8e565b6040516103069190613f2f565b60405180910390f35b34801561031b57600080fd5b50610324610b23565b6040516103319190613fe3565b60405180910390f35b34801561034657600080fd5b50610361600480360381019061035c9190614031565b610bb5565b60405161036e919061406d565b60405180910390f35b34801561038357600080fd5b5061039e60048036038101906103999190614088565b610c3a565b005b3480156103ac57600080fd5b506103b5610d51565b6040516103c291906140e9565b60405180910390f35b3480156103d757600080fd5b506103e0610d77565b6040516103ed9190613f2f565b60405180910390f35b34801561040257600080fd5b5061041d60048036038101906104189190614104565b610d84565b005b34801561042b57600080fd5b506104466004803603810190610441919061418d565b610de4565b60405161045391906141c9565b60405180910390f35b34801561046857600080fd5b50610483600480360381019061047e91906141e4565b610e04565b604051610491929190614224565b60405180910390f35b3480156104a657600080fd5b506104c160048036038101906104bc919061424d565b610fee565b005b3480156104cf57600080fd5b506104ea60048036038101906104e59190614088565b61100f565b6040516104f79190613f2f565b60405180910390f35b34801561050c57600080fd5b506105276004803603810190610522919061424d565b6110b4565b005b34801561053557600080fd5b50610550600480360381019061054b9190613ee9565b611137565b005b34801561055e57600080fd5b506105676113bc565b60405161057491906141c9565b60405180910390f35b34801561058957600080fd5b506105926113e0565b005b3480156105a057600080fd5b506105bb60048036038101906105b69190614104565b611415565b005b3480156105c957600080fd5b506105e460048036038101906105df9190614031565b611435565b005b3480156105f257600080fd5b5061060d60048036038101906106089190613ee9565b611491565b005b34801561061b57600080fd5b506106246114ab565b604051610631919061434b565b60405180910390f35b34801561064657600080fd5b50610661600480360381019061065c9190614031565b611539565b60405161066e9190613f2f565b60405180910390f35b34801561068357600080fd5b5061069e60048036038101906106999190613ee9565b6115aa565b005b6106ba60048036038101906106b591906144a2565b61163f565b005b3480156106c857600080fd5b506106d1611670565b6040516106de9190613dec565b60405180910390f35b3480156106f357600080fd5b5061070e60048036038101906107099190614031565b611687565b60405161071b919061406d565b60405180910390f35b34801561073057600080fd5b5061074b60048036038101906107469190613ee9565b611738565b6040516107589190613f2f565b60405180910390f35b34801561076d57600080fd5b5061078860048036038101906107839190613ee9565b6117ef565b005b34801561079657600080fd5b5061079f61180d565b005b3480156107ad57600080fd5b506107c860048036038101906107c3919061424d565b611842565b6040516107d59190613dec565b60405180910390f35b3480156107ea57600080fd5b506107f36118ad565b6040516108009190613fe3565b60405180910390f35b34801561081557600080fd5b50610830600480360381019061082b9190614031565b61193f565b60405161083d919061406d565b60405180910390f35b34801561085257600080fd5b5061085b61197e565b60405161086891906141c9565b60405180910390f35b34801561087d57600080fd5b506108986004803603810190610893919061452a565b611985565b005b3480156108a657600080fd5b506108c160048036038101906108bc9190614031565b61199b565b005b3480156108cf57600080fd5b506108ea60048036038101906108e5919061456a565b611a29565b005b3480156108f857600080fd5b50610913600480360381019061090e9190614654565b611b0f565b005b34801561092157600080fd5b5061093c60048036038101906109379190614031565b611b71565b6040516109499190613fe3565b60405180910390f35b34801561095e57600080fd5b5061097960048036038101906109749190614031565b611b83565b005b34801561098757600080fd5b50610990611ca1565b60405161099d919061406d565b60405180910390f35b3480156109b257600080fd5b506109cd60048036038101906109c8919061424d565b611cc7565b005b3480156109db57600080fd5b506109e4611ce8565b6040516109f19190613fe3565b60405180910390f35b348015610a0657600080fd5b50610a216004803603810190610a1c91906146d7565b611d08565b604051610a2e9190613dec565b60405180910390f35b348015610a4357600080fd5b50610a5e6004803603810190610a599190613ee9565b611d9c565b005b6000610a6b8261206d565b9050919050565b6000801b610a7f816120e7565b610a8983836120fb565b505050565b600080600090505b8273ffffffffffffffffffffffffffffffffffffffff1660128281548110610ac157610ac0614717565b5b9060005260206000200160009054906101000a900473ffffffffffffffffffffffffffffffffffffffff1673ffffffffffffffffffffffffffffffffffffffff1614610b1a578080610b1290614775565b915050610a96565b80915050919050565b606060008054610b32906147ec565b80601f0160208091040260200160405190810160405280929190818152602001828054610b5e906147ec565b8015610bab5780601f10610b8057610100808354040283529160200191610bab565b820191906000526020600020905b815481529060010190602001808311610b8e57829003601f168201915b5050505050905090565b6000610bc082612290565b610bff576040517f08c379a0000000000000000000000000000000000000000000000000000000008152600401610bf69061488f565b60405180910390fd5b6004600083815260200190815260200160002060009054906101000a900473ffffffffffffffffffffffffffffffffffffffff169050919050565b6000610c4582611687565b90508073ffffffffffffffffffffffffffffffffffffffff168373ffffffffffffffffffffffffffffffffffffffff1603610cb5576040517f08c379a0000000000000000000000000000000000000000000000000000000008152600401610cac90614921565b60405180910390fd5b8073ffffffffffffffffffffffffffffffffffffffff16610cd46122fc565b73ffffffffffffffffffffffffffffffffffffffff161480610d035750610d0281610cfd6122fc565b611d08565b5b610d42576040517f08c379a0000000000000000000000000000000000000000000000000000000008152600401610d39906149b3565b60405180910390fd5b610d4c8383612304565b505050565b601360009054906101000a900473ffffffffffffffffffffffffffffffffffffffff1681565b6000600880549050905090565b610d95610d8f6122fc565b826123bd565b610dd4576040517f08c379a0000000000000000000000000000000000000000000000000000000008152600401610dcb90614a45565b60405180910390fd5b610ddf83838361249b565b505050565b6000600c6000838152602001908152602001600020600101549050919050565b6000806000600e60008681526020019081526020016000206040518060400160405290816000820160009054906101000a900473ffffffffffffffffffffffffffffffffffffffff1673ffffffffffffffffffffffffffffffffffffffff1673ffffffffffffffffffffffffffffffffffffffff1681526020016000820160149054906101000a90046bffffffffffffffffffffffff166bffffffffffffffffffffffff166bffffffffffffffffffffffff16815250509050600073ffffffffffffffffffffffffffffffffffffffff16816000015173ffffffffffffffffffffffffffffffffffffffff1603610f9957600d6040518060400160405290816000820160009054906101000a900473ffffffffffffffffffffffffffffffffffffffff1673ffffffffffffffffffffffffffffffffffffffff1673ffffffffffffffffffffffffffffffffffffffff1681526020016000820160149054906101000a90046bffffffffffffffffffffffff166bffffffffffffffffffffffff166bffffffffffffffffffffffff168152505090505b6000610fa3612701565b6bffffffffffffffffffffffff1682602001516bffffffffffffffffffffffff1686610fcf9190614a65565b610fd99190614aee565b90508160000151819350935050509250929050565b610ff782610de4565b611000816120e7565b61100a838361270b565b505050565b600061101a83611738565b821061105b576040517f08c379a000000000000000000000000000000000000000000000000000000000815260040161105290614b91565b60405180910390fd5b600660008473ffffffffffffffffffffffffffffffffffffffff1673ffffffffffffffffffffffffffffffffffffffff168152602001908152602001600020600083815260200190815260200160002054905092915050565b6110bc6122fc565b73ffffffffffffffffffffffffffffffffffffffff168173ffffffffffffffffffffffffffffffffffffffff1614611129576040517f08c379a000000000000000000000000000000000000000000000000000000000815260040161112090614c23565b60405180910390fd5b61113382826127ec565b5050565b6000801b611144816120e7565b6000601280549050111561130857600080600090505b600160128054905061116c9190614c43565b81101561124c578373ffffffffffffffffffffffffffffffffffffffff166012828154811061119e5761119d614717565b5b9060005260206000200160009054906101000a900473ffffffffffffffffffffffffffffffffffffffff1673ffffffffffffffffffffffffffffffffffffffff1603611235578373ffffffffffffffffffffffffffffffffffffffff167f05dd5f48f06cf107e99388a5ae26ff1f6abd57b4fce48e9bb71dd335c35aa2e560405161122890614cc3565b60405180910390a261124c565b60009150808061124490614775565b91505061115a565b5080611302576012839080600181540180825580915050600190039060005260206000200160009091909190916101000a81548173ffffffffffffffffffffffffffffffffffffffff021916908373ffffffffffffffffffffffffffffffffffffffff1602179055508273ffffffffffffffffffffffffffffffffffffffff167f8c5a800b232da4f063717d255d358a72560b410212770dd78b66b4e23133f77c6040516112f990614d55565b60405180910390a25b506113b8565b6012829080600181540180825580915050600190039060005260206000200160009091909190916101000a81548173ffffffffffffffffffffffffffffffffffffffff021916908373ffffffffffffffffffffffffffffffffffffffff1602179055508173ffffffffffffffffffffffffffffffffffffffff167f8c5a800b232da4f063717d255d358a72560b410212770dd78b66b4e23133f77c6040516113af90614d55565b60405180910390a25b5050565b7f9894090c012e113e817b2d99a7f6ad3e666491f10820f12b8bc4b139f2ea06bb81565b7f9894090c012e113e817b2d99a7f6ad3e666491f10820f12b8bc4b139f2ea06bb61140a816120e7565b6114126128ce565b50565b61143083838360405180602001604052806000815250611b0f565b505050565b6114466114406122fc565b826123bd565b611485576040517f08c379a000000000000000000000000000000000000000000000000000000000815260040161147c90614de7565b60405180910390fd5b61148e81612970565b50565b600061149c82610a8e565b90506114a781611b83565b5050565b6060601280548060200260200160405190810160405280929190818152602001828054801561152f57602002820191906000526020600020905b8160009054906101000a900473ffffffffffffffffffffffffffffffffffffffff1673ffffffffffffffffffffffffffffffffffffffff16815260200190600101908083116114e5575b5050505050905090565b6000611543610d77565b8210611584576040517f08c379a000000000000000000000000000000000000000000000000000000000815260040161157b90614e79565b60405180910390fd5b6008828154811061159857611597614717565b5b90600052602060002001549050919050565b6000801b6115b7816120e7565b6115e17f9894090c012e113e817b2d99a7f6ad3e666491f10820f12b8bc4b139f2ea06bb8361270b565b8173ffffffffffffffffffffffffffffffffffffffff163373ffffffffffffffffffffffffffffffffffffffff167ff25ae518afe49b3c8f1a0f93c0adc26c177ff270839cfdc2f23250dea3a025bc60405160405180910390a35050565b600061164b601061297c565b9050611657601061298a565b61166183826129a0565b61166b81836129be565b505050565b6000600b60009054906101000a900460ff16905090565b6000806002600084815260200190815260200160002060009054906101000a900473ffffffffffffffffffffffffffffffffffffffff169050600073ffffffffffffffffffffffffffffffffffffffff168173ffffffffffffffffffffffffffffffffffffffff160361172f576040517f08c379a000000000000000000000000000000000000000000000000000000000815260040161172690614f0b565b60405180910390fd5b80915050919050565b60008073ffffffffffffffffffffffffffffffffffffffff168273ffffffffffffffffffffffffffffffffffffffff16036117a8576040517f08c379a000000000000000000000000000000000000000000000000000000000815260040161179f90614f9d565b60405180910390fd5b600360008373ffffffffffffffffffffffffffffffffffffffff1673ffffffffffffffffffffffffffffffffffffffff168152602001908152602001600020549050919050565b6000801b6117fc816120e7565b6118096000801b8361270b565b5050565b7f9894090c012e113e817b2d99a7f6ad3e666491f10820f12b8bc4b139f2ea06bb611837816120e7565b61183f612a2b565b50565b6000600c600084815260200190815260200160002060000160008373ffffffffffffffffffffffffffffffffffffffff1673ffffffffffffffffffffffffffffffffffffffff16815260200190815260200160002060009054906101000a900460ff16905092915050565b6060600180546118bc906147ec565b80601f01602080910402602001604051908101604052809291908181526020018280546118e8906147ec565b80156119355780601f1061190a57610100808354040283529160200191611935565b820191906000526020600020905b81548152906001019060200180831161191857829003601f168201915b5050505050905090565b6012818154811061194f57600080fd5b906000526020600020016000915054906101000a900473ffffffffffffffffffffffffffffffffffffffff1681565b6000801b81565b6119976119906122fc565b8383612ace565b5050565b6119a481612970565b600f60009054906101000a900473ffffffffffffffffffffffffffffffffffffffff1673ffffffffffffffffffffffffffffffffffffffff1663174f57af6040518163ffffffff1660e01b8152600401600060405180830381600087803b158015611a0e57600080fd5b505af1158015611a22573d6000803e3d6000fd5b5050505050565b7f9894090c012e113e817b2d99a7f6ad3e666491f10820f12b8bc4b139f2ea06bb611a53816120e7565b60005b601280549050811015611abe57611aab60128281548110611a7a57611a79614717565b5b9060005260206000200160009054906101000a900473ffffffffffffffffffffffffffffffffffffffff1684612c3a565b8080611ab690614775565b915050611a56565b503373ffffffffffffffffffffffffffffffffffffffff167f4553e13ff316f97f423d1ae7592854a3db7cbe812630d7fe99993903df0e028e604051611b039061502f565b60405180910390a25050565b611b20611b1a6122fc565b836123bd565b611b5f576040517f08c379a0000000000000000000000000000000000000000000000000000000008152600401611b5690614a45565b60405180910390fd5b611b6b84848484612c6b565b50505050565b6060611b7c82612cc7565b9050919050565b5b6001601280549050611b969190614c43565b811015611c57576012600182611bac919061504f565b81548110611bbd57611bbc614717565b5b9060005260206000200160009054906101000a900473ffffffffffffffffffffffffffffffffffffffff1660128281548110611bfc57611bfb614717565b5b9060005260206000200160006101000a81548173ffffffffffffffffffffffffffffffffffffffff021916908373ffffffffffffffffffffffffffffffffffffffff1602179055508080611c4f90614775565b915050611b84565b6012805480611c6957611c686150a5565b5b6001900381819060005260206000200160006101000a81549073ffffffffffffffffffffffffffffffffffffffff0219169055905550565b601460009054906101000a900473ffffffffffffffffffffffffffffffffffffffff1681565b611cd082610de4565b611cd9816120e7565b611ce383836127ec565b505050565b6060604051806080016040528060518152602001615d4660519139905090565b6000600560008473ffffffffffffffffffffffffffffffffffffffff1673ffffffffffffffffffffffffffffffffffffffff16815260200190815260200160002060008373ffffffffffffffffffffffffffffffffffffffff1673ffffffffffffffffffffffffffffffffffffffff16815260200190815260200160002060009054906101000a900460ff16905092915050565b6000801b611da9816120e7565b611dd37f9894090c012e113e817b2d99a7f6ad3e666491f10820f12b8bc4b139f2ea06bb836127ec565b8173ffffffffffffffffffffffffffffffffffffffff163373ffffffffffffffffffffffffffffffffffffffff167feca259f65afeb664520e27bcf53a29a7a276df0172960fd342f01ff705ba3b9560405160405180910390a35050565b606060006002836002611e449190614a65565b611e4e919061504f565b67ffffffffffffffff811115611e6757611e66614377565b5b6040519080825280601f01601f191660200182016040528015611e995781602001600182028036833780820191505090505b5090507f300000000000000000000000000000000000000000000000000000000000000081600081518110611ed157611ed0614717565b5b60200101907effffffffffffffffffffffffffffffffffffffffffffffffffffffffffffff1916908160001a9053507f780000000000000000000000000000000000000000000000000000000000000081600181518110611f3557611f34614717565b5b60200101907effffffffffffffffffffffffffffffffffffffffffffffffffffffffffffff1916908160001a90535060006001846002611f759190614a65565b611f7f919061504f565b90505b600181111561201f577f3031323334353637383961626364656600000000000000000000000000000000600f861660108110611fc157611fc0614717565b5b1a60f81b828281518110611fd857611fd7614717565b5b60200101907effffffffffffffffffffffffffffffffffffffffffffffffffffffffffffff1916908160001a905350600485901c945080612018906150d4565b9050611f82565b5060008414612063576040517f08c379a000000000000000000000000000000000000000000000000000000000815260040161205a90615149565b60405180910390fd5b8091505092915050565b60007f2a55205a000000000000000000000000000000000000000000000000000000007bffffffffffffffffffffffffffffffffffffffffffffffffffffffff1916827bffffffffffffffffffffffffffffffffffffffffffffffffffffffff191614806120e057506120df82612e18565b5b9050919050565b6120f8816120f36122fc565b612e92565b50565b612103612701565b6bffffffffffffffffffffffff16816bffffffffffffffffffffffff161115612161576040517f08c379a0000000000000000000000000000000000000000000000000000000008152600401612158906151db565b60405180910390fd5b600073ffffffffffffffffffffffffffffffffffffffff168273ffffffffffffffffffffffffffffffffffffffff16036121d0576040517f08c379a00000000000000000000000000000000000000000000000000000000081526004016121c790615247565b60405180910390fd5b60405180604001604052808373ffffffffffffffffffffffffffffffffffffffff168152602001826bffffffffffffffffffffffff16815250600d60008201518160000160006101000a81548173ffffffffffffffffffffffffffffffffffffffff021916908373ffffffffffffffffffffffffffffffffffffffff16021790555060208201518160000160146101000a8154816bffffffffffffffffffffffff02191690836bffffffffffffffffffffffff1602179055509050505050565b60008073ffffffffffffffffffffffffffffffffffffffff166002600084815260200190815260200160002060009054906101000a900473ffffffffffffffffffffffffffffffffffffffff1673ffffffffffffffffffffffffffffffffffffffff1614159050919050565b600033905090565b816004600083815260200190815260200160002060006101000a81548173ffffffffffffffffffffffffffffffffffffffff021916908373ffffffffffffffffffffffffffffffffffffffff160217905550808273ffffffffffffffffffffffffffffffffffffffff1661237783611687565b73ffffffffffffffffffffffffffffffffffffffff167f8c5be1e5ebec7d5bd14f71427d1e84f3dd0314c0f7b2291e5b200ac8c7c3b92560405160405180910390a45050565b60006123c882612290565b612407576040517f08c379a00000000000000000000000000000000000000000000000000000000081526004016123fe906152d9565b60405180910390fd5b600061241283611687565b90508073ffffffffffffffffffffffffffffffffffffffff168473ffffffffffffffffffffffffffffffffffffffff16148061245457506124538185611d08565b5b8061249257508373ffffffffffffffffffffffffffffffffffffffff1661247a84610bb5565b73ffffffffffffffffffffffffffffffffffffffff16145b91505092915050565b8273ffffffffffffffffffffffffffffffffffffffff166124bb82611687565b73ffffffffffffffffffffffffffffffffffffffff1614612511576040517f08c379a00000000000000000000000000000000000000000000000000000000081526004016125089061536b565b60405180910390fd5b600073ffffffffffffffffffffffffffffffffffffffff168273ffffffffffffffffffffffffffffffffffffffff1603612580576040517f08c379a0000000000000000000000000000000000000000000000000000000008152600401612577906153fd565b60405180910390fd5b61258b838383612f2f565b612596600082612304565b6001600360008573ffffffffffffffffffffffffffffffffffffffff1673ffffffffffffffffffffffffffffffffffffffff16815260200190815260200160002060008282546125e69190614c43565b925050819055506001600360008473ffffffffffffffffffffffffffffffffffffffff1673ffffffffffffffffffffffffffffffffffffffff168152602001908152602001600020600082825461263d919061504f565b92505081905550816002600083815260200190815260200160002060006101000a81548173ffffffffffffffffffffffffffffffffffffffff021916908373ffffffffffffffffffffffffffffffffffffffff160217905550808273ffffffffffffffffffffffffffffffffffffffff168473ffffffffffffffffffffffffffffffffffffffff167fddf252ad1be2c89b69c2b068fc378daa952ba7f163c4a11628f55a4df523b3ef60405160405180910390a46126fc838383612f87565b505050565b6000612710905090565b6127158282611842565b6127e8576001600c600084815260200190815260200160002060000160008373ffffffffffffffffffffffffffffffffffffffff1673ffffffffffffffffffffffffffffffffffffffff16815260200190815260200160002060006101000a81548160ff02191690831515021790555061278d6122fc565b73ffffffffffffffffffffffffffffffffffffffff168173ffffffffffffffffffffffffffffffffffffffff16837f2f8788117e7eff1d82e926ec794901d17c78024a50270940304540a733656f0d60405160405180910390a45b5050565b6127f68282611842565b156128ca576000600c600084815260200190815260200160002060000160008373ffffffffffffffffffffffffffffffffffffffff1673ffffffffffffffffffffffffffffffffffffffff16815260200190815260200160002060006101000a81548160ff02191690831515021790555061286f6122fc565b73ffffffffffffffffffffffffffffffffffffffff168173ffffffffffffffffffffffffffffffffffffffff16837ff6391f5c32d9c69d2a47ea670b442974b53935d1edc7fd64eb21e047a839171b60405160405180910390a45b5050565b6128d6611670565b612915576040517f08c379a000000000000000000000000000000000000000000000000000000000815260040161290c90615469565b60405180910390fd5b6000600b60006101000a81548160ff0219169083151502179055507f5db9ee0a495bf2e6ff9c91a7834c1ba4fdd244a5e8aa4e537bd38aeae4b073aa6129596122fc565b604051612966919061406d565b60405180910390a1565b61297981612f8c565b50565b600081600001549050919050565b6001816000016000828254019250508190555050565b6129ba828260405180602001604052806000815250612fdf565b5050565b6129c782612290565b612a06576040517f08c379a00000000000000000000000000000000000000000000000000000000081526004016129fd906154fb565b60405180910390fd5b80600a60008481526020019081526020016000209081612a2691906156c7565b505050565b612a33611670565b15612a73576040517f08c379a0000000000000000000000000000000000000000000000000000000008152600401612a6a906157e5565b60405180910390fd5b6001600b60006101000a81548160ff0219169083151502179055507f62e78cea01bee320cd4e420270b5ea74000d11b0c9f74754ebdbfc544b05a258612ab76122fc565b604051612ac4919061406d565b60405180910390a1565b8173ffffffffffffffffffffffffffffffffffffffff168373ffffffffffffffffffffffffffffffffffffffff1603612b3c576040517f08c379a0000000000000000000000000000000000000000000000000000000008152600401612b3390615851565b60405180910390fd5b80600560008573ffffffffffffffffffffffffffffffffffffffff1673ffffffffffffffffffffffffffffffffffffffff16815260200190815260200160002060008473ffffffffffffffffffffffffffffffffffffffff1673ffffffffffffffffffffffffffffffffffffffff16815260200190815260200160002060006101000a81548160ff0219169083151502179055508173ffffffffffffffffffffffffffffffffffffffff168373ffffffffffffffffffffffffffffffffffffffff167f17307eab39ab6107e8899845ad3d59bd9653f200f220920489ca2b5937696c3183604051612c2d9190613dec565b60405180910390a3505050565b6000612c46601061297c565b9050612c52601061298a565b612c5c83826129a0565b612c6681836129be565b505050565b612c7684848461249b565b612c828484848461303a565b612cc1576040517f08c379a0000000000000000000000000000000000000000000000000000000008152600401612cb8906158e3565b60405180910390fd5b50505050565b6060612cd282612290565b612d11576040517f08c379a0000000000000000000000000000000000000000000000000000000008152600401612d0890615975565b60405180910390fd5b6000600a60008481526020019081526020016000208054612d31906147ec565b80601f0160208091040260200160405190810160405280929190818152602001828054612d5d906147ec565b8015612daa5780601f10612d7f57610100808354040283529160200191612daa565b820191906000526020600020905b815481529060010190602001808311612d8d57829003601f168201915b505050505090506000612dbb6131c1565b90506000815103612dd0578192505050612e13565b600082511115612e05578082604051602001612ded9291906159d1565b60405160208183030381529060405292505050612e13565b612e0e846131d8565b925050505b919050565b60007f7965db0b000000000000000000000000000000000000000000000000000000007bffffffffffffffffffffffffffffffffffffffffffffffffffffffff1916827bffffffffffffffffffffffffffffffffffffffffffffffffffffffff19161480612e8b5750612e8a8261327f565b5b9050919050565b612e9c8282611842565b612f2b57612ec18173ffffffffffffffffffffffffffffffffffffffff166014611e31565b612ecf8360001c6020611e31565b604051602001612ee0929190615a8d565b6040516020818303038152906040526040517f08c379a0000000000000000000000000000000000000000000000000000000008152600401612f229190613fe3565b60405180910390fd5b5050565b612f37611670565b15612f77576040517f08c379a0000000000000000000000000000000000000000000000000000000008152600401612f6e906157e5565b60405180910390fd5b612f828383836132f9565b505050565b505050565b612f958161340b565b6000600a60008381526020019081526020016000208054612fb5906147ec565b905014612fdc57600a60008281526020019081526020016000206000612fdb9190613cdb565b5b50565b612fe98383613528565b612ff6600084848461303a565b613035576040517f08c379a000000000000000000000000000000000000000000000000000000000815260040161302c906158e3565b60405180910390fd5b505050565b600061305b8473ffffffffffffffffffffffffffffffffffffffff16613701565b156131b4578373ffffffffffffffffffffffffffffffffffffffff1663150b7a026130846122fc565b8786866040518563ffffffff1660e01b81526004016130a69493929190615b1c565b6020604051808303816000875af19250505080156130e257506040513d601f19601f820116820180604052508101906130df9190615b7d565b60015b613164573d8060008114613112576040519150601f19603f3d011682016040523d82523d6000602084013e613117565b606091505b50600081510361315c576040517f08c379a0000000000000000000000000000000000000000000000000000000008152600401613153906158e3565b60405180910390fd5b805181602001fd5b63150b7a0260e01b7bffffffffffffffffffffffffffffffffffffffffffffffffffffffff1916817bffffffffffffffffffffffffffffffffffffffffffffffffffffffff1916149150506131b9565b600190505b949350505050565b606060405180602001604052806000815250905090565b60606131e382612290565b613222576040517f08c379a000000000000000000000000000000000000000000000000000000000815260040161321990615c1c565b60405180910390fd5b600061322c6131c1565b9050600081511161324c5760405180602001604052806000815250613277565b8061325684613724565b6040516020016132679291906159d1565b6040516020818303038152906040525b915050919050565b60007f780e9d63000000000000000000000000000000000000000000000000000000007bffffffffffffffffffffffffffffffffffffffffffffffffffffffff1916827bffffffffffffffffffffffffffffffffffffffffffffffffffffffff191614806132f257506132f182613884565b5b9050919050565b613304838383613966565b600073ffffffffffffffffffffffffffffffffffffffff168373ffffffffffffffffffffffffffffffffffffffff1603613346576133418161396b565b613385565b8173ffffffffffffffffffffffffffffffffffffffff168373ffffffffffffffffffffffffffffffffffffffff16146133845761338383826139b4565b5b5b600073ffffffffffffffffffffffffffffffffffffffff168273ffffffffffffffffffffffffffffffffffffffff16036133c7576133c281613b21565b613406565b8273ffffffffffffffffffffffffffffffffffffffff168273ffffffffffffffffffffffffffffffffffffffff1614613405576134048282613bf2565b5b5b505050565b600061341682611687565b905061342481600084612f2f565b61342f600083612304565b6001600360008373ffffffffffffffffffffffffffffffffffffffff1673ffffffffffffffffffffffffffffffffffffffff168152602001908152602001600020600082825461347f9190614c43565b925050819055506002600083815260200190815260200160002060006101000a81549073ffffffffffffffffffffffffffffffffffffffff021916905581600073ffffffffffffffffffffffffffffffffffffffff168273ffffffffffffffffffffffffffffffffffffffff167fddf252ad1be2c89b69c2b068fc378daa952ba7f163c4a11628f55a4df523b3ef60405160405180910390a461352481600084612f87565b5050565b600073ffffffffffffffffffffffffffffffffffffffff168273ffffffffffffffffffffffffffffffffffffffff1603613597576040517f08c379a000000000000000000000000000000000000000000000000000000000815260040161358e90615c88565b60405180910390fd5b6135a081612290565b156135e0576040517f08c379a00000000000000000000000000000000000000000000000000000000081526004016135d790615cf4565b60405180910390fd5b6135ec60008383612f2f565b6001600360008473ffffffffffffffffffffffffffffffffffffffff1673ffffffffffffffffffffffffffffffffffffffff168152602001908152602001600020600082825461363c919061504f565b92505081905550816002600083815260200190815260200160002060006101000a81548173ffffffffffffffffffffffffffffffffffffffff021916908373ffffffffffffffffffffffffffffffffffffffff160217905550808273ffffffffffffffffffffffffffffffffffffffff16600073ffffffffffffffffffffffffffffffffffffffff167fddf252ad1be2c89b69c2b068fc378daa952ba7f163c4a11628f55a4df523b3ef60405160405180910390a46136fd60008383612f87565b5050565b6000808273ffffffffffffffffffffffffffffffffffffffff163b119050919050565b60606000820361376b576040518060400160405280600181526020017f3000000000000000000000000000000000000000000000000000000000000000815250905061387f565b600082905060005b6000821461379d57808061378690614775565b915050600a826137969190614aee565b9150613773565b60008167ffffffffffffffff8111156137b9576137b8614377565b5b6040519080825280601f01601f1916602001820160405280156137eb5781602001600182028036833780820191505090505b5090505b60008514613878576001826138049190614c43565b9150600a856138139190615d14565b603061381f919061504f565b60f81b81838151811061383557613834614717565b5b60200101907effffffffffffffffffffffffffffffffffffffffffffffffffffffffffffff1916908160001a905350600a856138719190614aee565b94506137ef565b8093505050505b919050565b60007f80ac58cd000000000000000000000000000000000000000000000000000000007bffffffffffffffffffffffffffffffffffffffffffffffffffffffff1916827bffffffffffffffffffffffffffffffffffffffffffffffffffffffff1916148061394f57507f5b5e139f000000000000000000000000000000000000000000000000000000007bffffffffffffffffffffffffffffffffffffffffffffffffffffffff1916827bffffffffffffffffffffffffffffffffffffffffffffffffffffffff1916145b8061395f575061395e82613c71565b5b9050919050565b505050565b6008805490506009600083815260200190815260200160002081905550600881908060018154018082558091505060019003906000526020600020016000909190919091505550565b600060016139c184611738565b6139cb9190614c43565b9050600060076000848152602001908152602001600020549050818114613ab0576000600660008673ffffffffffffffffffffffffffffffffffffffff1673ffffffffffffffffffffffffffffffffffffffff168152602001908152602001600020600084815260200190815260200160002054905080600660008773ffffffffffffffffffffffffffffffffffffffff1673ffffffffffffffffffffffffffffffffffffffff168152602001908152602001600020600084815260200190815260200160002081905550816007600083815260200190815260200160002081905550505b6007600084815260200190815260200160002060009055600660008573ffffffffffffffffffffffffffffffffffffffff1673ffffffffffffffffffffffffffffffffffffffff16815260200190815260200160002060008381526020019081526020016000206000905550505050565b60006001600880549050613b359190614c43565b9050600060096000848152602001908152602001600020549050600060088381548110613b6557613b64614717565b5b906000526020600020015490508060088381548110613b8757613b86614717565b5b906000526020600020018190555081600960008381526020019081526020016000208190555060096000858152602001908152602001600020600090556008805480613bd657613bd56150a5565b5b6001900381819060005260206000200160009055905550505050565b6000613bfd83611738565b905081600660008573ffffffffffffffffffffffffffffffffffffffff1673ffffffffffffffffffffffffffffffffffffffff168152602001908152602001600020600083815260200190815260200160002081905550806007600084815260200190815260200160002081905550505050565b60007f01ffc9a7000000000000000000000000000000000000000000000000000000007bffffffffffffffffffffffffffffffffffffffffffffffffffffffff1916827bffffffffffffffffffffffffffffffffffffffffffffffffffffffff1916149050919050565b508054613ce7906147ec565b6000825580601f10613cf95750613d18565b601f016020900490600052602060002090810190613d179190613d1b565b5b50565b5b80821115613d34576000816000905550600101613d1c565b5090565b6000604051905090565b600080fd5b600080fd5b60007fffffffff0000000000000000000000000000000000000000000000000000000082169050919050565b613d8181613d4c565b8114613d8c57600080fd5b50565b600081359050613d9e81613d78565b92915050565b600060208284031215613dba57613db9613d42565b5b6000613dc884828501613d8f565b91505092915050565b60008115159050919050565b613de681613dd1565b82525050565b6000602082019050613e016000830184613ddd565b92915050565b600073ffffffffffffffffffffffffffffffffffffffff82169050919050565b6000613e3282613e07565b9050919050565b613e4281613e27565b8114613e4d57600080fd5b50565b600081359050613e5f81613e39565b92915050565b60006bffffffffffffffffffffffff82169050919050565b613e8681613e65565b8114613e9157600080fd5b50565b600081359050613ea381613e7d565b92915050565b60008060408385031215613ec057613ebf613d42565b5b6000613ece85828601613e50565b9250506020613edf85828601613e94565b9150509250929050565b600060208284031215613eff57613efe613d42565b5b6000613f0d84828501613e50565b91505092915050565b6000819050919050565b613f2981613f16565b82525050565b6000602082019050613f446000830184613f20565b92915050565b600081519050919050565b600082825260208201905092915050565b60005b83811015613f84578082015181840152602081019050613f69565b83811115613f93576000848401525b50505050565b6000601f19601f8301169050919050565b6000613fb582613f4a565b613fbf8185613f55565b9350613fcf818560208601613f66565b613fd881613f99565b840191505092915050565b60006020820190508181036000830152613ffd8184613faa565b905092915050565b61400e81613f16565b811461401957600080fd5b50565b60008135905061402b81614005565b92915050565b60006020828403121561404757614046613d42565b5b60006140558482850161401c565b91505092915050565b61406781613e27565b82525050565b6000602082019050614082600083018461405e565b92915050565b6000806040838503121561409f5761409e613d42565b5b60006140ad85828601613e50565b92505060206140be8582860161401c565b9150509250929050565b60006140d382613e07565b9050919050565b6140e3816140c8565b82525050565b60006020820190506140fe60008301846140da565b92915050565b60008060006060848603121561411d5761411c613d42565b5b600061412b86828701613e50565b935050602061413c86828701613e50565b925050604061414d8682870161401c565b9150509250925092565b6000819050919050565b61416a81614157565b811461417557600080fd5b50565b60008135905061418781614161565b92915050565b6000602082840312156141a3576141a2613d42565b5b60006141b184828501614178565b91505092915050565b6141c381614157565b82525050565b60006020820190506141de60008301846141ba565b92915050565b600080604083850312156141fb576141fa613d42565b5b60006142098582860161401c565b925050602061421a8582860161401c565b9150509250929050565b6000604082019050614239600083018561405e565b6142466020830184613f20565b9392505050565b6000806040838503121561426457614263613d42565b5b600061427285828601614178565b925050602061428385828601613e50565b9150509250929050565b600081519050919050565b600082825260208201905092915050565b6000819050602082019050919050565b6142c281613e27565b82525050565b60006142d483836142b9565b60208301905092915050565b6000602082019050919050565b60006142f88261428d565b6143028185614298565b935061430d836142a9565b8060005b8381101561433e57815161432588826142c8565b9750614330836142e0565b925050600181019050614311565b5085935050505092915050565b6000602082019050818103600083015261436581846142ed565b905092915050565b600080fd5b600080fd5b7f4e487b7100000000000000000000000000000000000000000000000000000000600052604160045260246000fd5b6143af82613f99565b810181811067ffffffffffffffff821117156143ce576143cd614377565b5b80604052505050565b60006143e1613d38565b90506143ed82826143a6565b919050565b600067ffffffffffffffff82111561440d5761440c614377565b5b61441682613f99565b9050602081019050919050565b82818337600083830152505050565b6000614445614440846143f2565b6143d7565b90508281526020810184848401111561446157614460614372565b5b61446c848285614423565b509392505050565b600082601f8301126144895761448861436d565b5b8135614499848260208601614432565b91505092915050565b600080604083850312156144b9576144b8613d42565b5b60006144c785828601613e50565b925050602083013567ffffffffffffffff8111156144e8576144e7613d47565b5b6144f485828601614474565b9150509250929050565b61450781613dd1565b811461451257600080fd5b50565b600081359050614524816144fe565b92915050565b6000806040838503121561454157614540613d42565b5b600061454f85828601613e50565b925050602061456085828601614515565b9150509250929050565b6000602082840312156145805761457f613d42565b5b600082013567ffffffffffffffff81111561459e5761459d613d47565b5b6145aa84828501614474565b91505092915050565b600067ffffffffffffffff8211156145ce576145cd614377565b5b6145d782613f99565b9050602081019050919050565b60006145f76145f2846145b3565b6143d7565b90508281526020810184848401111561461357614612614372565b5b61461e848285614423565b509392505050565b600082601f83011261463b5761463a61436d565b5b813561464b8482602086016145e4565b91505092915050565b6000806000806080858703121561466e5761466d613d42565b5b600061467c87828801613e50565b945050602061468d87828801613e50565b935050604061469e8782880161401c565b925050606085013567ffffffffffffffff8111156146bf576146be613d47565b5b6146cb87828801614626565b91505092959194509250565b600080604083850312156146ee576146ed613d42565b5b60006146fc85828601613e50565b925050602061470d85828601613e50565b9150509250929050565b7f4e487b7100000000000000000000000000000000000000000000000000000000600052603260045260246000fd5b7f4e487b7100000000000000000000000000000000000000000000000000000000600052601160045260246000fd5b600061478082613f16565b91507fffffffffffffffffffffffffffffffffffffffffffffffffffffffffffffffff82036147b2576147b1614746565b5b600182019050919050565b7f4e487b7100000000000000000000000000000000000000000000000000000000600052602260045260246000fd5b6000600282049050600182168061480457607f821691505b602082108103614817576148166147bd565b5b50919050565b7f4552433732313a20617070726f76656420717565727920666f72206e6f6e657860008201527f697374656e7420746f6b656e0000000000000000000000000000000000000000602082015250565b6000614879602c83613f55565b91506148848261481d565b604082019050919050565b600060208201905081810360008301526148a88161486c565b9050919050565b7f4552433732313a20617070726f76616c20746f2063757272656e74206f776e6560008201527f7200000000000000000000000000000000000000000000000000000000000000602082015250565b600061490b602183613f55565b9150614916826148af565b604082019050919050565b6000602082019050818103600083015261493a816148fe565b9050919050565b7f4552433732313a20617070726f76652063616c6c6572206973206e6f74206f7760008201527f6e6572206e6f7220617070726f76656420666f7220616c6c0000000000000000602082015250565b600061499d603883613f55565b91506149a882614941565b604082019050919050565b600060208201905081810360008301526149cc81614990565b9050919050565b7f4552433732313a207472616e736665722063616c6c6572206973206e6f74206f60008201527f776e6572206e6f7220617070726f766564000000000000000000000000000000602082015250565b6000614a2f603183613f55565b9150614a3a826149d3565b604082019050919050565b60006020820190508181036000830152614a5e81614a22565b9050919050565b6000614a7082613f16565b9150614a7b83613f16565b9250817fffffffffffffffffffffffffffffffffffffffffffffffffffffffffffffffff0483118215151615614ab457614ab3614746565b5b828202905092915050565b7f4e487b7100000000000000000000000000000000000000000000000000000000600052601260045260246000fd5b6000614af982613f16565b9150614b0483613f16565b925082614b1457614b13614abf565b5b828204905092915050565b7f455243373231456e756d657261626c653a206f776e657220696e646578206f7560008201527f74206f6620626f756e6473000000000000000000000000000000000000000000602082015250565b6000614b7b602b83613f55565b9150614b8682614b1f565b604082019050919050565b60006020820190508181036000830152614baa81614b6e565b9050919050565b7f416363657373436f6e74726f6c3a2063616e206f6e6c792072656e6f756e636560008201527f20726f6c657320666f722073656c660000000000000000000000000000000000602082015250565b6000614c0d602f83613f55565b9150614c1882614bb1565b604082019050919050565b60006020820190508181036000830152614c3c81614c00565b9050919050565b6000614c4e82613f16565b9150614c5983613f16565b925082821015614c6c57614c6b614746565b5b828203905092915050565b7f4163636f756e742f6164647265737320726567697374657265642e0000000000600082015250565b6000614cad601b83613f55565b9150614cb882614c77565b602082019050919050565b60006020820190508181036000830152614cdc81614ca0565b9050919050565b7f546865206163636f756e742f6164647265737320686173206265656e2073756360008201527f6365737366756c6c7920726567697374657265642e0000000000000000000000602082015250565b6000614d3f603583613f55565b9150614d4a82614ce3565b604082019050919050565b60006020820190508181036000830152614d6e81614d32565b9050919050565b7f4552433732314275726e61626c653a2063616c6c6572206973206e6f74206f7760008201527f6e6572206e6f7220617070726f76656400000000000000000000000000000000602082015250565b6000614dd1603083613f55565b9150614ddc82614d75565b604082019050919050565b60006020820190508181036000830152614e0081614dc4565b9050919050565b7f455243373231456e756d657261626c653a20676c6f62616c20696e646578206f60008201527f7574206f6620626f756e64730000000000000000000000000000000000000000602082015250565b6000614e63602c83613f55565b9150614e6e82614e07565b604082019050919050565b60006020820190508181036000830152614e9281614e56565b9050919050565b7f4552433732313a206f776e657220717565727920666f72206e6f6e657869737460008201527f656e7420746f6b656e0000000000000000000000000000000000000000000000602082015250565b6000614ef5602983613f55565b9150614f0082614e99565b604082019050919050565b60006020820190508181036000830152614f2481614ee8565b9050919050565b7f4552433732313a2062616c616e636520717565727920666f7220746865207a6560008201527f726f206164647265737300000000000000000000000000000000000000000000602082015250565b6000614f87602a83613f55565b9150614f9282614f2b565b604082019050919050565b60006020820190508181036000830152614fb681614f7a565b9050919050565b7f546865206d696e74696e6720686173206265656e20646f6e6520636f7272656360008201527f746c792e00000000000000000000000000000000000000000000000000000000602082015250565b6000615019602483613f55565b915061502482614fbd565b604082019050919050565b600060208201905081810360008301526150488161500c565b9050919050565b600061505a82613f16565b915061506583613f16565b9250827fffffffffffffffffffffffffffffffffffffffffffffffffffffffffffffffff0382111561509a57615099614746565b5b828201905092915050565b7f4e487b7100000000000000000000000000000000000000000000000000000000600052603160045260246000fd5b60006150df82613f16565b9150600082036150f2576150f1614746565b5b600182039050919050565b7f537472696e67733a20686578206c656e67746820696e73756666696369656e74600082015250565b6000615133602083613f55565b915061513e826150fd565b602082019050919050565b6000602082019050818103600083015261516281615126565b9050919050565b7f455243323938313a20726f79616c7479206665652077696c6c2065786365656460008201527f2073616c65507269636500000000000000000000000000000000000000000000602082015250565b60006151c5602a83613f55565b91506151d082615169565b604082019050919050565b600060208201905081810360008301526151f4816151b8565b9050919050565b7f455243323938313a20696e76616c696420726563656976657200000000000000600082015250565b6000615231601983613f55565b915061523c826151fb565b602082019050919050565b6000602082019050818103600083015261526081615224565b9050919050565b7f4552433732313a206f70657261746f7220717565727920666f72206e6f6e657860008201527f697374656e7420746f6b656e0000000000000000000000000000000000000000602082015250565b60006152c3602c83613f55565b91506152ce82615267565b604082019050919050565b600060208201905081810360008301526152f2816152b6565b9050919050565b7f4552433732313a207472616e736665722066726f6d20696e636f72726563742060008201527f6f776e6572000000000000000000000000000000000000000000000000000000602082015250565b6000615355602583613f55565b9150615360826152f9565b604082019050919050565b6000602082019050818103600083015261538481615348565b9050919050565b7f4552433732313a207472616e7366657220746f20746865207a65726f2061646460008201527f7265737300000000000000000000000000000000000000000000000000000000602082015250565b60006153e7602483613f55565b91506153f28261538b565b604082019050919050565b60006020820190508181036000830152615416816153da565b9050919050565b7f5061757361626c653a206e6f7420706175736564000000000000000000000000600082015250565b6000615453601483613f55565b915061545e8261541d565b602082019050919050565b6000602082019050818103600083015261548281615446565b9050919050565b7f45524337323155524953746f726167653a2055524920736574206f66206e6f6e60008201527f6578697374656e7420746f6b656e000000000000000000000000000000000000602082015250565b60006154e5602e83613f55565b91506154f082615489565b604082019050919050565b60006020820190508181036000830152615514816154d8565b9050919050565b60008190508160005260206000209050919050565b60006020601f8301049050919050565b600082821b905092915050565b60006008830261557d7fffffffffffffffffffffffffffffffffffffffffffffffffffffffffffffffff82615540565b6155878683615540565b95508019841693508086168417925050509392505050565b6000819050919050565b60006155c46155bf6155ba84613f16565b61559f565b613f16565b9050919050565b6000819050919050565b6155de836155a9565b6155f26155ea826155cb565b84845461554d565b825550505050565b600090565b6156076155fa565b6156128184846155d5565b505050565b5b818110156156365761562b6000826155ff565b600181019050615618565b5050565b601f82111561567b5761564c8161551b565b61565584615530565b81016020851015615664578190505b61567861567085615530565b830182615617565b50505b505050565b600082821c905092915050565b600061569e60001984600802615680565b1980831691505092915050565b60006156b7838361568d565b9150826002028217905092915050565b6156d082613f4a565b67ffffffffffffffff8111156156e9576156e8614377565b5b6156f382546147ec565b6156fe82828561563a565b600060209050601f831160018114615731576000841561571f578287015190505b61572985826156ab565b865550615791565b601f19841661573f8661551b565b60005b8281101561576757848901518255600182019150602085019450602081019050615742565b868310156157845784890151615780601f89168261568d565b8355505b6001600288020188555050505b505050505050565b7f5061757361626c653a2070617573656400000000000000000000000000000000600082015250565b60006157cf601083613f55565b91506157da82615799565b602082019050919050565b600060208201905081810360008301526157fe816157c2565b9050919050565b7f4552433732313a20617070726f766520746f2063616c6c657200000000000000600082015250565b600061583b601983613f55565b915061584682615805565b602082019050919050565b6000602082019050818103600083015261586a8161582e565b9050919050565b7f4552433732313a207472616e7366657220746f206e6f6e20455243373231526560008201527f63656976657220696d706c656d656e7465720000000000000000000000000000602082015250565b60006158cd603283613f55565b91506158d882615871565b604082019050919050565b600060208201905081810360008301526158fc816158c0565b9050919050565b7f45524337323155524953746f726167653a2055524920717565727920666f722060008201527f6e6f6e6578697374656e7420746f6b656e000000000000000000000000000000602082015250565b600061595f603183613f55565b915061596a82615903565b604082019050919050565b6000602082019050818103600083015261598e81615952565b9050919050565b600081905092915050565b60006159ab82613f4a565b6159b58185615995565b93506159c5818560208601613f66565b80840191505092915050565b60006159dd82856159a0565b91506159e982846159a0565b91508190509392505050565b7f416363657373436f6e74726f6c3a206163636f756e7420000000000000000000600082015250565b6000615a2b601783615995565b9150615a36826159f5565b601782019050919050565b7f206973206d697373696e6720726f6c6520000000000000000000000000000000600082015250565b6000615a77601183615995565b9150615a8282615a41565b601182019050919050565b6000615a9882615a1e565b9150615aa482856159a0565b9150615aaf82615a6a565b9150615abb82846159a0565b91508190509392505050565b600081519050919050565b600082825260208201905092915050565b6000615aee82615ac7565b615af88185615ad2565b9350615b08818560208601613f66565b615b1181613f99565b840191505092915050565b6000608082019050615b31600083018761405e565b615b3e602083018661405e565b615b4b6040830185613f20565b8181036060830152615b5d8184615ae3565b905095945050505050565b600081519050615b7781613d78565b92915050565b600060208284031215615b9357615b92613d42565b5b6000615ba184828501615b68565b91505092915050565b7f4552433732314d657461646174613a2055524920717565727920666f72206e6f60008201527f6e6578697374656e7420746f6b656e0000000000000000000000000000000000602082015250565b6000615c06602f83613f55565b9150615c1182615baa565b604082019050919050565b60006020820190508181036000830152615c3581615bf9565b9050919050565b7f4552433732313a206d696e7420746f20746865207a65726f2061646472657373600082015250565b6000615c72602083613f55565b9150615c7d82615c3c565b602082019050919050565b60006020820190508181036000830152615ca181615c65565b9050919050565b7f4552433732313a20746f6b656e20616c7265616479206d696e74656400000000600082015250565b6000615cde601c83613f55565b9150615ce982615ca8565b602082019050919050565b60006020820190508181036000830152615d0d81615cd1565b9050919050565b6000615d1f82613f16565b9150615d2a83613f16565b925082615d3a57615d39614abf565b5b82820690509291505056fe68747470733a2f2f697066732e696f2f697066732f6261666b7265696177336e6836746876366534783337686c76707978326d7533746c66327a6c636a32626b796e786c62746433737376786f79636d2fa26469706673582212204156f467539046474f4782dcb2c887973f5aafa140743dbc0f2eff3b31e6c40f64736f6c634300080f0033",
  "immutableReferences": {},
  "source": "// SPDX-License-Identifier: MIT\npragma solidity ^0.8.4;\n \nimport \"@openzeppelin/contracts/token/ERC721/ERC721.sol\";\nimport \"@openzeppelin/contracts/token/ERC721/extensions/ERC721Enumerable.sol\";\nimport \"@openzeppelin/contracts/token/ERC721/extensions/ERC721URIStorage.sol\";\nimport \"@openzeppelin/contracts/security/Pausable.sol\";\nimport \"@openzeppelin/contracts/access/AccessControl.sol\";\nimport \"@openzeppelin/contracts/token/ERC721/extensions/ERC721Burnable.sol\";\nimport \"@openzeppelin/contracts/utils/Counters.sol\";\nimport \"@openzeppelin/contracts/token/common/ERC2981.sol\";\n\nimport \"./CryptoTicketsRewards.sol\";\n\ncontract CryptoTicketsMatchNFTs is \n    ERC721, \n    ERC721Enumerable, \n    ERC721URIStorage, \n    Pausable, \n    AccessControl, \n    ERC721Burnable,\n    ERC2981\n{\n    using Counters for Counters.Counter;\n\n    CryptoTicketsRewards rewardsTicket;\n\n    bytes32 public constant ADMIN_CLUB_ROLE = keccak256(\"ADMIN_CLUB_ROLE\");\n    Counters.Counter private _matchIdCounter;\n\n    string contractURL;\n\n    address[] public listSubscriber;\n\n    address payable public club;\n    address public newOwner;\n\n    uint private basePrice;\n\n    uint96 private royaltyFeesInBips = 1000;\n\n    event Status(string _message);\n    event MsgInfoAccountListOk(string _message, address indexed account);\n    event MsgInfoAccountListKo(string _message, address indexed account);\n    event MsgInfoMinted(string _message, address indexed account);\n    event ClubAdminRoleGranted(address indexed sender, address indexed clubAddress);\n    event ClubAdminRoleRevoked(address indexed sender, address indexed clubAddress);\n\n    struct MatchTransactionTicket{\n        address ownerAccount;\n        uint tokenId;\n        string typeTicket;\n        uint price;\n        //Aadir fecha de vencimiento del token\n    }\n\n    constructor(address rewardsTicketAddress) ERC721(\"CryptoTicketsMatchNFTs\", \"CTKMN\"){\n        rewardsTicket = CryptoTicketsRewards(rewardsTicketAddress);\n        _grantRole(DEFAULT_ADMIN_ROLE, msg.sender);\n        _grantRole(ADMIN_CLUB_ROLE, msg.sender);\n        //uri=ipfs://bafkreic3xz5cssins4ihcyoo27kcmflwmgqvpbm2stpr3xfxxnsykgkali/season\n                \n        setRoyaltyInfo(msg.sender, royaltyFeesInBips);\n    }\n\n    function contractURI() public pure returns (string memory) {\n        return \"https://ipfs.io/ipfs/bafkreiaw3nh6thv6e4x37hlvpyx2mu3tlf2zlcj2bkynxlbtd3ssvxoycm/\";\n    }\n\n    function pause() public onlyRole(ADMIN_CLUB_ROLE) {\n        _pause();\n    }\n\n    function unpause() public onlyRole(ADMIN_CLUB_ROLE) {\n        _unpause();\n    }\n\n    function mint(address to, string memory uri) private {\n        uint256 matchId = _matchIdCounter.current();\n        _matchIdCounter.increment();\n        _safeMint(to, matchId);\n        _setTokenURI(matchId, uri);\n    }\n\n    function mintTicket(address to, string memory uri) public payable {\n        uint256 matchId = _matchIdCounter.current();\n        _matchIdCounter.increment();\n        _safeMint(to, matchId);\n        _setTokenURI(matchId, uri);\n    }\n\n    //The tokens for each of the matches are minted to the list of subscribers\n    function mintMatch(string memory uri) public onlyRole(ADMIN_CLUB_ROLE) {\n       //uri=ipfs://bafybeidpaq5ba6237nat7nmj6yjrkfv2i3qdjj5tnh6kt4b7l7xd3te4u4/season0\n        for (uint i = 0; i<listSubscriber.length; i++){\n            mint(listSubscriber[i], uri);\n        }\n        emit MsgInfoMinted(\"The minting has been done correctly.\", msg.sender);\n    }\n\n    function _beforeTokenTransfer(address from, address to, uint256 matchId)\n        internal\n        whenNotPaused\n        override(ERC721, ERC721Enumerable)\n    {\n        super._beforeTokenTransfer(from, to, matchId);\n    }\n\n    function _burn(uint256 matchId) internal override(ERC721, ERC721URIStorage) {\n        super._burn(matchId);\n    }\n    \n    function burnTicket(uint256 tokenId) public  {\n        _burn(tokenId);\n        rewardsTicket.mintReward();\n    }\n\n    function tokenURI(uint256 matchId)\n        public\n        view\n        override(ERC721, ERC721URIStorage)\n        returns (string memory)\n    {\n        return super.tokenURI(matchId);\n    }\n\n    function supportsInterface(bytes4 interfaceId)\n        public\n        view\n        override(ERC721, ERC721Enumerable, ERC2981, AccessControl)\n        returns (bool)\n    {\n        return super.supportsInterface(interfaceId);\n    }\n\n    function grantAdminRol(address account) public onlyRole(DEFAULT_ADMIN_ROLE) {\n        _grantRole(DEFAULT_ADMIN_ROLE, account);\n    }\n\n    function grantClubRol(address account) public onlyRole(DEFAULT_ADMIN_ROLE) {\n        _grantRole(ADMIN_CLUB_ROLE, account);\n        emit ClubAdminRoleGranted(msg.sender, account);\n    }\n\n    function revokeClubRol(address account)\n        public\n        onlyRole(DEFAULT_ADMIN_ROLE)\n    {\n        _revokeRole(ADMIN_CLUB_ROLE, account);\n        emit ClubAdminRoleRevoked(msg.sender, account);\n    }\n\n    function addAddress(address account) public onlyRole(DEFAULT_ADMIN_ROLE){\n        if (listSubscriber.length>0){\n            bool exist;\n            for (uint i = 0; i<listSubscriber.length-1; i++){\n                if(listSubscriber[i] == account){\n                    emit MsgInfoAccountListKo(\"Account/address registered.\", account);\n                    break;\n                }else{\n                    exist = false;\n                }\n            }\n            if(!exist){\n                    listSubscriber.push(account);\n                    emit MsgInfoAccountListOk(\"The account/address has been successfully registered.\", account);\n                }\n        } else {\n            listSubscriber.push(account);\n            emit MsgInfoAccountListOk(\"The account/address has been successfully registered.\", account);\n        }\n    }\n\n    function getAddressInfo() public view returns(address[] memory){\n        return(listSubscriber);\n    }\n\n    function findAddress(address value) public view returns(uint) {\n        uint i = 0;\n        while (listSubscriber[i] != value) {\n            i++;\n        }\n        return i;\n    }\n\n    function removeAddress(address value) public{\n        uint i = findAddress(value);\n        removeAddressByIndex(i);\n    }\n\n    function removeAddressByIndex(uint i) public{\n        while (i<listSubscriber.length-1) {\n            listSubscriber[i] = listSubscriber[i+1];\n            i++;\n        }\n        listSubscriber.pop();\n    }\n\n    function setRoyaltyInfo(address _receiver, uint96 _royaltyFeesInBips) public onlyRole(DEFAULT_ADMIN_ROLE) {\n        _setDefaultRoyalty(_receiver, _royaltyFeesInBips);\n    }\n\n}\n",
  "sourcePath": "/Users/dosorio/Proyectos/Blockchain/SportTickets/contracts/CryptoTicketsMatchNFTs.sol",
  "compiler": {
    "name": "solc",
    "version": "0.8.15+commit.e14f2714.Emscripten.clang"
  },
  "schemaVersion": "3.4.7",
  "updatedAt": "2022-07-03T08:34:46.102Z",
  "networkType": "ethereum",
  "devdoc": {
    "kind": "dev",
    "methods": {
      "approve(address,uint256)": {
        "details": "See {IERC721-approve}."
      },
      "balanceOf(address)": {
        "details": "See {IERC721-balanceOf}."
      },
      "burn(uint256)": {
        "details": "Burns `tokenId`. See {ERC721-_burn}. Requirements: - The caller must own `tokenId` or be an approved operator."
      },
      "getApproved(uint256)": {
        "details": "See {IERC721-getApproved}."
      },
      "getRoleAdmin(bytes32)": {
        "details": "Returns the admin role that controls `role`. See {grantRole} and {revokeRole}. To change a role's admin, use {_setRoleAdmin}."
      },
      "grantRole(bytes32,address)": {
        "details": "Grants `role` to `account`. If `account` had not been already granted `role`, emits a {RoleGranted} event. Requirements: - the caller must have ``role``'s admin role."
      },
      "hasRole(bytes32,address)": {
        "details": "Returns `true` if `account` has been granted `role`."
      },
      "isApprovedForAll(address,address)": {
        "details": "See {IERC721-isApprovedForAll}."
      },
      "name()": {
        "details": "See {IERC721Metadata-name}."
      },
      "ownerOf(uint256)": {
        "details": "See {IERC721-ownerOf}."
      },
      "paused()": {
        "details": "Returns true if the contract is paused, and false otherwise."
      },
      "renounceRole(bytes32,address)": {
        "details": "Revokes `role` from the calling account. Roles are often managed via {grantRole} and {revokeRole}: this function's purpose is to provide a mechanism for accounts to lose their privileges if they are compromised (such as when a trusted device is misplaced). If the calling account had been revoked `role`, emits a {RoleRevoked} event. Requirements: - the caller must be `account`."
      },
      "revokeRole(bytes32,address)": {
        "details": "Revokes `role` from `account`. If `account` had been granted `role`, emits a {RoleRevoked} event. Requirements: - the caller must have ``role``'s admin role."
      },
      "royaltyInfo(uint256,uint256)": {
        "details": "Returns how much royalty is owed and to whom, based on a sale price that may be denominated in any unit of exchange. The royalty amount is denominated and should be paid in that same unit of exchange."
      },
      "safeTransferFrom(address,address,uint256)": {
        "details": "See {IERC721-safeTransferFrom}."
      },
      "safeTransferFrom(address,address,uint256,bytes)": {
        "details": "See {IERC721-safeTransferFrom}."
      },
      "setApprovalForAll(address,bool)": {
        "details": "See {IERC721-setApprovalForAll}."
      },
      "symbol()": {
        "details": "See {IERC721Metadata-symbol}."
      },
      "tokenByIndex(uint256)": {
        "details": "See {IERC721Enumerable-tokenByIndex}."
      },
      "tokenOfOwnerByIndex(address,uint256)": {
        "details": "See {IERC721Enumerable-tokenOfOwnerByIndex}."
      },
      "totalSupply()": {
        "details": "See {IERC721Enumerable-totalSupply}."
      },
      "transferFrom(address,address,uint256)": {
        "details": "See {IERC721-transferFrom}."
      }
    },
    "version": 1
  },
  "userdoc": {
    "kind": "user",
    "methods": {},
    "version": 1
  }
}