{
  "contractName": "CryptoTicketsRewards",
  "abi": [
    {
      "inputs": [],
      "stateMutability": "nonpayable",
      "type": "constructor"
    },
    {
      "anonymous": false,
      "inputs": [
        {
          "indexed": true,
          "internalType": "address",
          "name": "owner",
          "type": "address"
        },
        {
          "indexed": true,
          "internalType": "address",
          "name": "approved",
          "type": "address"
        },
        {
          "indexed": true,
          "internalType": "uint256",
          "name": "tokenId",
          "type": "uint256"
        }
      ],
      "name": "Approval",
      "type": "event"
    },
    {
      "anonymous": false,
      "inputs": [
        {
          "indexed": true,
          "internalType": "address",
          "name": "owner",
          "type": "address"
        },
        {
          "indexed": true,
          "internalType": "address",
          "name": "operator",
          "type": "address"
        },
        {
          "indexed": false,
          "internalType": "bool",
          "name": "approved",
          "type": "bool"
        }
      ],
      "name": "ApprovalForAll",
      "type": "event"
    },
    {
      "anonymous": false,
      "inputs": [
        {
          "indexed": false,
          "internalType": "string",
          "name": "_message",
          "type": "string"
        },
        {
          "indexed": true,
          "internalType": "address",
          "name": "account",
          "type": "address"
        }
      ],
      "name": "MsgInfoAccountListOk",
      "type": "event"
    },
    {
      "anonymous": false,
      "inputs": [
        {
          "indexed": false,
          "internalType": "string",
          "name": "_message",
          "type": "string"
        },
        {
          "indexed": true,
          "internalType": "address",
          "name": "account",
          "type": "address"
        }
      ],
      "name": "MsgInfoMinted",
      "type": "event"
    },
    {
      "anonymous": false,
      "inputs": [
        {
          "indexed": false,
          "internalType": "address",
          "name": "account",
          "type": "address"
        }
      ],
      "name": "Paused",
      "type": "event"
    },
    {
      "anonymous": false,
      "inputs": [
        {
          "indexed": true,
          "internalType": "bytes32",
          "name": "role",
          "type": "bytes32"
        },
        {
          "indexed": true,
          "internalType": "bytes32",
          "name": "previousAdminRole",
          "type": "bytes32"
        },
        {
          "indexed": true,
          "internalType": "bytes32",
          "name": "newAdminRole",
          "type": "bytes32"
        }
      ],
      "name": "RoleAdminChanged",
      "type": "event"
    },
    {
      "anonymous": false,
      "inputs": [
        {
          "indexed": true,
          "internalType": "bytes32",
          "name": "role",
          "type": "bytes32"
        },
        {
          "indexed": true,
          "internalType": "address",
          "name": "account",
          "type": "address"
        },
        {
          "indexed": true,
          "internalType": "address",
          "name": "sender",
          "type": "address"
        }
      ],
      "name": "RoleGranted",
      "type": "event"
    },
    {
      "anonymous": false,
      "inputs": [
        {
          "indexed": true,
          "internalType": "bytes32",
          "name": "role",
          "type": "bytes32"
        },
        {
          "indexed": true,
          "internalType": "address",
          "name": "account",
          "type": "address"
        },
        {
          "indexed": true,
          "internalType": "address",
          "name": "sender",
          "type": "address"
        }
      ],
      "name": "RoleRevoked",
      "type": "event"
    },
    {
      "anonymous": false,
      "inputs": [
        {
          "indexed": false,
          "internalType": "string",
          "name": "_message",
          "type": "string"
        }
      ],
      "name": "Status",
      "type": "event"
    },
    {
      "anonymous": false,
      "inputs": [
        {
          "indexed": true,
          "internalType": "address",
          "name": "from",
          "type": "address"
        },
        {
          "indexed": true,
          "internalType": "address",
          "name": "to",
          "type": "address"
        },
        {
          "indexed": true,
          "internalType": "uint256",
          "name": "tokenId",
          "type": "uint256"
        }
      ],
      "name": "Transfer",
      "type": "event"
    },
    {
      "anonymous": false,
      "inputs": [
        {
          "indexed": false,
          "internalType": "address",
          "name": "account",
          "type": "address"
        }
      ],
      "name": "Unpaused",
      "type": "event"
    },
    {
      "inputs": [],
      "name": "DEFAULT_ADMIN_ROLE",
      "outputs": [
        {
          "internalType": "bytes32",
          "name": "",
          "type": "bytes32"
        }
      ],
      "stateMutability": "view",
      "type": "function"
    },
    {
      "inputs": [
        {
          "internalType": "address",
          "name": "to",
          "type": "address"
        },
        {
          "internalType": "uint256",
          "name": "tokenId",
          "type": "uint256"
        }
      ],
      "name": "approve",
      "outputs": [],
      "stateMutability": "nonpayable",
      "type": "function"
    },
    {
      "inputs": [
        {
          "internalType": "address",
          "name": "owner",
          "type": "address"
        }
      ],
      "name": "balanceOf",
      "outputs": [
        {
          "internalType": "uint256",
          "name": "",
          "type": "uint256"
        }
      ],
      "stateMutability": "view",
      "type": "function"
    },
    {
      "inputs": [
        {
          "internalType": "uint256",
          "name": "tokenId",
          "type": "uint256"
        }
      ],
      "name": "burn",
      "outputs": [],
      "stateMutability": "nonpayable",
      "type": "function"
    },
    {
      "inputs": [],
      "name": "club",
      "outputs": [
        {
          "internalType": "address payable",
          "name": "",
          "type": "address"
        }
      ],
      "stateMutability": "view",
      "type": "function"
    },
    {
      "inputs": [
        {
          "internalType": "uint256",
          "name": "tokenId",
          "type": "uint256"
        }
      ],
      "name": "getApproved",
      "outputs": [
        {
          "internalType": "address",
          "name": "",
          "type": "address"
        }
      ],
      "stateMutability": "view",
      "type": "function"
    },
    {
      "inputs": [
        {
          "internalType": "bytes32",
          "name": "role",
          "type": "bytes32"
        }
      ],
      "name": "getRoleAdmin",
      "outputs": [
        {
          "internalType": "bytes32",
          "name": "",
          "type": "bytes32"
        }
      ],
      "stateMutability": "view",
      "type": "function"
    },
    {
      "inputs": [
        {
          "internalType": "bytes32",
          "name": "role",
          "type": "bytes32"
        },
        {
          "internalType": "address",
          "name": "account",
          "type": "address"
        }
      ],
      "name": "grantRole",
      "outputs": [],
      "stateMutability": "nonpayable",
      "type": "function"
    },
    {
      "inputs": [
        {
          "internalType": "bytes32",
          "name": "role",
          "type": "bytes32"
        },
        {
          "internalType": "address",
          "name": "account",
          "type": "address"
        }
      ],
      "name": "hasRole",
      "outputs": [
        {
          "internalType": "bool",
          "name": "",
          "type": "bool"
        }
      ],
      "stateMutability": "view",
      "type": "function"
    },
    {
      "inputs": [
        {
          "internalType": "address",
          "name": "owner",
          "type": "address"
        },
        {
          "internalType": "address",
          "name": "operator",
          "type": "address"
        }
      ],
      "name": "isApprovedForAll",
      "outputs": [
        {
          "internalType": "bool",
          "name": "",
          "type": "bool"
        }
      ],
      "stateMutability": "view",
      "type": "function"
    },
    {
      "inputs": [
        {
          "internalType": "uint256",
          "name": "",
          "type": "uint256"
        }
      ],
      "name": "listUserRewards",
      "outputs": [
        {
          "internalType": "address",
          "name": "",
          "type": "address"
        }
      ],
      "stateMutability": "view",
      "type": "function"
    },
    {
      "inputs": [],
      "name": "name",
      "outputs": [
        {
          "internalType": "string",
          "name": "",
          "type": "string"
        }
      ],
      "stateMutability": "view",
      "type": "function"
    },
    {
      "inputs": [
        {
          "internalType": "uint256",
          "name": "tokenId",
          "type": "uint256"
        }
      ],
      "name": "ownerOf",
      "outputs": [
        {
          "internalType": "address",
          "name": "",
          "type": "address"
        }
      ],
      "stateMutability": "view",
      "type": "function"
    },
    {
      "inputs": [],
      "name": "paused",
      "outputs": [
        {
          "internalType": "bool",
          "name": "",
          "type": "bool"
        }
      ],
      "stateMutability": "view",
      "type": "function"
    },
    {
      "inputs": [
        {
          "internalType": "bytes32",
          "name": "role",
          "type": "bytes32"
        },
        {
          "internalType": "address",
          "name": "account",
          "type": "address"
        }
      ],
      "name": "renounceRole",
      "outputs": [],
      "stateMutability": "nonpayable",
      "type": "function"
    },
    {
      "inputs": [
        {
          "internalType": "bytes32",
          "name": "role",
          "type": "bytes32"
        },
        {
          "internalType": "address",
          "name": "account",
          "type": "address"
        }
      ],
      "name": "revokeRole",
      "outputs": [],
      "stateMutability": "nonpayable",
      "type": "function"
    },
    {
      "inputs": [
        {
          "internalType": "address",
          "name": "from",
          "type": "address"
        },
        {
          "internalType": "address",
          "name": "to",
          "type": "address"
        },
        {
          "internalType": "uint256",
          "name": "tokenId",
          "type": "uint256"
        }
      ],
      "name": "safeTransferFrom",
      "outputs": [],
      "stateMutability": "nonpayable",
      "type": "function"
    },
    {
      "inputs": [
        {
          "internalType": "address",
          "name": "from",
          "type": "address"
        },
        {
          "internalType": "address",
          "name": "to",
          "type": "address"
        },
        {
          "internalType": "uint256",
          "name": "tokenId",
          "type": "uint256"
        },
        {
          "internalType": "bytes",
          "name": "_data",
          "type": "bytes"
        }
      ],
      "name": "safeTransferFrom",
      "outputs": [],
      "stateMutability": "nonpayable",
      "type": "function"
    },
    {
      "inputs": [
        {
          "internalType": "address",
          "name": "operator",
          "type": "address"
        },
        {
          "internalType": "bool",
          "name": "approved",
          "type": "bool"
        }
      ],
      "name": "setApprovalForAll",
      "outputs": [],
      "stateMutability": "nonpayable",
      "type": "function"
    },
    {
      "inputs": [],
      "name": "symbol",
      "outputs": [
        {
          "internalType": "string",
          "name": "",
          "type": "string"
        }
      ],
      "stateMutability": "view",
      "type": "function"
    },
    {
      "inputs": [
        {
          "internalType": "uint256",
          "name": "index",
          "type": "uint256"
        }
      ],
      "name": "tokenByIndex",
      "outputs": [
        {
          "internalType": "uint256",
          "name": "",
          "type": "uint256"
        }
      ],
      "stateMutability": "view",
      "type": "function"
    },
    {
      "inputs": [
        {
          "internalType": "address",
          "name": "owner",
          "type": "address"
        },
        {
          "internalType": "uint256",
          "name": "index",
          "type": "uint256"
        }
      ],
      "name": "tokenOfOwnerByIndex",
      "outputs": [
        {
          "internalType": "uint256",
          "name": "",
          "type": "uint256"
        }
      ],
      "stateMutability": "view",
      "type": "function"
    },
    {
      "inputs": [],
      "name": "totalSupply",
      "outputs": [
        {
          "internalType": "uint256",
          "name": "",
          "type": "uint256"
        }
      ],
      "stateMutability": "view",
      "type": "function"
    },
    {
      "inputs": [
        {
          "internalType": "address",
          "name": "from",
          "type": "address"
        },
        {
          "internalType": "address",
          "name": "to",
          "type": "address"
        },
        {
          "internalType": "uint256",
          "name": "tokenId",
          "type": "uint256"
        }
      ],
      "name": "transferFrom",
      "outputs": [],
      "stateMutability": "nonpayable",
      "type": "function"
    },
    {
      "inputs": [],
      "name": "pause",
      "outputs": [],
      "stateMutability": "nonpayable",
      "type": "function"
    },
    {
      "inputs": [],
      "name": "unpause",
      "outputs": [],
      "stateMutability": "nonpayable",
      "type": "function"
    },
    {
      "inputs": [],
      "name": "mintReward",
      "outputs": [],
      "stateMutability": "nonpayable",
      "type": "function"
    },
    {
      "inputs": [
        {
          "internalType": "uint256",
          "name": "tokenId",
          "type": "uint256"
        }
      ],
      "name": "burnReward",
      "outputs": [],
      "stateMutability": "nonpayable",
      "type": "function"
    },
    {
      "inputs": [
        {
          "internalType": "uint256",
          "name": "rewardId",
          "type": "uint256"
        }
      ],
      "name": "tokenURI",
      "outputs": [
        {
          "internalType": "string",
          "name": "",
          "type": "string"
        }
      ],
      "stateMutability": "view",
      "type": "function"
    },
    {
      "inputs": [
        {
          "internalType": "bytes4",
          "name": "interfaceId",
          "type": "bytes4"
        }
      ],
      "name": "supportsInterface",
      "outputs": [
        {
          "internalType": "bool",
          "name": "",
          "type": "bool"
        }
      ],
      "stateMutability": "view",
      "type": "function"
    },
    {
      "inputs": [
        {
          "internalType": "address",
          "name": "account",
          "type": "address"
        }
      ],
      "name": "grantAdminRol",
      "outputs": [],
      "stateMutability": "nonpayable",
      "type": "function"
    },
    {
      "inputs": [
        {
          "internalType": "address",
          "name": "account",
          "type": "address"
        }
      ],
      "name": "addAddress",
      "outputs": [],
      "stateMutability": "nonpayable",
      "type": "function"
    },
    {
      "inputs": [],
      "name": "getAddressInfo",
      "outputs": [
        {
          "internalType": "address[]",
          "name": "",
          "type": "address[]"
        }
      ],
      "stateMutability": "view",
      "type": "function"
    }
  ],
  "bytecode": "0x60806040523480156200001157600080fd5b506040518060400160405280601481526020017f43727970746f5469636b657473526577617264730000000000000000000000008152506040518060400160405280600581526020017f43544b525700000000000000000000000000000000000000000000000000000081525081600090816200008f9190620004b9565b508060019081620000a19190620004b9565b5050506000600b60006101000a81548160ff021916908315150217905550620000d46000801b33620000da60201b60201c565b620005a0565b620000ec8282620001cc60201b60201c565b620001c8576001600c600084815260200190815260200160002060000160008373ffffffffffffffffffffffffffffffffffffffff1673ffffffffffffffffffffffffffffffffffffffff16815260200190815260200160002060006101000a81548160ff0219169083151502179055506200016d6200023760201b60201c565b73ffffffffffffffffffffffffffffffffffffffff168173ffffffffffffffffffffffffffffffffffffffff16837f2f8788117e7eff1d82e926ec794901d17c78024a50270940304540a733656f0d60405160405180910390a45b5050565b6000600c600084815260200190815260200160002060000160008373ffffffffffffffffffffffffffffffffffffffff1673ffffffffffffffffffffffffffffffffffffffff16815260200190815260200160002060009054906101000a900460ff16905092915050565b600033905090565b600081519050919050565b7f4e487b7100000000000000000000000000000000000000000000000000000000600052604160045260246000fd5b7f4e487b7100000000000000000000000000000000000000000000000000000000600052602260045260246000fd5b60006002820490506001821680620002c157607f821691505b602082108103620002d757620002d662000279565b5b50919050565b60008190508160005260206000209050919050565b60006020601f8301049050919050565b600082821b905092915050565b600060088302620003417fffffffffffffffffffffffffffffffffffffffffffffffffffffffffffffffff8262000302565b6200034d868362000302565b95508019841693508086168417925050509392505050565b6000819050919050565b6000819050919050565b60006200039a620003946200038e8462000365565b6200036f565b62000365565b9050919050565b6000819050919050565b620003b68362000379565b620003ce620003c582620003a1565b8484546200030f565b825550505050565b600090565b620003e5620003d6565b620003f2818484620003ab565b505050565b5b818110156200041a576200040e600082620003db565b600181019050620003f8565b5050565b601f82111562000469576200043381620002dd565b6200043e84620002f2565b810160208510156200044e578190505b620004666200045d85620002f2565b830182620003f7565b50505b505050565b600082821c905092915050565b60006200048e600019846008026200046e565b1980831691505092915050565b6000620004a983836200047b565b9150826002028217905092915050565b620004c4826200023f565b67ffffffffffffffff811115620004e057620004df6200024a565b5b620004ec8254620002a8565b620004f98282856200041e565b600060209050601f8311600181146200053157600084156200051c578287015190505b6200052885826200049b565b86555062000598565b601f1984166200054186620002dd565b60005b828110156200056b5784890151825560018201915060208501945060208101905062000544565b868310156200058b578489015162000587601f8916826200047b565b8355505b6001600288020188555050505b505050505050565b614c0780620005b06000396000f3fe608060405234801561001057600080fd5b50600436106101fb5760003560e01c806342966c681161011a57806391d14854116100ad578063b5e8cf021161007c578063b5e8cf021461059c578063b88d4fde146105b8578063c87b56dd146105d4578063d547741f14610604578063e985e9c514610620576101fb565b806391d148541461051457806395d89b4114610544578063a217fddf14610562578063a22cb46514610580576101fb565b80636352211e116100e95780636352211e1461048e57806370a08231146104be5780637367c0d0146104ee5780638456cb591461050a576101fb565b806342966c68146104065780634f2a36ab146104225780634f6ccce7146104405780635c975abb14610470576101fb565b8063248a9ca31161019257806336568abe1161016157806336568abe146103a857806338eada1c146103c45780633f4ba83a146103e057806342842e0e146103ea576101fb565b8063248a9ca3146102fc5780632f2ff15d1461032c5780632f50c0df146103485780632f745c5914610378576101fb565b80630efd0973116101ce5780630efd09731461029a578063174f57af146102b857806318160ddd146102c257806323b872dd146102e0576101fb565b806301ffc9a71461020057806306fdde0314610230578063081812fc1461024e578063095ea7b31461027e575b600080fd5b61021a60048036038101906102159190612ff3565b610650565b604051610227919061303b565b60405180910390f35b610238610662565b60405161024591906130ef565b60405180910390f35b61026860048036038101906102639190613147565b6106f4565b60405161027591906131b5565b60405180910390f35b610298600480360381019061029391906131fc565b610779565b005b6102a2610890565b6040516102af919061325d565b60405180910390f35b6102c06108b6565b005b6102ca6109cd565b6040516102d79190613287565b60405180910390f35b6102fa60048036038101906102f591906132a2565b6109da565b005b6103166004803603810190610311919061332b565b610a3a565b6040516103239190613367565b60405180910390f35b61034660048036038101906103419190613382565b610a5a565b005b610362600480360381019061035d9190613147565b610a7b565b60405161036f91906131b5565b60405180910390f35b610392600480360381019061038d91906131fc565b610aba565b60405161039f9190613287565b60405180910390f35b6103c260048036038101906103bd9190613382565b610b5f565b005b6103de60048036038101906103d991906133c2565b610be2565b005b6103e8610ca2565b005b61040460048036038101906103ff91906132a2565b610cba565b005b610420600480360381019061041b9190613147565b610cda565b005b61042a610d36565b60405161043791906134ad565b60405180910390f35b61045a60048036038101906104559190613147565b610dd2565b6040516104679190613287565b60405180910390f35b610478610e43565b604051610485919061303b565b60405180910390f35b6104a860048036038101906104a39190613147565b610e5a565b6040516104b591906131b5565b60405180910390f35b6104d860048036038101906104d391906133c2565b610f0b565b6040516104e59190613287565b60405180910390f35b610508600480360381019061050391906133c2565b610fc2565b005b610512610fe0565b005b61052e60048036038101906105299190613382565b610ff8565b60405161053b919061303b565b60405180910390f35b61054c611063565b60405161055991906130ef565b60405180910390f35b61056a6110f5565b6040516105779190613367565b60405180910390f35b61059a600480360381019061059591906134fb565b6110fc565b005b6105b660048036038101906105b19190613147565b611112565b005b6105d260048036038101906105cd9190613670565b61111e565b005b6105ee60048036038101906105e99190613147565b611180565b6040516105fb91906130ef565b60405180910390f35b61061e60048036038101906106199190613382565b611192565b005b61063a600480360381019061063591906136f3565b6111b3565b604051610647919061303b565b60405180910390f35b600061065b82611247565b9050919050565b60606000805461067190613762565b80601f016020809104026020016040519081016040528092919081815260200182805461069d90613762565b80156106ea5780601f106106bf576101008083540402835291602001916106ea565b820191906000526020600020905b8154815290600101906020018083116106cd57829003601f168201915b5050505050905090565b60006106ff826112c1565b61073e576040517f08c379a000000000000000000000000000000000000000000000000000000000815260040161073590613805565b60405180910390fd5b6004600083815260200190815260200160002060009054906101000a900473ffffffffffffffffffffffffffffffffffffffff169050919050565b600061078482610e5a565b90508073ffffffffffffffffffffffffffffffffffffffff168373ffffffffffffffffffffffffffffffffffffffff16036107f4576040517f08c379a00000000000000000000000000000000000000000000000000000000081526004016107eb90613897565b60405180910390fd5b8073ffffffffffffffffffffffffffffffffffffffff1661081361132d565b73ffffffffffffffffffffffffffffffffffffffff16148061084257506108418161083c61132d565b6111b3565b5b610881576040517f08c379a000000000000000000000000000000000000000000000000000000000815260040161087890613929565b60405180910390fd5b61088b8383611335565b505050565b600f60009054906101000a900473ffffffffffffffffffffffffffffffffffffffff1681565b6000801b6108c3816113ee565b6108cb610e43565b1561090b576040517f08c379a000000000000000000000000000000000000000000000000000000000815260040161090290613995565b60405180910390fd5b60005b600e8054905081101561097557610962600e8281548110610932576109316139b5565b5b9060005260206000200160009054906101000a900473ffffffffffffffffffffffffffffffffffffffff16611402565b808061096d90613a13565b91505061090e565b503373ffffffffffffffffffffffffffffffffffffffff167f4553e13ff316f97f423d1ae7592854a3db7cbe812630d7fe99993903df0e028e6040516109ba90613acd565b60405180910390a26109ca611446565b50565b6000600880549050905090565b6109eb6109e561132d565b82611464565b610a2a576040517f08c379a0000000000000000000000000000000000000000000000000000000008152600401610a2190613b5f565b60405180910390fd5b610a35838383611542565b505050565b6000600c6000838152602001908152602001600020600101549050919050565b610a6382610a3a565b610a6c816113ee565b610a7683836117a8565b505050565b600e8181548110610a8b57600080fd5b906000526020600020016000915054906101000a900473ffffffffffffffffffffffffffffffffffffffff1681565b6000610ac583610f0b565b8210610b06576040517f08c379a0000000000000000000000000000000000000000000000000000000008152600401610afd90613bf1565b60405180910390fd5b600660008473ffffffffffffffffffffffffffffffffffffffff1673ffffffffffffffffffffffffffffffffffffffff168152602001908152602001600020600083815260200190815260200160002054905092915050565b610b6761132d565b73ffffffffffffffffffffffffffffffffffffffff168173ffffffffffffffffffffffffffffffffffffffff1614610bd4576040517f08c379a0000000000000000000000000000000000000000000000000000000008152600401610bcb90613c83565b60405180910390fd5b610bde8282611889565b5050565b6000801b610bef816113ee565b600e829080600181540180825580915050600190039060005260206000200160009091909190916101000a81548173ffffffffffffffffffffffffffffffffffffffff021916908373ffffffffffffffffffffffffffffffffffffffff1602179055508173ffffffffffffffffffffffffffffffffffffffff167f8c5a800b232da4f063717d255d358a72560b410212770dd78b66b4e23133f77c604051610c9690613cef565b60405180910390a25050565b6000801b610caf816113ee565b610cb761196b565b50565b610cd58383836040518060200160405280600081525061111e565b505050565b610ceb610ce561132d565b82611464565b610d2a576040517f08c379a0000000000000000000000000000000000000000000000000000000008152600401610d2190613d81565b60405180910390fd5b610d3381611a0d565b50565b60606000801b610d45816113ee565b600e805480602002602001604051908101604052809291908181526020018280548015610dc757602002820191906000526020600020905b8160009054906101000a900473ffffffffffffffffffffffffffffffffffffffff1673ffffffffffffffffffffffffffffffffffffffff1681526020019060010190808311610d7d575b505050505091505090565b6000610ddc6109cd565b8210610e1d576040517f08c379a0000000000000000000000000000000000000000000000000000000008152600401610e1490613e13565b60405180910390fd5b60088281548110610e3157610e306139b5565b5b90600052602060002001549050919050565b6000600b60009054906101000a900460ff16905090565b6000806002600084815260200190815260200160002060009054906101000a900473ffffffffffffffffffffffffffffffffffffffff169050600073ffffffffffffffffffffffffffffffffffffffff168173ffffffffffffffffffffffffffffffffffffffff1603610f02576040517f08c379a0000000000000000000000000000000000000000000000000000000008152600401610ef990613ea5565b60405180910390fd5b80915050919050565b60008073ffffffffffffffffffffffffffffffffffffffff168273ffffffffffffffffffffffffffffffffffffffff1603610f7b576040517f08c379a0000000000000000000000000000000000000000000000000000000008152600401610f7290613f37565b60405180910390fd5b600360008373ffffffffffffffffffffffffffffffffffffffff1673ffffffffffffffffffffffffffffffffffffffff168152602001908152602001600020549050919050565b6000801b610fcf816113ee565b610fdc6000801b836117a8565b5050565b6000801b610fed816113ee565b610ff5611a19565b50565b6000600c600084815260200190815260200160002060000160008373ffffffffffffffffffffffffffffffffffffffff1673ffffffffffffffffffffffffffffffffffffffff16815260200190815260200160002060009054906101000a900460ff16905092915050565b60606001805461107290613762565b80601f016020809104026020016040519081016040528092919081815260200182805461109e90613762565b80156110eb5780601f106110c0576101008083540402835291602001916110eb565b820191906000526020600020905b8154815290600101906020018083116110ce57829003601f168201915b5050505050905090565b6000801b81565b61110e61110761132d565b8383611abc565b5050565b61111b81611a0d565b50565b61112f61112961132d565b83611464565b61116e576040517f08c379a000000000000000000000000000000000000000000000000000000000815260040161116590613b5f565b60405180910390fd5b61117a84848484611c28565b50505050565b606061118b82611c84565b9050919050565b61119b82610a3a565b6111a4816113ee565b6111ae8383611889565b505050565b6000600560008473ffffffffffffffffffffffffffffffffffffffff1673ffffffffffffffffffffffffffffffffffffffff16815260200190815260200160002060008373ffffffffffffffffffffffffffffffffffffffff1673ffffffffffffffffffffffffffffffffffffffff16815260200190815260200160002060009054906101000a900460ff16905092915050565b60007f7965db0b000000000000000000000000000000000000000000000000000000007bffffffffffffffffffffffffffffffffffffffffffffffffffffffff1916827bffffffffffffffffffffffffffffffffffffffffffffffffffffffff191614806112ba57506112b982611dd5565b5b9050919050565b60008073ffffffffffffffffffffffffffffffffffffffff166002600084815260200190815260200160002060009054906101000a900473ffffffffffffffffffffffffffffffffffffffff1673ffffffffffffffffffffffffffffffffffffffff1614159050919050565b600033905090565b816004600083815260200190815260200160002060006101000a81548173ffffffffffffffffffffffffffffffffffffffff021916908373ffffffffffffffffffffffffffffffffffffffff160217905550808273ffffffffffffffffffffffffffffffffffffffff166113a883610e5a565b73ffffffffffffffffffffffffffffffffffffffff167f8c5be1e5ebec7d5bd14f71427d1e84f3dd0314c0f7b2291e5b200ac8c7c3b92560405160405180910390a45050565b6113ff816113fa61132d565b611e4f565b50565b600061140e600d611eec565b905061141a600d611efa565b6114248282611f10565b6114428161143d6005436114389190613f86565b611f2e565b61208e565b5050565b6000801b611453816113ee565b600e60006114619190612f09565b50565b600061146f826112c1565b6114ae576040517f08c379a00000000000000000000000000000000000000000000000000000000081526004016114a590614029565b60405180910390fd5b60006114b983610e5a565b90508073ffffffffffffffffffffffffffffffffffffffff168473ffffffffffffffffffffffffffffffffffffffff1614806114fb57506114fa81856111b3565b5b8061153957508373ffffffffffffffffffffffffffffffffffffffff16611521846106f4565b73ffffffffffffffffffffffffffffffffffffffff16145b91505092915050565b8273ffffffffffffffffffffffffffffffffffffffff1661156282610e5a565b73ffffffffffffffffffffffffffffffffffffffff16146115b8576040517f08c379a00000000000000000000000000000000000000000000000000000000081526004016115af906140bb565b60405180910390fd5b600073ffffffffffffffffffffffffffffffffffffffff168273ffffffffffffffffffffffffffffffffffffffff1603611627576040517f08c379a000000000000000000000000000000000000000000000000000000000815260040161161e9061414d565b60405180910390fd5b6116328383836120fb565b61163d600082611335565b6001600360008573ffffffffffffffffffffffffffffffffffffffff1673ffffffffffffffffffffffffffffffffffffffff168152602001908152602001600020600082825461168d919061416d565b925050819055506001600360008473ffffffffffffffffffffffffffffffffffffffff1673ffffffffffffffffffffffffffffffffffffffff16815260200190815260200160002060008282546116e491906141a1565b92505081905550816002600083815260200190815260200160002060006101000a81548173ffffffffffffffffffffffffffffffffffffffff021916908373ffffffffffffffffffffffffffffffffffffffff160217905550808273ffffffffffffffffffffffffffffffffffffffff168473ffffffffffffffffffffffffffffffffffffffff167fddf252ad1be2c89b69c2b068fc378daa952ba7f163c4a11628f55a4df523b3ef60405160405180910390a46117a3838383612153565b505050565b6117b28282610ff8565b611885576001600c600084815260200190815260200160002060000160008373ffffffffffffffffffffffffffffffffffffffff1673ffffffffffffffffffffffffffffffffffffffff16815260200190815260200160002060006101000a81548160ff02191690831515021790555061182a61132d565b73ffffffffffffffffffffffffffffffffffffffff168173ffffffffffffffffffffffffffffffffffffffff16837f2f8788117e7eff1d82e926ec794901d17c78024a50270940304540a733656f0d60405160405180910390a45b5050565b6118938282610ff8565b15611967576000600c600084815260200190815260200160002060000160008373ffffffffffffffffffffffffffffffffffffffff1673ffffffffffffffffffffffffffffffffffffffff16815260200190815260200160002060006101000a81548160ff02191690831515021790555061190c61132d565b73ffffffffffffffffffffffffffffffffffffffff168173ffffffffffffffffffffffffffffffffffffffff16837ff6391f5c32d9c69d2a47ea670b442974b53935d1edc7fd64eb21e047a839171b60405160405180910390a45b5050565b611973610e43565b6119b2576040517f08c379a00000000000000000000000000000000000000000000000000000000081526004016119a990614243565b60405180910390fd5b6000600b60006101000a81548160ff0219169083151502179055507f5db9ee0a495bf2e6ff9c91a7834c1ba4fdd244a5e8aa4e537bd38aeae4b073aa6119f661132d565b604051611a0391906131b5565b60405180910390a1565b611a1681612158565b50565b611a21610e43565b15611a61576040517f08c379a0000000000000000000000000000000000000000000000000000000008152600401611a5890613995565b60405180910390fd5b6001600b60006101000a81548160ff0219169083151502179055507f62e78cea01bee320cd4e420270b5ea74000d11b0c9f74754ebdbfc544b05a258611aa561132d565b604051611ab291906131b5565b60405180910390a1565b8173ffffffffffffffffffffffffffffffffffffffff168373ffffffffffffffffffffffffffffffffffffffff1603611b2a576040517f08c379a0000000000000000000000000000000000000000000000000000000008152600401611b21906142af565b60405180910390fd5b80600560008573ffffffffffffffffffffffffffffffffffffffff1673ffffffffffffffffffffffffffffffffffffffff16815260200190815260200160002060008473ffffffffffffffffffffffffffffffffffffffff1673ffffffffffffffffffffffffffffffffffffffff16815260200190815260200160002060006101000a81548160ff0219169083151502179055508173ffffffffffffffffffffffffffffffffffffffff168373ffffffffffffffffffffffffffffffffffffffff167f17307eab39ab6107e8899845ad3d59bd9653f200f220920489ca2b5937696c3183604051611c1b919061303b565b60405180910390a3505050565b611c33848484611542565b611c3f848484846121ab565b611c7e576040517f08c379a0000000000000000000000000000000000000000000000000000000008152600401611c7590614341565b60405180910390fd5b50505050565b6060611c8f826112c1565b611cce576040517f08c379a0000000000000000000000000000000000000000000000000000000008152600401611cc5906143d3565b60405180910390fd5b6000600a60008481526020019081526020016000208054611cee90613762565b80601f0160208091040260200160405190810160405280929190818152602001828054611d1a90613762565b8015611d675780601f10611d3c57610100808354040283529160200191611d67565b820191906000526020600020905b815481529060010190602001808311611d4a57829003601f168201915b505050505090506000611d78612332565b90506000815103611d8d578192505050611dd0565b600082511115611dc2578082604051602001611daa92919061442f565b60405160208183030381529060405292505050611dd0565b611dcb84612349565b925050505b919050565b60007f780e9d63000000000000000000000000000000000000000000000000000000007bffffffffffffffffffffffffffffffffffffffffffffffffffffffff1916827bffffffffffffffffffffffffffffffffffffffffffffffffffffffff19161480611e485750611e47826123f0565b5b9050919050565b611e598282610ff8565b611ee857611e7e8173ffffffffffffffffffffffffffffffffffffffff1660146124d2565b611e8c8360001c60206124d2565b604051602001611e9d9291906144eb565b6040516020818303038152906040526040517f08c379a0000000000000000000000000000000000000000000000000000000008152600401611edf91906130ef565b60405180910390fd5b5050565b600081600001549050919050565b6001816000016000828254019250508190555050565b611f2a82826040518060200160405280600081525061270e565b5050565b606060008203611f75576040518060400160405280600181526020017f30000000000000000000000000000000000000000000000000000000000000008152509050612089565b600082905060005b60008214611fa7578080611f9090613a13565b915050600a82611fa09190614525565b9150611f7d565b60008167ffffffffffffffff811115611fc357611fc2613545565b5b6040519080825280601f01601f191660200182016040528015611ff55781602001600182028036833780820191505090505b5090505b600085146120825760018261200e919061416d565b9150600a8561201d9190613f86565b603061202991906141a1565b60f81b81838151811061203f5761203e6139b5565b5b60200101907effffffffffffffffffffffffffffffffffffffffffffffffffffffffffffff1916908160001a905350600a8561207b9190614525565b9450611ff9565b8093505050505b919050565b612097826112c1565b6120d6576040517f08c379a00000000000000000000000000000000000000000000000000000000081526004016120cd906145c8565b60405180910390fd5b80600a600084815260200190815260200160002090816120f69190614794565b505050565b612103610e43565b15612143576040517f08c379a000000000000000000000000000000000000000000000000000000000815260040161213a90613995565b60405180910390fd5b61214e838383612769565b505050565b505050565b6121618161287b565b6000600a6000838152602001908152602001600020805461218190613762565b9050146121a857600a600082815260200190815260200160002060006121a79190612f2a565b5b50565b60006121cc8473ffffffffffffffffffffffffffffffffffffffff16612998565b15612325578373ffffffffffffffffffffffffffffffffffffffff1663150b7a026121f561132d565b8786866040518563ffffffff1660e01b815260040161221794939291906148bb565b6020604051808303816000875af192505050801561225357506040513d601f19601f82011682018060405250810190612250919061491c565b60015b6122d5573d8060008114612283576040519150601f19603f3d011682016040523d82523d6000602084013e612288565b606091505b5060008151036122cd576040517f08c379a00000000000000000000000000000000000000000000000000000000081526004016122c490614341565b60405180910390fd5b805181602001fd5b63150b7a0260e01b7bffffffffffffffffffffffffffffffffffffffffffffffffffffffff1916817bffffffffffffffffffffffffffffffffffffffffffffffffffffffff19161491505061232a565b600190505b949350505050565b606060405180602001604052806000815250905090565b6060612354826112c1565b612393576040517f08c379a000000000000000000000000000000000000000000000000000000000815260040161238a906149bb565b60405180910390fd5b600061239d612332565b905060008151116123bd57604051806020016040528060008152506123e8565b806123c784611f2e565b6040516020016123d892919061442f565b6040516020818303038152906040525b915050919050565b60007f80ac58cd000000000000000000000000000000000000000000000000000000007bffffffffffffffffffffffffffffffffffffffffffffffffffffffff1916827bffffffffffffffffffffffffffffffffffffffffffffffffffffffff191614806124bb57507f5b5e139f000000000000000000000000000000000000000000000000000000007bffffffffffffffffffffffffffffffffffffffffffffffffffffffff1916827bffffffffffffffffffffffffffffffffffffffffffffffffffffffff1916145b806124cb57506124ca826129bb565b5b9050919050565b6060600060028360026124e591906149db565b6124ef91906141a1565b67ffffffffffffffff81111561250857612507613545565b5b6040519080825280601f01601f19166020018201604052801561253a5781602001600182028036833780820191505090505b5090507f300000000000000000000000000000000000000000000000000000000000000081600081518110612572576125716139b5565b5b60200101907effffffffffffffffffffffffffffffffffffffffffffffffffffffffffffff1916908160001a9053507f7800000000000000000000000000000000000000000000000000000000000000816001815181106125d6576125d56139b5565b5b60200101907effffffffffffffffffffffffffffffffffffffffffffffffffffffffffffff1916908160001a9053506000600184600261261691906149db565b61262091906141a1565b90505b60018111156126c0577f3031323334353637383961626364656600000000000000000000000000000000600f861660108110612662576126616139b5565b5b1a60f81b828281518110612679576126786139b5565b5b60200101907effffffffffffffffffffffffffffffffffffffffffffffffffffffffffffff1916908160001a905350600485901c9450806126b990614a35565b9050612623565b5060008414612704576040517f08c379a00000000000000000000000000000000000000000000000000000000081526004016126fb90614aaa565b60405180910390fd5b8091505092915050565b6127188383612a25565b61272560008484846121ab565b612764576040517f08c379a000000000000000000000000000000000000000000000000000000000815260040161275b90614341565b60405180910390fd5b505050565b612774838383612bfe565b600073ffffffffffffffffffffffffffffffffffffffff168373ffffffffffffffffffffffffffffffffffffffff16036127b6576127b181612c03565b6127f5565b8173ffffffffffffffffffffffffffffffffffffffff168373ffffffffffffffffffffffffffffffffffffffff16146127f4576127f38382612c4c565b5b5b600073ffffffffffffffffffffffffffffffffffffffff168273ffffffffffffffffffffffffffffffffffffffff16036128375761283281612db9565b612876565b8273ffffffffffffffffffffffffffffffffffffffff168273ffffffffffffffffffffffffffffffffffffffff1614612875576128748282612e8a565b5b5b505050565b600061288682610e5a565b9050612894816000846120fb565b61289f600083611335565b6001600360008373ffffffffffffffffffffffffffffffffffffffff1673ffffffffffffffffffffffffffffffffffffffff16815260200190815260200160002060008282546128ef919061416d565b925050819055506002600083815260200190815260200160002060006101000a81549073ffffffffffffffffffffffffffffffffffffffff021916905581600073ffffffffffffffffffffffffffffffffffffffff168273ffffffffffffffffffffffffffffffffffffffff167fddf252ad1be2c89b69c2b068fc378daa952ba7f163c4a11628f55a4df523b3ef60405160405180910390a461299481600084612153565b5050565b6000808273ffffffffffffffffffffffffffffffffffffffff163b119050919050565b60007f01ffc9a7000000000000000000000000000000000000000000000000000000007bffffffffffffffffffffffffffffffffffffffffffffffffffffffff1916827bffffffffffffffffffffffffffffffffffffffffffffffffffffffff1916149050919050565b600073ffffffffffffffffffffffffffffffffffffffff168273ffffffffffffffffffffffffffffffffffffffff1603612a94576040517f08c379a0000000000000000000000000000000000000000000000000000000008152600401612a8b90614b16565b60405180910390fd5b612a9d816112c1565b15612add576040517f08c379a0000000000000000000000000000000000000000000000000000000008152600401612ad490614b82565b60405180910390fd5b612ae9600083836120fb565b6001600360008473ffffffffffffffffffffffffffffffffffffffff1673ffffffffffffffffffffffffffffffffffffffff1681526020019081526020016000206000828254612b3991906141a1565b92505081905550816002600083815260200190815260200160002060006101000a81548173ffffffffffffffffffffffffffffffffffffffff021916908373ffffffffffffffffffffffffffffffffffffffff160217905550808273ffffffffffffffffffffffffffffffffffffffff16600073ffffffffffffffffffffffffffffffffffffffff167fddf252ad1be2c89b69c2b068fc378daa952ba7f163c4a11628f55a4df523b3ef60405160405180910390a4612bfa60008383612153565b5050565b505050565b6008805490506009600083815260200190815260200160002081905550600881908060018154018082558091505060019003906000526020600020016000909190919091505550565b60006001612c5984610f0b565b612c63919061416d565b9050600060076000848152602001908152602001600020549050818114612d48576000600660008673ffffffffffffffffffffffffffffffffffffffff1673ffffffffffffffffffffffffffffffffffffffff168152602001908152602001600020600084815260200190815260200160002054905080600660008773ffffffffffffffffffffffffffffffffffffffff1673ffffffffffffffffffffffffffffffffffffffff168152602001908152602001600020600084815260200190815260200160002081905550816007600083815260200190815260200160002081905550505b6007600084815260200190815260200160002060009055600660008573ffffffffffffffffffffffffffffffffffffffff1673ffffffffffffffffffffffffffffffffffffffff16815260200190815260200160002060008381526020019081526020016000206000905550505050565b60006001600880549050612dcd919061416d565b9050600060096000848152602001908152602001600020549050600060088381548110612dfd57612dfc6139b5565b5b906000526020600020015490508060088381548110612e1f57612e1e6139b5565b5b906000526020600020018190555081600960008381526020019081526020016000208190555060096000858152602001908152602001600020600090556008805480612e6e57612e6d614ba2565b5b6001900381819060005260206000200160009055905550505050565b6000612e9583610f0b565b905081600660008573ffffffffffffffffffffffffffffffffffffffff1673ffffffffffffffffffffffffffffffffffffffff168152602001908152602001600020600083815260200190815260200160002081905550806007600084815260200190815260200160002081905550505050565b5080546000825590600052602060002090810190612f279190612f6a565b50565b508054612f3690613762565b6000825580601f10612f485750612f67565b601f016020900490600052602060002090810190612f669190612f6a565b5b50565b5b80821115612f83576000816000905550600101612f6b565b5090565b6000604051905090565b600080fd5b600080fd5b60007fffffffff0000000000000000000000000000000000000000000000000000000082169050919050565b612fd081612f9b565b8114612fdb57600080fd5b50565b600081359050612fed81612fc7565b92915050565b60006020828403121561300957613008612f91565b5b600061301784828501612fde565b91505092915050565b60008115159050919050565b61303581613020565b82525050565b6000602082019050613050600083018461302c565b92915050565b600081519050919050565b600082825260208201905092915050565b60005b83811015613090578082015181840152602081019050613075565b8381111561309f576000848401525b50505050565b6000601f19601f8301169050919050565b60006130c182613056565b6130cb8185613061565b93506130db818560208601613072565b6130e4816130a5565b840191505092915050565b6000602082019050818103600083015261310981846130b6565b905092915050565b6000819050919050565b61312481613111565b811461312f57600080fd5b50565b6000813590506131418161311b565b92915050565b60006020828403121561315d5761315c612f91565b5b600061316b84828501613132565b91505092915050565b600073ffffffffffffffffffffffffffffffffffffffff82169050919050565b600061319f82613174565b9050919050565b6131af81613194565b82525050565b60006020820190506131ca60008301846131a6565b92915050565b6131d981613194565b81146131e457600080fd5b50565b6000813590506131f6816131d0565b92915050565b6000806040838503121561321357613212612f91565b5b6000613221858286016131e7565b925050602061323285828601613132565b9150509250929050565b600061324782613174565b9050919050565b6132578161323c565b82525050565b6000602082019050613272600083018461324e565b92915050565b61328181613111565b82525050565b600060208201905061329c6000830184613278565b92915050565b6000806000606084860312156132bb576132ba612f91565b5b60006132c9868287016131e7565b93505060206132da868287016131e7565b92505060406132eb86828701613132565b9150509250925092565b6000819050919050565b613308816132f5565b811461331357600080fd5b50565b600081359050613325816132ff565b92915050565b60006020828403121561334157613340612f91565b5b600061334f84828501613316565b91505092915050565b613361816132f5565b82525050565b600060208201905061337c6000830184613358565b92915050565b6000806040838503121561339957613398612f91565b5b60006133a785828601613316565b92505060206133b8858286016131e7565b9150509250929050565b6000602082840312156133d8576133d7612f91565b5b60006133e6848285016131e7565b91505092915050565b600081519050919050565b600082825260208201905092915050565b6000819050602082019050919050565b61342481613194565b82525050565b6000613436838361341b565b60208301905092915050565b6000602082019050919050565b600061345a826133ef565b61346481856133fa565b935061346f8361340b565b8060005b838110156134a0578151613487888261342a565b975061349283613442565b925050600181019050613473565b5085935050505092915050565b600060208201905081810360008301526134c7818461344f565b905092915050565b6134d881613020565b81146134e357600080fd5b50565b6000813590506134f5816134cf565b92915050565b6000806040838503121561351257613511612f91565b5b6000613520858286016131e7565b9250506020613531858286016134e6565b9150509250929050565b600080fd5b600080fd5b7f4e487b7100000000000000000000000000000000000000000000000000000000600052604160045260246000fd5b61357d826130a5565b810181811067ffffffffffffffff8211171561359c5761359b613545565b5b80604052505050565b60006135af612f87565b90506135bb8282613574565b919050565b600067ffffffffffffffff8211156135db576135da613545565b5b6135e4826130a5565b9050602081019050919050565b82818337600083830152505050565b600061361361360e846135c0565b6135a5565b90508281526020810184848401111561362f5761362e613540565b5b61363a8482856135f1565b509392505050565b600082601f8301126136575761365661353b565b5b8135613667848260208601613600565b91505092915050565b6000806000806080858703121561368a57613689612f91565b5b6000613698878288016131e7565b94505060206136a9878288016131e7565b93505060406136ba87828801613132565b925050606085013567ffffffffffffffff8111156136db576136da612f96565b5b6136e787828801613642565b91505092959194509250565b6000806040838503121561370a57613709612f91565b5b6000613718858286016131e7565b9250506020613729858286016131e7565b9150509250929050565b7f4e487b7100000000000000000000000000000000000000000000000000000000600052602260045260246000fd5b6000600282049050600182168061377a57607f821691505b60208210810361378d5761378c613733565b5b50919050565b7f4552433732313a20617070726f76656420717565727920666f72206e6f6e657860008201527f697374656e7420746f6b656e0000000000000000000000000000000000000000602082015250565b60006137ef602c83613061565b91506137fa82613793565b604082019050919050565b6000602082019050818103600083015261381e816137e2565b9050919050565b7f4552433732313a20617070726f76616c20746f2063757272656e74206f776e6560008201527f7200000000000000000000000000000000000000000000000000000000000000602082015250565b6000613881602183613061565b915061388c82613825565b604082019050919050565b600060208201905081810360008301526138b081613874565b9050919050565b7f4552433732313a20617070726f76652063616c6c6572206973206e6f74206f7760008201527f6e6572206e6f7220617070726f76656420666f7220616c6c0000000000000000602082015250565b6000613913603883613061565b915061391e826138b7565b604082019050919050565b6000602082019050818103600083015261394281613906565b9050919050565b7f5061757361626c653a2070617573656400000000000000000000000000000000600082015250565b600061397f601083613061565b915061398a82613949565b602082019050919050565b600060208201905081810360008301526139ae81613972565b9050919050565b7f4e487b7100000000000000000000000000000000000000000000000000000000600052603260045260246000fd5b7f4e487b7100000000000000000000000000000000000000000000000000000000600052601160045260246000fd5b6000613a1e82613111565b91507fffffffffffffffffffffffffffffffffffffffffffffffffffffffffffffffff8203613a5057613a4f6139e4565b5b600182019050919050565b7f546865206d696e74696e6720686173206265656e20646f6e6520636f7272656360008201527f746c792e00000000000000000000000000000000000000000000000000000000602082015250565b6000613ab7602483613061565b9150613ac282613a5b565b604082019050919050565b60006020820190508181036000830152613ae681613aaa565b9050919050565b7f4552433732313a207472616e736665722063616c6c6572206973206e6f74206f60008201527f776e6572206e6f7220617070726f766564000000000000000000000000000000602082015250565b6000613b49603183613061565b9150613b5482613aed565b604082019050919050565b60006020820190508181036000830152613b7881613b3c565b9050919050565b7f455243373231456e756d657261626c653a206f776e657220696e646578206f7560008201527f74206f6620626f756e6473000000000000000000000000000000000000000000602082015250565b6000613bdb602b83613061565b9150613be682613b7f565b604082019050919050565b60006020820190508181036000830152613c0a81613bce565b9050919050565b7f416363657373436f6e74726f6c3a2063616e206f6e6c792072656e6f756e636560008201527f20726f6c657320666f722073656c660000000000000000000000000000000000602082015250565b6000613c6d602f83613061565b9150613c7882613c11565b604082019050919050565b60006020820190508181036000830152613c9c81613c60565b9050919050565b7f4163636f756e7420726567697374657265642e00000000000000000000000000600082015250565b6000613cd9601383613061565b9150613ce482613ca3565b602082019050919050565b60006020820190508181036000830152613d0881613ccc565b9050919050565b7f4552433732314275726e61626c653a2063616c6c6572206973206e6f74206f7760008201527f6e6572206e6f7220617070726f76656400000000000000000000000000000000602082015250565b6000613d6b603083613061565b9150613d7682613d0f565b604082019050919050565b60006020820190508181036000830152613d9a81613d5e565b9050919050565b7f455243373231456e756d657261626c653a20676c6f62616c20696e646578206f60008201527f7574206f6620626f756e64730000000000000000000000000000000000000000602082015250565b6000613dfd602c83613061565b9150613e0882613da1565b604082019050919050565b60006020820190508181036000830152613e2c81613df0565b9050919050565b7f4552433732313a206f776e657220717565727920666f72206e6f6e657869737460008201527f656e7420746f6b656e0000000000000000000000000000000000000000000000602082015250565b6000613e8f602983613061565b9150613e9a82613e33565b604082019050919050565b60006020820190508181036000830152613ebe81613e82565b9050919050565b7f4552433732313a2062616c616e636520717565727920666f7220746865207a6560008201527f726f206164647265737300000000000000000000000000000000000000000000602082015250565b6000613f21602a83613061565b9150613f2c82613ec5565b604082019050919050565b60006020820190508181036000830152613f5081613f14565b9050919050565b7f4e487b7100000000000000000000000000000000000000000000000000000000600052601260045260246000fd5b6000613f9182613111565b9150613f9c83613111565b925082613fac57613fab613f57565b5b828206905092915050565b7f4552433732313a206f70657261746f7220717565727920666f72206e6f6e657860008201527f697374656e7420746f6b656e0000000000000000000000000000000000000000602082015250565b6000614013602c83613061565b915061401e82613fb7565b604082019050919050565b6000602082019050818103600083015261404281614006565b9050919050565b7f4552433732313a207472616e736665722066726f6d20696e636f72726563742060008201527f6f776e6572000000000000000000000000000000000000000000000000000000602082015250565b60006140a5602583613061565b91506140b082614049565b604082019050919050565b600060208201905081810360008301526140d481614098565b9050919050565b7f4552433732313a207472616e7366657220746f20746865207a65726f2061646460008201527f7265737300000000000000000000000000000000000000000000000000000000602082015250565b6000614137602483613061565b9150614142826140db565b604082019050919050565b600060208201905081810360008301526141668161412a565b9050919050565b600061417882613111565b915061418383613111565b925082821015614196576141956139e4565b5b828203905092915050565b60006141ac82613111565b91506141b783613111565b9250827fffffffffffffffffffffffffffffffffffffffffffffffffffffffffffffffff038211156141ec576141eb6139e4565b5b828201905092915050565b7f5061757361626c653a206e6f7420706175736564000000000000000000000000600082015250565b600061422d601483613061565b9150614238826141f7565b602082019050919050565b6000602082019050818103600083015261425c81614220565b9050919050565b7f4552433732313a20617070726f766520746f2063616c6c657200000000000000600082015250565b6000614299601983613061565b91506142a482614263565b602082019050919050565b600060208201905081810360008301526142c88161428c565b9050919050565b7f4552433732313a207472616e7366657220746f206e6f6e20455243373231526560008201527f63656976657220696d706c656d656e7465720000000000000000000000000000602082015250565b600061432b603283613061565b9150614336826142cf565b604082019050919050565b6000602082019050818103600083015261435a8161431e565b9050919050565b7f45524337323155524953746f726167653a2055524920717565727920666f722060008201527f6e6f6e6578697374656e7420746f6b656e000000000000000000000000000000602082015250565b60006143bd603183613061565b91506143c882614361565b604082019050919050565b600060208201905081810360008301526143ec816143b0565b9050919050565b600081905092915050565b600061440982613056565b61441381856143f3565b9350614423818560208601613072565b80840191505092915050565b600061443b82856143fe565b915061444782846143fe565b91508190509392505050565b7f416363657373436f6e74726f6c3a206163636f756e7420000000000000000000600082015250565b60006144896017836143f3565b915061449482614453565b601782019050919050565b7f206973206d697373696e6720726f6c6520000000000000000000000000000000600082015250565b60006144d56011836143f3565b91506144e08261449f565b601182019050919050565b60006144f68261447c565b915061450282856143fe565b915061450d826144c8565b915061451982846143fe565b91508190509392505050565b600061453082613111565b915061453b83613111565b92508261454b5761454a613f57565b5b828204905092915050565b7f45524337323155524953746f726167653a2055524920736574206f66206e6f6e60008201527f6578697374656e7420746f6b656e000000000000000000000000000000000000602082015250565b60006145b2602e83613061565b91506145bd82614556565b604082019050919050565b600060208201905081810360008301526145e1816145a5565b9050919050565b60008190508160005260206000209050919050565b60006020601f8301049050919050565b600082821b905092915050565b60006008830261464a7fffffffffffffffffffffffffffffffffffffffffffffffffffffffffffffffff8261460d565b614654868361460d565b95508019841693508086168417925050509392505050565b6000819050919050565b600061469161468c61468784613111565b61466c565b613111565b9050919050565b6000819050919050565b6146ab83614676565b6146bf6146b782614698565b84845461461a565b825550505050565b600090565b6146d46146c7565b6146df8184846146a2565b505050565b5b81811015614703576146f86000826146cc565b6001810190506146e5565b5050565b601f82111561474857614719816145e8565b614722846145fd565b81016020851015614731578190505b61474561473d856145fd565b8301826146e4565b50505b505050565b600082821c905092915050565b600061476b6000198460080261474d565b1980831691505092915050565b6000614784838361475a565b9150826002028217905092915050565b61479d82613056565b67ffffffffffffffff8111156147b6576147b5613545565b5b6147c08254613762565b6147cb828285614707565b600060209050601f8311600181146147fe57600084156147ec578287015190505b6147f68582614778565b86555061485e565b601f19841661480c866145e8565b60005b828110156148345784890151825560018201915060208501945060208101905061480f565b86831015614851578489015161484d601f89168261475a565b8355505b6001600288020188555050505b505050505050565b600081519050919050565b600082825260208201905092915050565b600061488d82614866565b6148978185614871565b93506148a7818560208601613072565b6148b0816130a5565b840191505092915050565b60006080820190506148d060008301876131a6565b6148dd60208301866131a6565b6148ea6040830185613278565b81810360608301526148fc8184614882565b905095945050505050565b60008151905061491681612fc7565b92915050565b60006020828403121561493257614931612f91565b5b600061494084828501614907565b91505092915050565b7f4552433732314d657461646174613a2055524920717565727920666f72206e6f60008201527f6e6578697374656e7420746f6b656e0000000000000000000000000000000000602082015250565b60006149a5602f83613061565b91506149b082614949565b604082019050919050565b600060208201905081810360008301526149d481614998565b9050919050565b60006149e682613111565b91506149f183613111565b9250817fffffffffffffffffffffffffffffffffffffffffffffffffffffffffffffffff0483118215151615614a2a57614a296139e4565b5b828202905092915050565b6000614a4082613111565b915060008203614a5357614a526139e4565b5b600182039050919050565b7f537472696e67733a20686578206c656e67746820696e73756666696369656e74600082015250565b6000614a94602083613061565b9150614a9f82614a5e565b602082019050919050565b60006020820190508181036000830152614ac381614a87565b9050919050565b7f4552433732313a206d696e7420746f20746865207a65726f2061646472657373600082015250565b6000614b00602083613061565b9150614b0b82614aca565b602082019050919050565b60006020820190508181036000830152614b2f81614af3565b9050919050565b7f4552433732313a20746f6b656e20616c7265616479206d696e74656400000000600082015250565b6000614b6c601c83613061565b9150614b7782614b36565b602082019050919050565b60006020820190508181036000830152614b9b81614b5f565b9050919050565b7f4e487b7100000000000000000000000000000000000000000000000000000000600052603160045260246000fdfea26469706673582212204e3871babcc4c5dd5e0f4a4801a5178c49ac473672d309fd6d19cb7f972446f264736f6c634300080f0033",
  "immutableReferences": {},
  "source": "// SPDX-License-Identifier: MIT\npragma solidity ^0.8.4;\n\nimport \"@openzeppelin/contracts/token/ERC721/ERC721.sol\";\nimport \"@openzeppelin/contracts/token/ERC721/extensions/ERC721Enumerable.sol\";\nimport \"@openzeppelin/contracts/token/ERC721/extensions/ERC721URIStorage.sol\";\nimport \"@openzeppelin/contracts/security/Pausable.sol\";\nimport \"@openzeppelin/contracts/access/AccessControl.sol\";\nimport \"@openzeppelin/contracts/token/ERC721/extensions/ERC721Burnable.sol\";\nimport \"@openzeppelin/contracts/utils/Counters.sol\";\n\ncontract CryptoTicketsRewards is \n    ERC721, \n    ERC721Enumerable, \n    ERC721URIStorage, \n    Pausable, \n    AccessControl, \n    ERC721Burnable\n{\n    using Counters for Counters.Counter;\n    Counters.Counter private _rewardIdCounter;\n\n    address[] public listUserRewards;\n    address payable public club;\n\n    event Status(string _message);\n    event MsgInfoAccountListOk(string _message, address indexed account);\n    event MsgInfoMinted(string _message, address indexed account);\n\n    constructor() ERC721(\"CryptoTicketsRewards\", \"CTKRW\"){\n        _grantRole(DEFAULT_ADMIN_ROLE, msg.sender);\n        //uri=ipfs://bafkreic3xz5cssins4ihcyoo27kcmflwmgqvpbm2stpr3xfxxnsykgkali/season\n        \n    }\n\n    function pause() public onlyRole(DEFAULT_ADMIN_ROLE) {\n        _pause();\n    }\n\n    function unpause() public onlyRole(DEFAULT_ADMIN_ROLE) {\n        _unpause();\n    }\n\n    function mint(address to) private {\n        uint256 rewardId = _rewardIdCounter.current();\n        _rewardIdCounter.increment();\n        _safeMint(to, rewardId);\n        _setTokenURI(rewardId, Strings.toString(block.number%5));\n    }\n\n    function mintReward() public onlyRole(DEFAULT_ADMIN_ROLE) \n    whenNotPaused\n    {\n       //uri=ipfs://bafybeidpaq5ba6237nat7nmj6yjrkfv2i3qdjj5tnh6kt4b7l7xd3te4u4/season0\n        for (uint i = 0; i<listUserRewards.length; i++){\n            mint(listUserRewards[i]);\n        }\n        emit MsgInfoMinted(\"The minting has been done correctly.\", msg.sender);\n        removeListUserRewards();\n    }\n\n    function _beforeTokenTransfer(address from, address to, uint256 rewardId)\n        internal\n        whenNotPaused\n        override(ERC721, ERC721Enumerable)\n    {\n        super._beforeTokenTransfer(from, to, rewardId);\n    }\n\n    function _burn(uint256 rewardId) internal override(ERC721, ERC721URIStorage) {\n        super._burn(rewardId);\n    }\n    \n    function burnReward(uint256 tokenId) public  {\n        _burn(tokenId);\n    }\n\n    function tokenURI(uint256 rewardId)\n        public\n        view\n        override(ERC721, ERC721URIStorage)\n        returns (string memory)\n    {\n        return super.tokenURI(rewardId);\n    }\n\n    function supportsInterface(bytes4 interfaceId)\n        public\n        view\n        override(ERC721, ERC721Enumerable, AccessControl)\n        returns (bool)\n    {\n        return super.supportsInterface(interfaceId);\n    }\n\n    function grantAdminRol(address account) public onlyRole(DEFAULT_ADMIN_ROLE) {\n        _grantRole(DEFAULT_ADMIN_ROLE, account);\n    }\n\n    function addAddress(address account) public onlyRole(DEFAULT_ADMIN_ROLE){\n        listUserRewards.push(account);\n        emit MsgInfoAccountListOk(\"Account registered.\", account);\n    }\n\n    function getAddressInfo() public view onlyRole(DEFAULT_ADMIN_ROLE) returns(address[] memory) {\n        return(listUserRewards);\n    }\n\n    function removeListUserRewards() internal onlyRole(DEFAULT_ADMIN_ROLE){\n        delete listUserRewards;\n    }\n\n}\n",
  "sourcePath": "/Users/dosorio/Proyectos/Blockchain/SportTickets/contracts/CryptoTicketsRewards.sol",
  "compiler": {
    "name": "solc",
    "version": "0.8.15+commit.e14f2714.Emscripten.clang"
  },
  "schemaVersion": "3.4.7",
  "updatedAt": "2022-07-02T12:15:38.579Z",
  "devdoc": {
    "kind": "dev",
    "methods": {
      "approve(address,uint256)": {
        "details": "See {IERC721-approve}."
      },
      "balanceOf(address)": {
        "details": "See {IERC721-balanceOf}."
      },
      "burn(uint256)": {
        "details": "Burns `tokenId`. See {ERC721-_burn}. Requirements: - The caller must own `tokenId` or be an approved operator."
      },
      "getApproved(uint256)": {
        "details": "See {IERC721-getApproved}."
      },
      "getRoleAdmin(bytes32)": {
        "details": "Returns the admin role that controls `role`. See {grantRole} and {revokeRole}. To change a role's admin, use {_setRoleAdmin}."
      },
      "grantRole(bytes32,address)": {
        "details": "Grants `role` to `account`. If `account` had not been already granted `role`, emits a {RoleGranted} event. Requirements: - the caller must have ``role``'s admin role."
      },
      "hasRole(bytes32,address)": {
        "details": "Returns `true` if `account` has been granted `role`."
      },
      "isApprovedForAll(address,address)": {
        "details": "See {IERC721-isApprovedForAll}."
      },
      "name()": {
        "details": "See {IERC721Metadata-name}."
      },
      "ownerOf(uint256)": {
        "details": "See {IERC721-ownerOf}."
      },
      "paused()": {
        "details": "Returns true if the contract is paused, and false otherwise."
      },
      "renounceRole(bytes32,address)": {
        "details": "Revokes `role` from the calling account. Roles are often managed via {grantRole} and {revokeRole}: this function's purpose is to provide a mechanism for accounts to lose their privileges if they are compromised (such as when a trusted device is misplaced). If the calling account had been revoked `role`, emits a {RoleRevoked} event. Requirements: - the caller must be `account`."
      },
      "revokeRole(bytes32,address)": {
        "details": "Revokes `role` from `account`. If `account` had been granted `role`, emits a {RoleRevoked} event. Requirements: - the caller must have ``role``'s admin role."
      },
      "safeTransferFrom(address,address,uint256)": {
        "details": "See {IERC721-safeTransferFrom}."
      },
      "safeTransferFrom(address,address,uint256,bytes)": {
        "details": "See {IERC721-safeTransferFrom}."
      },
      "setApprovalForAll(address,bool)": {
        "details": "See {IERC721-setApprovalForAll}."
      },
      "symbol()": {
        "details": "See {IERC721Metadata-symbol}."
      },
      "tokenByIndex(uint256)": {
        "details": "See {IERC721Enumerable-tokenByIndex}."
      },
      "tokenOfOwnerByIndex(address,uint256)": {
        "details": "See {IERC721Enumerable-tokenOfOwnerByIndex}."
      },
      "totalSupply()": {
        "details": "See {IERC721Enumerable-totalSupply}."
      },
      "transferFrom(address,address,uint256)": {
        "details": "See {IERC721-transferFrom}."
      }
    },
    "version": 1
  },
  "userdoc": {
    "kind": "user",
    "methods": {},
    "version": 1
  }
}