{
  "contractName": "CryptoTicketsMatchNFTs",
  "abi": [
    {
      "inputs": [
        {
          "internalType": "address",
          "name": "rewardsTicketAddress",
          "type": "address"
        },
        {
          "internalType": "address payable",
          "name": "clubOwnerAddress",
          "type": "address"
        }
      ],
      "stateMutability": "nonpayable",
      "type": "constructor"
    },
    {
      "anonymous": false,
      "inputs": [
        {
          "indexed": true,
          "internalType": "address",
          "name": "owner",
          "type": "address"
        },
        {
          "indexed": true,
          "internalType": "address",
          "name": "approved",
          "type": "address"
        },
        {
          "indexed": true,
          "internalType": "uint256",
          "name": "tokenId",
          "type": "uint256"
        }
      ],
      "name": "Approval",
      "type": "event"
    },
    {
      "anonymous": false,
      "inputs": [
        {
          "indexed": true,
          "internalType": "address",
          "name": "owner",
          "type": "address"
        },
        {
          "indexed": true,
          "internalType": "address",
          "name": "operator",
          "type": "address"
        },
        {
          "indexed": false,
          "internalType": "bool",
          "name": "approved",
          "type": "bool"
        }
      ],
      "name": "ApprovalForAll",
      "type": "event"
    },
    {
      "anonymous": false,
      "inputs": [
        {
          "indexed": false,
          "internalType": "address",
          "name": "account",
          "type": "address"
        }
      ],
      "name": "Paused",
      "type": "event"
    },
    {
      "anonymous": false,
      "inputs": [
        {
          "indexed": true,
          "internalType": "bytes32",
          "name": "role",
          "type": "bytes32"
        },
        {
          "indexed": true,
          "internalType": "bytes32",
          "name": "previousAdminRole",
          "type": "bytes32"
        },
        {
          "indexed": true,
          "internalType": "bytes32",
          "name": "newAdminRole",
          "type": "bytes32"
        }
      ],
      "name": "RoleAdminChanged",
      "type": "event"
    },
    {
      "anonymous": false,
      "inputs": [
        {
          "indexed": true,
          "internalType": "bytes32",
          "name": "role",
          "type": "bytes32"
        },
        {
          "indexed": true,
          "internalType": "address",
          "name": "account",
          "type": "address"
        },
        {
          "indexed": true,
          "internalType": "address",
          "name": "sender",
          "type": "address"
        }
      ],
      "name": "RoleGranted",
      "type": "event"
    },
    {
      "anonymous": false,
      "inputs": [
        {
          "indexed": true,
          "internalType": "bytes32",
          "name": "role",
          "type": "bytes32"
        },
        {
          "indexed": true,
          "internalType": "address",
          "name": "account",
          "type": "address"
        },
        {
          "indexed": true,
          "internalType": "address",
          "name": "sender",
          "type": "address"
        }
      ],
      "name": "RoleRevoked",
      "type": "event"
    },
    {
      "anonymous": false,
      "inputs": [
        {
          "indexed": true,
          "internalType": "address",
          "name": "from",
          "type": "address"
        },
        {
          "indexed": true,
          "internalType": "address",
          "name": "to",
          "type": "address"
        },
        {
          "indexed": true,
          "internalType": "uint256",
          "name": "tokenId",
          "type": "uint256"
        }
      ],
      "name": "Transfer",
      "type": "event"
    },
    {
      "anonymous": false,
      "inputs": [
        {
          "indexed": false,
          "internalType": "address",
          "name": "account",
          "type": "address"
        }
      ],
      "name": "Unpaused",
      "type": "event"
    },
    {
      "inputs": [],
      "name": "ADMIN_CLUB_ROLE",
      "outputs": [
        {
          "internalType": "bytes32",
          "name": "",
          "type": "bytes32"
        }
      ],
      "stateMutability": "view",
      "type": "function",
      "constant": true
    },
    {
      "inputs": [],
      "name": "DEFAULT_ADMIN_ROLE",
      "outputs": [
        {
          "internalType": "bytes32",
          "name": "",
          "type": "bytes32"
        }
      ],
      "stateMutability": "view",
      "type": "function",
      "constant": true
    },
    {
      "inputs": [
        {
          "internalType": "address",
          "name": "to",
          "type": "address"
        },
        {
          "internalType": "uint256",
          "name": "tokenId",
          "type": "uint256"
        }
      ],
      "name": "approve",
      "outputs": [],
      "stateMutability": "nonpayable",
      "type": "function"
    },
    {
      "inputs": [
        {
          "internalType": "address",
          "name": "owner",
          "type": "address"
        }
      ],
      "name": "balanceOf",
      "outputs": [
        {
          "internalType": "uint256",
          "name": "",
          "type": "uint256"
        }
      ],
      "stateMutability": "view",
      "type": "function",
      "constant": true
    },
    {
      "inputs": [
        {
          "internalType": "uint256",
          "name": "tokenId",
          "type": "uint256"
        }
      ],
      "name": "burn",
      "outputs": [],
      "stateMutability": "nonpayable",
      "type": "function"
    },
    {
      "inputs": [
        {
          "internalType": "uint256",
          "name": "tokenId",
          "type": "uint256"
        }
      ],
      "name": "getApproved",
      "outputs": [
        {
          "internalType": "address",
          "name": "",
          "type": "address"
        }
      ],
      "stateMutability": "view",
      "type": "function",
      "constant": true
    },
    {
      "inputs": [
        {
          "internalType": "bytes32",
          "name": "role",
          "type": "bytes32"
        }
      ],
      "name": "getRoleAdmin",
      "outputs": [
        {
          "internalType": "bytes32",
          "name": "",
          "type": "bytes32"
        }
      ],
      "stateMutability": "view",
      "type": "function",
      "constant": true
    },
    {
      "inputs": [
        {
          "internalType": "bytes32",
          "name": "role",
          "type": "bytes32"
        },
        {
          "internalType": "address",
          "name": "account",
          "type": "address"
        }
      ],
      "name": "grantRole",
      "outputs": [],
      "stateMutability": "nonpayable",
      "type": "function"
    },
    {
      "inputs": [
        {
          "internalType": "bytes32",
          "name": "role",
          "type": "bytes32"
        },
        {
          "internalType": "address",
          "name": "account",
          "type": "address"
        }
      ],
      "name": "hasRole",
      "outputs": [
        {
          "internalType": "bool",
          "name": "",
          "type": "bool"
        }
      ],
      "stateMutability": "view",
      "type": "function",
      "constant": true
    },
    {
      "inputs": [
        {
          "internalType": "address",
          "name": "owner",
          "type": "address"
        },
        {
          "internalType": "address",
          "name": "operator",
          "type": "address"
        }
      ],
      "name": "isApprovedForAll",
      "outputs": [
        {
          "internalType": "bool",
          "name": "",
          "type": "bool"
        }
      ],
      "stateMutability": "view",
      "type": "function",
      "constant": true
    },
    {
      "inputs": [
        {
          "internalType": "uint256",
          "name": "",
          "type": "uint256"
        }
      ],
      "name": "listSubscriber",
      "outputs": [
        {
          "internalType": "address",
          "name": "",
          "type": "address"
        }
      ],
      "stateMutability": "view",
      "type": "function",
      "constant": true
    },
    {
      "inputs": [],
      "name": "name",
      "outputs": [
        {
          "internalType": "string",
          "name": "",
          "type": "string"
        }
      ],
      "stateMutability": "view",
      "type": "function",
      "constant": true
    },
    {
      "inputs": [
        {
          "internalType": "uint256",
          "name": "tokenId",
          "type": "uint256"
        }
      ],
      "name": "ownerOf",
      "outputs": [
        {
          "internalType": "address",
          "name": "",
          "type": "address"
        }
      ],
      "stateMutability": "view",
      "type": "function",
      "constant": true
    },
    {
      "inputs": [],
      "name": "paused",
      "outputs": [
        {
          "internalType": "bool",
          "name": "",
          "type": "bool"
        }
      ],
      "stateMutability": "view",
      "type": "function",
      "constant": true
    },
    {
      "inputs": [
        {
          "internalType": "bytes32",
          "name": "role",
          "type": "bytes32"
        },
        {
          "internalType": "address",
          "name": "account",
          "type": "address"
        }
      ],
      "name": "renounceRole",
      "outputs": [],
      "stateMutability": "nonpayable",
      "type": "function"
    },
    {
      "inputs": [
        {
          "internalType": "bytes32",
          "name": "role",
          "type": "bytes32"
        },
        {
          "internalType": "address",
          "name": "account",
          "type": "address"
        }
      ],
      "name": "revokeRole",
      "outputs": [],
      "stateMutability": "nonpayable",
      "type": "function"
    },
    {
      "inputs": [
        {
          "internalType": "uint256",
          "name": "_tokenId",
          "type": "uint256"
        },
        {
          "internalType": "uint256",
          "name": "_salePrice",
          "type": "uint256"
        }
      ],
      "name": "royaltyInfo",
      "outputs": [
        {
          "internalType": "address",
          "name": "",
          "type": "address"
        },
        {
          "internalType": "uint256",
          "name": "",
          "type": "uint256"
        }
      ],
      "stateMutability": "view",
      "type": "function",
      "constant": true
    },
    {
      "inputs": [
        {
          "internalType": "address",
          "name": "from",
          "type": "address"
        },
        {
          "internalType": "address",
          "name": "to",
          "type": "address"
        },
        {
          "internalType": "uint256",
          "name": "tokenId",
          "type": "uint256"
        }
      ],
      "name": "safeTransferFrom",
      "outputs": [],
      "stateMutability": "nonpayable",
      "type": "function"
    },
    {
      "inputs": [
        {
          "internalType": "address",
          "name": "from",
          "type": "address"
        },
        {
          "internalType": "address",
          "name": "to",
          "type": "address"
        },
        {
          "internalType": "uint256",
          "name": "tokenId",
          "type": "uint256"
        },
        {
          "internalType": "bytes",
          "name": "_data",
          "type": "bytes"
        }
      ],
      "name": "safeTransferFrom",
      "outputs": [],
      "stateMutability": "nonpayable",
      "type": "function"
    },
    {
      "inputs": [
        {
          "internalType": "address",
          "name": "operator",
          "type": "address"
        },
        {
          "internalType": "bool",
          "name": "approved",
          "type": "bool"
        }
      ],
      "name": "setApprovalForAll",
      "outputs": [],
      "stateMutability": "nonpayable",
      "type": "function"
    },
    {
      "inputs": [],
      "name": "symbol",
      "outputs": [
        {
          "internalType": "string",
          "name": "",
          "type": "string"
        }
      ],
      "stateMutability": "view",
      "type": "function",
      "constant": true
    },
    {
      "inputs": [
        {
          "internalType": "uint256",
          "name": "index",
          "type": "uint256"
        }
      ],
      "name": "tokenByIndex",
      "outputs": [
        {
          "internalType": "uint256",
          "name": "",
          "type": "uint256"
        }
      ],
      "stateMutability": "view",
      "type": "function",
      "constant": true
    },
    {
      "inputs": [
        {
          "internalType": "address",
          "name": "owner",
          "type": "address"
        },
        {
          "internalType": "uint256",
          "name": "index",
          "type": "uint256"
        }
      ],
      "name": "tokenOfOwnerByIndex",
      "outputs": [
        {
          "internalType": "uint256",
          "name": "",
          "type": "uint256"
        }
      ],
      "stateMutability": "view",
      "type": "function",
      "constant": true
    },
    {
      "inputs": [
        {
          "internalType": "uint256",
          "name": "",
          "type": "uint256"
        }
      ],
      "name": "tokensMintedByMatch",
      "outputs": [
        {
          "internalType": "uint256",
          "name": "",
          "type": "uint256"
        }
      ],
      "stateMutability": "view",
      "type": "function",
      "constant": true
    },
    {
      "inputs": [],
      "name": "totalSupply",
      "outputs": [
        {
          "internalType": "uint256",
          "name": "",
          "type": "uint256"
        }
      ],
      "stateMutability": "view",
      "type": "function",
      "constant": true
    },
    {
      "inputs": [
        {
          "internalType": "address",
          "name": "from",
          "type": "address"
        },
        {
          "internalType": "address",
          "name": "to",
          "type": "address"
        },
        {
          "internalType": "uint256",
          "name": "tokenId",
          "type": "uint256"
        }
      ],
      "name": "transferFrom",
      "outputs": [],
      "stateMutability": "nonpayable",
      "type": "function"
    },
    {
      "inputs": [],
      "name": "contractURI",
      "outputs": [
        {
          "internalType": "string",
          "name": "",
          "type": "string"
        }
      ],
      "stateMutability": "pure",
      "type": "function",
      "constant": true
    },
    {
      "inputs": [],
      "name": "pause",
      "outputs": [],
      "stateMutability": "nonpayable",
      "type": "function"
    },
    {
      "inputs": [],
      "name": "unpause",
      "outputs": [],
      "stateMutability": "nonpayable",
      "type": "function"
    },
    {
      "inputs": [
        {
          "internalType": "uint256",
          "name": "matchId",
          "type": "uint256"
        },
        {
          "internalType": "uint256",
          "name": "maxCapacity",
          "type": "uint256"
        },
        {
          "internalType": "string",
          "name": "uri",
          "type": "string"
        },
        {
          "internalType": "uint256",
          "name": "carSize",
          "type": "uint256"
        }
      ],
      "name": "airdropMatchTickets",
      "outputs": [],
      "stateMutability": "nonpayable",
      "type": "function"
    },
    {
      "inputs": [
        {
          "internalType": "address",
          "name": "to",
          "type": "address"
        },
        {
          "internalType": "uint256",
          "name": "matchId",
          "type": "uint256"
        },
        {
          "internalType": "uint256",
          "name": "maxCapacity",
          "type": "uint256"
        },
        {
          "internalType": "string",
          "name": "uri",
          "type": "string"
        },
        {
          "internalType": "uint256",
          "name": "carSize",
          "type": "uint256"
        }
      ],
      "name": "mintSaleMatchTicket",
      "outputs": [],
      "stateMutability": "payable",
      "type": "function",
      "payable": true
    },
    {
      "inputs": [
        {
          "internalType": "uint256",
          "name": "matchId",
          "type": "uint256"
        }
      ],
      "name": "getTotalMintedTicketsByMatchId",
      "outputs": [
        {
          "internalType": "uint256",
          "name": "",
          "type": "uint256"
        }
      ],
      "stateMutability": "view",
      "type": "function",
      "constant": true
    },
    {
      "inputs": [
        {
          "internalType": "uint256",
          "name": "tokenId",
          "type": "uint256"
        }
      ],
      "name": "burnTicket",
      "outputs": [],
      "stateMutability": "nonpayable",
      "type": "function"
    },
    {
      "inputs": [
        {
          "internalType": "uint256",
          "name": "matchId",
          "type": "uint256"
        }
      ],
      "name": "tokenURI",
      "outputs": [
        {
          "internalType": "string",
          "name": "",
          "type": "string"
        }
      ],
      "stateMutability": "view",
      "type": "function",
      "constant": true
    },
    {
      "inputs": [
        {
          "internalType": "bytes4",
          "name": "interfaceId",
          "type": "bytes4"
        }
      ],
      "name": "supportsInterface",
      "outputs": [
        {
          "internalType": "bool",
          "name": "",
          "type": "bool"
        }
      ],
      "stateMutability": "view",
      "type": "function",
      "constant": true
    },
    {
      "inputs": [
        {
          "internalType": "address",
          "name": "account",
          "type": "address"
        }
      ],
      "name": "grantAdminRol",
      "outputs": [],
      "stateMutability": "nonpayable",
      "type": "function"
    },
    {
      "inputs": [
        {
          "internalType": "address",
          "name": "account",
          "type": "address"
        }
      ],
      "name": "grantClubRol",
      "outputs": [],
      "stateMutability": "nonpayable",
      "type": "function"
    },
    {
      "inputs": [
        {
          "internalType": "address",
          "name": "account",
          "type": "address"
        }
      ],
      "name": "revokeClubRol",
      "outputs": [],
      "stateMutability": "nonpayable",
      "type": "function"
    },
    {
      "inputs": [
        {
          "internalType": "address",
          "name": "account",
          "type": "address"
        }
      ],
      "name": "addAMembershipddress",
      "outputs": [],
      "stateMutability": "nonpayable",
      "type": "function"
    },
    {
      "inputs": [
        {
          "internalType": "address",
          "name": "value",
          "type": "address"
        }
      ],
      "name": "findAddress",
      "outputs": [
        {
          "internalType": "uint256",
          "name": "",
          "type": "uint256"
        }
      ],
      "stateMutability": "view",
      "type": "function",
      "constant": true
    },
    {
      "inputs": [],
      "name": "getAddressInfo",
      "outputs": [
        {
          "internalType": "address[]",
          "name": "",
          "type": "address[]"
        }
      ],
      "stateMutability": "view",
      "type": "function",
      "constant": true
    },
    {
      "inputs": [
        {
          "internalType": "address",
          "name": "value",
          "type": "address"
        }
      ],
      "name": "removeMembershipAddress",
      "outputs": [],
      "stateMutability": "nonpayable",
      "type": "function"
    },
    {
      "inputs": [
        {
          "internalType": "address",
          "name": "_receiver",
          "type": "address"
        },
        {
          "internalType": "uint96",
          "name": "_royaltyFeesInBips",
          "type": "uint96"
        }
      ],
      "name": "setRoyaltyInfo",
      "outputs": [],
      "stateMutability": "nonpayable",
      "type": "function"
    }
  ],
  "bytecode": "0x60806040526103e86014806101000a8154816bffffffffffffffffffffffff02191690836bffffffffffffffffffffffff1602179055503480156200004357600080fd5b5060405162006e4d38038062006e4d833981810160405281019062000069919062000941565b6040518060400160405280601681526020017f43727970746f5469636b6574734d617463684e465473000000000000000000008152506040518060400160405280600581526020017f43544b4d4e0000000000000000000000000000000000000000000000000000008152508160009081620000e6919062000c02565b508060019081620000f8919062000c02565b5050506000600b60006101000a81548160ff02191690831515021790555081600f60006101000a81548173ffffffffffffffffffffffffffffffffffffffff021916908373ffffffffffffffffffffffffffffffffffffffff1602179055506200016c6000801b336200021160201b60201c565b6200019e7f9894090c012e113e817b2d99a7f6ad3e666491f10820f12b8bc4b139f2ea06bb336200021160201b60201c565b80601460006101000a81548173ffffffffffffffffffffffffffffffffffffffff021916908373ffffffffffffffffffffffffffffffffffffffff160217905550620002098160148054906101000a90046bffffffffffffffffffffffff166200030360201b60201c565b505062001190565b6200022382826200032f60201b60201c565b620002ff576001600c600084815260200190815260200160002060000160008373ffffffffffffffffffffffffffffffffffffffff1673ffffffffffffffffffffffffffffffffffffffff16815260200190815260200160002060006101000a81548160ff021916908315150217905550620002a46200039a60201b60201c565b73ffffffffffffffffffffffffffffffffffffffff168173ffffffffffffffffffffffffffffffffffffffff16837f2f8788117e7eff1d82e926ec794901d17c78024a50270940304540a733656f0d60405160405180910390a45b5050565b6000801b6200031881620003a260201b60201c565b6200032a8383620003c660201b60201c565b505050565b6000600c600084815260200190815260200160002060000160008373ffffffffffffffffffffffffffffffffffffffff1673ffffffffffffffffffffffffffffffffffffffff16815260200190815260200160002060009054906101000a900460ff16905092915050565b600033905090565b620003c381620003b76200039a60201b60201c565b6200056960201b60201c565b50565b620003d66200062d60201b60201c565b6bffffffffffffffffffffffff16816bffffffffffffffffffffffff16111562000437576040517f08c379a00000000000000000000000000000000000000000000000000000000081526004016200042e9062000d70565b60405180910390fd5b600073ffffffffffffffffffffffffffffffffffffffff168273ffffffffffffffffffffffffffffffffffffffff1603620004a9576040517f08c379a0000000000000000000000000000000000000000000000000000000008152600401620004a09062000de2565b60405180910390fd5b60405180604001604052808373ffffffffffffffffffffffffffffffffffffffff168152602001826bffffffffffffffffffffffff16815250600d60008201518160000160006101000a81548173ffffffffffffffffffffffffffffffffffffffff021916908373ffffffffffffffffffffffffffffffffffffffff16021790555060208201518160000160146101000a8154816bffffffffffffffffffffffff02191690836bffffffffffffffffffffffff1602179055509050505050565b6200057b82826200032f60201b60201c565b6200062957620005ae8173ffffffffffffffffffffffffffffffffffffffff1660146200063760201b62001dc71760201c565b620005c98360001c60206200063760201b62001dc71760201c565b604051602001620005dc92919062000f1c565b6040516020818303038152906040526040517f08c379a000000000000000000000000000000000000000000000000000000000815260040162000620919062000fb0565b60405180910390fd5b5050565b6000612710905090565b6060600060028360026200064c919062001003565b62000658919062001064565b67ffffffffffffffff81111562000674576200067362000993565b5b6040519080825280601f01601f191660200182016040528015620006a75781602001600182028036833780820191505090505b5090507f300000000000000000000000000000000000000000000000000000000000000081600081518110620006e257620006e1620010c1565b5b60200101907effffffffffffffffffffffffffffffffffffffffffffffffffffffffffffff1916908160001a9053507f780000000000000000000000000000000000000000000000000000000000000081600181518110620007495762000748620010c1565b5b60200101907effffffffffffffffffffffffffffffffffffffffffffffffffffffffffffff1916908160001a905350600060018460026200078b919062001003565b62000797919062001064565b90505b600181111562000841577f3031323334353637383961626364656600000000000000000000000000000000600f861660108110620007dd57620007dc620010c1565b5b1a60f81b828281518110620007f757620007f6620010c1565b5b60200101907effffffffffffffffffffffffffffffffffffffffffffffffffffffffffffff1916908160001a905350600485901c9450806200083990620010f0565b90506200079a565b506000841462000888576040517f08c379a00000000000000000000000000000000000000000000000000000000081526004016200087f906200116e565b60405180910390fd5b8091505092915050565b600080fd5b600073ffffffffffffffffffffffffffffffffffffffff82169050919050565b6000620008c48262000897565b9050919050565b620008d681620008b7565b8114620008e257600080fd5b50565b600081519050620008f681620008cb565b92915050565b6000620009098262000897565b9050919050565b6200091b81620008fc565b81146200092757600080fd5b50565b6000815190506200093b8162000910565b92915050565b600080604083850312156200095b576200095a62000892565b5b60006200096b85828601620008e5565b92505060206200097e858286016200092a565b9150509250929050565b600081519050919050565b7f4e487b7100000000000000000000000000000000000000000000000000000000600052604160045260246000fd5b7f4e487b7100000000000000000000000000000000000000000000000000000000600052602260045260246000fd5b6000600282049050600182168062000a0a57607f821691505b60208210810362000a205762000a1f620009c2565b5b50919050565b60008190508160005260206000209050919050565b60006020601f8301049050919050565b600082821b905092915050565b60006008830262000a8a7fffffffffffffffffffffffffffffffffffffffffffffffffffffffffffffffff8262000a4b565b62000a96868362000a4b565b95508019841693508086168417925050509392505050565b6000819050919050565b6000819050919050565b600062000ae362000add62000ad78462000aae565b62000ab8565b62000aae565b9050919050565b6000819050919050565b62000aff8362000ac2565b62000b1762000b0e8262000aea565b84845462000a58565b825550505050565b600090565b62000b2e62000b1f565b62000b3b81848462000af4565b505050565b5b8181101562000b635762000b5760008262000b24565b60018101905062000b41565b5050565b601f82111562000bb25762000b7c8162000a26565b62000b878462000a3b565b8101602085101562000b97578190505b62000baf62000ba68562000a3b565b83018262000b40565b50505b505050565b600082821c905092915050565b600062000bd76000198460080262000bb7565b1980831691505092915050565b600062000bf2838362000bc4565b9150826002028217905092915050565b62000c0d8262000988565b67ffffffffffffffff81111562000c295762000c2862000993565b5b62000c358254620009f1565b62000c4282828562000b67565b600060209050601f83116001811462000c7a576000841562000c65578287015190505b62000c71858262000be4565b86555062000ce1565b601f19841662000c8a8662000a26565b60005b8281101562000cb45784890151825560018201915060208501945060208101905062000c8d565b8683101562000cd4578489015162000cd0601f89168262000bc4565b8355505b6001600288020188555050505b505050505050565b600082825260208201905092915050565b7f455243323938313a20726f79616c7479206665652077696c6c2065786365656460008201527f2073616c65507269636500000000000000000000000000000000000000000000602082015250565b600062000d58602a8362000ce9565b915062000d658262000cfa565b604082019050919050565b6000602082019050818103600083015262000d8b8162000d49565b9050919050565b7f455243323938313a20696e76616c696420726563656976657200000000000000600082015250565b600062000dca60198362000ce9565b915062000dd78262000d92565b602082019050919050565b6000602082019050818103600083015262000dfd8162000dbb565b9050919050565b600081905092915050565b7f416363657373436f6e74726f6c3a206163636f756e7420000000000000000000600082015250565b600062000e4760178362000e04565b915062000e548262000e0f565b601782019050919050565b60005b8381101562000e7f57808201518184015260208101905062000e62565b8381111562000e8f576000848401525b50505050565b600062000ea28262000988565b62000eae818562000e04565b935062000ec081856020860162000e5f565b80840191505092915050565b7f206973206d697373696e6720726f6c6520000000000000000000000000000000600082015250565b600062000f0460118362000e04565b915062000f118262000ecc565b601182019050919050565b600062000f298262000e38565b915062000f37828562000e95565b915062000f448262000ef5565b915062000f52828462000e95565b91508190509392505050565b6000601f19601f8301169050919050565b600062000f7c8262000988565b62000f88818562000ce9565b935062000f9a81856020860162000e5f565b62000fa58162000f5e565b840191505092915050565b6000602082019050818103600083015262000fcc818462000f6f565b905092915050565b7f4e487b7100000000000000000000000000000000000000000000000000000000600052601160045260246000fd5b6000620010108262000aae565b91506200101d8362000aae565b9250817fffffffffffffffffffffffffffffffffffffffffffffffffffffffffffffffff048311821515161562001059576200105862000fd4565b5b828202905092915050565b6000620010718262000aae565b91506200107e8362000aae565b9250827fffffffffffffffffffffffffffffffffffffffffffffffffffffffffffffffff03821115620010b657620010b562000fd4565b5b828201905092915050565b7f4e487b7100000000000000000000000000000000000000000000000000000000600052603260045260246000fd5b6000620010fd8262000aae565b91506000820362001113576200111262000fd4565b5b600182039050919050565b7f537472696e67733a20686578206c656e67746820696e73756666696369656e74600082015250565b60006200115660208362000ce9565b915062001163826200111e565b602082019050919050565b60006020820190508181036000830152620011898162001147565b9050919050565b615cad80620011a06000396000f3fe60806040526004361061025c5760003560e01c80635047611711610144578063a217fddf116100b6578063c87b56dd1161007a578063c87b56dd14610930578063cd08dbb21461096d578063d547741f14610996578063e8a3d485146109bf578063e985e9c5146109ea578063fe5a066614610a275761025c565b8063a217fddf14610861578063a22cb4651461088c578063a476b73d146108b5578063a9f16f3e146108de578063b88d4fde146109075761025c565b806376d20c181161010857806376d20c181461074c5780638456cb591461076857806391d148541461077f57806395d89b41146107bc5780639749afc3146107e75780639b6dd9ae146108245761025c565b806350476117146106555780635c975abb1461067e5780636352211e146106a957806370a08231146106e65780637367c0d0146107235761025c565b80632a55205a116101dd5780633bf08451116101a15780633bf08451146105595780633f4ba83a1461058457806342842e0e1461059b57806342966c68146105c45780634f2a36ab146105ed5780634f6ccce7146106185761025c565b80632a55205a1461044f5780632f2ff15d1461048d5780632f745c59146104b657806330a254a5146104f357806336568abe146105305761025c565b8063095ea7b311610224578063095ea7b31461036c5780631355e5171461039557806318160ddd146103be57806323b872dd146103e9578063248a9ca3146104125761025c565b806301ffc9a71461026157806302fa7c471461029e5780630309aca3146102c757806306fdde0314610304578063081812fc1461032f575b600080fd5b34801561026d57600080fd5b5061028860048036038101906102839190613d70565b610a50565b6040516102959190613db8565b60405180910390f35b3480156102aa57600080fd5b506102c560048036038101906102c09190613e75565b610a62565b005b3480156102d357600080fd5b506102ee60048036038101906102e99190613eb5565b610a7e565b6040516102fb9190613efb565b60405180910390f35b34801561031057600080fd5b50610319610b13565b6040516103269190613faf565b60405180910390f35b34801561033b57600080fd5b5061035660048036038101906103519190613ffd565b610ba5565b6040516103639190614039565b60405180910390f35b34801561037857600080fd5b50610393600480360381019061038e9190614054565b610c2a565b005b3480156103a157600080fd5b506103bc60048036038101906103b79190613eb5565b610d41565b005b3480156103ca57600080fd5b506103d3610db5565b6040516103e09190613efb565b60405180910390f35b3480156103f557600080fd5b50610410600480360381019061040b9190614094565b610dc2565b005b34801561041e57600080fd5b506104396004803603810190610434919061411d565b610e22565b6040516104469190614159565b60405180910390f35b34801561045b57600080fd5b5061047660048036038101906104719190614174565b610e42565b6040516104849291906141b4565b60405180910390f35b34801561049957600080fd5b506104b460048036038101906104af91906141dd565b61102c565b005b3480156104c257600080fd5b506104dd60048036038101906104d89190614054565b61104d565b6040516104ea9190613efb565b60405180910390f35b3480156104ff57600080fd5b5061051a60048036038101906105159190613ffd565b6110f2565b6040516105279190613efb565b60405180910390f35b34801561053c57600080fd5b50610557600480360381019061055291906141dd565b61110f565b005b34801561056557600080fd5b5061056e611192565b60405161057b9190614159565b60405180910390f35b34801561059057600080fd5b506105996111b6565b005b3480156105a757600080fd5b506105c260048036038101906105bd9190614094565b6111eb565b005b3480156105d057600080fd5b506105eb60048036038101906105e69190613ffd565b61120b565b005b3480156105f957600080fd5b50610602611267565b60405161060f91906142db565b60405180910390f35b34801561062457600080fd5b5061063f600480360381019061063a9190613ffd565b6112f5565b60405161064c9190613efb565b60405180910390f35b34801561066157600080fd5b5061067c60048036038101906106779190613eb5565b611366565b005b34801561068a57600080fd5b5061069361142e565b6040516106a09190613db8565b60405180910390f35b3480156106b557600080fd5b506106d060048036038101906106cb9190613ffd565b611445565b6040516106dd9190614039565b60405180910390f35b3480156106f257600080fd5b5061070d60048036038101906107089190613eb5565b6114f6565b60405161071a9190613efb565b60405180910390f35b34801561072f57600080fd5b5061074a60048036038101906107459190613eb5565b6115ad565b005b61076660048036038101906107619190614432565b6115cb565b005b34801561077457600080fd5b5061077d611718565b005b34801561078b57600080fd5b506107a660048036038101906107a191906141dd565b61174d565b6040516107b39190613db8565b60405180910390f35b3480156107c857600080fd5b506107d16117b8565b6040516107de9190613faf565b60405180910390f35b3480156107f357600080fd5b5061080e60048036038101906108099190613ffd565b61184a565b60405161081b9190613efb565b60405180910390f35b34801561083057600080fd5b5061084b60048036038101906108469190613ffd565b611862565b6040516108589190614039565b60405180910390f35b34801561086d57600080fd5b506108766118a1565b6040516108839190614159565b60405180910390f35b34801561089857600080fd5b506108b360048036038101906108ae91906144f5565b6118a8565b005b3480156108c157600080fd5b506108dc60048036038101906108d79190613ffd565b6118be565b005b3480156108ea57600080fd5b5061090560048036038101906109009190614535565b611957565b005b34801561091357600080fd5b5061092e60048036038101906109299190614659565b611ab2565b005b34801561093c57600080fd5b5061095760048036038101906109529190613ffd565b611b14565b6040516109649190613faf565b60405180910390f35b34801561097957600080fd5b50610994600480360381019061098f9190613eb5565b611b26565b005b3480156109a257600080fd5b506109bd60048036038101906109b891906141dd565b611c2a565b005b3480156109cb57600080fd5b506109d4611c4b565b6040516109e19190613faf565b60405180910390f35b3480156109f657600080fd5b50610a116004803603810190610a0c91906146dc565b611c6b565b604051610a1e9190613db8565b60405180910390f35b348015610a3357600080fd5b50610a4e6004803603810190610a499190613eb5565b611cff565b005b6000610a5b82612003565b9050919050565b6000801b610a6f8161207d565b610a798383612091565b505050565b600080600090505b8273ffffffffffffffffffffffffffffffffffffffff1660128281548110610ab157610ab061471c565b5b9060005260206000200160009054906101000a900473ffffffffffffffffffffffffffffffffffffffff1673ffffffffffffffffffffffffffffffffffffffff1614610b0a578080610b029061477a565b915050610a86565b80915050919050565b606060008054610b22906147f1565b80601f0160208091040260200160405190810160405280929190818152602001828054610b4e906147f1565b8015610b9b5780601f10610b7057610100808354040283529160200191610b9b565b820191906000526020600020905b815481529060010190602001808311610b7e57829003601f168201915b5050505050905090565b6000610bb082612226565b610bef576040517f08c379a0000000000000000000000000000000000000000000000000000000008152600401610be690614894565b60405180910390fd5b6004600083815260200190815260200160002060009054906101000a900473ffffffffffffffffffffffffffffffffffffffff169050919050565b6000610c3582611445565b90508073ffffffffffffffffffffffffffffffffffffffff168373ffffffffffffffffffffffffffffffffffffffff1603610ca5576040517f08c379a0000000000000000000000000000000000000000000000000000000008152600401610c9c90614926565b60405180910390fd5b8073ffffffffffffffffffffffffffffffffffffffff16610cc4612292565b73ffffffffffffffffffffffffffffffffffffffff161480610cf35750610cf281610ced612292565b611c6b565b5b610d32576040517f08c379a0000000000000000000000000000000000000000000000000000000008152600401610d29906149b8565b60405180910390fd5b610d3c838361229a565b505050565b6000801b610d4e8161207d565b6012829080600181540180825580915050600190039060005260206000200160009091909190916101000a81548173ffffffffffffffffffffffffffffffffffffffff021916908373ffffffffffffffffffffffffffffffffffffffff1602179055505050565b6000600880549050905090565b610dd3610dcd612292565b82612353565b610e12576040517f08c379a0000000000000000000000000000000000000000000000000000000008152600401610e0990614a4a565b60405180910390fd5b610e1d838383612431565b505050565b6000600c6000838152602001908152602001600020600101549050919050565b6000806000600e60008681526020019081526020016000206040518060400160405290816000820160009054906101000a900473ffffffffffffffffffffffffffffffffffffffff1673ffffffffffffffffffffffffffffffffffffffff1673ffffffffffffffffffffffffffffffffffffffff1681526020016000820160149054906101000a90046bffffffffffffffffffffffff166bffffffffffffffffffffffff166bffffffffffffffffffffffff16815250509050600073ffffffffffffffffffffffffffffffffffffffff16816000015173ffffffffffffffffffffffffffffffffffffffff1603610fd757600d6040518060400160405290816000820160009054906101000a900473ffffffffffffffffffffffffffffffffffffffff1673ffffffffffffffffffffffffffffffffffffffff1673ffffffffffffffffffffffffffffffffffffffff1681526020016000820160149054906101000a90046bffffffffffffffffffffffff166bffffffffffffffffffffffff166bffffffffffffffffffffffff168152505090505b6000610fe1612697565b6bffffffffffffffffffffffff1682602001516bffffffffffffffffffffffff168661100d9190614a6a565b6110179190614af3565b90508160000151819350935050509250929050565b61103582610e22565b61103e8161207d565b61104883836126a1565b505050565b6000611058836114f6565b8210611099576040517f08c379a000000000000000000000000000000000000000000000000000000000815260040161109090614b96565b60405180910390fd5b600660008473ffffffffffffffffffffffffffffffffffffffff1673ffffffffffffffffffffffffffffffffffffffff168152602001908152602001600020600083815260200190815260200160002054905092915050565b600060136000838152602001908152602001600020549050919050565b611117612292565b73ffffffffffffffffffffffffffffffffffffffff168173ffffffffffffffffffffffffffffffffffffffff1614611184576040517f08c379a000000000000000000000000000000000000000000000000000000000815260040161117b90614c28565b60405180910390fd5b61118e8282612782565b5050565b7f9894090c012e113e817b2d99a7f6ad3e666491f10820f12b8bc4b139f2ea06bb81565b7f9894090c012e113e817b2d99a7f6ad3e666491f10820f12b8bc4b139f2ea06bb6111e08161207d565b6111e8612864565b50565b61120683838360405180602001604052806000815250611ab2565b505050565b61121c611216612292565b82612353565b61125b576040517f08c379a000000000000000000000000000000000000000000000000000000000815260040161125290614cba565b60405180910390fd5b61126481612906565b50565b606060128054806020026020016040519081016040528092919081815260200182805480156112eb57602002820191906000526020600020905b8160009054906101000a900473ffffffffffffffffffffffffffffffffffffffff1673ffffffffffffffffffffffffffffffffffffffff16815260200190600101908083116112a1575b5050505050905090565b60006112ff610db5565b8210611340576040517f08c379a000000000000000000000000000000000000000000000000000000000815260040161133790614d4c565b60405180910390fd5b600882815481106113545761135361471c565b5b90600052602060002001549050919050565b6000801b6113738161207d565b61139d7f9894090c012e113e817b2d99a7f6ad3e666491f10820f12b8bc4b139f2ea06bb836126a1565b600f60009054906101000a900473ffffffffffffffffffffffffffffffffffffffff1673ffffffffffffffffffffffffffffffffffffffff16637367c0d0836040518263ffffffff1660e01b81526004016113f89190614039565b600060405180830381600087803b15801561141257600080fd5b505af1158015611426573d6000803e3d6000fd5b505050505050565b6000600b60009054906101000a900460ff16905090565b6000806002600084815260200190815260200160002060009054906101000a900473ffffffffffffffffffffffffffffffffffffffff169050600073ffffffffffffffffffffffffffffffffffffffff168173ffffffffffffffffffffffffffffffffffffffff16036114ed576040517f08c379a00000000000000000000000000000000000000000000000000000000081526004016114e490614dde565b60405180910390fd5b80915050919050565b60008073ffffffffffffffffffffffffffffffffffffffff168273ffffffffffffffffffffffffffffffffffffffff1603611566576040517f08c379a000000000000000000000000000000000000000000000000000000000815260040161155d90614e70565b60405180910390fd5b600360008373ffffffffffffffffffffffffffffffffffffffff1673ffffffffffffffffffffffffffffffffffffffff168152602001908152602001600020549050919050565b6000801b6115ba8161207d565b6115c76000801b836126a1565b5050565b7f9894090c012e113e817b2d99a7f6ad3e666491f10820f12b8bc4b139f2ea06bb6115f58161207d565b83600160136000888152602001908152602001600020546116169190614e90565b1115611657576040517f08c379a000000000000000000000000000000000000000000000000000000000815260040161164e90614f32565b60405180910390fd5b60006013600087815260200190815260200160002054905061167b87858386612912565b600160136000888152602001908152602001600020600082825461169f9190614e90565b92505081905550601460009054906101000a900473ffffffffffffffffffffffffffffffffffffffff1673ffffffffffffffffffffffffffffffffffffffff166108fc349081150290604051600060405180830381858888f1935050505015801561170e573d6000803e3d6000fd5b5050505050505050565b7f9894090c012e113e817b2d99a7f6ad3e666491f10820f12b8bc4b139f2ea06bb6117428161207d565b61174a612979565b50565b6000600c600084815260200190815260200160002060000160008373ffffffffffffffffffffffffffffffffffffffff1673ffffffffffffffffffffffffffffffffffffffff16815260200190815260200160002060009054906101000a900460ff16905092915050565b6060600180546117c7906147f1565b80601f01602080910402602001604051908101604052809291908181526020018280546117f3906147f1565b80156118405780601f1061181557610100808354040283529160200191611840565b820191906000526020600020905b81548152906001019060200180831161182357829003601f168201915b5050505050905090565b60136020528060005260406000206000915090505481565b6012818154811061187257600080fd5b906000526020600020016000915054906101000a900473ffffffffffffffffffffffffffffffffffffffff1681565b6000801b81565b6118ba6118b3612292565b8383612a1c565b5050565b6118c781612906565b600f60009054906101000a900473ffffffffffffffffffffffffffffffffffffffff1673ffffffffffffffffffffffffffffffffffffffff16636ed2c6cf336040518263ffffffff1660e01b81526004016119229190614039565b600060405180830381600087803b15801561193c57600080fd5b505af1158015611950573d6000803e3d6000fd5b5050505050565b7f9894090c012e113e817b2d99a7f6ad3e666491f10820f12b8bc4b139f2ea06bb6119818161207d565b8360128054905060136000888152602001908152602001600020546119a69190614e90565b11156119e7576040517f08c379a00000000000000000000000000000000000000000000000000000000081526004016119de90614f32565b60405180910390fd5b60006013600087815260200190815260200160002054905060005b601280549050811015611a7a57611a5960128281548110611a2657611a2561471c565b5b9060005260206000200160009054906101000a900473ffffffffffffffffffffffffffffffffffffffff16868487612912565b8180611a649061477a565b9250508080611a729061477a565b915050611a02565b50601280549050601360008881526020019081526020016000206000828254611aa39190614e90565b92505081905550505050505050565b611ac3611abd612292565b83612353565b611b02576040517f08c379a0000000000000000000000000000000000000000000000000000000008152600401611af990614a4a565b60405180910390fd5b611b0e84848484612b88565b50505050565b6060611b1f82612be4565b9050919050565b6000611b3182610a7e565b905060126001601280549050611b479190614f52565b81548110611b5857611b5761471c565b5b9060005260206000200160009054906101000a900473ffffffffffffffffffffffffffffffffffffffff1660128281548110611b9757611b9661471c565b5b9060005260206000200160006101000a81548173ffffffffffffffffffffffffffffffffffffffff021916908373ffffffffffffffffffffffffffffffffffffffff1602179055506012805480611bf157611bf0614f86565b5b6001900381819060005260206000200160006101000a81549073ffffffffffffffffffffffffffffffffffffffff021916905590555050565b611c3382610e22565b611c3c8161207d565b611c468383612782565b505050565b6060604051806080016040528060518152602001615c2760519139905090565b6000600560008473ffffffffffffffffffffffffffffffffffffffff1673ffffffffffffffffffffffffffffffffffffffff16815260200190815260200160002060008373ffffffffffffffffffffffffffffffffffffffff1673ffffffffffffffffffffffffffffffffffffffff16815260200190815260200160002060009054906101000a900460ff16905092915050565b6000801b611d0c8161207d565b611d367f9894090c012e113e817b2d99a7f6ad3e666491f10820f12b8bc4b139f2ea06bb83612782565b600f60009054906101000a900473ffffffffffffffffffffffffffffffffffffffff1673ffffffffffffffffffffffffffffffffffffffff166376ad43b7836040518263ffffffff1660e01b8152600401611d919190614039565b600060405180830381600087803b158015611dab57600080fd5b505af1158015611dbf573d6000803e3d6000fd5b505050505050565b606060006002836002611dda9190614a6a565b611de49190614e90565b67ffffffffffffffff811115611dfd57611dfc614307565b5b6040519080825280601f01601f191660200182016040528015611e2f5781602001600182028036833780820191505090505b5090507f300000000000000000000000000000000000000000000000000000000000000081600081518110611e6757611e6661471c565b5b60200101907effffffffffffffffffffffffffffffffffffffffffffffffffffffffffffff1916908160001a9053507f780000000000000000000000000000000000000000000000000000000000000081600181518110611ecb57611eca61471c565b5b60200101907effffffffffffffffffffffffffffffffffffffffffffffffffffffffffffff1916908160001a90535060006001846002611f0b9190614a6a565b611f159190614e90565b90505b6001811115611fb5577f3031323334353637383961626364656600000000000000000000000000000000600f861660108110611f5757611f5661471c565b5b1a60f81b828281518110611f6e57611f6d61471c565b5b60200101907effffffffffffffffffffffffffffffffffffffffffffffffffffffffffffff1916908160001a905350600485901c945080611fae90614fb5565b9050611f18565b5060008414611ff9576040517f08c379a0000000000000000000000000000000000000000000000000000000008152600401611ff09061502a565b60405180910390fd5b8091505092915050565b60007f2a55205a000000000000000000000000000000000000000000000000000000007bffffffffffffffffffffffffffffffffffffffffffffffffffffffff1916827bffffffffffffffffffffffffffffffffffffffffffffffffffffffff19161480612076575061207582612d35565b5b9050919050565b61208e81612089612292565b612daf565b50565b612099612697565b6bffffffffffffffffffffffff16816bffffffffffffffffffffffff1611156120f7576040517f08c379a00000000000000000000000000000000000000000000000000000000081526004016120ee906150bc565b60405180910390fd5b600073ffffffffffffffffffffffffffffffffffffffff168273ffffffffffffffffffffffffffffffffffffffff1603612166576040517f08c379a000000000000000000000000000000000000000000000000000000000815260040161215d90615128565b60405180910390fd5b60405180604001604052808373ffffffffffffffffffffffffffffffffffffffff168152602001826bffffffffffffffffffffffff16815250600d60008201518160000160006101000a81548173ffffffffffffffffffffffffffffffffffffffff021916908373ffffffffffffffffffffffffffffffffffffffff16021790555060208201518160000160146101000a8154816bffffffffffffffffffffffff02191690836bffffffffffffffffffffffff1602179055509050505050565b60008073ffffffffffffffffffffffffffffffffffffffff166002600084815260200190815260200160002060009054906101000a900473ffffffffffffffffffffffffffffffffffffffff1673ffffffffffffffffffffffffffffffffffffffff1614159050919050565b600033905090565b816004600083815260200190815260200160002060006101000a81548173ffffffffffffffffffffffffffffffffffffffff021916908373ffffffffffffffffffffffffffffffffffffffff160217905550808273ffffffffffffffffffffffffffffffffffffffff1661230d83611445565b73ffffffffffffffffffffffffffffffffffffffff167f8c5be1e5ebec7d5bd14f71427d1e84f3dd0314c0f7b2291e5b200ac8c7c3b92560405160405180910390a45050565b600061235e82612226565b61239d576040517f08c379a0000000000000000000000000000000000000000000000000000000008152600401612394906151ba565b60405180910390fd5b60006123a883611445565b90508073ffffffffffffffffffffffffffffffffffffffff168473ffffffffffffffffffffffffffffffffffffffff1614806123ea57506123e98185611c6b565b5b8061242857508373ffffffffffffffffffffffffffffffffffffffff1661241084610ba5565b73ffffffffffffffffffffffffffffffffffffffff16145b91505092915050565b8273ffffffffffffffffffffffffffffffffffffffff1661245182611445565b73ffffffffffffffffffffffffffffffffffffffff16146124a7576040517f08c379a000000000000000000000000000000000000000000000000000000000815260040161249e9061524c565b60405180910390fd5b600073ffffffffffffffffffffffffffffffffffffffff168273ffffffffffffffffffffffffffffffffffffffff1603612516576040517f08c379a000000000000000000000000000000000000000000000000000000000815260040161250d906152de565b60405180910390fd5b612521838383612e4c565b61252c60008261229a565b6001600360008573ffffffffffffffffffffffffffffffffffffffff1673ffffffffffffffffffffffffffffffffffffffff168152602001908152602001600020600082825461257c9190614f52565b925050819055506001600360008473ffffffffffffffffffffffffffffffffffffffff1673ffffffffffffffffffffffffffffffffffffffff16815260200190815260200160002060008282546125d39190614e90565b92505081905550816002600083815260200190815260200160002060006101000a81548173ffffffffffffffffffffffffffffffffffffffff021916908373ffffffffffffffffffffffffffffffffffffffff160217905550808273ffffffffffffffffffffffffffffffffffffffff168473ffffffffffffffffffffffffffffffffffffffff167fddf252ad1be2c89b69c2b068fc378daa952ba7f163c4a11628f55a4df523b3ef60405160405180910390a4612692838383612ea4565b505050565b6000612710905090565b6126ab828261174d565b61277e576001600c600084815260200190815260200160002060000160008373ffffffffffffffffffffffffffffffffffffffff1673ffffffffffffffffffffffffffffffffffffffff16815260200190815260200160002060006101000a81548160ff021916908315150217905550612723612292565b73ffffffffffffffffffffffffffffffffffffffff168173ffffffffffffffffffffffffffffffffffffffff16837f2f8788117e7eff1d82e926ec794901d17c78024a50270940304540a733656f0d60405160405180910390a45b5050565b61278c828261174d565b15612860576000600c600084815260200190815260200160002060000160008373ffffffffffffffffffffffffffffffffffffffff1673ffffffffffffffffffffffffffffffffffffffff16815260200190815260200160002060006101000a81548160ff021916908315150217905550612805612292565b73ffffffffffffffffffffffffffffffffffffffff168173ffffffffffffffffffffffffffffffffffffffff16837ff6391f5c32d9c69d2a47ea670b442974b53935d1edc7fd64eb21e047a839171b60405160405180910390a45b5050565b61286c61142e565b6128ab576040517f08c379a00000000000000000000000000000000000000000000000000000000081526004016128a29061534a565b60405180910390fd5b6000600b60006101000a81548160ff0219169083151502179055507f5db9ee0a495bf2e6ff9c91a7834c1ba4fdd244a5e8aa4e537bd38aeae4b073aa6128ef612292565b6040516128fc9190614039565b60405180910390a1565b61290f81612ea9565b50565b600061291e6010612efc565b905061292a6010612f0a565b6129348582612f20565b612972818561294d8587612948919061536a565b612f3e565b60405160200161295e9291906153d7565b60405160208183030381529060405261309e565b5050505050565b61298161142e565b156129c1576040517f08c379a00000000000000000000000000000000000000000000000000000000081526004016129b890615447565b60405180910390fd5b6001600b60006101000a81548160ff0219169083151502179055507f62e78cea01bee320cd4e420270b5ea74000d11b0c9f74754ebdbfc544b05a258612a05612292565b604051612a129190614039565b60405180910390a1565b8173ffffffffffffffffffffffffffffffffffffffff168373ffffffffffffffffffffffffffffffffffffffff1603612a8a576040517f08c379a0000000000000000000000000000000000000000000000000000000008152600401612a81906154b3565b60405180910390fd5b80600560008573ffffffffffffffffffffffffffffffffffffffff1673ffffffffffffffffffffffffffffffffffffffff16815260200190815260200160002060008473ffffffffffffffffffffffffffffffffffffffff1673ffffffffffffffffffffffffffffffffffffffff16815260200190815260200160002060006101000a81548160ff0219169083151502179055508173ffffffffffffffffffffffffffffffffffffffff168373ffffffffffffffffffffffffffffffffffffffff167f17307eab39ab6107e8899845ad3d59bd9653f200f220920489ca2b5937696c3183604051612b7b9190613db8565b60405180910390a3505050565b612b93848484612431565b612b9f8484848461310b565b612bde576040517f08c379a0000000000000000000000000000000000000000000000000000000008152600401612bd590615545565b60405180910390fd5b50505050565b6060612bef82612226565b612c2e576040517f08c379a0000000000000000000000000000000000000000000000000000000008152600401612c25906155d7565b60405180910390fd5b6000600a60008481526020019081526020016000208054612c4e906147f1565b80601f0160208091040260200160405190810160405280929190818152602001828054612c7a906147f1565b8015612cc75780601f10612c9c57610100808354040283529160200191612cc7565b820191906000526020600020905b815481529060010190602001808311612caa57829003601f168201915b505050505090506000612cd8613292565b90506000815103612ced578192505050612d30565b600082511115612d22578082604051602001612d0a9291906153d7565b60405160208183030381529060405292505050612d30565b612d2b846132a9565b925050505b919050565b60007f7965db0b000000000000000000000000000000000000000000000000000000007bffffffffffffffffffffffffffffffffffffffffffffffffffffffff1916827bffffffffffffffffffffffffffffffffffffffffffffffffffffffff19161480612da85750612da782613350565b5b9050919050565b612db9828261174d565b612e4857612dde8173ffffffffffffffffffffffffffffffffffffffff166014611dc7565b612dec8360001c6020611dc7565b604051602001612dfd92919061568f565b6040516020818303038152906040526040517f08c379a0000000000000000000000000000000000000000000000000000000008152600401612e3f9190613faf565b60405180910390fd5b5050565b612e5461142e565b15612e94576040517f08c379a0000000000000000000000000000000000000000000000000000000008152600401612e8b90615447565b60405180910390fd5b612e9f8383836133ca565b505050565b505050565b612eb2816134dc565b6000600a60008381526020019081526020016000208054612ed2906147f1565b905014612ef957600a60008281526020019081526020016000206000612ef89190613ca7565b5b50565b600081600001549050919050565b6001816000016000828254019250508190555050565b612f3a8282604051806020016040528060008152506135f9565b5050565b606060008203612f85576040518060400160405280600181526020017f30000000000000000000000000000000000000000000000000000000000000008152509050613099565b600082905060005b60008214612fb7578080612fa09061477a565b915050600a82612fb09190614af3565b9150612f8d565b60008167ffffffffffffffff811115612fd357612fd2614307565b5b6040519080825280601f01601f1916602001820160405280156130055781602001600182028036833780820191505090505b5090505b600085146130925760018261301e9190614f52565b9150600a8561302d919061536a565b60306130399190614e90565b60f81b81838151811061304f5761304e61471c565b5b60200101907effffffffffffffffffffffffffffffffffffffffffffffffffffffffffffff1916908160001a905350600a8561308b9190614af3565b9450613009565b8093505050505b919050565b6130a782612226565b6130e6576040517f08c379a00000000000000000000000000000000000000000000000000000000081526004016130dd9061573b565b60405180910390fd5b80600a600084815260200190815260200160002090816131069190615907565b505050565b600061312c8473ffffffffffffffffffffffffffffffffffffffff16613654565b15613285578373ffffffffffffffffffffffffffffffffffffffff1663150b7a02613155612292565b8786866040518563ffffffff1660e01b81526004016131779493929190615a2e565b6020604051808303816000875af19250505080156131b357506040513d601f19601f820116820180604052508101906131b09190615a8f565b60015b613235573d80600081146131e3576040519150601f19603f3d011682016040523d82523d6000602084013e6131e8565b606091505b50600081510361322d576040517f08c379a000000000000000000000000000000000000000000000000000000000815260040161322490615545565b60405180910390fd5b805181602001fd5b63150b7a0260e01b7bffffffffffffffffffffffffffffffffffffffffffffffffffffffff1916817bffffffffffffffffffffffffffffffffffffffffffffffffffffffff19161491505061328a565b600190505b949350505050565b606060405180602001604052806000815250905090565b60606132b482612226565b6132f3576040517f08c379a00000000000000000000000000000000000000000000000000000000081526004016132ea90615b2e565b60405180910390fd5b60006132fd613292565b9050600081511161331d5760405180602001604052806000815250613348565b8061332784612f3e565b6040516020016133389291906153d7565b6040516020818303038152906040525b915050919050565b60007f780e9d63000000000000000000000000000000000000000000000000000000007bffffffffffffffffffffffffffffffffffffffffffffffffffffffff1916827bffffffffffffffffffffffffffffffffffffffffffffffffffffffff191614806133c357506133c282613677565b5b9050919050565b6133d5838383613759565b600073ffffffffffffffffffffffffffffffffffffffff168373ffffffffffffffffffffffffffffffffffffffff1603613417576134128161375e565b613456565b8173ffffffffffffffffffffffffffffffffffffffff168373ffffffffffffffffffffffffffffffffffffffff16146134555761345483826137a7565b5b5b600073ffffffffffffffffffffffffffffffffffffffff168273ffffffffffffffffffffffffffffffffffffffff16036134985761349381613914565b6134d7565b8273ffffffffffffffffffffffffffffffffffffffff168273ffffffffffffffffffffffffffffffffffffffff16146134d6576134d582826139e5565b5b5b505050565b60006134e782611445565b90506134f581600084612e4c565b61350060008361229a565b6001600360008373ffffffffffffffffffffffffffffffffffffffff1673ffffffffffffffffffffffffffffffffffffffff16815260200190815260200160002060008282546135509190614f52565b925050819055506002600083815260200190815260200160002060006101000a81549073ffffffffffffffffffffffffffffffffffffffff021916905581600073ffffffffffffffffffffffffffffffffffffffff168273ffffffffffffffffffffffffffffffffffffffff167fddf252ad1be2c89b69c2b068fc378daa952ba7f163c4a11628f55a4df523b3ef60405160405180910390a46135f581600084612ea4565b5050565b6136038383613a64565b613610600084848461310b565b61364f576040517f08c379a000000000000000000000000000000000000000000000000000000000815260040161364690615545565b60405180910390fd5b505050565b6000808273ffffffffffffffffffffffffffffffffffffffff163b119050919050565b60007f80ac58cd000000000000000000000000000000000000000000000000000000007bffffffffffffffffffffffffffffffffffffffffffffffffffffffff1916827bffffffffffffffffffffffffffffffffffffffffffffffffffffffff1916148061374257507f5b5e139f000000000000000000000000000000000000000000000000000000007bffffffffffffffffffffffffffffffffffffffffffffffffffffffff1916827bffffffffffffffffffffffffffffffffffffffffffffffffffffffff1916145b80613752575061375182613c3d565b5b9050919050565b505050565b6008805490506009600083815260200190815260200160002081905550600881908060018154018082558091505060019003906000526020600020016000909190919091505550565b600060016137b4846114f6565b6137be9190614f52565b90506000600760008481526020019081526020016000205490508181146138a3576000600660008673ffffffffffffffffffffffffffffffffffffffff1673ffffffffffffffffffffffffffffffffffffffff168152602001908152602001600020600084815260200190815260200160002054905080600660008773ffffffffffffffffffffffffffffffffffffffff1673ffffffffffffffffffffffffffffffffffffffff168152602001908152602001600020600084815260200190815260200160002081905550816007600083815260200190815260200160002081905550505b6007600084815260200190815260200160002060009055600660008573ffffffffffffffffffffffffffffffffffffffff1673ffffffffffffffffffffffffffffffffffffffff16815260200190815260200160002060008381526020019081526020016000206000905550505050565b600060016008805490506139289190614f52565b90506000600960008481526020019081526020016000205490506000600883815481106139585761395761471c565b5b90600052602060002001549050806008838154811061397a5761397961471c565b5b9060005260206000200181905550816009600083815260200190815260200160002081905550600960008581526020019081526020016000206000905560088054806139c9576139c8614f86565b5b6001900381819060005260206000200160009055905550505050565b60006139f0836114f6565b905081600660008573ffffffffffffffffffffffffffffffffffffffff1673ffffffffffffffffffffffffffffffffffffffff168152602001908152602001600020600083815260200190815260200160002081905550806007600084815260200190815260200160002081905550505050565b600073ffffffffffffffffffffffffffffffffffffffff168273ffffffffffffffffffffffffffffffffffffffff1603613ad3576040517f08c379a0000000000000000000000000000000000000000000000000000000008152600401613aca90615b9a565b60405180910390fd5b613adc81612226565b15613b1c576040517f08c379a0000000000000000000000000000000000000000000000000000000008152600401613b1390615c06565b60405180910390fd5b613b2860008383612e4c565b6001600360008473ffffffffffffffffffffffffffffffffffffffff1673ffffffffffffffffffffffffffffffffffffffff1681526020019081526020016000206000828254613b789190614e90565b92505081905550816002600083815260200190815260200160002060006101000a81548173ffffffffffffffffffffffffffffffffffffffff021916908373ffffffffffffffffffffffffffffffffffffffff160217905550808273ffffffffffffffffffffffffffffffffffffffff16600073ffffffffffffffffffffffffffffffffffffffff167fddf252ad1be2c89b69c2b068fc378daa952ba7f163c4a11628f55a4df523b3ef60405160405180910390a4613c3960008383612ea4565b5050565b60007f01ffc9a7000000000000000000000000000000000000000000000000000000007bffffffffffffffffffffffffffffffffffffffffffffffffffffffff1916827bffffffffffffffffffffffffffffffffffffffffffffffffffffffff1916149050919050565b508054613cb3906147f1565b6000825580601f10613cc55750613ce4565b601f016020900490600052602060002090810190613ce39190613ce7565b5b50565b5b80821115613d00576000816000905550600101613ce8565b5090565b6000604051905090565b600080fd5b600080fd5b60007fffffffff0000000000000000000000000000000000000000000000000000000082169050919050565b613d4d81613d18565b8114613d5857600080fd5b50565b600081359050613d6a81613d44565b92915050565b600060208284031215613d8657613d85613d0e565b5b6000613d9484828501613d5b565b91505092915050565b60008115159050919050565b613db281613d9d565b82525050565b6000602082019050613dcd6000830184613da9565b92915050565b600073ffffffffffffffffffffffffffffffffffffffff82169050919050565b6000613dfe82613dd3565b9050919050565b613e0e81613df3565b8114613e1957600080fd5b50565b600081359050613e2b81613e05565b92915050565b60006bffffffffffffffffffffffff82169050919050565b613e5281613e31565b8114613e5d57600080fd5b50565b600081359050613e6f81613e49565b92915050565b60008060408385031215613e8c57613e8b613d0e565b5b6000613e9a85828601613e1c565b9250506020613eab85828601613e60565b9150509250929050565b600060208284031215613ecb57613eca613d0e565b5b6000613ed984828501613e1c565b91505092915050565b6000819050919050565b613ef581613ee2565b82525050565b6000602082019050613f106000830184613eec565b92915050565b600081519050919050565b600082825260208201905092915050565b60005b83811015613f50578082015181840152602081019050613f35565b83811115613f5f576000848401525b50505050565b6000601f19601f8301169050919050565b6000613f8182613f16565b613f8b8185613f21565b9350613f9b818560208601613f32565b613fa481613f65565b840191505092915050565b60006020820190508181036000830152613fc98184613f76565b905092915050565b613fda81613ee2565b8114613fe557600080fd5b50565b600081359050613ff781613fd1565b92915050565b60006020828403121561401357614012613d0e565b5b600061402184828501613fe8565b91505092915050565b61403381613df3565b82525050565b600060208201905061404e600083018461402a565b92915050565b6000806040838503121561406b5761406a613d0e565b5b600061407985828601613e1c565b925050602061408a85828601613fe8565b9150509250929050565b6000806000606084860312156140ad576140ac613d0e565b5b60006140bb86828701613e1c565b93505060206140cc86828701613e1c565b92505060406140dd86828701613fe8565b9150509250925092565b6000819050919050565b6140fa816140e7565b811461410557600080fd5b50565b600081359050614117816140f1565b92915050565b60006020828403121561413357614132613d0e565b5b600061414184828501614108565b91505092915050565b614153816140e7565b82525050565b600060208201905061416e600083018461414a565b92915050565b6000806040838503121561418b5761418a613d0e565b5b600061419985828601613fe8565b92505060206141aa85828601613fe8565b9150509250929050565b60006040820190506141c9600083018561402a565b6141d66020830184613eec565b9392505050565b600080604083850312156141f4576141f3613d0e565b5b600061420285828601614108565b925050602061421385828601613e1c565b9150509250929050565b600081519050919050565b600082825260208201905092915050565b6000819050602082019050919050565b61425281613df3565b82525050565b60006142648383614249565b60208301905092915050565b6000602082019050919050565b60006142888261421d565b6142928185614228565b935061429d83614239565b8060005b838110156142ce5781516142b58882614258565b97506142c083614270565b9250506001810190506142a1565b5085935050505092915050565b600060208201905081810360008301526142f5818461427d565b905092915050565b600080fd5b600080fd5b7f4e487b7100000000000000000000000000000000000000000000000000000000600052604160045260246000fd5b61433f82613f65565b810181811067ffffffffffffffff8211171561435e5761435d614307565b5b80604052505050565b6000614371613d04565b905061437d8282614336565b919050565b600067ffffffffffffffff82111561439d5761439c614307565b5b6143a682613f65565b9050602081019050919050565b82818337600083830152505050565b60006143d56143d084614382565b614367565b9050828152602081018484840111156143f1576143f0614302565b5b6143fc8482856143b3565b509392505050565b600082601f830112614419576144186142fd565b5b81356144298482602086016143c2565b91505092915050565b600080600080600060a0868803121561444e5761444d613d0e565b5b600061445c88828901613e1c565b955050602061446d88828901613fe8565b945050604061447e88828901613fe8565b935050606086013567ffffffffffffffff81111561449f5761449e613d13565b5b6144ab88828901614404565b92505060806144bc88828901613fe8565b9150509295509295909350565b6144d281613d9d565b81146144dd57600080fd5b50565b6000813590506144ef816144c9565b92915050565b6000806040838503121561450c5761450b613d0e565b5b600061451a85828601613e1c565b925050602061452b858286016144e0565b9150509250929050565b6000806000806080858703121561454f5761454e613d0e565b5b600061455d87828801613fe8565b945050602061456e87828801613fe8565b935050604085013567ffffffffffffffff81111561458f5761458e613d13565b5b61459b87828801614404565b92505060606145ac87828801613fe8565b91505092959194509250565b600067ffffffffffffffff8211156145d3576145d2614307565b5b6145dc82613f65565b9050602081019050919050565b60006145fc6145f7846145b8565b614367565b90508281526020810184848401111561461857614617614302565b5b6146238482856143b3565b509392505050565b600082601f8301126146405761463f6142fd565b5b81356146508482602086016145e9565b91505092915050565b6000806000806080858703121561467357614672613d0e565b5b600061468187828801613e1c565b945050602061469287828801613e1c565b93505060406146a387828801613fe8565b925050606085013567ffffffffffffffff8111156146c4576146c3613d13565b5b6146d08782880161462b565b91505092959194509250565b600080604083850312156146f3576146f2613d0e565b5b600061470185828601613e1c565b925050602061471285828601613e1c565b9150509250929050565b7f4e487b7100000000000000000000000000000000000000000000000000000000600052603260045260246000fd5b7f4e487b7100000000000000000000000000000000000000000000000000000000600052601160045260246000fd5b600061478582613ee2565b91507fffffffffffffffffffffffffffffffffffffffffffffffffffffffffffffffff82036147b7576147b661474b565b5b600182019050919050565b7f4e487b7100000000000000000000000000000000000000000000000000000000600052602260045260246000fd5b6000600282049050600182168061480957607f821691505b60208210810361481c5761481b6147c2565b5b50919050565b7f4552433732313a20617070726f76656420717565727920666f72206e6f6e657860008201527f697374656e7420746f6b656e0000000000000000000000000000000000000000602082015250565b600061487e602c83613f21565b915061488982614822565b604082019050919050565b600060208201905081810360008301526148ad81614871565b9050919050565b7f4552433732313a20617070726f76616c20746f2063757272656e74206f776e6560008201527f7200000000000000000000000000000000000000000000000000000000000000602082015250565b6000614910602183613f21565b915061491b826148b4565b604082019050919050565b6000602082019050818103600083015261493f81614903565b9050919050565b7f4552433732313a20617070726f76652063616c6c6572206973206e6f74206f7760008201527f6e6572206e6f7220617070726f76656420666f7220616c6c0000000000000000602082015250565b60006149a2603883613f21565b91506149ad82614946565b604082019050919050565b600060208201905081810360008301526149d181614995565b9050919050565b7f4552433732313a207472616e736665722063616c6c6572206973206e6f74206f60008201527f776e6572206e6f7220617070726f766564000000000000000000000000000000602082015250565b6000614a34603183613f21565b9150614a3f826149d8565b604082019050919050565b60006020820190508181036000830152614a6381614a27565b9050919050565b6000614a7582613ee2565b9150614a8083613ee2565b9250817fffffffffffffffffffffffffffffffffffffffffffffffffffffffffffffffff0483118215151615614ab957614ab861474b565b5b828202905092915050565b7f4e487b7100000000000000000000000000000000000000000000000000000000600052601260045260246000fd5b6000614afe82613ee2565b9150614b0983613ee2565b925082614b1957614b18614ac4565b5b828204905092915050565b7f455243373231456e756d657261626c653a206f776e657220696e646578206f7560008201527f74206f6620626f756e6473000000000000000000000000000000000000000000602082015250565b6000614b80602b83613f21565b9150614b8b82614b24565b604082019050919050565b60006020820190508181036000830152614baf81614b73565b9050919050565b7f416363657373436f6e74726f6c3a2063616e206f6e6c792072656e6f756e636560008201527f20726f6c657320666f722073656c660000000000000000000000000000000000602082015250565b6000614c12602f83613f21565b9150614c1d82614bb6565b604082019050919050565b60006020820190508181036000830152614c4181614c05565b9050919050565b7f4552433732314275726e61626c653a2063616c6c6572206973206e6f74206f7760008201527f6e6572206e6f7220617070726f76656400000000000000000000000000000000602082015250565b6000614ca4603083613f21565b9150614caf82614c48565b604082019050919050565b60006020820190508181036000830152614cd381614c97565b9050919050565b7f455243373231456e756d657261626c653a20676c6f62616c20696e646578206f60008201527f7574206f6620626f756e64730000000000000000000000000000000000000000602082015250565b6000614d36602c83613f21565b9150614d4182614cda565b604082019050919050565b60006020820190508181036000830152614d6581614d29565b9050919050565b7f4552433732313a206f776e657220717565727920666f72206e6f6e657869737460008201527f656e7420746f6b656e0000000000000000000000000000000000000000000000602082015250565b6000614dc8602983613f21565b9150614dd382614d6c565b604082019050919050565b60006020820190508181036000830152614df781614dbb565b9050919050565b7f4552433732313a2062616c616e636520717565727920666f7220746865207a6560008201527f726f206164647265737300000000000000000000000000000000000000000000602082015250565b6000614e5a602a83613f21565b9150614e6582614dfe565b604082019050919050565b60006020820190508181036000830152614e8981614e4d565b9050919050565b6000614e9b82613ee2565b9150614ea683613ee2565b9250827fffffffffffffffffffffffffffffffffffffffffffffffffffffffffffffffff03821115614edb57614eda61474b565b5b828201905092915050565b7f4d617463682069732066756c6c00000000000000000000000000000000000000600082015250565b6000614f1c600d83613f21565b9150614f2782614ee6565b602082019050919050565b60006020820190508181036000830152614f4b81614f0f565b9050919050565b6000614f5d82613ee2565b9150614f6883613ee2565b925082821015614f7b57614f7a61474b565b5b828203905092915050565b7f4e487b7100000000000000000000000000000000000000000000000000000000600052603160045260246000fd5b6000614fc082613ee2565b915060008203614fd357614fd261474b565b5b600182039050919050565b7f537472696e67733a20686578206c656e67746820696e73756666696369656e74600082015250565b6000615014602083613f21565b915061501f82614fde565b602082019050919050565b6000602082019050818103600083015261504381615007565b9050919050565b7f455243323938313a20726f79616c7479206665652077696c6c2065786365656460008201527f2073616c65507269636500000000000000000000000000000000000000000000602082015250565b60006150a6602a83613f21565b91506150b18261504a565b604082019050919050565b600060208201905081810360008301526150d581615099565b9050919050565b7f455243323938313a20696e76616c696420726563656976657200000000000000600082015250565b6000615112601983613f21565b915061511d826150dc565b602082019050919050565b6000602082019050818103600083015261514181615105565b9050919050565b7f4552433732313a206f70657261746f7220717565727920666f72206e6f6e657860008201527f697374656e7420746f6b656e0000000000000000000000000000000000000000602082015250565b60006151a4602c83613f21565b91506151af82615148565b604082019050919050565b600060208201905081810360008301526151d381615197565b9050919050565b7f4552433732313a207472616e736665722066726f6d20696e636f72726563742060008201527f6f776e6572000000000000000000000000000000000000000000000000000000602082015250565b6000615236602583613f21565b9150615241826151da565b604082019050919050565b6000602082019050818103600083015261526581615229565b9050919050565b7f4552433732313a207472616e7366657220746f20746865207a65726f2061646460008201527f7265737300000000000000000000000000000000000000000000000000000000602082015250565b60006152c8602483613f21565b91506152d38261526c565b604082019050919050565b600060208201905081810360008301526152f7816152bb565b9050919050565b7f5061757361626c653a206e6f7420706175736564000000000000000000000000600082015250565b6000615334601483613f21565b915061533f826152fe565b602082019050919050565b6000602082019050818103600083015261536381615327565b9050919050565b600061537582613ee2565b915061538083613ee2565b9250826153905761538f614ac4565b5b828206905092915050565b600081905092915050565b60006153b182613f16565b6153bb818561539b565b93506153cb818560208601613f32565b80840191505092915050565b60006153e382856153a6565b91506153ef82846153a6565b91508190509392505050565b7f5061757361626c653a2070617573656400000000000000000000000000000000600082015250565b6000615431601083613f21565b915061543c826153fb565b602082019050919050565b6000602082019050818103600083015261546081615424565b9050919050565b7f4552433732313a20617070726f766520746f2063616c6c657200000000000000600082015250565b600061549d601983613f21565b91506154a882615467565b602082019050919050565b600060208201905081810360008301526154cc81615490565b9050919050565b7f4552433732313a207472616e7366657220746f206e6f6e20455243373231526560008201527f63656976657220696d706c656d656e7465720000000000000000000000000000602082015250565b600061552f603283613f21565b915061553a826154d3565b604082019050919050565b6000602082019050818103600083015261555e81615522565b9050919050565b7f45524337323155524953746f726167653a2055524920717565727920666f722060008201527f6e6f6e6578697374656e7420746f6b656e000000000000000000000000000000602082015250565b60006155c1603183613f21565b91506155cc82615565565b604082019050919050565b600060208201905081810360008301526155f0816155b4565b9050919050565b7f416363657373436f6e74726f6c3a206163636f756e7420000000000000000000600082015250565b600061562d60178361539b565b9150615638826155f7565b601782019050919050565b7f206973206d697373696e6720726f6c6520000000000000000000000000000000600082015250565b600061567960118361539b565b915061568482615643565b601182019050919050565b600061569a82615620565b91506156a682856153a6565b91506156b18261566c565b91506156bd82846153a6565b91508190509392505050565b7f45524337323155524953746f726167653a2055524920736574206f66206e6f6e60008201527f6578697374656e7420746f6b656e000000000000000000000000000000000000602082015250565b6000615725602e83613f21565b9150615730826156c9565b604082019050919050565b6000602082019050818103600083015261575481615718565b9050919050565b60008190508160005260206000209050919050565b60006020601f8301049050919050565b600082821b905092915050565b6000600883026157bd7fffffffffffffffffffffffffffffffffffffffffffffffffffffffffffffffff82615780565b6157c78683615780565b95508019841693508086168417925050509392505050565b6000819050919050565b60006158046157ff6157fa84613ee2565b6157df565b613ee2565b9050919050565b6000819050919050565b61581e836157e9565b61583261582a8261580b565b84845461578d565b825550505050565b600090565b61584761583a565b615852818484615815565b505050565b5b818110156158765761586b60008261583f565b600181019050615858565b5050565b601f8211156158bb5761588c8161575b565b61589584615770565b810160208510156158a4578190505b6158b86158b085615770565b830182615857565b50505b505050565b600082821c905092915050565b60006158de600019846008026158c0565b1980831691505092915050565b60006158f783836158cd565b9150826002028217905092915050565b61591082613f16565b67ffffffffffffffff81111561592957615928614307565b5b61593382546147f1565b61593e82828561587a565b600060209050601f831160018114615971576000841561595f578287015190505b61596985826158eb565b8655506159d1565b601f19841661597f8661575b565b60005b828110156159a757848901518255600182019150602085019450602081019050615982565b868310156159c457848901516159c0601f8916826158cd565b8355505b6001600288020188555050505b505050505050565b600081519050919050565b600082825260208201905092915050565b6000615a00826159d9565b615a0a81856159e4565b9350615a1a818560208601613f32565b615a2381613f65565b840191505092915050565b6000608082019050615a43600083018761402a565b615a50602083018661402a565b615a5d6040830185613eec565b8181036060830152615a6f81846159f5565b905095945050505050565b600081519050615a8981613d44565b92915050565b600060208284031215615aa557615aa4613d0e565b5b6000615ab384828501615a7a565b91505092915050565b7f4552433732314d657461646174613a2055524920717565727920666f72206e6f60008201527f6e6578697374656e7420746f6b656e0000000000000000000000000000000000602082015250565b6000615b18602f83613f21565b9150615b2382615abc565b604082019050919050565b60006020820190508181036000830152615b4781615b0b565b9050919050565b7f4552433732313a206d696e7420746f20746865207a65726f2061646472657373600082015250565b6000615b84602083613f21565b9150615b8f82615b4e565b602082019050919050565b60006020820190508181036000830152615bb381615b77565b9050919050565b7f4552433732313a20746f6b656e20616c7265616479206d696e74656400000000600082015250565b6000615bf0601c83613f21565b9150615bfb82615bba565b602082019050919050565b60006020820190508181036000830152615c1f81615be3565b905091905056fe68747470733a2f2f697066732e696f2f697066732f6261666b7265696177336e6836746876366534783337686c76707978326d7533746c66327a6c636a32626b796e786c62746433737376786f79636d2fa2646970667358221220101b3e43dc7a7d348ced8343597987141d0498712836c91b19563f25a15e92ac64736f6c634300080f0033",
  "immutableReferences": {},
  "source": "// SPDX-License-Identifier: MIT\npragma solidity ^0.8.12;\n\nimport \"@openzeppelin/contracts/token/ERC721/ERC721.sol\";\nimport \"@openzeppelin/contracts/token/ERC721/extensions/ERC721Enumerable.sol\";\nimport \"@openzeppelin/contracts/token/ERC721/extensions/ERC721URIStorage.sol\";\nimport \"@openzeppelin/contracts/security/Pausable.sol\";\nimport \"@openzeppelin/contracts/access/AccessControl.sol\";\nimport \"@openzeppelin/contracts/token/ERC721/extensions/ERC721Burnable.sol\";\nimport \"@openzeppelin/contracts/utils/Counters.sol\";\nimport \"@openzeppelin/contracts/token/common/ERC2981.sol\";\n\nimport \"./CryptoTicketsRewards.sol\";\n\ncontract CryptoTicketsMatchNFTs is\n    ERC721,\n    ERC721Enumerable,\n    ERC721URIStorage,\n    Pausable,\n    AccessControl,\n    ERC721Burnable,\n    ERC2981\n{\n    using Counters for Counters.Counter;\n\n    CryptoTicketsRewards rewardsTicket;\n\n    bytes32 public constant ADMIN_CLUB_ROLE = keccak256(\"ADMIN_CLUB_ROLE\");\n    Counters.Counter private _matchIdCounter;\n\n    string contractURL;\n\n    address[] public listSubscriber;\n    mapping(uint256 => uint256) public tokensMintedByMatch;\n\n    address payable clubAddress;\n\n    uint96 private royaltyFeesInBips = 1000;\n\n    constructor(address rewardsTicketAddress, address payable clubOwnerAddress)\n        ERC721(\"CryptoTicketsMatchNFTs\", \"CTKMN\")\n    {\n        rewardsTicket = CryptoTicketsRewards(rewardsTicketAddress);\n        _grantRole(DEFAULT_ADMIN_ROLE, msg.sender);\n        _grantRole(ADMIN_CLUB_ROLE, msg.sender);\n        clubAddress = clubOwnerAddress;\n        setRoyaltyInfo(clubOwnerAddress, royaltyFeesInBips);\n    }\n\n    function contractURI() public pure returns (string memory) {\n        return\n            \"https://ipfs.io/ipfs/bafkreiaw3nh6thv6e4x37hlvpyx2mu3tlf2zlcj2bkynxlbtd3ssvxoycm/\";\n    }\n\n    function pause() public onlyRole(ADMIN_CLUB_ROLE) {\n        _pause();\n    }\n\n    function unpause() public onlyRole(ADMIN_CLUB_ROLE) {\n        _unpause();\n    }\n\n    function mintMatchTicket(\n        address to,\n        string memory uri,\n        uint256 randomNumber,\n        uint256 carSize\n    ) private {\n        uint256 matchId = _matchIdCounter.current();\n        _matchIdCounter.increment();\n        _safeMint(to, matchId);\n        _setTokenURI(\n            matchId,\n            string.concat(uri, Strings.toString(randomNumber % carSize))\n        );\n    }\n\n    function airdropMatchTickets(\n        uint256 matchId,\n        uint256 maxCapacity,\n        string memory uri,\n        uint256 carSize\n    ) public onlyRole(ADMIN_CLUB_ROLE) {\n        require(\n            tokensMintedByMatch[matchId] + listSubscriber.length <= maxCapacity,\n            \"Match is full\"\n        );\n        uint256 randomNumber = tokensMintedByMatch[matchId];\n        for (uint256 i = 0; i < listSubscriber.length; i++) {\n            mintMatchTicket(listSubscriber[i], uri, randomNumber, carSize);\n            randomNumber++;\n        }\n        tokensMintedByMatch[matchId] += listSubscriber.length;\n    }\n\n    function mintSaleMatchTicket(\n        address to,\n        uint256 matchId,\n        uint256 maxCapacity,\n        string memory uri,\n        uint256 carSize\n    ) public payable onlyRole(ADMIN_CLUB_ROLE) {\n        require(\n            tokensMintedByMatch[matchId] + 1 <= maxCapacity,\n            \"Match is full\"\n        );\n        uint256 randomNumber = tokensMintedByMatch[matchId];\n        mintMatchTicket(to, uri, randomNumber, carSize);\n        tokensMintedByMatch[matchId] += 1;\n        clubAddress.transfer(msg.value);\n    }\n\n    function getTotalMintedTicketsByMatchId(uint256 matchId)\n        public\n        view\n        returns (uint256)\n    {\n        return tokensMintedByMatch[matchId];\n    }\n\n    function _beforeTokenTransfer(\n        address from,\n        address to,\n        uint256 matchId\n    ) internal override(ERC721, ERC721Enumerable) whenNotPaused {\n        super._beforeTokenTransfer(from, to, matchId);\n    }\n\n    function _burn(uint256 matchId)\n        internal\n        override(ERC721, ERC721URIStorage)\n    {\n        super._burn(matchId);\n    }\n\n    function burnTicket(uint256 tokenId) public {\n        _burn(tokenId);\n        rewardsTicket.addListForRewards(msg.sender);\n    }\n\n    function tokenURI(uint256 matchId)\n        public\n        view\n        override(ERC721, ERC721URIStorage)\n        returns (string memory)\n    {\n        return super.tokenURI(matchId);\n    }\n\n    function supportsInterface(bytes4 interfaceId)\n        public\n        view\n        override(ERC721, ERC721Enumerable, ERC2981, AccessControl)\n        returns (bool)\n    {\n        return super.supportsInterface(interfaceId);\n    }\n\n    function grantAdminRol(address account)\n        public\n        onlyRole(DEFAULT_ADMIN_ROLE)\n    {\n        _grantRole(DEFAULT_ADMIN_ROLE, account);\n    }\n\n    function grantClubRol(address account) public onlyRole(DEFAULT_ADMIN_ROLE) {\n        _grantRole(ADMIN_CLUB_ROLE, account);\n        rewardsTicket.grantAdminRol(account);\n    }\n\n    function revokeClubRol(address account)\n        public\n        onlyRole(DEFAULT_ADMIN_ROLE)\n    {\n        _revokeRole(ADMIN_CLUB_ROLE, account);\n        rewardsTicket.revokeAdminRol(account);\n    }\n\n    function addAMembershipddress(address account)\n        public\n        onlyRole(DEFAULT_ADMIN_ROLE)\n    {\n        listSubscriber.push(account);\n    }\n\n    function findAddress(address value) public view returns (uint256) {\n        uint256 i = 0;\n        while (listSubscriber[i] != value) {\n            i++;\n        }\n        return i;\n    }\n\n    function getAddressInfo() public view returns (address[] memory) {\n        return (listSubscriber);\n    }\n\n    function removeMembershipAddress(address value) public {\n        uint256 index = findAddress(value);\n        listSubscriber[index] = listSubscriber[listSubscriber.length - 1];\n        listSubscriber.pop();\n    }\n\n    function setRoyaltyInfo(address _receiver, uint96 _royaltyFeesInBips)\n        public\n        onlyRole(DEFAULT_ADMIN_ROLE)\n    {\n        _setDefaultRoyalty(_receiver, _royaltyFeesInBips);\n    }\n}\n",
  "sourcePath": "/Users/dosorio/Proyectos/Blockchain/SportTickets/contracts/CryptoTicketsMatchNFTs.sol",
  "compiler": {
    "name": "solc",
    "version": "0.8.15+commit.e14f2714.Emscripten.clang"
  },
  "schemaVersion": "3.4.7",
  "updatedAt": "2022-07-07T06:54:43.147Z",
  "networkType": "ethereum",
  "devdoc": {
    "kind": "dev",
    "methods": {
      "approve(address,uint256)": {
        "details": "See {IERC721-approve}."
      },
      "balanceOf(address)": {
        "details": "See {IERC721-balanceOf}."
      },
      "burn(uint256)": {
        "details": "Burns `tokenId`. See {ERC721-_burn}. Requirements: - The caller must own `tokenId` or be an approved operator."
      },
      "getApproved(uint256)": {
        "details": "See {IERC721-getApproved}."
      },
      "getRoleAdmin(bytes32)": {
        "details": "Returns the admin role that controls `role`. See {grantRole} and {revokeRole}. To change a role's admin, use {_setRoleAdmin}."
      },
      "grantRole(bytes32,address)": {
        "details": "Grants `role` to `account`. If `account` had not been already granted `role`, emits a {RoleGranted} event. Requirements: - the caller must have ``role``'s admin role."
      },
      "hasRole(bytes32,address)": {
        "details": "Returns `true` if `account` has been granted `role`."
      },
      "isApprovedForAll(address,address)": {
        "details": "See {IERC721-isApprovedForAll}."
      },
      "name()": {
        "details": "See {IERC721Metadata-name}."
      },
      "ownerOf(uint256)": {
        "details": "See {IERC721-ownerOf}."
      },
      "paused()": {
        "details": "Returns true if the contract is paused, and false otherwise."
      },
      "renounceRole(bytes32,address)": {
        "details": "Revokes `role` from the calling account. Roles are often managed via {grantRole} and {revokeRole}: this function's purpose is to provide a mechanism for accounts to lose their privileges if they are compromised (such as when a trusted device is misplaced). If the calling account had been revoked `role`, emits a {RoleRevoked} event. Requirements: - the caller must be `account`."
      },
      "revokeRole(bytes32,address)": {
        "details": "Revokes `role` from `account`. If `account` had been granted `role`, emits a {RoleRevoked} event. Requirements: - the caller must have ``role``'s admin role."
      },
      "royaltyInfo(uint256,uint256)": {
        "details": "Returns how much royalty is owed and to whom, based on a sale price that may be denominated in any unit of exchange. The royalty amount is denominated and should be paid in that same unit of exchange."
      },
      "safeTransferFrom(address,address,uint256)": {
        "details": "See {IERC721-safeTransferFrom}."
      },
      "safeTransferFrom(address,address,uint256,bytes)": {
        "details": "See {IERC721-safeTransferFrom}."
      },
      "setApprovalForAll(address,bool)": {
        "details": "See {IERC721-setApprovalForAll}."
      },
      "symbol()": {
        "details": "See {IERC721Metadata-symbol}."
      },
      "tokenByIndex(uint256)": {
        "details": "See {IERC721Enumerable-tokenByIndex}."
      },
      "tokenOfOwnerByIndex(address,uint256)": {
        "details": "See {IERC721Enumerable-tokenOfOwnerByIndex}."
      },
      "totalSupply()": {
        "details": "See {IERC721Enumerable-totalSupply}."
      },
      "transferFrom(address,address,uint256)": {
        "details": "See {IERC721-transferFrom}."
      }
    },
    "version": 1
  },
  "userdoc": {
    "kind": "user",
    "methods": {},
    "version": 1
  }
}