{
  "contractName": "SportTickets",
  "abi": [
    {
      "inputs": [],
      "stateMutability": "nonpayable",
      "type": "constructor"
    },
    {
      "anonymous": false,
      "inputs": [
        {
          "indexed": true,
          "internalType": "address",
          "name": "owner",
          "type": "address"
        },
        {
          "indexed": true,
          "internalType": "address",
          "name": "approved",
          "type": "address"
        },
        {
          "indexed": true,
          "internalType": "uint256",
          "name": "tokenId",
          "type": "uint256"
        }
      ],
      "name": "Approval",
      "type": "event"
    },
    {
      "anonymous": false,
      "inputs": [
        {
          "indexed": true,
          "internalType": "address",
          "name": "owner",
          "type": "address"
        },
        {
          "indexed": true,
          "internalType": "address",
          "name": "operator",
          "type": "address"
        },
        {
          "indexed": false,
          "internalType": "bool",
          "name": "approved",
          "type": "bool"
        }
      ],
      "name": "ApprovalForAll",
      "type": "event"
    },
    {
      "anonymous": false,
      "inputs": [
        {
          "indexed": false,
          "internalType": "address",
          "name": "account",
          "type": "address"
        }
      ],
      "name": "Paused",
      "type": "event"
    },
    {
      "anonymous": false,
      "inputs": [
        {
          "indexed": true,
          "internalType": "bytes32",
          "name": "role",
          "type": "bytes32"
        },
        {
          "indexed": true,
          "internalType": "bytes32",
          "name": "previousAdminRole",
          "type": "bytes32"
        },
        {
          "indexed": true,
          "internalType": "bytes32",
          "name": "newAdminRole",
          "type": "bytes32"
        }
      ],
      "name": "RoleAdminChanged",
      "type": "event"
    },
    {
      "anonymous": false,
      "inputs": [
        {
          "indexed": true,
          "internalType": "bytes32",
          "name": "role",
          "type": "bytes32"
        },
        {
          "indexed": true,
          "internalType": "address",
          "name": "account",
          "type": "address"
        },
        {
          "indexed": true,
          "internalType": "address",
          "name": "sender",
          "type": "address"
        }
      ],
      "name": "RoleGranted",
      "type": "event"
    },
    {
      "anonymous": false,
      "inputs": [
        {
          "indexed": true,
          "internalType": "bytes32",
          "name": "role",
          "type": "bytes32"
        },
        {
          "indexed": true,
          "internalType": "address",
          "name": "account",
          "type": "address"
        },
        {
          "indexed": true,
          "internalType": "address",
          "name": "sender",
          "type": "address"
        }
      ],
      "name": "RoleRevoked",
      "type": "event"
    },
    {
      "anonymous": false,
      "inputs": [
        {
          "indexed": true,
          "internalType": "address",
          "name": "from",
          "type": "address"
        },
        {
          "indexed": true,
          "internalType": "address",
          "name": "to",
          "type": "address"
        },
        {
          "indexed": true,
          "internalType": "uint256",
          "name": "tokenId",
          "type": "uint256"
        }
      ],
      "name": "Transfer",
      "type": "event"
    },
    {
      "anonymous": false,
      "inputs": [
        {
          "indexed": false,
          "internalType": "address",
          "name": "account",
          "type": "address"
        }
      ],
      "name": "Unpaused",
      "type": "event"
    },
    {
      "inputs": [],
      "name": "ADMIN_CLUB_ROLE",
      "outputs": [
        {
          "internalType": "bytes32",
          "name": "",
          "type": "bytes32"
        }
      ],
      "stateMutability": "view",
      "type": "function",
      "constant": true
    },
    {
      "inputs": [],
      "name": "DEFAULT_ADMIN_ROLE",
      "outputs": [
        {
          "internalType": "bytes32",
          "name": "",
          "type": "bytes32"
        }
      ],
      "stateMutability": "view",
      "type": "function",
      "constant": true
    },
    {
      "inputs": [],
      "name": "SUBSCRIBER_ROLE",
      "outputs": [
        {
          "internalType": "bytes32",
          "name": "",
          "type": "bytes32"
        }
      ],
      "stateMutability": "view",
      "type": "function",
      "constant": true
    },
    {
      "inputs": [
        {
          "internalType": "address",
          "name": "to",
          "type": "address"
        },
        {
          "internalType": "uint256",
          "name": "tokenId",
          "type": "uint256"
        }
      ],
      "name": "approve",
      "outputs": [],
      "stateMutability": "nonpayable",
      "type": "function"
    },
    {
      "inputs": [
        {
          "internalType": "address",
          "name": "owner",
          "type": "address"
        }
      ],
      "name": "balanceOf",
      "outputs": [
        {
          "internalType": "uint256",
          "name": "",
          "type": "uint256"
        }
      ],
      "stateMutability": "view",
      "type": "function",
      "constant": true
    },
    {
      "inputs": [
        {
          "internalType": "uint256",
          "name": "tokenId",
          "type": "uint256"
        }
      ],
      "name": "burn",
      "outputs": [],
      "stateMutability": "nonpayable",
      "type": "function"
    },
    {
      "inputs": [
        {
          "internalType": "uint256",
          "name": "tokenId",
          "type": "uint256"
        }
      ],
      "name": "getApproved",
      "outputs": [
        {
          "internalType": "address",
          "name": "",
          "type": "address"
        }
      ],
      "stateMutability": "view",
      "type": "function",
      "constant": true
    },
    {
      "inputs": [
        {
          "internalType": "bytes32",
          "name": "role",
          "type": "bytes32"
        }
      ],
      "name": "getRoleAdmin",
      "outputs": [
        {
          "internalType": "bytes32",
          "name": "",
          "type": "bytes32"
        }
      ],
      "stateMutability": "view",
      "type": "function",
      "constant": true
    },
    {
      "inputs": [
        {
          "internalType": "bytes32",
          "name": "role",
          "type": "bytes32"
        },
        {
          "internalType": "address",
          "name": "account",
          "type": "address"
        }
      ],
      "name": "grantRole",
      "outputs": [],
      "stateMutability": "nonpayable",
      "type": "function"
    },
    {
      "inputs": [
        {
          "internalType": "bytes32",
          "name": "role",
          "type": "bytes32"
        },
        {
          "internalType": "address",
          "name": "account",
          "type": "address"
        }
      ],
      "name": "hasRole",
      "outputs": [
        {
          "internalType": "bool",
          "name": "",
          "type": "bool"
        }
      ],
      "stateMutability": "view",
      "type": "function",
      "constant": true
    },
    {
      "inputs": [
        {
          "internalType": "address",
          "name": "owner",
          "type": "address"
        },
        {
          "internalType": "address",
          "name": "operator",
          "type": "address"
        }
      ],
      "name": "isApprovedForAll",
      "outputs": [
        {
          "internalType": "bool",
          "name": "",
          "type": "bool"
        }
      ],
      "stateMutability": "view",
      "type": "function",
      "constant": true
    },
    {
      "inputs": [],
      "name": "name",
      "outputs": [
        {
          "internalType": "string",
          "name": "",
          "type": "string"
        }
      ],
      "stateMutability": "view",
      "type": "function",
      "constant": true
    },
    {
      "inputs": [
        {
          "internalType": "uint256",
          "name": "tokenId",
          "type": "uint256"
        }
      ],
      "name": "ownerOf",
      "outputs": [
        {
          "internalType": "address",
          "name": "",
          "type": "address"
        }
      ],
      "stateMutability": "view",
      "type": "function",
      "constant": true
    },
    {
      "inputs": [],
      "name": "paused",
      "outputs": [
        {
          "internalType": "bool",
          "name": "",
          "type": "bool"
        }
      ],
      "stateMutability": "view",
      "type": "function",
      "constant": true
    },
    {
      "inputs": [
        {
          "internalType": "bytes32",
          "name": "role",
          "type": "bytes32"
        },
        {
          "internalType": "address",
          "name": "account",
          "type": "address"
        }
      ],
      "name": "renounceRole",
      "outputs": [],
      "stateMutability": "nonpayable",
      "type": "function"
    },
    {
      "inputs": [
        {
          "internalType": "bytes32",
          "name": "role",
          "type": "bytes32"
        },
        {
          "internalType": "address",
          "name": "account",
          "type": "address"
        }
      ],
      "name": "revokeRole",
      "outputs": [],
      "stateMutability": "nonpayable",
      "type": "function"
    },
    {
      "inputs": [
        {
          "internalType": "address",
          "name": "from",
          "type": "address"
        },
        {
          "internalType": "address",
          "name": "to",
          "type": "address"
        },
        {
          "internalType": "uint256",
          "name": "tokenId",
          "type": "uint256"
        }
      ],
      "name": "safeTransferFrom",
      "outputs": [],
      "stateMutability": "nonpayable",
      "type": "function"
    },
    {
      "inputs": [
        {
          "internalType": "address",
          "name": "from",
          "type": "address"
        },
        {
          "internalType": "address",
          "name": "to",
          "type": "address"
        },
        {
          "internalType": "uint256",
          "name": "tokenId",
          "type": "uint256"
        },
        {
          "internalType": "bytes",
          "name": "_data",
          "type": "bytes"
        }
      ],
      "name": "safeTransferFrom",
      "outputs": [],
      "stateMutability": "nonpayable",
      "type": "function"
    },
    {
      "inputs": [
        {
          "internalType": "address",
          "name": "operator",
          "type": "address"
        },
        {
          "internalType": "bool",
          "name": "approved",
          "type": "bool"
        }
      ],
      "name": "setApprovalForAll",
      "outputs": [],
      "stateMutability": "nonpayable",
      "type": "function"
    },
    {
      "inputs": [],
      "name": "symbol",
      "outputs": [
        {
          "internalType": "string",
          "name": "",
          "type": "string"
        }
      ],
      "stateMutability": "view",
      "type": "function",
      "constant": true
    },
    {
      "inputs": [
        {
          "internalType": "uint256",
          "name": "index",
          "type": "uint256"
        }
      ],
      "name": "tokenByIndex",
      "outputs": [
        {
          "internalType": "uint256",
          "name": "",
          "type": "uint256"
        }
      ],
      "stateMutability": "view",
      "type": "function",
      "constant": true
    },
    {
      "inputs": [
        {
          "internalType": "address",
          "name": "owner",
          "type": "address"
        },
        {
          "internalType": "uint256",
          "name": "index",
          "type": "uint256"
        }
      ],
      "name": "tokenOfOwnerByIndex",
      "outputs": [
        {
          "internalType": "uint256",
          "name": "",
          "type": "uint256"
        }
      ],
      "stateMutability": "view",
      "type": "function",
      "constant": true
    },
    {
      "inputs": [],
      "name": "totalSupply",
      "outputs": [
        {
          "internalType": "uint256",
          "name": "",
          "type": "uint256"
        }
      ],
      "stateMutability": "view",
      "type": "function",
      "constant": true
    },
    {
      "inputs": [
        {
          "internalType": "address",
          "name": "from",
          "type": "address"
        },
        {
          "internalType": "address",
          "name": "to",
          "type": "address"
        },
        {
          "internalType": "uint256",
          "name": "tokenId",
          "type": "uint256"
        }
      ],
      "name": "transferFrom",
      "outputs": [],
      "stateMutability": "nonpayable",
      "type": "function"
    },
    {
      "inputs": [],
      "name": "pause",
      "outputs": [],
      "stateMutability": "nonpayable",
      "type": "function"
    },
    {
      "inputs": [],
      "name": "unpause",
      "outputs": [],
      "stateMutability": "nonpayable",
      "type": "function"
    },
    {
      "inputs": [
        {
          "internalType": "string",
          "name": "uri",
          "type": "string"
        }
      ],
      "name": "mintSubscriberNFT",
      "outputs": [],
      "stateMutability": "nonpayable",
      "type": "function"
    },
    {
      "inputs": [
        {
          "internalType": "uint256",
          "name": "tokenId",
          "type": "uint256"
        }
      ],
      "name": "tokenURI",
      "outputs": [
        {
          "internalType": "string",
          "name": "",
          "type": "string"
        }
      ],
      "stateMutability": "view",
      "type": "function",
      "constant": true
    },
    {
      "inputs": [
        {
          "internalType": "bytes4",
          "name": "interfaceId",
          "type": "bytes4"
        }
      ],
      "name": "supportsInterface",
      "outputs": [
        {
          "internalType": "bool",
          "name": "",
          "type": "bool"
        }
      ],
      "stateMutability": "view",
      "type": "function",
      "constant": true
    },
    {
      "inputs": [
        {
          "internalType": "address",
          "name": "account",
          "type": "address"
        }
      ],
      "name": "grantClubRol",
      "outputs": [],
      "stateMutability": "nonpayable",
      "type": "function"
    },
    {
      "inputs": [
        {
          "internalType": "address",
          "name": "account",
          "type": "address"
        }
      ],
      "name": "revokeClubRol",
      "outputs": [],
      "stateMutability": "nonpayable",
      "type": "function"
    },
    {
      "inputs": [
        {
          "internalType": "address",
          "name": "account",
          "type": "address"
        }
      ],
      "name": "grantSubscriberRol",
      "outputs": [],
      "stateMutability": "nonpayable",
      "type": "function"
    },
    {
      "inputs": [
        {
          "internalType": "address",
          "name": "account",
          "type": "address"
        }
      ],
      "name": "revokeSubscriberRol",
      "outputs": [],
      "stateMutability": "nonpayable",
      "type": "function"
    }
  ],
  "bytecode": "0x60806040523480156200001157600080fd5b506040518060400160405280601181526020017f524d524d2046616e20546f6b656e2044310000000000000000000000000000008152506040518060400160405280600481526020017f524d524d0000000000000000000000000000000000000000000000000000000081525081600090816200008f91906200051d565b508060019081620000a191906200051d565b5050506000600b60006101000a81548160ff021916908315150217905550620000d46000801b336200013e60201b60201c565b620001067f9894090c012e113e817b2d99a7f6ad3e666491f10820f12b8bc4b139f2ea06bb336200013e60201b60201c565b620001387f3f483399a73bbfbc7e47cea702709b2441abfc4e8152100709ca14556e321303336200013e60201b60201c565b62000604565b6200015082826200023060201b60201c565b6200022c576001600c600084815260200190815260200160002060000160008373ffffffffffffffffffffffffffffffffffffffff1673ffffffffffffffffffffffffffffffffffffffff16815260200190815260200160002060006101000a81548160ff021916908315150217905550620001d16200029b60201b60201c565b73ffffffffffffffffffffffffffffffffffffffff168173ffffffffffffffffffffffffffffffffffffffff16837f2f8788117e7eff1d82e926ec794901d17c78024a50270940304540a733656f0d60405160405180910390a45b5050565b6000600c600084815260200190815260200160002060000160008373ffffffffffffffffffffffffffffffffffffffff1673ffffffffffffffffffffffffffffffffffffffff16815260200190815260200160002060009054906101000a900460ff16905092915050565b600033905090565b600081519050919050565b7f4e487b7100000000000000000000000000000000000000000000000000000000600052604160045260246000fd5b7f4e487b7100000000000000000000000000000000000000000000000000000000600052602260045260246000fd5b600060028204905060018216806200032557607f821691505b6020821081036200033b576200033a620002dd565b5b50919050565b60008190508160005260206000209050919050565b60006020601f8301049050919050565b600082821b905092915050565b600060088302620003a57fffffffffffffffffffffffffffffffffffffffffffffffffffffffffffffffff8262000366565b620003b1868362000366565b95508019841693508086168417925050509392505050565b6000819050919050565b6000819050919050565b6000620003fe620003f8620003f284620003c9565b620003d3565b620003c9565b9050919050565b6000819050919050565b6200041a83620003dd565b62000432620004298262000405565b84845462000373565b825550505050565b600090565b620004496200043a565b620004568184846200040f565b505050565b5b818110156200047e57620004726000826200043f565b6001810190506200045c565b5050565b601f821115620004cd57620004978162000341565b620004a28462000356565b81016020851015620004b2578190505b620004ca620004c18562000356565b8301826200045b565b50505b505050565b600082821c905092915050565b6000620004f260001984600802620004d2565b1980831691505092915050565b60006200050d8383620004df565b9150826002028217905092915050565b6200052882620002a3565b67ffffffffffffffff811115620005445762000543620002ae565b5b6200055082546200030c565b6200055d82828562000482565b600060209050601f83116001811462000595576000841562000580578287015190505b6200058c8582620004ff565b865550620005fc565b601f198416620005a58662000341565b60005b82811015620005cf57848901518255600182019150602085019450602081019050620005a8565b86831015620005ef5784890151620005eb601f891682620004df565b8355505b6001600288020188555050505b505050505050565b61491980620006146000396000f3fe608060405234801561001057600080fd5b50600436106101fb5760003560e01c80635c975abb1161011a578063a9ddb577116100ad578063cd2735c01161007c578063cd2735c0146105ae578063d547741f146105ca578063e985e9c5146105e6578063f8c90f5814610616578063fe5a066614610632576101fb565b8063a9ddb57714610528578063b355112214610544578063b88d4fde14610562578063c87b56dd1461057e576101fb565b806391d14854116100e957806391d14854146104a057806395d89b41146104d0578063a217fddf146104ee578063a22cb4651461050c576101fb565b80635c975abb146104185780636352211e1461043657806370a08231146104665780638456cb5914610496576101fb565b80632f745c591161019257806342842e0e1161016157806342842e0e1461039457806342966c68146103b05780634f6ccce7146103cc57806350476117146103fc576101fb565b80632f745c591461032057806336568abe146103505780633bf084511461036c5780633f4ba83a1461038a576101fb565b806318160ddd116101ce57806318160ddd1461029a57806323b872dd146102b8578063248a9ca3146102d45780632f2ff15d14610304576101fb565b806301ffc9a71461020057806306fdde0314610230578063081812fc1461024e578063095ea7b31461027e575b600080fd5b61021a60048036038101906102159190612e35565b61064e565b6040516102279190612e7d565b60405180910390f35b610238610660565b6040516102459190612f31565b60405180910390f35b61026860048036038101906102639190612f89565b6106f2565b6040516102759190612ff7565b60405180910390f35b6102986004803603810190610293919061303e565b610777565b005b6102a261088e565b6040516102af919061308d565b60405180910390f35b6102d260048036038101906102cd91906130a8565b61089b565b005b6102ee60048036038101906102e99190613131565b6108fb565b6040516102fb919061316d565b60405180910390f35b61031e60048036038101906103199190613188565b61091b565b005b61033a6004803603810190610335919061303e565b61093c565b604051610347919061308d565b60405180910390f35b61036a60048036038101906103659190613188565b6109e1565b005b610374610a64565b604051610381919061316d565b60405180910390f35b610392610a88565b005b6103ae60048036038101906103a991906130a8565b610aa0565b005b6103ca60048036038101906103c59190612f89565b610ac0565b005b6103e660048036038101906103e19190612f89565b610b1c565b6040516103f3919061308d565b60405180910390f35b610416600480360381019061041191906131c8565b610b8d565b005b610420610bc8565b60405161042d9190612e7d565b60405180910390f35b610450600480360381019061044b9190612f89565b610bdf565b60405161045d9190612ff7565b60405180910390f35b610480600480360381019061047b91906131c8565b610c90565b60405161048d919061308d565b60405180910390f35b61049e610d47565b005b6104ba60048036038101906104b59190613188565b610d5f565b6040516104c79190612e7d565b60405180910390f35b6104d8610dca565b6040516104e59190612f31565b60405180910390f35b6104f6610e5c565b604051610503919061316d565b60405180910390f35b61052660048036038101906105219190613221565b610e63565b005b610542600480360381019061053d91906131c8565b610e79565b005b61054c610ed1565b604051610559919061316d565b60405180910390f35b61057c60048036038101906105779190613396565b610ef5565b005b61059860048036038101906105939190612f89565b610f57565b6040516105a59190612f31565b60405180910390f35b6105c860048036038101906105c391906131c8565b610f69565b005b6105e460048036038101906105df9190613188565b610fc1565b005b61060060048036038101906105fb9190613419565b610fe2565b60405161060d9190612e7d565b60405180910390f35b610630600480360381019061062b91906134fa565b611076565b005b61064c600480360381019061064791906131c8565b6110d1565b005b60006106598261110c565b9050919050565b60606000805461066f90613572565b80601f016020809104026020016040519081016040528092919081815260200182805461069b90613572565b80156106e85780601f106106bd576101008083540402835291602001916106e8565b820191906000526020600020905b8154815290600101906020018083116106cb57829003601f168201915b5050505050905090565b60006106fd82611186565b61073c576040517f08c379a000000000000000000000000000000000000000000000000000000000815260040161073390613615565b60405180910390fd5b6004600083815260200190815260200160002060009054906101000a900473ffffffffffffffffffffffffffffffffffffffff169050919050565b600061078282610bdf565b90508073ffffffffffffffffffffffffffffffffffffffff168373ffffffffffffffffffffffffffffffffffffffff16036107f2576040517f08c379a00000000000000000000000000000000000000000000000000000000081526004016107e9906136a7565b60405180910390fd5b8073ffffffffffffffffffffffffffffffffffffffff166108116111f2565b73ffffffffffffffffffffffffffffffffffffffff161480610840575061083f8161083a6111f2565b610fe2565b5b61087f576040517f08c379a000000000000000000000000000000000000000000000000000000000815260040161087690613739565b60405180910390fd5b61088983836111fa565b505050565b6000600880549050905090565b6108ac6108a66111f2565b826112b3565b6108eb576040517f08c379a00000000000000000000000000000000000000000000000000000000081526004016108e2906137cb565b60405180910390fd5b6108f6838383611391565b505050565b6000600c6000838152602001908152602001600020600101549050919050565b610924826108fb565b61092d816115f7565b610937838361160b565b505050565b600061094783610c90565b8210610988576040517f08c379a000000000000000000000000000000000000000000000000000000000815260040161097f9061385d565b60405180910390fd5b600660008473ffffffffffffffffffffffffffffffffffffffff1673ffffffffffffffffffffffffffffffffffffffff168152602001908152602001600020600083815260200190815260200160002054905092915050565b6109e96111f2565b73ffffffffffffffffffffffffffffffffffffffff168173ffffffffffffffffffffffffffffffffffffffff1614610a56576040517f08c379a0000000000000000000000000000000000000000000000000000000008152600401610a4d906138ef565b60405180910390fd5b610a6082826116ec565b5050565b7f9894090c012e113e817b2d99a7f6ad3e666491f10820f12b8bc4b139f2ea06bb81565b6000801b610a95816115f7565b610a9d6117ce565b50565b610abb83838360405180602001604052806000815250610ef5565b505050565b610ad1610acb6111f2565b826112b3565b610b10576040517f08c379a0000000000000000000000000000000000000000000000000000000008152600401610b0790613981565b60405180910390fd5b610b1981611870565b50565b6000610b2661088e565b8210610b67576040517f08c379a0000000000000000000000000000000000000000000000000000000008152600401610b5e90613a13565b60405180910390fd5b60088281548110610b7b57610b7a613a33565b5b90600052602060002001549050919050565b6000801b610b9a816115f7565b610bc47f9894090c012e113e817b2d99a7f6ad3e666491f10820f12b8bc4b139f2ea06bb8361160b565b5050565b6000600b60009054906101000a900460ff16905090565b6000806002600084815260200190815260200160002060009054906101000a900473ffffffffffffffffffffffffffffffffffffffff169050600073ffffffffffffffffffffffffffffffffffffffff168173ffffffffffffffffffffffffffffffffffffffff1603610c87576040517f08c379a0000000000000000000000000000000000000000000000000000000008152600401610c7e90613ad4565b60405180910390fd5b80915050919050565b60008073ffffffffffffffffffffffffffffffffffffffff168273ffffffffffffffffffffffffffffffffffffffff1603610d00576040517f08c379a0000000000000000000000000000000000000000000000000000000008152600401610cf790613b66565b60405180910390fd5b600360008373ffffffffffffffffffffffffffffffffffffffff1673ffffffffffffffffffffffffffffffffffffffff168152602001908152602001600020549050919050565b6000801b610d54816115f7565b610d5c61187c565b50565b6000600c600084815260200190815260200160002060000160008373ffffffffffffffffffffffffffffffffffffffff1673ffffffffffffffffffffffffffffffffffffffff16815260200190815260200160002060009054906101000a900460ff16905092915050565b606060018054610dd990613572565b80601f0160208091040260200160405190810160405280929190818152602001828054610e0590613572565b8015610e525780601f10610e2757610100808354040283529160200191610e52565b820191906000526020600020905b815481529060010190602001808311610e3557829003601f168201915b5050505050905090565b6000801b81565b610e75610e6e6111f2565b838361191f565b5050565b7f9894090c012e113e817b2d99a7f6ad3e666491f10820f12b8bc4b139f2ea06bb610ea3816115f7565b610ecd7f3f483399a73bbfbc7e47cea702709b2441abfc4e8152100709ca14556e3213038361160b565b5050565b7f3f483399a73bbfbc7e47cea702709b2441abfc4e8152100709ca14556e32130381565b610f06610f006111f2565b836112b3565b610f45576040517f08c379a0000000000000000000000000000000000000000000000000000000008152600401610f3c906137cb565b60405180910390fd5b610f5184848484611a8b565b50505050565b6060610f6282611ae7565b9050919050565b7f9894090c012e113e817b2d99a7f6ad3e666491f10820f12b8bc4b139f2ea06bb610f93816115f7565b610fbd7f3f483399a73bbfbc7e47cea702709b2441abfc4e8152100709ca14556e321303836116ec565b5050565b610fca826108fb565b610fd3816115f7565b610fdd83836116ec565b505050565b6000600560008473ffffffffffffffffffffffffffffffffffffffff1673ffffffffffffffffffffffffffffffffffffffff16815260200190815260200160002060008373ffffffffffffffffffffffffffffffffffffffff1673ffffffffffffffffffffffffffffffffffffffff16815260200190815260200160002060009054906101000a900460ff16905092915050565b7f3f483399a73bbfbc7e47cea702709b2441abfc4e8152100709ca14556e3213036110a0816115f7565b60006110ac600d611c38565b90506110b8600d611c46565b6110c23382611c5c565b6110cc8184611c7a565b505050565b6000801b6110de816115f7565b6111087f9894090c012e113e817b2d99a7f6ad3e666491f10820f12b8bc4b139f2ea06bb836116ec565b5050565b60007f7965db0b000000000000000000000000000000000000000000000000000000007bffffffffffffffffffffffffffffffffffffffffffffffffffffffff1916827bffffffffffffffffffffffffffffffffffffffffffffffffffffffff1916148061117f575061117e82611ce7565b5b9050919050565b60008073ffffffffffffffffffffffffffffffffffffffff166002600084815260200190815260200160002060009054906101000a900473ffffffffffffffffffffffffffffffffffffffff1673ffffffffffffffffffffffffffffffffffffffff1614159050919050565b600033905090565b816004600083815260200190815260200160002060006101000a81548173ffffffffffffffffffffffffffffffffffffffff021916908373ffffffffffffffffffffffffffffffffffffffff160217905550808273ffffffffffffffffffffffffffffffffffffffff1661126d83610bdf565b73ffffffffffffffffffffffffffffffffffffffff167f8c5be1e5ebec7d5bd14f71427d1e84f3dd0314c0f7b2291e5b200ac8c7c3b92560405160405180910390a45050565b60006112be82611186565b6112fd576040517f08c379a00000000000000000000000000000000000000000000000000000000081526004016112f490613bf8565b60405180910390fd5b600061130883610bdf565b90508073ffffffffffffffffffffffffffffffffffffffff168473ffffffffffffffffffffffffffffffffffffffff16148061134a57506113498185610fe2565b5b8061138857508373ffffffffffffffffffffffffffffffffffffffff16611370846106f2565b73ffffffffffffffffffffffffffffffffffffffff16145b91505092915050565b8273ffffffffffffffffffffffffffffffffffffffff166113b182610bdf565b73ffffffffffffffffffffffffffffffffffffffff1614611407576040517f08c379a00000000000000000000000000000000000000000000000000000000081526004016113fe90613c8a565b60405180910390fd5b600073ffffffffffffffffffffffffffffffffffffffff168273ffffffffffffffffffffffffffffffffffffffff1603611476576040517f08c379a000000000000000000000000000000000000000000000000000000000815260040161146d90613d1c565b60405180910390fd5b611481838383611d61565b61148c6000826111fa565b6001600360008573ffffffffffffffffffffffffffffffffffffffff1673ffffffffffffffffffffffffffffffffffffffff16815260200190815260200160002060008282546114dc9190613d6b565b925050819055506001600360008473ffffffffffffffffffffffffffffffffffffffff1673ffffffffffffffffffffffffffffffffffffffff16815260200190815260200160002060008282546115339190613d9f565b92505081905550816002600083815260200190815260200160002060006101000a81548173ffffffffffffffffffffffffffffffffffffffff021916908373ffffffffffffffffffffffffffffffffffffffff160217905550808273ffffffffffffffffffffffffffffffffffffffff168473ffffffffffffffffffffffffffffffffffffffff167fddf252ad1be2c89b69c2b068fc378daa952ba7f163c4a11628f55a4df523b3ef60405160405180910390a46115f2838383611db9565b505050565b611608816116036111f2565b611dbe565b50565b6116158282610d5f565b6116e8576001600c600084815260200190815260200160002060000160008373ffffffffffffffffffffffffffffffffffffffff1673ffffffffffffffffffffffffffffffffffffffff16815260200190815260200160002060006101000a81548160ff02191690831515021790555061168d6111f2565b73ffffffffffffffffffffffffffffffffffffffff168173ffffffffffffffffffffffffffffffffffffffff16837f2f8788117e7eff1d82e926ec794901d17c78024a50270940304540a733656f0d60405160405180910390a45b5050565b6116f68282610d5f565b156117ca576000600c600084815260200190815260200160002060000160008373ffffffffffffffffffffffffffffffffffffffff1673ffffffffffffffffffffffffffffffffffffffff16815260200190815260200160002060006101000a81548160ff02191690831515021790555061176f6111f2565b73ffffffffffffffffffffffffffffffffffffffff168173ffffffffffffffffffffffffffffffffffffffff16837ff6391f5c32d9c69d2a47ea670b442974b53935d1edc7fd64eb21e047a839171b60405160405180910390a45b5050565b6117d6610bc8565b611815576040517f08c379a000000000000000000000000000000000000000000000000000000000815260040161180c90613e41565b60405180910390fd5b6000600b60006101000a81548160ff0219169083151502179055507f5db9ee0a495bf2e6ff9c91a7834c1ba4fdd244a5e8aa4e537bd38aeae4b073aa6118596111f2565b6040516118669190612ff7565b60405180910390a1565b61187981611e5b565b50565b611884610bc8565b156118c4576040517f08c379a00000000000000000000000000000000000000000000000000000000081526004016118bb90613ead565b60405180910390fd5b6001600b60006101000a81548160ff0219169083151502179055507f62e78cea01bee320cd4e420270b5ea74000d11b0c9f74754ebdbfc544b05a2586119086111f2565b6040516119159190612ff7565b60405180910390a1565b8173ffffffffffffffffffffffffffffffffffffffff168373ffffffffffffffffffffffffffffffffffffffff160361198d576040517f08c379a000000000000000000000000000000000000000000000000000000000815260040161198490613f19565b60405180910390fd5b80600560008573ffffffffffffffffffffffffffffffffffffffff1673ffffffffffffffffffffffffffffffffffffffff16815260200190815260200160002060008473ffffffffffffffffffffffffffffffffffffffff1673ffffffffffffffffffffffffffffffffffffffff16815260200190815260200160002060006101000a81548160ff0219169083151502179055508173ffffffffffffffffffffffffffffffffffffffff168373ffffffffffffffffffffffffffffffffffffffff167f17307eab39ab6107e8899845ad3d59bd9653f200f220920489ca2b5937696c3183604051611a7e9190612e7d565b60405180910390a3505050565b611a96848484611391565b611aa284848484611eae565b611ae1576040517f08c379a0000000000000000000000000000000000000000000000000000000008152600401611ad890613fab565b60405180910390fd5b50505050565b6060611af282611186565b611b31576040517f08c379a0000000000000000000000000000000000000000000000000000000008152600401611b289061403d565b60405180910390fd5b6000600a60008481526020019081526020016000208054611b5190613572565b80601f0160208091040260200160405190810160405280929190818152602001828054611b7d90613572565b8015611bca5780601f10611b9f57610100808354040283529160200191611bca565b820191906000526020600020905b815481529060010190602001808311611bad57829003601f168201915b505050505090506000611bdb612035565b90506000815103611bf0578192505050611c33565b600082511115611c25578082604051602001611c0d929190614099565b60405160208183030381529060405292505050611c33565b611c2e8461204c565b925050505b919050565b600081600001549050919050565b6001816000016000828254019250508190555050565b611c768282604051806020016040528060008152506120f3565b5050565b611c8382611186565b611cc2576040517f08c379a0000000000000000000000000000000000000000000000000000000008152600401611cb99061412f565b60405180910390fd5b80600a60008481526020019081526020016000209081611ce291906142fb565b505050565b60007f780e9d63000000000000000000000000000000000000000000000000000000007bffffffffffffffffffffffffffffffffffffffffffffffffffffffff1916827bffffffffffffffffffffffffffffffffffffffffffffffffffffffff19161480611d5a5750611d598261214e565b5b9050919050565b611d69610bc8565b15611da9576040517f08c379a0000000000000000000000000000000000000000000000000000000008152600401611da090613ead565b60405180910390fd5b611db4838383612230565b505050565b505050565b611dc88282610d5f565b611e5757611ded8173ffffffffffffffffffffffffffffffffffffffff166014612342565b611dfb8360001c6020612342565b604051602001611e0c929190614465565b6040516020818303038152906040526040517f08c379a0000000000000000000000000000000000000000000000000000000008152600401611e4e9190612f31565b60405180910390fd5b5050565b611e648161257e565b6000600a60008381526020019081526020016000208054611e8490613572565b905014611eab57600a60008281526020019081526020016000206000611eaa9190612d6c565b5b50565b6000611ecf8473ffffffffffffffffffffffffffffffffffffffff1661269b565b15612028578373ffffffffffffffffffffffffffffffffffffffff1663150b7a02611ef86111f2565b8786866040518563ffffffff1660e01b8152600401611f1a94939291906144f4565b6020604051808303816000875af1925050508015611f5657506040513d601f19601f82011682018060405250810190611f539190614555565b60015b611fd8573d8060008114611f86576040519150601f19603f3d011682016040523d82523d6000602084013e611f8b565b606091505b506000815103611fd0576040517f08c379a0000000000000000000000000000000000000000000000000000000008152600401611fc790613fab565b60405180910390fd5b805181602001fd5b63150b7a0260e01b7bffffffffffffffffffffffffffffffffffffffffffffffffffffffff1916817bffffffffffffffffffffffffffffffffffffffffffffffffffffffff19161491505061202d565b600190505b949350505050565b606060405180602001604052806000815250905090565b606061205782611186565b612096576040517f08c379a000000000000000000000000000000000000000000000000000000000815260040161208d906145f4565b60405180910390fd5b60006120a0612035565b905060008151116120c057604051806020016040528060008152506120eb565b806120ca846126be565b6040516020016120db929190614099565b6040516020818303038152906040525b915050919050565b6120fd838361281e565b61210a6000848484611eae565b612149576040517f08c379a000000000000000000000000000000000000000000000000000000000815260040161214090613fab565b60405180910390fd5b505050565b60007f80ac58cd000000000000000000000000000000000000000000000000000000007bffffffffffffffffffffffffffffffffffffffffffffffffffffffff1916827bffffffffffffffffffffffffffffffffffffffffffffffffffffffff1916148061221957507f5b5e139f000000000000000000000000000000000000000000000000000000007bffffffffffffffffffffffffffffffffffffffffffffffffffffffff1916827bffffffffffffffffffffffffffffffffffffffffffffffffffffffff1916145b806122295750612228826129f7565b5b9050919050565b61223b838383612a61565b600073ffffffffffffffffffffffffffffffffffffffff168373ffffffffffffffffffffffffffffffffffffffff160361227d5761227881612a66565b6122bc565b8173ffffffffffffffffffffffffffffffffffffffff168373ffffffffffffffffffffffffffffffffffffffff16146122bb576122ba8382612aaf565b5b5b600073ffffffffffffffffffffffffffffffffffffffff168273ffffffffffffffffffffffffffffffffffffffff16036122fe576122f981612c1c565b61233d565b8273ffffffffffffffffffffffffffffffffffffffff168273ffffffffffffffffffffffffffffffffffffffff161461233c5761233b8282612ced565b5b5b505050565b6060600060028360026123559190614614565b61235f9190613d9f565b67ffffffffffffffff8111156123785761237761326b565b5b6040519080825280601f01601f1916602001820160405280156123aa5781602001600182028036833780820191505090505b5090507f3000000000000000000000000000000000000000000000000000000000000000816000815181106123e2576123e1613a33565b5b60200101907effffffffffffffffffffffffffffffffffffffffffffffffffffffffffffff1916908160001a9053507f78000000000000000000000000000000000000000000000000000000000000008160018151811061244657612445613a33565b5b60200101907effffffffffffffffffffffffffffffffffffffffffffffffffffffffffffff1916908160001a905350600060018460026124869190614614565b6124909190613d9f565b90505b6001811115612530577f3031323334353637383961626364656600000000000000000000000000000000600f8616601081106124d2576124d1613a33565b5b1a60f81b8282815181106124e9576124e8613a33565b5b60200101907effffffffffffffffffffffffffffffffffffffffffffffffffffffffffffff1916908160001a905350600485901c9450806125299061466e565b9050612493565b5060008414612574576040517f08c379a000000000000000000000000000000000000000000000000000000000815260040161256b906146e3565b60405180910390fd5b8091505092915050565b600061258982610bdf565b905061259781600084611d61565b6125a26000836111fa565b6001600360008373ffffffffffffffffffffffffffffffffffffffff1673ffffffffffffffffffffffffffffffffffffffff16815260200190815260200160002060008282546125f29190613d6b565b925050819055506002600083815260200190815260200160002060006101000a81549073ffffffffffffffffffffffffffffffffffffffff021916905581600073ffffffffffffffffffffffffffffffffffffffff168273ffffffffffffffffffffffffffffffffffffffff167fddf252ad1be2c89b69c2b068fc378daa952ba7f163c4a11628f55a4df523b3ef60405160405180910390a461269781600084611db9565b5050565b6000808273ffffffffffffffffffffffffffffffffffffffff163b119050919050565b606060008203612705576040518060400160405280600181526020017f30000000000000000000000000000000000000000000000000000000000000008152509050612819565b600082905060005b6000821461273757808061272090614703565b915050600a82612730919061477a565b915061270d565b60008167ffffffffffffffff8111156127535761275261326b565b5b6040519080825280601f01601f1916602001820160405280156127855781602001600182028036833780820191505090505b5090505b600085146128125760018261279e9190613d6b565b9150600a856127ad91906147ab565b60306127b99190613d9f565b60f81b8183815181106127cf576127ce613a33565b5b60200101907effffffffffffffffffffffffffffffffffffffffffffffffffffffffffffff1916908160001a905350600a8561280b919061477a565b9450612789565b8093505050505b919050565b600073ffffffffffffffffffffffffffffffffffffffff168273ffffffffffffffffffffffffffffffffffffffff160361288d576040517f08c379a000000000000000000000000000000000000000000000000000000000815260040161288490614828565b60405180910390fd5b61289681611186565b156128d6576040517f08c379a00000000000000000000000000000000000000000000000000000000081526004016128cd90614894565b60405180910390fd5b6128e260008383611d61565b6001600360008473ffffffffffffffffffffffffffffffffffffffff1673ffffffffffffffffffffffffffffffffffffffff16815260200190815260200160002060008282546129329190613d9f565b92505081905550816002600083815260200190815260200160002060006101000a81548173ffffffffffffffffffffffffffffffffffffffff021916908373ffffffffffffffffffffffffffffffffffffffff160217905550808273ffffffffffffffffffffffffffffffffffffffff16600073ffffffffffffffffffffffffffffffffffffffff167fddf252ad1be2c89b69c2b068fc378daa952ba7f163c4a11628f55a4df523b3ef60405160405180910390a46129f360008383611db9565b5050565b60007f01ffc9a7000000000000000000000000000000000000000000000000000000007bffffffffffffffffffffffffffffffffffffffffffffffffffffffff1916827bffffffffffffffffffffffffffffffffffffffffffffffffffffffff1916149050919050565b505050565b6008805490506009600083815260200190815260200160002081905550600881908060018154018082558091505060019003906000526020600020016000909190919091505550565b60006001612abc84610c90565b612ac69190613d6b565b9050600060076000848152602001908152602001600020549050818114612bab576000600660008673ffffffffffffffffffffffffffffffffffffffff1673ffffffffffffffffffffffffffffffffffffffff168152602001908152602001600020600084815260200190815260200160002054905080600660008773ffffffffffffffffffffffffffffffffffffffff1673ffffffffffffffffffffffffffffffffffffffff168152602001908152602001600020600084815260200190815260200160002081905550816007600083815260200190815260200160002081905550505b6007600084815260200190815260200160002060009055600660008573ffffffffffffffffffffffffffffffffffffffff1673ffffffffffffffffffffffffffffffffffffffff16815260200190815260200160002060008381526020019081526020016000206000905550505050565b60006001600880549050612c309190613d6b565b9050600060096000848152602001908152602001600020549050600060088381548110612c6057612c5f613a33565b5b906000526020600020015490508060088381548110612c8257612c81613a33565b5b906000526020600020018190555081600960008381526020019081526020016000208190555060096000858152602001908152602001600020600090556008805480612cd157612cd06148b4565b5b6001900381819060005260206000200160009055905550505050565b6000612cf883610c90565b905081600660008573ffffffffffffffffffffffffffffffffffffffff1673ffffffffffffffffffffffffffffffffffffffff168152602001908152602001600020600083815260200190815260200160002081905550806007600084815260200190815260200160002081905550505050565b508054612d7890613572565b6000825580601f10612d8a5750612da9565b601f016020900490600052602060002090810190612da89190612dac565b5b50565b5b80821115612dc5576000816000905550600101612dad565b5090565b6000604051905090565b600080fd5b600080fd5b60007fffffffff0000000000000000000000000000000000000000000000000000000082169050919050565b612e1281612ddd565b8114612e1d57600080fd5b50565b600081359050612e2f81612e09565b92915050565b600060208284031215612e4b57612e4a612dd3565b5b6000612e5984828501612e20565b91505092915050565b60008115159050919050565b612e7781612e62565b82525050565b6000602082019050612e926000830184612e6e565b92915050565b600081519050919050565b600082825260208201905092915050565b60005b83811015612ed2578082015181840152602081019050612eb7565b83811115612ee1576000848401525b50505050565b6000601f19601f8301169050919050565b6000612f0382612e98565b612f0d8185612ea3565b9350612f1d818560208601612eb4565b612f2681612ee7565b840191505092915050565b60006020820190508181036000830152612f4b8184612ef8565b905092915050565b6000819050919050565b612f6681612f53565b8114612f7157600080fd5b50565b600081359050612f8381612f5d565b92915050565b600060208284031215612f9f57612f9e612dd3565b5b6000612fad84828501612f74565b91505092915050565b600073ffffffffffffffffffffffffffffffffffffffff82169050919050565b6000612fe182612fb6565b9050919050565b612ff181612fd6565b82525050565b600060208201905061300c6000830184612fe8565b92915050565b61301b81612fd6565b811461302657600080fd5b50565b60008135905061303881613012565b92915050565b6000806040838503121561305557613054612dd3565b5b600061306385828601613029565b925050602061307485828601612f74565b9150509250929050565b61308781612f53565b82525050565b60006020820190506130a2600083018461307e565b92915050565b6000806000606084860312156130c1576130c0612dd3565b5b60006130cf86828701613029565b93505060206130e086828701613029565b92505060406130f186828701612f74565b9150509250925092565b6000819050919050565b61310e816130fb565b811461311957600080fd5b50565b60008135905061312b81613105565b92915050565b60006020828403121561314757613146612dd3565b5b60006131558482850161311c565b91505092915050565b613167816130fb565b82525050565b6000602082019050613182600083018461315e565b92915050565b6000806040838503121561319f5761319e612dd3565b5b60006131ad8582860161311c565b92505060206131be85828601613029565b9150509250929050565b6000602082840312156131de576131dd612dd3565b5b60006131ec84828501613029565b91505092915050565b6131fe81612e62565b811461320957600080fd5b50565b60008135905061321b816131f5565b92915050565b6000806040838503121561323857613237612dd3565b5b600061324685828601613029565b92505060206132578582860161320c565b9150509250929050565b600080fd5b600080fd5b7f4e487b7100000000000000000000000000000000000000000000000000000000600052604160045260246000fd5b6132a382612ee7565b810181811067ffffffffffffffff821117156132c2576132c161326b565b5b80604052505050565b60006132d5612dc9565b90506132e1828261329a565b919050565b600067ffffffffffffffff8211156133015761330061326b565b5b61330a82612ee7565b9050602081019050919050565b82818337600083830152505050565b6000613339613334846132e6565b6132cb565b90508281526020810184848401111561335557613354613266565b5b613360848285613317565b509392505050565b600082601f83011261337d5761337c613261565b5b813561338d848260208601613326565b91505092915050565b600080600080608085870312156133b0576133af612dd3565b5b60006133be87828801613029565b94505060206133cf87828801613029565b93505060406133e087828801612f74565b925050606085013567ffffffffffffffff81111561340157613400612dd8565b5b61340d87828801613368565b91505092959194509250565b600080604083850312156134305761342f612dd3565b5b600061343e85828601613029565b925050602061344f85828601613029565b9150509250929050565b600067ffffffffffffffff8211156134745761347361326b565b5b61347d82612ee7565b9050602081019050919050565b600061349d61349884613459565b6132cb565b9050828152602081018484840111156134b9576134b8613266565b5b6134c4848285613317565b509392505050565b600082601f8301126134e1576134e0613261565b5b81356134f184826020860161348a565b91505092915050565b6000602082840312156135105761350f612dd3565b5b600082013567ffffffffffffffff81111561352e5761352d612dd8565b5b61353a848285016134cc565b91505092915050565b7f4e487b7100000000000000000000000000000000000000000000000000000000600052602260045260246000fd5b6000600282049050600182168061358a57607f821691505b60208210810361359d5761359c613543565b5b50919050565b7f4552433732313a20617070726f76656420717565727920666f72206e6f6e657860008201527f697374656e7420746f6b656e0000000000000000000000000000000000000000602082015250565b60006135ff602c83612ea3565b915061360a826135a3565b604082019050919050565b6000602082019050818103600083015261362e816135f2565b9050919050565b7f4552433732313a20617070726f76616c20746f2063757272656e74206f776e6560008201527f7200000000000000000000000000000000000000000000000000000000000000602082015250565b6000613691602183612ea3565b915061369c82613635565b604082019050919050565b600060208201905081810360008301526136c081613684565b9050919050565b7f4552433732313a20617070726f76652063616c6c6572206973206e6f74206f7760008201527f6e6572206e6f7220617070726f76656420666f7220616c6c0000000000000000602082015250565b6000613723603883612ea3565b915061372e826136c7565b604082019050919050565b6000602082019050818103600083015261375281613716565b9050919050565b7f4552433732313a207472616e736665722063616c6c6572206973206e6f74206f60008201527f776e6572206e6f7220617070726f766564000000000000000000000000000000602082015250565b60006137b5603183612ea3565b91506137c082613759565b604082019050919050565b600060208201905081810360008301526137e4816137a8565b9050919050565b7f455243373231456e756d657261626c653a206f776e657220696e646578206f7560008201527f74206f6620626f756e6473000000000000000000000000000000000000000000602082015250565b6000613847602b83612ea3565b9150613852826137eb565b604082019050919050565b600060208201905081810360008301526138768161383a565b9050919050565b7f416363657373436f6e74726f6c3a2063616e206f6e6c792072656e6f756e636560008201527f20726f6c657320666f722073656c660000000000000000000000000000000000602082015250565b60006138d9602f83612ea3565b91506138e48261387d565b604082019050919050565b60006020820190508181036000830152613908816138cc565b9050919050565b7f4552433732314275726e61626c653a2063616c6c6572206973206e6f74206f7760008201527f6e6572206e6f7220617070726f76656400000000000000000000000000000000602082015250565b600061396b603083612ea3565b91506139768261390f565b604082019050919050565b6000602082019050818103600083015261399a8161395e565b9050919050565b7f455243373231456e756d657261626c653a20676c6f62616c20696e646578206f60008201527f7574206f6620626f756e64730000000000000000000000000000000000000000602082015250565b60006139fd602c83612ea3565b9150613a08826139a1565b604082019050919050565b60006020820190508181036000830152613a2c816139f0565b9050919050565b7f4e487b7100000000000000000000000000000000000000000000000000000000600052603260045260246000fd5b7f4552433732313a206f776e657220717565727920666f72206e6f6e657869737460008201527f656e7420746f6b656e0000000000000000000000000000000000000000000000602082015250565b6000613abe602983612ea3565b9150613ac982613a62565b604082019050919050565b60006020820190508181036000830152613aed81613ab1565b9050919050565b7f4552433732313a2062616c616e636520717565727920666f7220746865207a6560008201527f726f206164647265737300000000000000000000000000000000000000000000602082015250565b6000613b50602a83612ea3565b9150613b5b82613af4565b604082019050919050565b60006020820190508181036000830152613b7f81613b43565b9050919050565b7f4552433732313a206f70657261746f7220717565727920666f72206e6f6e657860008201527f697374656e7420746f6b656e0000000000000000000000000000000000000000602082015250565b6000613be2602c83612ea3565b9150613bed82613b86565b604082019050919050565b60006020820190508181036000830152613c1181613bd5565b9050919050565b7f4552433732313a207472616e736665722066726f6d20696e636f72726563742060008201527f6f776e6572000000000000000000000000000000000000000000000000000000602082015250565b6000613c74602583612ea3565b9150613c7f82613c18565b604082019050919050565b60006020820190508181036000830152613ca381613c67565b9050919050565b7f4552433732313a207472616e7366657220746f20746865207a65726f2061646460008201527f7265737300000000000000000000000000000000000000000000000000000000602082015250565b6000613d06602483612ea3565b9150613d1182613caa565b604082019050919050565b60006020820190508181036000830152613d3581613cf9565b9050919050565b7f4e487b7100000000000000000000000000000000000000000000000000000000600052601160045260246000fd5b6000613d7682612f53565b9150613d8183612f53565b925082821015613d9457613d93613d3c565b5b828203905092915050565b6000613daa82612f53565b9150613db583612f53565b9250827fffffffffffffffffffffffffffffffffffffffffffffffffffffffffffffffff03821115613dea57613de9613d3c565b5b828201905092915050565b7f5061757361626c653a206e6f7420706175736564000000000000000000000000600082015250565b6000613e2b601483612ea3565b9150613e3682613df5565b602082019050919050565b60006020820190508181036000830152613e5a81613e1e565b9050919050565b7f5061757361626c653a2070617573656400000000000000000000000000000000600082015250565b6000613e97601083612ea3565b9150613ea282613e61565b602082019050919050565b60006020820190508181036000830152613ec681613e8a565b9050919050565b7f4552433732313a20617070726f766520746f2063616c6c657200000000000000600082015250565b6000613f03601983612ea3565b9150613f0e82613ecd565b602082019050919050565b60006020820190508181036000830152613f3281613ef6565b9050919050565b7f4552433732313a207472616e7366657220746f206e6f6e20455243373231526560008201527f63656976657220696d706c656d656e7465720000000000000000000000000000602082015250565b6000613f95603283612ea3565b9150613fa082613f39565b604082019050919050565b60006020820190508181036000830152613fc481613f88565b9050919050565b7f45524337323155524953746f726167653a2055524920717565727920666f722060008201527f6e6f6e6578697374656e7420746f6b656e000000000000000000000000000000602082015250565b6000614027603183612ea3565b915061403282613fcb565b604082019050919050565b600060208201905081810360008301526140568161401a565b9050919050565b600081905092915050565b600061407382612e98565b61407d818561405d565b935061408d818560208601612eb4565b80840191505092915050565b60006140a58285614068565b91506140b18284614068565b91508190509392505050565b7f45524337323155524953746f726167653a2055524920736574206f66206e6f6e60008201527f6578697374656e7420746f6b656e000000000000000000000000000000000000602082015250565b6000614119602e83612ea3565b9150614124826140bd565b604082019050919050565b600060208201905081810360008301526141488161410c565b9050919050565b60008190508160005260206000209050919050565b60006020601f8301049050919050565b600082821b905092915050565b6000600883026141b17fffffffffffffffffffffffffffffffffffffffffffffffffffffffffffffffff82614174565b6141bb8683614174565b95508019841693508086168417925050509392505050565b6000819050919050565b60006141f86141f36141ee84612f53565b6141d3565b612f53565b9050919050565b6000819050919050565b614212836141dd565b61422661421e826141ff565b848454614181565b825550505050565b600090565b61423b61422e565b614246818484614209565b505050565b5b8181101561426a5761425f600082614233565b60018101905061424c565b5050565b601f8211156142af576142808161414f565b61428984614164565b81016020851015614298578190505b6142ac6142a485614164565b83018261424b565b50505b505050565b600082821c905092915050565b60006142d2600019846008026142b4565b1980831691505092915050565b60006142eb83836142c1565b9150826002028217905092915050565b61430482612e98565b67ffffffffffffffff81111561431d5761431c61326b565b5b6143278254613572565b61433282828561426e565b600060209050601f8311600181146143655760008415614353578287015190505b61435d85826142df565b8655506143c5565b601f1984166143738661414f565b60005b8281101561439b57848901518255600182019150602085019450602081019050614376565b868310156143b857848901516143b4601f8916826142c1565b8355505b6001600288020188555050505b505050505050565b7f416363657373436f6e74726f6c3a206163636f756e7420000000000000000000600082015250565b600061440360178361405d565b915061440e826143cd565b601782019050919050565b7f206973206d697373696e6720726f6c6520000000000000000000000000000000600082015250565b600061444f60118361405d565b915061445a82614419565b601182019050919050565b6000614470826143f6565b915061447c8285614068565b915061448782614442565b91506144938284614068565b91508190509392505050565b600081519050919050565b600082825260208201905092915050565b60006144c68261449f565b6144d081856144aa565b93506144e0818560208601612eb4565b6144e981612ee7565b840191505092915050565b60006080820190506145096000830187612fe8565b6145166020830186612fe8565b614523604083018561307e565b818103606083015261453581846144bb565b905095945050505050565b60008151905061454f81612e09565b92915050565b60006020828403121561456b5761456a612dd3565b5b600061457984828501614540565b91505092915050565b7f4552433732314d657461646174613a2055524920717565727920666f72206e6f60008201527f6e6578697374656e7420746f6b656e0000000000000000000000000000000000602082015250565b60006145de602f83612ea3565b91506145e982614582565b604082019050919050565b6000602082019050818103600083015261460d816145d1565b9050919050565b600061461f82612f53565b915061462a83612f53565b9250817fffffffffffffffffffffffffffffffffffffffffffffffffffffffffffffffff048311821515161561466357614662613d3c565b5b828202905092915050565b600061467982612f53565b91506000820361468c5761468b613d3c565b5b600182039050919050565b7f537472696e67733a20686578206c656e67746820696e73756666696369656e74600082015250565b60006146cd602083612ea3565b91506146d882614697565b602082019050919050565b600060208201905081810360008301526146fc816146c0565b9050919050565b600061470e82612f53565b91507fffffffffffffffffffffffffffffffffffffffffffffffffffffffffffffffff82036147405761473f613d3c565b5b600182019050919050565b7f4e487b7100000000000000000000000000000000000000000000000000000000600052601260045260246000fd5b600061478582612f53565b915061479083612f53565b9250826147a05761479f61474b565b5b828204905092915050565b60006147b682612f53565b91506147c183612f53565b9250826147d1576147d061474b565b5b828206905092915050565b7f4552433732313a206d696e7420746f20746865207a65726f2061646472657373600082015250565b6000614812602083612ea3565b915061481d826147dc565b602082019050919050565b6000602082019050818103600083015261484181614805565b9050919050565b7f4552433732313a20746f6b656e20616c7265616479206d696e74656400000000600082015250565b600061487e601c83612ea3565b915061488982614848565b602082019050919050565b600060208201905081810360008301526148ad81614871565b9050919050565b7f4e487b7100000000000000000000000000000000000000000000000000000000600052603160045260246000fdfea26469706673582212206e6c75b6e8623c5d11b3ee18b9afe1ace75bddb14f01501873aab207ace3f1ed64736f6c634300080f0033",
  "immutableReferences": {},
  "source": "// SPDX-License-Identifier: MIT\r\npragma solidity ^0.8.4;\r\n\r\nimport \"@openzeppelin/contracts/token/ERC721/ERC721.sol\";\r\nimport \"@openzeppelin/contracts/token/ERC721/extensions/ERC721Enumerable.sol\";\r\nimport \"@openzeppelin/contracts/token/ERC721/extensions/ERC721URIStorage.sol\";\r\nimport \"@openzeppelin/contracts/security/Pausable.sol\";\r\nimport \"@openzeppelin/contracts/access/AccessControl.sol\";\r\nimport \"@openzeppelin/contracts/token/ERC721/extensions/ERC721Burnable.sol\";\r\nimport \"@openzeppelin/contracts/utils/Counters.sol\";\r\n\r\ncontract SportTickets is\r\n    ERC721,\r\n    ERC721Enumerable,\r\n    ERC721URIStorage,\r\n    Pausable,\r\n    AccessControl,\r\n    ERC721Burnable\r\n{\r\n    // Roles (administrador, club, abonado)\r\n    bytes32 public constant ADMIN_CLUB_ROLE = keccak256(\"ADMIN_CLUB_ROLE\");\r\n    bytes32 public constant SUBSCRIBER_ROLE = keccak256(\"SUBSCRIBER_ROLE\");\r\n\r\n    using Counters for Counters.Counter;\r\n    Counters.Counter private _subscriberCounter;\r\n\r\n    constructor() ERC721(\"RMRM Fan Token D1\", \"RMRM\") {\r\n        _grantRole(DEFAULT_ADMIN_ROLE, msg.sender);\r\n        _grantRole(ADMIN_CLUB_ROLE, msg.sender);\r\n        _grantRole(SUBSCRIBER_ROLE, msg.sender);\r\n    }\r\n\r\n    function pause() public onlyRole(DEFAULT_ADMIN_ROLE) {\r\n        _pause();\r\n    }\r\n\r\n    function unpause() public onlyRole(DEFAULT_ADMIN_ROLE) {\r\n        _unpause();\r\n    }\r\n\r\n    // Minting of generation of the subscription by the subscriber user\r\n    function mintSubscriberNFT(string memory uri)\r\n        public\r\n        onlyRole(SUBSCRIBER_ROLE)\r\n    {\r\n        uint256 tokenId = _subscriberCounter.current();\r\n        _subscriberCounter.increment();\r\n\r\n        _safeMint(msg.sender, tokenId);\r\n        // ipfs://bafkreic3xz5cssins4ihcyoo27kcmflwmgqvpbm2stpr3xfxxnsykgkali\r\n        _setTokenURI(tokenId, uri);\r\n    }\r\n\r\n    function _beforeTokenTransfer(address from, address to, uint256 tokenId)\r\n        internal\r\n        whenNotPaused\r\n        override(ERC721, ERC721Enumerable)\r\n    {\r\n        super._beforeTokenTransfer(from, to, tokenId);\r\n    }\r\n\r\n    // The following functions are overrides required by Solidity.\r\n    function _burn(uint256 tokenId) internal override(ERC721, ERC721URIStorage) {\r\n        super._burn(tokenId);\r\n    }\r\n\r\n    function tokenURI(uint256 tokenId)\r\n        public\r\n        view\r\n        override(ERC721, ERC721URIStorage)\r\n        returns (string memory)\r\n    {\r\n        return super.tokenURI(tokenId);\r\n    }\r\n\r\n    function supportsInterface(bytes4 interfaceId)\r\n        public\r\n        view\r\n        override(ERC721, ERC721Enumerable, AccessControl)\r\n        returns (bool)\r\n    {\r\n        return super.supportsInterface(interfaceId);\r\n    }\r\n\r\n    //ROLES FOR ASSIGNING AND UNASSIGNING ROLES\r\n    function grantClubRol(address account) public onlyRole(DEFAULT_ADMIN_ROLE) {\r\n        _grantRole(ADMIN_CLUB_ROLE, account);\r\n    }\r\n\r\n    function revokeClubRol(address account)\r\n        public\r\n        onlyRole(DEFAULT_ADMIN_ROLE)\r\n    {\r\n        _revokeRole(ADMIN_CLUB_ROLE, account);\r\n    }\r\n\r\n    function grantSubscriberRol(address account)\r\n        public\r\n        onlyRole(ADMIN_CLUB_ROLE)\r\n    {\r\n        _grantRole(SUBSCRIBER_ROLE, account);\r\n    }\r\n\r\n    function revokeSubscriberRol(address account)\r\n        public\r\n        onlyRole(ADMIN_CLUB_ROLE)\r\n    {\r\n        _revokeRole(SUBSCRIBER_ROLE, account);\r\n    }\r\n}\r\n",
  "sourcePath": "/Users/dosorio/Proyectos/Blockchain/CryptoTickets/contracts/SportTickets.sol",
  "compiler": {
    "name": "solc",
    "version": "0.8.15+commit.e14f2714.Emscripten.clang"
  },
  "schemaVersion": "3.4.7",
  "updatedAt": "2022-06-25T09:48:06.197Z",
  "networkType": "ethereum",
  "devdoc": {
    "kind": "dev",
    "methods": {
      "approve(address,uint256)": {
        "details": "See {IERC721-approve}."
      },
      "balanceOf(address)": {
        "details": "See {IERC721-balanceOf}."
      },
      "burn(uint256)": {
        "details": "Burns `tokenId`. See {ERC721-_burn}. Requirements: - The caller must own `tokenId` or be an approved operator."
      },
      "getApproved(uint256)": {
        "details": "See {IERC721-getApproved}."
      },
      "getRoleAdmin(bytes32)": {
        "details": "Returns the admin role that controls `role`. See {grantRole} and {revokeRole}. To change a role's admin, use {_setRoleAdmin}."
      },
      "grantRole(bytes32,address)": {
        "details": "Grants `role` to `account`. If `account` had not been already granted `role`, emits a {RoleGranted} event. Requirements: - the caller must have ``role``'s admin role."
      },
      "hasRole(bytes32,address)": {
        "details": "Returns `true` if `account` has been granted `role`."
      },
      "isApprovedForAll(address,address)": {
        "details": "See {IERC721-isApprovedForAll}."
      },
      "name()": {
        "details": "See {IERC721Metadata-name}."
      },
      "ownerOf(uint256)": {
        "details": "See {IERC721-ownerOf}."
      },
      "paused()": {
        "details": "Returns true if the contract is paused, and false otherwise."
      },
      "renounceRole(bytes32,address)": {
        "details": "Revokes `role` from the calling account. Roles are often managed via {grantRole} and {revokeRole}: this function's purpose is to provide a mechanism for accounts to lose their privileges if they are compromised (such as when a trusted device is misplaced). If the calling account had been revoked `role`, emits a {RoleRevoked} event. Requirements: - the caller must be `account`."
      },
      "revokeRole(bytes32,address)": {
        "details": "Revokes `role` from `account`. If `account` had been granted `role`, emits a {RoleRevoked} event. Requirements: - the caller must have ``role``'s admin role."
      },
      "safeTransferFrom(address,address,uint256)": {
        "details": "See {IERC721-safeTransferFrom}."
      },
      "safeTransferFrom(address,address,uint256,bytes)": {
        "details": "See {IERC721-safeTransferFrom}."
      },
      "setApprovalForAll(address,bool)": {
        "details": "See {IERC721-setApprovalForAll}."
      },
      "symbol()": {
        "details": "See {IERC721Metadata-symbol}."
      },
      "tokenByIndex(uint256)": {
        "details": "See {IERC721Enumerable-tokenByIndex}."
      },
      "tokenOfOwnerByIndex(address,uint256)": {
        "details": "See {IERC721Enumerable-tokenOfOwnerByIndex}."
      },
      "totalSupply()": {
        "details": "See {IERC721Enumerable-totalSupply}."
      },
      "transferFrom(address,address,uint256)": {
        "details": "See {IERC721-transferFrom}."
      }
    },
    "version": 1
  },
  "userdoc": {
    "kind": "user",
    "methods": {},
    "version": 1
  }
}