{
  "contractName": "SportTickets",
  "abi": [
    {
      "inputs": [],
      "stateMutability": "nonpayable",
      "type": "constructor"
    },
    {
      "anonymous": false,
      "inputs": [
        {
          "indexed": true,
          "internalType": "address",
          "name": "owner",
          "type": "address"
        },
        {
          "indexed": true,
          "internalType": "address",
          "name": "approved",
          "type": "address"
        },
        {
          "indexed": true,
          "internalType": "uint256",
          "name": "tokenId",
          "type": "uint256"
        }
      ],
      "name": "Approval",
      "type": "event"
    },
    {
      "anonymous": false,
      "inputs": [
        {
          "indexed": true,
          "internalType": "address",
          "name": "owner",
          "type": "address"
        },
        {
          "indexed": true,
          "internalType": "address",
          "name": "operator",
          "type": "address"
        },
        {
          "indexed": false,
          "internalType": "bool",
          "name": "approved",
          "type": "bool"
        }
      ],
      "name": "ApprovalForAll",
      "type": "event"
    },
    {
      "anonymous": false,
      "inputs": [
        {
          "indexed": false,
          "internalType": "address",
          "name": "account",
          "type": "address"
        }
      ],
      "name": "Paused",
      "type": "event"
    },
    {
      "anonymous": false,
      "inputs": [
        {
          "indexed": true,
          "internalType": "bytes32",
          "name": "role",
          "type": "bytes32"
        },
        {
          "indexed": true,
          "internalType": "bytes32",
          "name": "previousAdminRole",
          "type": "bytes32"
        },
        {
          "indexed": true,
          "internalType": "bytes32",
          "name": "newAdminRole",
          "type": "bytes32"
        }
      ],
      "name": "RoleAdminChanged",
      "type": "event"
    },
    {
      "anonymous": false,
      "inputs": [
        {
          "indexed": true,
          "internalType": "bytes32",
          "name": "role",
          "type": "bytes32"
        },
        {
          "indexed": true,
          "internalType": "address",
          "name": "account",
          "type": "address"
        },
        {
          "indexed": true,
          "internalType": "address",
          "name": "sender",
          "type": "address"
        }
      ],
      "name": "RoleGranted",
      "type": "event"
    },
    {
      "anonymous": false,
      "inputs": [
        {
          "indexed": true,
          "internalType": "bytes32",
          "name": "role",
          "type": "bytes32"
        },
        {
          "indexed": true,
          "internalType": "address",
          "name": "account",
          "type": "address"
        },
        {
          "indexed": true,
          "internalType": "address",
          "name": "sender",
          "type": "address"
        }
      ],
      "name": "RoleRevoked",
      "type": "event"
    },
    {
      "anonymous": false,
      "inputs": [
        {
          "indexed": true,
          "internalType": "address",
          "name": "from",
          "type": "address"
        },
        {
          "indexed": true,
          "internalType": "address",
          "name": "to",
          "type": "address"
        },
        {
          "indexed": true,
          "internalType": "uint256",
          "name": "tokenId",
          "type": "uint256"
        }
      ],
      "name": "Transfer",
      "type": "event"
    },
    {
      "anonymous": false,
      "inputs": [
        {
          "indexed": false,
          "internalType": "address",
          "name": "account",
          "type": "address"
        }
      ],
      "name": "Unpaused",
      "type": "event"
    },
    {
      "inputs": [],
      "name": "ADMIN_CLUB_ROLE",
      "outputs": [
        {
          "internalType": "bytes32",
          "name": "",
          "type": "bytes32"
        }
      ],
      "stateMutability": "view",
      "type": "function",
      "constant": true
    },
    {
      "inputs": [],
      "name": "DEFAULT_ADMIN_ROLE",
      "outputs": [
        {
          "internalType": "bytes32",
          "name": "",
          "type": "bytes32"
        }
      ],
      "stateMutability": "view",
      "type": "function",
      "constant": true
    },
    {
      "inputs": [],
      "name": "SUBSCRIBER_ROLE",
      "outputs": [
        {
          "internalType": "bytes32",
          "name": "",
          "type": "bytes32"
        }
      ],
      "stateMutability": "view",
      "type": "function",
      "constant": true
    },
    {
      "inputs": [
        {
          "internalType": "address",
          "name": "to",
          "type": "address"
        },
        {
          "internalType": "uint256",
          "name": "tokenId",
          "type": "uint256"
        }
      ],
      "name": "approve",
      "outputs": [],
      "stateMutability": "nonpayable",
      "type": "function"
    },
    {
      "inputs": [
        {
          "internalType": "address",
          "name": "owner",
          "type": "address"
        }
      ],
      "name": "balanceOf",
      "outputs": [
        {
          "internalType": "uint256",
          "name": "",
          "type": "uint256"
        }
      ],
      "stateMutability": "view",
      "type": "function",
      "constant": true
    },
    {
      "inputs": [
        {
          "internalType": "uint256",
          "name": "tokenId",
          "type": "uint256"
        }
      ],
      "name": "burn",
      "outputs": [],
      "stateMutability": "nonpayable",
      "type": "function"
    },
    {
      "inputs": [
        {
          "internalType": "uint256",
          "name": "tokenId",
          "type": "uint256"
        }
      ],
      "name": "getApproved",
      "outputs": [
        {
          "internalType": "address",
          "name": "",
          "type": "address"
        }
      ],
      "stateMutability": "view",
      "type": "function",
      "constant": true
    },
    {
      "inputs": [
        {
          "internalType": "bytes32",
          "name": "role",
          "type": "bytes32"
        }
      ],
      "name": "getRoleAdmin",
      "outputs": [
        {
          "internalType": "bytes32",
          "name": "",
          "type": "bytes32"
        }
      ],
      "stateMutability": "view",
      "type": "function",
      "constant": true
    },
    {
      "inputs": [
        {
          "internalType": "bytes32",
          "name": "role",
          "type": "bytes32"
        },
        {
          "internalType": "address",
          "name": "account",
          "type": "address"
        }
      ],
      "name": "grantRole",
      "outputs": [],
      "stateMutability": "nonpayable",
      "type": "function"
    },
    {
      "inputs": [
        {
          "internalType": "bytes32",
          "name": "role",
          "type": "bytes32"
        },
        {
          "internalType": "address",
          "name": "account",
          "type": "address"
        }
      ],
      "name": "hasRole",
      "outputs": [
        {
          "internalType": "bool",
          "name": "",
          "type": "bool"
        }
      ],
      "stateMutability": "view",
      "type": "function",
      "constant": true
    },
    {
      "inputs": [
        {
          "internalType": "address",
          "name": "owner",
          "type": "address"
        },
        {
          "internalType": "address",
          "name": "operator",
          "type": "address"
        }
      ],
      "name": "isApprovedForAll",
      "outputs": [
        {
          "internalType": "bool",
          "name": "",
          "type": "bool"
        }
      ],
      "stateMutability": "view",
      "type": "function",
      "constant": true
    },
    {
      "inputs": [],
      "name": "name",
      "outputs": [
        {
          "internalType": "string",
          "name": "",
          "type": "string"
        }
      ],
      "stateMutability": "view",
      "type": "function",
      "constant": true
    },
    {
      "inputs": [
        {
          "internalType": "uint256",
          "name": "tokenId",
          "type": "uint256"
        }
      ],
      "name": "ownerOf",
      "outputs": [
        {
          "internalType": "address",
          "name": "",
          "type": "address"
        }
      ],
      "stateMutability": "view",
      "type": "function",
      "constant": true
    },
    {
      "inputs": [],
      "name": "paused",
      "outputs": [
        {
          "internalType": "bool",
          "name": "",
          "type": "bool"
        }
      ],
      "stateMutability": "view",
      "type": "function",
      "constant": true
    },
    {
      "inputs": [
        {
          "internalType": "bytes32",
          "name": "role",
          "type": "bytes32"
        },
        {
          "internalType": "address",
          "name": "account",
          "type": "address"
        }
      ],
      "name": "renounceRole",
      "outputs": [],
      "stateMutability": "nonpayable",
      "type": "function"
    },
    {
      "inputs": [
        {
          "internalType": "bytes32",
          "name": "role",
          "type": "bytes32"
        },
        {
          "internalType": "address",
          "name": "account",
          "type": "address"
        }
      ],
      "name": "revokeRole",
      "outputs": [],
      "stateMutability": "nonpayable",
      "type": "function"
    },
    {
      "inputs": [
        {
          "internalType": "address",
          "name": "from",
          "type": "address"
        },
        {
          "internalType": "address",
          "name": "to",
          "type": "address"
        },
        {
          "internalType": "uint256",
          "name": "tokenId",
          "type": "uint256"
        }
      ],
      "name": "safeTransferFrom",
      "outputs": [],
      "stateMutability": "nonpayable",
      "type": "function"
    },
    {
      "inputs": [
        {
          "internalType": "address",
          "name": "from",
          "type": "address"
        },
        {
          "internalType": "address",
          "name": "to",
          "type": "address"
        },
        {
          "internalType": "uint256",
          "name": "tokenId",
          "type": "uint256"
        },
        {
          "internalType": "bytes",
          "name": "_data",
          "type": "bytes"
        }
      ],
      "name": "safeTransferFrom",
      "outputs": [],
      "stateMutability": "nonpayable",
      "type": "function"
    },
    {
      "inputs": [
        {
          "internalType": "address",
          "name": "operator",
          "type": "address"
        },
        {
          "internalType": "bool",
          "name": "approved",
          "type": "bool"
        }
      ],
      "name": "setApprovalForAll",
      "outputs": [],
      "stateMutability": "nonpayable",
      "type": "function"
    },
    {
      "inputs": [],
      "name": "symbol",
      "outputs": [
        {
          "internalType": "string",
          "name": "",
          "type": "string"
        }
      ],
      "stateMutability": "view",
      "type": "function",
      "constant": true
    },
    {
      "inputs": [
        {
          "internalType": "address",
          "name": "from",
          "type": "address"
        },
        {
          "internalType": "address",
          "name": "to",
          "type": "address"
        },
        {
          "internalType": "uint256",
          "name": "tokenId",
          "type": "uint256"
        }
      ],
      "name": "transferFrom",
      "outputs": [],
      "stateMutability": "nonpayable",
      "type": "function"
    },
    {
      "inputs": [],
      "name": "pause",
      "outputs": [],
      "stateMutability": "nonpayable",
      "type": "function"
    },
    {
      "inputs": [],
      "name": "unpause",
      "outputs": [],
      "stateMutability": "nonpayable",
      "type": "function"
    },
    {
      "inputs": [
        {
          "internalType": "string",
          "name": "uri",
          "type": "string"
        }
      ],
      "name": "mintSubscriberNFT",
      "outputs": [],
      "stateMutability": "nonpayable",
      "type": "function"
    },
    {
      "inputs": [
        {
          "internalType": "uint256",
          "name": "tokenId",
          "type": "uint256"
        }
      ],
      "name": "tokenURI",
      "outputs": [
        {
          "internalType": "string",
          "name": "",
          "type": "string"
        }
      ],
      "stateMutability": "view",
      "type": "function",
      "constant": true
    },
    {
      "inputs": [
        {
          "internalType": "bytes4",
          "name": "interfaceId",
          "type": "bytes4"
        }
      ],
      "name": "supportsInterface",
      "outputs": [
        {
          "internalType": "bool",
          "name": "",
          "type": "bool"
        }
      ],
      "stateMutability": "view",
      "type": "function",
      "constant": true
    },
    {
      "inputs": [
        {
          "internalType": "address",
          "name": "account",
          "type": "address"
        }
      ],
      "name": "grantClubRol",
      "outputs": [],
      "stateMutability": "nonpayable",
      "type": "function"
    },
    {
      "inputs": [
        {
          "internalType": "address",
          "name": "account",
          "type": "address"
        }
      ],
      "name": "revokeClubRol",
      "outputs": [],
      "stateMutability": "nonpayable",
      "type": "function"
    },
    {
      "inputs": [
        {
          "internalType": "address",
          "name": "account",
          "type": "address"
        }
      ],
      "name": "grantSubscriberRol",
      "outputs": [],
      "stateMutability": "nonpayable",
      "type": "function"
    },
    {
      "inputs": [
        {
          "internalType": "address",
          "name": "account",
          "type": "address"
        }
      ],
      "name": "revokeSubscriberRol",
      "outputs": [],
      "stateMutability": "nonpayable",
      "type": "function"
    }
  ],
  "bytecode": "0x60806040523480156200001157600080fd5b506040518060400160405280600e81526020017f524d524d2046616e20546f6b656e0000000000000000000000000000000000008152506040518060400160405280600481526020017f524d524d0000000000000000000000000000000000000000000000000000000081525081600090816200008f91906200051d565b508060019081620000a191906200051d565b5050506000600760006101000a81548160ff021916908315150217905550620000d46000801b336200013e60201b60201c565b620001067f9894090c012e113e817b2d99a7f6ad3e666491f10820f12b8bc4b139f2ea06bb336200013e60201b60201c565b620001387f3f483399a73bbfbc7e47cea702709b2441abfc4e8152100709ca14556e321303336200013e60201b60201c565b62000604565b6200015082826200023060201b60201c565b6200022c5760016008600084815260200190815260200160002060000160008373ffffffffffffffffffffffffffffffffffffffff1673ffffffffffffffffffffffffffffffffffffffff16815260200190815260200160002060006101000a81548160ff021916908315150217905550620001d16200029b60201b60201c565b73ffffffffffffffffffffffffffffffffffffffff168173ffffffffffffffffffffffffffffffffffffffff16837f2f8788117e7eff1d82e926ec794901d17c78024a50270940304540a733656f0d60405160405180910390a45b5050565b60006008600084815260200190815260200160002060000160008373ffffffffffffffffffffffffffffffffffffffff1673ffffffffffffffffffffffffffffffffffffffff16815260200190815260200160002060009054906101000a900460ff16905092915050565b600033905090565b600081519050919050565b7f4e487b7100000000000000000000000000000000000000000000000000000000600052604160045260246000fd5b7f4e487b7100000000000000000000000000000000000000000000000000000000600052602260045260246000fd5b600060028204905060018216806200032557607f821691505b6020821081036200033b576200033a620002dd565b5b50919050565b60008190508160005260206000209050919050565b60006020601f8301049050919050565b600082821b905092915050565b600060088302620003a57fffffffffffffffffffffffffffffffffffffffffffffffffffffffffffffffff8262000366565b620003b1868362000366565b95508019841693508086168417925050509392505050565b6000819050919050565b6000819050919050565b6000620003fe620003f8620003f284620003c9565b620003d3565b620003c9565b9050919050565b6000819050919050565b6200041a83620003dd565b62000432620004298262000405565b84845462000373565b825550505050565b600090565b620004496200043a565b620004568184846200040f565b505050565b5b818110156200047e57620004726000826200043f565b6001810190506200045c565b5050565b601f821115620004cd57620004978162000341565b620004a28462000356565b81016020851015620004b2578190505b620004ca620004c18562000356565b8301826200045b565b50505b505050565b600082821c905092915050565b6000620004f260001984600802620004d2565b1980831691505092915050565b60006200050d8383620004df565b9150826002028217905092915050565b6200052882620002a3565b67ffffffffffffffff811115620005445762000543620002ae565b5b6200055082546200030c565b6200055d82828562000482565b600060209050601f83116001811462000595576000841562000580578287015190505b6200058c8582620004ff565b865550620005fc565b601f198416620005a58662000341565b60005b82811015620005cf57848901518255600182019150602085019450602081019050620005a8565b86831015620005ef5784890151620005eb601f891682620004df565b8355505b6001600288020188555050505b505050505050565b61417280620006146000396000f3fe608060405234801561001057600080fd5b50600436106101da5760003560e01c806370a0823111610104578063b3551122116100a2578063d547741f11610071578063d547741f1461052b578063e985e9c514610547578063f8c90f5814610577578063fe5a066614610593576101da565b8063b3551122146104a5578063b88d4fde146104c3578063c87b56dd146104df578063cd2735c01461050f576101da565b806395d89b41116100de57806395d89b4114610431578063a217fddf1461044f578063a22cb4651461046d578063a9ddb57714610489576101da565b806370a08231146103c75780638456cb59146103f757806391d1485414610401576101da565b806336568abe1161017c57806342966c681161014b57806342966c6814610341578063504761171461035d5780635c975abb146103795780636352211e14610397576101da565b806336568abe146102e15780633bf08451146102fd5780633f4ba83a1461031b57806342842e0e14610325576101da565b8063095ea7b3116101b8578063095ea7b31461025d57806323b872dd14610279578063248a9ca3146102955780632f2ff15d146102c5576101da565b806301ffc9a7146101df57806306fdde031461020f578063081812fc1461022d575b600080fd5b6101f960048036038101906101f491906127e1565b6105af565b6040516102069190612829565b60405180910390f35b6102176105c1565b60405161022491906128dd565b60405180910390f35b61024760048036038101906102429190612935565b610653565b60405161025491906129a3565b60405180910390f35b610277600480360381019061027291906129ea565b6106d8565b005b610293600480360381019061028e9190612a2a565b6107ef565b005b6102af60048036038101906102aa9190612ab3565b61084f565b6040516102bc9190612aef565b60405180910390f35b6102df60048036038101906102da9190612b0a565b61086f565b005b6102fb60048036038101906102f69190612b0a565b610890565b005b610305610913565b6040516103129190612aef565b60405180910390f35b610323610937565b005b61033f600480360381019061033a9190612a2a565b61094f565b005b61035b60048036038101906103569190612935565b61096f565b005b61037760048036038101906103729190612b4a565b6109cb565b005b610381610a06565b60405161038e9190612829565b60405180910390f35b6103b160048036038101906103ac9190612935565b610a1d565b6040516103be91906129a3565b60405180910390f35b6103e160048036038101906103dc9190612b4a565b610ace565b6040516103ee9190612b86565b60405180910390f35b6103ff610b85565b005b61041b60048036038101906104169190612b0a565b610b9d565b6040516104289190612829565b60405180910390f35b610439610c08565b60405161044691906128dd565b60405180910390f35b610457610c9a565b6040516104649190612aef565b60405180910390f35b61048760048036038101906104829190612bcd565b610ca1565b005b6104a3600480360381019061049e9190612b4a565b610cb7565b005b6104ad610d0f565b6040516104ba9190612aef565b60405180910390f35b6104dd60048036038101906104d89190612d42565b610d33565b005b6104f960048036038101906104f49190612935565b610d95565b60405161050691906128dd565b60405180910390f35b61052960048036038101906105249190612b4a565b610da7565b005b61054560048036038101906105409190612b0a565b610dff565b005b610561600480360381019061055c9190612dc5565b610e20565b60405161056e9190612829565b60405180910390f35b610591600480360381019061058c9190612ea6565b610eb4565b005b6105ad60048036038101906105a89190612b4a565b610f0f565b005b60006105ba82610f4a565b9050919050565b6060600080546105d090612f1e565b80601f01602080910402602001604051908101604052809291908181526020018280546105fc90612f1e565b80156106495780601f1061061e57610100808354040283529160200191610649565b820191906000526020600020905b81548152906001019060200180831161062c57829003601f168201915b5050505050905090565b600061065e82610fc4565b61069d576040517f08c379a000000000000000000000000000000000000000000000000000000000815260040161069490612fc1565b60405180910390fd5b6004600083815260200190815260200160002060009054906101000a900473ffffffffffffffffffffffffffffffffffffffff169050919050565b60006106e382610a1d565b90508073ffffffffffffffffffffffffffffffffffffffff168373ffffffffffffffffffffffffffffffffffffffff1603610753576040517f08c379a000000000000000000000000000000000000000000000000000000000815260040161074a90613053565b60405180910390fd5b8073ffffffffffffffffffffffffffffffffffffffff16610772611030565b73ffffffffffffffffffffffffffffffffffffffff1614806107a157506107a08161079b611030565b610e20565b5b6107e0576040517f08c379a00000000000000000000000000000000000000000000000000000000081526004016107d7906130e5565b60405180910390fd5b6107ea8383611038565b505050565b6108006107fa611030565b826110f1565b61083f576040517f08c379a000000000000000000000000000000000000000000000000000000000815260040161083690613177565b60405180910390fd5b61084a8383836111cf565b505050565b600060086000838152602001908152602001600020600101549050919050565b6108788261084f565b61088181611435565b61088b8383611449565b505050565b610898611030565b73ffffffffffffffffffffffffffffffffffffffff168173ffffffffffffffffffffffffffffffffffffffff1614610905576040517f08c379a00000000000000000000000000000000000000000000000000000000081526004016108fc90613209565b60405180910390fd5b61090f828261152a565b5050565b7f9894090c012e113e817b2d99a7f6ad3e666491f10820f12b8bc4b139f2ea06bb81565b6000801b61094481611435565b61094c61160c565b50565b61096a83838360405180602001604052806000815250610d33565b505050565b61098061097a611030565b826110f1565b6109bf576040517f08c379a00000000000000000000000000000000000000000000000000000000081526004016109b69061329b565b60405180910390fd5b6109c8816116ae565b50565b6000801b6109d881611435565b610a027f9894090c012e113e817b2d99a7f6ad3e666491f10820f12b8bc4b139f2ea06bb83611449565b5050565b6000600760009054906101000a900460ff16905090565b6000806002600084815260200190815260200160002060009054906101000a900473ffffffffffffffffffffffffffffffffffffffff169050600073ffffffffffffffffffffffffffffffffffffffff168173ffffffffffffffffffffffffffffffffffffffff1603610ac5576040517f08c379a0000000000000000000000000000000000000000000000000000000008152600401610abc9061332d565b60405180910390fd5b80915050919050565b60008073ffffffffffffffffffffffffffffffffffffffff168273ffffffffffffffffffffffffffffffffffffffff1603610b3e576040517f08c379a0000000000000000000000000000000000000000000000000000000008152600401610b35906133bf565b60405180910390fd5b600360008373ffffffffffffffffffffffffffffffffffffffff1673ffffffffffffffffffffffffffffffffffffffff168152602001908152602001600020549050919050565b6000801b610b9281611435565b610b9a6116ba565b50565b60006008600084815260200190815260200160002060000160008373ffffffffffffffffffffffffffffffffffffffff1673ffffffffffffffffffffffffffffffffffffffff16815260200190815260200160002060009054906101000a900460ff16905092915050565b606060018054610c1790612f1e565b80601f0160208091040260200160405190810160405280929190818152602001828054610c4390612f1e565b8015610c905780601f10610c6557610100808354040283529160200191610c90565b820191906000526020600020905b815481529060010190602001808311610c7357829003601f168201915b5050505050905090565b6000801b81565b610cb3610cac611030565b838361175d565b5050565b7f9894090c012e113e817b2d99a7f6ad3e666491f10820f12b8bc4b139f2ea06bb610ce181611435565b610d0b7f3f483399a73bbfbc7e47cea702709b2441abfc4e8152100709ca14556e32130383611449565b5050565b7f3f483399a73bbfbc7e47cea702709b2441abfc4e8152100709ca14556e32130381565b610d44610d3e611030565b836110f1565b610d83576040517f08c379a0000000000000000000000000000000000000000000000000000000008152600401610d7a90613177565b60405180910390fd5b610d8f848484846118c9565b50505050565b6060610da082611925565b9050919050565b7f9894090c012e113e817b2d99a7f6ad3e666491f10820f12b8bc4b139f2ea06bb610dd181611435565b610dfb7f3f483399a73bbfbc7e47cea702709b2441abfc4e8152100709ca14556e3213038361152a565b5050565b610e088261084f565b610e1181611435565b610e1b838361152a565b505050565b6000600560008473ffffffffffffffffffffffffffffffffffffffff1673ffffffffffffffffffffffffffffffffffffffff16815260200190815260200160002060008373ffffffffffffffffffffffffffffffffffffffff1673ffffffffffffffffffffffffffffffffffffffff16815260200190815260200160002060009054906101000a900460ff16905092915050565b7f3f483399a73bbfbc7e47cea702709b2441abfc4e8152100709ca14556e321303610ede81611435565b6000610eea6009611a76565b9050610ef66009611a84565b610f003382611a9a565b610f0a8184611ab8565b505050565b6000801b610f1c81611435565b610f467f9894090c012e113e817b2d99a7f6ad3e666491f10820f12b8bc4b139f2ea06bb8361152a565b5050565b60007f7965db0b000000000000000000000000000000000000000000000000000000007bffffffffffffffffffffffffffffffffffffffffffffffffffffffff1916827bffffffffffffffffffffffffffffffffffffffffffffffffffffffff19161480610fbd5750610fbc82611b25565b5b9050919050565b60008073ffffffffffffffffffffffffffffffffffffffff166002600084815260200190815260200160002060009054906101000a900473ffffffffffffffffffffffffffffffffffffffff1673ffffffffffffffffffffffffffffffffffffffff1614159050919050565b600033905090565b816004600083815260200190815260200160002060006101000a81548173ffffffffffffffffffffffffffffffffffffffff021916908373ffffffffffffffffffffffffffffffffffffffff160217905550808273ffffffffffffffffffffffffffffffffffffffff166110ab83610a1d565b73ffffffffffffffffffffffffffffffffffffffff167f8c5be1e5ebec7d5bd14f71427d1e84f3dd0314c0f7b2291e5b200ac8c7c3b92560405160405180910390a45050565b60006110fc82610fc4565b61113b576040517f08c379a000000000000000000000000000000000000000000000000000000000815260040161113290613451565b60405180910390fd5b600061114683610a1d565b90508073ffffffffffffffffffffffffffffffffffffffff168473ffffffffffffffffffffffffffffffffffffffff16148061118857506111878185610e20565b5b806111c657508373ffffffffffffffffffffffffffffffffffffffff166111ae84610653565b73ffffffffffffffffffffffffffffffffffffffff16145b91505092915050565b8273ffffffffffffffffffffffffffffffffffffffff166111ef82610a1d565b73ffffffffffffffffffffffffffffffffffffffff1614611245576040517f08c379a000000000000000000000000000000000000000000000000000000000815260040161123c906134e3565b60405180910390fd5b600073ffffffffffffffffffffffffffffffffffffffff168273ffffffffffffffffffffffffffffffffffffffff16036112b4576040517f08c379a00000000000000000000000000000000000000000000000000000000081526004016112ab90613575565b60405180910390fd5b6112bf838383611c07565b6112ca600082611038565b6001600360008573ffffffffffffffffffffffffffffffffffffffff1673ffffffffffffffffffffffffffffffffffffffff168152602001908152602001600020600082825461131a91906135c4565b925050819055506001600360008473ffffffffffffffffffffffffffffffffffffffff1673ffffffffffffffffffffffffffffffffffffffff168152602001908152602001600020600082825461137191906135f8565b92505081905550816002600083815260200190815260200160002060006101000a81548173ffffffffffffffffffffffffffffffffffffffff021916908373ffffffffffffffffffffffffffffffffffffffff160217905550808273ffffffffffffffffffffffffffffffffffffffff168473ffffffffffffffffffffffffffffffffffffffff167fddf252ad1be2c89b69c2b068fc378daa952ba7f163c4a11628f55a4df523b3ef60405160405180910390a4611430838383611c5f565b505050565b61144681611441611030565b611c64565b50565b6114538282610b9d565b6115265760016008600084815260200190815260200160002060000160008373ffffffffffffffffffffffffffffffffffffffff1673ffffffffffffffffffffffffffffffffffffffff16815260200190815260200160002060006101000a81548160ff0219169083151502179055506114cb611030565b73ffffffffffffffffffffffffffffffffffffffff168173ffffffffffffffffffffffffffffffffffffffff16837f2f8788117e7eff1d82e926ec794901d17c78024a50270940304540a733656f0d60405160405180910390a45b5050565b6115348282610b9d565b156116085760006008600084815260200190815260200160002060000160008373ffffffffffffffffffffffffffffffffffffffff1673ffffffffffffffffffffffffffffffffffffffff16815260200190815260200160002060006101000a81548160ff0219169083151502179055506115ad611030565b73ffffffffffffffffffffffffffffffffffffffff168173ffffffffffffffffffffffffffffffffffffffff16837ff6391f5c32d9c69d2a47ea670b442974b53935d1edc7fd64eb21e047a839171b60405160405180910390a45b5050565b611614610a06565b611653576040517f08c379a000000000000000000000000000000000000000000000000000000000815260040161164a9061369a565b60405180910390fd5b6000600760006101000a81548160ff0219169083151502179055507f5db9ee0a495bf2e6ff9c91a7834c1ba4fdd244a5e8aa4e537bd38aeae4b073aa611697611030565b6040516116a491906129a3565b60405180910390a1565b6116b781611d01565b50565b6116c2610a06565b15611702576040517f08c379a00000000000000000000000000000000000000000000000000000000081526004016116f990613706565b60405180910390fd5b6001600760006101000a81548160ff0219169083151502179055507f62e78cea01bee320cd4e420270b5ea74000d11b0c9f74754ebdbfc544b05a258611746611030565b60405161175391906129a3565b60405180910390a1565b8173ffffffffffffffffffffffffffffffffffffffff168373ffffffffffffffffffffffffffffffffffffffff16036117cb576040517f08c379a00000000000000000000000000000000000000000000000000000000081526004016117c290613772565b60405180910390fd5b80600560008573ffffffffffffffffffffffffffffffffffffffff1673ffffffffffffffffffffffffffffffffffffffff16815260200190815260200160002060008473ffffffffffffffffffffffffffffffffffffffff1673ffffffffffffffffffffffffffffffffffffffff16815260200190815260200160002060006101000a81548160ff0219169083151502179055508173ffffffffffffffffffffffffffffffffffffffff168373ffffffffffffffffffffffffffffffffffffffff167f17307eab39ab6107e8899845ad3d59bd9653f200f220920489ca2b5937696c31836040516118bc9190612829565b60405180910390a3505050565b6118d48484846111cf565b6118e084848484611d54565b61191f576040517f08c379a000000000000000000000000000000000000000000000000000000000815260040161191690613804565b60405180910390fd5b50505050565b606061193082610fc4565b61196f576040517f08c379a000000000000000000000000000000000000000000000000000000000815260040161196690613896565b60405180910390fd5b600060066000848152602001908152602001600020805461198f90612f1e565b80601f01602080910402602001604051908101604052809291908181526020018280546119bb90612f1e565b8015611a085780601f106119dd57610100808354040283529160200191611a08565b820191906000526020600020905b8154815290600101906020018083116119eb57829003601f168201915b505050505090506000611a19611edb565b90506000815103611a2e578192505050611a71565b600082511115611a63578082604051602001611a4b9291906138f2565b60405160208183030381529060405292505050611a71565b611a6c84611ef2565b925050505b919050565b600081600001549050919050565b6001816000016000828254019250508190555050565b611ab4828260405180602001604052806000815250611f99565b5050565b611ac182610fc4565b611b00576040517f08c379a0000000000000000000000000000000000000000000000000000000008152600401611af790613988565b60405180910390fd5b80600660008481526020019081526020016000209081611b209190613b54565b505050565b60007f80ac58cd000000000000000000000000000000000000000000000000000000007bffffffffffffffffffffffffffffffffffffffffffffffffffffffff1916827bffffffffffffffffffffffffffffffffffffffffffffffffffffffff19161480611bf057507f5b5e139f000000000000000000000000000000000000000000000000000000007bffffffffffffffffffffffffffffffffffffffffffffffffffffffff1916827bffffffffffffffffffffffffffffffffffffffffffffffffffffffff1916145b80611c005750611bff82611ff4565b5b9050919050565b611c0f610a06565b15611c4f576040517f08c379a0000000000000000000000000000000000000000000000000000000008152600401611c4690613706565b60405180910390fd5b611c5a83838361205e565b505050565b505050565b611c6e8282610b9d565b611cfd57611c938173ffffffffffffffffffffffffffffffffffffffff166014612063565b611ca18360001c6020612063565b604051602001611cb2929190613cbe565b6040516020818303038152906040526040517f08c379a0000000000000000000000000000000000000000000000000000000008152600401611cf491906128dd565b60405180910390fd5b5050565b611d0a8161229f565b6000600660008381526020019081526020016000208054611d2a90612f1e565b905014611d5157600660008281526020019081526020016000206000611d509190612718565b5b50565b6000611d758473ffffffffffffffffffffffffffffffffffffffff166123bc565b15611ece578373ffffffffffffffffffffffffffffffffffffffff1663150b7a02611d9e611030565b8786866040518563ffffffff1660e01b8152600401611dc09493929190613d4d565b6020604051808303816000875af1925050508015611dfc57506040513d601f19601f82011682018060405250810190611df99190613dae565b60015b611e7e573d8060008114611e2c576040519150601f19603f3d011682016040523d82523d6000602084013e611e31565b606091505b506000815103611e76576040517f08c379a0000000000000000000000000000000000000000000000000000000008152600401611e6d90613804565b60405180910390fd5b805181602001fd5b63150b7a0260e01b7bffffffffffffffffffffffffffffffffffffffffffffffffffffffff1916817bffffffffffffffffffffffffffffffffffffffffffffffffffffffff191614915050611ed3565b600190505b949350505050565b606060405180602001604052806000815250905090565b6060611efd82610fc4565b611f3c576040517f08c379a0000000000000000000000000000000000000000000000000000000008152600401611f3390613e4d565b60405180910390fd5b6000611f46611edb565b90506000815111611f665760405180602001604052806000815250611f91565b80611f70846123df565b604051602001611f819291906138f2565b6040516020818303038152906040525b915050919050565b611fa3838361253f565b611fb06000848484611d54565b611fef576040517f08c379a0000000000000000000000000000000000000000000000000000000008152600401611fe690613804565b60405180910390fd5b505050565b60007f01ffc9a7000000000000000000000000000000000000000000000000000000007bffffffffffffffffffffffffffffffffffffffffffffffffffffffff1916827bffffffffffffffffffffffffffffffffffffffffffffffffffffffff1916149050919050565b505050565b6060600060028360026120769190613e6d565b61208091906135f8565b67ffffffffffffffff81111561209957612098612c17565b5b6040519080825280601f01601f1916602001820160405280156120cb5781602001600182028036833780820191505090505b5090507f30000000000000000000000000000000000000000000000000000000000000008160008151811061210357612102613ec7565b5b60200101907effffffffffffffffffffffffffffffffffffffffffffffffffffffffffffff1916908160001a9053507f78000000000000000000000000000000000000000000000000000000000000008160018151811061216757612166613ec7565b5b60200101907effffffffffffffffffffffffffffffffffffffffffffffffffffffffffffff1916908160001a905350600060018460026121a79190613e6d565b6121b191906135f8565b90505b6001811115612251577f3031323334353637383961626364656600000000000000000000000000000000600f8616601081106121f3576121f2613ec7565b5b1a60f81b82828151811061220a57612209613ec7565b5b60200101907effffffffffffffffffffffffffffffffffffffffffffffffffffffffffffff1916908160001a905350600485901c94508061224a90613ef6565b90506121b4565b5060008414612295576040517f08c379a000000000000000000000000000000000000000000000000000000000815260040161228c90613f6b565b60405180910390fd5b8091505092915050565b60006122aa82610a1d565b90506122b881600084611c07565b6122c3600083611038565b6001600360008373ffffffffffffffffffffffffffffffffffffffff1673ffffffffffffffffffffffffffffffffffffffff168152602001908152602001600020600082825461231391906135c4565b925050819055506002600083815260200190815260200160002060006101000a81549073ffffffffffffffffffffffffffffffffffffffff021916905581600073ffffffffffffffffffffffffffffffffffffffff168273ffffffffffffffffffffffffffffffffffffffff167fddf252ad1be2c89b69c2b068fc378daa952ba7f163c4a11628f55a4df523b3ef60405160405180910390a46123b881600084611c5f565b5050565b6000808273ffffffffffffffffffffffffffffffffffffffff163b119050919050565b606060008203612426576040518060400160405280600181526020017f3000000000000000000000000000000000000000000000000000000000000000815250905061253a565b600082905060005b6000821461245857808061244190613f8b565b915050600a826124519190614002565b915061242e565b60008167ffffffffffffffff81111561247457612473612c17565b5b6040519080825280601f01601f1916602001820160405280156124a65781602001600182028036833780820191505090505b5090505b60008514612533576001826124bf91906135c4565b9150600a856124ce9190614033565b60306124da91906135f8565b60f81b8183815181106124f0576124ef613ec7565b5b60200101907effffffffffffffffffffffffffffffffffffffffffffffffffffffffffffff1916908160001a905350600a8561252c9190614002565b94506124aa565b8093505050505b919050565b600073ffffffffffffffffffffffffffffffffffffffff168273ffffffffffffffffffffffffffffffffffffffff16036125ae576040517f08c379a00000000000000000000000000000000000000000000000000000000081526004016125a5906140b0565b60405180910390fd5b6125b781610fc4565b156125f7576040517f08c379a00000000000000000000000000000000000000000000000000000000081526004016125ee9061411c565b60405180910390fd5b61260360008383611c07565b6001600360008473ffffffffffffffffffffffffffffffffffffffff1673ffffffffffffffffffffffffffffffffffffffff168152602001908152602001600020600082825461265391906135f8565b92505081905550816002600083815260200190815260200160002060006101000a81548173ffffffffffffffffffffffffffffffffffffffff021916908373ffffffffffffffffffffffffffffffffffffffff160217905550808273ffffffffffffffffffffffffffffffffffffffff16600073ffffffffffffffffffffffffffffffffffffffff167fddf252ad1be2c89b69c2b068fc378daa952ba7f163c4a11628f55a4df523b3ef60405160405180910390a461271460008383611c5f565b5050565b50805461272490612f1e565b6000825580601f106127365750612755565b601f0160209004906000526020600020908101906127549190612758565b5b50565b5b80821115612771576000816000905550600101612759565b5090565b6000604051905090565b600080fd5b600080fd5b60007fffffffff0000000000000000000000000000000000000000000000000000000082169050919050565b6127be81612789565b81146127c957600080fd5b50565b6000813590506127db816127b5565b92915050565b6000602082840312156127f7576127f661277f565b5b6000612805848285016127cc565b91505092915050565b60008115159050919050565b6128238161280e565b82525050565b600060208201905061283e600083018461281a565b92915050565b600081519050919050565b600082825260208201905092915050565b60005b8381101561287e578082015181840152602081019050612863565b8381111561288d576000848401525b50505050565b6000601f19601f8301169050919050565b60006128af82612844565b6128b9818561284f565b93506128c9818560208601612860565b6128d281612893565b840191505092915050565b600060208201905081810360008301526128f781846128a4565b905092915050565b6000819050919050565b612912816128ff565b811461291d57600080fd5b50565b60008135905061292f81612909565b92915050565b60006020828403121561294b5761294a61277f565b5b600061295984828501612920565b91505092915050565b600073ffffffffffffffffffffffffffffffffffffffff82169050919050565b600061298d82612962565b9050919050565b61299d81612982565b82525050565b60006020820190506129b86000830184612994565b92915050565b6129c781612982565b81146129d257600080fd5b50565b6000813590506129e4816129be565b92915050565b60008060408385031215612a0157612a0061277f565b5b6000612a0f858286016129d5565b9250506020612a2085828601612920565b9150509250929050565b600080600060608486031215612a4357612a4261277f565b5b6000612a51868287016129d5565b9350506020612a62868287016129d5565b9250506040612a7386828701612920565b9150509250925092565b6000819050919050565b612a9081612a7d565b8114612a9b57600080fd5b50565b600081359050612aad81612a87565b92915050565b600060208284031215612ac957612ac861277f565b5b6000612ad784828501612a9e565b91505092915050565b612ae981612a7d565b82525050565b6000602082019050612b046000830184612ae0565b92915050565b60008060408385031215612b2157612b2061277f565b5b6000612b2f85828601612a9e565b9250506020612b40858286016129d5565b9150509250929050565b600060208284031215612b6057612b5f61277f565b5b6000612b6e848285016129d5565b91505092915050565b612b80816128ff565b82525050565b6000602082019050612b9b6000830184612b77565b92915050565b612baa8161280e565b8114612bb557600080fd5b50565b600081359050612bc781612ba1565b92915050565b60008060408385031215612be457612be361277f565b5b6000612bf2858286016129d5565b9250506020612c0385828601612bb8565b9150509250929050565b600080fd5b600080fd5b7f4e487b7100000000000000000000000000000000000000000000000000000000600052604160045260246000fd5b612c4f82612893565b810181811067ffffffffffffffff82111715612c6e57612c6d612c17565b5b80604052505050565b6000612c81612775565b9050612c8d8282612c46565b919050565b600067ffffffffffffffff821115612cad57612cac612c17565b5b612cb682612893565b9050602081019050919050565b82818337600083830152505050565b6000612ce5612ce084612c92565b612c77565b905082815260208101848484011115612d0157612d00612c12565b5b612d0c848285612cc3565b509392505050565b600082601f830112612d2957612d28612c0d565b5b8135612d39848260208601612cd2565b91505092915050565b60008060008060808587031215612d5c57612d5b61277f565b5b6000612d6a878288016129d5565b9450506020612d7b878288016129d5565b9350506040612d8c87828801612920565b925050606085013567ffffffffffffffff811115612dad57612dac612784565b5b612db987828801612d14565b91505092959194509250565b60008060408385031215612ddc57612ddb61277f565b5b6000612dea858286016129d5565b9250506020612dfb858286016129d5565b9150509250929050565b600067ffffffffffffffff821115612e2057612e1f612c17565b5b612e2982612893565b9050602081019050919050565b6000612e49612e4484612e05565b612c77565b905082815260208101848484011115612e6557612e64612c12565b5b612e70848285612cc3565b509392505050565b600082601f830112612e8d57612e8c612c0d565b5b8135612e9d848260208601612e36565b91505092915050565b600060208284031215612ebc57612ebb61277f565b5b600082013567ffffffffffffffff811115612eda57612ed9612784565b5b612ee684828501612e78565b91505092915050565b7f4e487b7100000000000000000000000000000000000000000000000000000000600052602260045260246000fd5b60006002820490506001821680612f3657607f821691505b602082108103612f4957612f48612eef565b5b50919050565b7f4552433732313a20617070726f76656420717565727920666f72206e6f6e657860008201527f697374656e7420746f6b656e0000000000000000000000000000000000000000602082015250565b6000612fab602c8361284f565b9150612fb682612f4f565b604082019050919050565b60006020820190508181036000830152612fda81612f9e565b9050919050565b7f4552433732313a20617070726f76616c20746f2063757272656e74206f776e6560008201527f7200000000000000000000000000000000000000000000000000000000000000602082015250565b600061303d60218361284f565b915061304882612fe1565b604082019050919050565b6000602082019050818103600083015261306c81613030565b9050919050565b7f4552433732313a20617070726f76652063616c6c6572206973206e6f74206f7760008201527f6e6572206e6f7220617070726f76656420666f7220616c6c0000000000000000602082015250565b60006130cf60388361284f565b91506130da82613073565b604082019050919050565b600060208201905081810360008301526130fe816130c2565b9050919050565b7f4552433732313a207472616e736665722063616c6c6572206973206e6f74206f60008201527f776e6572206e6f7220617070726f766564000000000000000000000000000000602082015250565b600061316160318361284f565b915061316c82613105565b604082019050919050565b6000602082019050818103600083015261319081613154565b9050919050565b7f416363657373436f6e74726f6c3a2063616e206f6e6c792072656e6f756e636560008201527f20726f6c657320666f722073656c660000000000000000000000000000000000602082015250565b60006131f3602f8361284f565b91506131fe82613197565b604082019050919050565b60006020820190508181036000830152613222816131e6565b9050919050565b7f4552433732314275726e61626c653a2063616c6c6572206973206e6f74206f7760008201527f6e6572206e6f7220617070726f76656400000000000000000000000000000000602082015250565b600061328560308361284f565b915061329082613229565b604082019050919050565b600060208201905081810360008301526132b481613278565b9050919050565b7f4552433732313a206f776e657220717565727920666f72206e6f6e657869737460008201527f656e7420746f6b656e0000000000000000000000000000000000000000000000602082015250565b600061331760298361284f565b9150613322826132bb565b604082019050919050565b600060208201905081810360008301526133468161330a565b9050919050565b7f4552433732313a2062616c616e636520717565727920666f7220746865207a6560008201527f726f206164647265737300000000000000000000000000000000000000000000602082015250565b60006133a9602a8361284f565b91506133b48261334d565b604082019050919050565b600060208201905081810360008301526133d88161339c565b9050919050565b7f4552433732313a206f70657261746f7220717565727920666f72206e6f6e657860008201527f697374656e7420746f6b656e0000000000000000000000000000000000000000602082015250565b600061343b602c8361284f565b9150613446826133df565b604082019050919050565b6000602082019050818103600083015261346a8161342e565b9050919050565b7f4552433732313a207472616e736665722066726f6d20696e636f72726563742060008201527f6f776e6572000000000000000000000000000000000000000000000000000000602082015250565b60006134cd60258361284f565b91506134d882613471565b604082019050919050565b600060208201905081810360008301526134fc816134c0565b9050919050565b7f4552433732313a207472616e7366657220746f20746865207a65726f2061646460008201527f7265737300000000000000000000000000000000000000000000000000000000602082015250565b600061355f60248361284f565b915061356a82613503565b604082019050919050565b6000602082019050818103600083015261358e81613552565b9050919050565b7f4e487b7100000000000000000000000000000000000000000000000000000000600052601160045260246000fd5b60006135cf826128ff565b91506135da836128ff565b9250828210156135ed576135ec613595565b5b828203905092915050565b6000613603826128ff565b915061360e836128ff565b9250827fffffffffffffffffffffffffffffffffffffffffffffffffffffffffffffffff0382111561364357613642613595565b5b828201905092915050565b7f5061757361626c653a206e6f7420706175736564000000000000000000000000600082015250565b600061368460148361284f565b915061368f8261364e565b602082019050919050565b600060208201905081810360008301526136b381613677565b9050919050565b7f5061757361626c653a2070617573656400000000000000000000000000000000600082015250565b60006136f060108361284f565b91506136fb826136ba565b602082019050919050565b6000602082019050818103600083015261371f816136e3565b9050919050565b7f4552433732313a20617070726f766520746f2063616c6c657200000000000000600082015250565b600061375c60198361284f565b915061376782613726565b602082019050919050565b6000602082019050818103600083015261378b8161374f565b9050919050565b7f4552433732313a207472616e7366657220746f206e6f6e20455243373231526560008201527f63656976657220696d706c656d656e7465720000000000000000000000000000602082015250565b60006137ee60328361284f565b91506137f982613792565b604082019050919050565b6000602082019050818103600083015261381d816137e1565b9050919050565b7f45524337323155524953746f726167653a2055524920717565727920666f722060008201527f6e6f6e6578697374656e7420746f6b656e000000000000000000000000000000602082015250565b600061388060318361284f565b915061388b82613824565b604082019050919050565b600060208201905081810360008301526138af81613873565b9050919050565b600081905092915050565b60006138cc82612844565b6138d681856138b6565b93506138e6818560208601612860565b80840191505092915050565b60006138fe82856138c1565b915061390a82846138c1565b91508190509392505050565b7f45524337323155524953746f726167653a2055524920736574206f66206e6f6e60008201527f6578697374656e7420746f6b656e000000000000000000000000000000000000602082015250565b6000613972602e8361284f565b915061397d82613916565b604082019050919050565b600060208201905081810360008301526139a181613965565b9050919050565b60008190508160005260206000209050919050565b60006020601f8301049050919050565b600082821b905092915050565b600060088302613a0a7fffffffffffffffffffffffffffffffffffffffffffffffffffffffffffffffff826139cd565b613a1486836139cd565b95508019841693508086168417925050509392505050565b6000819050919050565b6000613a51613a4c613a47846128ff565b613a2c565b6128ff565b9050919050565b6000819050919050565b613a6b83613a36565b613a7f613a7782613a58565b8484546139da565b825550505050565b600090565b613a94613a87565b613a9f818484613a62565b505050565b5b81811015613ac357613ab8600082613a8c565b600181019050613aa5565b5050565b601f821115613b0857613ad9816139a8565b613ae2846139bd565b81016020851015613af1578190505b613b05613afd856139bd565b830182613aa4565b50505b505050565b600082821c905092915050565b6000613b2b60001984600802613b0d565b1980831691505092915050565b6000613b448383613b1a565b9150826002028217905092915050565b613b5d82612844565b67ffffffffffffffff811115613b7657613b75612c17565b5b613b808254612f1e565b613b8b828285613ac7565b600060209050601f831160018114613bbe5760008415613bac578287015190505b613bb68582613b38565b865550613c1e565b601f198416613bcc866139a8565b60005b82811015613bf457848901518255600182019150602085019450602081019050613bcf565b86831015613c115784890151613c0d601f891682613b1a565b8355505b6001600288020188555050505b505050505050565b7f416363657373436f6e74726f6c3a206163636f756e7420000000000000000000600082015250565b6000613c5c6017836138b6565b9150613c6782613c26565b601782019050919050565b7f206973206d697373696e6720726f6c6520000000000000000000000000000000600082015250565b6000613ca86011836138b6565b9150613cb382613c72565b601182019050919050565b6000613cc982613c4f565b9150613cd582856138c1565b9150613ce082613c9b565b9150613cec82846138c1565b91508190509392505050565b600081519050919050565b600082825260208201905092915050565b6000613d1f82613cf8565b613d298185613d03565b9350613d39818560208601612860565b613d4281612893565b840191505092915050565b6000608082019050613d626000830187612994565b613d6f6020830186612994565b613d7c6040830185612b77565b8181036060830152613d8e8184613d14565b905095945050505050565b600081519050613da8816127b5565b92915050565b600060208284031215613dc457613dc361277f565b5b6000613dd284828501613d99565b91505092915050565b7f4552433732314d657461646174613a2055524920717565727920666f72206e6f60008201527f6e6578697374656e7420746f6b656e0000000000000000000000000000000000602082015250565b6000613e37602f8361284f565b9150613e4282613ddb565b604082019050919050565b60006020820190508181036000830152613e6681613e2a565b9050919050565b6000613e78826128ff565b9150613e83836128ff565b9250817fffffffffffffffffffffffffffffffffffffffffffffffffffffffffffffffff0483118215151615613ebc57613ebb613595565b5b828202905092915050565b7f4e487b7100000000000000000000000000000000000000000000000000000000600052603260045260246000fd5b6000613f01826128ff565b915060008203613f1457613f13613595565b5b600182039050919050565b7f537472696e67733a20686578206c656e67746820696e73756666696369656e74600082015250565b6000613f5560208361284f565b9150613f6082613f1f565b602082019050919050565b60006020820190508181036000830152613f8481613f48565b9050919050565b6000613f96826128ff565b91507fffffffffffffffffffffffffffffffffffffffffffffffffffffffffffffffff8203613fc857613fc7613595565b5b600182019050919050565b7f4e487b7100000000000000000000000000000000000000000000000000000000600052601260045260246000fd5b600061400d826128ff565b9150614018836128ff565b92508261402857614027613fd3565b5b828204905092915050565b600061403e826128ff565b9150614049836128ff565b92508261405957614058613fd3565b5b828206905092915050565b7f4552433732313a206d696e7420746f20746865207a65726f2061646472657373600082015250565b600061409a60208361284f565b91506140a582614064565b602082019050919050565b600060208201905081810360008301526140c98161408d565b9050919050565b7f4552433732313a20746f6b656e20616c7265616479206d696e74656400000000600082015250565b6000614106601c8361284f565b9150614111826140d0565b602082019050919050565b60006020820190508181036000830152614135816140f9565b905091905056fea2646970667358221220b6a2d0ada0515f36e396babafeb15e91c305c0b1e2d00075c5d19d33bcfb635964736f6c634300080f0033",
  "immutableReferences": {},
  "source": "// SPDX-License-Identifier: MIT\r\npragma solidity ^0.8.4;\r\n\r\nimport \"@openzeppelin/contracts/token/ERC721/ERC721.sol\";\r\nimport \"@openzeppelin/contracts/token/ERC721/extensions/ERC721URIStorage.sol\";\r\nimport \"@openzeppelin/contracts/security/Pausable.sol\";\r\nimport \"@openzeppelin/contracts/access/AccessControl.sol\";\r\nimport \"@openzeppelin/contracts/token/ERC721/extensions/ERC721Burnable.sol\";\r\nimport \"@openzeppelin/contracts/utils/Counters.sol\";\r\n\r\ncontract SportTickets is\r\n    ERC721,\r\n    ERC721URIStorage,\r\n    Pausable,\r\n    AccessControl,\r\n    ERC721Burnable\r\n{\r\n    // Roles (administrador, club, abonado)\r\n    bytes32 public constant ADMIN_CLUB_ROLE = keccak256(\"ADMIN_CLUB_ROLE\");\r\n    bytes32 public constant SUBSCRIBER_ROLE = keccak256(\"SUBSCRIBER_ROLE\");\r\n\r\n    using Counters for Counters.Counter;\r\n    Counters.Counter private _subscriberCounter;\r\n\r\n    constructor() ERC721(\"RMRM Fan Token\", \"RMRM\") {\r\n        _grantRole(DEFAULT_ADMIN_ROLE, msg.sender);\r\n        _grantRole(ADMIN_CLUB_ROLE, msg.sender);\r\n        _grantRole(SUBSCRIBER_ROLE, msg.sender);\r\n    }\r\n\r\n    function pause() public onlyRole(DEFAULT_ADMIN_ROLE) {\r\n        _pause();\r\n    }\r\n\r\n    function unpause() public onlyRole(DEFAULT_ADMIN_ROLE) {\r\n        _unpause();\r\n    }\r\n\r\n    // Minting of generation of the subscription by the subscriber user\r\n    function mintSubscriberNFT(string memory uri)\r\n        public\r\n        onlyRole(SUBSCRIBER_ROLE)\r\n    {\r\n        uint256 tokenId = _subscriberCounter.current();\r\n        _subscriberCounter.increment();\r\n\r\n        _safeMint(msg.sender, tokenId);\r\n        // ipfs://bafkreic3xz5cssins4ihcyoo27kcmflwmgqvpbm2stpr3xfxxnsykgkali\r\n        _setTokenURI(tokenId, uri);\r\n    }\r\n\r\n    function _beforeTokenTransfer(\r\n        address from,\r\n        address to,\r\n        uint256 tokenId\r\n    ) internal override whenNotPaused {\r\n        super._beforeTokenTransfer(from, to, tokenId);\r\n    }\r\n\r\n    // The following functions are overrides required by Solidity.\r\n    function _burn(uint256 tokenId)\r\n        internal\r\n        override(ERC721, ERC721URIStorage)\r\n    {\r\n        super._burn(tokenId);\r\n    }\r\n\r\n    function tokenURI(uint256 tokenId)\r\n        public\r\n        view\r\n        override(ERC721, ERC721URIStorage)\r\n        returns (string memory)\r\n    {\r\n        return super.tokenURI(tokenId);\r\n    }\r\n\r\n    function supportsInterface(bytes4 interfaceId)\r\n        public\r\n        view\r\n        override(ERC721, AccessControl)\r\n        returns (bool)\r\n    {\r\n        return super.supportsInterface(interfaceId);\r\n    }\r\n\r\n    //ROLES FOR ASSIGNING AND UNASSIGNING ROLES\r\n    function grantClubRol(address account) public onlyRole(DEFAULT_ADMIN_ROLE) {\r\n        _grantRole(ADMIN_CLUB_ROLE, account);\r\n    }\r\n\r\n    function revokeClubRol(address account)\r\n        public\r\n        onlyRole(DEFAULT_ADMIN_ROLE)\r\n    {\r\n        _revokeRole(ADMIN_CLUB_ROLE, account);\r\n    }\r\n\r\n    function grantSubscriberRol(address account)\r\n        public\r\n        onlyRole(ADMIN_CLUB_ROLE)\r\n    {\r\n        _grantRole(SUBSCRIBER_ROLE, account);\r\n    }\r\n\r\n    function revokeSubscriberRol(address account)\r\n        public\r\n        onlyRole(ADMIN_CLUB_ROLE)\r\n    {\r\n        _revokeRole(SUBSCRIBER_ROLE, account);\r\n    }\r\n}\r\n",
  "sourcePath": "/Users/dosorio/Proyectos/Blockchain/CryptoTickets/contracts/SportTickets.sol",
  "compiler": {
    "name": "solc",
    "version": "0.8.15+commit.e14f2714.Emscripten.clang"
  },
  "schemaVersion": "3.4.7",
  "updatedAt": "2022-06-24T19:35:00.100Z",
  "networkType": "ethereum",
  "devdoc": {
    "kind": "dev",
    "methods": {
      "approve(address,uint256)": {
        "details": "See {IERC721-approve}."
      },
      "balanceOf(address)": {
        "details": "See {IERC721-balanceOf}."
      },
      "burn(uint256)": {
        "details": "Burns `tokenId`. See {ERC721-_burn}. Requirements: - The caller must own `tokenId` or be an approved operator."
      },
      "getApproved(uint256)": {
        "details": "See {IERC721-getApproved}."
      },
      "getRoleAdmin(bytes32)": {
        "details": "Returns the admin role that controls `role`. See {grantRole} and {revokeRole}. To change a role's admin, use {_setRoleAdmin}."
      },
      "grantRole(bytes32,address)": {
        "details": "Grants `role` to `account`. If `account` had not been already granted `role`, emits a {RoleGranted} event. Requirements: - the caller must have ``role``'s admin role."
      },
      "hasRole(bytes32,address)": {
        "details": "Returns `true` if `account` has been granted `role`."
      },
      "isApprovedForAll(address,address)": {
        "details": "See {IERC721-isApprovedForAll}."
      },
      "name()": {
        "details": "See {IERC721Metadata-name}."
      },
      "ownerOf(uint256)": {
        "details": "See {IERC721-ownerOf}."
      },
      "paused()": {
        "details": "Returns true if the contract is paused, and false otherwise."
      },
      "renounceRole(bytes32,address)": {
        "details": "Revokes `role` from the calling account. Roles are often managed via {grantRole} and {revokeRole}: this function's purpose is to provide a mechanism for accounts to lose their privileges if they are compromised (such as when a trusted device is misplaced). If the calling account had been revoked `role`, emits a {RoleRevoked} event. Requirements: - the caller must be `account`."
      },
      "revokeRole(bytes32,address)": {
        "details": "Revokes `role` from `account`. If `account` had been granted `role`, emits a {RoleRevoked} event. Requirements: - the caller must have ``role``'s admin role."
      },
      "safeTransferFrom(address,address,uint256)": {
        "details": "See {IERC721-safeTransferFrom}."
      },
      "safeTransferFrom(address,address,uint256,bytes)": {
        "details": "See {IERC721-safeTransferFrom}."
      },
      "setApprovalForAll(address,bool)": {
        "details": "See {IERC721-setApprovalForAll}."
      },
      "symbol()": {
        "details": "See {IERC721Metadata-symbol}."
      },
      "transferFrom(address,address,uint256)": {
        "details": "See {IERC721-transferFrom}."
      }
    },
    "version": 1
  },
  "userdoc": {
    "kind": "user",
    "methods": {},
    "version": 1
  }
}