{
  "contractName": "STRMMembership",
  "abi": [
    {
      "inputs": [
        {
          "internalType": "address",
          "name": "matchTicketsContractAddresss",
          "type": "address"
        }
      ],
      "stateMutability": "nonpayable",
      "type": "constructor"
    },
    {
      "anonymous": false,
      "inputs": [
        {
          "indexed": true,
          "internalType": "address",
          "name": "owner",
          "type": "address"
        },
        {
          "indexed": true,
          "internalType": "address",
          "name": "approved",
          "type": "address"
        },
        {
          "indexed": true,
          "internalType": "uint256",
          "name": "tokenId",
          "type": "uint256"
        }
      ],
      "name": "Approval",
      "type": "event"
    },
    {
      "anonymous": false,
      "inputs": [
        {
          "indexed": true,
          "internalType": "address",
          "name": "owner",
          "type": "address"
        },
        {
          "indexed": true,
          "internalType": "address",
          "name": "operator",
          "type": "address"
        },
        {
          "indexed": false,
          "internalType": "bool",
          "name": "approved",
          "type": "bool"
        }
      ],
      "name": "ApprovalForAll",
      "type": "event"
    },
    {
      "anonymous": false,
      "inputs": [
        {
          "indexed": true,
          "internalType": "address",
          "name": "sender",
          "type": "address"
        },
        {
          "indexed": true,
          "internalType": "address",
          "name": "clubAddress",
          "type": "address"
        }
      ],
      "name": "ClubAdminRoleGranted",
      "type": "event"
    },
    {
      "anonymous": false,
      "inputs": [
        {
          "indexed": true,
          "internalType": "address",
          "name": "sender",
          "type": "address"
        },
        {
          "indexed": true,
          "internalType": "address",
          "name": "clubAddress",
          "type": "address"
        }
      ],
      "name": "ClubAdminRoleRevoked",
      "type": "event"
    },
    {
      "anonymous": false,
      "inputs": [
        {
          "indexed": true,
          "internalType": "address",
          "name": "sender",
          "type": "address"
        },
        {
          "indexed": true,
          "internalType": "address",
          "name": "receiber",
          "type": "address"
        },
        {
          "indexed": true,
          "internalType": "uint256",
          "name": "tokenId",
          "type": "uint256"
        },
        {
          "indexed": false,
          "internalType": "string",
          "name": "errorMessage",
          "type": "string"
        }
      ],
      "name": "ErrorTransferToken",
      "type": "event"
    },
    {
      "anonymous": false,
      "inputs": [
        {
          "indexed": true,
          "internalType": "address",
          "name": "sender",
          "type": "address"
        },
        {
          "indexed": true,
          "internalType": "address",
          "name": "membershipAddress",
          "type": "address"
        }
      ],
      "name": "MembershipRoleGranted",
      "type": "event"
    },
    {
      "anonymous": false,
      "inputs": [
        {
          "indexed": true,
          "internalType": "address",
          "name": "sender",
          "type": "address"
        },
        {
          "indexed": true,
          "internalType": "address",
          "name": "membershipAddress",
          "type": "address"
        }
      ],
      "name": "MembershipRoleRevoked",
      "type": "event"
    },
    {
      "anonymous": false,
      "inputs": [
        {
          "indexed": true,
          "internalType": "address",
          "name": "membershipId",
          "type": "address"
        },
        {
          "indexed": true,
          "internalType": "uint256",
          "name": "tokenId",
          "type": "uint256"
        },
        {
          "indexed": false,
          "internalType": "string",
          "name": "tokenURI",
          "type": "string"
        }
      ],
      "name": "MembershipTokenMinted",
      "type": "event"
    },
    {
      "anonymous": false,
      "inputs": [
        {
          "indexed": false,
          "internalType": "address",
          "name": "account",
          "type": "address"
        }
      ],
      "name": "Paused",
      "type": "event"
    },
    {
      "anonymous": false,
      "inputs": [
        {
          "indexed": true,
          "internalType": "bytes32",
          "name": "role",
          "type": "bytes32"
        },
        {
          "indexed": true,
          "internalType": "bytes32",
          "name": "previousAdminRole",
          "type": "bytes32"
        },
        {
          "indexed": true,
          "internalType": "bytes32",
          "name": "newAdminRole",
          "type": "bytes32"
        }
      ],
      "name": "RoleAdminChanged",
      "type": "event"
    },
    {
      "anonymous": false,
      "inputs": [
        {
          "indexed": true,
          "internalType": "bytes32",
          "name": "role",
          "type": "bytes32"
        },
        {
          "indexed": true,
          "internalType": "address",
          "name": "account",
          "type": "address"
        },
        {
          "indexed": true,
          "internalType": "address",
          "name": "sender",
          "type": "address"
        }
      ],
      "name": "RoleGranted",
      "type": "event"
    },
    {
      "anonymous": false,
      "inputs": [
        {
          "indexed": true,
          "internalType": "bytes32",
          "name": "role",
          "type": "bytes32"
        },
        {
          "indexed": true,
          "internalType": "address",
          "name": "account",
          "type": "address"
        },
        {
          "indexed": true,
          "internalType": "address",
          "name": "sender",
          "type": "address"
        }
      ],
      "name": "RoleRevoked",
      "type": "event"
    },
    {
      "anonymous": false,
      "inputs": [
        {
          "indexed": true,
          "internalType": "address",
          "name": "from",
          "type": "address"
        },
        {
          "indexed": true,
          "internalType": "address",
          "name": "to",
          "type": "address"
        },
        {
          "indexed": true,
          "internalType": "uint256",
          "name": "tokenId",
          "type": "uint256"
        }
      ],
      "name": "Transfer",
      "type": "event"
    },
    {
      "anonymous": false,
      "inputs": [
        {
          "indexed": false,
          "internalType": "address",
          "name": "account",
          "type": "address"
        }
      ],
      "name": "Unpaused",
      "type": "event"
    },
    {
      "inputs": [],
      "name": "CLUB_ADMIN_ROLE",
      "outputs": [
        {
          "internalType": "bytes32",
          "name": "",
          "type": "bytes32"
        }
      ],
      "stateMutability": "view",
      "type": "function",
      "constant": true
    },
    {
      "inputs": [],
      "name": "DEFAULT_ADMIN_ROLE",
      "outputs": [
        {
          "internalType": "bytes32",
          "name": "",
          "type": "bytes32"
        }
      ],
      "stateMutability": "view",
      "type": "function",
      "constant": true
    },
    {
      "inputs": [],
      "name": "MEMBERSHIP_ROLE",
      "outputs": [
        {
          "internalType": "bytes32",
          "name": "",
          "type": "bytes32"
        }
      ],
      "stateMutability": "view",
      "type": "function",
      "constant": true
    },
    {
      "inputs": [
        {
          "internalType": "address",
          "name": "to",
          "type": "address"
        },
        {
          "internalType": "uint256",
          "name": "tokenId",
          "type": "uint256"
        }
      ],
      "name": "approve",
      "outputs": [],
      "stateMutability": "nonpayable",
      "type": "function"
    },
    {
      "inputs": [
        {
          "internalType": "address",
          "name": "owner",
          "type": "address"
        }
      ],
      "name": "balanceOf",
      "outputs": [
        {
          "internalType": "uint256",
          "name": "",
          "type": "uint256"
        }
      ],
      "stateMutability": "view",
      "type": "function",
      "constant": true
    },
    {
      "inputs": [
        {
          "internalType": "uint256",
          "name": "tokenId",
          "type": "uint256"
        }
      ],
      "name": "burn",
      "outputs": [],
      "stateMutability": "nonpayable",
      "type": "function"
    },
    {
      "inputs": [
        {
          "internalType": "address",
          "name": "",
          "type": "address"
        }
      ],
      "name": "clubAdmins",
      "outputs": [
        {
          "internalType": "bool",
          "name": "",
          "type": "bool"
        }
      ],
      "stateMutability": "view",
      "type": "function",
      "constant": true
    },
    {
      "inputs": [
        {
          "internalType": "uint256",
          "name": "tokenId",
          "type": "uint256"
        }
      ],
      "name": "getApproved",
      "outputs": [
        {
          "internalType": "address",
          "name": "",
          "type": "address"
        }
      ],
      "stateMutability": "view",
      "type": "function",
      "constant": true
    },
    {
      "inputs": [
        {
          "internalType": "bytes32",
          "name": "role",
          "type": "bytes32"
        }
      ],
      "name": "getRoleAdmin",
      "outputs": [
        {
          "internalType": "bytes32",
          "name": "",
          "type": "bytes32"
        }
      ],
      "stateMutability": "view",
      "type": "function",
      "constant": true
    },
    {
      "inputs": [
        {
          "internalType": "bytes32",
          "name": "role",
          "type": "bytes32"
        },
        {
          "internalType": "address",
          "name": "account",
          "type": "address"
        }
      ],
      "name": "grantRole",
      "outputs": [],
      "stateMutability": "nonpayable",
      "type": "function"
    },
    {
      "inputs": [
        {
          "internalType": "bytes32",
          "name": "role",
          "type": "bytes32"
        },
        {
          "internalType": "address",
          "name": "account",
          "type": "address"
        }
      ],
      "name": "hasRole",
      "outputs": [
        {
          "internalType": "bool",
          "name": "",
          "type": "bool"
        }
      ],
      "stateMutability": "view",
      "type": "function",
      "constant": true
    },
    {
      "inputs": [
        {
          "internalType": "address",
          "name": "owner",
          "type": "address"
        },
        {
          "internalType": "address",
          "name": "operator",
          "type": "address"
        }
      ],
      "name": "isApprovedForAll",
      "outputs": [
        {
          "internalType": "bool",
          "name": "",
          "type": "bool"
        }
      ],
      "stateMutability": "view",
      "type": "function",
      "constant": true
    },
    {
      "inputs": [
        {
          "internalType": "address",
          "name": "",
          "type": "address"
        }
      ],
      "name": "memberships",
      "outputs": [
        {
          "internalType": "bool",
          "name": "",
          "type": "bool"
        }
      ],
      "stateMutability": "view",
      "type": "function",
      "constant": true
    },
    {
      "inputs": [
        {
          "internalType": "address",
          "name": "",
          "type": "address"
        }
      ],
      "name": "membershipsTokenMinted",
      "outputs": [
        {
          "internalType": "bool",
          "name": "",
          "type": "bool"
        }
      ],
      "stateMutability": "view",
      "type": "function",
      "constant": true
    },
    {
      "inputs": [],
      "name": "name",
      "outputs": [
        {
          "internalType": "string",
          "name": "",
          "type": "string"
        }
      ],
      "stateMutability": "view",
      "type": "function",
      "constant": true
    },
    {
      "inputs": [
        {
          "internalType": "uint256",
          "name": "tokenId",
          "type": "uint256"
        }
      ],
      "name": "ownerOf",
      "outputs": [
        {
          "internalType": "address",
          "name": "",
          "type": "address"
        }
      ],
      "stateMutability": "view",
      "type": "function",
      "constant": true
    },
    {
      "inputs": [],
      "name": "paused",
      "outputs": [
        {
          "internalType": "bool",
          "name": "",
          "type": "bool"
        }
      ],
      "stateMutability": "view",
      "type": "function",
      "constant": true
    },
    {
      "inputs": [
        {
          "internalType": "bytes32",
          "name": "role",
          "type": "bytes32"
        },
        {
          "internalType": "address",
          "name": "account",
          "type": "address"
        }
      ],
      "name": "renounceRole",
      "outputs": [],
      "stateMutability": "nonpayable",
      "type": "function"
    },
    {
      "inputs": [
        {
          "internalType": "bytes32",
          "name": "role",
          "type": "bytes32"
        },
        {
          "internalType": "address",
          "name": "account",
          "type": "address"
        }
      ],
      "name": "revokeRole",
      "outputs": [],
      "stateMutability": "nonpayable",
      "type": "function"
    },
    {
      "inputs": [
        {
          "internalType": "address",
          "name": "from",
          "type": "address"
        },
        {
          "internalType": "address",
          "name": "to",
          "type": "address"
        },
        {
          "internalType": "uint256",
          "name": "tokenId",
          "type": "uint256"
        }
      ],
      "name": "safeTransferFrom",
      "outputs": [],
      "stateMutability": "nonpayable",
      "type": "function"
    },
    {
      "inputs": [
        {
          "internalType": "address",
          "name": "from",
          "type": "address"
        },
        {
          "internalType": "address",
          "name": "to",
          "type": "address"
        },
        {
          "internalType": "uint256",
          "name": "tokenId",
          "type": "uint256"
        },
        {
          "internalType": "bytes",
          "name": "_data",
          "type": "bytes"
        }
      ],
      "name": "safeTransferFrom",
      "outputs": [],
      "stateMutability": "nonpayable",
      "type": "function"
    },
    {
      "inputs": [
        {
          "internalType": "address",
          "name": "operator",
          "type": "address"
        },
        {
          "internalType": "bool",
          "name": "approved",
          "type": "bool"
        }
      ],
      "name": "setApprovalForAll",
      "outputs": [],
      "stateMutability": "nonpayable",
      "type": "function"
    },
    {
      "inputs": [],
      "name": "symbol",
      "outputs": [
        {
          "internalType": "string",
          "name": "",
          "type": "string"
        }
      ],
      "stateMutability": "view",
      "type": "function",
      "constant": true
    },
    {
      "inputs": [
        {
          "internalType": "uint256",
          "name": "index",
          "type": "uint256"
        }
      ],
      "name": "tokenByIndex",
      "outputs": [
        {
          "internalType": "uint256",
          "name": "",
          "type": "uint256"
        }
      ],
      "stateMutability": "view",
      "type": "function",
      "constant": true
    },
    {
      "inputs": [
        {
          "internalType": "address",
          "name": "owner",
          "type": "address"
        },
        {
          "internalType": "uint256",
          "name": "index",
          "type": "uint256"
        }
      ],
      "name": "tokenOfOwnerByIndex",
      "outputs": [
        {
          "internalType": "uint256",
          "name": "",
          "type": "uint256"
        }
      ],
      "stateMutability": "view",
      "type": "function",
      "constant": true
    },
    {
      "inputs": [],
      "name": "totalSupply",
      "outputs": [
        {
          "internalType": "uint256",
          "name": "",
          "type": "uint256"
        }
      ],
      "stateMutability": "view",
      "type": "function",
      "constant": true
    },
    {
      "inputs": [
        {
          "internalType": "address",
          "name": "from",
          "type": "address"
        },
        {
          "internalType": "address",
          "name": "to",
          "type": "address"
        },
        {
          "internalType": "uint256",
          "name": "tokenId",
          "type": "uint256"
        }
      ],
      "name": "transferFrom",
      "outputs": [],
      "stateMutability": "nonpayable",
      "type": "function"
    },
    {
      "inputs": [],
      "name": "pause",
      "outputs": [],
      "stateMutability": "nonpayable",
      "type": "function"
    },
    {
      "inputs": [],
      "name": "unpause",
      "outputs": [],
      "stateMutability": "nonpayable",
      "type": "function"
    },
    {
      "inputs": [
        {
          "internalType": "string",
          "name": "uri",
          "type": "string"
        }
      ],
      "name": "mintMembershipToken",
      "outputs": [],
      "stateMutability": "nonpayable",
      "type": "function"
    },
    {
      "inputs": [
        {
          "internalType": "uint256",
          "name": "tokenId",
          "type": "uint256"
        }
      ],
      "name": "tokenURI",
      "outputs": [
        {
          "internalType": "string",
          "name": "",
          "type": "string"
        }
      ],
      "stateMutability": "view",
      "type": "function",
      "constant": true
    },
    {
      "inputs": [
        {
          "internalType": "bytes4",
          "name": "interfaceId",
          "type": "bytes4"
        }
      ],
      "name": "supportsInterface",
      "outputs": [
        {
          "internalType": "bool",
          "name": "",
          "type": "bool"
        }
      ],
      "stateMutability": "view",
      "type": "function",
      "constant": true
    },
    {
      "inputs": [
        {
          "internalType": "address",
          "name": "account",
          "type": "address"
        }
      ],
      "name": "grantClubRol",
      "outputs": [],
      "stateMutability": "nonpayable",
      "type": "function"
    },
    {
      "inputs": [
        {
          "internalType": "address",
          "name": "account",
          "type": "address"
        }
      ],
      "name": "revokeClubRol",
      "outputs": [],
      "stateMutability": "nonpayable",
      "type": "function"
    },
    {
      "inputs": [
        {
          "internalType": "address",
          "name": "account",
          "type": "address"
        }
      ],
      "name": "hasClubRol",
      "outputs": [
        {
          "internalType": "bool",
          "name": "",
          "type": "bool"
        }
      ],
      "stateMutability": "view",
      "type": "function",
      "constant": true
    },
    {
      "inputs": [
        {
          "internalType": "address",
          "name": "account",
          "type": "address"
        }
      ],
      "name": "grantMembershipRol",
      "outputs": [],
      "stateMutability": "nonpayable",
      "type": "function"
    },
    {
      "inputs": [
        {
          "internalType": "address",
          "name": "account",
          "type": "address"
        }
      ],
      "name": "revokeMembershipRol",
      "outputs": [],
      "stateMutability": "nonpayable",
      "type": "function"
    },
    {
      "inputs": [
        {
          "internalType": "address",
          "name": "account",
          "type": "address"
        }
      ],
      "name": "hasMembershipRol",
      "outputs": [
        {
          "internalType": "bool",
          "name": "",
          "type": "bool"
        }
      ],
      "stateMutability": "view",
      "type": "function",
      "constant": true
    },
    {
      "inputs": [
        {
          "internalType": "address",
          "name": "account",
          "type": "address"
        }
      ],
      "name": "isMembershipTokenMinted",
      "outputs": [
        {
          "internalType": "bool",
          "name": "",
          "type": "bool"
        }
      ],
      "stateMutability": "view",
      "type": "function",
      "constant": true
    },
    {
      "inputs": [],
      "name": "membershipsNumber",
      "outputs": [
        {
          "internalType": "uint256",
          "name": "",
          "type": "uint256"
        }
      ],
      "stateMutability": "view",
      "type": "function",
      "constant": true
    }
  ],
  "bytecode": "0x60806040523480156200001157600080fd5b5060405162005a7238038062005a72833981810160405281019062000037919062000408565b60405180606001604052806023815260200162005a4f602391396040518060400160405280600481526020017f524d4f4d000000000000000000000000000000000000000000000000000000008152508160009081620000989190620006b4565b508060019081620000aa9190620006b4565b5050506000600b60006101000a81548160ff02191690831515021790555080600d60006101000a81548173ffffffffffffffffffffffffffffffffffffffff021916908373ffffffffffffffffffffffffffffffffffffffff1602179055506200011e6000801b336200023960201b60201c565b620001507ffea4c03f1677c8672a8e0564f7a4b9b68035dd9e6f8cfe58bc00e6e870e6a7cd336200023960201b60201c565b620001827f41a3fffbda0f1c9e28bd52ae72187b3406590146b6ca8f19961d2250566efd16336200023960201b60201c565b6001600e60003373ffffffffffffffffffffffffffffffffffffffff1673ffffffffffffffffffffffffffffffffffffffff16815260200190815260200160002060006101000a81548160ff0219169083151502179055506001600f60003373ffffffffffffffffffffffffffffffffffffffff1673ffffffffffffffffffffffffffffffffffffffff16815260200190815260200160002060006101000a81548160ff021916908315150217905550506200079b565b6200024b82826200032b60201b60201c565b62000327576001600c600084815260200190815260200160002060000160008373ffffffffffffffffffffffffffffffffffffffff1673ffffffffffffffffffffffffffffffffffffffff16815260200190815260200160002060006101000a81548160ff021916908315150217905550620002cc6200039660201b60201c565b73ffffffffffffffffffffffffffffffffffffffff168173ffffffffffffffffffffffffffffffffffffffff16837f2f8788117e7eff1d82e926ec794901d17c78024a50270940304540a733656f0d60405160405180910390a45b5050565b6000600c600084815260200190815260200160002060000160008373ffffffffffffffffffffffffffffffffffffffff1673ffffffffffffffffffffffffffffffffffffffff16815260200190815260200160002060009054906101000a900460ff16905092915050565b600033905090565b600080fd5b600073ffffffffffffffffffffffffffffffffffffffff82169050919050565b6000620003d082620003a3565b9050919050565b620003e281620003c3565b8114620003ee57600080fd5b50565b6000815190506200040281620003d7565b92915050565b6000602082840312156200042157620004206200039e565b5b60006200043184828501620003f1565b91505092915050565b600081519050919050565b7f4e487b7100000000000000000000000000000000000000000000000000000000600052604160045260246000fd5b7f4e487b7100000000000000000000000000000000000000000000000000000000600052602260045260246000fd5b60006002820490506001821680620004bc57607f821691505b602082108103620004d257620004d162000474565b5b50919050565b60008190508160005260206000209050919050565b60006020601f8301049050919050565b600082821b905092915050565b6000600883026200053c7fffffffffffffffffffffffffffffffffffffffffffffffffffffffffffffffff82620004fd565b620005488683620004fd565b95508019841693508086168417925050509392505050565b6000819050919050565b6000819050919050565b6000620005956200058f620005898462000560565b6200056a565b62000560565b9050919050565b6000819050919050565b620005b18362000574565b620005c9620005c0826200059c565b8484546200050a565b825550505050565b600090565b620005e0620005d1565b620005ed818484620005a6565b505050565b5b81811015620006155762000609600082620005d6565b600181019050620005f3565b5050565b601f82111562000664576200062e81620004d8565b6200063984620004ed565b8101602085101562000649578190505b620006616200065885620004ed565b830182620005f2565b50505b505050565b600082821c905092915050565b6000620006896000198460080262000669565b1980831691505092915050565b6000620006a4838362000676565b9150826002028217905092915050565b620006bf826200043a565b67ffffffffffffffff811115620006db57620006da62000445565b5b620006e78254620004a3565b620006f482828562000619565b600060209050601f8311600181146200072c576000841562000717578287015190505b62000723858262000696565b86555062000793565b601f1984166200073c86620004d8565b60005b8281101562000766578489015182556001820191506020850194506020810190506200073f565b8683101562000786578489015162000782601f89168262000676565b8355505b6001600288020188555050505b505050505050565b6152a480620007ab6000396000f3fe608060405234801561001057600080fd5b50600436106102485760003560e01c80635c975abb1161013b578063a217fddf116100b8578063c87b56dd1161007c578063c87b56dd14610723578063d547741f14610753578063df37bb191461076f578063e985e9c51461078d578063fe5a0666146107bd57610248565b8063a217fddf1461066d578063a22cb4651461068b578063af659106146106a7578063b88d4fde146106d7578063b95ec162146106f357610248565b806373d98799116100ff57806373d98799146105c95780638456cb59146105f957806385f678351461060357806391d148541461061f57806395d89b411461064f57610248565b80635c975abb14610513578063633b5510146105315780636352211e1461054d57806370a082311461057d57806373cb8853146105ad57610248565b80633022b466116101c957806342966c681161018d57806342966c681461044b5780634f6ccce714610467578063504761171461049757806358c6a735146104b35780635aa3454c146104e357610248565b80633022b466146103bb57806336568abe146103d95780633d44ba42146103f55780633f4ba83a1461042557806342842e0e1461042f57610248565b806318160ddd1161021057806318160ddd1461030557806323b872dd14610323578063248a9ca31461033f5780632f2ff15d1461036f5780632f745c591461038b57610248565b806301ffc9a71461024d57806306fdde031461027d578063081812fc1461029b578063095ea7b3146102cb5780631403c0d3146102e7575b600080fd5b6102676004803603810190610262919061372e565b6107d9565b6040516102749190613776565b60405180910390f35b6102856107eb565b604051610292919061382a565b60405180910390f35b6102b560048036038101906102b09190613882565b61087d565b6040516102c291906138f0565b60405180910390f35b6102e560048036038101906102e09190613937565b610902565b005b6102ef610a19565b6040516102fc9190613990565b60405180910390f35b61030d610a3d565b60405161031a91906139ba565b60405180910390f35b61033d600480360381019061033891906139d5565b610a4a565b005b61035960048036038101906103549190613a54565b610aaa565b6040516103669190613990565b60405180910390f35b61038960048036038101906103849190613a81565b610aca565b005b6103a560048036038101906103a09190613937565b610aeb565b6040516103b291906139ba565b60405180910390f35b6103c3610b90565b6040516103d091906139ba565b60405180910390f35b6103f360048036038101906103ee9190613a81565b610ba1565b005b61040f600480360381019061040a9190613ac1565b610c24565b60405161041c9190613776565b60405180910390f35b61042d610c7a565b005b610449600480360381019061044491906139d5565b610c92565b005b61046560048036038101906104609190613882565b610cb2565b005b610481600480360381019061047c9190613882565b610d0e565b60405161048e91906139ba565b60405180910390f35b6104b160048036038101906104ac9190613ac1565b610d7f565b005b6104cd60048036038101906104c89190613ac1565b610ef9565b6040516104da9190613776565b60405180910390f35b6104fd60048036038101906104f89190613ac1565b610f19565b60405161050a9190613776565b60405180910390f35b61051b610f6f565b6040516105289190613776565b60405180910390f35b61054b60048036038101906105469190613ac1565b610f86565b005b61056760048036038101906105629190613882565b611090565b60405161057491906138f0565b60405180910390f35b61059760048036038101906105929190613ac1565b611141565b6040516105a491906139ba565b60405180910390f35b6105c760048036038101906105c29190613c23565b6111f8565b005b6105e360048036038101906105de9190613ac1565b611414565b6040516105f09190613776565b60405180910390f35b610601611434565b005b61061d60048036038101906106189190613ac1565b61144c565b005b61063960048036038101906106349190613a81565b611556565b6040516106469190613776565b60405180910390f35b6106576115c1565b604051610664919061382a565b60405180910390f35b610675611653565b6040516106829190613990565b60405180910390f35b6106a560048036038101906106a09190613c98565b61165a565b005b6106c160048036038101906106bc9190613ac1565b611670565b6040516106ce9190613776565b60405180910390f35b6106f160048036038101906106ec9190613d79565b611690565b005b61070d60048036038101906107089190613ac1565b6116f2565b60405161071a9190613776565b60405180910390f35b61073d60048036038101906107389190613882565b611748565b60405161074a919061382a565b60405180910390f35b61076d60048036038101906107689190613a81565b61175a565b005b61077761177b565b6040516107849190613990565b60405180910390f35b6107a760048036038101906107a29190613dfc565b61179f565b6040516107b49190613776565b60405180910390f35b6107d760048036038101906107d29190613ac1565b611833565b005b60006107e482611920565b9050919050565b6060600080546107fa90613e6b565b80601f016020809104026020016040519081016040528092919081815260200182805461082690613e6b565b80156108735780601f1061084857610100808354040283529160200191610873565b820191906000526020600020905b81548152906001019060200180831161085657829003601f168201915b5050505050905090565b60006108888261199a565b6108c7576040517f08c379a00000000000000000000000000000000000000000000000000000000081526004016108be90613f0e565b60405180910390fd5b6004600083815260200190815260200160002060009054906101000a900473ffffffffffffffffffffffffffffffffffffffff169050919050565b600061090d82611090565b90508073ffffffffffffffffffffffffffffffffffffffff168373ffffffffffffffffffffffffffffffffffffffff160361097d576040517f08c379a000000000000000000000000000000000000000000000000000000000815260040161097490613fa0565b60405180910390fd5b8073ffffffffffffffffffffffffffffffffffffffff1661099c611a06565b73ffffffffffffffffffffffffffffffffffffffff1614806109cb57506109ca816109c5611a06565b61179f565b5b610a0a576040517f08c379a0000000000000000000000000000000000000000000000000000000008152600401610a0190614032565b60405180910390fd5b610a148383611a0e565b505050565b7ffea4c03f1677c8672a8e0564f7a4b9b68035dd9e6f8cfe58bc00e6e870e6a7cd81565b6000600880549050905090565b610a5b610a55611a06565b82611ac7565b610a9a576040517f08c379a0000000000000000000000000000000000000000000000000000000008152600401610a91906140c4565b60405180910390fd5b610aa5838383611ba5565b505050565b6000600c6000838152602001908152602001600020600101549050919050565b610ad382610aaa565b610adc81611e0b565b610ae68383611e1f565b505050565b6000610af683611141565b8210610b37576040517f08c379a0000000000000000000000000000000000000000000000000000000008152600401610b2e90614156565b60405180910390fd5b600660008473ffffffffffffffffffffffffffffffffffffffff1673ffffffffffffffffffffffffffffffffffffffff168152602001908152602001600020600083815260200190815260200160002054905092915050565b6000610b9c6011611f00565b905090565b610ba9611a06565b73ffffffffffffffffffffffffffffffffffffffff168173ffffffffffffffffffffffffffffffffffffffff1614610c16576040517f08c379a0000000000000000000000000000000000000000000000000000000008152600401610c0d906141e8565b60405180910390fd5b610c208282611f0e565b5050565b6000601060008373ffffffffffffffffffffffffffffffffffffffff1673ffffffffffffffffffffffffffffffffffffffff16815260200190815260200160002060009054906101000a900460ff169050919050565b6000801b610c8781611e0b565b610c8f611ff0565b50565b610cad83838360405180602001604052806000815250611690565b505050565b610cc3610cbd611a06565b82611ac7565b610d02576040517f08c379a0000000000000000000000000000000000000000000000000000000008152600401610cf99061427a565b60405180910390fd5b610d0b81612092565b50565b6000610d18610a3d565b8210610d59576040517f08c379a0000000000000000000000000000000000000000000000000000000008152600401610d509061430c565b60405180910390fd5b60088281548110610d6d57610d6c61432c565b5b90600052602060002001549050919050565b6000801b610d8c81611e0b565b610db67ffea4c03f1677c8672a8e0564f7a4b9b68035dd9e6f8cfe58bc00e6e870e6a7cd83611e1f565b6001600e60008473ffffffffffffffffffffffffffffffffffffffff1673ffffffffffffffffffffffffffffffffffffffff16815260200190815260200160002060006101000a81548160ff021916908315150217905550600d60009054906101000a900473ffffffffffffffffffffffffffffffffffffffff1673ffffffffffffffffffffffffffffffffffffffff166350476117836040518263ffffffff1660e01b8152600401610e6991906138f0565b600060405180830381600087803b158015610e8357600080fd5b505af1158015610e97573d6000803e3d6000fd5b505050508173ffffffffffffffffffffffffffffffffffffffff163373ffffffffffffffffffffffffffffffffffffffff167ff25ae518afe49b3c8f1a0f93c0adc26c177ff270839cfdc2f23250dea3a025bc60405160405180910390a35050565b60106020528060005260406000206000915054906101000a900460ff1681565b6000600e60008373ffffffffffffffffffffffffffffffffffffffff1673ffffffffffffffffffffffffffffffffffffffff16815260200190815260200160002060009054906101000a900460ff169050919050565b6000600b60009054906101000a900460ff16905090565b7ffea4c03f1677c8672a8e0564f7a4b9b68035dd9e6f8cfe58bc00e6e870e6a7cd610fb081611e0b565b610fda7f41a3fffbda0f1c9e28bd52ae72187b3406590146b6ca8f19961d2250566efd1683611e1f565b6001600f60008473ffffffffffffffffffffffffffffffffffffffff1673ffffffffffffffffffffffffffffffffffffffff16815260200190815260200160002060006101000a81548160ff0219169083151502179055508173ffffffffffffffffffffffffffffffffffffffff163373ffffffffffffffffffffffffffffffffffffffff167fc7456bf1910aabbd12578687132912d6f0958549e986fb05eaf79068cad923de60405160405180910390a35050565b6000806002600084815260200190815260200160002060009054906101000a900473ffffffffffffffffffffffffffffffffffffffff169050600073ffffffffffffffffffffffffffffffffffffffff168173ffffffffffffffffffffffffffffffffffffffff1603611138576040517f08c379a000000000000000000000000000000000000000000000000000000000815260040161112f906143cd565b60405180910390fd5b80915050919050565b60008073ffffffffffffffffffffffffffffffffffffffff168273ffffffffffffffffffffffffffffffffffffffff16036111b1576040517f08c379a00000000000000000000000000000000000000000000000000000000081526004016111a89061445f565b60405180910390fd5b600360008373ffffffffffffffffffffffffffffffffffffffff1673ffffffffffffffffffffffffffffffffffffffff168152602001908152602001600020549050919050565b7f41a3fffbda0f1c9e28bd52ae72187b3406590146b6ca8f19961d2250566efd1661122281611e0b565b601060003373ffffffffffffffffffffffffffffffffffffffff1673ffffffffffffffffffffffffffffffffffffffff16815260200190815260200160002060009054906101000a900460ff16156112af576040517f08c379a00000000000000000000000000000000000000000000000000000000081526004016112a6906144f1565b60405180910390fd5b60006112bb6011611f00565b90506112c76011612183565b6112d13382612199565b6112db81846121b7565b6001601060003373ffffffffffffffffffffffffffffffffffffffff1673ffffffffffffffffffffffffffffffffffffffff16815260200190815260200160002060006101000a81548160ff021916908315150217905550600d60009054906101000a900473ffffffffffffffffffffffffffffffffffffffff1673ffffffffffffffffffffffffffffffffffffffff166338eada1c336040518263ffffffff1660e01b815260040161138e91906138f0565b600060405180830381600087803b1580156113a857600080fd5b505af11580156113bc573d6000803e3d6000fd5b50505050803373ffffffffffffffffffffffffffffffffffffffff167f0617e94baa9e0b89d081773a213f117b9375c6c516ca5fcc917a5edd7d621f1f85604051611407919061382a565b60405180910390a3505050565b600f6020528060005260406000206000915054906101000a900460ff1681565b6000801b61144181611e0b565b611449612224565b50565b7ffea4c03f1677c8672a8e0564f7a4b9b68035dd9e6f8cfe58bc00e6e870e6a7cd61147681611e0b565b6114a07f41a3fffbda0f1c9e28bd52ae72187b3406590146b6ca8f19961d2250566efd1683611f0e565b6000600f60008473ffffffffffffffffffffffffffffffffffffffff1673ffffffffffffffffffffffffffffffffffffffff16815260200190815260200160002060006101000a81548160ff0219169083151502179055508173ffffffffffffffffffffffffffffffffffffffff163373ffffffffffffffffffffffffffffffffffffffff167f4cee40a6bfc7aee0013cf7d930a3fc8bacbe218568f9594a0f10795095e7eb2860405160405180910390a35050565b6000600c600084815260200190815260200160002060000160008373ffffffffffffffffffffffffffffffffffffffff1673ffffffffffffffffffffffffffffffffffffffff16815260200190815260200160002060009054906101000a900460ff16905092915050565b6060600180546115d090613e6b565b80601f01602080910402602001604051908101604052809291908181526020018280546115fc90613e6b565b80156116495780601f1061161e57610100808354040283529160200191611649565b820191906000526020600020905b81548152906001019060200180831161162c57829003601f168201915b5050505050905090565b6000801b81565b61166c611665611a06565b83836122c7565b5050565b600e6020528060005260406000206000915054906101000a900460ff1681565b6116a161169b611a06565b83611ac7565b6116e0576040517f08c379a00000000000000000000000000000000000000000000000000000000081526004016116d7906140c4565b60405180910390fd5b6116ec84848484612433565b50505050565b6000600f60008373ffffffffffffffffffffffffffffffffffffffff1673ffffffffffffffffffffffffffffffffffffffff16815260200190815260200160002060009054906101000a900460ff169050919050565b60606117538261248f565b9050919050565b61176382610aaa565b61176c81611e0b565b6117768383611f0e565b505050565b7f41a3fffbda0f1c9e28bd52ae72187b3406590146b6ca8f19961d2250566efd1681565b6000600560008473ffffffffffffffffffffffffffffffffffffffff1673ffffffffffffffffffffffffffffffffffffffff16815260200190815260200160002060008373ffffffffffffffffffffffffffffffffffffffff1673ffffffffffffffffffffffffffffffffffffffff16815260200190815260200160002060009054906101000a900460ff16905092915050565b6000801b61184081611e0b565b61186a7ffea4c03f1677c8672a8e0564f7a4b9b68035dd9e6f8cfe58bc00e6e870e6a7cd83611f0e565b6000600e60008473ffffffffffffffffffffffffffffffffffffffff1673ffffffffffffffffffffffffffffffffffffffff16815260200190815260200160002060006101000a81548160ff0219169083151502179055508173ffffffffffffffffffffffffffffffffffffffff163373ffffffffffffffffffffffffffffffffffffffff167feca259f65afeb664520e27bcf53a29a7a276df0172960fd342f01ff705ba3b9560405160405180910390a35050565b60007f7965db0b000000000000000000000000000000000000000000000000000000007bffffffffffffffffffffffffffffffffffffffffffffffffffffffff1916827bffffffffffffffffffffffffffffffffffffffffffffffffffffffff191614806119935750611992826125e0565b5b9050919050565b60008073ffffffffffffffffffffffffffffffffffffffff166002600084815260200190815260200160002060009054906101000a900473ffffffffffffffffffffffffffffffffffffffff1673ffffffffffffffffffffffffffffffffffffffff1614159050919050565b600033905090565b816004600083815260200190815260200160002060006101000a81548173ffffffffffffffffffffffffffffffffffffffff021916908373ffffffffffffffffffffffffffffffffffffffff160217905550808273ffffffffffffffffffffffffffffffffffffffff16611a8183611090565b73ffffffffffffffffffffffffffffffffffffffff167f8c5be1e5ebec7d5bd14f71427d1e84f3dd0314c0f7b2291e5b200ac8c7c3b92560405160405180910390a45050565b6000611ad28261199a565b611b11576040517f08c379a0000000000000000000000000000000000000000000000000000000008152600401611b0890614583565b60405180910390fd5b6000611b1c83611090565b90508073ffffffffffffffffffffffffffffffffffffffff168473ffffffffffffffffffffffffffffffffffffffff161480611b5e5750611b5d818561179f565b5b80611b9c57508373ffffffffffffffffffffffffffffffffffffffff16611b848461087d565b73ffffffffffffffffffffffffffffffffffffffff16145b91505092915050565b8273ffffffffffffffffffffffffffffffffffffffff16611bc582611090565b73ffffffffffffffffffffffffffffffffffffffff1614611c1b576040517f08c379a0000000000000000000000000000000000000000000000000000000008152600401611c1290614615565b60405180910390fd5b600073ffffffffffffffffffffffffffffffffffffffff168273ffffffffffffffffffffffffffffffffffffffff1603611c8a576040517f08c379a0000000000000000000000000000000000000000000000000000000008152600401611c81906146a7565b60405180910390fd5b611c9583838361265a565b611ca0600082611a0e565b6001600360008573ffffffffffffffffffffffffffffffffffffffff1673ffffffffffffffffffffffffffffffffffffffff1681526020019081526020016000206000828254611cf091906146f6565b925050819055506001600360008473ffffffffffffffffffffffffffffffffffffffff1673ffffffffffffffffffffffffffffffffffffffff1681526020019081526020016000206000828254611d47919061472a565b92505081905550816002600083815260200190815260200160002060006101000a81548173ffffffffffffffffffffffffffffffffffffffff021916908373ffffffffffffffffffffffffffffffffffffffff160217905550808273ffffffffffffffffffffffffffffffffffffffff168473ffffffffffffffffffffffffffffffffffffffff167fddf252ad1be2c89b69c2b068fc378daa952ba7f163c4a11628f55a4df523b3ef60405160405180910390a4611e068383836126b2565b505050565b611e1c81611e17611a06565b6126b7565b50565b611e298282611556565b611efc576001600c600084815260200190815260200160002060000160008373ffffffffffffffffffffffffffffffffffffffff1673ffffffffffffffffffffffffffffffffffffffff16815260200190815260200160002060006101000a81548160ff021916908315150217905550611ea1611a06565b73ffffffffffffffffffffffffffffffffffffffff168173ffffffffffffffffffffffffffffffffffffffff16837f2f8788117e7eff1d82e926ec794901d17c78024a50270940304540a733656f0d60405160405180910390a45b5050565b600081600001549050919050565b611f188282611556565b15611fec576000600c600084815260200190815260200160002060000160008373ffffffffffffffffffffffffffffffffffffffff1673ffffffffffffffffffffffffffffffffffffffff16815260200190815260200160002060006101000a81548160ff021916908315150217905550611f91611a06565b73ffffffffffffffffffffffffffffffffffffffff168173ffffffffffffffffffffffffffffffffffffffff16837ff6391f5c32d9c69d2a47ea670b442974b53935d1edc7fd64eb21e047a839171b60405160405180910390a45b5050565b611ff8610f6f565b612037576040517f08c379a000000000000000000000000000000000000000000000000000000000815260040161202e906147cc565b60405180910390fd5b6000600b60006101000a81548160ff0219169083151502179055507f5db9ee0a495bf2e6ff9c91a7834c1ba4fdd244a5e8aa4e537bd38aeae4b073aa61207b611a06565b60405161208891906138f0565b60405180910390a1565b6000601060003373ffffffffffffffffffffffffffffffffffffffff1673ffffffffffffffffffffffffffffffffffffffff16815260200190815260200160002060006101000a81548160ff021916908315150217905550600d60009054906101000a900473ffffffffffffffffffffffffffffffffffffffff1673ffffffffffffffffffffffffffffffffffffffff16634ba79dfe336040518263ffffffff1660e01b815260040161214591906138f0565b600060405180830381600087803b15801561215f57600080fd5b505af1158015612173573d6000803e3d6000fd5b5050505061218081612754565b50565b6001816000016000828254019250508190555050565b6121b38282604051806020016040528060008152506127a7565b5050565b6121c08261199a565b6121ff576040517f08c379a00000000000000000000000000000000000000000000000000000000081526004016121f69061485e565b60405180910390fd5b80600a6000848152602001908152602001600020908161221f9190614a2a565b505050565b61222c610f6f565b1561226c576040517f08c379a000000000000000000000000000000000000000000000000000000000815260040161226390614b48565b60405180910390fd5b6001600b60006101000a81548160ff0219169083151502179055507f62e78cea01bee320cd4e420270b5ea74000d11b0c9f74754ebdbfc544b05a2586122b0611a06565b6040516122bd91906138f0565b60405180910390a1565b8173ffffffffffffffffffffffffffffffffffffffff168373ffffffffffffffffffffffffffffffffffffffff1603612335576040517f08c379a000000000000000000000000000000000000000000000000000000000815260040161232c90614bb4565b60405180910390fd5b80600560008573ffffffffffffffffffffffffffffffffffffffff1673ffffffffffffffffffffffffffffffffffffffff16815260200190815260200160002060008473ffffffffffffffffffffffffffffffffffffffff1673ffffffffffffffffffffffffffffffffffffffff16815260200190815260200160002060006101000a81548160ff0219169083151502179055508173ffffffffffffffffffffffffffffffffffffffff168373ffffffffffffffffffffffffffffffffffffffff167f17307eab39ab6107e8899845ad3d59bd9653f200f220920489ca2b5937696c31836040516124269190613776565b60405180910390a3505050565b61243e848484611ba5565b61244a84848484612802565b612489576040517f08c379a000000000000000000000000000000000000000000000000000000000815260040161248090614c46565b60405180910390fd5b50505050565b606061249a8261199a565b6124d9576040517f08c379a00000000000000000000000000000000000000000000000000000000081526004016124d090614cd8565b60405180910390fd5b6000600a600084815260200190815260200160002080546124f990613e6b565b80601f016020809104026020016040519081016040528092919081815260200182805461252590613e6b565b80156125725780601f1061254757610100808354040283529160200191612572565b820191906000526020600020905b81548152906001019060200180831161255557829003601f168201915b505050505090506000612583612989565b905060008151036125985781925050506125db565b6000825111156125cd5780826040516020016125b5929190614d34565b604051602081830303815290604052925050506125db565b6125d6846129a0565b925050505b919050565b60007f780e9d63000000000000000000000000000000000000000000000000000000007bffffffffffffffffffffffffffffffffffffffffffffffffffffffff1916827bffffffffffffffffffffffffffffffffffffffffffffffffffffffff19161480612653575061265282612a47565b5b9050919050565b612662610f6f565b156126a2576040517f08c379a000000000000000000000000000000000000000000000000000000000815260040161269990614b48565b60405180910390fd5b6126ad838383612b29565b505050565b505050565b6126c18282611556565b612750576126e68173ffffffffffffffffffffffffffffffffffffffff166014612c3b565b6126f48360001c6020612c3b565b604051602001612705929190614df0565b6040516020818303038152906040526040517f08c379a0000000000000000000000000000000000000000000000000000000008152600401612747919061382a565b60405180910390fd5b5050565b61275d81612e77565b6000600a6000838152602001908152602001600020805461277d90613e6b565b9050146127a457600a600082815260200190815260200160002060006127a39190613665565b5b50565b6127b18383612f94565b6127be6000848484612802565b6127fd576040517f08c379a00000000000000000000000000000000000000000000000000000000081526004016127f490614c46565b60405180910390fd5b505050565b60006128238473ffffffffffffffffffffffffffffffffffffffff1661316d565b1561297c578373ffffffffffffffffffffffffffffffffffffffff1663150b7a0261284c611a06565b8786866040518563ffffffff1660e01b815260040161286e9493929190614e7f565b6020604051808303816000875af19250505080156128aa57506040513d601f19601f820116820180604052508101906128a79190614ee0565b60015b61292c573d80600081146128da576040519150601f19603f3d011682016040523d82523d6000602084013e6128df565b606091505b506000815103612924576040517f08c379a000000000000000000000000000000000000000000000000000000000815260040161291b90614c46565b60405180910390fd5b805181602001fd5b63150b7a0260e01b7bffffffffffffffffffffffffffffffffffffffffffffffffffffffff1916817bffffffffffffffffffffffffffffffffffffffffffffffffffffffff191614915050612981565b600190505b949350505050565b606060405180602001604052806000815250905090565b60606129ab8261199a565b6129ea576040517f08c379a00000000000000000000000000000000000000000000000000000000081526004016129e190614f7f565b60405180910390fd5b60006129f4612989565b90506000815111612a145760405180602001604052806000815250612a3f565b80612a1e84613190565b604051602001612a2f929190614d34565b6040516020818303038152906040525b915050919050565b60007f80ac58cd000000000000000000000000000000000000000000000000000000007bffffffffffffffffffffffffffffffffffffffffffffffffffffffff1916827bffffffffffffffffffffffffffffffffffffffffffffffffffffffff19161480612b1257507f5b5e139f000000000000000000000000000000000000000000000000000000007bffffffffffffffffffffffffffffffffffffffffffffffffffffffff1916827bffffffffffffffffffffffffffffffffffffffffffffffffffffffff1916145b80612b225750612b21826132f0565b5b9050919050565b612b3483838361335a565b600073ffffffffffffffffffffffffffffffffffffffff168373ffffffffffffffffffffffffffffffffffffffff1603612b7657612b718161335f565b612bb5565b8173ffffffffffffffffffffffffffffffffffffffff168373ffffffffffffffffffffffffffffffffffffffff1614612bb457612bb383826133a8565b5b5b600073ffffffffffffffffffffffffffffffffffffffff168273ffffffffffffffffffffffffffffffffffffffff1603612bf757612bf281613515565b612c36565b8273ffffffffffffffffffffffffffffffffffffffff168273ffffffffffffffffffffffffffffffffffffffff1614612c3557612c3482826135e6565b5b5b505050565b606060006002836002612c4e9190614f9f565b612c58919061472a565b67ffffffffffffffff811115612c7157612c70613af8565b5b6040519080825280601f01601f191660200182016040528015612ca35781602001600182028036833780820191505090505b5090507f300000000000000000000000000000000000000000000000000000000000000081600081518110612cdb57612cda61432c565b5b60200101907effffffffffffffffffffffffffffffffffffffffffffffffffffffffffffff1916908160001a9053507f780000000000000000000000000000000000000000000000000000000000000081600181518110612d3f57612d3e61432c565b5b60200101907effffffffffffffffffffffffffffffffffffffffffffffffffffffffffffff1916908160001a90535060006001846002612d7f9190614f9f565b612d89919061472a565b90505b6001811115612e29577f3031323334353637383961626364656600000000000000000000000000000000600f861660108110612dcb57612dca61432c565b5b1a60f81b828281518110612de257612de161432c565b5b60200101907effffffffffffffffffffffffffffffffffffffffffffffffffffffffffffff1916908160001a905350600485901c945080612e2290614ff9565b9050612d8c565b5060008414612e6d576040517f08c379a0000000000000000000000000000000000000000000000000000000008152600401612e649061506e565b60405180910390fd5b8091505092915050565b6000612e8282611090565b9050612e908160008461265a565b612e9b600083611a0e565b6001600360008373ffffffffffffffffffffffffffffffffffffffff1673ffffffffffffffffffffffffffffffffffffffff1681526020019081526020016000206000828254612eeb91906146f6565b925050819055506002600083815260200190815260200160002060006101000a81549073ffffffffffffffffffffffffffffffffffffffff021916905581600073ffffffffffffffffffffffffffffffffffffffff168273ffffffffffffffffffffffffffffffffffffffff167fddf252ad1be2c89b69c2b068fc378daa952ba7f163c4a11628f55a4df523b3ef60405160405180910390a4612f90816000846126b2565b5050565b600073ffffffffffffffffffffffffffffffffffffffff168273ffffffffffffffffffffffffffffffffffffffff1603613003576040517f08c379a0000000000000000000000000000000000000000000000000000000008152600401612ffa906150da565b60405180910390fd5b61300c8161199a565b1561304c576040517f08c379a000000000000000000000000000000000000000000000000000000000815260040161304390615146565b60405180910390fd5b6130586000838361265a565b6001600360008473ffffffffffffffffffffffffffffffffffffffff1673ffffffffffffffffffffffffffffffffffffffff16815260200190815260200160002060008282546130a8919061472a565b92505081905550816002600083815260200190815260200160002060006101000a81548173ffffffffffffffffffffffffffffffffffffffff021916908373ffffffffffffffffffffffffffffffffffffffff160217905550808273ffffffffffffffffffffffffffffffffffffffff16600073ffffffffffffffffffffffffffffffffffffffff167fddf252ad1be2c89b69c2b068fc378daa952ba7f163c4a11628f55a4df523b3ef60405160405180910390a4613169600083836126b2565b5050565b6000808273ffffffffffffffffffffffffffffffffffffffff163b119050919050565b6060600082036131d7576040518060400160405280600181526020017f300000000000000000000000000000000000000000000000000000000000000081525090506132eb565b600082905060005b600082146132095780806131f290615166565b915050600a8261320291906151dd565b91506131df565b60008167ffffffffffffffff81111561322557613224613af8565b5b6040519080825280601f01601f1916602001820160405280156132575781602001600182028036833780820191505090505b5090505b600085146132e45760018261327091906146f6565b9150600a8561327f919061520e565b603061328b919061472a565b60f81b8183815181106132a1576132a061432c565b5b60200101907effffffffffffffffffffffffffffffffffffffffffffffffffffffffffffff1916908160001a905350600a856132dd91906151dd565b945061325b565b8093505050505b919050565b60007f01ffc9a7000000000000000000000000000000000000000000000000000000007bffffffffffffffffffffffffffffffffffffffffffffffffffffffff1916827bffffffffffffffffffffffffffffffffffffffffffffffffffffffff1916149050919050565b505050565b6008805490506009600083815260200190815260200160002081905550600881908060018154018082558091505060019003906000526020600020016000909190919091505550565b600060016133b584611141565b6133bf91906146f6565b90506000600760008481526020019081526020016000205490508181146134a4576000600660008673ffffffffffffffffffffffffffffffffffffffff1673ffffffffffffffffffffffffffffffffffffffff168152602001908152602001600020600084815260200190815260200160002054905080600660008773ffffffffffffffffffffffffffffffffffffffff1673ffffffffffffffffffffffffffffffffffffffff168152602001908152602001600020600084815260200190815260200160002081905550816007600083815260200190815260200160002081905550505b6007600084815260200190815260200160002060009055600660008573ffffffffffffffffffffffffffffffffffffffff1673ffffffffffffffffffffffffffffffffffffffff16815260200190815260200160002060008381526020019081526020016000206000905550505050565b6000600160088054905061352991906146f6565b90506000600960008481526020019081526020016000205490506000600883815481106135595761355861432c565b5b90600052602060002001549050806008838154811061357b5761357a61432c565b5b9060005260206000200181905550816009600083815260200190815260200160002081905550600960008581526020019081526020016000206000905560088054806135ca576135c961523f565b5b6001900381819060005260206000200160009055905550505050565b60006135f183611141565b905081600660008573ffffffffffffffffffffffffffffffffffffffff1673ffffffffffffffffffffffffffffffffffffffff168152602001908152602001600020600083815260200190815260200160002081905550806007600084815260200190815260200160002081905550505050565b50805461367190613e6b565b6000825580601f1061368357506136a2565b601f0160209004906000526020600020908101906136a191906136a5565b5b50565b5b808211156136be5760008160009055506001016136a6565b5090565b6000604051905090565b600080fd5b600080fd5b60007fffffffff0000000000000000000000000000000000000000000000000000000082169050919050565b61370b816136d6565b811461371657600080fd5b50565b60008135905061372881613702565b92915050565b600060208284031215613744576137436136cc565b5b600061375284828501613719565b91505092915050565b60008115159050919050565b6137708161375b565b82525050565b600060208201905061378b6000830184613767565b92915050565b600081519050919050565b600082825260208201905092915050565b60005b838110156137cb5780820151818401526020810190506137b0565b838111156137da576000848401525b50505050565b6000601f19601f8301169050919050565b60006137fc82613791565b613806818561379c565b93506138168185602086016137ad565b61381f816137e0565b840191505092915050565b6000602082019050818103600083015261384481846137f1565b905092915050565b6000819050919050565b61385f8161384c565b811461386a57600080fd5b50565b60008135905061387c81613856565b92915050565b600060208284031215613898576138976136cc565b5b60006138a68482850161386d565b91505092915050565b600073ffffffffffffffffffffffffffffffffffffffff82169050919050565b60006138da826138af565b9050919050565b6138ea816138cf565b82525050565b600060208201905061390560008301846138e1565b92915050565b613914816138cf565b811461391f57600080fd5b50565b6000813590506139318161390b565b92915050565b6000806040838503121561394e5761394d6136cc565b5b600061395c85828601613922565b925050602061396d8582860161386d565b9150509250929050565b6000819050919050565b61398a81613977565b82525050565b60006020820190506139a56000830184613981565b92915050565b6139b48161384c565b82525050565b60006020820190506139cf60008301846139ab565b92915050565b6000806000606084860312156139ee576139ed6136cc565b5b60006139fc86828701613922565b9350506020613a0d86828701613922565b9250506040613a1e8682870161386d565b9150509250925092565b613a3181613977565b8114613a3c57600080fd5b50565b600081359050613a4e81613a28565b92915050565b600060208284031215613a6a57613a696136cc565b5b6000613a7884828501613a3f565b91505092915050565b60008060408385031215613a9857613a976136cc565b5b6000613aa685828601613a3f565b9250506020613ab785828601613922565b9150509250929050565b600060208284031215613ad757613ad66136cc565b5b6000613ae584828501613922565b91505092915050565b600080fd5b600080fd5b7f4e487b7100000000000000000000000000000000000000000000000000000000600052604160045260246000fd5b613b30826137e0565b810181811067ffffffffffffffff82111715613b4f57613b4e613af8565b5b80604052505050565b6000613b626136c2565b9050613b6e8282613b27565b919050565b600067ffffffffffffffff821115613b8e57613b8d613af8565b5b613b97826137e0565b9050602081019050919050565b82818337600083830152505050565b6000613bc6613bc184613b73565b613b58565b905082815260208101848484011115613be257613be1613af3565b5b613bed848285613ba4565b509392505050565b600082601f830112613c0a57613c09613aee565b5b8135613c1a848260208601613bb3565b91505092915050565b600060208284031215613c3957613c386136cc565b5b600082013567ffffffffffffffff811115613c5757613c566136d1565b5b613c6384828501613bf5565b91505092915050565b613c758161375b565b8114613c8057600080fd5b50565b600081359050613c9281613c6c565b92915050565b60008060408385031215613caf57613cae6136cc565b5b6000613cbd85828601613922565b9250506020613cce85828601613c83565b9150509250929050565b600067ffffffffffffffff821115613cf357613cf2613af8565b5b613cfc826137e0565b9050602081019050919050565b6000613d1c613d1784613cd8565b613b58565b905082815260208101848484011115613d3857613d37613af3565b5b613d43848285613ba4565b509392505050565b600082601f830112613d6057613d5f613aee565b5b8135613d70848260208601613d09565b91505092915050565b60008060008060808587031215613d9357613d926136cc565b5b6000613da187828801613922565b9450506020613db287828801613922565b9350506040613dc38782880161386d565b925050606085013567ffffffffffffffff811115613de457613de36136d1565b5b613df087828801613d4b565b91505092959194509250565b60008060408385031215613e1357613e126136cc565b5b6000613e2185828601613922565b9250506020613e3285828601613922565b9150509250929050565b7f4e487b7100000000000000000000000000000000000000000000000000000000600052602260045260246000fd5b60006002820490506001821680613e8357607f821691505b602082108103613e9657613e95613e3c565b5b50919050565b7f4552433732313a20617070726f76656420717565727920666f72206e6f6e657860008201527f697374656e7420746f6b656e0000000000000000000000000000000000000000602082015250565b6000613ef8602c8361379c565b9150613f0382613e9c565b604082019050919050565b60006020820190508181036000830152613f2781613eeb565b9050919050565b7f4552433732313a20617070726f76616c20746f2063757272656e74206f776e6560008201527f7200000000000000000000000000000000000000000000000000000000000000602082015250565b6000613f8a60218361379c565b9150613f9582613f2e565b604082019050919050565b60006020820190508181036000830152613fb981613f7d565b9050919050565b7f4552433732313a20617070726f76652063616c6c6572206973206e6f74206f7760008201527f6e6572206e6f7220617070726f76656420666f7220616c6c0000000000000000602082015250565b600061401c60388361379c565b915061402782613fc0565b604082019050919050565b6000602082019050818103600083015261404b8161400f565b9050919050565b7f4552433732313a207472616e736665722063616c6c6572206973206e6f74206f60008201527f776e6572206e6f7220617070726f766564000000000000000000000000000000602082015250565b60006140ae60318361379c565b91506140b982614052565b604082019050919050565b600060208201905081810360008301526140dd816140a1565b9050919050565b7f455243373231456e756d657261626c653a206f776e657220696e646578206f7560008201527f74206f6620626f756e6473000000000000000000000000000000000000000000602082015250565b6000614140602b8361379c565b915061414b826140e4565b604082019050919050565b6000602082019050818103600083015261416f81614133565b9050919050565b7f416363657373436f6e74726f6c3a2063616e206f6e6c792072656e6f756e636560008201527f20726f6c657320666f722073656c660000000000000000000000000000000000602082015250565b60006141d2602f8361379c565b91506141dd82614176565b604082019050919050565b60006020820190508181036000830152614201816141c5565b9050919050565b7f4552433732314275726e61626c653a2063616c6c6572206973206e6f74206f7760008201527f6e6572206e6f7220617070726f76656400000000000000000000000000000000602082015250565b600061426460308361379c565b915061426f82614208565b604082019050919050565b6000602082019050818103600083015261429381614257565b9050919050565b7f455243373231456e756d657261626c653a20676c6f62616c20696e646578206f60008201527f7574206f6620626f756e64730000000000000000000000000000000000000000602082015250565b60006142f6602c8361379c565b91506143018261429a565b604082019050919050565b60006020820190508181036000830152614325816142e9565b9050919050565b7f4e487b7100000000000000000000000000000000000000000000000000000000600052603260045260246000fd5b7f4552433732313a206f776e657220717565727920666f72206e6f6e657869737460008201527f656e7420746f6b656e0000000000000000000000000000000000000000000000602082015250565b60006143b760298361379c565b91506143c28261435b565b604082019050919050565b600060208201905081810360008301526143e6816143aa565b9050919050565b7f4552433732313a2062616c616e636520717565727920666f7220746865207a6560008201527f726f206164647265737300000000000000000000000000000000000000000000602082015250565b6000614449602a8361379c565b9150614454826143ed565b604082019050919050565b600060208201905081810360008301526144788161443c565b9050919050565b7f596f7520616c726561647920686176652061206d656d6265727368697020746f60008201527f6b656e206d696e74656400000000000000000000000000000000000000000000602082015250565b60006144db602a8361379c565b91506144e68261447f565b604082019050919050565b6000602082019050818103600083015261450a816144ce565b9050919050565b7f4552433732313a206f70657261746f7220717565727920666f72206e6f6e657860008201527f697374656e7420746f6b656e0000000000000000000000000000000000000000602082015250565b600061456d602c8361379c565b915061457882614511565b604082019050919050565b6000602082019050818103600083015261459c81614560565b9050919050565b7f4552433732313a207472616e736665722066726f6d20696e636f72726563742060008201527f6f776e6572000000000000000000000000000000000000000000000000000000602082015250565b60006145ff60258361379c565b915061460a826145a3565b604082019050919050565b6000602082019050818103600083015261462e816145f2565b9050919050565b7f4552433732313a207472616e7366657220746f20746865207a65726f2061646460008201527f7265737300000000000000000000000000000000000000000000000000000000602082015250565b600061469160248361379c565b915061469c82614635565b604082019050919050565b600060208201905081810360008301526146c081614684565b9050919050565b7f4e487b7100000000000000000000000000000000000000000000000000000000600052601160045260246000fd5b60006147018261384c565b915061470c8361384c565b92508282101561471f5761471e6146c7565b5b828203905092915050565b60006147358261384c565b91506147408361384c565b9250827fffffffffffffffffffffffffffffffffffffffffffffffffffffffffffffffff03821115614775576147746146c7565b5b828201905092915050565b7f5061757361626c653a206e6f7420706175736564000000000000000000000000600082015250565b60006147b660148361379c565b91506147c182614780565b602082019050919050565b600060208201905081810360008301526147e5816147a9565b9050919050565b7f45524337323155524953746f726167653a2055524920736574206f66206e6f6e60008201527f6578697374656e7420746f6b656e000000000000000000000000000000000000602082015250565b6000614848602e8361379c565b9150614853826147ec565b604082019050919050565b600060208201905081810360008301526148778161483b565b9050919050565b60008190508160005260206000209050919050565b60006020601f8301049050919050565b600082821b905092915050565b6000600883026148e07fffffffffffffffffffffffffffffffffffffffffffffffffffffffffffffffff826148a3565b6148ea86836148a3565b95508019841693508086168417925050509392505050565b6000819050919050565b600061492761492261491d8461384c565b614902565b61384c565b9050919050565b6000819050919050565b6149418361490c565b61495561494d8261492e565b8484546148b0565b825550505050565b600090565b61496a61495d565b614975818484614938565b505050565b5b818110156149995761498e600082614962565b60018101905061497b565b5050565b601f8211156149de576149af8161487e565b6149b884614893565b810160208510156149c7578190505b6149db6149d385614893565b83018261497a565b50505b505050565b600082821c905092915050565b6000614a01600019846008026149e3565b1980831691505092915050565b6000614a1a83836149f0565b9150826002028217905092915050565b614a3382613791565b67ffffffffffffffff811115614a4c57614a4b613af8565b5b614a568254613e6b565b614a6182828561499d565b600060209050601f831160018114614a945760008415614a82578287015190505b614a8c8582614a0e565b865550614af4565b601f198416614aa28661487e565b60005b82811015614aca57848901518255600182019150602085019450602081019050614aa5565b86831015614ae75784890151614ae3601f8916826149f0565b8355505b6001600288020188555050505b505050505050565b7f5061757361626c653a2070617573656400000000000000000000000000000000600082015250565b6000614b3260108361379c565b9150614b3d82614afc565b602082019050919050565b60006020820190508181036000830152614b6181614b25565b9050919050565b7f4552433732313a20617070726f766520746f2063616c6c657200000000000000600082015250565b6000614b9e60198361379c565b9150614ba982614b68565b602082019050919050565b60006020820190508181036000830152614bcd81614b91565b9050919050565b7f4552433732313a207472616e7366657220746f206e6f6e20455243373231526560008201527f63656976657220696d706c656d656e7465720000000000000000000000000000602082015250565b6000614c3060328361379c565b9150614c3b82614bd4565b604082019050919050565b60006020820190508181036000830152614c5f81614c23565b9050919050565b7f45524337323155524953746f726167653a2055524920717565727920666f722060008201527f6e6f6e6578697374656e7420746f6b656e000000000000000000000000000000602082015250565b6000614cc260318361379c565b9150614ccd82614c66565b604082019050919050565b60006020820190508181036000830152614cf181614cb5565b9050919050565b600081905092915050565b6000614d0e82613791565b614d188185614cf8565b9350614d288185602086016137ad565b80840191505092915050565b6000614d408285614d03565b9150614d4c8284614d03565b91508190509392505050565b7f416363657373436f6e74726f6c3a206163636f756e7420000000000000000000600082015250565b6000614d8e601783614cf8565b9150614d9982614d58565b601782019050919050565b7f206973206d697373696e6720726f6c6520000000000000000000000000000000600082015250565b6000614dda601183614cf8565b9150614de582614da4565b601182019050919050565b6000614dfb82614d81565b9150614e078285614d03565b9150614e1282614dcd565b9150614e1e8284614d03565b91508190509392505050565b600081519050919050565b600082825260208201905092915050565b6000614e5182614e2a565b614e5b8185614e35565b9350614e6b8185602086016137ad565b614e74816137e0565b840191505092915050565b6000608082019050614e9460008301876138e1565b614ea160208301866138e1565b614eae60408301856139ab565b8181036060830152614ec08184614e46565b905095945050505050565b600081519050614eda81613702565b92915050565b600060208284031215614ef657614ef56136cc565b5b6000614f0484828501614ecb565b91505092915050565b7f4552433732314d657461646174613a2055524920717565727920666f72206e6f60008201527f6e6578697374656e7420746f6b656e0000000000000000000000000000000000602082015250565b6000614f69602f8361379c565b9150614f7482614f0d565b604082019050919050565b60006020820190508181036000830152614f9881614f5c565b9050919050565b6000614faa8261384c565b9150614fb58361384c565b9250817fffffffffffffffffffffffffffffffffffffffffffffffffffffffffffffffff0483118215151615614fee57614fed6146c7565b5b828202905092915050565b60006150048261384c565b915060008203615017576150166146c7565b5b600182039050919050565b7f537472696e67733a20686578206c656e67746820696e73756666696369656e74600082015250565b600061505860208361379c565b915061506382615022565b602082019050919050565b600060208201905081810360008301526150878161504b565b9050919050565b7f4552433732313a206d696e7420746f20746865207a65726f2061646472657373600082015250565b60006150c460208361379c565b91506150cf8261508e565b602082019050919050565b600060208201905081810360008301526150f3816150b7565b9050919050565b7f4552433732313a20746f6b656e20616c7265616479206d696e74656400000000600082015250565b6000615130601c8361379c565b915061513b826150fa565b602082019050919050565b6000602082019050818103600083015261515f81615123565b9050919050565b60006151718261384c565b91507fffffffffffffffffffffffffffffffffffffffffffffffffffffffffffffffff82036151a3576151a26146c7565b5b600182019050919050565b7f4e487b7100000000000000000000000000000000000000000000000000000000600052601260045260246000fd5b60006151e88261384c565b91506151f38361384c565b925082615203576152026151ae565b5b828204905092915050565b60006152198261384c565b91506152248361384c565b925082615234576152336151ae565b5b828206905092915050565b7f4e487b7100000000000000000000000000000000000000000000000000000000600052603160045260246000fdfea2646970667358221220597692b4f1178f09f31dbf0d2c67307b4f8002f9cdd351fc00b6659a5cacbb8664736f6c634300080f0033542d33205265616c204d6164726964204f6666696369616c204d656d62657273686970",
  "immutableReferences": {},
  "source": "// SPDX-License-Identifier: MIT\r\npragma solidity ^0.8.4;\r\n\r\nimport \"@openzeppelin/contracts/token/ERC721/ERC721.sol\";\r\nimport \"@openzeppelin/contracts/token/ERC721/extensions/ERC721Enumerable.sol\";\r\nimport \"@openzeppelin/contracts/token/ERC721/extensions/ERC721URIStorage.sol\";\r\nimport \"@openzeppelin/contracts/security/Pausable.sol\";\r\nimport \"@openzeppelin/contracts/access/AccessControl.sol\";\r\nimport \"@openzeppelin/contracts/token/ERC721/extensions/ERC721Burnable.sol\";\r\nimport \"@openzeppelin/contracts/utils/Counters.sol\";\r\n\r\nimport \"./STRMMatchTickets.sol\";\r\n\r\ncontract STRMMembership is\r\n    ERC721,\r\n    ERC721Enumerable,\r\n    ERC721URIStorage,\r\n    Pausable,\r\n    AccessControl,\r\n    ERC721Burnable\r\n{\r\n    // Other contracts\r\n    STRMMatchTickets matchTicketsContract;\r\n    // Roles (administrador, club, abonado)\r\n    bytes32 public constant CLUB_ADMIN_ROLE = keccak256(\"CLUB_ADMIN_ROLE\");\r\n    bytes32 public constant MEMBERSHIP_ROLE = keccak256(\"MEMBERSHIP_ROLE\");\r\n    mapping(address => bool) public clubAdmins;\r\n    mapping(address => bool) public memberships;\r\n    mapping(address => bool) public membershipsTokenMinted;\r\n\r\n    // Events\r\n    event MembershipTokenMinted(\r\n        address indexed membershipId,\r\n        uint256 indexed tokenId,\r\n        string tokenURI\r\n    );\r\n    event ClubAdminRoleGranted(address indexed sender, address indexed clubAddress);\r\n    event ClubAdminRoleRevoked(address indexed sender, address indexed clubAddress);\r\n    event MembershipRoleGranted(address indexed sender, address indexed membershipAddress);\r\n    event MembershipRoleRevoked(address indexed sender, address indexed membershipAddress);\r\n    event ErrorTransferToken(address indexed sender, address indexed receiber, uint256 indexed tokenId, string errorMessage);\r\n\r\n    using Counters for Counters.Counter;\r\n    Counters.Counter private _membershipCounter;\r\n\r\n    constructor(address matchTicketsContractAddresss) ERC721(\"T-3 Real Madrid Official Membership\", \"RMOM\") {\r\n\r\n        matchTicketsContract = STRMMatchTickets(matchTicketsContractAddresss);\r\n\r\n        _grantRole(DEFAULT_ADMIN_ROLE, msg.sender);\r\n        _grantRole(CLUB_ADMIN_ROLE, msg.sender);\r\n        _grantRole(MEMBERSHIP_ROLE, msg.sender);\r\n\r\n        clubAdmins[msg.sender] = true;\r\n        memberships[msg.sender] = true;\r\n    }\r\n\r\n    function pause() public onlyRole(DEFAULT_ADMIN_ROLE) {\r\n        _pause();\r\n    }\r\n\r\n    function unpause() public onlyRole(DEFAULT_ADMIN_ROLE) {\r\n        _unpause();\r\n    }\r\n\r\n    // Minting of generation of the subscription by the Membership user\r\n    function mintMembershipToken(string memory uri)\r\n        public\r\n        onlyRole(MEMBERSHIP_ROLE)\r\n    {\r\n        if (membershipsTokenMinted[msg.sender]) {\r\n            revert(\"You already have a membership token minted\");\r\n        }\r\n        uint256 tokenId = _membershipCounter.current();\r\n        _membershipCounter.increment();\r\n\r\n        _safeMint(msg.sender, tokenId);\r\n        // ipfs://bafkreic3xz5cssins4ihcyoo27kcmflwmgqvpbm2stpr3xfxxnsykgkali\r\n        _setTokenURI(tokenId, uri);\r\n        membershipsTokenMinted[msg.sender] = true;\r\n        // Call Smart Contract to grant role to the memberships and add the membership the to list for airdrop\r\n        matchTicketsContract.addAddress(msg.sender);\r\n        emit MembershipTokenMinted(msg.sender, tokenId, uri);\r\n    }\r\n\r\n    function _beforeTokenTransfer(address from, address to, uint256 tokenId)\r\n        internal\r\n        whenNotPaused\r\n        override(ERC721, ERC721Enumerable)\r\n    {\r\n        super._beforeTokenTransfer(from, to, tokenId);\r\n    }\r\n\r\n    // The following functions are overrides required by Solidity.\r\n    function _burn(uint256 tokenId) internal override(ERC721, ERC721URIStorage) {\r\n        membershipsTokenMinted[msg.sender] = false;\r\n        // Call Smart Contract to grant role to the memberships and remove the membership to the list for airdrop\r\n        matchTicketsContract.removeAddress(msg.sender);\r\n        super._burn(tokenId);\r\n    }\r\n\r\n    function tokenURI(uint256 tokenId)\r\n        public\r\n        view\r\n        override(ERC721, ERC721URIStorage)\r\n        returns (string memory)\r\n    {\r\n        return super.tokenURI(tokenId);\r\n    }\r\n\r\n    function supportsInterface(bytes4 interfaceId)\r\n        public\r\n        view\r\n        override(ERC721, ERC721Enumerable, AccessControl)\r\n        returns (bool)\r\n    {\r\n        return super.supportsInterface(interfaceId);\r\n    }\r\n\r\n    //ROLES FOR ASSIGNING AND UNASSIGNING ROLES\r\n    function grantClubRol(address account) public onlyRole(DEFAULT_ADMIN_ROLE) {\r\n        _grantRole(CLUB_ADMIN_ROLE, account);\r\n        clubAdmins[account] = true;\r\n        // Call Smart Contract to grant role to the clubAdmins\r\n        matchTicketsContract.grantClubRol(account);\r\n        emit ClubAdminRoleGranted(msg.sender, account);\r\n    }\r\n\r\n    function revokeClubRol(address account)\r\n        public\r\n        onlyRole(DEFAULT_ADMIN_ROLE)\r\n    {\r\n        _revokeRole(CLUB_ADMIN_ROLE, account);\r\n        clubAdmins[account] = false;\r\n        // TODO: Call Smart Contract to revoke role to the clubAdmins\r\n        emit ClubAdminRoleRevoked(msg.sender, account);\r\n    }\r\n\r\n    function hasClubRol(address account) public view returns (bool) {\r\n        return clubAdmins[account];\r\n    }\r\n\r\n    function grantMembershipRol(address account)\r\n        public\r\n        onlyRole(CLUB_ADMIN_ROLE)\r\n    {\r\n        _grantRole(MEMBERSHIP_ROLE, account);\r\n        memberships[account] = true;\r\n        emit MembershipRoleGranted(msg.sender, account);\r\n    }\r\n\r\n    function revokeMembershipRol(address account)\r\n        public\r\n        onlyRole(CLUB_ADMIN_ROLE)\r\n    {\r\n        _revokeRole(MEMBERSHIP_ROLE, account);\r\n        memberships[account] = false;\r\n\r\n        emit MembershipRoleRevoked(msg.sender, account);\r\n    }\r\n\r\n    function hasMembershipRol(address account) public view returns (bool) {\r\n        return memberships[account];\r\n    }\r\n\r\n    function isMembershipTokenMinted(address account) public view returns (bool) {\r\n        return membershipsTokenMinted[account];\r\n    }\r\n\r\n    function membershipsNumber() public view returns (uint256) {\r\n        return _membershipCounter.current();\r\n    }\r\n\r\n}\r\n",
  "sourcePath": "/Users/dosorio/Proyectos/Blockchain/CryptoTickets/contracts/STRMMembership.sol",
  "compiler": {
    "name": "solc",
    "version": "0.8.15+commit.e14f2714.Emscripten.clang"
  },
  "schemaVersion": "3.4.7",
  "updatedAt": "2022-06-28T20:24:04.586Z",
  "networkType": "ethereum",
  "devdoc": {
    "kind": "dev",
    "methods": {
      "approve(address,uint256)": {
        "details": "See {IERC721-approve}."
      },
      "balanceOf(address)": {
        "details": "See {IERC721-balanceOf}."
      },
      "burn(uint256)": {
        "details": "Burns `tokenId`. See {ERC721-_burn}. Requirements: - The caller must own `tokenId` or be an approved operator."
      },
      "getApproved(uint256)": {
        "details": "See {IERC721-getApproved}."
      },
      "getRoleAdmin(bytes32)": {
        "details": "Returns the admin role that controls `role`. See {grantRole} and {revokeRole}. To change a role's admin, use {_setRoleAdmin}."
      },
      "grantRole(bytes32,address)": {
        "details": "Grants `role` to `account`. If `account` had not been already granted `role`, emits a {RoleGranted} event. Requirements: - the caller must have ``role``'s admin role."
      },
      "hasRole(bytes32,address)": {
        "details": "Returns `true` if `account` has been granted `role`."
      },
      "isApprovedForAll(address,address)": {
        "details": "See {IERC721-isApprovedForAll}."
      },
      "name()": {
        "details": "See {IERC721Metadata-name}."
      },
      "ownerOf(uint256)": {
        "details": "See {IERC721-ownerOf}."
      },
      "paused()": {
        "details": "Returns true if the contract is paused, and false otherwise."
      },
      "renounceRole(bytes32,address)": {
        "details": "Revokes `role` from the calling account. Roles are often managed via {grantRole} and {revokeRole}: this function's purpose is to provide a mechanism for accounts to lose their privileges if they are compromised (such as when a trusted device is misplaced). If the calling account had been revoked `role`, emits a {RoleRevoked} event. Requirements: - the caller must be `account`."
      },
      "revokeRole(bytes32,address)": {
        "details": "Revokes `role` from `account`. If `account` had been granted `role`, emits a {RoleRevoked} event. Requirements: - the caller must have ``role``'s admin role."
      },
      "safeTransferFrom(address,address,uint256)": {
        "details": "See {IERC721-safeTransferFrom}."
      },
      "safeTransferFrom(address,address,uint256,bytes)": {
        "details": "See {IERC721-safeTransferFrom}."
      },
      "setApprovalForAll(address,bool)": {
        "details": "See {IERC721-setApprovalForAll}."
      },
      "symbol()": {
        "details": "See {IERC721Metadata-symbol}."
      },
      "tokenByIndex(uint256)": {
        "details": "See {IERC721Enumerable-tokenByIndex}."
      },
      "tokenOfOwnerByIndex(address,uint256)": {
        "details": "See {IERC721Enumerable-tokenOfOwnerByIndex}."
      },
      "totalSupply()": {
        "details": "See {IERC721Enumerable-totalSupply}."
      },
      "transferFrom(address,address,uint256)": {
        "details": "See {IERC721-transferFrom}."
      }
    },
    "version": 1
  },
  "userdoc": {
    "kind": "user",
    "methods": {},
    "version": 1
  }
}