{
  "contractName": "STRMMatchTickets",
  "abi": [
    {
      "inputs": [],
      "stateMutability": "nonpayable",
      "type": "constructor"
    },
    {
      "anonymous": false,
      "inputs": [
        {
          "indexed": true,
          "internalType": "address",
          "name": "owner",
          "type": "address"
        },
        {
          "indexed": true,
          "internalType": "address",
          "name": "approved",
          "type": "address"
        },
        {
          "indexed": true,
          "internalType": "uint256",
          "name": "tokenId",
          "type": "uint256"
        }
      ],
      "name": "Approval",
      "type": "event"
    },
    {
      "anonymous": false,
      "inputs": [
        {
          "indexed": true,
          "internalType": "address",
          "name": "owner",
          "type": "address"
        },
        {
          "indexed": true,
          "internalType": "address",
          "name": "operator",
          "type": "address"
        },
        {
          "indexed": false,
          "internalType": "bool",
          "name": "approved",
          "type": "bool"
        }
      ],
      "name": "ApprovalForAll",
      "type": "event"
    },
    {
      "anonymous": false,
      "inputs": [
        {
          "indexed": true,
          "internalType": "address",
          "name": "sender",
          "type": "address"
        },
        {
          "indexed": true,
          "internalType": "address",
          "name": "clubAddress",
          "type": "address"
        }
      ],
      "name": "ClubAdminRoleGranted",
      "type": "event"
    },
    {
      "anonymous": false,
      "inputs": [
        {
          "indexed": true,
          "internalType": "address",
          "name": "sender",
          "type": "address"
        },
        {
          "indexed": true,
          "internalType": "address",
          "name": "clubAddress",
          "type": "address"
        }
      ],
      "name": "ClubAdminRoleRevoked",
      "type": "event"
    },
    {
      "anonymous": false,
      "inputs": [
        {
          "indexed": false,
          "internalType": "string",
          "name": "_message",
          "type": "string"
        },
        {
          "indexed": true,
          "internalType": "address",
          "name": "account",
          "type": "address"
        }
      ],
      "name": "MsgInfoAccountListKo",
      "type": "event"
    },
    {
      "anonymous": false,
      "inputs": [
        {
          "indexed": false,
          "internalType": "string",
          "name": "_message",
          "type": "string"
        },
        {
          "indexed": true,
          "internalType": "address",
          "name": "account",
          "type": "address"
        }
      ],
      "name": "MsgInfoAccountListOk",
      "type": "event"
    },
    {
      "anonymous": false,
      "inputs": [
        {
          "indexed": false,
          "internalType": "string",
          "name": "_message",
          "type": "string"
        },
        {
          "indexed": true,
          "internalType": "address",
          "name": "account",
          "type": "address"
        }
      ],
      "name": "MsgInfoMinted",
      "type": "event"
    },
    {
      "anonymous": false,
      "inputs": [
        {
          "indexed": false,
          "internalType": "address",
          "name": "account",
          "type": "address"
        }
      ],
      "name": "Paused",
      "type": "event"
    },
    {
      "anonymous": false,
      "inputs": [
        {
          "indexed": true,
          "internalType": "bytes32",
          "name": "role",
          "type": "bytes32"
        },
        {
          "indexed": true,
          "internalType": "bytes32",
          "name": "previousAdminRole",
          "type": "bytes32"
        },
        {
          "indexed": true,
          "internalType": "bytes32",
          "name": "newAdminRole",
          "type": "bytes32"
        }
      ],
      "name": "RoleAdminChanged",
      "type": "event"
    },
    {
      "anonymous": false,
      "inputs": [
        {
          "indexed": true,
          "internalType": "bytes32",
          "name": "role",
          "type": "bytes32"
        },
        {
          "indexed": true,
          "internalType": "address",
          "name": "account",
          "type": "address"
        },
        {
          "indexed": true,
          "internalType": "address",
          "name": "sender",
          "type": "address"
        }
      ],
      "name": "RoleGranted",
      "type": "event"
    },
    {
      "anonymous": false,
      "inputs": [
        {
          "indexed": true,
          "internalType": "bytes32",
          "name": "role",
          "type": "bytes32"
        },
        {
          "indexed": true,
          "internalType": "address",
          "name": "account",
          "type": "address"
        },
        {
          "indexed": true,
          "internalType": "address",
          "name": "sender",
          "type": "address"
        }
      ],
      "name": "RoleRevoked",
      "type": "event"
    },
    {
      "anonymous": false,
      "inputs": [
        {
          "indexed": false,
          "internalType": "string",
          "name": "_message",
          "type": "string"
        }
      ],
      "name": "Status",
      "type": "event"
    },
    {
      "anonymous": false,
      "inputs": [
        {
          "indexed": true,
          "internalType": "address",
          "name": "from",
          "type": "address"
        },
        {
          "indexed": true,
          "internalType": "address",
          "name": "to",
          "type": "address"
        },
        {
          "indexed": true,
          "internalType": "uint256",
          "name": "tokenId",
          "type": "uint256"
        }
      ],
      "name": "Transfer",
      "type": "event"
    },
    {
      "anonymous": false,
      "inputs": [
        {
          "indexed": false,
          "internalType": "address",
          "name": "account",
          "type": "address"
        }
      ],
      "name": "Unpaused",
      "type": "event"
    },
    {
      "inputs": [],
      "name": "ADMIN_CLUB_ROLE",
      "outputs": [
        {
          "internalType": "bytes32",
          "name": "",
          "type": "bytes32"
        }
      ],
      "stateMutability": "view",
      "type": "function",
      "constant": true
    },
    {
      "inputs": [],
      "name": "DEFAULT_ADMIN_ROLE",
      "outputs": [
        {
          "internalType": "bytes32",
          "name": "",
          "type": "bytes32"
        }
      ],
      "stateMutability": "view",
      "type": "function",
      "constant": true
    },
    {
      "inputs": [
        {
          "internalType": "address",
          "name": "to",
          "type": "address"
        },
        {
          "internalType": "uint256",
          "name": "tokenId",
          "type": "uint256"
        }
      ],
      "name": "approve",
      "outputs": [],
      "stateMutability": "nonpayable",
      "type": "function"
    },
    {
      "inputs": [
        {
          "internalType": "address",
          "name": "owner",
          "type": "address"
        }
      ],
      "name": "balanceOf",
      "outputs": [
        {
          "internalType": "uint256",
          "name": "",
          "type": "uint256"
        }
      ],
      "stateMutability": "view",
      "type": "function",
      "constant": true
    },
    {
      "inputs": [
        {
          "internalType": "uint256",
          "name": "tokenId",
          "type": "uint256"
        }
      ],
      "name": "burn",
      "outputs": [],
      "stateMutability": "nonpayable",
      "type": "function"
    },
    {
      "inputs": [],
      "name": "club",
      "outputs": [
        {
          "internalType": "address payable",
          "name": "",
          "type": "address"
        }
      ],
      "stateMutability": "view",
      "type": "function",
      "constant": true
    },
    {
      "inputs": [
        {
          "internalType": "uint256",
          "name": "tokenId",
          "type": "uint256"
        }
      ],
      "name": "getApproved",
      "outputs": [
        {
          "internalType": "address",
          "name": "",
          "type": "address"
        }
      ],
      "stateMutability": "view",
      "type": "function",
      "constant": true
    },
    {
      "inputs": [
        {
          "internalType": "bytes32",
          "name": "role",
          "type": "bytes32"
        }
      ],
      "name": "getRoleAdmin",
      "outputs": [
        {
          "internalType": "bytes32",
          "name": "",
          "type": "bytes32"
        }
      ],
      "stateMutability": "view",
      "type": "function",
      "constant": true
    },
    {
      "inputs": [
        {
          "internalType": "bytes32",
          "name": "role",
          "type": "bytes32"
        },
        {
          "internalType": "address",
          "name": "account",
          "type": "address"
        }
      ],
      "name": "grantRole",
      "outputs": [],
      "stateMutability": "nonpayable",
      "type": "function"
    },
    {
      "inputs": [
        {
          "internalType": "bytes32",
          "name": "role",
          "type": "bytes32"
        },
        {
          "internalType": "address",
          "name": "account",
          "type": "address"
        }
      ],
      "name": "hasRole",
      "outputs": [
        {
          "internalType": "bool",
          "name": "",
          "type": "bool"
        }
      ],
      "stateMutability": "view",
      "type": "function",
      "constant": true
    },
    {
      "inputs": [
        {
          "internalType": "address",
          "name": "owner",
          "type": "address"
        },
        {
          "internalType": "address",
          "name": "operator",
          "type": "address"
        }
      ],
      "name": "isApprovedForAll",
      "outputs": [
        {
          "internalType": "bool",
          "name": "",
          "type": "bool"
        }
      ],
      "stateMutability": "view",
      "type": "function",
      "constant": true
    },
    {
      "inputs": [
        {
          "internalType": "uint256",
          "name": "",
          "type": "uint256"
        }
      ],
      "name": "listSubscriber",
      "outputs": [
        {
          "internalType": "address",
          "name": "",
          "type": "address"
        }
      ],
      "stateMutability": "view",
      "type": "function",
      "constant": true
    },
    {
      "inputs": [],
      "name": "name",
      "outputs": [
        {
          "internalType": "string",
          "name": "",
          "type": "string"
        }
      ],
      "stateMutability": "view",
      "type": "function",
      "constant": true
    },
    {
      "inputs": [],
      "name": "newOwner",
      "outputs": [
        {
          "internalType": "address",
          "name": "",
          "type": "address"
        }
      ],
      "stateMutability": "view",
      "type": "function",
      "constant": true
    },
    {
      "inputs": [
        {
          "internalType": "uint256",
          "name": "tokenId",
          "type": "uint256"
        }
      ],
      "name": "ownerOf",
      "outputs": [
        {
          "internalType": "address",
          "name": "",
          "type": "address"
        }
      ],
      "stateMutability": "view",
      "type": "function",
      "constant": true
    },
    {
      "inputs": [],
      "name": "paused",
      "outputs": [
        {
          "internalType": "bool",
          "name": "",
          "type": "bool"
        }
      ],
      "stateMutability": "view",
      "type": "function",
      "constant": true
    },
    {
      "inputs": [
        {
          "internalType": "bytes32",
          "name": "role",
          "type": "bytes32"
        },
        {
          "internalType": "address",
          "name": "account",
          "type": "address"
        }
      ],
      "name": "renounceRole",
      "outputs": [],
      "stateMutability": "nonpayable",
      "type": "function"
    },
    {
      "inputs": [
        {
          "internalType": "bytes32",
          "name": "role",
          "type": "bytes32"
        },
        {
          "internalType": "address",
          "name": "account",
          "type": "address"
        }
      ],
      "name": "revokeRole",
      "outputs": [],
      "stateMutability": "nonpayable",
      "type": "function"
    },
    {
      "inputs": [
        {
          "internalType": "address",
          "name": "from",
          "type": "address"
        },
        {
          "internalType": "address",
          "name": "to",
          "type": "address"
        },
        {
          "internalType": "uint256",
          "name": "tokenId",
          "type": "uint256"
        }
      ],
      "name": "safeTransferFrom",
      "outputs": [],
      "stateMutability": "nonpayable",
      "type": "function"
    },
    {
      "inputs": [
        {
          "internalType": "address",
          "name": "from",
          "type": "address"
        },
        {
          "internalType": "address",
          "name": "to",
          "type": "address"
        },
        {
          "internalType": "uint256",
          "name": "tokenId",
          "type": "uint256"
        },
        {
          "internalType": "bytes",
          "name": "_data",
          "type": "bytes"
        }
      ],
      "name": "safeTransferFrom",
      "outputs": [],
      "stateMutability": "nonpayable",
      "type": "function"
    },
    {
      "inputs": [
        {
          "internalType": "address",
          "name": "operator",
          "type": "address"
        },
        {
          "internalType": "bool",
          "name": "approved",
          "type": "bool"
        }
      ],
      "name": "setApprovalForAll",
      "outputs": [],
      "stateMutability": "nonpayable",
      "type": "function"
    },
    {
      "inputs": [],
      "name": "symbol",
      "outputs": [
        {
          "internalType": "string",
          "name": "",
          "type": "string"
        }
      ],
      "stateMutability": "view",
      "type": "function",
      "constant": true
    },
    {
      "inputs": [
        {
          "internalType": "uint256",
          "name": "index",
          "type": "uint256"
        }
      ],
      "name": "tokenByIndex",
      "outputs": [
        {
          "internalType": "uint256",
          "name": "",
          "type": "uint256"
        }
      ],
      "stateMutability": "view",
      "type": "function",
      "constant": true
    },
    {
      "inputs": [
        {
          "internalType": "address",
          "name": "owner",
          "type": "address"
        },
        {
          "internalType": "uint256",
          "name": "index",
          "type": "uint256"
        }
      ],
      "name": "tokenOfOwnerByIndex",
      "outputs": [
        {
          "internalType": "uint256",
          "name": "",
          "type": "uint256"
        }
      ],
      "stateMutability": "view",
      "type": "function",
      "constant": true
    },
    {
      "inputs": [],
      "name": "totalSupply",
      "outputs": [
        {
          "internalType": "uint256",
          "name": "",
          "type": "uint256"
        }
      ],
      "stateMutability": "view",
      "type": "function",
      "constant": true
    },
    {
      "inputs": [
        {
          "internalType": "address",
          "name": "from",
          "type": "address"
        },
        {
          "internalType": "address",
          "name": "to",
          "type": "address"
        },
        {
          "internalType": "uint256",
          "name": "tokenId",
          "type": "uint256"
        }
      ],
      "name": "transferFrom",
      "outputs": [],
      "stateMutability": "nonpayable",
      "type": "function"
    },
    {
      "inputs": [],
      "name": "pause",
      "outputs": [],
      "stateMutability": "nonpayable",
      "type": "function"
    },
    {
      "inputs": [],
      "name": "unpause",
      "outputs": [],
      "stateMutability": "nonpayable",
      "type": "function"
    },
    {
      "inputs": [
        {
          "internalType": "string",
          "name": "uri",
          "type": "string"
        }
      ],
      "name": "mintMatch",
      "outputs": [],
      "stateMutability": "nonpayable",
      "type": "function"
    },
    {
      "inputs": [
        {
          "internalType": "uint256",
          "name": "matchId",
          "type": "uint256"
        }
      ],
      "name": "tokenURI",
      "outputs": [
        {
          "internalType": "string",
          "name": "",
          "type": "string"
        }
      ],
      "stateMutability": "view",
      "type": "function",
      "constant": true
    },
    {
      "inputs": [
        {
          "internalType": "bytes4",
          "name": "interfaceId",
          "type": "bytes4"
        }
      ],
      "name": "supportsInterface",
      "outputs": [
        {
          "internalType": "bool",
          "name": "",
          "type": "bool"
        }
      ],
      "stateMutability": "view",
      "type": "function",
      "constant": true
    },
    {
      "inputs": [
        {
          "internalType": "address",
          "name": "account",
          "type": "address"
        }
      ],
      "name": "grantAdminRol",
      "outputs": [],
      "stateMutability": "nonpayable",
      "type": "function"
    },
    {
      "inputs": [
        {
          "internalType": "address",
          "name": "account",
          "type": "address"
        }
      ],
      "name": "grantClubRol",
      "outputs": [],
      "stateMutability": "nonpayable",
      "type": "function"
    },
    {
      "inputs": [
        {
          "internalType": "address",
          "name": "account",
          "type": "address"
        }
      ],
      "name": "revokeClubRol",
      "outputs": [],
      "stateMutability": "nonpayable",
      "type": "function"
    },
    {
      "inputs": [
        {
          "internalType": "address",
          "name": "account",
          "type": "address"
        }
      ],
      "name": "addAddress",
      "outputs": [],
      "stateMutability": "nonpayable",
      "type": "function"
    },
    {
      "inputs": [
        {
          "internalType": "address",
          "name": "account",
          "type": "address"
        }
      ],
      "name": "removeAddress",
      "outputs": [],
      "stateMutability": "nonpayable",
      "type": "function"
    }
  ],
  "bytecode": "0x60806040523480156200001157600080fd5b506040518060400160405280600c81526020017f4d61746368205469636b657400000000000000000000000000000000000000008152506040518060400160405280600381526020017f4d5443000000000000000000000000000000000000000000000000000000000081525081600090816200008f919062000506565b508060019081620000a1919062000506565b5050506000600b60006101000a81548160ff021916908315150217905550620000d46000801b336200012760201b60201c565b620001067f9894090c012e113e817b2d99a7f6ad3e666491f10820f12b8bc4b139f2ea06bb336200012760201b60201c565b6001601260006101000a81548160ff021916908315150217905550620005ed565b6200013982826200021960201b60201c565b62000215576001600c600084815260200190815260200160002060000160008373ffffffffffffffffffffffffffffffffffffffff1673ffffffffffffffffffffffffffffffffffffffff16815260200190815260200160002060006101000a81548160ff021916908315150217905550620001ba6200028460201b60201c565b73ffffffffffffffffffffffffffffffffffffffff168173ffffffffffffffffffffffffffffffffffffffff16837f2f8788117e7eff1d82e926ec794901d17c78024a50270940304540a733656f0d60405160405180910390a45b5050565b6000600c600084815260200190815260200160002060000160008373ffffffffffffffffffffffffffffffffffffffff1673ffffffffffffffffffffffffffffffffffffffff16815260200190815260200160002060009054906101000a900460ff16905092915050565b600033905090565b600081519050919050565b7f4e487b7100000000000000000000000000000000000000000000000000000000600052604160045260246000fd5b7f4e487b7100000000000000000000000000000000000000000000000000000000600052602260045260246000fd5b600060028204905060018216806200030e57607f821691505b602082108103620003245762000323620002c6565b5b50919050565b60008190508160005260206000209050919050565b60006020601f8301049050919050565b600082821b905092915050565b6000600883026200038e7fffffffffffffffffffffffffffffffffffffffffffffffffffffffffffffffff826200034f565b6200039a86836200034f565b95508019841693508086168417925050509392505050565b6000819050919050565b6000819050919050565b6000620003e7620003e1620003db84620003b2565b620003bc565b620003b2565b9050919050565b6000819050919050565b6200040383620003c6565b6200041b6200041282620003ee565b8484546200035c565b825550505050565b600090565b6200043262000423565b6200043f818484620003f8565b505050565b5b8181101562000467576200045b60008262000428565b60018101905062000445565b5050565b601f821115620004b65762000480816200032a565b6200048b846200033f565b810160208510156200049b578190505b620004b3620004aa856200033f565b83018262000444565b50505b505050565b600082821c905092915050565b6000620004db60001984600802620004bb565b1980831691505092915050565b6000620004f68383620004c8565b9150826002028217905092915050565b62000511826200028c565b67ffffffffffffffff8111156200052d576200052c62000297565b5b620005398254620002f5565b620005468282856200046b565b600060209050601f8311600181146200057e576000841562000569578287015190505b620005758582620004e8565b865550620005e5565b601f1984166200058e866200032a565b60005b82811015620005b85784890151825560018201915060208501945060208101905062000591565b86831015620005d85784890151620005d4601f891682620004c8565b8355505b6001600288020188555050505b505050505050565b614e8280620005fd6000396000f3fe608060405234801561001057600080fd5b506004361061021c5760003560e01c80635047611711610125578063a217fddf116100ad578063c87b56dd1161007c578063c87b56dd14610623578063d4ee1d9014610653578063d547741f14610671578063e985e9c51461068d578063fe5a0666146106bd5761021c565b8063a217fddf146105b1578063a22cb465146105cf578063a9757b53146105eb578063b88d4fde146106075761021c565b80637367c0d0116100f45780637367c0d01461050d5780638456cb591461052957806391d148541461053357806395d89b41146105635780639b6dd9ae146105815761021c565b806350476117146104735780635c975abb1461048f5780636352211e146104ad57806370a08231146104dd5761021c565b80632f745c59116101a85780633f4ba83a116101775780633f4ba83a146103e557806342842e0e146103ef57806342966c681461040b5780634ba79dfe146104275780634f6ccce7146104435761021c565b80632f745c591461035f57806336568abe1461038f57806338eada1c146103ab5780633bf08451146103c75761021c565b80630efd0973116101ef5780630efd0973146102bb57806318160ddd146102d957806323b872dd146102f7578063248a9ca3146103135780632f2ff15d146103435761021c565b806301ffc9a71461022157806306fdde0314610251578063081812fc1461026f578063095ea7b31461029f575b600080fd5b61023b600480360381019061023691906132d0565b6106d9565b6040516102489190613318565b60405180910390f35b6102596106eb565b60405161026691906133cc565b60405180910390f35b61028960048036038101906102849190613424565b61077d565b6040516102969190613492565b60405180910390f35b6102b960048036038101906102b491906134d9565b610802565b005b6102c3610919565b6040516102d0919061353a565b60405180910390f35b6102e161093f565b6040516102ee9190613564565b60405180910390f35b610311600480360381019061030c919061357f565b61094c565b005b61032d60048036038101906103289190613608565b6109ac565b60405161033a9190613644565b60405180910390f35b61035d6004803603810190610358919061365f565b6109cc565b005b610379600480360381019061037491906134d9565b6109ed565b6040516103869190613564565b60405180910390f35b6103a960048036038101906103a4919061365f565b610a92565b005b6103c560048036038101906103c0919061369f565b610b15565b005b6103cf610b89565b6040516103dc9190613644565b60405180910390f35b6103ed610bad565b005b6104096004803603810190610404919061357f565b610be2565b005b61042560048036038101906104209190613424565b610c02565b005b610441600480360381019061043c919061369f565b610c5e565b005b61045d60048036038101906104589190613424565b610de5565b60405161046a9190613564565b60405180910390f35b61048d6004803603810190610488919061369f565b610e56565b005b610497610eeb565b6040516104a49190613318565b60405180910390f35b6104c760048036038101906104c29190613424565b610f02565b6040516104d49190613492565b60405180910390f35b6104f760048036038101906104f2919061369f565b610fb3565b6040516105049190613564565b60405180910390f35b6105276004803603810190610522919061369f565b61106a565b005b610531611088565b005b61054d6004803603810190610548919061365f565b6110bd565b60405161055a9190613318565b60405180910390f35b61056b611128565b60405161057891906133cc565b60405180910390f35b61059b60048036038101906105969190613424565b6111ba565b6040516105a89190613492565b60405180910390f35b6105b96111f9565b6040516105c69190613644565b60405180910390f35b6105e960048036038101906105e491906136f8565b611200565b005b6106056004803603810190610600919061386d565b611216565b005b610621600480360381019061061c9190613957565b611308565b005b61063d60048036038101906106389190613424565b61136a565b60405161064a91906133cc565b60405180910390f35b61065b61137c565b6040516106689190613492565b60405180910390f35b61068b6004803603810190610686919061365f565b6113a2565b005b6106a760048036038101906106a291906139da565b6113c3565b6040516106b49190613318565b60405180910390f35b6106d760048036038101906106d2919061369f565b611457565b005b60006106e4826114ec565b9050919050565b6060600080546106fa90613a49565b80601f016020809104026020016040519081016040528092919081815260200182805461072690613a49565b80156107735780601f1061074857610100808354040283529160200191610773565b820191906000526020600020905b81548152906001019060200180831161075657829003601f168201915b5050505050905090565b600061078882611566565b6107c7576040517f08c379a00000000000000000000000000000000000000000000000000000000081526004016107be90613aec565b60405180910390fd5b6004600083815260200190815260200160002060009054906101000a900473ffffffffffffffffffffffffffffffffffffffff169050919050565b600061080d82610f02565b90508073ffffffffffffffffffffffffffffffffffffffff168373ffffffffffffffffffffffffffffffffffffffff160361087d576040517f08c379a000000000000000000000000000000000000000000000000000000000815260040161087490613b7e565b60405180910390fd5b8073ffffffffffffffffffffffffffffffffffffffff1661089c6115d2565b73ffffffffffffffffffffffffffffffffffffffff1614806108cb57506108ca816108c56115d2565b6113c3565b5b61090a576040517f08c379a000000000000000000000000000000000000000000000000000000000815260040161090190613c10565b60405180910390fd5b61091483836115da565b505050565b600f60009054906101000a900473ffffffffffffffffffffffffffffffffffffffff1681565b6000600880549050905090565b61095d6109576115d2565b82611693565b61099c576040517f08c379a000000000000000000000000000000000000000000000000000000000815260040161099390613ca2565b60405180910390fd5b6109a7838383611771565b505050565b6000600c6000838152602001908152602001600020600101549050919050565b6109d5826109ac565b6109de816119d7565b6109e883836119eb565b505050565b60006109f883610fb3565b8210610a39576040517f08c379a0000000000000000000000000000000000000000000000000000000008152600401610a3090613d34565b60405180910390fd5b600660008473ffffffffffffffffffffffffffffffffffffffff1673ffffffffffffffffffffffffffffffffffffffff168152602001908152602001600020600083815260200190815260200160002054905092915050565b610a9a6115d2565b73ffffffffffffffffffffffffffffffffffffffff168173ffffffffffffffffffffffffffffffffffffffff1614610b07576040517f08c379a0000000000000000000000000000000000000000000000000000000008152600401610afe90613dc6565b60405180910390fd5b610b118282611acc565b5050565b6000801b610b22816119d7565b600e829080600181540180825580915050600190039060005260206000200160009091909190916101000a81548173ffffffffffffffffffffffffffffffffffffffff021916908373ffffffffffffffffffffffffffffffffffffffff1602179055505050565b7f9894090c012e113e817b2d99a7f6ad3e666491f10820f12b8bc4b139f2ea06bb81565b7f9894090c012e113e817b2d99a7f6ad3e666491f10820f12b8bc4b139f2ea06bb610bd7816119d7565b610bdf611bae565b50565b610bfd83838360405180602001604052806000815250611308565b505050565b610c13610c0d6115d2565b82611693565b610c52576040517f08c379a0000000000000000000000000000000000000000000000000000000008152600401610c4990613e58565b60405180910390fd5b610c5b81611c50565b50565b6000801b610c6b816119d7565b60006001600e80549050610c7f9190613ea7565b67ffffffffffffffff811115610c9857610c97613742565b5b604051908082528060200260200182016040528015610cc65781602001602082028036833780820191505090505b5090506000805b6001600e80549050610cdf9190613ea7565b811015610dc7578473ffffffffffffffffffffffffffffffffffffffff16600e8281548110610d1157610d10613edb565b5b9060005260206000200160009054906101000a900473ffffffffffffffffffffffffffffffffffffffff1673ffffffffffffffffffffffffffffffffffffffff1614610db45784838381518110610d6b57610d6a613edb565b5b602002602001019073ffffffffffffffffffffffffffffffffffffffff16908173ffffffffffffffffffffffffffffffffffffffff16815250508180610db090613f0a565b9250505b8080610dbf90613f0a565b915050610ccd565b5081600e9080519060200190610dde92919061317d565b5050505050565b6000610def61093f565b8210610e30576040517f08c379a0000000000000000000000000000000000000000000000000000000008152600401610e2790613fc4565b60405180910390fd5b60088281548110610e4457610e43613edb565b5b90600052602060002001549050919050565b6000801b610e63816119d7565b610e8d7f9894090c012e113e817b2d99a7f6ad3e666491f10820f12b8bc4b139f2ea06bb836119eb565b8173ffffffffffffffffffffffffffffffffffffffff163373ffffffffffffffffffffffffffffffffffffffff167ff25ae518afe49b3c8f1a0f93c0adc26c177ff270839cfdc2f23250dea3a025bc60405160405180910390a35050565b6000600b60009054906101000a900460ff16905090565b6000806002600084815260200190815260200160002060009054906101000a900473ffffffffffffffffffffffffffffffffffffffff169050600073ffffffffffffffffffffffffffffffffffffffff168173ffffffffffffffffffffffffffffffffffffffff1603610faa576040517f08c379a0000000000000000000000000000000000000000000000000000000008152600401610fa190614056565b60405180910390fd5b80915050919050565b60008073ffffffffffffffffffffffffffffffffffffffff168273ffffffffffffffffffffffffffffffffffffffff1603611023576040517f08c379a000000000000000000000000000000000000000000000000000000000815260040161101a906140e8565b60405180910390fd5b600360008373ffffffffffffffffffffffffffffffffffffffff1673ffffffffffffffffffffffffffffffffffffffff168152602001908152602001600020549050919050565b6000801b611077816119d7565b6110846000801b836119eb565b5050565b7f9894090c012e113e817b2d99a7f6ad3e666491f10820f12b8bc4b139f2ea06bb6110b2816119d7565b6110ba611c5c565b50565b6000600c600084815260200190815260200160002060000160008373ffffffffffffffffffffffffffffffffffffffff1673ffffffffffffffffffffffffffffffffffffffff16815260200190815260200160002060009054906101000a900460ff16905092915050565b60606001805461113790613a49565b80601f016020809104026020016040519081016040528092919081815260200182805461116390613a49565b80156111b05780601f10611185576101008083540402835291602001916111b0565b820191906000526020600020905b81548152906001019060200180831161119357829003601f168201915b5050505050905090565b600e81815481106111ca57600080fd5b906000526020600020016000915054906101000a900473ffffffffffffffffffffffffffffffffffffffff1681565b6000801b81565b61121261120b6115d2565b8383611cff565b5050565b7f9894090c012e113e817b2d99a7f6ad3e666491f10820f12b8bc4b139f2ea06bb611240816119d7565b60005b6001600e805490506112559190613ea7565b8110156112b7576112a4600e828154811061127357611272613edb565b5b9060005260206000200160009054906101000a900473ffffffffffffffffffffffffffffffffffffffff1684611e6b565b80806112af90613f0a565b915050611243565b503373ffffffffffffffffffffffffffffffffffffffff167f4553e13ff316f97f423d1ae7592854a3db7cbe812630d7fe99993903df0e028e6040516112fc9061417a565b60405180910390a25050565b6113196113136115d2565b83611693565b611358576040517f08c379a000000000000000000000000000000000000000000000000000000000815260040161134f90613ca2565b60405180910390fd5b61136484848484611e9c565b50505050565b606061137582611ef8565b9050919050565b601060009054906101000a900473ffffffffffffffffffffffffffffffffffffffff1681565b6113ab826109ac565b6113b4816119d7565b6113be8383611acc565b505050565b6000600560008473ffffffffffffffffffffffffffffffffffffffff1673ffffffffffffffffffffffffffffffffffffffff16815260200190815260200160002060008373ffffffffffffffffffffffffffffffffffffffff1673ffffffffffffffffffffffffffffffffffffffff16815260200190815260200160002060009054906101000a900460ff16905092915050565b6000801b611464816119d7565b61148e7f9894090c012e113e817b2d99a7f6ad3e666491f10820f12b8bc4b139f2ea06bb83611acc565b8173ffffffffffffffffffffffffffffffffffffffff163373ffffffffffffffffffffffffffffffffffffffff167feca259f65afeb664520e27bcf53a29a7a276df0172960fd342f01ff705ba3b9560405160405180910390a35050565b60007f7965db0b000000000000000000000000000000000000000000000000000000007bffffffffffffffffffffffffffffffffffffffffffffffffffffffff1916827bffffffffffffffffffffffffffffffffffffffffffffffffffffffff1916148061155f575061155e82612049565b5b9050919050565b60008073ffffffffffffffffffffffffffffffffffffffff166002600084815260200190815260200160002060009054906101000a900473ffffffffffffffffffffffffffffffffffffffff1673ffffffffffffffffffffffffffffffffffffffff1614159050919050565b600033905090565b816004600083815260200190815260200160002060006101000a81548173ffffffffffffffffffffffffffffffffffffffff021916908373ffffffffffffffffffffffffffffffffffffffff160217905550808273ffffffffffffffffffffffffffffffffffffffff1661164d83610f02565b73ffffffffffffffffffffffffffffffffffffffff167f8c5be1e5ebec7d5bd14f71427d1e84f3dd0314c0f7b2291e5b200ac8c7c3b92560405160405180910390a45050565b600061169e82611566565b6116dd576040517f08c379a00000000000000000000000000000000000000000000000000000000081526004016116d49061420c565b60405180910390fd5b60006116e883610f02565b90508073ffffffffffffffffffffffffffffffffffffffff168473ffffffffffffffffffffffffffffffffffffffff16148061172a575061172981856113c3565b5b8061176857508373ffffffffffffffffffffffffffffffffffffffff166117508461077d565b73ffffffffffffffffffffffffffffffffffffffff16145b91505092915050565b8273ffffffffffffffffffffffffffffffffffffffff1661179182610f02565b73ffffffffffffffffffffffffffffffffffffffff16146117e7576040517f08c379a00000000000000000000000000000000000000000000000000000000081526004016117de9061429e565b60405180910390fd5b600073ffffffffffffffffffffffffffffffffffffffff168273ffffffffffffffffffffffffffffffffffffffff1603611856576040517f08c379a000000000000000000000000000000000000000000000000000000000815260040161184d90614330565b60405180910390fd5b6118618383836120c3565b61186c6000826115da565b6001600360008573ffffffffffffffffffffffffffffffffffffffff1673ffffffffffffffffffffffffffffffffffffffff16815260200190815260200160002060008282546118bc9190613ea7565b925050819055506001600360008473ffffffffffffffffffffffffffffffffffffffff1673ffffffffffffffffffffffffffffffffffffffff16815260200190815260200160002060008282546119139190614350565b92505081905550816002600083815260200190815260200160002060006101000a81548173ffffffffffffffffffffffffffffffffffffffff021916908373ffffffffffffffffffffffffffffffffffffffff160217905550808273ffffffffffffffffffffffffffffffffffffffff168473ffffffffffffffffffffffffffffffffffffffff167fddf252ad1be2c89b69c2b068fc378daa952ba7f163c4a11628f55a4df523b3ef60405160405180910390a46119d283838361211b565b505050565b6119e8816119e36115d2565b612120565b50565b6119f582826110bd565b611ac8576001600c600084815260200190815260200160002060000160008373ffffffffffffffffffffffffffffffffffffffff1673ffffffffffffffffffffffffffffffffffffffff16815260200190815260200160002060006101000a81548160ff021916908315150217905550611a6d6115d2565b73ffffffffffffffffffffffffffffffffffffffff168173ffffffffffffffffffffffffffffffffffffffff16837f2f8788117e7eff1d82e926ec794901d17c78024a50270940304540a733656f0d60405160405180910390a45b5050565b611ad682826110bd565b15611baa576000600c600084815260200190815260200160002060000160008373ffffffffffffffffffffffffffffffffffffffff1673ffffffffffffffffffffffffffffffffffffffff16815260200190815260200160002060006101000a81548160ff021916908315150217905550611b4f6115d2565b73ffffffffffffffffffffffffffffffffffffffff168173ffffffffffffffffffffffffffffffffffffffff16837ff6391f5c32d9c69d2a47ea670b442974b53935d1edc7fd64eb21e047a839171b60405160405180910390a45b5050565b611bb6610eeb565b611bf5576040517f08c379a0000000000000000000000000000000000000000000000000000000008152600401611bec906143f2565b60405180910390fd5b6000600b60006101000a81548160ff0219169083151502179055507f5db9ee0a495bf2e6ff9c91a7834c1ba4fdd244a5e8aa4e537bd38aeae4b073aa611c396115d2565b604051611c469190613492565b60405180910390a1565b611c59816121bd565b50565b611c64610eeb565b15611ca4576040517f08c379a0000000000000000000000000000000000000000000000000000000008152600401611c9b9061445e565b60405180910390fd5b6001600b60006101000a81548160ff0219169083151502179055507f62e78cea01bee320cd4e420270b5ea74000d11b0c9f74754ebdbfc544b05a258611ce86115d2565b604051611cf59190613492565b60405180910390a1565b8173ffffffffffffffffffffffffffffffffffffffff168373ffffffffffffffffffffffffffffffffffffffff1603611d6d576040517f08c379a0000000000000000000000000000000000000000000000000000000008152600401611d64906144ca565b60405180910390fd5b80600560008573ffffffffffffffffffffffffffffffffffffffff1673ffffffffffffffffffffffffffffffffffffffff16815260200190815260200160002060008473ffffffffffffffffffffffffffffffffffffffff1673ffffffffffffffffffffffffffffffffffffffff16815260200190815260200160002060006101000a81548160ff0219169083151502179055508173ffffffffffffffffffffffffffffffffffffffff168373ffffffffffffffffffffffffffffffffffffffff167f17307eab39ab6107e8899845ad3d59bd9653f200f220920489ca2b5937696c3183604051611e5e9190613318565b60405180910390a3505050565b6000611e77600d612210565b9050611e83600d61221e565b611e8d8382612234565b611e978183612252565b505050565b611ea7848484611771565b611eb3848484846122bf565b611ef2576040517f08c379a0000000000000000000000000000000000000000000000000000000008152600401611ee99061455c565b60405180910390fd5b50505050565b6060611f0382611566565b611f42576040517f08c379a0000000000000000000000000000000000000000000000000000000008152600401611f39906145ee565b60405180910390fd5b6000600a60008481526020019081526020016000208054611f6290613a49565b80601f0160208091040260200160405190810160405280929190818152602001828054611f8e90613a49565b8015611fdb5780601f10611fb057610100808354040283529160200191611fdb565b820191906000526020600020905b815481529060010190602001808311611fbe57829003601f168201915b505050505090506000611fec612446565b90506000815103612001578192505050612044565b60008251111561203657808260405160200161201e92919061464a565b60405160208183030381529060405292505050612044565b61203f8461245d565b925050505b919050565b60007f780e9d63000000000000000000000000000000000000000000000000000000007bffffffffffffffffffffffffffffffffffffffffffffffffffffffff1916827bffffffffffffffffffffffffffffffffffffffffffffffffffffffff191614806120bc57506120bb82612504565b5b9050919050565b6120cb610eeb565b1561210b576040517f08c379a00000000000000000000000000000000000000000000000000000000081526004016121029061445e565b60405180910390fd5b6121168383836125e6565b505050565b505050565b61212a82826110bd565b6121b95761214f8173ffffffffffffffffffffffffffffffffffffffff1660146126f8565b61215d8360001c60206126f8565b60405160200161216e929190614706565b6040516020818303038152906040526040517f08c379a00000000000000000000000000000000000000000000000000000000081526004016121b091906133cc565b60405180910390fd5b5050565b6121c681612934565b6000600a600083815260200190815260200160002080546121e690613a49565b90501461220d57600a6000828152602001908152602001600020600061220c9190613207565b5b50565b600081600001549050919050565b6001816000016000828254019250508190555050565b61224e828260405180602001604052806000815250612a51565b5050565b61225b82611566565b61229a576040517f08c379a0000000000000000000000000000000000000000000000000000000008152600401612291906147b2565b60405180910390fd5b80600a600084815260200190815260200160002090816122ba919061497e565b505050565b60006122e08473ffffffffffffffffffffffffffffffffffffffff16612aac565b15612439578373ffffffffffffffffffffffffffffffffffffffff1663150b7a026123096115d2565b8786866040518563ffffffff1660e01b815260040161232b9493929190614aa5565b6020604051808303816000875af192505050801561236757506040513d601f19601f820116820180604052508101906123649190614b06565b60015b6123e9573d8060008114612397576040519150601f19603f3d011682016040523d82523d6000602084013e61239c565b606091505b5060008151036123e1576040517f08c379a00000000000000000000000000000000000000000000000000000000081526004016123d89061455c565b60405180910390fd5b805181602001fd5b63150b7a0260e01b7bffffffffffffffffffffffffffffffffffffffffffffffffffffffff1916817bffffffffffffffffffffffffffffffffffffffffffffffffffffffff19161491505061243e565b600190505b949350505050565b606060405180602001604052806000815250905090565b606061246882611566565b6124a7576040517f08c379a000000000000000000000000000000000000000000000000000000000815260040161249e90614ba5565b60405180910390fd5b60006124b1612446565b905060008151116124d157604051806020016040528060008152506124fc565b806124db84612acf565b6040516020016124ec92919061464a565b6040516020818303038152906040525b915050919050565b60007f80ac58cd000000000000000000000000000000000000000000000000000000007bffffffffffffffffffffffffffffffffffffffffffffffffffffffff1916827bffffffffffffffffffffffffffffffffffffffffffffffffffffffff191614806125cf57507f5b5e139f000000000000000000000000000000000000000000000000000000007bffffffffffffffffffffffffffffffffffffffffffffffffffffffff1916827bffffffffffffffffffffffffffffffffffffffffffffffffffffffff1916145b806125df57506125de82612c2f565b5b9050919050565b6125f1838383612c99565b600073ffffffffffffffffffffffffffffffffffffffff168373ffffffffffffffffffffffffffffffffffffffff16036126335761262e81612c9e565b612672565b8173ffffffffffffffffffffffffffffffffffffffff168373ffffffffffffffffffffffffffffffffffffffff1614612671576126708382612ce7565b5b5b600073ffffffffffffffffffffffffffffffffffffffff168273ffffffffffffffffffffffffffffffffffffffff16036126b4576126af81612e54565b6126f3565b8273ffffffffffffffffffffffffffffffffffffffff168273ffffffffffffffffffffffffffffffffffffffff16146126f2576126f18282612f25565b5b5b505050565b60606000600283600261270b9190614bc5565b6127159190614350565b67ffffffffffffffff81111561272e5761272d613742565b5b6040519080825280601f01601f1916602001820160405280156127605781602001600182028036833780820191505090505b5090507f30000000000000000000000000000000000000000000000000000000000000008160008151811061279857612797613edb565b5b60200101907effffffffffffffffffffffffffffffffffffffffffffffffffffffffffffff1916908160001a9053507f7800000000000000000000000000000000000000000000000000000000000000816001815181106127fc576127fb613edb565b5b60200101907effffffffffffffffffffffffffffffffffffffffffffffffffffffffffffff1916908160001a9053506000600184600261283c9190614bc5565b6128469190614350565b90505b60018111156128e6577f3031323334353637383961626364656600000000000000000000000000000000600f86166010811061288857612887613edb565b5b1a60f81b82828151811061289f5761289e613edb565b5b60200101907effffffffffffffffffffffffffffffffffffffffffffffffffffffffffffff1916908160001a905350600485901c9450806128df90614c1f565b9050612849565b506000841461292a576040517f08c379a000000000000000000000000000000000000000000000000000000000815260040161292190614c94565b60405180910390fd5b8091505092915050565b600061293f82610f02565b905061294d816000846120c3565b6129586000836115da565b6001600360008373ffffffffffffffffffffffffffffffffffffffff1673ffffffffffffffffffffffffffffffffffffffff16815260200190815260200160002060008282546129a89190613ea7565b925050819055506002600083815260200190815260200160002060006101000a81549073ffffffffffffffffffffffffffffffffffffffff021916905581600073ffffffffffffffffffffffffffffffffffffffff168273ffffffffffffffffffffffffffffffffffffffff167fddf252ad1be2c89b69c2b068fc378daa952ba7f163c4a11628f55a4df523b3ef60405160405180910390a4612a4d8160008461211b565b5050565b612a5b8383612fa4565b612a6860008484846122bf565b612aa7576040517f08c379a0000000000000000000000000000000000000000000000000000000008152600401612a9e9061455c565b60405180910390fd5b505050565b6000808273ffffffffffffffffffffffffffffffffffffffff163b119050919050565b606060008203612b16576040518060400160405280600181526020017f30000000000000000000000000000000000000000000000000000000000000008152509050612c2a565b600082905060005b60008214612b48578080612b3190613f0a565b915050600a82612b419190614ce3565b9150612b1e565b60008167ffffffffffffffff811115612b6457612b63613742565b5b6040519080825280601f01601f191660200182016040528015612b965781602001600182028036833780820191505090505b5090505b60008514612c2357600182612baf9190613ea7565b9150600a85612bbe9190614d14565b6030612bca9190614350565b60f81b818381518110612be057612bdf613edb565b5b60200101907effffffffffffffffffffffffffffffffffffffffffffffffffffffffffffff1916908160001a905350600a85612c1c9190614ce3565b9450612b9a565b8093505050505b919050565b60007f01ffc9a7000000000000000000000000000000000000000000000000000000007bffffffffffffffffffffffffffffffffffffffffffffffffffffffff1916827bffffffffffffffffffffffffffffffffffffffffffffffffffffffff1916149050919050565b505050565b6008805490506009600083815260200190815260200160002081905550600881908060018154018082558091505060019003906000526020600020016000909190919091505550565b60006001612cf484610fb3565b612cfe9190613ea7565b9050600060076000848152602001908152602001600020549050818114612de3576000600660008673ffffffffffffffffffffffffffffffffffffffff1673ffffffffffffffffffffffffffffffffffffffff168152602001908152602001600020600084815260200190815260200160002054905080600660008773ffffffffffffffffffffffffffffffffffffffff1673ffffffffffffffffffffffffffffffffffffffff168152602001908152602001600020600084815260200190815260200160002081905550816007600083815260200190815260200160002081905550505b6007600084815260200190815260200160002060009055600660008573ffffffffffffffffffffffffffffffffffffffff1673ffffffffffffffffffffffffffffffffffffffff16815260200190815260200160002060008381526020019081526020016000206000905550505050565b60006001600880549050612e689190613ea7565b9050600060096000848152602001908152602001600020549050600060088381548110612e9857612e97613edb565b5b906000526020600020015490508060088381548110612eba57612eb9613edb565b5b906000526020600020018190555081600960008381526020019081526020016000208190555060096000858152602001908152602001600020600090556008805480612f0957612f08614d45565b5b6001900381819060005260206000200160009055905550505050565b6000612f3083610fb3565b905081600660008573ffffffffffffffffffffffffffffffffffffffff1673ffffffffffffffffffffffffffffffffffffffff168152602001908152602001600020600083815260200190815260200160002081905550806007600084815260200190815260200160002081905550505050565b600073ffffffffffffffffffffffffffffffffffffffff168273ffffffffffffffffffffffffffffffffffffffff1603613013576040517f08c379a000000000000000000000000000000000000000000000000000000000815260040161300a90614dc0565b60405180910390fd5b61301c81611566565b1561305c576040517f08c379a000000000000000000000000000000000000000000000000000000000815260040161305390614e2c565b60405180910390fd5b613068600083836120c3565b6001600360008473ffffffffffffffffffffffffffffffffffffffff1673ffffffffffffffffffffffffffffffffffffffff16815260200190815260200160002060008282546130b89190614350565b92505081905550816002600083815260200190815260200160002060006101000a81548173ffffffffffffffffffffffffffffffffffffffff021916908373ffffffffffffffffffffffffffffffffffffffff160217905550808273ffffffffffffffffffffffffffffffffffffffff16600073ffffffffffffffffffffffffffffffffffffffff167fddf252ad1be2c89b69c2b068fc378daa952ba7f163c4a11628f55a4df523b3ef60405160405180910390a46131796000838361211b565b5050565b8280548282559060005260206000209081019282156131f6579160200282015b828111156131f55782518260006101000a81548173ffffffffffffffffffffffffffffffffffffffff021916908373ffffffffffffffffffffffffffffffffffffffff1602179055509160200191906001019061319d565b5b5090506132039190613247565b5090565b50805461321390613a49565b6000825580601f106132255750613244565b601f0160209004906000526020600020908101906132439190613247565b5b50565b5b80821115613260576000816000905550600101613248565b5090565b6000604051905090565b600080fd5b600080fd5b60007fffffffff0000000000000000000000000000000000000000000000000000000082169050919050565b6132ad81613278565b81146132b857600080fd5b50565b6000813590506132ca816132a4565b92915050565b6000602082840312156132e6576132e561326e565b5b60006132f4848285016132bb565b91505092915050565b60008115159050919050565b613312816132fd565b82525050565b600060208201905061332d6000830184613309565b92915050565b600081519050919050565b600082825260208201905092915050565b60005b8381101561336d578082015181840152602081019050613352565b8381111561337c576000848401525b50505050565b6000601f19601f8301169050919050565b600061339e82613333565b6133a8818561333e565b93506133b881856020860161334f565b6133c181613382565b840191505092915050565b600060208201905081810360008301526133e68184613393565b905092915050565b6000819050919050565b613401816133ee565b811461340c57600080fd5b50565b60008135905061341e816133f8565b92915050565b60006020828403121561343a5761343961326e565b5b60006134488482850161340f565b91505092915050565b600073ffffffffffffffffffffffffffffffffffffffff82169050919050565b600061347c82613451565b9050919050565b61348c81613471565b82525050565b60006020820190506134a76000830184613483565b92915050565b6134b681613471565b81146134c157600080fd5b50565b6000813590506134d3816134ad565b92915050565b600080604083850312156134f0576134ef61326e565b5b60006134fe858286016134c4565b925050602061350f8582860161340f565b9150509250929050565b600061352482613451565b9050919050565b61353481613519565b82525050565b600060208201905061354f600083018461352b565b92915050565b61355e816133ee565b82525050565b60006020820190506135796000830184613555565b92915050565b6000806000606084860312156135985761359761326e565b5b60006135a6868287016134c4565b93505060206135b7868287016134c4565b92505060406135c88682870161340f565b9150509250925092565b6000819050919050565b6135e5816135d2565b81146135f057600080fd5b50565b600081359050613602816135dc565b92915050565b60006020828403121561361e5761361d61326e565b5b600061362c848285016135f3565b91505092915050565b61363e816135d2565b82525050565b60006020820190506136596000830184613635565b92915050565b600080604083850312156136765761367561326e565b5b6000613684858286016135f3565b9250506020613695858286016134c4565b9150509250929050565b6000602082840312156136b5576136b461326e565b5b60006136c3848285016134c4565b91505092915050565b6136d5816132fd565b81146136e057600080fd5b50565b6000813590506136f2816136cc565b92915050565b6000806040838503121561370f5761370e61326e565b5b600061371d858286016134c4565b925050602061372e858286016136e3565b9150509250929050565b600080fd5b600080fd5b7f4e487b7100000000000000000000000000000000000000000000000000000000600052604160045260246000fd5b61377a82613382565b810181811067ffffffffffffffff8211171561379957613798613742565b5b80604052505050565b60006137ac613264565b90506137b88282613771565b919050565b600067ffffffffffffffff8211156137d8576137d7613742565b5b6137e182613382565b9050602081019050919050565b82818337600083830152505050565b600061381061380b846137bd565b6137a2565b90508281526020810184848401111561382c5761382b61373d565b5b6138378482856137ee565b509392505050565b600082601f83011261385457613853613738565b5b81356138648482602086016137fd565b91505092915050565b6000602082840312156138835761388261326e565b5b600082013567ffffffffffffffff8111156138a1576138a0613273565b5b6138ad8482850161383f565b91505092915050565b600067ffffffffffffffff8211156138d1576138d0613742565b5b6138da82613382565b9050602081019050919050565b60006138fa6138f5846138b6565b6137a2565b9050828152602081018484840111156139165761391561373d565b5b6139218482856137ee565b509392505050565b600082601f83011261393e5761393d613738565b5b813561394e8482602086016138e7565b91505092915050565b600080600080608085870312156139715761397061326e565b5b600061397f878288016134c4565b9450506020613990878288016134c4565b93505060406139a18782880161340f565b925050606085013567ffffffffffffffff8111156139c2576139c1613273565b5b6139ce87828801613929565b91505092959194509250565b600080604083850312156139f1576139f061326e565b5b60006139ff858286016134c4565b9250506020613a10858286016134c4565b9150509250929050565b7f4e487b7100000000000000000000000000000000000000000000000000000000600052602260045260246000fd5b60006002820490506001821680613a6157607f821691505b602082108103613a7457613a73613a1a565b5b50919050565b7f4552433732313a20617070726f76656420717565727920666f72206e6f6e657860008201527f697374656e7420746f6b656e0000000000000000000000000000000000000000602082015250565b6000613ad6602c8361333e565b9150613ae182613a7a565b604082019050919050565b60006020820190508181036000830152613b0581613ac9565b9050919050565b7f4552433732313a20617070726f76616c20746f2063757272656e74206f776e6560008201527f7200000000000000000000000000000000000000000000000000000000000000602082015250565b6000613b6860218361333e565b9150613b7382613b0c565b604082019050919050565b60006020820190508181036000830152613b9781613b5b565b9050919050565b7f4552433732313a20617070726f76652063616c6c6572206973206e6f74206f7760008201527f6e6572206e6f7220617070726f76656420666f7220616c6c0000000000000000602082015250565b6000613bfa60388361333e565b9150613c0582613b9e565b604082019050919050565b60006020820190508181036000830152613c2981613bed565b9050919050565b7f4552433732313a207472616e736665722063616c6c6572206973206e6f74206f60008201527f776e6572206e6f7220617070726f766564000000000000000000000000000000602082015250565b6000613c8c60318361333e565b9150613c9782613c30565b604082019050919050565b60006020820190508181036000830152613cbb81613c7f565b9050919050565b7f455243373231456e756d657261626c653a206f776e657220696e646578206f7560008201527f74206f6620626f756e6473000000000000000000000000000000000000000000602082015250565b6000613d1e602b8361333e565b9150613d2982613cc2565b604082019050919050565b60006020820190508181036000830152613d4d81613d11565b9050919050565b7f416363657373436f6e74726f6c3a2063616e206f6e6c792072656e6f756e636560008201527f20726f6c657320666f722073656c660000000000000000000000000000000000602082015250565b6000613db0602f8361333e565b9150613dbb82613d54565b604082019050919050565b60006020820190508181036000830152613ddf81613da3565b9050919050565b7f4552433732314275726e61626c653a2063616c6c6572206973206e6f74206f7760008201527f6e6572206e6f7220617070726f76656400000000000000000000000000000000602082015250565b6000613e4260308361333e565b9150613e4d82613de6565b604082019050919050565b60006020820190508181036000830152613e7181613e35565b9050919050565b7f4e487b7100000000000000000000000000000000000000000000000000000000600052601160045260246000fd5b6000613eb2826133ee565b9150613ebd836133ee565b925082821015613ed057613ecf613e78565b5b828203905092915050565b7f4e487b7100000000000000000000000000000000000000000000000000000000600052603260045260246000fd5b6000613f15826133ee565b91507fffffffffffffffffffffffffffffffffffffffffffffffffffffffffffffffff8203613f4757613f46613e78565b5b600182019050919050565b7f455243373231456e756d657261626c653a20676c6f62616c20696e646578206f60008201527f7574206f6620626f756e64730000000000000000000000000000000000000000602082015250565b6000613fae602c8361333e565b9150613fb982613f52565b604082019050919050565b60006020820190508181036000830152613fdd81613fa1565b9050919050565b7f4552433732313a206f776e657220717565727920666f72206e6f6e657869737460008201527f656e7420746f6b656e0000000000000000000000000000000000000000000000602082015250565b600061404060298361333e565b915061404b82613fe4565b604082019050919050565b6000602082019050818103600083015261406f81614033565b9050919050565b7f4552433732313a2062616c616e636520717565727920666f7220746865207a6560008201527f726f206164647265737300000000000000000000000000000000000000000000602082015250565b60006140d2602a8361333e565b91506140dd82614076565b604082019050919050565b60006020820190508181036000830152614101816140c5565b9050919050565b7f546865206d696e74696e6720686173206265656e20646f6e6520636f7272656360008201527f746c792e00000000000000000000000000000000000000000000000000000000602082015250565b600061416460248361333e565b915061416f82614108565b604082019050919050565b6000602082019050818103600083015261419381614157565b9050919050565b7f4552433732313a206f70657261746f7220717565727920666f72206e6f6e657860008201527f697374656e7420746f6b656e0000000000000000000000000000000000000000602082015250565b60006141f6602c8361333e565b91506142018261419a565b604082019050919050565b60006020820190508181036000830152614225816141e9565b9050919050565b7f4552433732313a207472616e736665722066726f6d20696e636f72726563742060008201527f6f776e6572000000000000000000000000000000000000000000000000000000602082015250565b600061428860258361333e565b91506142938261422c565b604082019050919050565b600060208201905081810360008301526142b78161427b565b9050919050565b7f4552433732313a207472616e7366657220746f20746865207a65726f2061646460008201527f7265737300000000000000000000000000000000000000000000000000000000602082015250565b600061431a60248361333e565b9150614325826142be565b604082019050919050565b600060208201905081810360008301526143498161430d565b9050919050565b600061435b826133ee565b9150614366836133ee565b9250827fffffffffffffffffffffffffffffffffffffffffffffffffffffffffffffffff0382111561439b5761439a613e78565b5b828201905092915050565b7f5061757361626c653a206e6f7420706175736564000000000000000000000000600082015250565b60006143dc60148361333e565b91506143e7826143a6565b602082019050919050565b6000602082019050818103600083015261440b816143cf565b9050919050565b7f5061757361626c653a2070617573656400000000000000000000000000000000600082015250565b600061444860108361333e565b915061445382614412565b602082019050919050565b600060208201905081810360008301526144778161443b565b9050919050565b7f4552433732313a20617070726f766520746f2063616c6c657200000000000000600082015250565b60006144b460198361333e565b91506144bf8261447e565b602082019050919050565b600060208201905081810360008301526144e3816144a7565b9050919050565b7f4552433732313a207472616e7366657220746f206e6f6e20455243373231526560008201527f63656976657220696d706c656d656e7465720000000000000000000000000000602082015250565b600061454660328361333e565b9150614551826144ea565b604082019050919050565b6000602082019050818103600083015261457581614539565b9050919050565b7f45524337323155524953746f726167653a2055524920717565727920666f722060008201527f6e6f6e6578697374656e7420746f6b656e000000000000000000000000000000602082015250565b60006145d860318361333e565b91506145e38261457c565b604082019050919050565b60006020820190508181036000830152614607816145cb565b9050919050565b600081905092915050565b600061462482613333565b61462e818561460e565b935061463e81856020860161334f565b80840191505092915050565b60006146568285614619565b91506146628284614619565b91508190509392505050565b7f416363657373436f6e74726f6c3a206163636f756e7420000000000000000000600082015250565b60006146a460178361460e565b91506146af8261466e565b601782019050919050565b7f206973206d697373696e6720726f6c6520000000000000000000000000000000600082015250565b60006146f060118361460e565b91506146fb826146ba565b601182019050919050565b600061471182614697565b915061471d8285614619565b9150614728826146e3565b91506147348284614619565b91508190509392505050565b7f45524337323155524953746f726167653a2055524920736574206f66206e6f6e60008201527f6578697374656e7420746f6b656e000000000000000000000000000000000000602082015250565b600061479c602e8361333e565b91506147a782614740565b604082019050919050565b600060208201905081810360008301526147cb8161478f565b9050919050565b60008190508160005260206000209050919050565b60006020601f8301049050919050565b600082821b905092915050565b6000600883026148347fffffffffffffffffffffffffffffffffffffffffffffffffffffffffffffffff826147f7565b61483e86836147f7565b95508019841693508086168417925050509392505050565b6000819050919050565b600061487b614876614871846133ee565b614856565b6133ee565b9050919050565b6000819050919050565b61489583614860565b6148a96148a182614882565b848454614804565b825550505050565b600090565b6148be6148b1565b6148c981848461488c565b505050565b5b818110156148ed576148e26000826148b6565b6001810190506148cf565b5050565b601f82111561493257614903816147d2565b61490c846147e7565b8101602085101561491b578190505b61492f614927856147e7565b8301826148ce565b50505b505050565b600082821c905092915050565b600061495560001984600802614937565b1980831691505092915050565b600061496e8383614944565b9150826002028217905092915050565b61498782613333565b67ffffffffffffffff8111156149a05761499f613742565b5b6149aa8254613a49565b6149b58282856148f1565b600060209050601f8311600181146149e857600084156149d6578287015190505b6149e08582614962565b865550614a48565b601f1984166149f6866147d2565b60005b82811015614a1e578489015182556001820191506020850194506020810190506149f9565b86831015614a3b5784890151614a37601f891682614944565b8355505b6001600288020188555050505b505050505050565b600081519050919050565b600082825260208201905092915050565b6000614a7782614a50565b614a818185614a5b565b9350614a9181856020860161334f565b614a9a81613382565b840191505092915050565b6000608082019050614aba6000830187613483565b614ac76020830186613483565b614ad46040830185613555565b8181036060830152614ae68184614a6c565b905095945050505050565b600081519050614b00816132a4565b92915050565b600060208284031215614b1c57614b1b61326e565b5b6000614b2a84828501614af1565b91505092915050565b7f4552433732314d657461646174613a2055524920717565727920666f72206e6f60008201527f6e6578697374656e7420746f6b656e0000000000000000000000000000000000602082015250565b6000614b8f602f8361333e565b9150614b9a82614b33565b604082019050919050565b60006020820190508181036000830152614bbe81614b82565b9050919050565b6000614bd0826133ee565b9150614bdb836133ee565b9250817fffffffffffffffffffffffffffffffffffffffffffffffffffffffffffffffff0483118215151615614c1457614c13613e78565b5b828202905092915050565b6000614c2a826133ee565b915060008203614c3d57614c3c613e78565b5b600182039050919050565b7f537472696e67733a20686578206c656e67746820696e73756666696369656e74600082015250565b6000614c7e60208361333e565b9150614c8982614c48565b602082019050919050565b60006020820190508181036000830152614cad81614c71565b9050919050565b7f4e487b7100000000000000000000000000000000000000000000000000000000600052601260045260246000fd5b6000614cee826133ee565b9150614cf9836133ee565b925082614d0957614d08614cb4565b5b828204905092915050565b6000614d1f826133ee565b9150614d2a836133ee565b925082614d3a57614d39614cb4565b5b828206905092915050565b7f4e487b7100000000000000000000000000000000000000000000000000000000600052603160045260246000fd5b7f4552433732313a206d696e7420746f20746865207a65726f2061646472657373600082015250565b6000614daa60208361333e565b9150614db582614d74565b602082019050919050565b60006020820190508181036000830152614dd981614d9d565b9050919050565b7f4552433732313a20746f6b656e20616c7265616479206d696e74656400000000600082015250565b6000614e16601c8361333e565b9150614e2182614de0565b602082019050919050565b60006020820190508181036000830152614e4581614e09565b905091905056fea264697066735822122097a1aba3cec1c531f64da23e38c0804030da2dc4cec8576d3294e46c17b445cf64736f6c634300080f0033",
  "immutableReferences": {},
  "source": "// SPDX-License-Identifier: MIT\npragma solidity ^0.8.4;\n\nimport \"@openzeppelin/contracts/token/ERC721/ERC721.sol\";\nimport \"@openzeppelin/contracts/token/ERC721/extensions/ERC721Enumerable.sol\";\nimport \"@openzeppelin/contracts/token/ERC721/extensions/ERC721URIStorage.sol\";\nimport \"@openzeppelin/contracts/security/Pausable.sol\";\nimport \"@openzeppelin/contracts/access/AccessControl.sol\";\nimport \"@openzeppelin/contracts/token/ERC721/extensions/ERC721Burnable.sol\";\nimport \"@openzeppelin/contracts/utils/Counters.sol\";\n\ncontract STRMMatchTickets is \n    ERC721, \n    ERC721Enumerable, \n    ERC721URIStorage, \n    Pausable, \n    AccessControl, \n    ERC721Burnable\n{\n    using Counters for Counters.Counter;\n\n    bytes32 public constant ADMIN_CLUB_ROLE = keccak256(\"ADMIN_CLUB_ROLE\");\n    Counters.Counter private _matchIdCounter;\n\n    address[] public listSubscriber;\n\n    address payable public club;\n    address public newOwner;\n\n    uint private basePrice;\n    bool private activeContract;\n\n    event Status(string _message);\n    event MsgInfoAccountListOk(string _message, address indexed account);\n    event MsgInfoAccountListKo(string _message, address indexed account);\n    event MsgInfoMinted(string _message, address indexed account);\n    event ClubAdminRoleGranted(address indexed sender, address indexed clubAddress);\n    event ClubAdminRoleRevoked(address indexed sender, address indexed clubAddress);\n\n    struct MatchTransactionTicket{\n        address account;\n        string typeTicket;\n        uint price;\n        //entrada?\n    }\n\n    constructor() ERC721(\"Match Ticket\", \"MTC\"){\n        _grantRole(DEFAULT_ADMIN_ROLE, msg.sender);\n        _grantRole(ADMIN_CLUB_ROLE, msg.sender);\n        //uri=ipfs://bafkreic3xz5cssins4ihcyoo27kcmflwmgqvpbm2stpr3xfxxnsykgkali/season\n        activeContract = true;\n    }\n\n    function pause() public onlyRole(ADMIN_CLUB_ROLE) {\n        _pause();\n    }\n\n    function unpause() public onlyRole(ADMIN_CLUB_ROLE) {\n        _unpause();\n    }\n\n    function mint(address to, string memory uri) private {\n        uint256 matchId = _matchIdCounter.current();\n        _matchIdCounter.increment();\n        _safeMint(to, matchId);\n        _setTokenURI(matchId, uri);\n    }\n\n    //The tokens for each of the matches are minted to the list of subscribers\n    function mintMatch(string memory uri) public onlyRole(ADMIN_CLUB_ROLE) {\n       //uri=ipfs://bafkreic3xz5cssins4ihcyoo27kcmflwmgqvpbm2stpr3xfxxnsykgkali/season\n        for (uint i = 0; i<listSubscriber.length-1; i++){\n            mint(listSubscriber[i], uri);\n        }\n        emit MsgInfoMinted(\"The minting has been done correctly.\", msg.sender);\n    }\n\n    function _beforeTokenTransfer(address from, address to, uint256 matchId)\n        internal\n        whenNotPaused\n        override(ERC721, ERC721Enumerable)\n    {\n        super._beforeTokenTransfer(from, to, matchId);\n    }\n\n    function _burn(uint256 matchId) internal override(ERC721, ERC721URIStorage) {\n        super._burn(matchId);\n    }\n\n    function tokenURI(uint256 matchId)\n        public\n        view\n        override(ERC721, ERC721URIStorage)\n        returns (string memory)\n    {\n        return super.tokenURI(matchId);\n    }\n\n    function supportsInterface(bytes4 interfaceId)\n        public\n        view\n        override(ERC721, ERC721Enumerable, AccessControl)\n        returns (bool)\n    {\n        return super.supportsInterface(interfaceId);\n    }\n\n    function grantAdminRol(address account) public onlyRole(DEFAULT_ADMIN_ROLE) {\n        _grantRole(DEFAULT_ADMIN_ROLE, account);\n    }\n\n    function grantClubRol(address account) public onlyRole(DEFAULT_ADMIN_ROLE) {\n        _grantRole(ADMIN_CLUB_ROLE, account);\n        emit ClubAdminRoleGranted(msg.sender, account);\n    }\n\n    function revokeClubRol(address account)\n        public\n        onlyRole(DEFAULT_ADMIN_ROLE)\n    {\n        _revokeRole(ADMIN_CLUB_ROLE, account);\n        emit ClubAdminRoleRevoked(msg.sender, account);\n    }\n\n    function addAddress(address account) public onlyRole(DEFAULT_ADMIN_ROLE) {\n        listSubscriber.push(account);\n        // for (uint i = 0; i<listSubscriber.length-1; i++){\n        //     if(listSubscriber[i] == account){\n        //         emit MsgInfoAccountListKo(\"The account/address was already registered.\", account);\n        //     } else {\n        //         listSubscriber.push(account);\n        //         emit MsgInfoAccountListOk(\"The account/address has been successfully registered.\", account);\n        //     }\n        // }\n    }\n\n    function removeAddress(address account) public onlyRole(DEFAULT_ADMIN_ROLE)  {\n        address[] memory listAuxSubscriber = new address[](listSubscriber.length-1);\n        uint index = 0;\n        for (uint256 i = 0; i < listSubscriber.length - 1; i++) {\n            if(listSubscriber[i] != account){\n                listAuxSubscriber[index] = account;\n                index ++;\n            } \n        }\n        listSubscriber = listAuxSubscriber;\n    }\n}\n",
  "sourcePath": "/Users/dosorio/Proyectos/Blockchain/CryptoTickets/contracts/STRMMatchTickets.sol",
  "compiler": {
    "name": "solc",
    "version": "0.8.15+commit.e14f2714.Emscripten.clang"
  },
  "schemaVersion": "3.4.7",
  "updatedAt": "2022-06-28T20:24:04.605Z",
  "networkType": "ethereum",
  "devdoc": {
    "kind": "dev",
    "methods": {
      "approve(address,uint256)": {
        "details": "See {IERC721-approve}."
      },
      "balanceOf(address)": {
        "details": "See {IERC721-balanceOf}."
      },
      "burn(uint256)": {
        "details": "Burns `tokenId`. See {ERC721-_burn}. Requirements: - The caller must own `tokenId` or be an approved operator."
      },
      "getApproved(uint256)": {
        "details": "See {IERC721-getApproved}."
      },
      "getRoleAdmin(bytes32)": {
        "details": "Returns the admin role that controls `role`. See {grantRole} and {revokeRole}. To change a role's admin, use {_setRoleAdmin}."
      },
      "grantRole(bytes32,address)": {
        "details": "Grants `role` to `account`. If `account` had not been already granted `role`, emits a {RoleGranted} event. Requirements: - the caller must have ``role``'s admin role."
      },
      "hasRole(bytes32,address)": {
        "details": "Returns `true` if `account` has been granted `role`."
      },
      "isApprovedForAll(address,address)": {
        "details": "See {IERC721-isApprovedForAll}."
      },
      "name()": {
        "details": "See {IERC721Metadata-name}."
      },
      "ownerOf(uint256)": {
        "details": "See {IERC721-ownerOf}."
      },
      "paused()": {
        "details": "Returns true if the contract is paused, and false otherwise."
      },
      "renounceRole(bytes32,address)": {
        "details": "Revokes `role` from the calling account. Roles are often managed via {grantRole} and {revokeRole}: this function's purpose is to provide a mechanism for accounts to lose their privileges if they are compromised (such as when a trusted device is misplaced). If the calling account had been revoked `role`, emits a {RoleRevoked} event. Requirements: - the caller must be `account`."
      },
      "revokeRole(bytes32,address)": {
        "details": "Revokes `role` from `account`. If `account` had been granted `role`, emits a {RoleRevoked} event. Requirements: - the caller must have ``role``'s admin role."
      },
      "safeTransferFrom(address,address,uint256)": {
        "details": "See {IERC721-safeTransferFrom}."
      },
      "safeTransferFrom(address,address,uint256,bytes)": {
        "details": "See {IERC721-safeTransferFrom}."
      },
      "setApprovalForAll(address,bool)": {
        "details": "See {IERC721-setApprovalForAll}."
      },
      "symbol()": {
        "details": "See {IERC721Metadata-symbol}."
      },
      "tokenByIndex(uint256)": {
        "details": "See {IERC721Enumerable-tokenByIndex}."
      },
      "tokenOfOwnerByIndex(address,uint256)": {
        "details": "See {IERC721Enumerable-tokenOfOwnerByIndex}."
      },
      "totalSupply()": {
        "details": "See {IERC721Enumerable-totalSupply}."
      },
      "transferFrom(address,address,uint256)": {
        "details": "See {IERC721-transferFrom}."
      }
    },
    "version": 1
  },
  "userdoc": {
    "kind": "user",
    "methods": {},
    "version": 1
  }
}