{
  "contractName": "STRMMembership",
  "abi": [
    {
      "inputs": [],
      "stateMutability": "nonpayable",
      "type": "constructor"
    },
    {
      "anonymous": false,
      "inputs": [
        {
          "indexed": true,
          "internalType": "address",
          "name": "owner",
          "type": "address"
        },
        {
          "indexed": true,
          "internalType": "address",
          "name": "approved",
          "type": "address"
        },
        {
          "indexed": true,
          "internalType": "uint256",
          "name": "tokenId",
          "type": "uint256"
        }
      ],
      "name": "Approval",
      "type": "event"
    },
    {
      "anonymous": false,
      "inputs": [
        {
          "indexed": true,
          "internalType": "address",
          "name": "owner",
          "type": "address"
        },
        {
          "indexed": true,
          "internalType": "address",
          "name": "operator",
          "type": "address"
        },
        {
          "indexed": false,
          "internalType": "bool",
          "name": "approved",
          "type": "bool"
        }
      ],
      "name": "ApprovalForAll",
      "type": "event"
    },
    {
      "anonymous": false,
      "inputs": [
        {
          "indexed": true,
          "internalType": "address",
          "name": "sender",
          "type": "address"
        },
        {
          "indexed": true,
          "internalType": "address",
          "name": "clubAddress",
          "type": "address"
        }
      ],
      "name": "ClubAdminRoleGranted",
      "type": "event"
    },
    {
      "anonymous": false,
      "inputs": [
        {
          "indexed": true,
          "internalType": "address",
          "name": "sender",
          "type": "address"
        },
        {
          "indexed": true,
          "internalType": "address",
          "name": "clubAddress",
          "type": "address"
        }
      ],
      "name": "ClubAdminRoleRevoked",
      "type": "event"
    },
    {
      "anonymous": false,
      "inputs": [
        {
          "indexed": true,
          "internalType": "address",
          "name": "sender",
          "type": "address"
        },
        {
          "indexed": true,
          "internalType": "address",
          "name": "receiber",
          "type": "address"
        },
        {
          "indexed": true,
          "internalType": "uint256",
          "name": "tokenId",
          "type": "uint256"
        },
        {
          "indexed": false,
          "internalType": "string",
          "name": "errorMessage",
          "type": "string"
        }
      ],
      "name": "ErrorTransferToken",
      "type": "event"
    },
    {
      "anonymous": false,
      "inputs": [
        {
          "indexed": true,
          "internalType": "address",
          "name": "sender",
          "type": "address"
        },
        {
          "indexed": true,
          "internalType": "address",
          "name": "membershipAddress",
          "type": "address"
        }
      ],
      "name": "MembershipRoleGranted",
      "type": "event"
    },
    {
      "anonymous": false,
      "inputs": [
        {
          "indexed": true,
          "internalType": "address",
          "name": "sender",
          "type": "address"
        },
        {
          "indexed": true,
          "internalType": "address",
          "name": "membershipAddress",
          "type": "address"
        }
      ],
      "name": "MembershipRoleRevoked",
      "type": "event"
    },
    {
      "anonymous": false,
      "inputs": [
        {
          "indexed": true,
          "internalType": "address",
          "name": "membershipId",
          "type": "address"
        },
        {
          "indexed": true,
          "internalType": "uint256",
          "name": "tokenId",
          "type": "uint256"
        },
        {
          "indexed": false,
          "internalType": "string",
          "name": "tokenURI",
          "type": "string"
        }
      ],
      "name": "MembershipTokenMinted",
      "type": "event"
    },
    {
      "anonymous": false,
      "inputs": [
        {
          "indexed": false,
          "internalType": "address",
          "name": "account",
          "type": "address"
        }
      ],
      "name": "Paused",
      "type": "event"
    },
    {
      "anonymous": false,
      "inputs": [
        {
          "indexed": true,
          "internalType": "bytes32",
          "name": "role",
          "type": "bytes32"
        },
        {
          "indexed": true,
          "internalType": "bytes32",
          "name": "previousAdminRole",
          "type": "bytes32"
        },
        {
          "indexed": true,
          "internalType": "bytes32",
          "name": "newAdminRole",
          "type": "bytes32"
        }
      ],
      "name": "RoleAdminChanged",
      "type": "event"
    },
    {
      "anonymous": false,
      "inputs": [
        {
          "indexed": true,
          "internalType": "bytes32",
          "name": "role",
          "type": "bytes32"
        },
        {
          "indexed": true,
          "internalType": "address",
          "name": "account",
          "type": "address"
        },
        {
          "indexed": true,
          "internalType": "address",
          "name": "sender",
          "type": "address"
        }
      ],
      "name": "RoleGranted",
      "type": "event"
    },
    {
      "anonymous": false,
      "inputs": [
        {
          "indexed": true,
          "internalType": "bytes32",
          "name": "role",
          "type": "bytes32"
        },
        {
          "indexed": true,
          "internalType": "address",
          "name": "account",
          "type": "address"
        },
        {
          "indexed": true,
          "internalType": "address",
          "name": "sender",
          "type": "address"
        }
      ],
      "name": "RoleRevoked",
      "type": "event"
    },
    {
      "anonymous": false,
      "inputs": [
        {
          "indexed": true,
          "internalType": "address",
          "name": "from",
          "type": "address"
        },
        {
          "indexed": true,
          "internalType": "address",
          "name": "to",
          "type": "address"
        },
        {
          "indexed": true,
          "internalType": "uint256",
          "name": "tokenId",
          "type": "uint256"
        }
      ],
      "name": "Transfer",
      "type": "event"
    },
    {
      "anonymous": false,
      "inputs": [
        {
          "indexed": false,
          "internalType": "address",
          "name": "account",
          "type": "address"
        }
      ],
      "name": "Unpaused",
      "type": "event"
    },
    {
      "inputs": [],
      "name": "CLUB_ADMIN_ROLE",
      "outputs": [
        {
          "internalType": "bytes32",
          "name": "",
          "type": "bytes32"
        }
      ],
      "stateMutability": "view",
      "type": "function",
      "constant": true
    },
    {
      "inputs": [],
      "name": "DEFAULT_ADMIN_ROLE",
      "outputs": [
        {
          "internalType": "bytes32",
          "name": "",
          "type": "bytes32"
        }
      ],
      "stateMutability": "view",
      "type": "function",
      "constant": true
    },
    {
      "inputs": [],
      "name": "MEMBERSHIP_ROLE",
      "outputs": [
        {
          "internalType": "bytes32",
          "name": "",
          "type": "bytes32"
        }
      ],
      "stateMutability": "view",
      "type": "function",
      "constant": true
    },
    {
      "inputs": [
        {
          "internalType": "address",
          "name": "to",
          "type": "address"
        },
        {
          "internalType": "uint256",
          "name": "tokenId",
          "type": "uint256"
        }
      ],
      "name": "approve",
      "outputs": [],
      "stateMutability": "nonpayable",
      "type": "function"
    },
    {
      "inputs": [
        {
          "internalType": "address",
          "name": "owner",
          "type": "address"
        }
      ],
      "name": "balanceOf",
      "outputs": [
        {
          "internalType": "uint256",
          "name": "",
          "type": "uint256"
        }
      ],
      "stateMutability": "view",
      "type": "function",
      "constant": true
    },
    {
      "inputs": [
        {
          "internalType": "uint256",
          "name": "tokenId",
          "type": "uint256"
        }
      ],
      "name": "burn",
      "outputs": [],
      "stateMutability": "nonpayable",
      "type": "function"
    },
    {
      "inputs": [
        {
          "internalType": "address",
          "name": "",
          "type": "address"
        }
      ],
      "name": "clubAdmins",
      "outputs": [
        {
          "internalType": "bool",
          "name": "",
          "type": "bool"
        }
      ],
      "stateMutability": "view",
      "type": "function",
      "constant": true
    },
    {
      "inputs": [
        {
          "internalType": "uint256",
          "name": "tokenId",
          "type": "uint256"
        }
      ],
      "name": "getApproved",
      "outputs": [
        {
          "internalType": "address",
          "name": "",
          "type": "address"
        }
      ],
      "stateMutability": "view",
      "type": "function",
      "constant": true
    },
    {
      "inputs": [
        {
          "internalType": "bytes32",
          "name": "role",
          "type": "bytes32"
        }
      ],
      "name": "getRoleAdmin",
      "outputs": [
        {
          "internalType": "bytes32",
          "name": "",
          "type": "bytes32"
        }
      ],
      "stateMutability": "view",
      "type": "function",
      "constant": true
    },
    {
      "inputs": [
        {
          "internalType": "bytes32",
          "name": "role",
          "type": "bytes32"
        },
        {
          "internalType": "address",
          "name": "account",
          "type": "address"
        }
      ],
      "name": "grantRole",
      "outputs": [],
      "stateMutability": "nonpayable",
      "type": "function"
    },
    {
      "inputs": [
        {
          "internalType": "bytes32",
          "name": "role",
          "type": "bytes32"
        },
        {
          "internalType": "address",
          "name": "account",
          "type": "address"
        }
      ],
      "name": "hasRole",
      "outputs": [
        {
          "internalType": "bool",
          "name": "",
          "type": "bool"
        }
      ],
      "stateMutability": "view",
      "type": "function",
      "constant": true
    },
    {
      "inputs": [
        {
          "internalType": "address",
          "name": "owner",
          "type": "address"
        },
        {
          "internalType": "address",
          "name": "operator",
          "type": "address"
        }
      ],
      "name": "isApprovedForAll",
      "outputs": [
        {
          "internalType": "bool",
          "name": "",
          "type": "bool"
        }
      ],
      "stateMutability": "view",
      "type": "function",
      "constant": true
    },
    {
      "inputs": [
        {
          "internalType": "address",
          "name": "",
          "type": "address"
        }
      ],
      "name": "memberships",
      "outputs": [
        {
          "internalType": "bool",
          "name": "",
          "type": "bool"
        }
      ],
      "stateMutability": "view",
      "type": "function",
      "constant": true
    },
    {
      "inputs": [
        {
          "internalType": "address",
          "name": "",
          "type": "address"
        }
      ],
      "name": "membershipsTokenMinted",
      "outputs": [
        {
          "internalType": "bool",
          "name": "",
          "type": "bool"
        }
      ],
      "stateMutability": "view",
      "type": "function",
      "constant": true
    },
    {
      "inputs": [],
      "name": "name",
      "outputs": [
        {
          "internalType": "string",
          "name": "",
          "type": "string"
        }
      ],
      "stateMutability": "view",
      "type": "function",
      "constant": true
    },
    {
      "inputs": [
        {
          "internalType": "uint256",
          "name": "tokenId",
          "type": "uint256"
        }
      ],
      "name": "ownerOf",
      "outputs": [
        {
          "internalType": "address",
          "name": "",
          "type": "address"
        }
      ],
      "stateMutability": "view",
      "type": "function",
      "constant": true
    },
    {
      "inputs": [],
      "name": "paused",
      "outputs": [
        {
          "internalType": "bool",
          "name": "",
          "type": "bool"
        }
      ],
      "stateMutability": "view",
      "type": "function",
      "constant": true
    },
    {
      "inputs": [
        {
          "internalType": "bytes32",
          "name": "role",
          "type": "bytes32"
        },
        {
          "internalType": "address",
          "name": "account",
          "type": "address"
        }
      ],
      "name": "renounceRole",
      "outputs": [],
      "stateMutability": "nonpayable",
      "type": "function"
    },
    {
      "inputs": [
        {
          "internalType": "bytes32",
          "name": "role",
          "type": "bytes32"
        },
        {
          "internalType": "address",
          "name": "account",
          "type": "address"
        }
      ],
      "name": "revokeRole",
      "outputs": [],
      "stateMutability": "nonpayable",
      "type": "function"
    },
    {
      "inputs": [
        {
          "internalType": "address",
          "name": "from",
          "type": "address"
        },
        {
          "internalType": "address",
          "name": "to",
          "type": "address"
        },
        {
          "internalType": "uint256",
          "name": "tokenId",
          "type": "uint256"
        }
      ],
      "name": "safeTransferFrom",
      "outputs": [],
      "stateMutability": "nonpayable",
      "type": "function"
    },
    {
      "inputs": [
        {
          "internalType": "address",
          "name": "from",
          "type": "address"
        },
        {
          "internalType": "address",
          "name": "to",
          "type": "address"
        },
        {
          "internalType": "uint256",
          "name": "tokenId",
          "type": "uint256"
        },
        {
          "internalType": "bytes",
          "name": "_data",
          "type": "bytes"
        }
      ],
      "name": "safeTransferFrom",
      "outputs": [],
      "stateMutability": "nonpayable",
      "type": "function"
    },
    {
      "inputs": [
        {
          "internalType": "address",
          "name": "operator",
          "type": "address"
        },
        {
          "internalType": "bool",
          "name": "approved",
          "type": "bool"
        }
      ],
      "name": "setApprovalForAll",
      "outputs": [],
      "stateMutability": "nonpayable",
      "type": "function"
    },
    {
      "inputs": [],
      "name": "symbol",
      "outputs": [
        {
          "internalType": "string",
          "name": "",
          "type": "string"
        }
      ],
      "stateMutability": "view",
      "type": "function",
      "constant": true
    },
    {
      "inputs": [
        {
          "internalType": "uint256",
          "name": "index",
          "type": "uint256"
        }
      ],
      "name": "tokenByIndex",
      "outputs": [
        {
          "internalType": "uint256",
          "name": "",
          "type": "uint256"
        }
      ],
      "stateMutability": "view",
      "type": "function",
      "constant": true
    },
    {
      "inputs": [
        {
          "internalType": "address",
          "name": "owner",
          "type": "address"
        },
        {
          "internalType": "uint256",
          "name": "index",
          "type": "uint256"
        }
      ],
      "name": "tokenOfOwnerByIndex",
      "outputs": [
        {
          "internalType": "uint256",
          "name": "",
          "type": "uint256"
        }
      ],
      "stateMutability": "view",
      "type": "function",
      "constant": true
    },
    {
      "inputs": [],
      "name": "totalSupply",
      "outputs": [
        {
          "internalType": "uint256",
          "name": "",
          "type": "uint256"
        }
      ],
      "stateMutability": "view",
      "type": "function",
      "constant": true
    },
    {
      "inputs": [
        {
          "internalType": "address",
          "name": "from",
          "type": "address"
        },
        {
          "internalType": "address",
          "name": "to",
          "type": "address"
        },
        {
          "internalType": "uint256",
          "name": "tokenId",
          "type": "uint256"
        }
      ],
      "name": "transferFrom",
      "outputs": [],
      "stateMutability": "nonpayable",
      "type": "function"
    },
    {
      "inputs": [],
      "name": "pause",
      "outputs": [],
      "stateMutability": "nonpayable",
      "type": "function"
    },
    {
      "inputs": [],
      "name": "unpause",
      "outputs": [],
      "stateMutability": "nonpayable",
      "type": "function"
    },
    {
      "inputs": [
        {
          "internalType": "string",
          "name": "uri",
          "type": "string"
        }
      ],
      "name": "mintMembershipToken",
      "outputs": [],
      "stateMutability": "nonpayable",
      "type": "function"
    },
    {
      "inputs": [
        {
          "internalType": "uint256",
          "name": "tokenId",
          "type": "uint256"
        }
      ],
      "name": "tokenURI",
      "outputs": [
        {
          "internalType": "string",
          "name": "",
          "type": "string"
        }
      ],
      "stateMutability": "view",
      "type": "function",
      "constant": true
    },
    {
      "inputs": [
        {
          "internalType": "bytes4",
          "name": "interfaceId",
          "type": "bytes4"
        }
      ],
      "name": "supportsInterface",
      "outputs": [
        {
          "internalType": "bool",
          "name": "",
          "type": "bool"
        }
      ],
      "stateMutability": "view",
      "type": "function",
      "constant": true
    },
    {
      "inputs": [
        {
          "internalType": "address",
          "name": "account",
          "type": "address"
        }
      ],
      "name": "grantClubRol",
      "outputs": [],
      "stateMutability": "nonpayable",
      "type": "function"
    },
    {
      "inputs": [
        {
          "internalType": "address",
          "name": "account",
          "type": "address"
        }
      ],
      "name": "revokeClubRol",
      "outputs": [],
      "stateMutability": "nonpayable",
      "type": "function"
    },
    {
      "inputs": [
        {
          "internalType": "address",
          "name": "account",
          "type": "address"
        }
      ],
      "name": "hasClubRol",
      "outputs": [
        {
          "internalType": "bool",
          "name": "",
          "type": "bool"
        }
      ],
      "stateMutability": "view",
      "type": "function",
      "constant": true
    },
    {
      "inputs": [
        {
          "internalType": "address",
          "name": "account",
          "type": "address"
        }
      ],
      "name": "grantMembershipRol",
      "outputs": [],
      "stateMutability": "nonpayable",
      "type": "function"
    },
    {
      "inputs": [
        {
          "internalType": "address",
          "name": "account",
          "type": "address"
        }
      ],
      "name": "revokeMembershipRol",
      "outputs": [],
      "stateMutability": "nonpayable",
      "type": "function"
    },
    {
      "inputs": [
        {
          "internalType": "address",
          "name": "account",
          "type": "address"
        }
      ],
      "name": "hasMembershipRol",
      "outputs": [
        {
          "internalType": "bool",
          "name": "",
          "type": "bool"
        }
      ],
      "stateMutability": "view",
      "type": "function",
      "constant": true
    },
    {
      "inputs": [
        {
          "internalType": "address",
          "name": "account",
          "type": "address"
        }
      ],
      "name": "isMembershipTokenMinted",
      "outputs": [
        {
          "internalType": "bool",
          "name": "",
          "type": "bool"
        }
      ],
      "stateMutability": "view",
      "type": "function",
      "constant": true
    },
    {
      "inputs": [],
      "name": "membershipsNumber",
      "outputs": [
        {
          "internalType": "uint256",
          "name": "",
          "type": "uint256"
        }
      ],
      "stateMutability": "view",
      "type": "function",
      "constant": true
    }
  ],
  "bytecode": "0x60806040523480156200001157600080fd5b50604051806060016040528060238152602001620057a5602391396040518060400160405280600481526020017f524d4f4d000000000000000000000000000000000000000000000000000000008152508160009081620000739190620005b1565b508060019081620000859190620005b1565b5050506000600b60006101000a81548160ff021916908315150217905550620000b86000801b33620001d260201b60201c565b620000ea7ffea4c03f1677c8672a8e0564f7a4b9b68035dd9e6f8cfe58bc00e6e870e6a7cd33620001d260201b60201c565b6200011c7f41a3fffbda0f1c9e28bd52ae72187b3406590146b6ca8f19961d2250566efd1633620001d260201b60201c565b6001600d60003373ffffffffffffffffffffffffffffffffffffffff1673ffffffffffffffffffffffffffffffffffffffff16815260200190815260200160002060006101000a81548160ff0219169083151502179055506001600e60003373ffffffffffffffffffffffffffffffffffffffff1673ffffffffffffffffffffffffffffffffffffffff16815260200190815260200160002060006101000a81548160ff02191690831515021790555062000698565b620001e48282620002c460201b60201c565b620002c0576001600c600084815260200190815260200160002060000160008373ffffffffffffffffffffffffffffffffffffffff1673ffffffffffffffffffffffffffffffffffffffff16815260200190815260200160002060006101000a81548160ff021916908315150217905550620002656200032f60201b60201c565b73ffffffffffffffffffffffffffffffffffffffff168173ffffffffffffffffffffffffffffffffffffffff16837f2f8788117e7eff1d82e926ec794901d17c78024a50270940304540a733656f0d60405160405180910390a45b5050565b6000600c600084815260200190815260200160002060000160008373ffffffffffffffffffffffffffffffffffffffff1673ffffffffffffffffffffffffffffffffffffffff16815260200190815260200160002060009054906101000a900460ff16905092915050565b600033905090565b600081519050919050565b7f4e487b7100000000000000000000000000000000000000000000000000000000600052604160045260246000fd5b7f4e487b7100000000000000000000000000000000000000000000000000000000600052602260045260246000fd5b60006002820490506001821680620003b957607f821691505b602082108103620003cf57620003ce62000371565b5b50919050565b60008190508160005260206000209050919050565b60006020601f8301049050919050565b600082821b905092915050565b600060088302620004397fffffffffffffffffffffffffffffffffffffffffffffffffffffffffffffffff82620003fa565b620004458683620003fa565b95508019841693508086168417925050509392505050565b6000819050919050565b6000819050919050565b6000620004926200048c62000486846200045d565b62000467565b6200045d565b9050919050565b6000819050919050565b620004ae8362000471565b620004c6620004bd8262000499565b84845462000407565b825550505050565b600090565b620004dd620004ce565b620004ea818484620004a3565b505050565b5b81811015620005125762000506600082620004d3565b600181019050620004f0565b5050565b601f82111562000561576200052b81620003d5565b6200053684620003ea565b8101602085101562000546578190505b6200055e6200055585620003ea565b830182620004ef565b50505b505050565b600082821c905092915050565b6000620005866000198460080262000566565b1980831691505092915050565b6000620005a1838362000573565b9150826002028217905092915050565b620005bc8262000337565b67ffffffffffffffff811115620005d857620005d762000342565b5b620005e48254620003a0565b620005f182828562000516565b600060209050601f83116001811462000629576000841562000614578287015190505b62000620858262000593565b86555062000690565b601f1984166200063986620003d5565b60005b8281101562000663578489015182556001820191506020850194506020810190506200063c565b868310156200068357848901516200067f601f89168262000573565b8355505b6001600288020188555050505b505050505050565b6150fd80620006a86000396000f3fe608060405234801561001057600080fd5b50600436106102485760003560e01c80635c975abb1161013b578063a217fddf116100b8578063c87b56dd1161007c578063c87b56dd14610723578063d547741f14610753578063df37bb191461076f578063e985e9c51461078d578063fe5a0666146107bd57610248565b8063a217fddf1461066d578063a22cb4651461068b578063af659106146106a7578063b88d4fde146106d7578063b95ec162146106f357610248565b806373d98799116100ff57806373d98799146105c95780638456cb59146105f957806385f678351461060357806391d148541461061f57806395d89b411461064f57610248565b80635c975abb14610513578063633b5510146105315780636352211e1461054d57806370a082311461057d57806373cb8853146105ad57610248565b80633022b466116101c957806342966c681161018d57806342966c681461044b5780634f6ccce714610467578063504761171461049757806358c6a735146104b35780635aa3454c146104e357610248565b80633022b466146103bb57806336568abe146103d95780633d44ba42146103f55780633f4ba83a1461042557806342842e0e1461042f57610248565b806318160ddd1161021057806318160ddd1461030557806323b872dd14610323578063248a9ca31461033f5780632f2ff15d1461036f5780632f745c591461038b57610248565b806301ffc9a71461024d57806306fdde031461027d578063081812fc1461029b578063095ea7b3146102cb5780631403c0d3146102e7575b600080fd5b61026760048036038101906102629190613587565b6107d9565b60405161027491906135cf565b60405180910390f35b6102856107eb565b6040516102929190613683565b60405180910390f35b6102b560048036038101906102b091906136db565b61087d565b6040516102c29190613749565b60405180910390f35b6102e560048036038101906102e09190613790565b610902565b005b6102ef610a19565b6040516102fc91906137e9565b60405180910390f35b61030d610a3d565b60405161031a9190613813565b60405180910390f35b61033d6004803603810190610338919061382e565b610a4a565b005b610359600480360381019061035491906138ad565b610aaa565b60405161036691906137e9565b60405180910390f35b610389600480360381019061038491906138da565b610aca565b005b6103a560048036038101906103a09190613790565b610aeb565b6040516103b29190613813565b60405180910390f35b6103c3610b90565b6040516103d09190613813565b60405180910390f35b6103f360048036038101906103ee91906138da565b610ba1565b005b61040f600480360381019061040a919061391a565b610c24565b60405161041c91906135cf565b60405180910390f35b61042d610c7a565b005b6104496004803603810190610444919061382e565b610c92565b005b610465600480360381019061046091906136db565b610cb2565b005b610481600480360381019061047c91906136db565b610d0e565b60405161048e9190613813565b60405180910390f35b6104b160048036038101906104ac919061391a565b610d7f565b005b6104cd60048036038101906104c8919061391a565b610e6c565b6040516104da91906135cf565b60405180910390f35b6104fd60048036038101906104f8919061391a565b610e8c565b60405161050a91906135cf565b60405180910390f35b61051b610ee2565b60405161052891906135cf565b60405180910390f35b61054b6004803603810190610546919061391a565b610ef9565b005b610567600480360381019061056291906136db565b611003565b6040516105749190613749565b60405180910390f35b6105976004803603810190610592919061391a565b6110b4565b6040516105a49190613813565b60405180910390f35b6105c760048036038101906105c29190613a7c565b61116b565b005b6105e360048036038101906105de919061391a565b6112fa565b6040516105f091906135cf565b60405180910390f35b61060161131a565b005b61061d6004803603810190610618919061391a565b611332565b005b610639600480360381019061063491906138da565b61143c565b60405161064691906135cf565b60405180910390f35b6106576114a7565b6040516106649190613683565b60405180910390f35b610675611539565b60405161068291906137e9565b60405180910390f35b6106a560048036038101906106a09190613af1565b611540565b005b6106c160048036038101906106bc919061391a565b611556565b6040516106ce91906135cf565b60405180910390f35b6106f160048036038101906106ec9190613bd2565b611576565b005b61070d6004803603810190610708919061391a565b6115d8565b60405161071a91906135cf565b60405180910390f35b61073d600480360381019061073891906136db565b61162e565b60405161074a9190613683565b60405180910390f35b61076d600480360381019061076891906138da565b611640565b005b610777611661565b60405161078491906137e9565b60405180910390f35b6107a760048036038101906107a29190613c55565b611685565b6040516107b491906135cf565b60405180910390f35b6107d760048036038101906107d2919061391a565b611719565b005b60006107e482611806565b9050919050565b6060600080546107fa90613cc4565b80601f016020809104026020016040519081016040528092919081815260200182805461082690613cc4565b80156108735780601f1061084857610100808354040283529160200191610873565b820191906000526020600020905b81548152906001019060200180831161085657829003601f168201915b5050505050905090565b600061088882611880565b6108c7576040517f08c379a00000000000000000000000000000000000000000000000000000000081526004016108be90613d67565b60405180910390fd5b6004600083815260200190815260200160002060009054906101000a900473ffffffffffffffffffffffffffffffffffffffff169050919050565b600061090d82611003565b90508073ffffffffffffffffffffffffffffffffffffffff168373ffffffffffffffffffffffffffffffffffffffff160361097d576040517f08c379a000000000000000000000000000000000000000000000000000000000815260040161097490613df9565b60405180910390fd5b8073ffffffffffffffffffffffffffffffffffffffff1661099c6118ec565b73ffffffffffffffffffffffffffffffffffffffff1614806109cb57506109ca816109c56118ec565b611685565b5b610a0a576040517f08c379a0000000000000000000000000000000000000000000000000000000008152600401610a0190613e8b565b60405180910390fd5b610a1483836118f4565b505050565b7ffea4c03f1677c8672a8e0564f7a4b9b68035dd9e6f8cfe58bc00e6e870e6a7cd81565b6000600880549050905090565b610a5b610a556118ec565b826119ad565b610a9a576040517f08c379a0000000000000000000000000000000000000000000000000000000008152600401610a9190613f1d565b60405180910390fd5b610aa5838383611a8b565b505050565b6000600c6000838152602001908152602001600020600101549050919050565b610ad382610aaa565b610adc81611cf1565b610ae68383611d05565b505050565b6000610af6836110b4565b8210610b37576040517f08c379a0000000000000000000000000000000000000000000000000000000008152600401610b2e90613faf565b60405180910390fd5b600660008473ffffffffffffffffffffffffffffffffffffffff1673ffffffffffffffffffffffffffffffffffffffff168152602001908152602001600020600083815260200190815260200160002054905092915050565b6000610b9c6010611de6565b905090565b610ba96118ec565b73ffffffffffffffffffffffffffffffffffffffff168173ffffffffffffffffffffffffffffffffffffffff1614610c16576040517f08c379a0000000000000000000000000000000000000000000000000000000008152600401610c0d90614041565b60405180910390fd5b610c208282611df4565b5050565b6000600f60008373ffffffffffffffffffffffffffffffffffffffff1673ffffffffffffffffffffffffffffffffffffffff16815260200190815260200160002060009054906101000a900460ff169050919050565b6000801b610c8781611cf1565b610c8f611ed6565b50565b610cad83838360405180602001604052806000815250611576565b505050565b610cc3610cbd6118ec565b826119ad565b610d02576040517f08c379a0000000000000000000000000000000000000000000000000000000008152600401610cf9906140d3565b60405180910390fd5b610d0b81611f78565b50565b6000610d18610a3d565b8210610d59576040517f08c379a0000000000000000000000000000000000000000000000000000000008152600401610d5090614165565b60405180910390fd5b60088281548110610d6d57610d6c614185565b5b90600052602060002001549050919050565b6000801b610d8c81611cf1565b610db67ffea4c03f1677c8672a8e0564f7a4b9b68035dd9e6f8cfe58bc00e6e870e6a7cd83611d05565b6001600d60008473ffffffffffffffffffffffffffffffffffffffff1673ffffffffffffffffffffffffffffffffffffffff16815260200190815260200160002060006101000a81548160ff0219169083151502179055508173ffffffffffffffffffffffffffffffffffffffff163373ffffffffffffffffffffffffffffffffffffffff167ff25ae518afe49b3c8f1a0f93c0adc26c177ff270839cfdc2f23250dea3a025bc60405160405180910390a35050565b600f6020528060005260406000206000915054906101000a900460ff1681565b6000600d60008373ffffffffffffffffffffffffffffffffffffffff1673ffffffffffffffffffffffffffffffffffffffff16815260200190815260200160002060009054906101000a900460ff169050919050565b6000600b60009054906101000a900460ff16905090565b7ffea4c03f1677c8672a8e0564f7a4b9b68035dd9e6f8cfe58bc00e6e870e6a7cd610f2381611cf1565b610f4d7f41a3fffbda0f1c9e28bd52ae72187b3406590146b6ca8f19961d2250566efd1683611d05565b6001600e60008473ffffffffffffffffffffffffffffffffffffffff1673ffffffffffffffffffffffffffffffffffffffff16815260200190815260200160002060006101000a81548160ff0219169083151502179055508173ffffffffffffffffffffffffffffffffffffffff163373ffffffffffffffffffffffffffffffffffffffff167fc7456bf1910aabbd12578687132912d6f0958549e986fb05eaf79068cad923de60405160405180910390a35050565b6000806002600084815260200190815260200160002060009054906101000a900473ffffffffffffffffffffffffffffffffffffffff169050600073ffffffffffffffffffffffffffffffffffffffff168173ffffffffffffffffffffffffffffffffffffffff16036110ab576040517f08c379a00000000000000000000000000000000000000000000000000000000081526004016110a290614226565b60405180910390fd5b80915050919050565b60008073ffffffffffffffffffffffffffffffffffffffff168273ffffffffffffffffffffffffffffffffffffffff1603611124576040517f08c379a000000000000000000000000000000000000000000000000000000000815260040161111b906142b8565b60405180910390fd5b600360008373ffffffffffffffffffffffffffffffffffffffff1673ffffffffffffffffffffffffffffffffffffffff168152602001908152602001600020549050919050565b7f41a3fffbda0f1c9e28bd52ae72187b3406590146b6ca8f19961d2250566efd1661119581611cf1565b600f60003373ffffffffffffffffffffffffffffffffffffffff1673ffffffffffffffffffffffffffffffffffffffff16815260200190815260200160002060009054906101000a900460ff1615611222576040517f08c379a00000000000000000000000000000000000000000000000000000000081526004016112199061434a565b60405180910390fd5b600061122e6010611de6565b905061123a6010611fdc565b6112443382611ff2565b61124e8184612010565b6001600f60003373ffffffffffffffffffffffffffffffffffffffff1673ffffffffffffffffffffffffffffffffffffffff16815260200190815260200160002060006101000a81548160ff021916908315150217905550803373ffffffffffffffffffffffffffffffffffffffff167f0617e94baa9e0b89d081773a213f117b9375c6c516ca5fcc917a5edd7d621f1f856040516112ed9190613683565b60405180910390a3505050565b600e6020528060005260406000206000915054906101000a900460ff1681565b6000801b61132781611cf1565b61132f61207d565b50565b7ffea4c03f1677c8672a8e0564f7a4b9b68035dd9e6f8cfe58bc00e6e870e6a7cd61135c81611cf1565b6113867f41a3fffbda0f1c9e28bd52ae72187b3406590146b6ca8f19961d2250566efd1683611df4565b6000600e60008473ffffffffffffffffffffffffffffffffffffffff1673ffffffffffffffffffffffffffffffffffffffff16815260200190815260200160002060006101000a81548160ff0219169083151502179055508173ffffffffffffffffffffffffffffffffffffffff163373ffffffffffffffffffffffffffffffffffffffff167f4cee40a6bfc7aee0013cf7d930a3fc8bacbe218568f9594a0f10795095e7eb2860405160405180910390a35050565b6000600c600084815260200190815260200160002060000160008373ffffffffffffffffffffffffffffffffffffffff1673ffffffffffffffffffffffffffffffffffffffff16815260200190815260200160002060009054906101000a900460ff16905092915050565b6060600180546114b690613cc4565b80601f01602080910402602001604051908101604052809291908181526020018280546114e290613cc4565b801561152f5780601f106115045761010080835404028352916020019161152f565b820191906000526020600020905b81548152906001019060200180831161151257829003601f168201915b5050505050905090565b6000801b81565b61155261154b6118ec565b8383612120565b5050565b600d6020528060005260406000206000915054906101000a900460ff1681565b6115876115816118ec565b836119ad565b6115c6576040517f08c379a00000000000000000000000000000000000000000000000000000000081526004016115bd90613f1d565b60405180910390fd5b6115d28484848461228c565b50505050565b6000600e60008373ffffffffffffffffffffffffffffffffffffffff1673ffffffffffffffffffffffffffffffffffffffff16815260200190815260200160002060009054906101000a900460ff169050919050565b6060611639826122e8565b9050919050565b61164982610aaa565b61165281611cf1565b61165c8383611df4565b505050565b7f41a3fffbda0f1c9e28bd52ae72187b3406590146b6ca8f19961d2250566efd1681565b6000600560008473ffffffffffffffffffffffffffffffffffffffff1673ffffffffffffffffffffffffffffffffffffffff16815260200190815260200160002060008373ffffffffffffffffffffffffffffffffffffffff1673ffffffffffffffffffffffffffffffffffffffff16815260200190815260200160002060009054906101000a900460ff16905092915050565b6000801b61172681611cf1565b6117507ffea4c03f1677c8672a8e0564f7a4b9b68035dd9e6f8cfe58bc00e6e870e6a7cd83611df4565b6000600d60008473ffffffffffffffffffffffffffffffffffffffff1673ffffffffffffffffffffffffffffffffffffffff16815260200190815260200160002060006101000a81548160ff0219169083151502179055508173ffffffffffffffffffffffffffffffffffffffff163373ffffffffffffffffffffffffffffffffffffffff167feca259f65afeb664520e27bcf53a29a7a276df0172960fd342f01ff705ba3b9560405160405180910390a35050565b60007f7965db0b000000000000000000000000000000000000000000000000000000007bffffffffffffffffffffffffffffffffffffffffffffffffffffffff1916827bffffffffffffffffffffffffffffffffffffffffffffffffffffffff19161480611879575061187882612439565b5b9050919050565b60008073ffffffffffffffffffffffffffffffffffffffff166002600084815260200190815260200160002060009054906101000a900473ffffffffffffffffffffffffffffffffffffffff1673ffffffffffffffffffffffffffffffffffffffff1614159050919050565b600033905090565b816004600083815260200190815260200160002060006101000a81548173ffffffffffffffffffffffffffffffffffffffff021916908373ffffffffffffffffffffffffffffffffffffffff160217905550808273ffffffffffffffffffffffffffffffffffffffff1661196783611003565b73ffffffffffffffffffffffffffffffffffffffff167f8c5be1e5ebec7d5bd14f71427d1e84f3dd0314c0f7b2291e5b200ac8c7c3b92560405160405180910390a45050565b60006119b882611880565b6119f7576040517f08c379a00000000000000000000000000000000000000000000000000000000081526004016119ee906143dc565b60405180910390fd5b6000611a0283611003565b90508073ffffffffffffffffffffffffffffffffffffffff168473ffffffffffffffffffffffffffffffffffffffff161480611a445750611a438185611685565b5b80611a8257508373ffffffffffffffffffffffffffffffffffffffff16611a6a8461087d565b73ffffffffffffffffffffffffffffffffffffffff16145b91505092915050565b8273ffffffffffffffffffffffffffffffffffffffff16611aab82611003565b73ffffffffffffffffffffffffffffffffffffffff1614611b01576040517f08c379a0000000000000000000000000000000000000000000000000000000008152600401611af89061446e565b60405180910390fd5b600073ffffffffffffffffffffffffffffffffffffffff168273ffffffffffffffffffffffffffffffffffffffff1603611b70576040517f08c379a0000000000000000000000000000000000000000000000000000000008152600401611b6790614500565b60405180910390fd5b611b7b8383836124b3565b611b866000826118f4565b6001600360008573ffffffffffffffffffffffffffffffffffffffff1673ffffffffffffffffffffffffffffffffffffffff1681526020019081526020016000206000828254611bd6919061454f565b925050819055506001600360008473ffffffffffffffffffffffffffffffffffffffff1673ffffffffffffffffffffffffffffffffffffffff1681526020019081526020016000206000828254611c2d9190614583565b92505081905550816002600083815260200190815260200160002060006101000a81548173ffffffffffffffffffffffffffffffffffffffff021916908373ffffffffffffffffffffffffffffffffffffffff160217905550808273ffffffffffffffffffffffffffffffffffffffff168473ffffffffffffffffffffffffffffffffffffffff167fddf252ad1be2c89b69c2b068fc378daa952ba7f163c4a11628f55a4df523b3ef60405160405180910390a4611cec83838361250b565b505050565b611d0281611cfd6118ec565b612510565b50565b611d0f828261143c565b611de2576001600c600084815260200190815260200160002060000160008373ffffffffffffffffffffffffffffffffffffffff1673ffffffffffffffffffffffffffffffffffffffff16815260200190815260200160002060006101000a81548160ff021916908315150217905550611d876118ec565b73ffffffffffffffffffffffffffffffffffffffff168173ffffffffffffffffffffffffffffffffffffffff16837f2f8788117e7eff1d82e926ec794901d17c78024a50270940304540a733656f0d60405160405180910390a45b5050565b600081600001549050919050565b611dfe828261143c565b15611ed2576000600c600084815260200190815260200160002060000160008373ffffffffffffffffffffffffffffffffffffffff1673ffffffffffffffffffffffffffffffffffffffff16815260200190815260200160002060006101000a81548160ff021916908315150217905550611e776118ec565b73ffffffffffffffffffffffffffffffffffffffff168173ffffffffffffffffffffffffffffffffffffffff16837ff6391f5c32d9c69d2a47ea670b442974b53935d1edc7fd64eb21e047a839171b60405160405180910390a45b5050565b611ede610ee2565b611f1d576040517f08c379a0000000000000000000000000000000000000000000000000000000008152600401611f1490614625565b60405180910390fd5b6000600b60006101000a81548160ff0219169083151502179055507f5db9ee0a495bf2e6ff9c91a7834c1ba4fdd244a5e8aa4e537bd38aeae4b073aa611f616118ec565b604051611f6e9190613749565b60405180910390a1565b6000600f60003373ffffffffffffffffffffffffffffffffffffffff1673ffffffffffffffffffffffffffffffffffffffff16815260200190815260200160002060006101000a81548160ff021916908315150217905550611fd9816125ad565b50565b6001816000016000828254019250508190555050565b61200c828260405180602001604052806000815250612600565b5050565b61201982611880565b612058576040517f08c379a000000000000000000000000000000000000000000000000000000000815260040161204f906146b7565b60405180910390fd5b80600a600084815260200190815260200160002090816120789190614883565b505050565b612085610ee2565b156120c5576040517f08c379a00000000000000000000000000000000000000000000000000000000081526004016120bc906149a1565b60405180910390fd5b6001600b60006101000a81548160ff0219169083151502179055507f62e78cea01bee320cd4e420270b5ea74000d11b0c9f74754ebdbfc544b05a2586121096118ec565b6040516121169190613749565b60405180910390a1565b8173ffffffffffffffffffffffffffffffffffffffff168373ffffffffffffffffffffffffffffffffffffffff160361218e576040517f08c379a000000000000000000000000000000000000000000000000000000000815260040161218590614a0d565b60405180910390fd5b80600560008573ffffffffffffffffffffffffffffffffffffffff1673ffffffffffffffffffffffffffffffffffffffff16815260200190815260200160002060008473ffffffffffffffffffffffffffffffffffffffff1673ffffffffffffffffffffffffffffffffffffffff16815260200190815260200160002060006101000a81548160ff0219169083151502179055508173ffffffffffffffffffffffffffffffffffffffff168373ffffffffffffffffffffffffffffffffffffffff167f17307eab39ab6107e8899845ad3d59bd9653f200f220920489ca2b5937696c318360405161227f91906135cf565b60405180910390a3505050565b612297848484611a8b565b6122a38484848461265b565b6122e2576040517f08c379a00000000000000000000000000000000000000000000000000000000081526004016122d990614a9f565b60405180910390fd5b50505050565b60606122f382611880565b612332576040517f08c379a000000000000000000000000000000000000000000000000000000000815260040161232990614b31565b60405180910390fd5b6000600a6000848152602001908152602001600020805461235290613cc4565b80601f016020809104026020016040519081016040528092919081815260200182805461237e90613cc4565b80156123cb5780601f106123a0576101008083540402835291602001916123cb565b820191906000526020600020905b8154815290600101906020018083116123ae57829003601f168201915b5050505050905060006123dc6127e2565b905060008151036123f1578192505050612434565b60008251111561242657808260405160200161240e929190614b8d565b60405160208183030381529060405292505050612434565b61242f846127f9565b925050505b919050565b60007f780e9d63000000000000000000000000000000000000000000000000000000007bffffffffffffffffffffffffffffffffffffffffffffffffffffffff1916827bffffffffffffffffffffffffffffffffffffffffffffffffffffffff191614806124ac57506124ab826128a0565b5b9050919050565b6124bb610ee2565b156124fb576040517f08c379a00000000000000000000000000000000000000000000000000000000081526004016124f2906149a1565b60405180910390fd5b612506838383612982565b505050565b505050565b61251a828261143c565b6125a95761253f8173ffffffffffffffffffffffffffffffffffffffff166014612a94565b61254d8360001c6020612a94565b60405160200161255e929190614c49565b6040516020818303038152906040526040517f08c379a00000000000000000000000000000000000000000000000000000000081526004016125a09190613683565b60405180910390fd5b5050565b6125b681612cd0565b6000600a600083815260200190815260200160002080546125d690613cc4565b9050146125fd57600a600082815260200190815260200160002060006125fc91906134be565b5b50565b61260a8383612ded565b612617600084848461265b565b612656576040517f08c379a000000000000000000000000000000000000000000000000000000000815260040161264d90614a9f565b60405180910390fd5b505050565b600061267c8473ffffffffffffffffffffffffffffffffffffffff16612fc6565b156127d5578373ffffffffffffffffffffffffffffffffffffffff1663150b7a026126a56118ec565b8786866040518563ffffffff1660e01b81526004016126c79493929190614cd8565b6020604051808303816000875af192505050801561270357506040513d601f19601f820116820180604052508101906127009190614d39565b60015b612785573d8060008114612733576040519150601f19603f3d011682016040523d82523d6000602084013e612738565b606091505b50600081510361277d576040517f08c379a000000000000000000000000000000000000000000000000000000000815260040161277490614a9f565b60405180910390fd5b805181602001fd5b63150b7a0260e01b7bffffffffffffffffffffffffffffffffffffffffffffffffffffffff1916817bffffffffffffffffffffffffffffffffffffffffffffffffffffffff1916149150506127da565b600190505b949350505050565b606060405180602001604052806000815250905090565b606061280482611880565b612843576040517f08c379a000000000000000000000000000000000000000000000000000000000815260040161283a90614dd8565b60405180910390fd5b600061284d6127e2565b9050600081511161286d5760405180602001604052806000815250612898565b8061287784612fe9565b604051602001612888929190614b8d565b6040516020818303038152906040525b915050919050565b60007f80ac58cd000000000000000000000000000000000000000000000000000000007bffffffffffffffffffffffffffffffffffffffffffffffffffffffff1916827bffffffffffffffffffffffffffffffffffffffffffffffffffffffff1916148061296b57507f5b5e139f000000000000000000000000000000000000000000000000000000007bffffffffffffffffffffffffffffffffffffffffffffffffffffffff1916827bffffffffffffffffffffffffffffffffffffffffffffffffffffffff1916145b8061297b575061297a82613149565b5b9050919050565b61298d8383836131b3565b600073ffffffffffffffffffffffffffffffffffffffff168373ffffffffffffffffffffffffffffffffffffffff16036129cf576129ca816131b8565b612a0e565b8173ffffffffffffffffffffffffffffffffffffffff168373ffffffffffffffffffffffffffffffffffffffff1614612a0d57612a0c8382613201565b5b5b600073ffffffffffffffffffffffffffffffffffffffff168273ffffffffffffffffffffffffffffffffffffffff1603612a5057612a4b8161336e565b612a8f565b8273ffffffffffffffffffffffffffffffffffffffff168273ffffffffffffffffffffffffffffffffffffffff1614612a8e57612a8d828261343f565b5b5b505050565b606060006002836002612aa79190614df8565b612ab19190614583565b67ffffffffffffffff811115612aca57612ac9613951565b5b6040519080825280601f01601f191660200182016040528015612afc5781602001600182028036833780820191505090505b5090507f300000000000000000000000000000000000000000000000000000000000000081600081518110612b3457612b33614185565b5b60200101907effffffffffffffffffffffffffffffffffffffffffffffffffffffffffffff1916908160001a9053507f780000000000000000000000000000000000000000000000000000000000000081600181518110612b9857612b97614185565b5b60200101907effffffffffffffffffffffffffffffffffffffffffffffffffffffffffffff1916908160001a90535060006001846002612bd89190614df8565b612be29190614583565b90505b6001811115612c82577f3031323334353637383961626364656600000000000000000000000000000000600f861660108110612c2457612c23614185565b5b1a60f81b828281518110612c3b57612c3a614185565b5b60200101907effffffffffffffffffffffffffffffffffffffffffffffffffffffffffffff1916908160001a905350600485901c945080612c7b90614e52565b9050612be5565b5060008414612cc6576040517f08c379a0000000000000000000000000000000000000000000000000000000008152600401612cbd90614ec7565b60405180910390fd5b8091505092915050565b6000612cdb82611003565b9050612ce9816000846124b3565b612cf46000836118f4565b6001600360008373ffffffffffffffffffffffffffffffffffffffff1673ffffffffffffffffffffffffffffffffffffffff1681526020019081526020016000206000828254612d44919061454f565b925050819055506002600083815260200190815260200160002060006101000a81549073ffffffffffffffffffffffffffffffffffffffff021916905581600073ffffffffffffffffffffffffffffffffffffffff168273ffffffffffffffffffffffffffffffffffffffff167fddf252ad1be2c89b69c2b068fc378daa952ba7f163c4a11628f55a4df523b3ef60405160405180910390a4612de98160008461250b565b5050565b600073ffffffffffffffffffffffffffffffffffffffff168273ffffffffffffffffffffffffffffffffffffffff1603612e5c576040517f08c379a0000000000000000000000000000000000000000000000000000000008152600401612e5390614f33565b60405180910390fd5b612e6581611880565b15612ea5576040517f08c379a0000000000000000000000000000000000000000000000000000000008152600401612e9c90614f9f565b60405180910390fd5b612eb1600083836124b3565b6001600360008473ffffffffffffffffffffffffffffffffffffffff1673ffffffffffffffffffffffffffffffffffffffff1681526020019081526020016000206000828254612f019190614583565b92505081905550816002600083815260200190815260200160002060006101000a81548173ffffffffffffffffffffffffffffffffffffffff021916908373ffffffffffffffffffffffffffffffffffffffff160217905550808273ffffffffffffffffffffffffffffffffffffffff16600073ffffffffffffffffffffffffffffffffffffffff167fddf252ad1be2c89b69c2b068fc378daa952ba7f163c4a11628f55a4df523b3ef60405160405180910390a4612fc26000838361250b565b5050565b6000808273ffffffffffffffffffffffffffffffffffffffff163b119050919050565b606060008203613030576040518060400160405280600181526020017f30000000000000000000000000000000000000000000000000000000000000008152509050613144565b600082905060005b6000821461306257808061304b90614fbf565b915050600a8261305b9190615036565b9150613038565b60008167ffffffffffffffff81111561307e5761307d613951565b5b6040519080825280601f01601f1916602001820160405280156130b05781602001600182028036833780820191505090505b5090505b6000851461313d576001826130c9919061454f565b9150600a856130d89190615067565b60306130e49190614583565b60f81b8183815181106130fa576130f9614185565b5b60200101907effffffffffffffffffffffffffffffffffffffffffffffffffffffffffffff1916908160001a905350600a856131369190615036565b94506130b4565b8093505050505b919050565b60007f01ffc9a7000000000000000000000000000000000000000000000000000000007bffffffffffffffffffffffffffffffffffffffffffffffffffffffff1916827bffffffffffffffffffffffffffffffffffffffffffffffffffffffff1916149050919050565b505050565b6008805490506009600083815260200190815260200160002081905550600881908060018154018082558091505060019003906000526020600020016000909190919091505550565b6000600161320e846110b4565b613218919061454f565b90506000600760008481526020019081526020016000205490508181146132fd576000600660008673ffffffffffffffffffffffffffffffffffffffff1673ffffffffffffffffffffffffffffffffffffffff168152602001908152602001600020600084815260200190815260200160002054905080600660008773ffffffffffffffffffffffffffffffffffffffff1673ffffffffffffffffffffffffffffffffffffffff168152602001908152602001600020600084815260200190815260200160002081905550816007600083815260200190815260200160002081905550505b6007600084815260200190815260200160002060009055600660008573ffffffffffffffffffffffffffffffffffffffff1673ffffffffffffffffffffffffffffffffffffffff16815260200190815260200160002060008381526020019081526020016000206000905550505050565b60006001600880549050613382919061454f565b90506000600960008481526020019081526020016000205490506000600883815481106133b2576133b1614185565b5b9060005260206000200154905080600883815481106133d4576133d3614185565b5b90600052602060002001819055508160096000838152602001908152602001600020819055506009600085815260200190815260200160002060009055600880548061342357613422615098565b5b6001900381819060005260206000200160009055905550505050565b600061344a836110b4565b905081600660008573ffffffffffffffffffffffffffffffffffffffff1673ffffffffffffffffffffffffffffffffffffffff168152602001908152602001600020600083815260200190815260200160002081905550806007600084815260200190815260200160002081905550505050565b5080546134ca90613cc4565b6000825580601f106134dc57506134fb565b601f0160209004906000526020600020908101906134fa91906134fe565b5b50565b5b808211156135175760008160009055506001016134ff565b5090565b6000604051905090565b600080fd5b600080fd5b60007fffffffff0000000000000000000000000000000000000000000000000000000082169050919050565b6135648161352f565b811461356f57600080fd5b50565b6000813590506135818161355b565b92915050565b60006020828403121561359d5761359c613525565b5b60006135ab84828501613572565b91505092915050565b60008115159050919050565b6135c9816135b4565b82525050565b60006020820190506135e460008301846135c0565b92915050565b600081519050919050565b600082825260208201905092915050565b60005b83811015613624578082015181840152602081019050613609565b83811115613633576000848401525b50505050565b6000601f19601f8301169050919050565b6000613655826135ea565b61365f81856135f5565b935061366f818560208601613606565b61367881613639565b840191505092915050565b6000602082019050818103600083015261369d818461364a565b905092915050565b6000819050919050565b6136b8816136a5565b81146136c357600080fd5b50565b6000813590506136d5816136af565b92915050565b6000602082840312156136f1576136f0613525565b5b60006136ff848285016136c6565b91505092915050565b600073ffffffffffffffffffffffffffffffffffffffff82169050919050565b600061373382613708565b9050919050565b61374381613728565b82525050565b600060208201905061375e600083018461373a565b92915050565b61376d81613728565b811461377857600080fd5b50565b60008135905061378a81613764565b92915050565b600080604083850312156137a7576137a6613525565b5b60006137b58582860161377b565b92505060206137c6858286016136c6565b9150509250929050565b6000819050919050565b6137e3816137d0565b82525050565b60006020820190506137fe60008301846137da565b92915050565b61380d816136a5565b82525050565b60006020820190506138286000830184613804565b92915050565b60008060006060848603121561384757613846613525565b5b60006138558682870161377b565b93505060206138668682870161377b565b9250506040613877868287016136c6565b9150509250925092565b61388a816137d0565b811461389557600080fd5b50565b6000813590506138a781613881565b92915050565b6000602082840312156138c3576138c2613525565b5b60006138d184828501613898565b91505092915050565b600080604083850312156138f1576138f0613525565b5b60006138ff85828601613898565b92505060206139108582860161377b565b9150509250929050565b6000602082840312156139305761392f613525565b5b600061393e8482850161377b565b91505092915050565b600080fd5b600080fd5b7f4e487b7100000000000000000000000000000000000000000000000000000000600052604160045260246000fd5b61398982613639565b810181811067ffffffffffffffff821117156139a8576139a7613951565b5b80604052505050565b60006139bb61351b565b90506139c78282613980565b919050565b600067ffffffffffffffff8211156139e7576139e6613951565b5b6139f082613639565b9050602081019050919050565b82818337600083830152505050565b6000613a1f613a1a846139cc565b6139b1565b905082815260208101848484011115613a3b57613a3a61394c565b5b613a468482856139fd565b509392505050565b600082601f830112613a6357613a62613947565b5b8135613a73848260208601613a0c565b91505092915050565b600060208284031215613a9257613a91613525565b5b600082013567ffffffffffffffff811115613ab057613aaf61352a565b5b613abc84828501613a4e565b91505092915050565b613ace816135b4565b8114613ad957600080fd5b50565b600081359050613aeb81613ac5565b92915050565b60008060408385031215613b0857613b07613525565b5b6000613b168582860161377b565b9250506020613b2785828601613adc565b9150509250929050565b600067ffffffffffffffff821115613b4c57613b4b613951565b5b613b5582613639565b9050602081019050919050565b6000613b75613b7084613b31565b6139b1565b905082815260208101848484011115613b9157613b9061394c565b5b613b9c8482856139fd565b509392505050565b600082601f830112613bb957613bb8613947565b5b8135613bc9848260208601613b62565b91505092915050565b60008060008060808587031215613bec57613beb613525565b5b6000613bfa8782880161377b565b9450506020613c0b8782880161377b565b9350506040613c1c878288016136c6565b925050606085013567ffffffffffffffff811115613c3d57613c3c61352a565b5b613c4987828801613ba4565b91505092959194509250565b60008060408385031215613c6c57613c6b613525565b5b6000613c7a8582860161377b565b9250506020613c8b8582860161377b565b9150509250929050565b7f4e487b7100000000000000000000000000000000000000000000000000000000600052602260045260246000fd5b60006002820490506001821680613cdc57607f821691505b602082108103613cef57613cee613c95565b5b50919050565b7f4552433732313a20617070726f76656420717565727920666f72206e6f6e657860008201527f697374656e7420746f6b656e0000000000000000000000000000000000000000602082015250565b6000613d51602c836135f5565b9150613d5c82613cf5565b604082019050919050565b60006020820190508181036000830152613d8081613d44565b9050919050565b7f4552433732313a20617070726f76616c20746f2063757272656e74206f776e6560008201527f7200000000000000000000000000000000000000000000000000000000000000602082015250565b6000613de36021836135f5565b9150613dee82613d87565b604082019050919050565b60006020820190508181036000830152613e1281613dd6565b9050919050565b7f4552433732313a20617070726f76652063616c6c6572206973206e6f74206f7760008201527f6e6572206e6f7220617070726f76656420666f7220616c6c0000000000000000602082015250565b6000613e756038836135f5565b9150613e8082613e19565b604082019050919050565b60006020820190508181036000830152613ea481613e68565b9050919050565b7f4552433732313a207472616e736665722063616c6c6572206973206e6f74206f60008201527f776e6572206e6f7220617070726f766564000000000000000000000000000000602082015250565b6000613f076031836135f5565b9150613f1282613eab565b604082019050919050565b60006020820190508181036000830152613f3681613efa565b9050919050565b7f455243373231456e756d657261626c653a206f776e657220696e646578206f7560008201527f74206f6620626f756e6473000000000000000000000000000000000000000000602082015250565b6000613f99602b836135f5565b9150613fa482613f3d565b604082019050919050565b60006020820190508181036000830152613fc881613f8c565b9050919050565b7f416363657373436f6e74726f6c3a2063616e206f6e6c792072656e6f756e636560008201527f20726f6c657320666f722073656c660000000000000000000000000000000000602082015250565b600061402b602f836135f5565b915061403682613fcf565b604082019050919050565b6000602082019050818103600083015261405a8161401e565b9050919050565b7f4552433732314275726e61626c653a2063616c6c6572206973206e6f74206f7760008201527f6e6572206e6f7220617070726f76656400000000000000000000000000000000602082015250565b60006140bd6030836135f5565b91506140c882614061565b604082019050919050565b600060208201905081810360008301526140ec816140b0565b9050919050565b7f455243373231456e756d657261626c653a20676c6f62616c20696e646578206f60008201527f7574206f6620626f756e64730000000000000000000000000000000000000000602082015250565b600061414f602c836135f5565b915061415a826140f3565b604082019050919050565b6000602082019050818103600083015261417e81614142565b9050919050565b7f4e487b7100000000000000000000000000000000000000000000000000000000600052603260045260246000fd5b7f4552433732313a206f776e657220717565727920666f72206e6f6e657869737460008201527f656e7420746f6b656e0000000000000000000000000000000000000000000000602082015250565b60006142106029836135f5565b915061421b826141b4565b604082019050919050565b6000602082019050818103600083015261423f81614203565b9050919050565b7f4552433732313a2062616c616e636520717565727920666f7220746865207a6560008201527f726f206164647265737300000000000000000000000000000000000000000000602082015250565b60006142a2602a836135f5565b91506142ad82614246565b604082019050919050565b600060208201905081810360008301526142d181614295565b9050919050565b7f596f7520616c726561647920686176652061206d656d6265727368697020746f60008201527f6b656e206d696e74656400000000000000000000000000000000000000000000602082015250565b6000614334602a836135f5565b915061433f826142d8565b604082019050919050565b6000602082019050818103600083015261436381614327565b9050919050565b7f4552433732313a206f70657261746f7220717565727920666f72206e6f6e657860008201527f697374656e7420746f6b656e0000000000000000000000000000000000000000602082015250565b60006143c6602c836135f5565b91506143d18261436a565b604082019050919050565b600060208201905081810360008301526143f5816143b9565b9050919050565b7f4552433732313a207472616e736665722066726f6d20696e636f72726563742060008201527f6f776e6572000000000000000000000000000000000000000000000000000000602082015250565b60006144586025836135f5565b9150614463826143fc565b604082019050919050565b600060208201905081810360008301526144878161444b565b9050919050565b7f4552433732313a207472616e7366657220746f20746865207a65726f2061646460008201527f7265737300000000000000000000000000000000000000000000000000000000602082015250565b60006144ea6024836135f5565b91506144f58261448e565b604082019050919050565b60006020820190508181036000830152614519816144dd565b9050919050565b7f4e487b7100000000000000000000000000000000000000000000000000000000600052601160045260246000fd5b600061455a826136a5565b9150614565836136a5565b92508282101561457857614577614520565b5b828203905092915050565b600061458e826136a5565b9150614599836136a5565b9250827fffffffffffffffffffffffffffffffffffffffffffffffffffffffffffffffff038211156145ce576145cd614520565b5b828201905092915050565b7f5061757361626c653a206e6f7420706175736564000000000000000000000000600082015250565b600061460f6014836135f5565b915061461a826145d9565b602082019050919050565b6000602082019050818103600083015261463e81614602565b9050919050565b7f45524337323155524953746f726167653a2055524920736574206f66206e6f6e60008201527f6578697374656e7420746f6b656e000000000000000000000000000000000000602082015250565b60006146a1602e836135f5565b91506146ac82614645565b604082019050919050565b600060208201905081810360008301526146d081614694565b9050919050565b60008190508160005260206000209050919050565b60006020601f8301049050919050565b600082821b905092915050565b6000600883026147397fffffffffffffffffffffffffffffffffffffffffffffffffffffffffffffffff826146fc565b61474386836146fc565b95508019841693508086168417925050509392505050565b6000819050919050565b600061478061477b614776846136a5565b61475b565b6136a5565b9050919050565b6000819050919050565b61479a83614765565b6147ae6147a682614787565b848454614709565b825550505050565b600090565b6147c36147b6565b6147ce818484614791565b505050565b5b818110156147f2576147e76000826147bb565b6001810190506147d4565b5050565b601f82111561483757614808816146d7565b614811846146ec565b81016020851015614820578190505b61483461482c856146ec565b8301826147d3565b50505b505050565b600082821c905092915050565b600061485a6000198460080261483c565b1980831691505092915050565b60006148738383614849565b9150826002028217905092915050565b61488c826135ea565b67ffffffffffffffff8111156148a5576148a4613951565b5b6148af8254613cc4565b6148ba8282856147f6565b600060209050601f8311600181146148ed57600084156148db578287015190505b6148e58582614867565b86555061494d565b601f1984166148fb866146d7565b60005b82811015614923578489015182556001820191506020850194506020810190506148fe565b86831015614940578489015161493c601f891682614849565b8355505b6001600288020188555050505b505050505050565b7f5061757361626c653a2070617573656400000000000000000000000000000000600082015250565b600061498b6010836135f5565b915061499682614955565b602082019050919050565b600060208201905081810360008301526149ba8161497e565b9050919050565b7f4552433732313a20617070726f766520746f2063616c6c657200000000000000600082015250565b60006149f76019836135f5565b9150614a02826149c1565b602082019050919050565b60006020820190508181036000830152614a26816149ea565b9050919050565b7f4552433732313a207472616e7366657220746f206e6f6e20455243373231526560008201527f63656976657220696d706c656d656e7465720000000000000000000000000000602082015250565b6000614a896032836135f5565b9150614a9482614a2d565b604082019050919050565b60006020820190508181036000830152614ab881614a7c565b9050919050565b7f45524337323155524953746f726167653a2055524920717565727920666f722060008201527f6e6f6e6578697374656e7420746f6b656e000000000000000000000000000000602082015250565b6000614b1b6031836135f5565b9150614b2682614abf565b604082019050919050565b60006020820190508181036000830152614b4a81614b0e565b9050919050565b600081905092915050565b6000614b67826135ea565b614b718185614b51565b9350614b81818560208601613606565b80840191505092915050565b6000614b998285614b5c565b9150614ba58284614b5c565b91508190509392505050565b7f416363657373436f6e74726f6c3a206163636f756e7420000000000000000000600082015250565b6000614be7601783614b51565b9150614bf282614bb1565b601782019050919050565b7f206973206d697373696e6720726f6c6520000000000000000000000000000000600082015250565b6000614c33601183614b51565b9150614c3e82614bfd565b601182019050919050565b6000614c5482614bda565b9150614c608285614b5c565b9150614c6b82614c26565b9150614c778284614b5c565b91508190509392505050565b600081519050919050565b600082825260208201905092915050565b6000614caa82614c83565b614cb48185614c8e565b9350614cc4818560208601613606565b614ccd81613639565b840191505092915050565b6000608082019050614ced600083018761373a565b614cfa602083018661373a565b614d076040830185613804565b8181036060830152614d198184614c9f565b905095945050505050565b600081519050614d338161355b565b92915050565b600060208284031215614d4f57614d4e613525565b5b6000614d5d84828501614d24565b91505092915050565b7f4552433732314d657461646174613a2055524920717565727920666f72206e6f60008201527f6e6578697374656e7420746f6b656e0000000000000000000000000000000000602082015250565b6000614dc2602f836135f5565b9150614dcd82614d66565b604082019050919050565b60006020820190508181036000830152614df181614db5565b9050919050565b6000614e03826136a5565b9150614e0e836136a5565b9250817fffffffffffffffffffffffffffffffffffffffffffffffffffffffffffffffff0483118215151615614e4757614e46614520565b5b828202905092915050565b6000614e5d826136a5565b915060008203614e7057614e6f614520565b5b600182039050919050565b7f537472696e67733a20686578206c656e67746820696e73756666696369656e74600082015250565b6000614eb16020836135f5565b9150614ebc82614e7b565b602082019050919050565b60006020820190508181036000830152614ee081614ea4565b9050919050565b7f4552433732313a206d696e7420746f20746865207a65726f2061646472657373600082015250565b6000614f1d6020836135f5565b9150614f2882614ee7565b602082019050919050565b60006020820190508181036000830152614f4c81614f10565b9050919050565b7f4552433732313a20746f6b656e20616c7265616479206d696e74656400000000600082015250565b6000614f89601c836135f5565b9150614f9482614f53565b602082019050919050565b60006020820190508181036000830152614fb881614f7c565b9050919050565b6000614fca826136a5565b91507fffffffffffffffffffffffffffffffffffffffffffffffffffffffffffffffff8203614ffc57614ffb614520565b5b600182019050919050565b7f4e487b7100000000000000000000000000000000000000000000000000000000600052601260045260246000fd5b6000615041826136a5565b915061504c836136a5565b92508261505c5761505b615007565b5b828204905092915050565b6000615072826136a5565b915061507d836136a5565b92508261508d5761508c615007565b5b828206905092915050565b7f4e487b7100000000000000000000000000000000000000000000000000000000600052603160045260246000fdfea2646970667358221220ddccaf720f2e41cc5f3af00d9ae0f09cfa9e5ef96ef11fc1540f8448805b4e1464736f6c634300080f0033542d33205265616c204d6164726964204f6666696369616c204d656d62657273686970",
  "immutableReferences": {},
  "source": "// SPDX-License-Identifier: MIT\r\npragma solidity ^0.8.4;\r\n\r\nimport \"@openzeppelin/contracts/token/ERC721/ERC721.sol\";\r\nimport \"@openzeppelin/contracts/token/ERC721/extensions/ERC721Enumerable.sol\";\r\nimport \"@openzeppelin/contracts/token/ERC721/extensions/ERC721URIStorage.sol\";\r\nimport \"@openzeppelin/contracts/security/Pausable.sol\";\r\nimport \"@openzeppelin/contracts/access/AccessControl.sol\";\r\nimport \"@openzeppelin/contracts/token/ERC721/extensions/ERC721Burnable.sol\";\r\nimport \"@openzeppelin/contracts/utils/Counters.sol\";\r\n\r\ncontract STRMMembership is\r\n    ERC721,\r\n    ERC721Enumerable,\r\n    ERC721URIStorage,\r\n    Pausable,\r\n    AccessControl,\r\n    ERC721Burnable\r\n{\r\n    // Roles (administrador, club, abonado)\r\n    bytes32 public constant CLUB_ADMIN_ROLE = keccak256(\"CLUB_ADMIN_ROLE\");\r\n    bytes32 public constant MEMBERSHIP_ROLE = keccak256(\"MEMBERSHIP_ROLE\");\r\n    mapping(address => bool) public clubAdmins;\r\n    mapping(address => bool) public memberships;\r\n    mapping(address => bool) public membershipsTokenMinted;\r\n\r\n    // Events\r\n    event MembershipTokenMinted(\r\n        address indexed membershipId,\r\n        uint256 indexed tokenId,\r\n        string tokenURI\r\n    );\r\n    event ClubAdminRoleGranted(address indexed sender, address indexed clubAddress);\r\n    event ClubAdminRoleRevoked(address indexed sender, address indexed clubAddress);\r\n    event MembershipRoleGranted(address indexed sender, address indexed membershipAddress);\r\n    event MembershipRoleRevoked(address indexed sender, address indexed membershipAddress);\r\n    event ErrorTransferToken(address indexed sender, address indexed receiber, uint256 indexed tokenId, string errorMessage);\r\n\r\n    using Counters for Counters.Counter;\r\n    Counters.Counter private _membershipCounter;\r\n\r\n    constructor() ERC721(\"T-3 Real Madrid Official Membership\", \"RMOM\") {\r\n        _grantRole(DEFAULT_ADMIN_ROLE, msg.sender);\r\n        _grantRole(CLUB_ADMIN_ROLE, msg.sender);\r\n        _grantRole(MEMBERSHIP_ROLE, msg.sender);\r\n        clubAdmins[msg.sender] = true;\r\n        memberships[msg.sender] = true;\r\n    }\r\n\r\n    function pause() public onlyRole(DEFAULT_ADMIN_ROLE) {\r\n        _pause();\r\n    }\r\n\r\n    function unpause() public onlyRole(DEFAULT_ADMIN_ROLE) {\r\n        _unpause();\r\n    }\r\n\r\n    // Minting of generation of the subscription by the Membership user\r\n    function mintMembershipToken(string memory uri)\r\n        public\r\n        onlyRole(MEMBERSHIP_ROLE)\r\n    {\r\n        if (membershipsTokenMinted[msg.sender]) {\r\n            revert(\"You already have a membership token minted\");\r\n        }\r\n        uint256 tokenId = _membershipCounter.current();\r\n        _membershipCounter.increment();\r\n\r\n        _safeMint(msg.sender, tokenId);\r\n        // ipfs://bafkreic3xz5cssins4ihcyoo27kcmflwmgqvpbm2stpr3xfxxnsykgkali\r\n        _setTokenURI(tokenId, uri);\r\n        membershipsTokenMinted[msg.sender] = true;\r\n        // TODO: Call contract for seasons tokens airdrop\r\n        emit MembershipTokenMinted(msg.sender, tokenId, uri);\r\n    }\r\n\r\n    function _beforeTokenTransfer(address from, address to, uint256 tokenId)\r\n        internal\r\n        whenNotPaused\r\n        override(ERC721, ERC721Enumerable)\r\n    {\r\n        super._beforeTokenTransfer(from, to, tokenId);\r\n    }\r\n\r\n    // The following functions are overrides required by Solidity.\r\n    function _burn(uint256 tokenId) internal override(ERC721, ERC721URIStorage) {\r\n        membershipsTokenMinted[msg.sender] = false;\r\n        super._burn(tokenId);\r\n    }\r\n\r\n    function tokenURI(uint256 tokenId)\r\n        public\r\n        view\r\n        override(ERC721, ERC721URIStorage)\r\n        returns (string memory)\r\n    {\r\n        return super.tokenURI(tokenId);\r\n    }\r\n\r\n    function supportsInterface(bytes4 interfaceId)\r\n        public\r\n        view\r\n        override(ERC721, ERC721Enumerable, AccessControl)\r\n        returns (bool)\r\n    {\r\n        return super.supportsInterface(interfaceId);\r\n    }\r\n\r\n    //ROLES FOR ASSIGNING AND UNASSIGNING ROLES\r\n    function grantClubRol(address account) public onlyRole(DEFAULT_ADMIN_ROLE) {\r\n        _grantRole(CLUB_ADMIN_ROLE, account);\r\n        clubAdmins[account] = true;\r\n        emit ClubAdminRoleGranted(msg.sender, account);\r\n    }\r\n\r\n    function revokeClubRol(address account)\r\n        public\r\n        onlyRole(DEFAULT_ADMIN_ROLE)\r\n    {\r\n        _revokeRole(CLUB_ADMIN_ROLE, account);\r\n        clubAdmins[account] = false;\r\n        emit ClubAdminRoleRevoked(msg.sender, account);\r\n    }\r\n\r\n    function hasClubRol(address account) public view returns (bool) {\r\n        return clubAdmins[account];\r\n    }\r\n\r\n    function grantMembershipRol(address account)\r\n        public\r\n        onlyRole(CLUB_ADMIN_ROLE)\r\n    {\r\n        _grantRole(MEMBERSHIP_ROLE, account);\r\n        memberships[account] = true;\r\n        emit MembershipRoleGranted(msg.sender, account);\r\n    }\r\n\r\n    function revokeMembershipRol(address account)\r\n        public\r\n        onlyRole(CLUB_ADMIN_ROLE)\r\n    {\r\n        _revokeRole(MEMBERSHIP_ROLE, account);\r\n        memberships[account] = false;\r\n        emit MembershipRoleRevoked(msg.sender, account);\r\n    }\r\n\r\n    function hasMembershipRol(address account) public view returns (bool) {\r\n        return memberships[account];\r\n    }\r\n\r\n    function isMembershipTokenMinted(address account) public view returns (bool) {\r\n        return membershipsTokenMinted[account];\r\n    }\r\n\r\n    function membershipsNumber() public view returns (uint256) {\r\n        return _membershipCounter.current();\r\n    }\r\n\r\n}\r\n",
  "sourcePath": "/Users/dosorio/Proyectos/Blockchain/CryptoTickets/contracts/STRMMembership.sol",
  "compiler": {
    "name": "solc",
    "version": "0.8.15+commit.e14f2714.Emscripten.clang"
  },
  "schemaVersion": "3.4.7",
  "updatedAt": "2022-06-26T19:06:29.385Z",
  "networkType": "ethereum",
  "devdoc": {
    "kind": "dev",
    "methods": {
      "approve(address,uint256)": {
        "details": "See {IERC721-approve}."
      },
      "balanceOf(address)": {
        "details": "See {IERC721-balanceOf}."
      },
      "burn(uint256)": {
        "details": "Burns `tokenId`. See {ERC721-_burn}. Requirements: - The caller must own `tokenId` or be an approved operator."
      },
      "getApproved(uint256)": {
        "details": "See {IERC721-getApproved}."
      },
      "getRoleAdmin(bytes32)": {
        "details": "Returns the admin role that controls `role`. See {grantRole} and {revokeRole}. To change a role's admin, use {_setRoleAdmin}."
      },
      "grantRole(bytes32,address)": {
        "details": "Grants `role` to `account`. If `account` had not been already granted `role`, emits a {RoleGranted} event. Requirements: - the caller must have ``role``'s admin role."
      },
      "hasRole(bytes32,address)": {
        "details": "Returns `true` if `account` has been granted `role`."
      },
      "isApprovedForAll(address,address)": {
        "details": "See {IERC721-isApprovedForAll}."
      },
      "name()": {
        "details": "See {IERC721Metadata-name}."
      },
      "ownerOf(uint256)": {
        "details": "See {IERC721-ownerOf}."
      },
      "paused()": {
        "details": "Returns true if the contract is paused, and false otherwise."
      },
      "renounceRole(bytes32,address)": {
        "details": "Revokes `role` from the calling account. Roles are often managed via {grantRole} and {revokeRole}: this function's purpose is to provide a mechanism for accounts to lose their privileges if they are compromised (such as when a trusted device is misplaced). If the calling account had been revoked `role`, emits a {RoleRevoked} event. Requirements: - the caller must be `account`."
      },
      "revokeRole(bytes32,address)": {
        "details": "Revokes `role` from `account`. If `account` had been granted `role`, emits a {RoleRevoked} event. Requirements: - the caller must have ``role``'s admin role."
      },
      "safeTransferFrom(address,address,uint256)": {
        "details": "See {IERC721-safeTransferFrom}."
      },
      "safeTransferFrom(address,address,uint256,bytes)": {
        "details": "See {IERC721-safeTransferFrom}."
      },
      "setApprovalForAll(address,bool)": {
        "details": "See {IERC721-setApprovalForAll}."
      },
      "symbol()": {
        "details": "See {IERC721Metadata-symbol}."
      },
      "tokenByIndex(uint256)": {
        "details": "See {IERC721Enumerable-tokenByIndex}."
      },
      "tokenOfOwnerByIndex(address,uint256)": {
        "details": "See {IERC721Enumerable-tokenOfOwnerByIndex}."
      },
      "totalSupply()": {
        "details": "See {IERC721Enumerable-totalSupply}."
      },
      "transferFrom(address,address,uint256)": {
        "details": "See {IERC721-transferFrom}."
      }
    },
    "version": 1
  },
  "userdoc": {
    "kind": "user",
    "methods": {},
    "version": 1
  }
}